{
	"contracts/PHASE INHERITANCE/Library System.sol": {
		"LibraryBase": {
			"abi": [
				{
					"inputs": [],
					"stateMutability": "nonpayable",
					"type": "constructor"
				},
				{
					"anonymous": false,
					"inputs": [
						{
							"indexed": false,
							"internalType": "string",
							"name": "_title",
							"type": "string"
						},
						{
							"indexed": false,
							"internalType": "string",
							"name": "_author",
							"type": "string"
						},
						{
							"indexed": false,
							"internalType": "uint256",
							"name": "_copies",
							"type": "uint256"
						}
					],
					"name": "BookAdded",
					"type": "event"
				},
				{
					"anonymous": false,
					"inputs": [
						{
							"indexed": false,
							"internalType": "address",
							"name": "borrower",
							"type": "address"
						},
						{
							"indexed": false,
							"internalType": "uint256",
							"name": "_id",
							"type": "uint256"
						}
					],
					"name": "BookBorrowed",
					"type": "event"
				},
				{
					"anonymous": false,
					"inputs": [
						{
							"indexed": false,
							"internalType": "address",
							"name": "borrower",
							"type": "address"
						},
						{
							"indexed": false,
							"internalType": "uint256",
							"name": "_id",
							"type": "uint256"
						}
					],
					"name": "BookReturned",
					"type": "event"
				},
				{
					"inputs": [
						{
							"internalType": "string",
							"name": "_title",
							"type": "string"
						},
						{
							"internalType": "string",
							"name": "_author",
							"type": "string"
						},
						{
							"internalType": "uint256",
							"name": "_copies",
							"type": "uint256"
						}
					],
					"name": "addBook",
					"outputs": [],
					"stateMutability": "nonpayable",
					"type": "function"
				},
				{
					"inputs": [
						{
							"internalType": "uint256",
							"name": "",
							"type": "uint256"
						}
					],
					"name": "books",
					"outputs": [
						{
							"internalType": "string",
							"name": "title",
							"type": "string"
						},
						{
							"internalType": "string",
							"name": "author",
							"type": "string"
						},
						{
							"internalType": "uint256",
							"name": "copies",
							"type": "uint256"
						}
					],
					"stateMutability": "view",
					"type": "function"
				},
				{
					"inputs": [
						{
							"internalType": "uint256",
							"name": "_id",
							"type": "uint256"
						}
					],
					"name": "borrowBook",
					"outputs": [],
					"stateMutability": "nonpayable",
					"type": "function"
				},
				{
					"inputs": [
						{
							"internalType": "uint256",
							"name": "_id",
							"type": "uint256"
						}
					],
					"name": "returnBook",
					"outputs": [],
					"stateMutability": "nonpayable",
					"type": "function"
				}
			],
			"devdoc": {
				"kind": "dev",
				"methods": {},
				"version": 1
			},
			"evm": {
				"assembly": "    /* \"contracts/PHASE INHERITANCE/Library System.sol\":56:1623  contract LibraryBase{... */\n  mstore(0x40, 0x80)\n    /* \"contracts/PHASE INHERITANCE/Library System.sol\":492:541  constructor() {... */\n  callvalue\n  dup1\n  iszero\n  tag_1\n  jumpi\n  revert(0x00, 0x00)\ntag_1:\n  pop\n    /* \"contracts/PHASE INHERITANCE/Library System.sol\":524:534  msg.sender */\n  caller\n    /* \"contracts/PHASE INHERITANCE/Library System.sol\":516:521  owner */\n  0x00\n  0x00\n    /* \"contracts/PHASE INHERITANCE/Library System.sol\":516:534  owner = msg.sender */\n  0x0100\n  exp\n  dup2\n  sload\n  dup2\n  0xffffffffffffffffffffffffffffffffffffffff\n  mul\n  not\n  and\n  swap1\n  dup4\n  0xffffffffffffffffffffffffffffffffffffffff\n  and\n  mul\n  or\n  swap1\n  sstore\n  pop\n    /* \"contracts/PHASE INHERITANCE/Library System.sol\":56:1623  contract LibraryBase{... */\n  dataSize(sub_0)\n  dup1\n  dataOffset(sub_0)\n  0x00\n  codecopy\n  0x00\n  return\nstop\n\nsub_0: assembly {\n        /* \"contracts/PHASE INHERITANCE/Library System.sol\":56:1623  contract LibraryBase{... */\n      mstore(0x40, 0x80)\n      callvalue\n      dup1\n      iszero\n      tag_1\n      jumpi\n      revert(0x00, 0x00)\n    tag_1:\n      pop\n      jumpi(tag_2, lt(calldatasize, 0x04))\n      shr(0xe0, calldataload(0x00))\n      dup1\n      0x04266224\n      eq\n      tag_3\n      jumpi\n      dup1\n      0x68744046\n      eq\n      tag_4\n      jumpi\n      dup1\n      0x7e490a9e\n      eq\n      tag_5\n      jumpi\n      dup1\n      0xca5140c9\n      eq\n      tag_6\n      jumpi\n    tag_2:\n      revert(0x00, 0x00)\n        /* \"contracts/PHASE INHERITANCE/Library System.sol\":734:1037  function addBook(string memory _title, string memory _author, uint _copies) public onlyOwner{... */\n    tag_3:\n      tag_7\n      0x04\n      dup1\n      calldatasize\n      sub\n      dup2\n      add\n      swap1\n      tag_8\n      swap2\n      swap1\n      tag_9\n      jump\t// in\n    tag_8:\n      tag_10\n      jump\t// in\n    tag_7:\n      stop\n        /* \"contracts/PHASE INHERITANCE/Library System.sol\":191:210  Book[] public books */\n    tag_4:\n      tag_11\n      0x04\n      dup1\n      calldatasize\n      sub\n      dup2\n      add\n      swap1\n      tag_12\n      swap2\n      swap1\n      tag_13\n      jump\t// in\n    tag_12:\n      tag_14\n      jump\t// in\n    tag_11:\n      mload(0x40)\n      tag_15\n      swap4\n      swap3\n      swap2\n      swap1\n      tag_16\n      jump\t// in\n    tag_15:\n      mload(0x40)\n      dup1\n      swap2\n      sub\n      swap1\n      return\n        /* \"contracts/PHASE INHERITANCE/Library System.sol\":1042:1365  function borrowBook(uint _id) public validId(_id) virtual {... */\n    tag_5:\n      tag_17\n      0x04\n      dup1\n      calldatasize\n      sub\n      dup2\n      add\n      swap1\n      tag_18\n      swap2\n      swap1\n      tag_13\n      jump\t// in\n    tag_18:\n      tag_19\n      jump\t// in\n    tag_17:\n      stop\n        /* \"contracts/PHASE INHERITANCE/Library System.sol\":1370:1621  function returnBook(uint _id) public validId(_id) virtual{... */\n    tag_6:\n      tag_20\n      0x04\n      dup1\n      calldatasize\n      sub\n      dup2\n      add\n      swap1\n      tag_21\n      swap2\n      swap1\n      tag_13\n      jump\t// in\n    tag_21:\n      tag_22\n      jump\t// in\n    tag_20:\n      stop\n        /* \"contracts/PHASE INHERITANCE/Library System.sol\":734:1037  function addBook(string memory _title, string memory _author, uint _copies) public onlyOwner{... */\n    tag_10:\n        /* \"contracts/PHASE INHERITANCE/Library System.sol\":599:604  owner */\n      0x00\n      0x00\n      swap1\n      sload\n      swap1\n      0x0100\n      exp\n      swap1\n      div\n      0xffffffffffffffffffffffffffffffffffffffff\n      and\n        /* \"contracts/PHASE INHERITANCE/Library System.sol\":585:604  msg.sender == owner */\n      0xffffffffffffffffffffffffffffffffffffffff\n      and\n        /* \"contracts/PHASE INHERITANCE/Library System.sol\":585:595  msg.sender */\n      caller\n        /* \"contracts/PHASE INHERITANCE/Library System.sol\":585:604  msg.sender == owner */\n      0xffffffffffffffffffffffffffffffffffffffff\n      and\n      eq\n        /* \"contracts/PHASE INHERITANCE/Library System.sol\":577:605  require(msg.sender == owner) */\n      tag_24\n      jumpi\n      revert(0x00, 0x00)\n    tag_24:\n        /* \"contracts/PHASE INHERITANCE/Library System.sol\":836:852  Book memory book */\n      0x00\n        /* \"contracts/PHASE INHERITANCE/Library System.sol\":855:885  Book(_title, _author, _copies) */\n      mload(0x40)\n      dup1\n      0x60\n      add\n      0x40\n      mstore\n      dup1\n        /* \"contracts/PHASE INHERITANCE/Library System.sol\":860:866  _title */\n      dup6\n        /* \"contracts/PHASE INHERITANCE/Library System.sol\":855:885  Book(_title, _author, _copies) */\n      dup2\n      mstore\n      0x20\n      add\n        /* \"contracts/PHASE INHERITANCE/Library System.sol\":868:875  _author */\n      dup5\n        /* \"contracts/PHASE INHERITANCE/Library System.sol\":855:885  Book(_title, _author, _copies) */\n      dup2\n      mstore\n      0x20\n      add\n        /* \"contracts/PHASE INHERITANCE/Library System.sol\":877:884  _copies */\n      dup4\n        /* \"contracts/PHASE INHERITANCE/Library System.sol\":855:885  Book(_title, _author, _copies) */\n      dup2\n      mstore\n      pop\n        /* \"contracts/PHASE INHERITANCE/Library System.sol\":836:885  Book memory book = Book(_title, _author, _copies) */\n      swap1\n      pop\n        /* \"contracts/PHASE INHERITANCE/Library System.sol\":895:900  books */\n      0x01\n        /* \"contracts/PHASE INHERITANCE/Library System.sol\":906:910  book */\n      dup2\n        /* \"contracts/PHASE INHERITANCE/Library System.sol\":895:911  books.push(book) */\n      swap1\n      dup1\n      0x01\n      dup2\n      sload\n      add\n      dup1\n      dup3\n      sstore\n      dup1\n      swap2\n      pop\n      pop\n      0x01\n      swap1\n      sub\n      swap1\n      0x00\n      mstore\n      keccak256(0x00, 0x20)\n      swap1\n      0x03\n      mul\n      add\n      0x00\n      swap1\n      swap2\n      swap1\n      swap2\n      swap1\n      swap2\n      pop\n      0x00\n      dup3\n      add\n      mload\n      dup2\n      0x00\n      add\n      swap1\n      dup2\n      tag_27\n      swap2\n      swap1\n      tag_28\n      jump\t// in\n    tag_27:\n      pop\n      0x20\n      dup3\n      add\n      mload\n      dup2\n      0x01\n      add\n      swap1\n      dup2\n      tag_29\n      swap2\n      swap1\n      tag_28\n      jump\t// in\n    tag_29:\n      pop\n      0x40\n      dup3\n      add\n      mload\n      dup2\n      0x02\n      add\n      sstore\n      pop\n      pop\n        /* \"contracts/PHASE INHERITANCE/Library System.sol\":921:931  uint index */\n      0x00\n        /* \"contracts/PHASE INHERITANCE/Library System.sol\":949:950  1 */\n      0x01\n        /* \"contracts/PHASE INHERITANCE/Library System.sol\":934:939  books */\n      dup1\n        /* \"contracts/PHASE INHERITANCE/Library System.sol\":934:946  books.length */\n      dup1\n      sload\n      swap1\n      pop\n        /* \"contracts/PHASE INHERITANCE/Library System.sol\":934:950  books.length - 1 */\n      tag_30\n      swap2\n      swap1\n      tag_31\n      jump\t// in\n    tag_30:\n        /* \"contracts/PHASE INHERITANCE/Library System.sol\":921:950  uint index = books.length - 1 */\n      swap1\n      pop\n        /* \"contracts/PHASE INHERITANCE/Library System.sol\":976:980  book */\n      dup2\n        /* \"contracts/PHASE INHERITANCE/Library System.sol\":960:966  bookId */\n      0x02\n        /* \"contracts/PHASE INHERITANCE/Library System.sol\":960:973  bookId[index] */\n      0x00\n        /* \"contracts/PHASE INHERITANCE/Library System.sol\":967:972  index */\n      dup4\n        /* \"contracts/PHASE INHERITANCE/Library System.sol\":960:973  bookId[index] */\n      dup2\n      mstore\n      0x20\n      add\n      swap1\n      dup2\n      mstore\n      0x20\n      add\n      0x00\n      keccak256\n        /* \"contracts/PHASE INHERITANCE/Library System.sol\":960:980  bookId[index] = book */\n      0x00\n      dup3\n      add\n      mload\n      dup2\n      0x00\n      add\n      swap1\n      dup2\n      tag_32\n      swap2\n      swap1\n      tag_28\n      jump\t// in\n    tag_32:\n      pop\n      0x20\n      dup3\n      add\n      mload\n      dup2\n      0x01\n      add\n      swap1\n      dup2\n      tag_33\n      swap2\n      swap1\n      tag_28\n      jump\t// in\n    tag_33:\n      pop\n      0x40\n      dup3\n      add\n      mload\n      dup2\n      0x02\n      add\n      sstore\n      swap1\n      pop\n      pop\n        /* \"contracts/PHASE INHERITANCE/Library System.sol\":995:1030  BookAdded(_title, _author, _copies) */\n      0xe0cf28f41f6224a2dd20ffaeb131cfb4bf849b63c819a1a03eee314eac687cb6\n        /* \"contracts/PHASE INHERITANCE/Library System.sol\":1005:1011  _title */\n      dup6\n        /* \"contracts/PHASE INHERITANCE/Library System.sol\":1013:1020  _author */\n      dup6\n        /* \"contracts/PHASE INHERITANCE/Library System.sol\":1022:1029  _copies */\n      dup6\n        /* \"contracts/PHASE INHERITANCE/Library System.sol\":995:1030  BookAdded(_title, _author, _copies) */\n      mload(0x40)\n      tag_34\n      swap4\n      swap3\n      swap2\n      swap1\n      tag_16\n      jump\t// in\n    tag_34:\n      mload(0x40)\n      dup1\n      swap2\n      sub\n      swap1\n      log1\n        /* \"contracts/PHASE INHERITANCE/Library System.sol\":826:1037  {... */\n      pop\n      pop\n        /* \"contracts/PHASE INHERITANCE/Library System.sol\":734:1037  function addBook(string memory _title, string memory _author, uint _copies) public onlyOwner{... */\n      pop\n      pop\n      pop\n      jump\t// out\n        /* \"contracts/PHASE INHERITANCE/Library System.sol\":191:210  Book[] public books */\n    tag_14:\n      0x01\n      dup2\n      dup2\n      sload\n      dup2\n      lt\n      tag_35\n      jumpi\n      0x00\n      dup1\n      revert\n    tag_35:\n      swap1\n      0x00\n      mstore\n      keccak256(0x00, 0x20)\n      swap1\n      0x03\n      mul\n      add\n      0x00\n      swap2\n      pop\n      swap1\n      pop\n      dup1\n      0x00\n      add\n      dup1\n      sload\n      tag_37\n      swap1\n      tag_38\n      jump\t// in\n    tag_37:\n      dup1\n      0x1f\n      add\n      0x20\n      dup1\n      swap2\n      div\n      mul\n      0x20\n      add\n      mload(0x40)\n      swap1\n      dup2\n      add\n      0x40\n      mstore\n      dup1\n      swap3\n      swap2\n      swap1\n      dup2\n      dup2\n      mstore\n      0x20\n      add\n      dup3\n      dup1\n      sload\n      tag_39\n      swap1\n      tag_38\n      jump\t// in\n    tag_39:\n      dup1\n      iszero\n      tag_40\n      jumpi\n      dup1\n      0x1f\n      lt\n      tag_41\n      jumpi\n      0x0100\n      dup1\n      dup4\n      sload\n      div\n      mul\n      dup4\n      mstore\n      swap2\n      0x20\n      add\n      swap2\n      jump(tag_40)\n    tag_41:\n      dup3\n      add\n      swap2\n      swap1\n      0x00\n      mstore\n      keccak256(0x00, 0x20)\n      swap1\n    tag_42:\n      dup2\n      sload\n      dup2\n      mstore\n      swap1\n      0x01\n      add\n      swap1\n      0x20\n      add\n      dup1\n      dup4\n      gt\n      tag_42\n      jumpi\n      dup3\n      swap1\n      sub\n      0x1f\n      and\n      dup3\n      add\n      swap2\n    tag_40:\n      pop\n      pop\n      pop\n      pop\n      pop\n      swap1\n      dup1\n      0x01\n      add\n      dup1\n      sload\n      tag_43\n      swap1\n      tag_38\n      jump\t// in\n    tag_43:\n      dup1\n      0x1f\n      add\n      0x20\n      dup1\n      swap2\n      div\n      mul\n      0x20\n      add\n      mload(0x40)\n      swap1\n      dup2\n      add\n      0x40\n      mstore\n      dup1\n      swap3\n      swap2\n      swap1\n      dup2\n      dup2\n      mstore\n      0x20\n      add\n      dup3\n      dup1\n      sload\n      tag_44\n      swap1\n      tag_38\n      jump\t// in\n    tag_44:\n      dup1\n      iszero\n      tag_45\n      jumpi\n      dup1\n      0x1f\n      lt\n      tag_46\n      jumpi\n      0x0100\n      dup1\n      dup4\n      sload\n      div\n      mul\n      dup4\n      mstore\n      swap2\n      0x20\n      add\n      swap2\n      jump(tag_45)\n    tag_46:\n      dup3\n      add\n      swap2\n      swap1\n      0x00\n      mstore\n      keccak256(0x00, 0x20)\n      swap1\n    tag_47:\n      dup2\n      sload\n      dup2\n      mstore\n      swap1\n      0x01\n      add\n      swap1\n      0x20\n      add\n      dup1\n      dup4\n      gt\n      tag_47\n      jumpi\n      dup3\n      swap1\n      sub\n      0x1f\n      and\n      dup3\n      add\n      swap2\n    tag_45:\n      pop\n      pop\n      pop\n      pop\n      pop\n      swap1\n      dup1\n      0x02\n      add\n      sload\n      swap1\n      pop\n      dup4\n      jump\t// out\n        /* \"contracts/PHASE INHERITANCE/Library System.sol\":1042:1365  function borrowBook(uint _id) public validId(_id) virtual {... */\n    tag_19:\n        /* \"contracts/PHASE INHERITANCE/Library System.sol\":1087:1090  _id */\n      dup1\n        /* \"contracts/PHASE INHERITANCE/Library System.sol\":679:684  books */\n      0x01\n        /* \"contracts/PHASE INHERITANCE/Library System.sol\":679:691  books.length */\n      dup1\n      sload\n      swap1\n      pop\n        /* \"contracts/PHASE INHERITANCE/Library System.sol\":673:676  _id */\n      dup2\n        /* \"contracts/PHASE INHERITANCE/Library System.sol\":673:691  _id < books.length */\n      lt\n        /* \"contracts/PHASE INHERITANCE/Library System.sol\":665:711  require(_id < books.length, \"Invalid Book ID\") */\n      tag_49\n      jumpi\n      mload(0x40)\n      0x08c379a000000000000000000000000000000000000000000000000000000000\n      dup2\n      mstore\n      0x04\n      add\n      tag_50\n      swap1\n      tag_51\n      jump\t// in\n    tag_50:\n      mload(0x40)\n      dup1\n      swap2\n      sub\n      swap1\n      revert\n    tag_49:\n        /* \"contracts/PHASE INHERITANCE/Library System.sol\":1119:1130  hasBorrowed */\n      0x03\n        /* \"contracts/PHASE INHERITANCE/Library System.sol\":1119:1142  hasBorrowed[msg.sender] */\n      0x00\n        /* \"contracts/PHASE INHERITANCE/Library System.sol\":1131:1141  msg.sender */\n      caller\n        /* \"contracts/PHASE INHERITANCE/Library System.sol\":1119:1142  hasBorrowed[msg.sender] */\n      0xffffffffffffffffffffffffffffffffffffffff\n      and\n      0xffffffffffffffffffffffffffffffffffffffff\n      and\n      dup2\n      mstore\n      0x20\n      add\n      swap1\n      dup2\n      mstore\n      0x20\n      add\n      0x00\n      keccak256\n        /* \"contracts/PHASE INHERITANCE/Library System.sol\":1119:1147  hasBorrowed[msg.sender][_id] */\n      0x00\n        /* \"contracts/PHASE INHERITANCE/Library System.sol\":1143:1146  _id */\n      dup4\n        /* \"contracts/PHASE INHERITANCE/Library System.sol\":1119:1147  hasBorrowed[msg.sender][_id] */\n      dup2\n      mstore\n      0x20\n      add\n      swap1\n      dup2\n      mstore\n      0x20\n      add\n      0x00\n      keccak256\n      0x00\n      swap1\n      sload\n      swap1\n      0x0100\n      exp\n      swap1\n      div\n      0xff\n      and\n        /* \"contracts/PHASE INHERITANCE/Library System.sol\":1118:1147  !hasBorrowed[msg.sender][_id] */\n      iszero\n        /* \"contracts/PHASE INHERITANCE/Library System.sol\":1110:1173  require(!hasBorrowed[msg.sender][_id], \"Book already borrowed\") */\n      tag_53\n      jumpi\n      mload(0x40)\n      0x08c379a000000000000000000000000000000000000000000000000000000000\n      dup2\n      mstore\n      0x04\n      add\n      tag_54\n      swap1\n      tag_55\n      jump\t// in\n    tag_54:\n      mload(0x40)\n      dup1\n      swap2\n      sub\n      swap1\n      revert\n    tag_53:\n        /* \"contracts/PHASE INHERITANCE/Library System.sol\":1211:1212  0 */\n      0x00\n        /* \"contracts/PHASE INHERITANCE/Library System.sol\":1191:1196  books */\n      0x01\n        /* \"contracts/PHASE INHERITANCE/Library System.sol\":1197:1200  _id */\n      dup4\n        /* \"contracts/PHASE INHERITANCE/Library System.sol\":1191:1201  books[_id] */\n      dup2\n      sload\n      dup2\n      lt\n      tag_56\n      jumpi\n      tag_57\n      tag_58\n      jump\t// in\n    tag_57:\n    tag_56:\n      swap1\n      0x00\n      mstore\n      keccak256(0x00, 0x20)\n      swap1\n      0x03\n      mul\n      add\n        /* \"contracts/PHASE INHERITANCE/Library System.sol\":1191:1208  books[_id].copies */\n      0x02\n      add\n      sload\n        /* \"contracts/PHASE INHERITANCE/Library System.sol\":1191:1212  books[_id].copies > 0 */\n      gt\n        /* \"contracts/PHASE INHERITANCE/Library System.sol\":1183:1240  require(books[_id].copies > 0, \"Book inventory is empty\") */\n      tag_60\n      jumpi\n      mload(0x40)\n      0x08c379a000000000000000000000000000000000000000000000000000000000\n      dup2\n      mstore\n      0x04\n      add\n      tag_61\n      swap1\n      tag_62\n      jump\t// in\n    tag_61:\n      mload(0x40)\n      dup1\n      swap2\n      sub\n      swap1\n      revert\n    tag_60:\n        /* \"contracts/PHASE INHERITANCE/Library System.sol\":1250:1255  books */\n      0x01\n        /* \"contracts/PHASE INHERITANCE/Library System.sol\":1256:1259  _id */\n      dup3\n        /* \"contracts/PHASE INHERITANCE/Library System.sol\":1250:1260  books[_id] */\n      dup2\n      sload\n      dup2\n      lt\n      tag_63\n      jumpi\n      tag_64\n      tag_58\n      jump\t// in\n    tag_64:\n    tag_63:\n      swap1\n      0x00\n      mstore\n      keccak256(0x00, 0x20)\n      swap1\n      0x03\n      mul\n      add\n        /* \"contracts/PHASE INHERITANCE/Library System.sol\":1250:1267  books[_id].copies */\n      0x02\n      add\n      0x00\n        /* \"contracts/PHASE INHERITANCE/Library System.sol\":1250:1269  books[_id].copies-- */\n      dup2\n      sload\n      dup1\n      swap3\n      swap2\n      swap1\n      tag_66\n      swap1\n      tag_67\n      jump\t// in\n    tag_66:\n      swap2\n      swap1\n      pop\n      sstore\n      pop\n        /* \"contracts/PHASE INHERITANCE/Library System.sol\":1310:1314  true */\n      0x01\n        /* \"contracts/PHASE INHERITANCE/Library System.sol\":1279:1290  hasBorrowed */\n      0x03\n        /* \"contracts/PHASE INHERITANCE/Library System.sol\":1279:1302  hasBorrowed[msg.sender] */\n      0x00\n        /* \"contracts/PHASE INHERITANCE/Library System.sol\":1291:1301  msg.sender */\n      caller\n        /* \"contracts/PHASE INHERITANCE/Library System.sol\":1279:1302  hasBorrowed[msg.sender] */\n      0xffffffffffffffffffffffffffffffffffffffff\n      and\n      0xffffffffffffffffffffffffffffffffffffffff\n      and\n      dup2\n      mstore\n      0x20\n      add\n      swap1\n      dup2\n      mstore\n      0x20\n      add\n      0x00\n      keccak256\n        /* \"contracts/PHASE INHERITANCE/Library System.sol\":1279:1307  hasBorrowed[msg.sender][_id] */\n      0x00\n        /* \"contracts/PHASE INHERITANCE/Library System.sol\":1303:1306  _id */\n      dup5\n        /* \"contracts/PHASE INHERITANCE/Library System.sol\":1279:1307  hasBorrowed[msg.sender][_id] */\n      dup2\n      mstore\n      0x20\n      add\n      swap1\n      dup2\n      mstore\n      0x20\n      add\n      0x00\n      keccak256\n      0x00\n        /* \"contracts/PHASE INHERITANCE/Library System.sol\":1279:1314  hasBorrowed[msg.sender][_id] = true */\n      0x0100\n      exp\n      dup2\n      sload\n      dup2\n      0xff\n      mul\n      not\n      and\n      swap1\n      dup4\n      iszero\n      iszero\n      mul\n      or\n      swap1\n      sstore\n      pop\n        /* \"contracts/PHASE INHERITANCE/Library System.sol\":1329:1358  BookBorrowed(msg.sender, _id) */\n      0x84edab31b887a66b8af059a2b9c3c53e440d8b54f65102ae6acc11bf485db9e2\n        /* \"contracts/PHASE INHERITANCE/Library System.sol\":1342:1352  msg.sender */\n      caller\n        /* \"contracts/PHASE INHERITANCE/Library System.sol\":1354:1357  _id */\n      dup4\n        /* \"contracts/PHASE INHERITANCE/Library System.sol\":1329:1358  BookBorrowed(msg.sender, _id) */\n      mload(0x40)\n      tag_68\n      swap3\n      swap2\n      swap1\n      tag_69\n      jump\t// in\n    tag_68:\n      mload(0x40)\n      dup1\n      swap2\n      sub\n      swap1\n      log1\n        /* \"contracts/PHASE INHERITANCE/Library System.sol\":1042:1365  function borrowBook(uint _id) public validId(_id) virtual {... */\n      pop\n      pop\n      jump\t// out\n        /* \"contracts/PHASE INHERITANCE/Library System.sol\":1370:1621  function returnBook(uint _id) public validId(_id) virtual{... */\n    tag_22:\n        /* \"contracts/PHASE INHERITANCE/Library System.sol\":1415:1418  _id */\n      dup1\n        /* \"contracts/PHASE INHERITANCE/Library System.sol\":679:684  books */\n      0x01\n        /* \"contracts/PHASE INHERITANCE/Library System.sol\":679:691  books.length */\n      dup1\n      sload\n      swap1\n      pop\n        /* \"contracts/PHASE INHERITANCE/Library System.sol\":673:676  _id */\n      dup2\n        /* \"contracts/PHASE INHERITANCE/Library System.sol\":673:691  _id < books.length */\n      lt\n        /* \"contracts/PHASE INHERITANCE/Library System.sol\":665:711  require(_id < books.length, \"Invalid Book ID\") */\n      tag_71\n      jumpi\n      mload(0x40)\n      0x08c379a000000000000000000000000000000000000000000000000000000000\n      dup2\n      mstore\n      0x04\n      add\n      tag_72\n      swap1\n      tag_51\n      jump\t// in\n    tag_72:\n      mload(0x40)\n      dup1\n      swap2\n      sub\n      swap1\n      revert\n    tag_71:\n        /* \"contracts/PHASE INHERITANCE/Library System.sol\":1445:1456  hasBorrowed */\n      0x03\n        /* \"contracts/PHASE INHERITANCE/Library System.sol\":1445:1468  hasBorrowed[msg.sender] */\n      0x00\n        /* \"contracts/PHASE INHERITANCE/Library System.sol\":1457:1467  msg.sender */\n      caller\n        /* \"contracts/PHASE INHERITANCE/Library System.sol\":1445:1468  hasBorrowed[msg.sender] */\n      0xffffffffffffffffffffffffffffffffffffffff\n      and\n      0xffffffffffffffffffffffffffffffffffffffff\n      and\n      dup2\n      mstore\n      0x20\n      add\n      swap1\n      dup2\n      mstore\n      0x20\n      add\n      0x00\n      keccak256\n        /* \"contracts/PHASE INHERITANCE/Library System.sol\":1445:1473  hasBorrowed[msg.sender][_id] */\n      0x00\n        /* \"contracts/PHASE INHERITANCE/Library System.sol\":1469:1472  _id */\n      dup4\n        /* \"contracts/PHASE INHERITANCE/Library System.sol\":1445:1473  hasBorrowed[msg.sender][_id] */\n      dup2\n      mstore\n      0x20\n      add\n      swap1\n      dup2\n      mstore\n      0x20\n      add\n      0x00\n      keccak256\n      0x00\n      swap1\n      sload\n      swap1\n      0x0100\n      exp\n      swap1\n      div\n      0xff\n      and\n        /* \"contracts/PHASE INHERITANCE/Library System.sol\":1437:1495  require(hasBorrowed[msg.sender][_id], \"Book not borrowed\") */\n      tag_74\n      jumpi\n      mload(0x40)\n      0x08c379a000000000000000000000000000000000000000000000000000000000\n      dup2\n      mstore\n      0x04\n      add\n      tag_75\n      swap1\n      tag_76\n      jump\t// in\n    tag_75:\n      mload(0x40)\n      dup1\n      swap2\n      sub\n      swap1\n      revert\n    tag_74:\n        /* \"contracts/PHASE INHERITANCE/Library System.sol\":1505:1510  books */\n      0x01\n        /* \"contracts/PHASE INHERITANCE/Library System.sol\":1511:1514  _id */\n      dup3\n        /* \"contracts/PHASE INHERITANCE/Library System.sol\":1505:1515  books[_id] */\n      dup2\n      sload\n      dup2\n      lt\n      tag_77\n      jumpi\n      tag_78\n      tag_58\n      jump\t// in\n    tag_78:\n    tag_77:\n      swap1\n      0x00\n      mstore\n      keccak256(0x00, 0x20)\n      swap1\n      0x03\n      mul\n      add\n        /* \"contracts/PHASE INHERITANCE/Library System.sol\":1505:1522  books[_id].copies */\n      0x02\n      add\n      0x00\n        /* \"contracts/PHASE INHERITANCE/Library System.sol\":1505:1524  books[_id].copies++ */\n      dup2\n      sload\n      dup1\n      swap3\n      swap2\n      swap1\n      tag_80\n      swap1\n      tag_81\n      jump\t// in\n    tag_80:\n      swap2\n      swap1\n      pop\n      sstore\n      pop\n        /* \"contracts/PHASE INHERITANCE/Library System.sol\":1565:1570  false */\n      0x00\n        /* \"contracts/PHASE INHERITANCE/Library System.sol\":1534:1545  hasBorrowed */\n      0x03\n        /* \"contracts/PHASE INHERITANCE/Library System.sol\":1534:1557  hasBorrowed[msg.sender] */\n      0x00\n        /* \"contracts/PHASE INHERITANCE/Library System.sol\":1546:1556  msg.sender */\n      caller\n        /* \"contracts/PHASE INHERITANCE/Library System.sol\":1534:1557  hasBorrowed[msg.sender] */\n      0xffffffffffffffffffffffffffffffffffffffff\n      and\n      0xffffffffffffffffffffffffffffffffffffffff\n      and\n      dup2\n      mstore\n      0x20\n      add\n      swap1\n      dup2\n      mstore\n      0x20\n      add\n      0x00\n      keccak256\n        /* \"contracts/PHASE INHERITANCE/Library System.sol\":1534:1562  hasBorrowed[msg.sender][_id] */\n      0x00\n        /* \"contracts/PHASE INHERITANCE/Library System.sol\":1558:1561  _id */\n      dup5\n        /* \"contracts/PHASE INHERITANCE/Library System.sol\":1534:1562  hasBorrowed[msg.sender][_id] */\n      dup2\n      mstore\n      0x20\n      add\n      swap1\n      dup2\n      mstore\n      0x20\n      add\n      0x00\n      keccak256\n      0x00\n        /* \"contracts/PHASE INHERITANCE/Library System.sol\":1534:1570  hasBorrowed[msg.sender][_id] = false */\n      0x0100\n      exp\n      dup2\n      sload\n      dup2\n      0xff\n      mul\n      not\n      and\n      swap1\n      dup4\n      iszero\n      iszero\n      mul\n      or\n      swap1\n      sstore\n      pop\n        /* \"contracts/PHASE INHERITANCE/Library System.sol\":1585:1614  BookReturned(msg.sender, _id) */\n      0x095bd1d20746d0513acf2a85fa1f8ed7de89ff83285974a106ca40499e16c9c8\n        /* \"contracts/PHASE INHERITANCE/Library System.sol\":1598:1608  msg.sender */\n      caller\n        /* \"contracts/PHASE INHERITANCE/Library System.sol\":1610:1613  _id */\n      dup4\n        /* \"contracts/PHASE INHERITANCE/Library System.sol\":1585:1614  BookReturned(msg.sender, _id) */\n      mload(0x40)\n      tag_82\n      swap3\n      swap2\n      swap1\n      tag_69\n      jump\t// in\n    tag_82:\n      mload(0x40)\n      dup1\n      swap2\n      sub\n      swap1\n      log1\n        /* \"contracts/PHASE INHERITANCE/Library System.sol\":1370:1621  function returnBook(uint _id) public validId(_id) virtual{... */\n      pop\n      pop\n      jump\t// out\n        /* \"#utility.yul\":7:82   */\n    tag_83:\n        /* \"#utility.yul\":40:46   */\n      0x00\n        /* \"#utility.yul\":73:75   */\n      0x40\n        /* \"#utility.yul\":67:76   */\n      mload\n        /* \"#utility.yul\":57:76   */\n      swap1\n      pop\n        /* \"#utility.yul\":7:82   */\n      swap1\n      jump\t// out\n        /* \"#utility.yul\":88:205   */\n    tag_84:\n        /* \"#utility.yul\":197:198   */\n      0x00\n        /* \"#utility.yul\":194:195   */\n      0x00\n        /* \"#utility.yul\":187:199   */\n      revert\n        /* \"#utility.yul\":211:328   */\n    tag_85:\n        /* \"#utility.yul\":320:321   */\n      0x00\n        /* \"#utility.yul\":317:318   */\n      0x00\n        /* \"#utility.yul\":310:322   */\n      revert\n        /* \"#utility.yul\":334:451   */\n    tag_86:\n        /* \"#utility.yul\":443:444   */\n      0x00\n        /* \"#utility.yul\":440:441   */\n      0x00\n        /* \"#utility.yul\":433:445   */\n      revert\n        /* \"#utility.yul\":457:574   */\n    tag_87:\n        /* \"#utility.yul\":566:567   */\n      0x00\n        /* \"#utility.yul\":563:564   */\n      0x00\n        /* \"#utility.yul\":556:568   */\n      revert\n        /* \"#utility.yul\":580:682   */\n    tag_88:\n        /* \"#utility.yul\":621:627   */\n      0x00\n        /* \"#utility.yul\":672:674   */\n      0x1f\n        /* \"#utility.yul\":668:675   */\n      not\n        /* \"#utility.yul\":663:665   */\n      0x1f\n        /* \"#utility.yul\":656:661   */\n      dup4\n        /* \"#utility.yul\":652:666   */\n      add\n        /* \"#utility.yul\":648:676   */\n      and\n        /* \"#utility.yul\":638:676   */\n      swap1\n      pop\n        /* \"#utility.yul\":580:682   */\n      swap2\n      swap1\n      pop\n      jump\t// out\n        /* \"#utility.yul\":688:868   */\n    tag_89:\n        /* \"#utility.yul\":736:813   */\n      0x4e487b7100000000000000000000000000000000000000000000000000000000\n        /* \"#utility.yul\":733:734   */\n      0x00\n        /* \"#utility.yul\":726:814   */\n      mstore\n        /* \"#utility.yul\":833:837   */\n      0x41\n        /* \"#utility.yul\":830:831   */\n      0x04\n        /* \"#utility.yul\":823:838   */\n      mstore\n        /* \"#utility.yul\":857:861   */\n      0x24\n        /* \"#utility.yul\":854:855   */\n      0x00\n        /* \"#utility.yul\":847:862   */\n      revert\n        /* \"#utility.yul\":874:1155   */\n    tag_90:\n        /* \"#utility.yul\":957:984   */\n      tag_141\n        /* \"#utility.yul\":979:983   */\n      dup3\n        /* \"#utility.yul\":957:984   */\n      tag_88\n      jump\t// in\n    tag_141:\n        /* \"#utility.yul\":949:955   */\n      dup2\n        /* \"#utility.yul\":945:985   */\n      add\n        /* \"#utility.yul\":1087:1093   */\n      dup2\n        /* \"#utility.yul\":1075:1085   */\n      dup2\n        /* \"#utility.yul\":1072:1094   */\n      lt\n        /* \"#utility.yul\":1051:1069   */\n      0xffffffffffffffff\n        /* \"#utility.yul\":1039:1049   */\n      dup3\n        /* \"#utility.yul\":1036:1070   */\n      gt\n        /* \"#utility.yul\":1033:1095   */\n      or\n        /* \"#utility.yul\":1030:1118   */\n      iszero\n      tag_142\n      jumpi\n        /* \"#utility.yul\":1098:1116   */\n      tag_143\n      tag_89\n      jump\t// in\n    tag_143:\n        /* \"#utility.yul\":1030:1118   */\n    tag_142:\n        /* \"#utility.yul\":1138:1148   */\n      dup1\n        /* \"#utility.yul\":1134:1136   */\n      0x40\n        /* \"#utility.yul\":1127:1149   */\n      mstore\n        /* \"#utility.yul\":917:1155   */\n      pop\n        /* \"#utility.yul\":874:1155   */\n      pop\n      pop\n      jump\t// out\n        /* \"#utility.yul\":1161:1290   */\n    tag_91:\n        /* \"#utility.yul\":1195:1201   */\n      0x00\n        /* \"#utility.yul\":1222:1242   */\n      tag_145\n      tag_83\n      jump\t// in\n    tag_145:\n        /* \"#utility.yul\":1212:1242   */\n      swap1\n      pop\n        /* \"#utility.yul\":1251:1284   */\n      tag_146\n        /* \"#utility.yul\":1279:1283   */\n      dup3\n        /* \"#utility.yul\":1271:1277   */\n      dup3\n        /* \"#utility.yul\":1251:1284   */\n      tag_90\n      jump\t// in\n    tag_146:\n        /* \"#utility.yul\":1161:1290   */\n      swap2\n      swap1\n      pop\n      jump\t// out\n        /* \"#utility.yul\":1296:1604   */\n    tag_92:\n        /* \"#utility.yul\":1358:1362   */\n      0x00\n        /* \"#utility.yul\":1448:1466   */\n      0xffffffffffffffff\n        /* \"#utility.yul\":1440:1446   */\n      dup3\n        /* \"#utility.yul\":1437:1467   */\n      gt\n        /* \"#utility.yul\":1434:1490   */\n      iszero\n      tag_148\n      jumpi\n        /* \"#utility.yul\":1470:1488   */\n      tag_149\n      tag_89\n      jump\t// in\n    tag_149:\n        /* \"#utility.yul\":1434:1490   */\n    tag_148:\n        /* \"#utility.yul\":1508:1537   */\n      tag_150\n        /* \"#utility.yul\":1530:1536   */\n      dup3\n        /* \"#utility.yul\":1508:1537   */\n      tag_88\n      jump\t// in\n    tag_150:\n        /* \"#utility.yul\":1500:1537   */\n      swap1\n      pop\n        /* \"#utility.yul\":1592:1596   */\n      0x20\n        /* \"#utility.yul\":1586:1590   */\n      dup2\n        /* \"#utility.yul\":1582:1597   */\n      add\n        /* \"#utility.yul\":1574:1597   */\n      swap1\n      pop\n        /* \"#utility.yul\":1296:1604   */\n      swap2\n      swap1\n      pop\n      jump\t// out\n        /* \"#utility.yul\":1610:1758   */\n    tag_93:\n        /* \"#utility.yul\":1708:1714   */\n      dup3\n        /* \"#utility.yul\":1703:1706   */\n      dup2\n        /* \"#utility.yul\":1698:1701   */\n      dup4\n        /* \"#utility.yul\":1685:1715   */\n      calldatacopy\n        /* \"#utility.yul\":1749:1750   */\n      0x00\n        /* \"#utility.yul\":1740:1746   */\n      dup4\n        /* \"#utility.yul\":1735:1738   */\n      dup4\n        /* \"#utility.yul\":1731:1747   */\n      add\n        /* \"#utility.yul\":1724:1751   */\n      mstore\n        /* \"#utility.yul\":1610:1758   */\n      pop\n      pop\n      pop\n      jump\t// out\n        /* \"#utility.yul\":1764:2189   */\n    tag_94:\n        /* \"#utility.yul\":1842:1847   */\n      0x00\n        /* \"#utility.yul\":1867:1933   */\n      tag_153\n        /* \"#utility.yul\":1883:1932   */\n      tag_154\n        /* \"#utility.yul\":1925:1931   */\n      dup5\n        /* \"#utility.yul\":1883:1932   */\n      tag_92\n      jump\t// in\n    tag_154:\n        /* \"#utility.yul\":1867:1933   */\n      tag_91\n      jump\t// in\n    tag_153:\n        /* \"#utility.yul\":1858:1933   */\n      swap1\n      pop\n        /* \"#utility.yul\":1956:1962   */\n      dup3\n        /* \"#utility.yul\":1949:1954   */\n      dup2\n        /* \"#utility.yul\":1942:1963   */\n      mstore\n        /* \"#utility.yul\":1994:1998   */\n      0x20\n        /* \"#utility.yul\":1987:1992   */\n      dup2\n        /* \"#utility.yul\":1983:1999   */\n      add\n        /* \"#utility.yul\":2032:2035   */\n      dup5\n        /* \"#utility.yul\":2023:2029   */\n      dup5\n        /* \"#utility.yul\":2018:2021   */\n      dup5\n        /* \"#utility.yul\":2014:2030   */\n      add\n        /* \"#utility.yul\":2011:2036   */\n      gt\n        /* \"#utility.yul\":2008:2120   */\n      iszero\n      tag_155\n      jumpi\n        /* \"#utility.yul\":2039:2118   */\n      tag_156\n      tag_87\n      jump\t// in\n    tag_156:\n        /* \"#utility.yul\":2008:2120   */\n    tag_155:\n        /* \"#utility.yul\":2129:2183   */\n      tag_157\n        /* \"#utility.yul\":2176:2182   */\n      dup5\n        /* \"#utility.yul\":2171:2174   */\n      dup3\n        /* \"#utility.yul\":2166:2169   */\n      dup6\n        /* \"#utility.yul\":2129:2183   */\n      tag_93\n      jump\t// in\n    tag_157:\n        /* \"#utility.yul\":1848:2189   */\n      pop\n        /* \"#utility.yul\":1764:2189   */\n      swap4\n      swap3\n      pop\n      pop\n      pop\n      jump\t// out\n        /* \"#utility.yul\":2209:2549   */\n    tag_95:\n        /* \"#utility.yul\":2265:2270   */\n      0x00\n        /* \"#utility.yul\":2314:2317   */\n      dup3\n        /* \"#utility.yul\":2307:2311   */\n      0x1f\n        /* \"#utility.yul\":2299:2305   */\n      dup4\n        /* \"#utility.yul\":2295:2312   */\n      add\n        /* \"#utility.yul\":2291:2318   */\n      slt\n        /* \"#utility.yul\":2281:2403   */\n      tag_159\n      jumpi\n        /* \"#utility.yul\":2322:2401   */\n      tag_160\n      tag_86\n      jump\t// in\n    tag_160:\n        /* \"#utility.yul\":2281:2403   */\n    tag_159:\n        /* \"#utility.yul\":2439:2445   */\n      dup2\n        /* \"#utility.yul\":2426:2446   */\n      calldataload\n        /* \"#utility.yul\":2464:2543   */\n      tag_161\n        /* \"#utility.yul\":2539:2542   */\n      dup5\n        /* \"#utility.yul\":2531:2537   */\n      dup3\n        /* \"#utility.yul\":2524:2528   */\n      0x20\n        /* \"#utility.yul\":2516:2522   */\n      dup7\n        /* \"#utility.yul\":2512:2529   */\n      add\n        /* \"#utility.yul\":2464:2543   */\n      tag_94\n      jump\t// in\n    tag_161:\n        /* \"#utility.yul\":2455:2543   */\n      swap2\n      pop\n        /* \"#utility.yul\":2271:2549   */\n      pop\n        /* \"#utility.yul\":2209:2549   */\n      swap3\n      swap2\n      pop\n      pop\n      jump\t// out\n        /* \"#utility.yul\":2555:2632   */\n    tag_96:\n        /* \"#utility.yul\":2592:2599   */\n      0x00\n        /* \"#utility.yul\":2621:2626   */\n      dup2\n        /* \"#utility.yul\":2610:2626   */\n      swap1\n      pop\n        /* \"#utility.yul\":2555:2632   */\n      swap2\n      swap1\n      pop\n      jump\t// out\n        /* \"#utility.yul\":2638:2760   */\n    tag_97:\n        /* \"#utility.yul\":2711:2735   */\n      tag_164\n        /* \"#utility.yul\":2729:2734   */\n      dup2\n        /* \"#utility.yul\":2711:2735   */\n      tag_96\n      jump\t// in\n    tag_164:\n        /* \"#utility.yul\":2704:2709   */\n      dup2\n        /* \"#utility.yul\":2701:2736   */\n      eq\n        /* \"#utility.yul\":2691:2754   */\n      tag_165\n      jumpi\n        /* \"#utility.yul\":2750:2751   */\n      0x00\n        /* \"#utility.yul\":2747:2748   */\n      0x00\n        /* \"#utility.yul\":2740:2752   */\n      revert\n        /* \"#utility.yul\":2691:2754   */\n    tag_165:\n        /* \"#utility.yul\":2638:2760   */\n      pop\n      jump\t// out\n        /* \"#utility.yul\":2766:2905   */\n    tag_98:\n        /* \"#utility.yul\":2812:2817   */\n      0x00\n        /* \"#utility.yul\":2850:2856   */\n      dup2\n        /* \"#utility.yul\":2837:2857   */\n      calldataload\n        /* \"#utility.yul\":2828:2857   */\n      swap1\n      pop\n        /* \"#utility.yul\":2866:2899   */\n      tag_167\n        /* \"#utility.yul\":2893:2898   */\n      dup2\n        /* \"#utility.yul\":2866:2899   */\n      tag_97\n      jump\t// in\n    tag_167:\n        /* \"#utility.yul\":2766:2905   */\n      swap3\n      swap2\n      pop\n      pop\n      jump\t// out\n        /* \"#utility.yul\":2911:3890   */\n    tag_9:\n        /* \"#utility.yul\":3008:3014   */\n      0x00\n        /* \"#utility.yul\":3016:3022   */\n      0x00\n        /* \"#utility.yul\":3024:3030   */\n      0x00\n        /* \"#utility.yul\":3073:3075   */\n      0x60\n        /* \"#utility.yul\":3061:3070   */\n      dup5\n        /* \"#utility.yul\":3052:3059   */\n      dup7\n        /* \"#utility.yul\":3048:3071   */\n      sub\n        /* \"#utility.yul\":3044:3076   */\n      slt\n        /* \"#utility.yul\":3041:3160   */\n      iszero\n      tag_169\n      jumpi\n        /* \"#utility.yul\":3079:3158   */\n      tag_170\n      tag_84\n      jump\t// in\n    tag_170:\n        /* \"#utility.yul\":3041:3160   */\n    tag_169:\n        /* \"#utility.yul\":3227:3228   */\n      0x00\n        /* \"#utility.yul\":3216:3225   */\n      dup5\n        /* \"#utility.yul\":3212:3229   */\n      add\n        /* \"#utility.yul\":3199:3230   */\n      calldataload\n        /* \"#utility.yul\":3257:3275   */\n      0xffffffffffffffff\n        /* \"#utility.yul\":3249:3255   */\n      dup2\n        /* \"#utility.yul\":3246:3276   */\n      gt\n        /* \"#utility.yul\":3243:3360   */\n      iszero\n      tag_171\n      jumpi\n        /* \"#utility.yul\":3279:3358   */\n      tag_172\n      tag_85\n      jump\t// in\n    tag_172:\n        /* \"#utility.yul\":3243:3360   */\n    tag_171:\n        /* \"#utility.yul\":3384:3447   */\n      tag_173\n        /* \"#utility.yul\":3439:3446   */\n      dup7\n        /* \"#utility.yul\":3430:3436   */\n      dup3\n        /* \"#utility.yul\":3419:3428   */\n      dup8\n        /* \"#utility.yul\":3415:3437   */\n      add\n        /* \"#utility.yul\":3384:3447   */\n      tag_95\n      jump\t// in\n    tag_173:\n        /* \"#utility.yul\":3374:3447   */\n      swap4\n      pop\n        /* \"#utility.yul\":3170:3457   */\n      pop\n        /* \"#utility.yul\":3524:3526   */\n      0x20\n        /* \"#utility.yul\":3513:3522   */\n      dup5\n        /* \"#utility.yul\":3509:3527   */\n      add\n        /* \"#utility.yul\":3496:3528   */\n      calldataload\n        /* \"#utility.yul\":3555:3573   */\n      0xffffffffffffffff\n        /* \"#utility.yul\":3547:3553   */\n      dup2\n        /* \"#utility.yul\":3544:3574   */\n      gt\n        /* \"#utility.yul\":3541:3658   */\n      iszero\n      tag_174\n      jumpi\n        /* \"#utility.yul\":3577:3656   */\n      tag_175\n      tag_85\n      jump\t// in\n    tag_175:\n        /* \"#utility.yul\":3541:3658   */\n    tag_174:\n        /* \"#utility.yul\":3682:3745   */\n      tag_176\n        /* \"#utility.yul\":3737:3744   */\n      dup7\n        /* \"#utility.yul\":3728:3734   */\n      dup3\n        /* \"#utility.yul\":3717:3726   */\n      dup8\n        /* \"#utility.yul\":3713:3735   */\n      add\n        /* \"#utility.yul\":3682:3745   */\n      tag_95\n      jump\t// in\n    tag_176:\n        /* \"#utility.yul\":3672:3745   */\n      swap3\n      pop\n        /* \"#utility.yul\":3467:3755   */\n      pop\n        /* \"#utility.yul\":3794:3796   */\n      0x40\n        /* \"#utility.yul\":3820:3873   */\n      tag_177\n        /* \"#utility.yul\":3865:3872   */\n      dup7\n        /* \"#utility.yul\":3856:3862   */\n      dup3\n        /* \"#utility.yul\":3845:3854   */\n      dup8\n        /* \"#utility.yul\":3841:3863   */\n      add\n        /* \"#utility.yul\":3820:3873   */\n      tag_98\n      jump\t// in\n    tag_177:\n        /* \"#utility.yul\":3810:3873   */\n      swap2\n      pop\n        /* \"#utility.yul\":3765:3883   */\n      pop\n        /* \"#utility.yul\":2911:3890   */\n      swap3\n      pop\n      swap3\n      pop\n      swap3\n      jump\t// out\n        /* \"#utility.yul\":3896:4225   */\n    tag_13:\n        /* \"#utility.yul\":3955:3961   */\n      0x00\n        /* \"#utility.yul\":4004:4006   */\n      0x20\n        /* \"#utility.yul\":3992:4001   */\n      dup3\n        /* \"#utility.yul\":3983:3990   */\n      dup5\n        /* \"#utility.yul\":3979:4002   */\n      sub\n        /* \"#utility.yul\":3975:4007   */\n      slt\n        /* \"#utility.yul\":3972:4091   */\n      iszero\n      tag_179\n      jumpi\n        /* \"#utility.yul\":4010:4089   */\n      tag_180\n      tag_84\n      jump\t// in\n    tag_180:\n        /* \"#utility.yul\":3972:4091   */\n    tag_179:\n        /* \"#utility.yul\":4130:4131   */\n      0x00\n        /* \"#utility.yul\":4155:4208   */\n      tag_181\n        /* \"#utility.yul\":4200:4207   */\n      dup5\n        /* \"#utility.yul\":4191:4197   */\n      dup3\n        /* \"#utility.yul\":4180:4189   */\n      dup6\n        /* \"#utility.yul\":4176:4198   */\n      add\n        /* \"#utility.yul\":4155:4208   */\n      tag_98\n      jump\t// in\n    tag_181:\n        /* \"#utility.yul\":4145:4208   */\n      swap2\n      pop\n        /* \"#utility.yul\":4101:4218   */\n      pop\n        /* \"#utility.yul\":3896:4225   */\n      swap3\n      swap2\n      pop\n      pop\n      jump\t// out\n        /* \"#utility.yul\":4231:4330   */\n    tag_99:\n        /* \"#utility.yul\":4283:4289   */\n      0x00\n        /* \"#utility.yul\":4317:4322   */\n      dup2\n        /* \"#utility.yul\":4311:4323   */\n      mload\n        /* \"#utility.yul\":4301:4323   */\n      swap1\n      pop\n        /* \"#utility.yul\":4231:4330   */\n      swap2\n      swap1\n      pop\n      jump\t// out\n        /* \"#utility.yul\":4336:4505   */\n    tag_100:\n        /* \"#utility.yul\":4420:4431   */\n      0x00\n        /* \"#utility.yul\":4454:4460   */\n      dup3\n        /* \"#utility.yul\":4449:4452   */\n      dup3\n        /* \"#utility.yul\":4442:4461   */\n      mstore\n        /* \"#utility.yul\":4494:4498   */\n      0x20\n        /* \"#utility.yul\":4489:4492   */\n      dup3\n        /* \"#utility.yul\":4485:4499   */\n      add\n        /* \"#utility.yul\":4470:4499   */\n      swap1\n      pop\n        /* \"#utility.yul\":4336:4505   */\n      swap3\n      swap2\n      pop\n      pop\n      jump\t// out\n        /* \"#utility.yul\":4511:4650   */\n    tag_101:\n        /* \"#utility.yul\":4600:4606   */\n      dup3\n        /* \"#utility.yul\":4595:4598   */\n      dup2\n        /* \"#utility.yul\":4590:4593   */\n      dup4\n        /* \"#utility.yul\":4584:4607   */\n      mcopy\n        /* \"#utility.yul\":4641:4642   */\n      0x00\n        /* \"#utility.yul\":4632:4638   */\n      dup4\n        /* \"#utility.yul\":4627:4630   */\n      dup4\n        /* \"#utility.yul\":4623:4639   */\n      add\n        /* \"#utility.yul\":4616:4643   */\n      mstore\n        /* \"#utility.yul\":4511:4650   */\n      pop\n      pop\n      pop\n      jump\t// out\n        /* \"#utility.yul\":4656:5033   */\n    tag_102:\n        /* \"#utility.yul\":4744:4747   */\n      0x00\n        /* \"#utility.yul\":4772:4811   */\n      tag_186\n        /* \"#utility.yul\":4805:4810   */\n      dup3\n        /* \"#utility.yul\":4772:4811   */\n      tag_99\n      jump\t// in\n    tag_186:\n        /* \"#utility.yul\":4827:4898   */\n      tag_187\n        /* \"#utility.yul\":4891:4897   */\n      dup2\n        /* \"#utility.yul\":4886:4889   */\n      dup6\n        /* \"#utility.yul\":4827:4898   */\n      tag_100\n      jump\t// in\n    tag_187:\n        /* \"#utility.yul\":4820:4898   */\n      swap4\n      pop\n        /* \"#utility.yul\":4907:4972   */\n      tag_188\n        /* \"#utility.yul\":4965:4971   */\n      dup2\n        /* \"#utility.yul\":4960:4963   */\n      dup6\n        /* \"#utility.yul\":4953:4957   */\n      0x20\n        /* \"#utility.yul\":4946:4951   */\n      dup7\n        /* \"#utility.yul\":4942:4958   */\n      add\n        /* \"#utility.yul\":4907:4972   */\n      tag_101\n      jump\t// in\n    tag_188:\n        /* \"#utility.yul\":4997:5026   */\n      tag_189\n        /* \"#utility.yul\":5019:5025   */\n      dup2\n        /* \"#utility.yul\":4997:5026   */\n      tag_88\n      jump\t// in\n    tag_189:\n        /* \"#utility.yul\":4992:4995   */\n      dup5\n        /* \"#utility.yul\":4988:5027   */\n      add\n        /* \"#utility.yul\":4981:5027   */\n      swap2\n      pop\n        /* \"#utility.yul\":4748:5033   */\n      pop\n        /* \"#utility.yul\":4656:5033   */\n      swap3\n      swap2\n      pop\n      pop\n      jump\t// out\n        /* \"#utility.yul\":5039:5157   */\n    tag_103:\n        /* \"#utility.yul\":5126:5150   */\n      tag_191\n        /* \"#utility.yul\":5144:5149   */\n      dup2\n        /* \"#utility.yul\":5126:5150   */\n      tag_96\n      jump\t// in\n    tag_191:\n        /* \"#utility.yul\":5121:5124   */\n      dup3\n        /* \"#utility.yul\":5114:5151   */\n      mstore\n        /* \"#utility.yul\":5039:5157   */\n      pop\n      pop\n      jump\t// out\n        /* \"#utility.yul\":5163:5787   */\n    tag_16:\n        /* \"#utility.yul\":5352:5356   */\n      0x00\n        /* \"#utility.yul\":5390:5392   */\n      0x60\n        /* \"#utility.yul\":5379:5388   */\n      dup3\n        /* \"#utility.yul\":5375:5393   */\n      add\n        /* \"#utility.yul\":5367:5393   */\n      swap1\n      pop\n        /* \"#utility.yul\":5439:5448   */\n      dup2\n        /* \"#utility.yul\":5433:5437   */\n      dup2\n        /* \"#utility.yul\":5429:5449   */\n      sub\n        /* \"#utility.yul\":5425:5426   */\n      0x00\n        /* \"#utility.yul\":5414:5423   */\n      dup4\n        /* \"#utility.yul\":5410:5427   */\n      add\n        /* \"#utility.yul\":5403:5450   */\n      mstore\n        /* \"#utility.yul\":5467:5545   */\n      tag_193\n        /* \"#utility.yul\":5540:5544   */\n      dup2\n        /* \"#utility.yul\":5531:5537   */\n      dup7\n        /* \"#utility.yul\":5467:5545   */\n      tag_102\n      jump\t// in\n    tag_193:\n        /* \"#utility.yul\":5459:5545   */\n      swap1\n      pop\n        /* \"#utility.yul\":5592:5601   */\n      dup2\n        /* \"#utility.yul\":5586:5590   */\n      dup2\n        /* \"#utility.yul\":5582:5602   */\n      sub\n        /* \"#utility.yul\":5577:5579   */\n      0x20\n        /* \"#utility.yul\":5566:5575   */\n      dup4\n        /* \"#utility.yul\":5562:5580   */\n      add\n        /* \"#utility.yul\":5555:5603   */\n      mstore\n        /* \"#utility.yul\":5620:5698   */\n      tag_194\n        /* \"#utility.yul\":5693:5697   */\n      dup2\n        /* \"#utility.yul\":5684:5690   */\n      dup6\n        /* \"#utility.yul\":5620:5698   */\n      tag_102\n      jump\t// in\n    tag_194:\n        /* \"#utility.yul\":5612:5698   */\n      swap1\n      pop\n        /* \"#utility.yul\":5708:5780   */\n      tag_195\n        /* \"#utility.yul\":5776:5778   */\n      0x40\n        /* \"#utility.yul\":5765:5774   */\n      dup4\n        /* \"#utility.yul\":5761:5779   */\n      add\n        /* \"#utility.yul\":5752:5758   */\n      dup5\n        /* \"#utility.yul\":5708:5780   */\n      tag_103\n      jump\t// in\n    tag_195:\n        /* \"#utility.yul\":5163:5787   */\n      swap5\n      swap4\n      pop\n      pop\n      pop\n      pop\n      jump\t// out\n        /* \"#utility.yul\":5793:5973   */\n    tag_104:\n        /* \"#utility.yul\":5841:5918   */\n      0x4e487b7100000000000000000000000000000000000000000000000000000000\n        /* \"#utility.yul\":5838:5839   */\n      0x00\n        /* \"#utility.yul\":5831:5919   */\n      mstore\n        /* \"#utility.yul\":5938:5942   */\n      0x22\n        /* \"#utility.yul\":5935:5936   */\n      0x04\n        /* \"#utility.yul\":5928:5943   */\n      mstore\n        /* \"#utility.yul\":5962:5966   */\n      0x24\n        /* \"#utility.yul\":5959:5960   */\n      0x00\n        /* \"#utility.yul\":5952:5967   */\n      revert\n        /* \"#utility.yul\":5979:6299   */\n    tag_38:\n        /* \"#utility.yul\":6023:6029   */\n      0x00\n        /* \"#utility.yul\":6060:6061   */\n      0x02\n        /* \"#utility.yul\":6054:6058   */\n      dup3\n        /* \"#utility.yul\":6050:6062   */\n      div\n        /* \"#utility.yul\":6040:6062   */\n      swap1\n      pop\n        /* \"#utility.yul\":6107:6108   */\n      0x01\n        /* \"#utility.yul\":6101:6105   */\n      dup3\n        /* \"#utility.yul\":6097:6109   */\n      and\n        /* \"#utility.yul\":6128:6146   */\n      dup1\n        /* \"#utility.yul\":6118:6199   */\n      tag_198\n      jumpi\n        /* \"#utility.yul\":6184:6188   */\n      0x7f\n        /* \"#utility.yul\":6176:6182   */\n      dup3\n        /* \"#utility.yul\":6172:6189   */\n      and\n        /* \"#utility.yul\":6162:6189   */\n      swap2\n      pop\n        /* \"#utility.yul\":6118:6199   */\n    tag_198:\n        /* \"#utility.yul\":6246:6248   */\n      0x20\n        /* \"#utility.yul\":6238:6244   */\n      dup3\n        /* \"#utility.yul\":6235:6249   */\n      lt\n        /* \"#utility.yul\":6215:6233   */\n      dup2\n        /* \"#utility.yul\":6212:6250   */\n      sub\n        /* \"#utility.yul\":6209:6293   */\n      tag_199\n      jumpi\n        /* \"#utility.yul\":6265:6283   */\n      tag_200\n      tag_104\n      jump\t// in\n    tag_200:\n        /* \"#utility.yul\":6209:6293   */\n    tag_199:\n        /* \"#utility.yul\":6030:6299   */\n      pop\n        /* \"#utility.yul\":5979:6299   */\n      swap2\n      swap1\n      pop\n      jump\t// out\n        /* \"#utility.yul\":6305:6446   */\n    tag_105:\n        /* \"#utility.yul\":6354:6358   */\n      0x00\n        /* \"#utility.yul\":6377:6380   */\n      dup2\n        /* \"#utility.yul\":6369:6380   */\n      swap1\n      pop\n        /* \"#utility.yul\":6400:6403   */\n      dup2\n        /* \"#utility.yul\":6397:6398   */\n      0x00\n        /* \"#utility.yul\":6390:6404   */\n      mstore\n        /* \"#utility.yul\":6434:6438   */\n      0x20\n        /* \"#utility.yul\":6431:6432   */\n      0x00\n        /* \"#utility.yul\":6421:6439   */\n      keccak256\n        /* \"#utility.yul\":6413:6439   */\n      swap1\n      pop\n        /* \"#utility.yul\":6305:6446   */\n      swap2\n      swap1\n      pop\n      jump\t// out\n        /* \"#utility.yul\":6452:6545   */\n    tag_106:\n        /* \"#utility.yul\":6489:6495   */\n      0x00\n        /* \"#utility.yul\":6536:6538   */\n      0x20\n        /* \"#utility.yul\":6531:6533   */\n      0x1f\n        /* \"#utility.yul\":6524:6529   */\n      dup4\n        /* \"#utility.yul\":6520:6534   */\n      add\n        /* \"#utility.yul\":6516:6539   */\n      div\n        /* \"#utility.yul\":6506:6539   */\n      swap1\n      pop\n        /* \"#utility.yul\":6452:6545   */\n      swap2\n      swap1\n      pop\n      jump\t// out\n        /* \"#utility.yul\":6551:6658   */\n    tag_107:\n        /* \"#utility.yul\":6595:6603   */\n      0x00\n        /* \"#utility.yul\":6645:6650   */\n      dup3\n        /* \"#utility.yul\":6639:6643   */\n      dup3\n        /* \"#utility.yul\":6635:6651   */\n      shl\n        /* \"#utility.yul\":6614:6651   */\n      swap1\n      pop\n        /* \"#utility.yul\":6551:6658   */\n      swap3\n      swap2\n      pop\n      pop\n      jump\t// out\n        /* \"#utility.yul\":6664:7057   */\n    tag_108:\n        /* \"#utility.yul\":6733:6739   */\n      0x00\n        /* \"#utility.yul\":6783:6784   */\n      0x08\n        /* \"#utility.yul\":6771:6781   */\n      dup4\n        /* \"#utility.yul\":6767:6785   */\n      mul\n        /* \"#utility.yul\":6806:6903   */\n      tag_205\n        /* \"#utility.yul\":6836:6902   */\n      0xffffffffffffffffffffffffffffffffffffffffffffffffffffffffffffffff\n        /* \"#utility.yul\":6825:6834   */\n      dup3\n        /* \"#utility.yul\":6806:6903   */\n      tag_107\n      jump\t// in\n    tag_205:\n        /* \"#utility.yul\":6924:6963   */\n      tag_206\n        /* \"#utility.yul\":6954:6962   */\n      dup7\n        /* \"#utility.yul\":6943:6952   */\n      dup4\n        /* \"#utility.yul\":6924:6963   */\n      tag_107\n      jump\t// in\n    tag_206:\n        /* \"#utility.yul\":6912:6963   */\n      swap6\n      pop\n        /* \"#utility.yul\":6996:7000   */\n      dup1\n        /* \"#utility.yul\":6992:7001   */\n      not\n        /* \"#utility.yul\":6985:6990   */\n      dup5\n        /* \"#utility.yul\":6981:7002   */\n      and\n        /* \"#utility.yul\":6972:7002   */\n      swap4\n      pop\n        /* \"#utility.yul\":7045:7049   */\n      dup1\n        /* \"#utility.yul\":7035:7043   */\n      dup7\n        /* \"#utility.yul\":7031:7050   */\n      and\n        /* \"#utility.yul\":7024:7029   */\n      dup5\n        /* \"#utility.yul\":7021:7051   */\n      or\n        /* \"#utility.yul\":7011:7051   */\n      swap3\n      pop\n        /* \"#utility.yul\":6740:7057   */\n      pop\n      pop\n        /* \"#utility.yul\":6664:7057   */\n      swap4\n      swap3\n      pop\n      pop\n      pop\n      jump\t// out\n        /* \"#utility.yul\":7063:7123   */\n    tag_109:\n        /* \"#utility.yul\":7091:7094   */\n      0x00\n        /* \"#utility.yul\":7112:7117   */\n      dup2\n        /* \"#utility.yul\":7105:7117   */\n      swap1\n      pop\n        /* \"#utility.yul\":7063:7123   */\n      swap2\n      swap1\n      pop\n      jump\t// out\n        /* \"#utility.yul\":7129:7271   */\n    tag_110:\n        /* \"#utility.yul\":7179:7188   */\n      0x00\n        /* \"#utility.yul\":7212:7265   */\n      tag_209\n        /* \"#utility.yul\":7230:7264   */\n      tag_210\n        /* \"#utility.yul\":7239:7263   */\n      tag_211\n        /* \"#utility.yul\":7257:7262   */\n      dup5\n        /* \"#utility.yul\":7239:7263   */\n      tag_96\n      jump\t// in\n    tag_211:\n        /* \"#utility.yul\":7230:7264   */\n      tag_109\n      jump\t// in\n    tag_210:\n        /* \"#utility.yul\":7212:7265   */\n      tag_96\n      jump\t// in\n    tag_209:\n        /* \"#utility.yul\":7199:7265   */\n      swap1\n      pop\n        /* \"#utility.yul\":7129:7271   */\n      swap2\n      swap1\n      pop\n      jump\t// out\n        /* \"#utility.yul\":7277:7352   */\n    tag_111:\n        /* \"#utility.yul\":7320:7323   */\n      0x00\n        /* \"#utility.yul\":7341:7346   */\n      dup2\n        /* \"#utility.yul\":7334:7346   */\n      swap1\n      pop\n        /* \"#utility.yul\":7277:7352   */\n      swap2\n      swap1\n      pop\n      jump\t// out\n        /* \"#utility.yul\":7358:7627   */\n    tag_112:\n        /* \"#utility.yul\":7468:7507   */\n      tag_214\n        /* \"#utility.yul\":7499:7506   */\n      dup4\n        /* \"#utility.yul\":7468:7507   */\n      tag_110\n      jump\t// in\n    tag_214:\n        /* \"#utility.yul\":7529:7620   */\n      tag_215\n        /* \"#utility.yul\":7578:7619   */\n      tag_216\n        /* \"#utility.yul\":7602:7618   */\n      dup3\n        /* \"#utility.yul\":7578:7619   */\n      tag_111\n      jump\t// in\n    tag_216:\n        /* \"#utility.yul\":7570:7576   */\n      dup5\n        /* \"#utility.yul\":7563:7567   */\n      dup5\n        /* \"#utility.yul\":7557:7568   */\n      sload\n        /* \"#utility.yul\":7529:7620   */\n      tag_108\n      jump\t// in\n    tag_215:\n        /* \"#utility.yul\":7523:7527   */\n      dup3\n        /* \"#utility.yul\":7516:7621   */\n      sstore\n        /* \"#utility.yul\":7434:7627   */\n      pop\n        /* \"#utility.yul\":7358:7627   */\n      pop\n      pop\n      pop\n      jump\t// out\n        /* \"#utility.yul\":7633:7706   */\n    tag_113:\n        /* \"#utility.yul\":7678:7681   */\n      0x00\n        /* \"#utility.yul\":7699:7700   */\n      0x00\n        /* \"#utility.yul\":7692:7700   */\n      swap1\n      pop\n        /* \"#utility.yul\":7633:7706   */\n      swap1\n      jump\t// out\n        /* \"#utility.yul\":7712:7901   */\n    tag_114:\n        /* \"#utility.yul\":7789:7821   */\n      tag_219\n      tag_113\n      jump\t// in\n    tag_219:\n        /* \"#utility.yul\":7830:7895   */\n      tag_220\n        /* \"#utility.yul\":7888:7894   */\n      dup2\n        /* \"#utility.yul\":7880:7886   */\n      dup5\n        /* \"#utility.yul\":7874:7878   */\n      dup5\n        /* \"#utility.yul\":7830:7895   */\n      tag_112\n      jump\t// in\n    tag_220:\n        /* \"#utility.yul\":7765:7901   */\n      pop\n        /* \"#utility.yul\":7712:7901   */\n      pop\n      pop\n      jump\t// out\n        /* \"#utility.yul\":7907:8093   */\n    tag_115:\n        /* \"#utility.yul\":7967:8087   */\n    tag_222:\n        /* \"#utility.yul\":7984:7987   */\n      dup2\n        /* \"#utility.yul\":7977:7982   */\n      dup2\n        /* \"#utility.yul\":7974:7988   */\n      lt\n        /* \"#utility.yul\":7967:8087   */\n      iszero\n      tag_224\n      jumpi\n        /* \"#utility.yul\":8038:8077   */\n      tag_225\n        /* \"#utility.yul\":8075:8076   */\n      0x00\n        /* \"#utility.yul\":8068:8073   */\n      dup3\n        /* \"#utility.yul\":8038:8077   */\n      tag_114\n      jump\t// in\n    tag_225:\n        /* \"#utility.yul\":8011:8012   */\n      0x01\n        /* \"#utility.yul\":8004:8009   */\n      dup2\n        /* \"#utility.yul\":8000:8013   */\n      add\n        /* \"#utility.yul\":7991:8013   */\n      swap1\n      pop\n        /* \"#utility.yul\":7967:8087   */\n      jump(tag_222)\n    tag_224:\n        /* \"#utility.yul\":7907:8093   */\n      pop\n      pop\n      jump\t// out\n        /* \"#utility.yul\":8099:8642   */\n    tag_116:\n        /* \"#utility.yul\":8200:8202   */\n      0x1f\n        /* \"#utility.yul\":8195:8198   */\n      dup3\n        /* \"#utility.yul\":8192:8203   */\n      gt\n        /* \"#utility.yul\":8189:8635   */\n      iszero\n      tag_227\n      jumpi\n        /* \"#utility.yul\":8234:8272   */\n      tag_228\n        /* \"#utility.yul\":8266:8271   */\n      dup2\n        /* \"#utility.yul\":8234:8272   */\n      tag_105\n      jump\t// in\n    tag_228:\n        /* \"#utility.yul\":8318:8347   */\n      tag_229\n        /* \"#utility.yul\":8336:8346   */\n      dup5\n        /* \"#utility.yul\":8318:8347   */\n      tag_106\n      jump\t// in\n    tag_229:\n        /* \"#utility.yul\":8308:8316   */\n      dup2\n        /* \"#utility.yul\":8304:8348   */\n      add\n        /* \"#utility.yul\":8501:8503   */\n      0x20\n        /* \"#utility.yul\":8489:8499   */\n      dup6\n        /* \"#utility.yul\":8486:8504   */\n      lt\n        /* \"#utility.yul\":8483:8532   */\n      iszero\n      tag_230\n      jumpi\n        /* \"#utility.yul\":8522:8530   */\n      dup2\n        /* \"#utility.yul\":8507:8530   */\n      swap1\n      pop\n        /* \"#utility.yul\":8483:8532   */\n    tag_230:\n        /* \"#utility.yul\":8545:8625   */\n      tag_231\n        /* \"#utility.yul\":8601:8623   */\n      tag_232\n        /* \"#utility.yul\":8619:8622   */\n      dup6\n        /* \"#utility.yul\":8601:8623   */\n      tag_106\n      jump\t// in\n    tag_232:\n        /* \"#utility.yul\":8591:8599   */\n      dup4\n        /* \"#utility.yul\":8587:8624   */\n      add\n        /* \"#utility.yul\":8574:8585   */\n      dup3\n        /* \"#utility.yul\":8545:8625   */\n      tag_115\n      jump\t// in\n    tag_231:\n        /* \"#utility.yul\":8204:8635   */\n      pop\n      pop\n        /* \"#utility.yul\":8189:8635   */\n    tag_227:\n        /* \"#utility.yul\":8099:8642   */\n      pop\n      pop\n      pop\n      jump\t// out\n        /* \"#utility.yul\":8648:8765   */\n    tag_117:\n        /* \"#utility.yul\":8702:8710   */\n      0x00\n        /* \"#utility.yul\":8752:8757   */\n      dup3\n        /* \"#utility.yul\":8746:8750   */\n      dup3\n        /* \"#utility.yul\":8742:8758   */\n      shr\n        /* \"#utility.yul\":8721:8758   */\n      swap1\n      pop\n        /* \"#utility.yul\":8648:8765   */\n      swap3\n      swap2\n      pop\n      pop\n      jump\t// out\n        /* \"#utility.yul\":8771:8940   */\n    tag_118:\n        /* \"#utility.yul\":8815:8821   */\n      0x00\n        /* \"#utility.yul\":8848:8899   */\n      tag_235\n        /* \"#utility.yul\":8896:8897   */\n      0x00\n        /* \"#utility.yul\":8892:8898   */\n      not\n        /* \"#utility.yul\":8884:8889   */\n      dup5\n        /* \"#utility.yul\":8881:8882   */\n      0x08\n        /* \"#utility.yul\":8877:8890   */\n      mul\n        /* \"#utility.yul\":8848:8899   */\n      tag_117\n      jump\t// in\n    tag_235:\n        /* \"#utility.yul\":8844:8900   */\n      not\n        /* \"#utility.yul\":8929:8933   */\n      dup1\n        /* \"#utility.yul\":8923:8927   */\n      dup4\n        /* \"#utility.yul\":8919:8934   */\n      and\n        /* \"#utility.yul\":8909:8934   */\n      swap2\n      pop\n        /* \"#utility.yul\":8822:8940   */\n      pop\n        /* \"#utility.yul\":8771:8940   */\n      swap3\n      swap2\n      pop\n      pop\n      jump\t// out\n        /* \"#utility.yul\":8945:9240   */\n    tag_119:\n        /* \"#utility.yul\":9021:9025   */\n      0x00\n        /* \"#utility.yul\":9167:9196   */\n      tag_237\n        /* \"#utility.yul\":9192:9195   */\n      dup4\n        /* \"#utility.yul\":9186:9190   */\n      dup4\n        /* \"#utility.yul\":9167:9196   */\n      tag_118\n      jump\t// in\n    tag_237:\n        /* \"#utility.yul\":9159:9196   */\n      swap2\n      pop\n        /* \"#utility.yul\":9229:9232   */\n      dup3\n        /* \"#utility.yul\":9226:9227   */\n      0x02\n        /* \"#utility.yul\":9222:9233   */\n      mul\n        /* \"#utility.yul\":9216:9220   */\n      dup3\n        /* \"#utility.yul\":9213:9234   */\n      or\n        /* \"#utility.yul\":9205:9234   */\n      swap1\n      pop\n        /* \"#utility.yul\":8945:9240   */\n      swap3\n      swap2\n      pop\n      pop\n      jump\t// out\n        /* \"#utility.yul\":9245:10640   */\n    tag_28:\n        /* \"#utility.yul\":9362:9399   */\n      tag_239\n        /* \"#utility.yul\":9395:9398   */\n      dup3\n        /* \"#utility.yul\":9362:9399   */\n      tag_99\n      jump\t// in\n    tag_239:\n        /* \"#utility.yul\":9464:9482   */\n      0xffffffffffffffff\n        /* \"#utility.yul\":9456:9462   */\n      dup2\n        /* \"#utility.yul\":9453:9483   */\n      gt\n        /* \"#utility.yul\":9450:9506   */\n      iszero\n      tag_240\n      jumpi\n        /* \"#utility.yul\":9486:9504   */\n      tag_241\n      tag_89\n      jump\t// in\n    tag_241:\n        /* \"#utility.yul\":9450:9506   */\n    tag_240:\n        /* \"#utility.yul\":9530:9568   */\n      tag_242\n        /* \"#utility.yul\":9562:9566   */\n      dup3\n        /* \"#utility.yul\":9556:9567   */\n      sload\n        /* \"#utility.yul\":9530:9568   */\n      tag_38\n      jump\t// in\n    tag_242:\n        /* \"#utility.yul\":9615:9682   */\n      tag_243\n        /* \"#utility.yul\":9675:9681   */\n      dup3\n        /* \"#utility.yul\":9667:9673   */\n      dup3\n        /* \"#utility.yul\":9661:9665   */\n      dup6\n        /* \"#utility.yul\":9615:9682   */\n      tag_116\n      jump\t// in\n    tag_243:\n        /* \"#utility.yul\":9709:9710   */\n      0x00\n        /* \"#utility.yul\":9733:9737   */\n      0x20\n        /* \"#utility.yul\":9720:9737   */\n      swap1\n      pop\n        /* \"#utility.yul\":9765:9767   */\n      0x1f\n        /* \"#utility.yul\":9757:9763   */\n      dup4\n        /* \"#utility.yul\":9754:9768   */\n      gt\n        /* \"#utility.yul\":9782:9783   */\n      0x01\n        /* \"#utility.yul\":9777:10395   */\n      dup2\n      eq\n      tag_245\n      jumpi\n        /* \"#utility.yul\":10439:10440   */\n      0x00\n        /* \"#utility.yul\":10456:10462   */\n      dup5\n        /* \"#utility.yul\":10453:10530   */\n      iszero\n      tag_246\n      jumpi\n        /* \"#utility.yul\":10505:10514   */\n      dup3\n        /* \"#utility.yul\":10500:10503   */\n      dup8\n        /* \"#utility.yul\":10496:10515   */\n      add\n        /* \"#utility.yul\":10490:10516   */\n      mload\n        /* \"#utility.yul\":10481:10516   */\n      swap1\n      pop\n        /* \"#utility.yul\":10453:10530   */\n    tag_246:\n        /* \"#utility.yul\":10556:10623   */\n      tag_247\n        /* \"#utility.yul\":10616:10622   */\n      dup6\n        /* \"#utility.yul\":10609:10614   */\n      dup3\n        /* \"#utility.yul\":10556:10623   */\n      tag_119\n      jump\t// in\n    tag_247:\n        /* \"#utility.yul\":10550:10554   */\n      dup7\n        /* \"#utility.yul\":10543:10624   */\n      sstore\n        /* \"#utility.yul\":10412:10634   */\n      pop\n        /* \"#utility.yul\":9747:10634   */\n      jump(tag_244)\n        /* \"#utility.yul\":9777:10395   */\n    tag_245:\n        /* \"#utility.yul\":9829:9833   */\n      0x1f\n        /* \"#utility.yul\":9825:9834   */\n      not\n        /* \"#utility.yul\":9817:9823   */\n      dup5\n        /* \"#utility.yul\":9813:9835   */\n      and\n        /* \"#utility.yul\":9863:9900   */\n      tag_248\n        /* \"#utility.yul\":9895:9899   */\n      dup7\n        /* \"#utility.yul\":9863:9900   */\n      tag_105\n      jump\t// in\n    tag_248:\n        /* \"#utility.yul\":9922:9923   */\n      0x00\n        /* \"#utility.yul\":9936:10144   */\n    tag_249:\n        /* \"#utility.yul\":9950:9957   */\n      dup3\n        /* \"#utility.yul\":9947:9948   */\n      dup2\n        /* \"#utility.yul\":9944:9958   */\n      lt\n        /* \"#utility.yul\":9936:10144   */\n      iszero\n      tag_251\n      jumpi\n        /* \"#utility.yul\":10029:10038   */\n      dup5\n        /* \"#utility.yul\":10024:10027   */\n      dup10\n        /* \"#utility.yul\":10020:10039   */\n      add\n        /* \"#utility.yul\":10014:10040   */\n      mload\n        /* \"#utility.yul\":10006:10012   */\n      dup3\n        /* \"#utility.yul\":9999:10041   */\n      sstore\n        /* \"#utility.yul\":10080:10081   */\n      0x01\n        /* \"#utility.yul\":10072:10078   */\n      dup3\n        /* \"#utility.yul\":10068:10082   */\n      add\n        /* \"#utility.yul\":10058:10082   */\n      swap2\n      pop\n        /* \"#utility.yul\":10127:10129   */\n      0x20\n        /* \"#utility.yul\":10116:10125   */\n      dup6\n        /* \"#utility.yul\":10112:10130   */\n      add\n        /* \"#utility.yul\":10099:10130   */\n      swap5\n      pop\n        /* \"#utility.yul\":9973:9977   */\n      0x20\n        /* \"#utility.yul\":9970:9971   */\n      dup2\n        /* \"#utility.yul\":9966:9978   */\n      add\n        /* \"#utility.yul\":9961:9978   */\n      swap1\n      pop\n        /* \"#utility.yul\":9936:10144   */\n      jump(tag_249)\n    tag_251:\n        /* \"#utility.yul\":10172:10178   */\n      dup7\n        /* \"#utility.yul\":10163:10170   */\n      dup4\n        /* \"#utility.yul\":10160:10179   */\n      lt\n        /* \"#utility.yul\":10157:10336   */\n      iszero\n      tag_252\n      jumpi\n        /* \"#utility.yul\":10230:10239   */\n      dup5\n        /* \"#utility.yul\":10225:10228   */\n      dup10\n        /* \"#utility.yul\":10221:10240   */\n      add\n        /* \"#utility.yul\":10215:10241   */\n      mload\n        /* \"#utility.yul\":10273:10321   */\n      tag_253\n        /* \"#utility.yul\":10315:10319   */\n      0x1f\n        /* \"#utility.yul\":10307:10313   */\n      dup10\n        /* \"#utility.yul\":10303:10320   */\n      and\n        /* \"#utility.yul\":10292:10301   */\n      dup3\n        /* \"#utility.yul\":10273:10321   */\n      tag_118\n      jump\t// in\n    tag_253:\n        /* \"#utility.yul\":10265:10271   */\n      dup4\n        /* \"#utility.yul\":10258:10322   */\n      sstore\n        /* \"#utility.yul\":10180:10336   */\n      pop\n        /* \"#utility.yul\":10157:10336   */\n    tag_252:\n        /* \"#utility.yul\":10382:10383   */\n      0x01\n        /* \"#utility.yul\":10378:10379   */\n      0x02\n        /* \"#utility.yul\":10370:10376   */\n      dup9\n        /* \"#utility.yul\":10366:10380   */\n      mul\n        /* \"#utility.yul\":10362:10384   */\n      add\n        /* \"#utility.yul\":10356:10360   */\n      dup9\n        /* \"#utility.yul\":10349:10385   */\n      sstore\n        /* \"#utility.yul\":9784:10395   */\n      pop\n      pop\n      pop\n        /* \"#utility.yul\":9747:10634   */\n    tag_244:\n      pop\n        /* \"#utility.yul\":9337:10640   */\n      pop\n      pop\n      pop\n        /* \"#utility.yul\":9245:10640   */\n      pop\n      pop\n      jump\t// out\n        /* \"#utility.yul\":10646:10826   */\n    tag_120:\n        /* \"#utility.yul\":10694:10771   */\n      0x4e487b7100000000000000000000000000000000000000000000000000000000\n        /* \"#utility.yul\":10691:10692   */\n      0x00\n        /* \"#utility.yul\":10684:10772   */\n      mstore\n        /* \"#utility.yul\":10791:10795   */\n      0x11\n        /* \"#utility.yul\":10788:10789   */\n      0x04\n        /* \"#utility.yul\":10781:10796   */\n      mstore\n        /* \"#utility.yul\":10815:10819   */\n      0x24\n        /* \"#utility.yul\":10812:10813   */\n      0x00\n        /* \"#utility.yul\":10805:10820   */\n      revert\n        /* \"#utility.yul\":10832:11026   */\n    tag_31:\n        /* \"#utility.yul\":10872:10876   */\n      0x00\n        /* \"#utility.yul\":10892:10912   */\n      tag_256\n        /* \"#utility.yul\":10910:10911   */\n      dup3\n        /* \"#utility.yul\":10892:10912   */\n      tag_96\n      jump\t// in\n    tag_256:\n        /* \"#utility.yul\":10887:10912   */\n      swap2\n      pop\n        /* \"#utility.yul\":10926:10946   */\n      tag_257\n        /* \"#utility.yul\":10944:10945   */\n      dup4\n        /* \"#utility.yul\":10926:10946   */\n      tag_96\n      jump\t// in\n    tag_257:\n        /* \"#utility.yul\":10921:10946   */\n      swap3\n      pop\n        /* \"#utility.yul\":10970:10971   */\n      dup3\n        /* \"#utility.yul\":10967:10968   */\n      dup3\n        /* \"#utility.yul\":10963:10972   */\n      sub\n        /* \"#utility.yul\":10955:10972   */\n      swap1\n      pop\n        /* \"#utility.yul\":10994:10995   */\n      dup2\n        /* \"#utility.yul\":10988:10992   */\n      dup2\n        /* \"#utility.yul\":10985:10996   */\n      gt\n        /* \"#utility.yul\":10982:11019   */\n      iszero\n      tag_258\n      jumpi\n        /* \"#utility.yul\":10999:11017   */\n      tag_259\n      tag_120\n      jump\t// in\n    tag_259:\n        /* \"#utility.yul\":10982:11019   */\n    tag_258:\n        /* \"#utility.yul\":10832:11026   */\n      swap3\n      swap2\n      pop\n      pop\n      jump\t// out\n        /* \"#utility.yul\":11032:11197   */\n    tag_121:\n        /* \"#utility.yul\":11172:11189   */\n      0x496e76616c696420426f6f6b2049440000000000000000000000000000000000\n        /* \"#utility.yul\":11168:11169   */\n      0x00\n        /* \"#utility.yul\":11160:11166   */\n      dup3\n        /* \"#utility.yul\":11156:11170   */\n      add\n        /* \"#utility.yul\":11149:11190   */\n      mstore\n        /* \"#utility.yul\":11032:11197   */\n      pop\n      jump\t// out\n        /* \"#utility.yul\":11203:11569   */\n    tag_122:\n        /* \"#utility.yul\":11345:11348   */\n      0x00\n        /* \"#utility.yul\":11366:11433   */\n      tag_262\n        /* \"#utility.yul\":11430:11432   */\n      0x0f\n        /* \"#utility.yul\":11425:11428   */\n      dup4\n        /* \"#utility.yul\":11366:11433   */\n      tag_100\n      jump\t// in\n    tag_262:\n        /* \"#utility.yul\":11359:11433   */\n      swap2\n      pop\n        /* \"#utility.yul\":11442:11535   */\n      tag_263\n        /* \"#utility.yul\":11531:11534   */\n      dup3\n        /* \"#utility.yul\":11442:11535   */\n      tag_121\n      jump\t// in\n    tag_263:\n        /* \"#utility.yul\":11560:11562   */\n      0x20\n        /* \"#utility.yul\":11555:11558   */\n      dup3\n        /* \"#utility.yul\":11551:11563   */\n      add\n        /* \"#utility.yul\":11544:11563   */\n      swap1\n      pop\n        /* \"#utility.yul\":11203:11569   */\n      swap2\n      swap1\n      pop\n      jump\t// out\n        /* \"#utility.yul\":11575:11994   */\n    tag_51:\n        /* \"#utility.yul\":11741:11745   */\n      0x00\n        /* \"#utility.yul\":11779:11781   */\n      0x20\n        /* \"#utility.yul\":11768:11777   */\n      dup3\n        /* \"#utility.yul\":11764:11782   */\n      add\n        /* \"#utility.yul\":11756:11782   */\n      swap1\n      pop\n        /* \"#utility.yul\":11828:11837   */\n      dup2\n        /* \"#utility.yul\":11822:11826   */\n      dup2\n        /* \"#utility.yul\":11818:11838   */\n      sub\n        /* \"#utility.yul\":11814:11815   */\n      0x00\n        /* \"#utility.yul\":11803:11812   */\n      dup4\n        /* \"#utility.yul\":11799:11816   */\n      add\n        /* \"#utility.yul\":11792:11839   */\n      mstore\n        /* \"#utility.yul\":11856:11987   */\n      tag_265\n        /* \"#utility.yul\":11982:11986   */\n      dup2\n        /* \"#utility.yul\":11856:11987   */\n      tag_122\n      jump\t// in\n    tag_265:\n        /* \"#utility.yul\":11848:11987   */\n      swap1\n      pop\n        /* \"#utility.yul\":11575:11994   */\n      swap2\n      swap1\n      pop\n      jump\t// out\n        /* \"#utility.yul\":12000:12171   */\n    tag_123:\n        /* \"#utility.yul\":12140:12163   */\n      0x426f6f6b20616c726561647920626f72726f7765640000000000000000000000\n        /* \"#utility.yul\":12136:12137   */\n      0x00\n        /* \"#utility.yul\":12128:12134   */\n      dup3\n        /* \"#utility.yul\":12124:12138   */\n      add\n        /* \"#utility.yul\":12117:12164   */\n      mstore\n        /* \"#utility.yul\":12000:12171   */\n      pop\n      jump\t// out\n        /* \"#utility.yul\":12177:12543   */\n    tag_124:\n        /* \"#utility.yul\":12319:12322   */\n      0x00\n        /* \"#utility.yul\":12340:12407   */\n      tag_268\n        /* \"#utility.yul\":12404:12406   */\n      0x15\n        /* \"#utility.yul\":12399:12402   */\n      dup4\n        /* \"#utility.yul\":12340:12407   */\n      tag_100\n      jump\t// in\n    tag_268:\n        /* \"#utility.yul\":12333:12407   */\n      swap2\n      pop\n        /* \"#utility.yul\":12416:12509   */\n      tag_269\n        /* \"#utility.yul\":12505:12508   */\n      dup3\n        /* \"#utility.yul\":12416:12509   */\n      tag_123\n      jump\t// in\n    tag_269:\n        /* \"#utility.yul\":12534:12536   */\n      0x20\n        /* \"#utility.yul\":12529:12532   */\n      dup3\n        /* \"#utility.yul\":12525:12537   */\n      add\n        /* \"#utility.yul\":12518:12537   */\n      swap1\n      pop\n        /* \"#utility.yul\":12177:12543   */\n      swap2\n      swap1\n      pop\n      jump\t// out\n        /* \"#utility.yul\":12549:12968   */\n    tag_55:\n        /* \"#utility.yul\":12715:12719   */\n      0x00\n        /* \"#utility.yul\":12753:12755   */\n      0x20\n        /* \"#utility.yul\":12742:12751   */\n      dup3\n        /* \"#utility.yul\":12738:12756   */\n      add\n        /* \"#utility.yul\":12730:12756   */\n      swap1\n      pop\n        /* \"#utility.yul\":12802:12811   */\n      dup2\n        /* \"#utility.yul\":12796:12800   */\n      dup2\n        /* \"#utility.yul\":12792:12812   */\n      sub\n        /* \"#utility.yul\":12788:12789   */\n      0x00\n        /* \"#utility.yul\":12777:12786   */\n      dup4\n        /* \"#utility.yul\":12773:12790   */\n      add\n        /* \"#utility.yul\":12766:12813   */\n      mstore\n        /* \"#utility.yul\":12830:12961   */\n      tag_271\n        /* \"#utility.yul\":12956:12960   */\n      dup2\n        /* \"#utility.yul\":12830:12961   */\n      tag_124\n      jump\t// in\n    tag_271:\n        /* \"#utility.yul\":12822:12961   */\n      swap1\n      pop\n        /* \"#utility.yul\":12549:12968   */\n      swap2\n      swap1\n      pop\n      jump\t// out\n        /* \"#utility.yul\":12974:13154   */\n    tag_58:\n        /* \"#utility.yul\":13022:13099   */\n      0x4e487b7100000000000000000000000000000000000000000000000000000000\n        /* \"#utility.yul\":13019:13020   */\n      0x00\n        /* \"#utility.yul\":13012:13100   */\n      mstore\n        /* \"#utility.yul\":13119:13123   */\n      0x32\n        /* \"#utility.yul\":13116:13117   */\n      0x04\n        /* \"#utility.yul\":13109:13124   */\n      mstore\n        /* \"#utility.yul\":13143:13147   */\n      0x24\n        /* \"#utility.yul\":13140:13141   */\n      0x00\n        /* \"#utility.yul\":13133:13148   */\n      revert\n        /* \"#utility.yul\":13160:13333   */\n    tag_125:\n        /* \"#utility.yul\":13300:13325   */\n      0x426f6f6b20696e76656e746f727920697320656d707479000000000000000000\n        /* \"#utility.yul\":13296:13297   */\n      0x00\n        /* \"#utility.yul\":13288:13294   */\n      dup3\n        /* \"#utility.yul\":13284:13298   */\n      add\n        /* \"#utility.yul\":13277:13326   */\n      mstore\n        /* \"#utility.yul\":13160:13333   */\n      pop\n      jump\t// out\n        /* \"#utility.yul\":13339:13705   */\n    tag_126:\n        /* \"#utility.yul\":13481:13484   */\n      0x00\n        /* \"#utility.yul\":13502:13569   */\n      tag_275\n        /* \"#utility.yul\":13566:13568   */\n      0x17\n        /* \"#utility.yul\":13561:13564   */\n      dup4\n        /* \"#utility.yul\":13502:13569   */\n      tag_100\n      jump\t// in\n    tag_275:\n        /* \"#utility.yul\":13495:13569   */\n      swap2\n      pop\n        /* \"#utility.yul\":13578:13671   */\n      tag_276\n        /* \"#utility.yul\":13667:13670   */\n      dup3\n        /* \"#utility.yul\":13578:13671   */\n      tag_125\n      jump\t// in\n    tag_276:\n        /* \"#utility.yul\":13696:13698   */\n      0x20\n        /* \"#utility.yul\":13691:13694   */\n      dup3\n        /* \"#utility.yul\":13687:13699   */\n      add\n        /* \"#utility.yul\":13680:13699   */\n      swap1\n      pop\n        /* \"#utility.yul\":13339:13705   */\n      swap2\n      swap1\n      pop\n      jump\t// out\n        /* \"#utility.yul\":13711:14130   */\n    tag_62:\n        /* \"#utility.yul\":13877:13881   */\n      0x00\n        /* \"#utility.yul\":13915:13917   */\n      0x20\n        /* \"#utility.yul\":13904:13913   */\n      dup3\n        /* \"#utility.yul\":13900:13918   */\n      add\n        /* \"#utility.yul\":13892:13918   */\n      swap1\n      pop\n        /* \"#utility.yul\":13964:13973   */\n      dup2\n        /* \"#utility.yul\":13958:13962   */\n      dup2\n        /* \"#utility.yul\":13954:13974   */\n      sub\n        /* \"#utility.yul\":13950:13951   */\n      0x00\n        /* \"#utility.yul\":13939:13948   */\n      dup4\n        /* \"#utility.yul\":13935:13952   */\n      add\n        /* \"#utility.yul\":13928:13975   */\n      mstore\n        /* \"#utility.yul\":13992:14123   */\n      tag_278\n        /* \"#utility.yul\":14118:14122   */\n      dup2\n        /* \"#utility.yul\":13992:14123   */\n      tag_126\n      jump\t// in\n    tag_278:\n        /* \"#utility.yul\":13984:14123   */\n      swap1\n      pop\n        /* \"#utility.yul\":13711:14130   */\n      swap2\n      swap1\n      pop\n      jump\t// out\n        /* \"#utility.yul\":14136:14307   */\n    tag_67:\n        /* \"#utility.yul\":14175:14178   */\n      0x00\n        /* \"#utility.yul\":14198:14222   */\n      tag_280\n        /* \"#utility.yul\":14216:14221   */\n      dup3\n        /* \"#utility.yul\":14198:14222   */\n      tag_96\n      jump\t// in\n    tag_280:\n        /* \"#utility.yul\":14189:14222   */\n      swap2\n      pop\n        /* \"#utility.yul\":14244:14248   */\n      0x00\n        /* \"#utility.yul\":14237:14242   */\n      dup3\n        /* \"#utility.yul\":14234:14249   */\n      sub\n        /* \"#utility.yul\":14231:14272   */\n      tag_281\n      jumpi\n        /* \"#utility.yul\":14252:14270   */\n      tag_282\n      tag_120\n      jump\t// in\n    tag_282:\n        /* \"#utility.yul\":14231:14272   */\n    tag_281:\n        /* \"#utility.yul\":14299:14300   */\n      0x01\n        /* \"#utility.yul\":14292:14297   */\n      dup3\n        /* \"#utility.yul\":14288:14301   */\n      sub\n        /* \"#utility.yul\":14281:14301   */\n      swap1\n      pop\n        /* \"#utility.yul\":14136:14307   */\n      swap2\n      swap1\n      pop\n      jump\t// out\n        /* \"#utility.yul\":14313:14439   */\n    tag_127:\n        /* \"#utility.yul\":14350:14357   */\n      0x00\n        /* \"#utility.yul\":14390:14432   */\n      0xffffffffffffffffffffffffffffffffffffffff\n        /* \"#utility.yul\":14383:14388   */\n      dup3\n        /* \"#utility.yul\":14379:14433   */\n      and\n        /* \"#utility.yul\":14368:14433   */\n      swap1\n      pop\n        /* \"#utility.yul\":14313:14439   */\n      swap2\n      swap1\n      pop\n      jump\t// out\n        /* \"#utility.yul\":14445:14541   */\n    tag_128:\n        /* \"#utility.yul\":14482:14489   */\n      0x00\n        /* \"#utility.yul\":14511:14535   */\n      tag_285\n        /* \"#utility.yul\":14529:14534   */\n      dup3\n        /* \"#utility.yul\":14511:14535   */\n      tag_127\n      jump\t// in\n    tag_285:\n        /* \"#utility.yul\":14500:14535   */\n      swap1\n      pop\n        /* \"#utility.yul\":14445:14541   */\n      swap2\n      swap1\n      pop\n      jump\t// out\n        /* \"#utility.yul\":14547:14665   */\n    tag_129:\n        /* \"#utility.yul\":14634:14658   */\n      tag_287\n        /* \"#utility.yul\":14652:14657   */\n      dup2\n        /* \"#utility.yul\":14634:14658   */\n      tag_128\n      jump\t// in\n    tag_287:\n        /* \"#utility.yul\":14629:14632   */\n      dup3\n        /* \"#utility.yul\":14622:14659   */\n      mstore\n        /* \"#utility.yul\":14547:14665   */\n      pop\n      pop\n      jump\t// out\n        /* \"#utility.yul\":14671:15003   */\n    tag_69:\n        /* \"#utility.yul\":14792:14796   */\n      0x00\n        /* \"#utility.yul\":14830:14832   */\n      0x40\n        /* \"#utility.yul\":14819:14828   */\n      dup3\n        /* \"#utility.yul\":14815:14833   */\n      add\n        /* \"#utility.yul\":14807:14833   */\n      swap1\n      pop\n        /* \"#utility.yul\":14843:14914   */\n      tag_289\n        /* \"#utility.yul\":14911:14912   */\n      0x00\n        /* \"#utility.yul\":14900:14909   */\n      dup4\n        /* \"#utility.yul\":14896:14913   */\n      add\n        /* \"#utility.yul\":14887:14893   */\n      dup6\n        /* \"#utility.yul\":14843:14914   */\n      tag_129\n      jump\t// in\n    tag_289:\n        /* \"#utility.yul\":14924:14996   */\n      tag_290\n        /* \"#utility.yul\":14992:14994   */\n      0x20\n        /* \"#utility.yul\":14981:14990   */\n      dup4\n        /* \"#utility.yul\":14977:14995   */\n      add\n        /* \"#utility.yul\":14968:14974   */\n      dup5\n        /* \"#utility.yul\":14924:14996   */\n      tag_103\n      jump\t// in\n    tag_290:\n        /* \"#utility.yul\":14671:15003   */\n      swap4\n      swap3\n      pop\n      pop\n      pop\n      jump\t// out\n        /* \"#utility.yul\":15009:15176   */\n    tag_130:\n        /* \"#utility.yul\":15149:15168   */\n      0x426f6f6b206e6f7420626f72726f776564000000000000000000000000000000\n        /* \"#utility.yul\":15145:15146   */\n      0x00\n        /* \"#utility.yul\":15137:15143   */\n      dup3\n        /* \"#utility.yul\":15133:15147   */\n      add\n        /* \"#utility.yul\":15126:15169   */\n      mstore\n        /* \"#utility.yul\":15009:15176   */\n      pop\n      jump\t// out\n        /* \"#utility.yul\":15182:15548   */\n    tag_131:\n        /* \"#utility.yul\":15324:15327   */\n      0x00\n        /* \"#utility.yul\":15345:15412   */\n      tag_293\n        /* \"#utility.yul\":15409:15411   */\n      0x11\n        /* \"#utility.yul\":15404:15407   */\n      dup4\n        /* \"#utility.yul\":15345:15412   */\n      tag_100\n      jump\t// in\n    tag_293:\n        /* \"#utility.yul\":15338:15412   */\n      swap2\n      pop\n        /* \"#utility.yul\":15421:15514   */\n      tag_294\n        /* \"#utility.yul\":15510:15513   */\n      dup3\n        /* \"#utility.yul\":15421:15514   */\n      tag_130\n      jump\t// in\n    tag_294:\n        /* \"#utility.yul\":15539:15541   */\n      0x20\n        /* \"#utility.yul\":15534:15537   */\n      dup3\n        /* \"#utility.yul\":15530:15542   */\n      add\n        /* \"#utility.yul\":15523:15542   */\n      swap1\n      pop\n        /* \"#utility.yul\":15182:15548   */\n      swap2\n      swap1\n      pop\n      jump\t// out\n        /* \"#utility.yul\":15554:15973   */\n    tag_76:\n        /* \"#utility.yul\":15720:15724   */\n      0x00\n        /* \"#utility.yul\":15758:15760   */\n      0x20\n        /* \"#utility.yul\":15747:15756   */\n      dup3\n        /* \"#utility.yul\":15743:15761   */\n      add\n        /* \"#utility.yul\":15735:15761   */\n      swap1\n      pop\n        /* \"#utility.yul\":15807:15816   */\n      dup2\n        /* \"#utility.yul\":15801:15805   */\n      dup2\n        /* \"#utility.yul\":15797:15817   */\n      sub\n        /* \"#utility.yul\":15793:15794   */\n      0x00\n        /* \"#utility.yul\":15782:15791   */\n      dup4\n        /* \"#utility.yul\":15778:15795   */\n      add\n        /* \"#utility.yul\":15771:15818   */\n      mstore\n        /* \"#utility.yul\":15835:15966   */\n      tag_296\n        /* \"#utility.yul\":15961:15965   */\n      dup2\n        /* \"#utility.yul\":15835:15966   */\n      tag_131\n      jump\t// in\n    tag_296:\n        /* \"#utility.yul\":15827:15966   */\n      swap1\n      pop\n        /* \"#utility.yul\":15554:15973   */\n      swap2\n      swap1\n      pop\n      jump\t// out\n        /* \"#utility.yul\":15979:16212   */\n    tag_81:\n        /* \"#utility.yul\":16018:16021   */\n      0x00\n        /* \"#utility.yul\":16041:16065   */\n      tag_298\n        /* \"#utility.yul\":16059:16064   */\n      dup3\n        /* \"#utility.yul\":16041:16065   */\n      tag_96\n      jump\t// in\n    tag_298:\n        /* \"#utility.yul\":16032:16065   */\n      swap2\n      pop\n        /* \"#utility.yul\":16087:16153   */\n      0xffffffffffffffffffffffffffffffffffffffffffffffffffffffffffffffff\n        /* \"#utility.yul\":16080:16085   */\n      dup3\n        /* \"#utility.yul\":16077:16154   */\n      sub\n        /* \"#utility.yul\":16074:16177   */\n      tag_299\n      jumpi\n        /* \"#utility.yul\":16157:16175   */\n      tag_300\n      tag_120\n      jump\t// in\n    tag_300:\n        /* \"#utility.yul\":16074:16177   */\n    tag_299:\n        /* \"#utility.yul\":16204:16205   */\n      0x01\n        /* \"#utility.yul\":16197:16202   */\n      dup3\n        /* \"#utility.yul\":16193:16206   */\n      add\n        /* \"#utility.yul\":16186:16206   */\n      swap1\n      pop\n        /* \"#utility.yul\":15979:16212   */\n      swap2\n      swap1\n      pop\n      jump\t// out\n\n    auxdata: 0xa2646970667358221220ab74a9cbb9650d818bdfa909a6221b385759e7eadb7d89409038042e6e37884264736f6c634300081e0033\n}\n",
				"bytecode": {
					"linkReferences": {},
					"object": "6080604052348015600e575f5ffd5b50335f5f6101000a81548173ffffffffffffffffffffffffffffffffffffffff021916908373ffffffffffffffffffffffffffffffffffffffff1602179055506110478061005b5f395ff3fe608060405234801561000f575f5ffd5b506004361061004a575f3560e01c8063042662241461004e578063687440461461006a5780637e490a9e1461009c578063ca5140c9146100b8575b5f5ffd5b610068600480360381019061006391906108df565b6100d4565b005b610084600480360381019061007f9190610967565b610247565b60405161009393929190610a01565b60405180910390f35b6100b660048036038101906100b19190610967565b610388565b005b6100d260048036038101906100cd9190610967565b6105a7565b005b5f5f9054906101000a900473ffffffffffffffffffffffffffffffffffffffff1673ffffffffffffffffffffffffffffffffffffffff163373ffffffffffffffffffffffffffffffffffffffff161461012b575f5ffd5b5f6040518060600160405280858152602001848152602001838152509050600181908060018154018082558091505060019003905f5260205f2090600302015f909190919091505f820151815f0190816101859190610c41565b50602082015181600101908161019b9190610c41565b506040820151816002015550505f600180805490506101ba9190610d3d565b90508160025f8381526020019081526020015f205f820151815f0190816101e19190610c41565b5060208201518160010190816101f79190610c41565b50604082015181600201559050507fe0cf28f41f6224a2dd20ffaeb131cfb4bf849b63c819a1a03eee314eac687cb685858560405161023893929190610a01565b60405180910390a15050505050565b60018181548110610256575f80fd5b905f5260205f2090600302015f91509050805f01805461027590610a71565b80601f01602080910402602001604051908101604052809291908181526020018280546102a190610a71565b80156102ec5780601f106102c3576101008083540402835291602001916102ec565b820191905f5260205f20905b8154815290600101906020018083116102cf57829003601f168201915b50505050509080600101805461030190610a71565b80601f016020809104026020016040519081016040528092919081815260200182805461032d90610a71565b80156103785780601f1061034f57610100808354040283529160200191610378565b820191905f5260205f20905b81548152906001019060200180831161035b57829003601f168201915b5050505050908060020154905083565b8060018054905081106103d0576040517f08c379a00000000000000000000000000000000000000000000000000000000081526004016103c790610dba565b60405180910390fd5b60035f3373ffffffffffffffffffffffffffffffffffffffff1673ffffffffffffffffffffffffffffffffffffffff1681526020019081526020015f205f8381526020019081526020015f205f9054906101000a900460ff1615610469576040517f08c379a000000000000000000000000000000000000000000000000000000000815260040161046090610e22565b60405180910390fd5b5f6001838154811061047e5761047d610e40565b5b905f5260205f20906003020160020154116104ce576040517f08c379a00000000000000000000000000000000000000000000000000000000081526004016104c590610eb7565b60405180910390fd5b600182815481106104e2576104e1610e40565b5b905f5260205f2090600302016002015f81548092919061050190610ed5565b9190505550600160035f3373ffffffffffffffffffffffffffffffffffffffff1673ffffffffffffffffffffffffffffffffffffffff1681526020019081526020015f205f8481526020019081526020015f205f6101000a81548160ff0219169083151502179055507f84edab31b887a66b8af059a2b9c3c53e440d8b54f65102ae6acc11bf485db9e2338360405161059b929190610f3b565b60405180910390a15050565b8060018054905081106105ef576040517f08c379a00000000000000000000000000000000000000000000000000000000081526004016105e690610dba565b60405180910390fd5b60035f3373ffffffffffffffffffffffffffffffffffffffff1673ffffffffffffffffffffffffffffffffffffffff1681526020019081526020015f205f8381526020019081526020015f205f9054906101000a900460ff16610687576040517f08c379a000000000000000000000000000000000000000000000000000000000815260040161067e90610fac565b60405180910390fd5b6001828154811061069b5761069a610e40565b5b905f5260205f2090600302016002015f8154809291906106ba90610fca565b91905055505f60035f3373ffffffffffffffffffffffffffffffffffffffff1673ffffffffffffffffffffffffffffffffffffffff1681526020019081526020015f205f8481526020019081526020015f205f6101000a81548160ff0219169083151502179055507f095bd1d20746d0513acf2a85fa1f8ed7de89ff83285974a106ca40499e16c9c83383604051610753929190610f3b565b60405180910390a15050565b5f604051905090565b5f5ffd5b5f5ffd5b5f5ffd5b5f5ffd5b5f601f19601f8301169050919050565b7f4e487b71000000000000000000000000000000000000000000000000000000005f52604160045260245ffd5b6107be82610778565b810181811067ffffffffffffffff821117156107dd576107dc610788565b5b80604052505050565b5f6107ef61075f565b90506107fb82826107b5565b919050565b5f67ffffffffffffffff82111561081a57610819610788565b5b61082382610778565b9050602081019050919050565b828183375f83830152505050565b5f61085061084b84610800565b6107e6565b90508281526020810184848401111561086c5761086b610774565b5b610877848285610830565b509392505050565b5f82601f83011261089357610892610770565b5b81356108a384826020860161083e565b91505092915050565b5f819050919050565b6108be816108ac565b81146108c8575f5ffd5b50565b5f813590506108d9816108b5565b92915050565b5f5f5f606084860312156108f6576108f5610768565b5b5f84013567ffffffffffffffff8111156109135761091261076c565b5b61091f8682870161087f565b935050602084013567ffffffffffffffff8111156109405761093f61076c565b5b61094c8682870161087f565b925050604061095d868287016108cb565b9150509250925092565b5f6020828403121561097c5761097b610768565b5b5f610989848285016108cb565b91505092915050565b5f81519050919050565b5f82825260208201905092915050565b8281835e5f83830152505050565b5f6109c482610992565b6109ce818561099c565b93506109de8185602086016109ac565b6109e781610778565b840191505092915050565b6109fb816108ac565b82525050565b5f6060820190508181035f830152610a1981866109ba565b90508181036020830152610a2d81856109ba565b9050610a3c60408301846109f2565b949350505050565b7f4e487b71000000000000000000000000000000000000000000000000000000005f52602260045260245ffd5b5f6002820490506001821680610a8857607f821691505b602082108103610a9b57610a9a610a44565b5b50919050565b5f819050815f5260205f209050919050565b5f6020601f8301049050919050565b5f82821b905092915050565b5f60088302610afd7fffffffffffffffffffffffffffffffffffffffffffffffffffffffffffffffff82610ac2565b610b078683610ac2565b95508019841693508086168417925050509392505050565b5f819050919050565b5f610b42610b3d610b38846108ac565b610b1f565b6108ac565b9050919050565b5f819050919050565b610b5b83610b28565b610b6f610b6782610b49565b848454610ace565b825550505050565b5f5f905090565b610b86610b77565b610b91818484610b52565b505050565b5b81811015610bb457610ba95f82610b7e565b600181019050610b97565b5050565b601f821115610bf957610bca81610aa1565b610bd384610ab3565b81016020851015610be2578190505b610bf6610bee85610ab3565b830182610b96565b50505b505050565b5f82821c905092915050565b5f610c195f1984600802610bfe565b1980831691505092915050565b5f610c318383610c0a565b9150826002028217905092915050565b610c4a82610992565b67ffffffffffffffff811115610c6357610c62610788565b5b610c6d8254610a71565b610c78828285610bb8565b5f60209050601f831160018114610ca9575f8415610c97578287015190505b610ca18582610c26565b865550610d08565b601f198416610cb786610aa1565b5f5b82811015610cde57848901518255600182019150602085019450602081019050610cb9565b86831015610cfb5784890151610cf7601f891682610c0a565b8355505b6001600288020188555050505b505050505050565b7f4e487b71000000000000000000000000000000000000000000000000000000005f52601160045260245ffd5b5f610d47826108ac565b9150610d52836108ac565b9250828203905081811115610d6a57610d69610d10565b5b92915050565b7f496e76616c696420426f6f6b20494400000000000000000000000000000000005f82015250565b5f610da4600f8361099c565b9150610daf82610d70565b602082019050919050565b5f6020820190508181035f830152610dd181610d98565b9050919050565b7f426f6f6b20616c726561647920626f72726f77656400000000000000000000005f82015250565b5f610e0c60158361099c565b9150610e1782610dd8565b602082019050919050565b5f6020820190508181035f830152610e3981610e00565b9050919050565b7f4e487b71000000000000000000000000000000000000000000000000000000005f52603260045260245ffd5b7f426f6f6b20696e76656e746f727920697320656d7074790000000000000000005f82015250565b5f610ea160178361099c565b9150610eac82610e6d565b602082019050919050565b5f6020820190508181035f830152610ece81610e95565b9050919050565b5f610edf826108ac565b91505f8203610ef157610ef0610d10565b5b600182039050919050565b5f73ffffffffffffffffffffffffffffffffffffffff82169050919050565b5f610f2582610efc565b9050919050565b610f3581610f1b565b82525050565b5f604082019050610f4e5f830185610f2c565b610f5b60208301846109f2565b9392505050565b7f426f6f6b206e6f7420626f72726f7765640000000000000000000000000000005f82015250565b5f610f9660118361099c565b9150610fa182610f62565b602082019050919050565b5f6020820190508181035f830152610fc381610f8a565b9050919050565b5f610fd4826108ac565b91507fffffffffffffffffffffffffffffffffffffffffffffffffffffffffffffffff820361100657611005610d10565b5b60018201905091905056fea2646970667358221220ab74a9cbb9650d818bdfa909a6221b385759e7eadb7d89409038042e6e37884264736f6c634300081e0033",
					"opcodes": "PUSH1 0x80 PUSH1 0x40 MSTORE CALLVALUE DUP1 ISZERO PUSH1 0xE JUMPI PUSH0 PUSH0 REVERT JUMPDEST POP CALLER PUSH0 PUSH0 PUSH2 0x100 EXP DUP2 SLOAD DUP2 PUSH20 0xFFFFFFFFFFFFFFFFFFFFFFFFFFFFFFFFFFFFFFFF MUL NOT AND SWAP1 DUP4 PUSH20 0xFFFFFFFFFFFFFFFFFFFFFFFFFFFFFFFFFFFFFFFF AND MUL OR SWAP1 SSTORE POP PUSH2 0x1047 DUP1 PUSH2 0x5B PUSH0 CODECOPY PUSH0 RETURN INVALID PUSH1 0x80 PUSH1 0x40 MSTORE CALLVALUE DUP1 ISZERO PUSH2 0xF JUMPI PUSH0 PUSH0 REVERT JUMPDEST POP PUSH1 0x4 CALLDATASIZE LT PUSH2 0x4A JUMPI PUSH0 CALLDATALOAD PUSH1 0xE0 SHR DUP1 PUSH4 0x4266224 EQ PUSH2 0x4E JUMPI DUP1 PUSH4 0x68744046 EQ PUSH2 0x6A JUMPI DUP1 PUSH4 0x7E490A9E EQ PUSH2 0x9C JUMPI DUP1 PUSH4 0xCA5140C9 EQ PUSH2 0xB8 JUMPI JUMPDEST PUSH0 PUSH0 REVERT JUMPDEST PUSH2 0x68 PUSH1 0x4 DUP1 CALLDATASIZE SUB DUP2 ADD SWAP1 PUSH2 0x63 SWAP2 SWAP1 PUSH2 0x8DF JUMP JUMPDEST PUSH2 0xD4 JUMP JUMPDEST STOP JUMPDEST PUSH2 0x84 PUSH1 0x4 DUP1 CALLDATASIZE SUB DUP2 ADD SWAP1 PUSH2 0x7F SWAP2 SWAP1 PUSH2 0x967 JUMP JUMPDEST PUSH2 0x247 JUMP JUMPDEST PUSH1 0x40 MLOAD PUSH2 0x93 SWAP4 SWAP3 SWAP2 SWAP1 PUSH2 0xA01 JUMP JUMPDEST PUSH1 0x40 MLOAD DUP1 SWAP2 SUB SWAP1 RETURN JUMPDEST PUSH2 0xB6 PUSH1 0x4 DUP1 CALLDATASIZE SUB DUP2 ADD SWAP1 PUSH2 0xB1 SWAP2 SWAP1 PUSH2 0x967 JUMP JUMPDEST PUSH2 0x388 JUMP JUMPDEST STOP JUMPDEST PUSH2 0xD2 PUSH1 0x4 DUP1 CALLDATASIZE SUB DUP2 ADD SWAP1 PUSH2 0xCD SWAP2 SWAP1 PUSH2 0x967 JUMP JUMPDEST PUSH2 0x5A7 JUMP JUMPDEST STOP JUMPDEST PUSH0 PUSH0 SWAP1 SLOAD SWAP1 PUSH2 0x100 EXP SWAP1 DIV PUSH20 0xFFFFFFFFFFFFFFFFFFFFFFFFFFFFFFFFFFFFFFFF AND PUSH20 0xFFFFFFFFFFFFFFFFFFFFFFFFFFFFFFFFFFFFFFFF AND CALLER PUSH20 0xFFFFFFFFFFFFFFFFFFFFFFFFFFFFFFFFFFFFFFFF AND EQ PUSH2 0x12B JUMPI PUSH0 PUSH0 REVERT JUMPDEST PUSH0 PUSH1 0x40 MLOAD DUP1 PUSH1 0x60 ADD PUSH1 0x40 MSTORE DUP1 DUP6 DUP2 MSTORE PUSH1 0x20 ADD DUP5 DUP2 MSTORE PUSH1 0x20 ADD DUP4 DUP2 MSTORE POP SWAP1 POP PUSH1 0x1 DUP2 SWAP1 DUP1 PUSH1 0x1 DUP2 SLOAD ADD DUP1 DUP3 SSTORE DUP1 SWAP2 POP POP PUSH1 0x1 SWAP1 SUB SWAP1 PUSH0 MSTORE PUSH1 0x20 PUSH0 KECCAK256 SWAP1 PUSH1 0x3 MUL ADD PUSH0 SWAP1 SWAP2 SWAP1 SWAP2 SWAP1 SWAP2 POP PUSH0 DUP3 ADD MLOAD DUP2 PUSH0 ADD SWAP1 DUP2 PUSH2 0x185 SWAP2 SWAP1 PUSH2 0xC41 JUMP JUMPDEST POP PUSH1 0x20 DUP3 ADD MLOAD DUP2 PUSH1 0x1 ADD SWAP1 DUP2 PUSH2 0x19B SWAP2 SWAP1 PUSH2 0xC41 JUMP JUMPDEST POP PUSH1 0x40 DUP3 ADD MLOAD DUP2 PUSH1 0x2 ADD SSTORE POP POP PUSH0 PUSH1 0x1 DUP1 DUP1 SLOAD SWAP1 POP PUSH2 0x1BA SWAP2 SWAP1 PUSH2 0xD3D JUMP JUMPDEST SWAP1 POP DUP2 PUSH1 0x2 PUSH0 DUP4 DUP2 MSTORE PUSH1 0x20 ADD SWAP1 DUP2 MSTORE PUSH1 0x20 ADD PUSH0 KECCAK256 PUSH0 DUP3 ADD MLOAD DUP2 PUSH0 ADD SWAP1 DUP2 PUSH2 0x1E1 SWAP2 SWAP1 PUSH2 0xC41 JUMP JUMPDEST POP PUSH1 0x20 DUP3 ADD MLOAD DUP2 PUSH1 0x1 ADD SWAP1 DUP2 PUSH2 0x1F7 SWAP2 SWAP1 PUSH2 0xC41 JUMP JUMPDEST POP PUSH1 0x40 DUP3 ADD MLOAD DUP2 PUSH1 0x2 ADD SSTORE SWAP1 POP POP PUSH32 0xE0CF28F41F6224A2DD20FFAEB131CFB4BF849B63C819A1A03EEE314EAC687CB6 DUP6 DUP6 DUP6 PUSH1 0x40 MLOAD PUSH2 0x238 SWAP4 SWAP3 SWAP2 SWAP1 PUSH2 0xA01 JUMP JUMPDEST PUSH1 0x40 MLOAD DUP1 SWAP2 SUB SWAP1 LOG1 POP POP POP POP POP JUMP JUMPDEST PUSH1 0x1 DUP2 DUP2 SLOAD DUP2 LT PUSH2 0x256 JUMPI PUSH0 DUP1 REVERT JUMPDEST SWAP1 PUSH0 MSTORE PUSH1 0x20 PUSH0 KECCAK256 SWAP1 PUSH1 0x3 MUL ADD PUSH0 SWAP2 POP SWAP1 POP DUP1 PUSH0 ADD DUP1 SLOAD PUSH2 0x275 SWAP1 PUSH2 0xA71 JUMP JUMPDEST DUP1 PUSH1 0x1F ADD PUSH1 0x20 DUP1 SWAP2 DIV MUL PUSH1 0x20 ADD PUSH1 0x40 MLOAD SWAP1 DUP2 ADD PUSH1 0x40 MSTORE DUP1 SWAP3 SWAP2 SWAP1 DUP2 DUP2 MSTORE PUSH1 0x20 ADD DUP3 DUP1 SLOAD PUSH2 0x2A1 SWAP1 PUSH2 0xA71 JUMP JUMPDEST DUP1 ISZERO PUSH2 0x2EC JUMPI DUP1 PUSH1 0x1F LT PUSH2 0x2C3 JUMPI PUSH2 0x100 DUP1 DUP4 SLOAD DIV MUL DUP4 MSTORE SWAP2 PUSH1 0x20 ADD SWAP2 PUSH2 0x2EC JUMP JUMPDEST DUP3 ADD SWAP2 SWAP1 PUSH0 MSTORE PUSH1 0x20 PUSH0 KECCAK256 SWAP1 JUMPDEST DUP2 SLOAD DUP2 MSTORE SWAP1 PUSH1 0x1 ADD SWAP1 PUSH1 0x20 ADD DUP1 DUP4 GT PUSH2 0x2CF JUMPI DUP3 SWAP1 SUB PUSH1 0x1F AND DUP3 ADD SWAP2 JUMPDEST POP POP POP POP POP SWAP1 DUP1 PUSH1 0x1 ADD DUP1 SLOAD PUSH2 0x301 SWAP1 PUSH2 0xA71 JUMP JUMPDEST DUP1 PUSH1 0x1F ADD PUSH1 0x20 DUP1 SWAP2 DIV MUL PUSH1 0x20 ADD PUSH1 0x40 MLOAD SWAP1 DUP2 ADD PUSH1 0x40 MSTORE DUP1 SWAP3 SWAP2 SWAP1 DUP2 DUP2 MSTORE PUSH1 0x20 ADD DUP3 DUP1 SLOAD PUSH2 0x32D SWAP1 PUSH2 0xA71 JUMP JUMPDEST DUP1 ISZERO PUSH2 0x378 JUMPI DUP1 PUSH1 0x1F LT PUSH2 0x34F JUMPI PUSH2 0x100 DUP1 DUP4 SLOAD DIV MUL DUP4 MSTORE SWAP2 PUSH1 0x20 ADD SWAP2 PUSH2 0x378 JUMP JUMPDEST DUP3 ADD SWAP2 SWAP1 PUSH0 MSTORE PUSH1 0x20 PUSH0 KECCAK256 SWAP1 JUMPDEST DUP2 SLOAD DUP2 MSTORE SWAP1 PUSH1 0x1 ADD SWAP1 PUSH1 0x20 ADD DUP1 DUP4 GT PUSH2 0x35B JUMPI DUP3 SWAP1 SUB PUSH1 0x1F AND DUP3 ADD SWAP2 JUMPDEST POP POP POP POP POP SWAP1 DUP1 PUSH1 0x2 ADD SLOAD SWAP1 POP DUP4 JUMP JUMPDEST DUP1 PUSH1 0x1 DUP1 SLOAD SWAP1 POP DUP2 LT PUSH2 0x3D0 JUMPI PUSH1 0x40 MLOAD PUSH32 0x8C379A000000000000000000000000000000000000000000000000000000000 DUP2 MSTORE PUSH1 0x4 ADD PUSH2 0x3C7 SWAP1 PUSH2 0xDBA JUMP JUMPDEST PUSH1 0x40 MLOAD DUP1 SWAP2 SUB SWAP1 REVERT JUMPDEST PUSH1 0x3 PUSH0 CALLER PUSH20 0xFFFFFFFFFFFFFFFFFFFFFFFFFFFFFFFFFFFFFFFF AND PUSH20 0xFFFFFFFFFFFFFFFFFFFFFFFFFFFFFFFFFFFFFFFF AND DUP2 MSTORE PUSH1 0x20 ADD SWAP1 DUP2 MSTORE PUSH1 0x20 ADD PUSH0 KECCAK256 PUSH0 DUP4 DUP2 MSTORE PUSH1 0x20 ADD SWAP1 DUP2 MSTORE PUSH1 0x20 ADD PUSH0 KECCAK256 PUSH0 SWAP1 SLOAD SWAP1 PUSH2 0x100 EXP SWAP1 DIV PUSH1 0xFF AND ISZERO PUSH2 0x469 JUMPI PUSH1 0x40 MLOAD PUSH32 0x8C379A000000000000000000000000000000000000000000000000000000000 DUP2 MSTORE PUSH1 0x4 ADD PUSH2 0x460 SWAP1 PUSH2 0xE22 JUMP JUMPDEST PUSH1 0x40 MLOAD DUP1 SWAP2 SUB SWAP1 REVERT JUMPDEST PUSH0 PUSH1 0x1 DUP4 DUP2 SLOAD DUP2 LT PUSH2 0x47E JUMPI PUSH2 0x47D PUSH2 0xE40 JUMP JUMPDEST JUMPDEST SWAP1 PUSH0 MSTORE PUSH1 0x20 PUSH0 KECCAK256 SWAP1 PUSH1 0x3 MUL ADD PUSH1 0x2 ADD SLOAD GT PUSH2 0x4CE JUMPI PUSH1 0x40 MLOAD PUSH32 0x8C379A000000000000000000000000000000000000000000000000000000000 DUP2 MSTORE PUSH1 0x4 ADD PUSH2 0x4C5 SWAP1 PUSH2 0xEB7 JUMP JUMPDEST PUSH1 0x40 MLOAD DUP1 SWAP2 SUB SWAP1 REVERT JUMPDEST PUSH1 0x1 DUP3 DUP2 SLOAD DUP2 LT PUSH2 0x4E2 JUMPI PUSH2 0x4E1 PUSH2 0xE40 JUMP JUMPDEST JUMPDEST SWAP1 PUSH0 MSTORE PUSH1 0x20 PUSH0 KECCAK256 SWAP1 PUSH1 0x3 MUL ADD PUSH1 0x2 ADD PUSH0 DUP2 SLOAD DUP1 SWAP3 SWAP2 SWAP1 PUSH2 0x501 SWAP1 PUSH2 0xED5 JUMP JUMPDEST SWAP2 SWAP1 POP SSTORE POP PUSH1 0x1 PUSH1 0x3 PUSH0 CALLER PUSH20 0xFFFFFFFFFFFFFFFFFFFFFFFFFFFFFFFFFFFFFFFF AND PUSH20 0xFFFFFFFFFFFFFFFFFFFFFFFFFFFFFFFFFFFFFFFF AND DUP2 MSTORE PUSH1 0x20 ADD SWAP1 DUP2 MSTORE PUSH1 0x20 ADD PUSH0 KECCAK256 PUSH0 DUP5 DUP2 MSTORE PUSH1 0x20 ADD SWAP1 DUP2 MSTORE PUSH1 0x20 ADD PUSH0 KECCAK256 PUSH0 PUSH2 0x100 EXP DUP2 SLOAD DUP2 PUSH1 0xFF MUL NOT AND SWAP1 DUP4 ISZERO ISZERO MUL OR SWAP1 SSTORE POP PUSH32 0x84EDAB31B887A66B8AF059A2B9C3C53E440D8B54F65102AE6ACC11BF485DB9E2 CALLER DUP4 PUSH1 0x40 MLOAD PUSH2 0x59B SWAP3 SWAP2 SWAP1 PUSH2 0xF3B JUMP JUMPDEST PUSH1 0x40 MLOAD DUP1 SWAP2 SUB SWAP1 LOG1 POP POP JUMP JUMPDEST DUP1 PUSH1 0x1 DUP1 SLOAD SWAP1 POP DUP2 LT PUSH2 0x5EF JUMPI PUSH1 0x40 MLOAD PUSH32 0x8C379A000000000000000000000000000000000000000000000000000000000 DUP2 MSTORE PUSH1 0x4 ADD PUSH2 0x5E6 SWAP1 PUSH2 0xDBA JUMP JUMPDEST PUSH1 0x40 MLOAD DUP1 SWAP2 SUB SWAP1 REVERT JUMPDEST PUSH1 0x3 PUSH0 CALLER PUSH20 0xFFFFFFFFFFFFFFFFFFFFFFFFFFFFFFFFFFFFFFFF AND PUSH20 0xFFFFFFFFFFFFFFFFFFFFFFFFFFFFFFFFFFFFFFFF AND DUP2 MSTORE PUSH1 0x20 ADD SWAP1 DUP2 MSTORE PUSH1 0x20 ADD PUSH0 KECCAK256 PUSH0 DUP4 DUP2 MSTORE PUSH1 0x20 ADD SWAP1 DUP2 MSTORE PUSH1 0x20 ADD PUSH0 KECCAK256 PUSH0 SWAP1 SLOAD SWAP1 PUSH2 0x100 EXP SWAP1 DIV PUSH1 0xFF AND PUSH2 0x687 JUMPI PUSH1 0x40 MLOAD PUSH32 0x8C379A000000000000000000000000000000000000000000000000000000000 DUP2 MSTORE PUSH1 0x4 ADD PUSH2 0x67E SWAP1 PUSH2 0xFAC JUMP JUMPDEST PUSH1 0x40 MLOAD DUP1 SWAP2 SUB SWAP1 REVERT JUMPDEST PUSH1 0x1 DUP3 DUP2 SLOAD DUP2 LT PUSH2 0x69B JUMPI PUSH2 0x69A PUSH2 0xE40 JUMP JUMPDEST JUMPDEST SWAP1 PUSH0 MSTORE PUSH1 0x20 PUSH0 KECCAK256 SWAP1 PUSH1 0x3 MUL ADD PUSH1 0x2 ADD PUSH0 DUP2 SLOAD DUP1 SWAP3 SWAP2 SWAP1 PUSH2 0x6BA SWAP1 PUSH2 0xFCA JUMP JUMPDEST SWAP2 SWAP1 POP SSTORE POP PUSH0 PUSH1 0x3 PUSH0 CALLER PUSH20 0xFFFFFFFFFFFFFFFFFFFFFFFFFFFFFFFFFFFFFFFF AND PUSH20 0xFFFFFFFFFFFFFFFFFFFFFFFFFFFFFFFFFFFFFFFF AND DUP2 MSTORE PUSH1 0x20 ADD SWAP1 DUP2 MSTORE PUSH1 0x20 ADD PUSH0 KECCAK256 PUSH0 DUP5 DUP2 MSTORE PUSH1 0x20 ADD SWAP1 DUP2 MSTORE PUSH1 0x20 ADD PUSH0 KECCAK256 PUSH0 PUSH2 0x100 EXP DUP2 SLOAD DUP2 PUSH1 0xFF MUL NOT AND SWAP1 DUP4 ISZERO ISZERO MUL OR SWAP1 SSTORE POP PUSH32 0x95BD1D20746D0513ACF2A85FA1F8ED7DE89FF83285974A106CA40499E16C9C8 CALLER DUP4 PUSH1 0x40 MLOAD PUSH2 0x753 SWAP3 SWAP2 SWAP1 PUSH2 0xF3B JUMP JUMPDEST PUSH1 0x40 MLOAD DUP1 SWAP2 SUB SWAP1 LOG1 POP POP JUMP JUMPDEST PUSH0 PUSH1 0x40 MLOAD SWAP1 POP SWAP1 JUMP JUMPDEST PUSH0 PUSH0 REVERT JUMPDEST PUSH0 PUSH0 REVERT JUMPDEST PUSH0 PUSH0 REVERT JUMPDEST PUSH0 PUSH0 REVERT JUMPDEST PUSH0 PUSH1 0x1F NOT PUSH1 0x1F DUP4 ADD AND SWAP1 POP SWAP2 SWAP1 POP JUMP JUMPDEST PUSH32 0x4E487B7100000000000000000000000000000000000000000000000000000000 PUSH0 MSTORE PUSH1 0x41 PUSH1 0x4 MSTORE PUSH1 0x24 PUSH0 REVERT JUMPDEST PUSH2 0x7BE DUP3 PUSH2 0x778 JUMP JUMPDEST DUP2 ADD DUP2 DUP2 LT PUSH8 0xFFFFFFFFFFFFFFFF DUP3 GT OR ISZERO PUSH2 0x7DD JUMPI PUSH2 0x7DC PUSH2 0x788 JUMP JUMPDEST JUMPDEST DUP1 PUSH1 0x40 MSTORE POP POP POP JUMP JUMPDEST PUSH0 PUSH2 0x7EF PUSH2 0x75F JUMP JUMPDEST SWAP1 POP PUSH2 0x7FB DUP3 DUP3 PUSH2 0x7B5 JUMP JUMPDEST SWAP2 SWAP1 POP JUMP JUMPDEST PUSH0 PUSH8 0xFFFFFFFFFFFFFFFF DUP3 GT ISZERO PUSH2 0x81A JUMPI PUSH2 0x819 PUSH2 0x788 JUMP JUMPDEST JUMPDEST PUSH2 0x823 DUP3 PUSH2 0x778 JUMP JUMPDEST SWAP1 POP PUSH1 0x20 DUP2 ADD SWAP1 POP SWAP2 SWAP1 POP JUMP JUMPDEST DUP3 DUP2 DUP4 CALLDATACOPY PUSH0 DUP4 DUP4 ADD MSTORE POP POP POP JUMP JUMPDEST PUSH0 PUSH2 0x850 PUSH2 0x84B DUP5 PUSH2 0x800 JUMP JUMPDEST PUSH2 0x7E6 JUMP JUMPDEST SWAP1 POP DUP3 DUP2 MSTORE PUSH1 0x20 DUP2 ADD DUP5 DUP5 DUP5 ADD GT ISZERO PUSH2 0x86C JUMPI PUSH2 0x86B PUSH2 0x774 JUMP JUMPDEST JUMPDEST PUSH2 0x877 DUP5 DUP3 DUP6 PUSH2 0x830 JUMP JUMPDEST POP SWAP4 SWAP3 POP POP POP JUMP JUMPDEST PUSH0 DUP3 PUSH1 0x1F DUP4 ADD SLT PUSH2 0x893 JUMPI PUSH2 0x892 PUSH2 0x770 JUMP JUMPDEST JUMPDEST DUP2 CALLDATALOAD PUSH2 0x8A3 DUP5 DUP3 PUSH1 0x20 DUP7 ADD PUSH2 0x83E JUMP JUMPDEST SWAP2 POP POP SWAP3 SWAP2 POP POP JUMP JUMPDEST PUSH0 DUP2 SWAP1 POP SWAP2 SWAP1 POP JUMP JUMPDEST PUSH2 0x8BE DUP2 PUSH2 0x8AC JUMP JUMPDEST DUP2 EQ PUSH2 0x8C8 JUMPI PUSH0 PUSH0 REVERT JUMPDEST POP JUMP JUMPDEST PUSH0 DUP2 CALLDATALOAD SWAP1 POP PUSH2 0x8D9 DUP2 PUSH2 0x8B5 JUMP JUMPDEST SWAP3 SWAP2 POP POP JUMP JUMPDEST PUSH0 PUSH0 PUSH0 PUSH1 0x60 DUP5 DUP7 SUB SLT ISZERO PUSH2 0x8F6 JUMPI PUSH2 0x8F5 PUSH2 0x768 JUMP JUMPDEST JUMPDEST PUSH0 DUP5 ADD CALLDATALOAD PUSH8 0xFFFFFFFFFFFFFFFF DUP2 GT ISZERO PUSH2 0x913 JUMPI PUSH2 0x912 PUSH2 0x76C JUMP JUMPDEST JUMPDEST PUSH2 0x91F DUP7 DUP3 DUP8 ADD PUSH2 0x87F JUMP JUMPDEST SWAP4 POP POP PUSH1 0x20 DUP5 ADD CALLDATALOAD PUSH8 0xFFFFFFFFFFFFFFFF DUP2 GT ISZERO PUSH2 0x940 JUMPI PUSH2 0x93F PUSH2 0x76C JUMP JUMPDEST JUMPDEST PUSH2 0x94C DUP7 DUP3 DUP8 ADD PUSH2 0x87F JUMP JUMPDEST SWAP3 POP POP PUSH1 0x40 PUSH2 0x95D DUP7 DUP3 DUP8 ADD PUSH2 0x8CB JUMP JUMPDEST SWAP2 POP POP SWAP3 POP SWAP3 POP SWAP3 JUMP JUMPDEST PUSH0 PUSH1 0x20 DUP3 DUP5 SUB SLT ISZERO PUSH2 0x97C JUMPI PUSH2 0x97B PUSH2 0x768 JUMP JUMPDEST JUMPDEST PUSH0 PUSH2 0x989 DUP5 DUP3 DUP6 ADD PUSH2 0x8CB JUMP JUMPDEST SWAP2 POP POP SWAP3 SWAP2 POP POP JUMP JUMPDEST PUSH0 DUP2 MLOAD SWAP1 POP SWAP2 SWAP1 POP JUMP JUMPDEST PUSH0 DUP3 DUP3 MSTORE PUSH1 0x20 DUP3 ADD SWAP1 POP SWAP3 SWAP2 POP POP JUMP JUMPDEST DUP3 DUP2 DUP4 MCOPY PUSH0 DUP4 DUP4 ADD MSTORE POP POP POP JUMP JUMPDEST PUSH0 PUSH2 0x9C4 DUP3 PUSH2 0x992 JUMP JUMPDEST PUSH2 0x9CE DUP2 DUP6 PUSH2 0x99C JUMP JUMPDEST SWAP4 POP PUSH2 0x9DE DUP2 DUP6 PUSH1 0x20 DUP7 ADD PUSH2 0x9AC JUMP JUMPDEST PUSH2 0x9E7 DUP2 PUSH2 0x778 JUMP JUMPDEST DUP5 ADD SWAP2 POP POP SWAP3 SWAP2 POP POP JUMP JUMPDEST PUSH2 0x9FB DUP2 PUSH2 0x8AC JUMP JUMPDEST DUP3 MSTORE POP POP JUMP JUMPDEST PUSH0 PUSH1 0x60 DUP3 ADD SWAP1 POP DUP2 DUP2 SUB PUSH0 DUP4 ADD MSTORE PUSH2 0xA19 DUP2 DUP7 PUSH2 0x9BA JUMP JUMPDEST SWAP1 POP DUP2 DUP2 SUB PUSH1 0x20 DUP4 ADD MSTORE PUSH2 0xA2D DUP2 DUP6 PUSH2 0x9BA JUMP JUMPDEST SWAP1 POP PUSH2 0xA3C PUSH1 0x40 DUP4 ADD DUP5 PUSH2 0x9F2 JUMP JUMPDEST SWAP5 SWAP4 POP POP POP POP JUMP JUMPDEST PUSH32 0x4E487B7100000000000000000000000000000000000000000000000000000000 PUSH0 MSTORE PUSH1 0x22 PUSH1 0x4 MSTORE PUSH1 0x24 PUSH0 REVERT JUMPDEST PUSH0 PUSH1 0x2 DUP3 DIV SWAP1 POP PUSH1 0x1 DUP3 AND DUP1 PUSH2 0xA88 JUMPI PUSH1 0x7F DUP3 AND SWAP2 POP JUMPDEST PUSH1 0x20 DUP3 LT DUP2 SUB PUSH2 0xA9B JUMPI PUSH2 0xA9A PUSH2 0xA44 JUMP JUMPDEST JUMPDEST POP SWAP2 SWAP1 POP JUMP JUMPDEST PUSH0 DUP2 SWAP1 POP DUP2 PUSH0 MSTORE PUSH1 0x20 PUSH0 KECCAK256 SWAP1 POP SWAP2 SWAP1 POP JUMP JUMPDEST PUSH0 PUSH1 0x20 PUSH1 0x1F DUP4 ADD DIV SWAP1 POP SWAP2 SWAP1 POP JUMP JUMPDEST PUSH0 DUP3 DUP3 SHL SWAP1 POP SWAP3 SWAP2 POP POP JUMP JUMPDEST PUSH0 PUSH1 0x8 DUP4 MUL PUSH2 0xAFD PUSH32 0xFFFFFFFFFFFFFFFFFFFFFFFFFFFFFFFFFFFFFFFFFFFFFFFFFFFFFFFFFFFFFFFF DUP3 PUSH2 0xAC2 JUMP JUMPDEST PUSH2 0xB07 DUP7 DUP4 PUSH2 0xAC2 JUMP JUMPDEST SWAP6 POP DUP1 NOT DUP5 AND SWAP4 POP DUP1 DUP7 AND DUP5 OR SWAP3 POP POP POP SWAP4 SWAP3 POP POP POP JUMP JUMPDEST PUSH0 DUP2 SWAP1 POP SWAP2 SWAP1 POP JUMP JUMPDEST PUSH0 PUSH2 0xB42 PUSH2 0xB3D PUSH2 0xB38 DUP5 PUSH2 0x8AC JUMP JUMPDEST PUSH2 0xB1F JUMP JUMPDEST PUSH2 0x8AC JUMP JUMPDEST SWAP1 POP SWAP2 SWAP1 POP JUMP JUMPDEST PUSH0 DUP2 SWAP1 POP SWAP2 SWAP1 POP JUMP JUMPDEST PUSH2 0xB5B DUP4 PUSH2 0xB28 JUMP JUMPDEST PUSH2 0xB6F PUSH2 0xB67 DUP3 PUSH2 0xB49 JUMP JUMPDEST DUP5 DUP5 SLOAD PUSH2 0xACE JUMP JUMPDEST DUP3 SSTORE POP POP POP POP JUMP JUMPDEST PUSH0 PUSH0 SWAP1 POP SWAP1 JUMP JUMPDEST PUSH2 0xB86 PUSH2 0xB77 JUMP JUMPDEST PUSH2 0xB91 DUP2 DUP5 DUP5 PUSH2 0xB52 JUMP JUMPDEST POP POP POP JUMP JUMPDEST JUMPDEST DUP2 DUP2 LT ISZERO PUSH2 0xBB4 JUMPI PUSH2 0xBA9 PUSH0 DUP3 PUSH2 0xB7E JUMP JUMPDEST PUSH1 0x1 DUP2 ADD SWAP1 POP PUSH2 0xB97 JUMP JUMPDEST POP POP JUMP JUMPDEST PUSH1 0x1F DUP3 GT ISZERO PUSH2 0xBF9 JUMPI PUSH2 0xBCA DUP2 PUSH2 0xAA1 JUMP JUMPDEST PUSH2 0xBD3 DUP5 PUSH2 0xAB3 JUMP JUMPDEST DUP2 ADD PUSH1 0x20 DUP6 LT ISZERO PUSH2 0xBE2 JUMPI DUP2 SWAP1 POP JUMPDEST PUSH2 0xBF6 PUSH2 0xBEE DUP6 PUSH2 0xAB3 JUMP JUMPDEST DUP4 ADD DUP3 PUSH2 0xB96 JUMP JUMPDEST POP POP JUMPDEST POP POP POP JUMP JUMPDEST PUSH0 DUP3 DUP3 SHR SWAP1 POP SWAP3 SWAP2 POP POP JUMP JUMPDEST PUSH0 PUSH2 0xC19 PUSH0 NOT DUP5 PUSH1 0x8 MUL PUSH2 0xBFE JUMP JUMPDEST NOT DUP1 DUP4 AND SWAP2 POP POP SWAP3 SWAP2 POP POP JUMP JUMPDEST PUSH0 PUSH2 0xC31 DUP4 DUP4 PUSH2 0xC0A JUMP JUMPDEST SWAP2 POP DUP3 PUSH1 0x2 MUL DUP3 OR SWAP1 POP SWAP3 SWAP2 POP POP JUMP JUMPDEST PUSH2 0xC4A DUP3 PUSH2 0x992 JUMP JUMPDEST PUSH8 0xFFFFFFFFFFFFFFFF DUP2 GT ISZERO PUSH2 0xC63 JUMPI PUSH2 0xC62 PUSH2 0x788 JUMP JUMPDEST JUMPDEST PUSH2 0xC6D DUP3 SLOAD PUSH2 0xA71 JUMP JUMPDEST PUSH2 0xC78 DUP3 DUP3 DUP6 PUSH2 0xBB8 JUMP JUMPDEST PUSH0 PUSH1 0x20 SWAP1 POP PUSH1 0x1F DUP4 GT PUSH1 0x1 DUP2 EQ PUSH2 0xCA9 JUMPI PUSH0 DUP5 ISZERO PUSH2 0xC97 JUMPI DUP3 DUP8 ADD MLOAD SWAP1 POP JUMPDEST PUSH2 0xCA1 DUP6 DUP3 PUSH2 0xC26 JUMP JUMPDEST DUP7 SSTORE POP PUSH2 0xD08 JUMP JUMPDEST PUSH1 0x1F NOT DUP5 AND PUSH2 0xCB7 DUP7 PUSH2 0xAA1 JUMP JUMPDEST PUSH0 JUMPDEST DUP3 DUP2 LT ISZERO PUSH2 0xCDE JUMPI DUP5 DUP10 ADD MLOAD DUP3 SSTORE PUSH1 0x1 DUP3 ADD SWAP2 POP PUSH1 0x20 DUP6 ADD SWAP5 POP PUSH1 0x20 DUP2 ADD SWAP1 POP PUSH2 0xCB9 JUMP JUMPDEST DUP7 DUP4 LT ISZERO PUSH2 0xCFB JUMPI DUP5 DUP10 ADD MLOAD PUSH2 0xCF7 PUSH1 0x1F DUP10 AND DUP3 PUSH2 0xC0A JUMP JUMPDEST DUP4 SSTORE POP JUMPDEST PUSH1 0x1 PUSH1 0x2 DUP9 MUL ADD DUP9 SSTORE POP POP POP JUMPDEST POP POP POP POP POP POP JUMP JUMPDEST PUSH32 0x4E487B7100000000000000000000000000000000000000000000000000000000 PUSH0 MSTORE PUSH1 0x11 PUSH1 0x4 MSTORE PUSH1 0x24 PUSH0 REVERT JUMPDEST PUSH0 PUSH2 0xD47 DUP3 PUSH2 0x8AC JUMP JUMPDEST SWAP2 POP PUSH2 0xD52 DUP4 PUSH2 0x8AC JUMP JUMPDEST SWAP3 POP DUP3 DUP3 SUB SWAP1 POP DUP2 DUP2 GT ISZERO PUSH2 0xD6A JUMPI PUSH2 0xD69 PUSH2 0xD10 JUMP JUMPDEST JUMPDEST SWAP3 SWAP2 POP POP JUMP JUMPDEST PUSH32 0x496E76616C696420426F6F6B2049440000000000000000000000000000000000 PUSH0 DUP3 ADD MSTORE POP JUMP JUMPDEST PUSH0 PUSH2 0xDA4 PUSH1 0xF DUP4 PUSH2 0x99C JUMP JUMPDEST SWAP2 POP PUSH2 0xDAF DUP3 PUSH2 0xD70 JUMP JUMPDEST PUSH1 0x20 DUP3 ADD SWAP1 POP SWAP2 SWAP1 POP JUMP JUMPDEST PUSH0 PUSH1 0x20 DUP3 ADD SWAP1 POP DUP2 DUP2 SUB PUSH0 DUP4 ADD MSTORE PUSH2 0xDD1 DUP2 PUSH2 0xD98 JUMP JUMPDEST SWAP1 POP SWAP2 SWAP1 POP JUMP JUMPDEST PUSH32 0x426F6F6B20616C726561647920626F72726F7765640000000000000000000000 PUSH0 DUP3 ADD MSTORE POP JUMP JUMPDEST PUSH0 PUSH2 0xE0C PUSH1 0x15 DUP4 PUSH2 0x99C JUMP JUMPDEST SWAP2 POP PUSH2 0xE17 DUP3 PUSH2 0xDD8 JUMP JUMPDEST PUSH1 0x20 DUP3 ADD SWAP1 POP SWAP2 SWAP1 POP JUMP JUMPDEST PUSH0 PUSH1 0x20 DUP3 ADD SWAP1 POP DUP2 DUP2 SUB PUSH0 DUP4 ADD MSTORE PUSH2 0xE39 DUP2 PUSH2 0xE00 JUMP JUMPDEST SWAP1 POP SWAP2 SWAP1 POP JUMP JUMPDEST PUSH32 0x4E487B7100000000000000000000000000000000000000000000000000000000 PUSH0 MSTORE PUSH1 0x32 PUSH1 0x4 MSTORE PUSH1 0x24 PUSH0 REVERT JUMPDEST PUSH32 0x426F6F6B20696E76656E746F727920697320656D707479000000000000000000 PUSH0 DUP3 ADD MSTORE POP JUMP JUMPDEST PUSH0 PUSH2 0xEA1 PUSH1 0x17 DUP4 PUSH2 0x99C JUMP JUMPDEST SWAP2 POP PUSH2 0xEAC DUP3 PUSH2 0xE6D JUMP JUMPDEST PUSH1 0x20 DUP3 ADD SWAP1 POP SWAP2 SWAP1 POP JUMP JUMPDEST PUSH0 PUSH1 0x20 DUP3 ADD SWAP1 POP DUP2 DUP2 SUB PUSH0 DUP4 ADD MSTORE PUSH2 0xECE DUP2 PUSH2 0xE95 JUMP JUMPDEST SWAP1 POP SWAP2 SWAP1 POP JUMP JUMPDEST PUSH0 PUSH2 0xEDF DUP3 PUSH2 0x8AC JUMP JUMPDEST SWAP2 POP PUSH0 DUP3 SUB PUSH2 0xEF1 JUMPI PUSH2 0xEF0 PUSH2 0xD10 JUMP JUMPDEST JUMPDEST PUSH1 0x1 DUP3 SUB SWAP1 POP SWAP2 SWAP1 POP JUMP JUMPDEST PUSH0 PUSH20 0xFFFFFFFFFFFFFFFFFFFFFFFFFFFFFFFFFFFFFFFF DUP3 AND SWAP1 POP SWAP2 SWAP1 POP JUMP JUMPDEST PUSH0 PUSH2 0xF25 DUP3 PUSH2 0xEFC JUMP JUMPDEST SWAP1 POP SWAP2 SWAP1 POP JUMP JUMPDEST PUSH2 0xF35 DUP2 PUSH2 0xF1B JUMP JUMPDEST DUP3 MSTORE POP POP JUMP JUMPDEST PUSH0 PUSH1 0x40 DUP3 ADD SWAP1 POP PUSH2 0xF4E PUSH0 DUP4 ADD DUP6 PUSH2 0xF2C JUMP JUMPDEST PUSH2 0xF5B PUSH1 0x20 DUP4 ADD DUP5 PUSH2 0x9F2 JUMP JUMPDEST SWAP4 SWAP3 POP POP POP JUMP JUMPDEST PUSH32 0x426F6F6B206E6F7420626F72726F776564000000000000000000000000000000 PUSH0 DUP3 ADD MSTORE POP JUMP JUMPDEST PUSH0 PUSH2 0xF96 PUSH1 0x11 DUP4 PUSH2 0x99C JUMP JUMPDEST SWAP2 POP PUSH2 0xFA1 DUP3 PUSH2 0xF62 JUMP JUMPDEST PUSH1 0x20 DUP3 ADD SWAP1 POP SWAP2 SWAP1 POP JUMP JUMPDEST PUSH0 PUSH1 0x20 DUP3 ADD SWAP1 POP DUP2 DUP2 SUB PUSH0 DUP4 ADD MSTORE PUSH2 0xFC3 DUP2 PUSH2 0xF8A JUMP JUMPDEST SWAP1 POP SWAP2 SWAP1 POP JUMP JUMPDEST PUSH0 PUSH2 0xFD4 DUP3 PUSH2 0x8AC JUMP JUMPDEST SWAP2 POP PUSH32 0xFFFFFFFFFFFFFFFFFFFFFFFFFFFFFFFFFFFFFFFFFFFFFFFFFFFFFFFFFFFFFFFF DUP3 SUB PUSH2 0x1006 JUMPI PUSH2 0x1005 PUSH2 0xD10 JUMP JUMPDEST JUMPDEST PUSH1 0x1 DUP3 ADD SWAP1 POP SWAP2 SWAP1 POP JUMP INVALID LOG2 PUSH5 0x6970667358 0x22 SLT KECCAK256 0xAB PUSH21 0xA9CBB9650D818BDFA909A6221B385759E7EADB7D89 BLOCKHASH SWAP1 CODESIZE DIV 0x2E PUSH15 0x37884264736F6C634300081E003300 "
				},
				"gasEstimates": {
					"creation": {
						"codeDepositCost": "833400",
						"executionCost": "25132",
						"totalCost": "858532"
					},
					"external": {
						"addBook(string,string,uint256)": "infinite",
						"books(uint256)": "infinite",
						"borrowBook(uint256)": "infinite",
						"returnBook(uint256)": "infinite"
					}
				},
				"methodIdentifiers": {
					"addBook(string,string,uint256)": "04266224",
					"books(uint256)": "68744046",
					"borrowBook(uint256)": "7e490a9e",
					"returnBook(uint256)": "ca5140c9"
				}
			},
			"storageLayout": {
				"storage": [
					{
						"astId": 3,
						"contract": "contracts/PHASE INHERITANCE/Library System.sol:LibraryBase",
						"label": "owner",
						"offset": 0,
						"slot": "0",
						"type": "t_address"
					},
					{
						"astId": 14,
						"contract": "contracts/PHASE INHERITANCE/Library System.sol:LibraryBase",
						"label": "books",
						"offset": 0,
						"slot": "1",
						"type": "t_array(t_struct(Book)10_storage)dyn_storage"
					},
					{
						"astId": 19,
						"contract": "contracts/PHASE INHERITANCE/Library System.sol:LibraryBase",
						"label": "bookId",
						"offset": 0,
						"slot": "2",
						"type": "t_mapping(t_uint256,t_struct(Book)10_storage)"
					},
					{
						"astId": 25,
						"contract": "contracts/PHASE INHERITANCE/Library System.sol:LibraryBase",
						"label": "hasBorrowed",
						"offset": 0,
						"slot": "3",
						"type": "t_mapping(t_address,t_mapping(t_uint256,t_bool))"
					}
				],
				"types": {
					"t_address": {
						"encoding": "inplace",
						"label": "address",
						"numberOfBytes": "20"
					},
					"t_array(t_struct(Book)10_storage)dyn_storage": {
						"base": "t_struct(Book)10_storage",
						"encoding": "dynamic_array",
						"label": "struct LibraryBase.Book[]",
						"numberOfBytes": "32"
					},
					"t_bool": {
						"encoding": "inplace",
						"label": "bool",
						"numberOfBytes": "1"
					},
					"t_mapping(t_address,t_mapping(t_uint256,t_bool))": {
						"encoding": "mapping",
						"key": "t_address",
						"label": "mapping(address => mapping(uint256 => bool))",
						"numberOfBytes": "32",
						"value": "t_mapping(t_uint256,t_bool)"
					},
					"t_mapping(t_uint256,t_bool)": {
						"encoding": "mapping",
						"key": "t_uint256",
						"label": "mapping(uint256 => bool)",
						"numberOfBytes": "32",
						"value": "t_bool"
					},
					"t_mapping(t_uint256,t_struct(Book)10_storage)": {
						"encoding": "mapping",
						"key": "t_uint256",
						"label": "mapping(uint256 => struct LibraryBase.Book)",
						"numberOfBytes": "32",
						"value": "t_struct(Book)10_storage"
					},
					"t_string_storage": {
						"encoding": "bytes",
						"label": "string",
						"numberOfBytes": "32"
					},
					"t_struct(Book)10_storage": {
						"encoding": "inplace",
						"label": "struct LibraryBase.Book",
						"members": [
							{
								"astId": 5,
								"contract": "contracts/PHASE INHERITANCE/Library System.sol:LibraryBase",
								"label": "title",
								"offset": 0,
								"slot": "0",
								"type": "t_string_storage"
							},
							{
								"astId": 7,
								"contract": "contracts/PHASE INHERITANCE/Library System.sol:LibraryBase",
								"label": "author",
								"offset": 0,
								"slot": "1",
								"type": "t_string_storage"
							},
							{
								"astId": 9,
								"contract": "contracts/PHASE INHERITANCE/Library System.sol:LibraryBase",
								"label": "copies",
								"offset": 0,
								"slot": "2",
								"type": "t_uint256"
							}
						],
						"numberOfBytes": "96"
					},
					"t_uint256": {
						"encoding": "inplace",
						"label": "uint256",
						"numberOfBytes": "32"
					}
				}
			},
			"userdoc": {
				"kind": "user",
				"methods": {},
				"version": 1
			}
		}
	}
}