{
	"contracts/PHASE INHERITANCE/Library System.sol": {
		"SchoolLibrary": {
			"abi": [
				{
					"anonymous": false,
					"inputs": [
						{
							"indexed": false,
							"internalType": "string",
							"name": "_title",
							"type": "string"
						},
						{
							"indexed": false,
							"internalType": "string",
							"name": "_author",
							"type": "string"
						},
						{
							"indexed": false,
							"internalType": "uint256",
							"name": "_copies",
							"type": "uint256"
						}
					],
					"name": "BookAdded",
					"type": "event"
				},
				{
					"anonymous": false,
					"inputs": [
						{
							"indexed": false,
							"internalType": "address",
							"name": "borrower",
							"type": "address"
						},
						{
							"indexed": false,
							"internalType": "uint256",
							"name": "_id",
							"type": "uint256"
						}
					],
					"name": "BookBorrowed",
					"type": "event"
				},
				{
					"anonymous": false,
					"inputs": [
						{
							"indexed": false,
							"internalType": "address",
							"name": "borrower",
							"type": "address"
						},
						{
							"indexed": false,
							"internalType": "uint256",
							"name": "_id",
							"type": "uint256"
						}
					],
					"name": "BookReturned",
					"type": "event"
				},
				{
					"anonymous": false,
					"inputs": [
						{
							"indexed": false,
							"internalType": "address",
							"name": "_student",
							"type": "address"
						},
						{
							"indexed": false,
							"internalType": "uint256",
							"name": "timestamp",
							"type": "uint256"
						}
					],
					"name": "StudentAdded",
					"type": "event"
				},
				{
					"inputs": [
						{
							"internalType": "string",
							"name": "_title",
							"type": "string"
						},
						{
							"internalType": "string",
							"name": "_author",
							"type": "string"
						},
						{
							"internalType": "uint256",
							"name": "_copies",
							"type": "uint256"
						}
					],
					"name": "addBook",
					"outputs": [],
					"stateMutability": "nonpayable",
					"type": "function"
				},
				{
					"inputs": [
						{
							"internalType": "address",
							"name": "_student",
							"type": "address"
						}
					],
					"name": "addStudents",
					"outputs": [],
					"stateMutability": "nonpayable",
					"type": "function"
				},
				{
					"inputs": [
						{
							"internalType": "uint256",
							"name": "",
							"type": "uint256"
						}
					],
					"name": "books",
					"outputs": [
						{
							"internalType": "string",
							"name": "title",
							"type": "string"
						},
						{
							"internalType": "string",
							"name": "author",
							"type": "string"
						},
						{
							"internalType": "uint256",
							"name": "copies",
							"type": "uint256"
						}
					],
					"stateMutability": "view",
					"type": "function"
				},
				{
					"inputs": [
						{
							"internalType": "uint256",
							"name": "_id",
							"type": "uint256"
						}
					],
					"name": "borrowBook",
					"outputs": [],
					"stateMutability": "nonpayable",
					"type": "function"
				},
				{
					"inputs": [
						{
							"internalType": "address",
							"name": "",
							"type": "address"
						}
					],
					"name": "isStudent",
					"outputs": [
						{
							"internalType": "bool",
							"name": "",
							"type": "bool"
						}
					],
					"stateMutability": "view",
					"type": "function"
				},
				{
					"inputs": [
						{
							"internalType": "uint256",
							"name": "_id",
							"type": "uint256"
						}
					],
					"name": "returnBook",
					"outputs": [],
					"stateMutability": "nonpayable",
					"type": "function"
				}
			],
			"devdoc": {
				"kind": "dev",
				"methods": {},
				"version": 1
			},
			"evm": {
				"assembly": "    /* \"contracts/PHASE INHERITANCE/Library System.sol\":1956:2471  contract SchoolLibrary is LibraryAnalytics{... */\n  mstore(0x40, 0x80)\n  callvalue\n  dup1\n  iszero\n  tag_1\n  jumpi\n  revert(0x00, 0x00)\ntag_1:\n  pop\n    /* \"contracts/PHASE INHERITANCE/Library System.sol\":524:534  msg.sender */\n  caller\n    /* \"contracts/PHASE INHERITANCE/Library System.sol\":516:521  owner */\n  0x00\n  0x00\n    /* \"contracts/PHASE INHERITANCE/Library System.sol\":516:534  owner = msg.sender */\n  0x0100\n  exp\n  dup2\n  sload\n  dup2\n  0xffffffffffffffffffffffffffffffffffffffff\n  mul\n  not\n  and\n  swap1\n  dup4\n  0xffffffffffffffffffffffffffffffffffffffff\n  and\n  mul\n  or\n  swap1\n  sstore\n  pop\n    /* \"contracts/PHASE INHERITANCE/Library System.sol\":1956:2471  contract SchoolLibrary is LibraryAnalytics{... */\n  dataSize(sub_0)\n  dup1\n  dataOffset(sub_0)\n  0x00\n  codecopy\n  0x00\n  return\nstop\n\nsub_0: assembly {\n        /* \"contracts/PHASE INHERITANCE/Library System.sol\":1956:2471  contract SchoolLibrary is LibraryAnalytics{... */\n      mstore(0x40, 0x80)\n      callvalue\n      dup1\n      iszero\n      tag_1\n      jumpi\n      revert(0x00, 0x00)\n    tag_1:\n      pop\n      jumpi(tag_2, lt(calldatasize, 0x04))\n      shr(0xe0, calldataload(0x00))\n      dup1\n      0x04266224\n      eq\n      tag_3\n      jumpi\n      dup1\n      0x68744046\n      eq\n      tag_4\n      jumpi\n      dup1\n      0x7e490a9e\n      eq\n      tag_5\n      jumpi\n      dup1\n      0x82f7d392\n      eq\n      tag_6\n      jumpi\n      dup1\n      0xca5140c9\n      eq\n      tag_7\n      jumpi\n      dup1\n      0xe596e10f\n      eq\n      tag_8\n      jumpi\n    tag_2:\n      revert(0x00, 0x00)\n        /* \"contracts/PHASE INHERITANCE/Library System.sol\":734:1037  function addBook(string memory _title, string memory _author, uint _copies) public onlyOwner{... */\n    tag_3:\n      tag_9\n      0x04\n      dup1\n      calldatasize\n      sub\n      dup2\n      add\n      swap1\n      tag_10\n      swap2\n      swap1\n      tag_11\n      jump\t// in\n    tag_10:\n      tag_12\n      jump\t// in\n    tag_9:\n      stop\n        /* \"contracts/PHASE INHERITANCE/Library System.sol\":191:210  Book[] public books */\n    tag_4:\n      tag_13\n      0x04\n      dup1\n      calldatasize\n      sub\n      dup2\n      add\n      swap1\n      tag_14\n      swap2\n      swap1\n      tag_15\n      jump\t// in\n    tag_14:\n      tag_16\n      jump\t// in\n    tag_13:\n      mload(0x40)\n      tag_17\n      swap4\n      swap3\n      swap2\n      swap1\n      tag_18\n      jump\t// in\n    tag_17:\n      mload(0x40)\n      dup1\n      swap2\n      sub\n      swap1\n      return\n        /* \"contracts/PHASE INHERITANCE/Library System.sol\":2327:2468  function borrowBook(uint _id) public override {... */\n    tag_5:\n      tag_19\n      0x04\n      dup1\n      calldatasize\n      sub\n      dup2\n      add\n      swap1\n      tag_20\n      swap2\n      swap1\n      tag_15\n      jump\t// in\n    tag_20:\n      tag_21\n      jump\t// in\n    tag_19:\n      stop\n        /* \"contracts/PHASE INHERITANCE/Library System.sol\":2004:2045  mapping(address => bool) public isStudent */\n    tag_6:\n      tag_22\n      0x04\n      dup1\n      calldatasize\n      sub\n      dup2\n      add\n      swap1\n      tag_23\n      swap2\n      swap1\n      tag_24\n      jump\t// in\n    tag_23:\n      tag_25\n      jump\t// in\n    tag_22:\n      mload(0x40)\n      tag_26\n      swap2\n      swap1\n      tag_27\n      jump\t// in\n    tag_26:\n      mload(0x40)\n      dup1\n      swap2\n      sub\n      swap1\n      return\n        /* \"contracts/PHASE INHERITANCE/Library System.sol\":1842:1952  function returnBook(uint _id) public override {... */\n    tag_7:\n      tag_28\n      0x04\n      dup1\n      calldatasize\n      sub\n      dup2\n      add\n      swap1\n      tag_29\n      swap2\n      swap1\n      tag_15\n      jump\t// in\n    tag_29:\n      tag_30\n      jump\t// in\n    tag_28:\n      stop\n        /* \"contracts/PHASE INHERITANCE/Library System.sol\":2109:2322  function addStudents(address _student) public onlyOwner {... */\n    tag_8:\n      tag_31\n      0x04\n      dup1\n      calldatasize\n      sub\n      dup2\n      add\n      swap1\n      tag_32\n      swap2\n      swap1\n      tag_24\n      jump\t// in\n    tag_32:\n      tag_33\n      jump\t// in\n    tag_31:\n      stop\n        /* \"contracts/PHASE INHERITANCE/Library System.sol\":734:1037  function addBook(string memory _title, string memory _author, uint _copies) public onlyOwner{... */\n    tag_12:\n        /* \"contracts/PHASE INHERITANCE/Library System.sol\":599:604  owner */\n      0x00\n      0x00\n      swap1\n      sload\n      swap1\n      0x0100\n      exp\n      swap1\n      div\n      0xffffffffffffffffffffffffffffffffffffffff\n      and\n        /* \"contracts/PHASE INHERITANCE/Library System.sol\":585:604  msg.sender == owner */\n      0xffffffffffffffffffffffffffffffffffffffff\n      and\n        /* \"contracts/PHASE INHERITANCE/Library System.sol\":585:595  msg.sender */\n      caller\n        /* \"contracts/PHASE INHERITANCE/Library System.sol\":585:604  msg.sender == owner */\n      0xffffffffffffffffffffffffffffffffffffffff\n      and\n      eq\n        /* \"contracts/PHASE INHERITANCE/Library System.sol\":577:605  require(msg.sender == owner) */\n      tag_35\n      jumpi\n      revert(0x00, 0x00)\n    tag_35:\n        /* \"contracts/PHASE INHERITANCE/Library System.sol\":836:852  Book memory book */\n      0x00\n        /* \"contracts/PHASE INHERITANCE/Library System.sol\":855:885  Book(_title, _author, _copies) */\n      mload(0x40)\n      dup1\n      0x60\n      add\n      0x40\n      mstore\n      dup1\n        /* \"contracts/PHASE INHERITANCE/Library System.sol\":860:866  _title */\n      dup6\n        /* \"contracts/PHASE INHERITANCE/Library System.sol\":855:885  Book(_title, _author, _copies) */\n      dup2\n      mstore\n      0x20\n      add\n        /* \"contracts/PHASE INHERITANCE/Library System.sol\":868:875  _author */\n      dup5\n        /* \"contracts/PHASE INHERITANCE/Library System.sol\":855:885  Book(_title, _author, _copies) */\n      dup2\n      mstore\n      0x20\n      add\n        /* \"contracts/PHASE INHERITANCE/Library System.sol\":877:884  _copies */\n      dup4\n        /* \"contracts/PHASE INHERITANCE/Library System.sol\":855:885  Book(_title, _author, _copies) */\n      dup2\n      mstore\n      pop\n        /* \"contracts/PHASE INHERITANCE/Library System.sol\":836:885  Book memory book = Book(_title, _author, _copies) */\n      swap1\n      pop\n        /* \"contracts/PHASE INHERITANCE/Library System.sol\":895:900  books */\n      0x01\n        /* \"contracts/PHASE INHERITANCE/Library System.sol\":906:910  book */\n      dup2\n        /* \"contracts/PHASE INHERITANCE/Library System.sol\":895:911  books.push(book) */\n      swap1\n      dup1\n      0x01\n      dup2\n      sload\n      add\n      dup1\n      dup3\n      sstore\n      dup1\n      swap2\n      pop\n      pop\n      0x01\n      swap1\n      sub\n      swap1\n      0x00\n      mstore\n      keccak256(0x00, 0x20)\n      swap1\n      0x03\n      mul\n      add\n      0x00\n      swap1\n      swap2\n      swap1\n      swap2\n      swap1\n      swap2\n      pop\n      0x00\n      dup3\n      add\n      mload\n      dup2\n      0x00\n      add\n      swap1\n      dup2\n      tag_38\n      swap2\n      swap1\n      tag_39\n      jump\t// in\n    tag_38:\n      pop\n      0x20\n      dup3\n      add\n      mload\n      dup2\n      0x01\n      add\n      swap1\n      dup2\n      tag_40\n      swap2\n      swap1\n      tag_39\n      jump\t// in\n    tag_40:\n      pop\n      0x40\n      dup3\n      add\n      mload\n      dup2\n      0x02\n      add\n      sstore\n      pop\n      pop\n        /* \"contracts/PHASE INHERITANCE/Library System.sol\":921:931  uint index */\n      0x00\n        /* \"contracts/PHASE INHERITANCE/Library System.sol\":949:950  1 */\n      0x01\n        /* \"contracts/PHASE INHERITANCE/Library System.sol\":934:939  books */\n      dup1\n        /* \"contracts/PHASE INHERITANCE/Library System.sol\":934:946  books.length */\n      dup1\n      sload\n      swap1\n      pop\n        /* \"contracts/PHASE INHERITANCE/Library System.sol\":934:950  books.length - 1 */\n      tag_41\n      swap2\n      swap1\n      tag_42\n      jump\t// in\n    tag_41:\n        /* \"contracts/PHASE INHERITANCE/Library System.sol\":921:950  uint index = books.length - 1 */\n      swap1\n      pop\n        /* \"contracts/PHASE INHERITANCE/Library System.sol\":976:980  book */\n      dup2\n        /* \"contracts/PHASE INHERITANCE/Library System.sol\":960:966  bookId */\n      0x02\n        /* \"contracts/PHASE INHERITANCE/Library System.sol\":960:973  bookId[index] */\n      0x00\n        /* \"contracts/PHASE INHERITANCE/Library System.sol\":967:972  index */\n      dup4\n        /* \"contracts/PHASE INHERITANCE/Library System.sol\":960:973  bookId[index] */\n      dup2\n      mstore\n      0x20\n      add\n      swap1\n      dup2\n      mstore\n      0x20\n      add\n      0x00\n      keccak256\n        /* \"contracts/PHASE INHERITANCE/Library System.sol\":960:980  bookId[index] = book */\n      0x00\n      dup3\n      add\n      mload\n      dup2\n      0x00\n      add\n      swap1\n      dup2\n      tag_43\n      swap2\n      swap1\n      tag_39\n      jump\t// in\n    tag_43:\n      pop\n      0x20\n      dup3\n      add\n      mload\n      dup2\n      0x01\n      add\n      swap1\n      dup2\n      tag_44\n      swap2\n      swap1\n      tag_39\n      jump\t// in\n    tag_44:\n      pop\n      0x40\n      dup3\n      add\n      mload\n      dup2\n      0x02\n      add\n      sstore\n      swap1\n      pop\n      pop\n        /* \"contracts/PHASE INHERITANCE/Library System.sol\":995:1030  BookAdded(_title, _author, _copies) */\n      0xe0cf28f41f6224a2dd20ffaeb131cfb4bf849b63c819a1a03eee314eac687cb6\n        /* \"contracts/PHASE INHERITANCE/Library System.sol\":1005:1011  _title */\n      dup6\n        /* \"contracts/PHASE INHERITANCE/Library System.sol\":1013:1020  _author */\n      dup6\n        /* \"contracts/PHASE INHERITANCE/Library System.sol\":1022:1029  _copies */\n      dup6\n        /* \"contracts/PHASE INHERITANCE/Library System.sol\":995:1030  BookAdded(_title, _author, _copies) */\n      mload(0x40)\n      tag_45\n      swap4\n      swap3\n      swap2\n      swap1\n      tag_18\n      jump\t// in\n    tag_45:\n      mload(0x40)\n      dup1\n      swap2\n      sub\n      swap1\n      log1\n        /* \"contracts/PHASE INHERITANCE/Library System.sol\":826:1037  {... */\n      pop\n      pop\n        /* \"contracts/PHASE INHERITANCE/Library System.sol\":734:1037  function addBook(string memory _title, string memory _author, uint _copies) public onlyOwner{... */\n      pop\n      pop\n      pop\n      jump\t// out\n        /* \"contracts/PHASE INHERITANCE/Library System.sol\":191:210  Book[] public books */\n    tag_16:\n      0x01\n      dup2\n      dup2\n      sload\n      dup2\n      lt\n      tag_46\n      jumpi\n      0x00\n      dup1\n      revert\n    tag_46:\n      swap1\n      0x00\n      mstore\n      keccak256(0x00, 0x20)\n      swap1\n      0x03\n      mul\n      add\n      0x00\n      swap2\n      pop\n      swap1\n      pop\n      dup1\n      0x00\n      add\n      dup1\n      sload\n      tag_48\n      swap1\n      tag_49\n      jump\t// in\n    tag_48:\n      dup1\n      0x1f\n      add\n      0x20\n      dup1\n      swap2\n      div\n      mul\n      0x20\n      add\n      mload(0x40)\n      swap1\n      dup2\n      add\n      0x40\n      mstore\n      dup1\n      swap3\n      swap2\n      swap1\n      dup2\n      dup2\n      mstore\n      0x20\n      add\n      dup3\n      dup1\n      sload\n      tag_50\n      swap1\n      tag_49\n      jump\t// in\n    tag_50:\n      dup1\n      iszero\n      tag_51\n      jumpi\n      dup1\n      0x1f\n      lt\n      tag_52\n      jumpi\n      0x0100\n      dup1\n      dup4\n      sload\n      div\n      mul\n      dup4\n      mstore\n      swap2\n      0x20\n      add\n      swap2\n      jump(tag_51)\n    tag_52:\n      dup3\n      add\n      swap2\n      swap1\n      0x00\n      mstore\n      keccak256(0x00, 0x20)\n      swap1\n    tag_53:\n      dup2\n      sload\n      dup2\n      mstore\n      swap1\n      0x01\n      add\n      swap1\n      0x20\n      add\n      dup1\n      dup4\n      gt\n      tag_53\n      jumpi\n      dup3\n      swap1\n      sub\n      0x1f\n      and\n      dup3\n      add\n      swap2\n    tag_51:\n      pop\n      pop\n      pop\n      pop\n      pop\n      swap1\n      dup1\n      0x01\n      add\n      dup1\n      sload\n      tag_54\n      swap1\n      tag_49\n      jump\t// in\n    tag_54:\n      dup1\n      0x1f\n      add\n      0x20\n      dup1\n      swap2\n      div\n      mul\n      0x20\n      add\n      mload(0x40)\n      swap1\n      dup2\n      add\n      0x40\n      mstore\n      dup1\n      swap3\n      swap2\n      swap1\n      dup2\n      dup2\n      mstore\n      0x20\n      add\n      dup3\n      dup1\n      sload\n      tag_55\n      swap1\n      tag_49\n      jump\t// in\n    tag_55:\n      dup1\n      iszero\n      tag_56\n      jumpi\n      dup1\n      0x1f\n      lt\n      tag_57\n      jumpi\n      0x0100\n      dup1\n      dup4\n      sload\n      div\n      mul\n      dup4\n      mstore\n      swap2\n      0x20\n      add\n      swap2\n      jump(tag_56)\n    tag_57:\n      dup3\n      add\n      swap2\n      swap1\n      0x00\n      mstore\n      keccak256(0x00, 0x20)\n      swap1\n    tag_58:\n      dup2\n      sload\n      dup2\n      mstore\n      swap1\n      0x01\n      add\n      swap1\n      0x20\n      add\n      dup1\n      dup4\n      gt\n      tag_58\n      jumpi\n      dup3\n      swap1\n      sub\n      0x1f\n      and\n      dup3\n      add\n      swap2\n    tag_56:\n      pop\n      pop\n      pop\n      pop\n      pop\n      swap1\n      dup1\n      0x02\n      add\n      sload\n      swap1\n      pop\n      dup4\n      jump\t// out\n        /* \"contracts/PHASE INHERITANCE/Library System.sol\":2327:2468  function borrowBook(uint _id) public override {... */\n    tag_21:\n        /* \"contracts/PHASE INHERITANCE/Library System.sol\":2391:2400  isStudent */\n      0x06\n        /* \"contracts/PHASE INHERITANCE/Library System.sol\":2391:2412  isStudent[msg.sender] */\n      0x00\n        /* \"contracts/PHASE INHERITANCE/Library System.sol\":2401:2411  msg.sender */\n      caller\n        /* \"contracts/PHASE INHERITANCE/Library System.sol\":2391:2412  isStudent[msg.sender] */\n      0xffffffffffffffffffffffffffffffffffffffff\n      and\n      0xffffffffffffffffffffffffffffffffffffffff\n      and\n      dup2\n      mstore\n      0x20\n      add\n      swap1\n      dup2\n      mstore\n      0x20\n      add\n      0x00\n      keccak256\n      0x00\n      swap1\n      sload\n      swap1\n      0x0100\n      exp\n      swap1\n      div\n      0xff\n      and\n        /* \"contracts/PHASE INHERITANCE/Library System.sol\":2383:2430  require(isStudent[msg.sender], \"Not a student\") */\n      tag_60\n      jumpi\n      mload(0x40)\n      0x08c379a000000000000000000000000000000000000000000000000000000000\n      dup2\n      mstore\n      0x04\n      add\n      tag_61\n      swap1\n      tag_62\n      jump\t// in\n    tag_61:\n      mload(0x40)\n      dup1\n      swap2\n      sub\n      swap1\n      revert\n    tag_60:\n        /* \"contracts/PHASE INHERITANCE/Library System.sol\":2440:2461  super.borrowBook(_id) */\n      tag_63\n        /* \"contracts/PHASE INHERITANCE/Library System.sol\":2457:2460  _id */\n      dup2\n        /* \"contracts/PHASE INHERITANCE/Library System.sol\":2440:2456  super.borrowBook */\n      tag_64\n        /* \"contracts/PHASE INHERITANCE/Library System.sol\":2440:2461  super.borrowBook(_id) */\n      jump\t// in\n    tag_63:\n        /* \"contracts/PHASE INHERITANCE/Library System.sol\":2327:2468  function borrowBook(uint _id) public override {... */\n      pop\n      jump\t// out\n        /* \"contracts/PHASE INHERITANCE/Library System.sol\":2004:2045  mapping(address => bool) public isStudent */\n    tag_25:\n      mstore(0x20, 0x06)\n      dup1\n      0x00\n      mstore\n      keccak256(0x00, 0x40)\n      0x00\n      swap2\n      pop\n      sload\n      swap1\n      0x0100\n      exp\n      swap1\n      div\n      0xff\n      and\n      dup2\n      jump\t// out\n        /* \"contracts/PHASE INHERITANCE/Library System.sol\":1842:1952  function returnBook(uint _id) public override {... */\n    tag_30:\n        /* \"contracts/PHASE INHERITANCE/Library System.sol\":1898:1911  totalReturned */\n      0x05\n      0x00\n        /* \"contracts/PHASE INHERITANCE/Library System.sol\":1898:1914  totalReturned ++ */\n      dup2\n      sload\n      dup1\n      swap3\n      swap2\n      swap1\n      tag_66\n      swap1\n      tag_67\n      jump\t// in\n    tag_66:\n      swap2\n      swap1\n      pop\n      sstore\n      pop\n        /* \"contracts/PHASE INHERITANCE/Library System.sol\":1924:1945  super.returnBook(_id) */\n      tag_68\n        /* \"contracts/PHASE INHERITANCE/Library System.sol\":1941:1944  _id */\n      dup2\n        /* \"contracts/PHASE INHERITANCE/Library System.sol\":1924:1940  super.returnBook */\n      tag_69\n        /* \"contracts/PHASE INHERITANCE/Library System.sol\":1924:1945  super.returnBook(_id) */\n      jump\t// in\n    tag_68:\n        /* \"contracts/PHASE INHERITANCE/Library System.sol\":1842:1952  function returnBook(uint _id) public override {... */\n      pop\n      jump\t// out\n        /* \"contracts/PHASE INHERITANCE/Library System.sol\":2109:2322  function addStudents(address _student) public onlyOwner {... */\n    tag_33:\n        /* \"contracts/PHASE INHERITANCE/Library System.sol\":599:604  owner */\n      0x00\n      0x00\n      swap1\n      sload\n      swap1\n      0x0100\n      exp\n      swap1\n      div\n      0xffffffffffffffffffffffffffffffffffffffff\n      and\n        /* \"contracts/PHASE INHERITANCE/Library System.sol\":585:604  msg.sender == owner */\n      0xffffffffffffffffffffffffffffffffffffffff\n      and\n        /* \"contracts/PHASE INHERITANCE/Library System.sol\":585:595  msg.sender */\n      caller\n        /* \"contracts/PHASE INHERITANCE/Library System.sol\":585:604  msg.sender == owner */\n      0xffffffffffffffffffffffffffffffffffffffff\n      and\n      eq\n        /* \"contracts/PHASE INHERITANCE/Library System.sol\":577:605  require(msg.sender == owner) */\n      tag_71\n      jumpi\n      revert(0x00, 0x00)\n    tag_71:\n        /* \"contracts/PHASE INHERITANCE/Library System.sol\":2184:2193  isStudent */\n      0x06\n        /* \"contracts/PHASE INHERITANCE/Library System.sol\":2184:2203  isStudent[_student] */\n      0x00\n        /* \"contracts/PHASE INHERITANCE/Library System.sol\":2194:2202  _student */\n      dup3\n        /* \"contracts/PHASE INHERITANCE/Library System.sol\":2184:2203  isStudent[_student] */\n      0xffffffffffffffffffffffffffffffffffffffff\n      and\n      0xffffffffffffffffffffffffffffffffffffffff\n      and\n      dup2\n      mstore\n      0x20\n      add\n      swap1\n      dup2\n      mstore\n      0x20\n      add\n      0x00\n      keccak256\n      0x00\n      swap1\n      sload\n      swap1\n      0x0100\n      exp\n      swap1\n      div\n      0xff\n      and\n        /* \"contracts/PHASE INHERITANCE/Library System.sol\":2183:2203  !isStudent[_student] */\n      iszero\n        /* \"contracts/PHASE INHERITANCE/Library System.sol\":2175:2225  require(!isStudent[_student], \"Already a student\") */\n      tag_73\n      jumpi\n      mload(0x40)\n      0x08c379a000000000000000000000000000000000000000000000000000000000\n      dup2\n      mstore\n      0x04\n      add\n      tag_74\n      swap1\n      tag_75\n      jump\t// in\n    tag_74:\n      mload(0x40)\n      dup1\n      swap2\n      sub\n      swap1\n      revert\n    tag_73:\n        /* \"contracts/PHASE INHERITANCE/Library System.sol\":2257:2261  true */\n      0x01\n        /* \"contracts/PHASE INHERITANCE/Library System.sol\":2235:2244  isStudent */\n      0x06\n        /* \"contracts/PHASE INHERITANCE/Library System.sol\":2235:2254  isStudent[_student] */\n      0x00\n        /* \"contracts/PHASE INHERITANCE/Library System.sol\":2245:2253  _student */\n      dup4\n        /* \"contracts/PHASE INHERITANCE/Library System.sol\":2235:2254  isStudent[_student] */\n      0xffffffffffffffffffffffffffffffffffffffff\n      and\n      0xffffffffffffffffffffffffffffffffffffffff\n      and\n      dup2\n      mstore\n      0x20\n      add\n      swap1\n      dup2\n      mstore\n      0x20\n      add\n      0x00\n      keccak256\n      0x00\n        /* \"contracts/PHASE INHERITANCE/Library System.sol\":2235:2261  isStudent[_student] = true */\n      0x0100\n      exp\n      dup2\n      sload\n      dup2\n      0xff\n      mul\n      not\n      and\n      swap1\n      dup4\n      iszero\n      iszero\n      mul\n      or\n      swap1\n      sstore\n      pop\n        /* \"contracts/PHASE INHERITANCE/Library System.sol\":2276:2315  StudentAdded(_student, block.timestamp) */\n      0xf07a65b60d49610ecb17a83ebd42d899043a25e314c2706e2a1029ee4ffead07\n        /* \"contracts/PHASE INHERITANCE/Library System.sol\":2289:2297  _student */\n      dup2\n        /* \"contracts/PHASE INHERITANCE/Library System.sol\":2299:2314  block.timestamp */\n      timestamp\n        /* \"contracts/PHASE INHERITANCE/Library System.sol\":2276:2315  StudentAdded(_student, block.timestamp) */\n      mload(0x40)\n      tag_76\n      swap3\n      swap2\n      swap1\n      tag_77\n      jump\t// in\n    tag_76:\n      mload(0x40)\n      dup1\n      swap2\n      sub\n      swap1\n      log1\n        /* \"contracts/PHASE INHERITANCE/Library System.sol\":2109:2322  function addStudents(address _student) public onlyOwner {... */\n      pop\n      jump\t// out\n        /* \"contracts/PHASE INHERITANCE/Library System.sol\":1719:1837  function borrowBook(uint _id) public virtual override {... */\n    tag_64:\n        /* \"contracts/PHASE INHERITANCE/Library System.sol\":1783:1796  totalBorrowed */\n      0x04\n      0x00\n        /* \"contracts/PHASE INHERITANCE/Library System.sol\":1783:1799  totalBorrowed ++ */\n      dup2\n      sload\n      dup1\n      swap3\n      swap2\n      swap1\n      tag_79\n      swap1\n      tag_67\n      jump\t// in\n    tag_79:\n      swap2\n      swap1\n      pop\n      sstore\n      pop\n        /* \"contracts/PHASE INHERITANCE/Library System.sol\":1809:1830  super.borrowBook(_id) */\n      tag_80\n        /* \"contracts/PHASE INHERITANCE/Library System.sol\":1826:1829  _id */\n      dup2\n        /* \"contracts/PHASE INHERITANCE/Library System.sol\":1809:1825  super.borrowBook */\n      tag_81\n        /* \"contracts/PHASE INHERITANCE/Library System.sol\":1809:1830  super.borrowBook(_id) */\n      jump\t// in\n    tag_80:\n        /* \"contracts/PHASE INHERITANCE/Library System.sol\":1719:1837  function borrowBook(uint _id) public virtual override {... */\n      pop\n      jump\t// out\n        /* \"contracts/PHASE INHERITANCE/Library System.sol\":1370:1621  function returnBook(uint _id) public validId(_id) virtual{... */\n    tag_69:\n        /* \"contracts/PHASE INHERITANCE/Library System.sol\":1415:1418  _id */\n      dup1\n        /* \"contracts/PHASE INHERITANCE/Library System.sol\":679:684  books */\n      0x01\n        /* \"contracts/PHASE INHERITANCE/Library System.sol\":679:691  books.length */\n      dup1\n      sload\n      swap1\n      pop\n        /* \"contracts/PHASE INHERITANCE/Library System.sol\":673:676  _id */\n      dup2\n        /* \"contracts/PHASE INHERITANCE/Library System.sol\":673:691  _id < books.length */\n      lt\n        /* \"contracts/PHASE INHERITANCE/Library System.sol\":665:711  require(_id < books.length, \"Invalid Book ID\") */\n      tag_83\n      jumpi\n      mload(0x40)\n      0x08c379a000000000000000000000000000000000000000000000000000000000\n      dup2\n      mstore\n      0x04\n      add\n      tag_84\n      swap1\n      tag_85\n      jump\t// in\n    tag_84:\n      mload(0x40)\n      dup1\n      swap2\n      sub\n      swap1\n      revert\n    tag_83:\n        /* \"contracts/PHASE INHERITANCE/Library System.sol\":1445:1456  hasBorrowed */\n      0x03\n        /* \"contracts/PHASE INHERITANCE/Library System.sol\":1445:1468  hasBorrowed[msg.sender] */\n      0x00\n        /* \"contracts/PHASE INHERITANCE/Library System.sol\":1457:1467  msg.sender */\n      caller\n        /* \"contracts/PHASE INHERITANCE/Library System.sol\":1445:1468  hasBorrowed[msg.sender] */\n      0xffffffffffffffffffffffffffffffffffffffff\n      and\n      0xffffffffffffffffffffffffffffffffffffffff\n      and\n      dup2\n      mstore\n      0x20\n      add\n      swap1\n      dup2\n      mstore\n      0x20\n      add\n      0x00\n      keccak256\n        /* \"contracts/PHASE INHERITANCE/Library System.sol\":1445:1473  hasBorrowed[msg.sender][_id] */\n      0x00\n        /* \"contracts/PHASE INHERITANCE/Library System.sol\":1469:1472  _id */\n      dup4\n        /* \"contracts/PHASE INHERITANCE/Library System.sol\":1445:1473  hasBorrowed[msg.sender][_id] */\n      dup2\n      mstore\n      0x20\n      add\n      swap1\n      dup2\n      mstore\n      0x20\n      add\n      0x00\n      keccak256\n      0x00\n      swap1\n      sload\n      swap1\n      0x0100\n      exp\n      swap1\n      div\n      0xff\n      and\n        /* \"contracts/PHASE INHERITANCE/Library System.sol\":1437:1495  require(hasBorrowed[msg.sender][_id], \"Book not borrowed\") */\n      tag_87\n      jumpi\n      mload(0x40)\n      0x08c379a000000000000000000000000000000000000000000000000000000000\n      dup2\n      mstore\n      0x04\n      add\n      tag_88\n      swap1\n      tag_89\n      jump\t// in\n    tag_88:\n      mload(0x40)\n      dup1\n      swap2\n      sub\n      swap1\n      revert\n    tag_87:\n        /* \"contracts/PHASE INHERITANCE/Library System.sol\":1505:1510  books */\n      0x01\n        /* \"contracts/PHASE INHERITANCE/Library System.sol\":1511:1514  _id */\n      dup3\n        /* \"contracts/PHASE INHERITANCE/Library System.sol\":1505:1515  books[_id] */\n      dup2\n      sload\n      dup2\n      lt\n      tag_90\n      jumpi\n      tag_91\n      tag_92\n      jump\t// in\n    tag_91:\n    tag_90:\n      swap1\n      0x00\n      mstore\n      keccak256(0x00, 0x20)\n      swap1\n      0x03\n      mul\n      add\n        /* \"contracts/PHASE INHERITANCE/Library System.sol\":1505:1522  books[_id].copies */\n      0x02\n      add\n      0x00\n        /* \"contracts/PHASE INHERITANCE/Library System.sol\":1505:1524  books[_id].copies++ */\n      dup2\n      sload\n      dup1\n      swap3\n      swap2\n      swap1\n      tag_94\n      swap1\n      tag_67\n      jump\t// in\n    tag_94:\n      swap2\n      swap1\n      pop\n      sstore\n      pop\n        /* \"contracts/PHASE INHERITANCE/Library System.sol\":1565:1570  false */\n      0x00\n        /* \"contracts/PHASE INHERITANCE/Library System.sol\":1534:1545  hasBorrowed */\n      0x03\n        /* \"contracts/PHASE INHERITANCE/Library System.sol\":1534:1557  hasBorrowed[msg.sender] */\n      0x00\n        /* \"contracts/PHASE INHERITANCE/Library System.sol\":1546:1556  msg.sender */\n      caller\n        /* \"contracts/PHASE INHERITANCE/Library System.sol\":1534:1557  hasBorrowed[msg.sender] */\n      0xffffffffffffffffffffffffffffffffffffffff\n      and\n      0xffffffffffffffffffffffffffffffffffffffff\n      and\n      dup2\n      mstore\n      0x20\n      add\n      swap1\n      dup2\n      mstore\n      0x20\n      add\n      0x00\n      keccak256\n        /* \"contracts/PHASE INHERITANCE/Library System.sol\":1534:1562  hasBorrowed[msg.sender][_id] */\n      0x00\n        /* \"contracts/PHASE INHERITANCE/Library System.sol\":1558:1561  _id */\n      dup5\n        /* \"contracts/PHASE INHERITANCE/Library System.sol\":1534:1562  hasBorrowed[msg.sender][_id] */\n      dup2\n      mstore\n      0x20\n      add\n      swap1\n      dup2\n      mstore\n      0x20\n      add\n      0x00\n      keccak256\n      0x00\n        /* \"contracts/PHASE INHERITANCE/Library System.sol\":1534:1570  hasBorrowed[msg.sender][_id] = false */\n      0x0100\n      exp\n      dup2\n      sload\n      dup2\n      0xff\n      mul\n      not\n      and\n      swap1\n      dup4\n      iszero\n      iszero\n      mul\n      or\n      swap1\n      sstore\n      pop\n        /* \"contracts/PHASE INHERITANCE/Library System.sol\":1585:1614  BookReturned(msg.sender, _id) */\n      0x095bd1d20746d0513acf2a85fa1f8ed7de89ff83285974a106ca40499e16c9c8\n        /* \"contracts/PHASE INHERITANCE/Library System.sol\":1598:1608  msg.sender */\n      caller\n        /* \"contracts/PHASE INHERITANCE/Library System.sol\":1610:1613  _id */\n      dup4\n        /* \"contracts/PHASE INHERITANCE/Library System.sol\":1585:1614  BookReturned(msg.sender, _id) */\n      mload(0x40)\n      tag_95\n      swap3\n      swap2\n      swap1\n      tag_77\n      jump\t// in\n    tag_95:\n      mload(0x40)\n      dup1\n      swap2\n      sub\n      swap1\n      log1\n        /* \"contracts/PHASE INHERITANCE/Library System.sol\":1370:1621  function returnBook(uint _id) public validId(_id) virtual{... */\n      pop\n      pop\n      jump\t// out\n        /* \"contracts/PHASE INHERITANCE/Library System.sol\":1042:1365  function borrowBook(uint _id) public validId(_id) virtual {... */\n    tag_81:\n        /* \"contracts/PHASE INHERITANCE/Library System.sol\":1087:1090  _id */\n      dup1\n        /* \"contracts/PHASE INHERITANCE/Library System.sol\":679:684  books */\n      0x01\n        /* \"contracts/PHASE INHERITANCE/Library System.sol\":679:691  books.length */\n      dup1\n      sload\n      swap1\n      pop\n        /* \"contracts/PHASE INHERITANCE/Library System.sol\":673:676  _id */\n      dup2\n        /* \"contracts/PHASE INHERITANCE/Library System.sol\":673:691  _id < books.length */\n      lt\n        /* \"contracts/PHASE INHERITANCE/Library System.sol\":665:711  require(_id < books.length, \"Invalid Book ID\") */\n      tag_97\n      jumpi\n      mload(0x40)\n      0x08c379a000000000000000000000000000000000000000000000000000000000\n      dup2\n      mstore\n      0x04\n      add\n      tag_98\n      swap1\n      tag_85\n      jump\t// in\n    tag_98:\n      mload(0x40)\n      dup1\n      swap2\n      sub\n      swap1\n      revert\n    tag_97:\n        /* \"contracts/PHASE INHERITANCE/Library System.sol\":1119:1130  hasBorrowed */\n      0x03\n        /* \"contracts/PHASE INHERITANCE/Library System.sol\":1119:1142  hasBorrowed[msg.sender] */\n      0x00\n        /* \"contracts/PHASE INHERITANCE/Library System.sol\":1131:1141  msg.sender */\n      caller\n        /* \"contracts/PHASE INHERITANCE/Library System.sol\":1119:1142  hasBorrowed[msg.sender] */\n      0xffffffffffffffffffffffffffffffffffffffff\n      and\n      0xffffffffffffffffffffffffffffffffffffffff\n      and\n      dup2\n      mstore\n      0x20\n      add\n      swap1\n      dup2\n      mstore\n      0x20\n      add\n      0x00\n      keccak256\n        /* \"contracts/PHASE INHERITANCE/Library System.sol\":1119:1147  hasBorrowed[msg.sender][_id] */\n      0x00\n        /* \"contracts/PHASE INHERITANCE/Library System.sol\":1143:1146  _id */\n      dup4\n        /* \"contracts/PHASE INHERITANCE/Library System.sol\":1119:1147  hasBorrowed[msg.sender][_id] */\n      dup2\n      mstore\n      0x20\n      add\n      swap1\n      dup2\n      mstore\n      0x20\n      add\n      0x00\n      keccak256\n      0x00\n      swap1\n      sload\n      swap1\n      0x0100\n      exp\n      swap1\n      div\n      0xff\n      and\n        /* \"contracts/PHASE INHERITANCE/Library System.sol\":1118:1147  !hasBorrowed[msg.sender][_id] */\n      iszero\n        /* \"contracts/PHASE INHERITANCE/Library System.sol\":1110:1173  require(!hasBorrowed[msg.sender][_id], \"Book already borrowed\") */\n      tag_100\n      jumpi\n      mload(0x40)\n      0x08c379a000000000000000000000000000000000000000000000000000000000\n      dup2\n      mstore\n      0x04\n      add\n      tag_101\n      swap1\n      tag_102\n      jump\t// in\n    tag_101:\n      mload(0x40)\n      dup1\n      swap2\n      sub\n      swap1\n      revert\n    tag_100:\n        /* \"contracts/PHASE INHERITANCE/Library System.sol\":1211:1212  0 */\n      0x00\n        /* \"contracts/PHASE INHERITANCE/Library System.sol\":1191:1196  books */\n      0x01\n        /* \"contracts/PHASE INHERITANCE/Library System.sol\":1197:1200  _id */\n      dup4\n        /* \"contracts/PHASE INHERITANCE/Library System.sol\":1191:1201  books[_id] */\n      dup2\n      sload\n      dup2\n      lt\n      tag_103\n      jumpi\n      tag_104\n      tag_92\n      jump\t// in\n    tag_104:\n    tag_103:\n      swap1\n      0x00\n      mstore\n      keccak256(0x00, 0x20)\n      swap1\n      0x03\n      mul\n      add\n        /* \"contracts/PHASE INHERITANCE/Library System.sol\":1191:1208  books[_id].copies */\n      0x02\n      add\n      sload\n        /* \"contracts/PHASE INHERITANCE/Library System.sol\":1191:1212  books[_id].copies > 0 */\n      gt\n        /* \"contracts/PHASE INHERITANCE/Library System.sol\":1183:1240  require(books[_id].copies > 0, \"Book inventory is empty\") */\n      tag_106\n      jumpi\n      mload(0x40)\n      0x08c379a000000000000000000000000000000000000000000000000000000000\n      dup2\n      mstore\n      0x04\n      add\n      tag_107\n      swap1\n      tag_108\n      jump\t// in\n    tag_107:\n      mload(0x40)\n      dup1\n      swap2\n      sub\n      swap1\n      revert\n    tag_106:\n        /* \"contracts/PHASE INHERITANCE/Library System.sol\":1250:1255  books */\n      0x01\n        /* \"contracts/PHASE INHERITANCE/Library System.sol\":1256:1259  _id */\n      dup3\n        /* \"contracts/PHASE INHERITANCE/Library System.sol\":1250:1260  books[_id] */\n      dup2\n      sload\n      dup2\n      lt\n      tag_109\n      jumpi\n      tag_110\n      tag_92\n      jump\t// in\n    tag_110:\n    tag_109:\n      swap1\n      0x00\n      mstore\n      keccak256(0x00, 0x20)\n      swap1\n      0x03\n      mul\n      add\n        /* \"contracts/PHASE INHERITANCE/Library System.sol\":1250:1267  books[_id].copies */\n      0x02\n      add\n      0x00\n        /* \"contracts/PHASE INHERITANCE/Library System.sol\":1250:1269  books[_id].copies-- */\n      dup2\n      sload\n      dup1\n      swap3\n      swap2\n      swap1\n      tag_112\n      swap1\n      tag_113\n      jump\t// in\n    tag_112:\n      swap2\n      swap1\n      pop\n      sstore\n      pop\n        /* \"contracts/PHASE INHERITANCE/Library System.sol\":1310:1314  true */\n      0x01\n        /* \"contracts/PHASE INHERITANCE/Library System.sol\":1279:1290  hasBorrowed */\n      0x03\n        /* \"contracts/PHASE INHERITANCE/Library System.sol\":1279:1302  hasBorrowed[msg.sender] */\n      0x00\n        /* \"contracts/PHASE INHERITANCE/Library System.sol\":1291:1301  msg.sender */\n      caller\n        /* \"contracts/PHASE INHERITANCE/Library System.sol\":1279:1302  hasBorrowed[msg.sender] */\n      0xffffffffffffffffffffffffffffffffffffffff\n      and\n      0xffffffffffffffffffffffffffffffffffffffff\n      and\n      dup2\n      mstore\n      0x20\n      add\n      swap1\n      dup2\n      mstore\n      0x20\n      add\n      0x00\n      keccak256\n        /* \"contracts/PHASE INHERITANCE/Library System.sol\":1279:1307  hasBorrowed[msg.sender][_id] */\n      0x00\n        /* \"contracts/PHASE INHERITANCE/Library System.sol\":1303:1306  _id */\n      dup5\n        /* \"contracts/PHASE INHERITANCE/Library System.sol\":1279:1307  hasBorrowed[msg.sender][_id] */\n      dup2\n      mstore\n      0x20\n      add\n      swap1\n      dup2\n      mstore\n      0x20\n      add\n      0x00\n      keccak256\n      0x00\n        /* \"contracts/PHASE INHERITANCE/Library System.sol\":1279:1314  hasBorrowed[msg.sender][_id] = true */\n      0x0100\n      exp\n      dup2\n      sload\n      dup2\n      0xff\n      mul\n      not\n      and\n      swap1\n      dup4\n      iszero\n      iszero\n      mul\n      or\n      swap1\n      sstore\n      pop\n        /* \"contracts/PHASE INHERITANCE/Library System.sol\":1329:1358  BookBorrowed(msg.sender, _id) */\n      0x84edab31b887a66b8af059a2b9c3c53e440d8b54f65102ae6acc11bf485db9e2\n        /* \"contracts/PHASE INHERITANCE/Library System.sol\":1342:1352  msg.sender */\n      caller\n        /* \"contracts/PHASE INHERITANCE/Library System.sol\":1354:1357  _id */\n      dup4\n        /* \"contracts/PHASE INHERITANCE/Library System.sol\":1329:1358  BookBorrowed(msg.sender, _id) */\n      mload(0x40)\n      tag_114\n      swap3\n      swap2\n      swap1\n      tag_77\n      jump\t// in\n    tag_114:\n      mload(0x40)\n      dup1\n      swap2\n      sub\n      swap1\n      log1\n        /* \"contracts/PHASE INHERITANCE/Library System.sol\":1042:1365  function borrowBook(uint _id) public validId(_id) virtual {... */\n      pop\n      pop\n      jump\t// out\n        /* \"#utility.yul\":7:82   */\n    tag_115:\n        /* \"#utility.yul\":40:46   */\n      0x00\n        /* \"#utility.yul\":73:75   */\n      0x40\n        /* \"#utility.yul\":67:76   */\n      mload\n        /* \"#utility.yul\":57:76   */\n      swap1\n      pop\n        /* \"#utility.yul\":7:82   */\n      swap1\n      jump\t// out\n        /* \"#utility.yul\":88:205   */\n    tag_116:\n        /* \"#utility.yul\":197:198   */\n      0x00\n        /* \"#utility.yul\":194:195   */\n      0x00\n        /* \"#utility.yul\":187:199   */\n      revert\n        /* \"#utility.yul\":211:328   */\n    tag_117:\n        /* \"#utility.yul\":320:321   */\n      0x00\n        /* \"#utility.yul\":317:318   */\n      0x00\n        /* \"#utility.yul\":310:322   */\n      revert\n        /* \"#utility.yul\":334:451   */\n    tag_118:\n        /* \"#utility.yul\":443:444   */\n      0x00\n        /* \"#utility.yul\":440:441   */\n      0x00\n        /* \"#utility.yul\":433:445   */\n      revert\n        /* \"#utility.yul\":457:574   */\n    tag_119:\n        /* \"#utility.yul\":566:567   */\n      0x00\n        /* \"#utility.yul\":563:564   */\n      0x00\n        /* \"#utility.yul\":556:568   */\n      revert\n        /* \"#utility.yul\":580:682   */\n    tag_120:\n        /* \"#utility.yul\":621:627   */\n      0x00\n        /* \"#utility.yul\":672:674   */\n      0x1f\n        /* \"#utility.yul\":668:675   */\n      not\n        /* \"#utility.yul\":663:665   */\n      0x1f\n        /* \"#utility.yul\":656:661   */\n      dup4\n        /* \"#utility.yul\":652:666   */\n      add\n        /* \"#utility.yul\":648:676   */\n      and\n        /* \"#utility.yul\":638:676   */\n      swap1\n      pop\n        /* \"#utility.yul\":580:682   */\n      swap2\n      swap1\n      pop\n      jump\t// out\n        /* \"#utility.yul\":688:868   */\n    tag_121:\n        /* \"#utility.yul\":736:813   */\n      0x4e487b7100000000000000000000000000000000000000000000000000000000\n        /* \"#utility.yul\":733:734   */\n      0x00\n        /* \"#utility.yul\":726:814   */\n      mstore\n        /* \"#utility.yul\":833:837   */\n      0x41\n        /* \"#utility.yul\":830:831   */\n      0x04\n        /* \"#utility.yul\":823:838   */\n      mstore\n        /* \"#utility.yul\":857:861   */\n      0x24\n        /* \"#utility.yul\":854:855   */\n      0x00\n        /* \"#utility.yul\":847:862   */\n      revert\n        /* \"#utility.yul\":874:1155   */\n    tag_122:\n        /* \"#utility.yul\":957:984   */\n      tag_181\n        /* \"#utility.yul\":979:983   */\n      dup3\n        /* \"#utility.yul\":957:984   */\n      tag_120\n      jump\t// in\n    tag_181:\n        /* \"#utility.yul\":949:955   */\n      dup2\n        /* \"#utility.yul\":945:985   */\n      add\n        /* \"#utility.yul\":1087:1093   */\n      dup2\n        /* \"#utility.yul\":1075:1085   */\n      dup2\n        /* \"#utility.yul\":1072:1094   */\n      lt\n        /* \"#utility.yul\":1051:1069   */\n      0xffffffffffffffff\n        /* \"#utility.yul\":1039:1049   */\n      dup3\n        /* \"#utility.yul\":1036:1070   */\n      gt\n        /* \"#utility.yul\":1033:1095   */\n      or\n        /* \"#utility.yul\":1030:1118   */\n      iszero\n      tag_182\n      jumpi\n        /* \"#utility.yul\":1098:1116   */\n      tag_183\n      tag_121\n      jump\t// in\n    tag_183:\n        /* \"#utility.yul\":1030:1118   */\n    tag_182:\n        /* \"#utility.yul\":1138:1148   */\n      dup1\n        /* \"#utility.yul\":1134:1136   */\n      0x40\n        /* \"#utility.yul\":1127:1149   */\n      mstore\n        /* \"#utility.yul\":917:1155   */\n      pop\n        /* \"#utility.yul\":874:1155   */\n      pop\n      pop\n      jump\t// out\n        /* \"#utility.yul\":1161:1290   */\n    tag_123:\n        /* \"#utility.yul\":1195:1201   */\n      0x00\n        /* \"#utility.yul\":1222:1242   */\n      tag_185\n      tag_115\n      jump\t// in\n    tag_185:\n        /* \"#utility.yul\":1212:1242   */\n      swap1\n      pop\n        /* \"#utility.yul\":1251:1284   */\n      tag_186\n        /* \"#utility.yul\":1279:1283   */\n      dup3\n        /* \"#utility.yul\":1271:1277   */\n      dup3\n        /* \"#utility.yul\":1251:1284   */\n      tag_122\n      jump\t// in\n    tag_186:\n        /* \"#utility.yul\":1161:1290   */\n      swap2\n      swap1\n      pop\n      jump\t// out\n        /* \"#utility.yul\":1296:1604   */\n    tag_124:\n        /* \"#utility.yul\":1358:1362   */\n      0x00\n        /* \"#utility.yul\":1448:1466   */\n      0xffffffffffffffff\n        /* \"#utility.yul\":1440:1446   */\n      dup3\n        /* \"#utility.yul\":1437:1467   */\n      gt\n        /* \"#utility.yul\":1434:1490   */\n      iszero\n      tag_188\n      jumpi\n        /* \"#utility.yul\":1470:1488   */\n      tag_189\n      tag_121\n      jump\t// in\n    tag_189:\n        /* \"#utility.yul\":1434:1490   */\n    tag_188:\n        /* \"#utility.yul\":1508:1537   */\n      tag_190\n        /* \"#utility.yul\":1530:1536   */\n      dup3\n        /* \"#utility.yul\":1508:1537   */\n      tag_120\n      jump\t// in\n    tag_190:\n        /* \"#utility.yul\":1500:1537   */\n      swap1\n      pop\n        /* \"#utility.yul\":1592:1596   */\n      0x20\n        /* \"#utility.yul\":1586:1590   */\n      dup2\n        /* \"#utility.yul\":1582:1597   */\n      add\n        /* \"#utility.yul\":1574:1597   */\n      swap1\n      pop\n        /* \"#utility.yul\":1296:1604   */\n      swap2\n      swap1\n      pop\n      jump\t// out\n        /* \"#utility.yul\":1610:1758   */\n    tag_125:\n        /* \"#utility.yul\":1708:1714   */\n      dup3\n        /* \"#utility.yul\":1703:1706   */\n      dup2\n        /* \"#utility.yul\":1698:1701   */\n      dup4\n        /* \"#utility.yul\":1685:1715   */\n      calldatacopy\n        /* \"#utility.yul\":1749:1750   */\n      0x00\n        /* \"#utility.yul\":1740:1746   */\n      dup4\n        /* \"#utility.yul\":1735:1738   */\n      dup4\n        /* \"#utility.yul\":1731:1747   */\n      add\n        /* \"#utility.yul\":1724:1751   */\n      mstore\n        /* \"#utility.yul\":1610:1758   */\n      pop\n      pop\n      pop\n      jump\t// out\n        /* \"#utility.yul\":1764:2189   */\n    tag_126:\n        /* \"#utility.yul\":1842:1847   */\n      0x00\n        /* \"#utility.yul\":1867:1933   */\n      tag_193\n        /* \"#utility.yul\":1883:1932   */\n      tag_194\n        /* \"#utility.yul\":1925:1931   */\n      dup5\n        /* \"#utility.yul\":1883:1932   */\n      tag_124\n      jump\t// in\n    tag_194:\n        /* \"#utility.yul\":1867:1933   */\n      tag_123\n      jump\t// in\n    tag_193:\n        /* \"#utility.yul\":1858:1933   */\n      swap1\n      pop\n        /* \"#utility.yul\":1956:1962   */\n      dup3\n        /* \"#utility.yul\":1949:1954   */\n      dup2\n        /* \"#utility.yul\":1942:1963   */\n      mstore\n        /* \"#utility.yul\":1994:1998   */\n      0x20\n        /* \"#utility.yul\":1987:1992   */\n      dup2\n        /* \"#utility.yul\":1983:1999   */\n      add\n        /* \"#utility.yul\":2032:2035   */\n      dup5\n        /* \"#utility.yul\":2023:2029   */\n      dup5\n        /* \"#utility.yul\":2018:2021   */\n      dup5\n        /* \"#utility.yul\":2014:2030   */\n      add\n        /* \"#utility.yul\":2011:2036   */\n      gt\n        /* \"#utility.yul\":2008:2120   */\n      iszero\n      tag_195\n      jumpi\n        /* \"#utility.yul\":2039:2118   */\n      tag_196\n      tag_119\n      jump\t// in\n    tag_196:\n        /* \"#utility.yul\":2008:2120   */\n    tag_195:\n        /* \"#utility.yul\":2129:2183   */\n      tag_197\n        /* \"#utility.yul\":2176:2182   */\n      dup5\n        /* \"#utility.yul\":2171:2174   */\n      dup3\n        /* \"#utility.yul\":2166:2169   */\n      dup6\n        /* \"#utility.yul\":2129:2183   */\n      tag_125\n      jump\t// in\n    tag_197:\n        /* \"#utility.yul\":1848:2189   */\n      pop\n        /* \"#utility.yul\":1764:2189   */\n      swap4\n      swap3\n      pop\n      pop\n      pop\n      jump\t// out\n        /* \"#utility.yul\":2209:2549   */\n    tag_127:\n        /* \"#utility.yul\":2265:2270   */\n      0x00\n        /* \"#utility.yul\":2314:2317   */\n      dup3\n        /* \"#utility.yul\":2307:2311   */\n      0x1f\n        /* \"#utility.yul\":2299:2305   */\n      dup4\n        /* \"#utility.yul\":2295:2312   */\n      add\n        /* \"#utility.yul\":2291:2318   */\n      slt\n        /* \"#utility.yul\":2281:2403   */\n      tag_199\n      jumpi\n        /* \"#utility.yul\":2322:2401   */\n      tag_200\n      tag_118\n      jump\t// in\n    tag_200:\n        /* \"#utility.yul\":2281:2403   */\n    tag_199:\n        /* \"#utility.yul\":2439:2445   */\n      dup2\n        /* \"#utility.yul\":2426:2446   */\n      calldataload\n        /* \"#utility.yul\":2464:2543   */\n      tag_201\n        /* \"#utility.yul\":2539:2542   */\n      dup5\n        /* \"#utility.yul\":2531:2537   */\n      dup3\n        /* \"#utility.yul\":2524:2528   */\n      0x20\n        /* \"#utility.yul\":2516:2522   */\n      dup7\n        /* \"#utility.yul\":2512:2529   */\n      add\n        /* \"#utility.yul\":2464:2543   */\n      tag_126\n      jump\t// in\n    tag_201:\n        /* \"#utility.yul\":2455:2543   */\n      swap2\n      pop\n        /* \"#utility.yul\":2271:2549   */\n      pop\n        /* \"#utility.yul\":2209:2549   */\n      swap3\n      swap2\n      pop\n      pop\n      jump\t// out\n        /* \"#utility.yul\":2555:2632   */\n    tag_128:\n        /* \"#utility.yul\":2592:2599   */\n      0x00\n        /* \"#utility.yul\":2621:2626   */\n      dup2\n        /* \"#utility.yul\":2610:2626   */\n      swap1\n      pop\n        /* \"#utility.yul\":2555:2632   */\n      swap2\n      swap1\n      pop\n      jump\t// out\n        /* \"#utility.yul\":2638:2760   */\n    tag_129:\n        /* \"#utility.yul\":2711:2735   */\n      tag_204\n        /* \"#utility.yul\":2729:2734   */\n      dup2\n        /* \"#utility.yul\":2711:2735   */\n      tag_128\n      jump\t// in\n    tag_204:\n        /* \"#utility.yul\":2704:2709   */\n      dup2\n        /* \"#utility.yul\":2701:2736   */\n      eq\n        /* \"#utility.yul\":2691:2754   */\n      tag_205\n      jumpi\n        /* \"#utility.yul\":2750:2751   */\n      0x00\n        /* \"#utility.yul\":2747:2748   */\n      0x00\n        /* \"#utility.yul\":2740:2752   */\n      revert\n        /* \"#utility.yul\":2691:2754   */\n    tag_205:\n        /* \"#utility.yul\":2638:2760   */\n      pop\n      jump\t// out\n        /* \"#utility.yul\":2766:2905   */\n    tag_130:\n        /* \"#utility.yul\":2812:2817   */\n      0x00\n        /* \"#utility.yul\":2850:2856   */\n      dup2\n        /* \"#utility.yul\":2837:2857   */\n      calldataload\n        /* \"#utility.yul\":2828:2857   */\n      swap1\n      pop\n        /* \"#utility.yul\":2866:2899   */\n      tag_207\n        /* \"#utility.yul\":2893:2898   */\n      dup2\n        /* \"#utility.yul\":2866:2899   */\n      tag_129\n      jump\t// in\n    tag_207:\n        /* \"#utility.yul\":2766:2905   */\n      swap3\n      swap2\n      pop\n      pop\n      jump\t// out\n        /* \"#utility.yul\":2911:3890   */\n    tag_11:\n        /* \"#utility.yul\":3008:3014   */\n      0x00\n        /* \"#utility.yul\":3016:3022   */\n      0x00\n        /* \"#utility.yul\":3024:3030   */\n      0x00\n        /* \"#utility.yul\":3073:3075   */\n      0x60\n        /* \"#utility.yul\":3061:3070   */\n      dup5\n        /* \"#utility.yul\":3052:3059   */\n      dup7\n        /* \"#utility.yul\":3048:3071   */\n      sub\n        /* \"#utility.yul\":3044:3076   */\n      slt\n        /* \"#utility.yul\":3041:3160   */\n      iszero\n      tag_209\n      jumpi\n        /* \"#utility.yul\":3079:3158   */\n      tag_210\n      tag_116\n      jump\t// in\n    tag_210:\n        /* \"#utility.yul\":3041:3160   */\n    tag_209:\n        /* \"#utility.yul\":3227:3228   */\n      0x00\n        /* \"#utility.yul\":3216:3225   */\n      dup5\n        /* \"#utility.yul\":3212:3229   */\n      add\n        /* \"#utility.yul\":3199:3230   */\n      calldataload\n        /* \"#utility.yul\":3257:3275   */\n      0xffffffffffffffff\n        /* \"#utility.yul\":3249:3255   */\n      dup2\n        /* \"#utility.yul\":3246:3276   */\n      gt\n        /* \"#utility.yul\":3243:3360   */\n      iszero\n      tag_211\n      jumpi\n        /* \"#utility.yul\":3279:3358   */\n      tag_212\n      tag_117\n      jump\t// in\n    tag_212:\n        /* \"#utility.yul\":3243:3360   */\n    tag_211:\n        /* \"#utility.yul\":3384:3447   */\n      tag_213\n        /* \"#utility.yul\":3439:3446   */\n      dup7\n        /* \"#utility.yul\":3430:3436   */\n      dup3\n        /* \"#utility.yul\":3419:3428   */\n      dup8\n        /* \"#utility.yul\":3415:3437   */\n      add\n        /* \"#utility.yul\":3384:3447   */\n      tag_127\n      jump\t// in\n    tag_213:\n        /* \"#utility.yul\":3374:3447   */\n      swap4\n      pop\n        /* \"#utility.yul\":3170:3457   */\n      pop\n        /* \"#utility.yul\":3524:3526   */\n      0x20\n        /* \"#utility.yul\":3513:3522   */\n      dup5\n        /* \"#utility.yul\":3509:3527   */\n      add\n        /* \"#utility.yul\":3496:3528   */\n      calldataload\n        /* \"#utility.yul\":3555:3573   */\n      0xffffffffffffffff\n        /* \"#utility.yul\":3547:3553   */\n      dup2\n        /* \"#utility.yul\":3544:3574   */\n      gt\n        /* \"#utility.yul\":3541:3658   */\n      iszero\n      tag_214\n      jumpi\n        /* \"#utility.yul\":3577:3656   */\n      tag_215\n      tag_117\n      jump\t// in\n    tag_215:\n        /* \"#utility.yul\":3541:3658   */\n    tag_214:\n        /* \"#utility.yul\":3682:3745   */\n      tag_216\n        /* \"#utility.yul\":3737:3744   */\n      dup7\n        /* \"#utility.yul\":3728:3734   */\n      dup3\n        /* \"#utility.yul\":3717:3726   */\n      dup8\n        /* \"#utility.yul\":3713:3735   */\n      add\n        /* \"#utility.yul\":3682:3745   */\n      tag_127\n      jump\t// in\n    tag_216:\n        /* \"#utility.yul\":3672:3745   */\n      swap3\n      pop\n        /* \"#utility.yul\":3467:3755   */\n      pop\n        /* \"#utility.yul\":3794:3796   */\n      0x40\n        /* \"#utility.yul\":3820:3873   */\n      tag_217\n        /* \"#utility.yul\":3865:3872   */\n      dup7\n        /* \"#utility.yul\":3856:3862   */\n      dup3\n        /* \"#utility.yul\":3845:3854   */\n      dup8\n        /* \"#utility.yul\":3841:3863   */\n      add\n        /* \"#utility.yul\":3820:3873   */\n      tag_130\n      jump\t// in\n    tag_217:\n        /* \"#utility.yul\":3810:3873   */\n      swap2\n      pop\n        /* \"#utility.yul\":3765:3883   */\n      pop\n        /* \"#utility.yul\":2911:3890   */\n      swap3\n      pop\n      swap3\n      pop\n      swap3\n      jump\t// out\n        /* \"#utility.yul\":3896:4225   */\n    tag_15:\n        /* \"#utility.yul\":3955:3961   */\n      0x00\n        /* \"#utility.yul\":4004:4006   */\n      0x20\n        /* \"#utility.yul\":3992:4001   */\n      dup3\n        /* \"#utility.yul\":3983:3990   */\n      dup5\n        /* \"#utility.yul\":3979:4002   */\n      sub\n        /* \"#utility.yul\":3975:4007   */\n      slt\n        /* \"#utility.yul\":3972:4091   */\n      iszero\n      tag_219\n      jumpi\n        /* \"#utility.yul\":4010:4089   */\n      tag_220\n      tag_116\n      jump\t// in\n    tag_220:\n        /* \"#utility.yul\":3972:4091   */\n    tag_219:\n        /* \"#utility.yul\":4130:4131   */\n      0x00\n        /* \"#utility.yul\":4155:4208   */\n      tag_221\n        /* \"#utility.yul\":4200:4207   */\n      dup5\n        /* \"#utility.yul\":4191:4197   */\n      dup3\n        /* \"#utility.yul\":4180:4189   */\n      dup6\n        /* \"#utility.yul\":4176:4198   */\n      add\n        /* \"#utility.yul\":4155:4208   */\n      tag_130\n      jump\t// in\n    tag_221:\n        /* \"#utility.yul\":4145:4208   */\n      swap2\n      pop\n        /* \"#utility.yul\":4101:4218   */\n      pop\n        /* \"#utility.yul\":3896:4225   */\n      swap3\n      swap2\n      pop\n      pop\n      jump\t// out\n        /* \"#utility.yul\":4231:4330   */\n    tag_131:\n        /* \"#utility.yul\":4283:4289   */\n      0x00\n        /* \"#utility.yul\":4317:4322   */\n      dup2\n        /* \"#utility.yul\":4311:4323   */\n      mload\n        /* \"#utility.yul\":4301:4323   */\n      swap1\n      pop\n        /* \"#utility.yul\":4231:4330   */\n      swap2\n      swap1\n      pop\n      jump\t// out\n        /* \"#utility.yul\":4336:4505   */\n    tag_132:\n        /* \"#utility.yul\":4420:4431   */\n      0x00\n        /* \"#utility.yul\":4454:4460   */\n      dup3\n        /* \"#utility.yul\":4449:4452   */\n      dup3\n        /* \"#utility.yul\":4442:4461   */\n      mstore\n        /* \"#utility.yul\":4494:4498   */\n      0x20\n        /* \"#utility.yul\":4489:4492   */\n      dup3\n        /* \"#utility.yul\":4485:4499   */\n      add\n        /* \"#utility.yul\":4470:4499   */\n      swap1\n      pop\n        /* \"#utility.yul\":4336:4505   */\n      swap3\n      swap2\n      pop\n      pop\n      jump\t// out\n        /* \"#utility.yul\":4511:4650   */\n    tag_133:\n        /* \"#utility.yul\":4600:4606   */\n      dup3\n        /* \"#utility.yul\":4595:4598   */\n      dup2\n        /* \"#utility.yul\":4590:4593   */\n      dup4\n        /* \"#utility.yul\":4584:4607   */\n      mcopy\n        /* \"#utility.yul\":4641:4642   */\n      0x00\n        /* \"#utility.yul\":4632:4638   */\n      dup4\n        /* \"#utility.yul\":4627:4630   */\n      dup4\n        /* \"#utility.yul\":4623:4639   */\n      add\n        /* \"#utility.yul\":4616:4643   */\n      mstore\n        /* \"#utility.yul\":4511:4650   */\n      pop\n      pop\n      pop\n      jump\t// out\n        /* \"#utility.yul\":4656:5033   */\n    tag_134:\n        /* \"#utility.yul\":4744:4747   */\n      0x00\n        /* \"#utility.yul\":4772:4811   */\n      tag_226\n        /* \"#utility.yul\":4805:4810   */\n      dup3\n        /* \"#utility.yul\":4772:4811   */\n      tag_131\n      jump\t// in\n    tag_226:\n        /* \"#utility.yul\":4827:4898   */\n      tag_227\n        /* \"#utility.yul\":4891:4897   */\n      dup2\n        /* \"#utility.yul\":4886:4889   */\n      dup6\n        /* \"#utility.yul\":4827:4898   */\n      tag_132\n      jump\t// in\n    tag_227:\n        /* \"#utility.yul\":4820:4898   */\n      swap4\n      pop\n        /* \"#utility.yul\":4907:4972   */\n      tag_228\n        /* \"#utility.yul\":4965:4971   */\n      dup2\n        /* \"#utility.yul\":4960:4963   */\n      dup6\n        /* \"#utility.yul\":4953:4957   */\n      0x20\n        /* \"#utility.yul\":4946:4951   */\n      dup7\n        /* \"#utility.yul\":4942:4958   */\n      add\n        /* \"#utility.yul\":4907:4972   */\n      tag_133\n      jump\t// in\n    tag_228:\n        /* \"#utility.yul\":4997:5026   */\n      tag_229\n        /* \"#utility.yul\":5019:5025   */\n      dup2\n        /* \"#utility.yul\":4997:5026   */\n      tag_120\n      jump\t// in\n    tag_229:\n        /* \"#utility.yul\":4992:4995   */\n      dup5\n        /* \"#utility.yul\":4988:5027   */\n      add\n        /* \"#utility.yul\":4981:5027   */\n      swap2\n      pop\n        /* \"#utility.yul\":4748:5033   */\n      pop\n        /* \"#utility.yul\":4656:5033   */\n      swap3\n      swap2\n      pop\n      pop\n      jump\t// out\n        /* \"#utility.yul\":5039:5157   */\n    tag_135:\n        /* \"#utility.yul\":5126:5150   */\n      tag_231\n        /* \"#utility.yul\":5144:5149   */\n      dup2\n        /* \"#utility.yul\":5126:5150   */\n      tag_128\n      jump\t// in\n    tag_231:\n        /* \"#utility.yul\":5121:5124   */\n      dup3\n        /* \"#utility.yul\":5114:5151   */\n      mstore\n        /* \"#utility.yul\":5039:5157   */\n      pop\n      pop\n      jump\t// out\n        /* \"#utility.yul\":5163:5787   */\n    tag_18:\n        /* \"#utility.yul\":5352:5356   */\n      0x00\n        /* \"#utility.yul\":5390:5392   */\n      0x60\n        /* \"#utility.yul\":5379:5388   */\n      dup3\n        /* \"#utility.yul\":5375:5393   */\n      add\n        /* \"#utility.yul\":5367:5393   */\n      swap1\n      pop\n        /* \"#utility.yul\":5439:5448   */\n      dup2\n        /* \"#utility.yul\":5433:5437   */\n      dup2\n        /* \"#utility.yul\":5429:5449   */\n      sub\n        /* \"#utility.yul\":5425:5426   */\n      0x00\n        /* \"#utility.yul\":5414:5423   */\n      dup4\n        /* \"#utility.yul\":5410:5427   */\n      add\n        /* \"#utility.yul\":5403:5450   */\n      mstore\n        /* \"#utility.yul\":5467:5545   */\n      tag_233\n        /* \"#utility.yul\":5540:5544   */\n      dup2\n        /* \"#utility.yul\":5531:5537   */\n      dup7\n        /* \"#utility.yul\":5467:5545   */\n      tag_134\n      jump\t// in\n    tag_233:\n        /* \"#utility.yul\":5459:5545   */\n      swap1\n      pop\n        /* \"#utility.yul\":5592:5601   */\n      dup2\n        /* \"#utility.yul\":5586:5590   */\n      dup2\n        /* \"#utility.yul\":5582:5602   */\n      sub\n        /* \"#utility.yul\":5577:5579   */\n      0x20\n        /* \"#utility.yul\":5566:5575   */\n      dup4\n        /* \"#utility.yul\":5562:5580   */\n      add\n        /* \"#utility.yul\":5555:5603   */\n      mstore\n        /* \"#utility.yul\":5620:5698   */\n      tag_234\n        /* \"#utility.yul\":5693:5697   */\n      dup2\n        /* \"#utility.yul\":5684:5690   */\n      dup6\n        /* \"#utility.yul\":5620:5698   */\n      tag_134\n      jump\t// in\n    tag_234:\n        /* \"#utility.yul\":5612:5698   */\n      swap1\n      pop\n        /* \"#utility.yul\":5708:5780   */\n      tag_235\n        /* \"#utility.yul\":5776:5778   */\n      0x40\n        /* \"#utility.yul\":5765:5774   */\n      dup4\n        /* \"#utility.yul\":5761:5779   */\n      add\n        /* \"#utility.yul\":5752:5758   */\n      dup5\n        /* \"#utility.yul\":5708:5780   */\n      tag_135\n      jump\t// in\n    tag_235:\n        /* \"#utility.yul\":5163:5787   */\n      swap5\n      swap4\n      pop\n      pop\n      pop\n      pop\n      jump\t// out\n        /* \"#utility.yul\":5793:5919   */\n    tag_136:\n        /* \"#utility.yul\":5830:5837   */\n      0x00\n        /* \"#utility.yul\":5870:5912   */\n      0xffffffffffffffffffffffffffffffffffffffff\n        /* \"#utility.yul\":5863:5868   */\n      dup3\n        /* \"#utility.yul\":5859:5913   */\n      and\n        /* \"#utility.yul\":5848:5913   */\n      swap1\n      pop\n        /* \"#utility.yul\":5793:5919   */\n      swap2\n      swap1\n      pop\n      jump\t// out\n        /* \"#utility.yul\":5925:6021   */\n    tag_137:\n        /* \"#utility.yul\":5962:5969   */\n      0x00\n        /* \"#utility.yul\":5991:6015   */\n      tag_238\n        /* \"#utility.yul\":6009:6014   */\n      dup3\n        /* \"#utility.yul\":5991:6015   */\n      tag_136\n      jump\t// in\n    tag_238:\n        /* \"#utility.yul\":5980:6015   */\n      swap1\n      pop\n        /* \"#utility.yul\":5925:6021   */\n      swap2\n      swap1\n      pop\n      jump\t// out\n        /* \"#utility.yul\":6027:6149   */\n    tag_138:\n        /* \"#utility.yul\":6100:6124   */\n      tag_240\n        /* \"#utility.yul\":6118:6123   */\n      dup2\n        /* \"#utility.yul\":6100:6124   */\n      tag_137\n      jump\t// in\n    tag_240:\n        /* \"#utility.yul\":6093:6098   */\n      dup2\n        /* \"#utility.yul\":6090:6125   */\n      eq\n        /* \"#utility.yul\":6080:6143   */\n      tag_241\n      jumpi\n        /* \"#utility.yul\":6139:6140   */\n      0x00\n        /* \"#utility.yul\":6136:6137   */\n      0x00\n        /* \"#utility.yul\":6129:6141   */\n      revert\n        /* \"#utility.yul\":6080:6143   */\n    tag_241:\n        /* \"#utility.yul\":6027:6149   */\n      pop\n      jump\t// out\n        /* \"#utility.yul\":6155:6294   */\n    tag_139:\n        /* \"#utility.yul\":6201:6206   */\n      0x00\n        /* \"#utility.yul\":6239:6245   */\n      dup2\n        /* \"#utility.yul\":6226:6246   */\n      calldataload\n        /* \"#utility.yul\":6217:6246   */\n      swap1\n      pop\n        /* \"#utility.yul\":6255:6288   */\n      tag_243\n        /* \"#utility.yul\":6282:6287   */\n      dup2\n        /* \"#utility.yul\":6255:6288   */\n      tag_138\n      jump\t// in\n    tag_243:\n        /* \"#utility.yul\":6155:6294   */\n      swap3\n      swap2\n      pop\n      pop\n      jump\t// out\n        /* \"#utility.yul\":6300:6629   */\n    tag_24:\n        /* \"#utility.yul\":6359:6365   */\n      0x00\n        /* \"#utility.yul\":6408:6410   */\n      0x20\n        /* \"#utility.yul\":6396:6405   */\n      dup3\n        /* \"#utility.yul\":6387:6394   */\n      dup5\n        /* \"#utility.yul\":6383:6406   */\n      sub\n        /* \"#utility.yul\":6379:6411   */\n      slt\n        /* \"#utility.yul\":6376:6495   */\n      iszero\n      tag_245\n      jumpi\n        /* \"#utility.yul\":6414:6493   */\n      tag_246\n      tag_116\n      jump\t// in\n    tag_246:\n        /* \"#utility.yul\":6376:6495   */\n    tag_245:\n        /* \"#utility.yul\":6534:6535   */\n      0x00\n        /* \"#utility.yul\":6559:6612   */\n      tag_247\n        /* \"#utility.yul\":6604:6611   */\n      dup5\n        /* \"#utility.yul\":6595:6601   */\n      dup3\n        /* \"#utility.yul\":6584:6593   */\n      dup6\n        /* \"#utility.yul\":6580:6602   */\n      add\n        /* \"#utility.yul\":6559:6612   */\n      tag_139\n      jump\t// in\n    tag_247:\n        /* \"#utility.yul\":6549:6612   */\n      swap2\n      pop\n        /* \"#utility.yul\":6505:6622   */\n      pop\n        /* \"#utility.yul\":6300:6629   */\n      swap3\n      swap2\n      pop\n      pop\n      jump\t// out\n        /* \"#utility.yul\":6635:6725   */\n    tag_140:\n        /* \"#utility.yul\":6669:6676   */\n      0x00\n        /* \"#utility.yul\":6712:6717   */\n      dup2\n        /* \"#utility.yul\":6705:6718   */\n      iszero\n        /* \"#utility.yul\":6698:6719   */\n      iszero\n        /* \"#utility.yul\":6687:6719   */\n      swap1\n      pop\n        /* \"#utility.yul\":6635:6725   */\n      swap2\n      swap1\n      pop\n      jump\t// out\n        /* \"#utility.yul\":6731:6840   */\n    tag_141:\n        /* \"#utility.yul\":6812:6833   */\n      tag_250\n        /* \"#utility.yul\":6827:6832   */\n      dup2\n        /* \"#utility.yul\":6812:6833   */\n      tag_140\n      jump\t// in\n    tag_250:\n        /* \"#utility.yul\":6807:6810   */\n      dup3\n        /* \"#utility.yul\":6800:6834   */\n      mstore\n        /* \"#utility.yul\":6731:6840   */\n      pop\n      pop\n      jump\t// out\n        /* \"#utility.yul\":6846:7056   */\n    tag_27:\n        /* \"#utility.yul\":6933:6937   */\n      0x00\n        /* \"#utility.yul\":6971:6973   */\n      0x20\n        /* \"#utility.yul\":6960:6969   */\n      dup3\n        /* \"#utility.yul\":6956:6974   */\n      add\n        /* \"#utility.yul\":6948:6974   */\n      swap1\n      pop\n        /* \"#utility.yul\":6984:7049   */\n      tag_252\n        /* \"#utility.yul\":7046:7047   */\n      0x00\n        /* \"#utility.yul\":7035:7044   */\n      dup4\n        /* \"#utility.yul\":7031:7048   */\n      add\n        /* \"#utility.yul\":7022:7028   */\n      dup5\n        /* \"#utility.yul\":6984:7049   */\n      tag_141\n      jump\t// in\n    tag_252:\n        /* \"#utility.yul\":6846:7056   */\n      swap3\n      swap2\n      pop\n      pop\n      jump\t// out\n        /* \"#utility.yul\":7062:7242   */\n    tag_142:\n        /* \"#utility.yul\":7110:7187   */\n      0x4e487b7100000000000000000000000000000000000000000000000000000000\n        /* \"#utility.yul\":7107:7108   */\n      0x00\n        /* \"#utility.yul\":7100:7188   */\n      mstore\n        /* \"#utility.yul\":7207:7211   */\n      0x22\n        /* \"#utility.yul\":7204:7205   */\n      0x04\n        /* \"#utility.yul\":7197:7212   */\n      mstore\n        /* \"#utility.yul\":7231:7235   */\n      0x24\n        /* \"#utility.yul\":7228:7229   */\n      0x00\n        /* \"#utility.yul\":7221:7236   */\n      revert\n        /* \"#utility.yul\":7248:7568   */\n    tag_49:\n        /* \"#utility.yul\":7292:7298   */\n      0x00\n        /* \"#utility.yul\":7329:7330   */\n      0x02\n        /* \"#utility.yul\":7323:7327   */\n      dup3\n        /* \"#utility.yul\":7319:7331   */\n      div\n        /* \"#utility.yul\":7309:7331   */\n      swap1\n      pop\n        /* \"#utility.yul\":7376:7377   */\n      0x01\n        /* \"#utility.yul\":7370:7374   */\n      dup3\n        /* \"#utility.yul\":7366:7378   */\n      and\n        /* \"#utility.yul\":7397:7415   */\n      dup1\n        /* \"#utility.yul\":7387:7468   */\n      tag_255\n      jumpi\n        /* \"#utility.yul\":7453:7457   */\n      0x7f\n        /* \"#utility.yul\":7445:7451   */\n      dup3\n        /* \"#utility.yul\":7441:7458   */\n      and\n        /* \"#utility.yul\":7431:7458   */\n      swap2\n      pop\n        /* \"#utility.yul\":7387:7468   */\n    tag_255:\n        /* \"#utility.yul\":7515:7517   */\n      0x20\n        /* \"#utility.yul\":7507:7513   */\n      dup3\n        /* \"#utility.yul\":7504:7518   */\n      lt\n        /* \"#utility.yul\":7484:7502   */\n      dup2\n        /* \"#utility.yul\":7481:7519   */\n      sub\n        /* \"#utility.yul\":7478:7562   */\n      tag_256\n      jumpi\n        /* \"#utility.yul\":7534:7552   */\n      tag_257\n      tag_142\n      jump\t// in\n    tag_257:\n        /* \"#utility.yul\":7478:7562   */\n    tag_256:\n        /* \"#utility.yul\":7299:7568   */\n      pop\n        /* \"#utility.yul\":7248:7568   */\n      swap2\n      swap1\n      pop\n      jump\t// out\n        /* \"#utility.yul\":7574:7715   */\n    tag_143:\n        /* \"#utility.yul\":7623:7627   */\n      0x00\n        /* \"#utility.yul\":7646:7649   */\n      dup2\n        /* \"#utility.yul\":7638:7649   */\n      swap1\n      pop\n        /* \"#utility.yul\":7669:7672   */\n      dup2\n        /* \"#utility.yul\":7666:7667   */\n      0x00\n        /* \"#utility.yul\":7659:7673   */\n      mstore\n        /* \"#utility.yul\":7703:7707   */\n      0x20\n        /* \"#utility.yul\":7700:7701   */\n      0x00\n        /* \"#utility.yul\":7690:7708   */\n      keccak256\n        /* \"#utility.yul\":7682:7708   */\n      swap1\n      pop\n        /* \"#utility.yul\":7574:7715   */\n      swap2\n      swap1\n      pop\n      jump\t// out\n        /* \"#utility.yul\":7721:7814   */\n    tag_144:\n        /* \"#utility.yul\":7758:7764   */\n      0x00\n        /* \"#utility.yul\":7805:7807   */\n      0x20\n        /* \"#utility.yul\":7800:7802   */\n      0x1f\n        /* \"#utility.yul\":7793:7798   */\n      dup4\n        /* \"#utility.yul\":7789:7803   */\n      add\n        /* \"#utility.yul\":7785:7808   */\n      div\n        /* \"#utility.yul\":7775:7808   */\n      swap1\n      pop\n        /* \"#utility.yul\":7721:7814   */\n      swap2\n      swap1\n      pop\n      jump\t// out\n        /* \"#utility.yul\":7820:7927   */\n    tag_145:\n        /* \"#utility.yul\":7864:7872   */\n      0x00\n        /* \"#utility.yul\":7914:7919   */\n      dup3\n        /* \"#utility.yul\":7908:7912   */\n      dup3\n        /* \"#utility.yul\":7904:7920   */\n      shl\n        /* \"#utility.yul\":7883:7920   */\n      swap1\n      pop\n        /* \"#utility.yul\":7820:7927   */\n      swap3\n      swap2\n      pop\n      pop\n      jump\t// out\n        /* \"#utility.yul\":7933:8326   */\n    tag_146:\n        /* \"#utility.yul\":8002:8008   */\n      0x00\n        /* \"#utility.yul\":8052:8053   */\n      0x08\n        /* \"#utility.yul\":8040:8050   */\n      dup4\n        /* \"#utility.yul\":8036:8054   */\n      mul\n        /* \"#utility.yul\":8075:8172   */\n      tag_262\n        /* \"#utility.yul\":8105:8171   */\n      0xffffffffffffffffffffffffffffffffffffffffffffffffffffffffffffffff\n        /* \"#utility.yul\":8094:8103   */\n      dup3\n        /* \"#utility.yul\":8075:8172   */\n      tag_145\n      jump\t// in\n    tag_262:\n        /* \"#utility.yul\":8193:8232   */\n      tag_263\n        /* \"#utility.yul\":8223:8231   */\n      dup7\n        /* \"#utility.yul\":8212:8221   */\n      dup4\n        /* \"#utility.yul\":8193:8232   */\n      tag_145\n      jump\t// in\n    tag_263:\n        /* \"#utility.yul\":8181:8232   */\n      swap6\n      pop\n        /* \"#utility.yul\":8265:8269   */\n      dup1\n        /* \"#utility.yul\":8261:8270   */\n      not\n        /* \"#utility.yul\":8254:8259   */\n      dup5\n        /* \"#utility.yul\":8250:8271   */\n      and\n        /* \"#utility.yul\":8241:8271   */\n      swap4\n      pop\n        /* \"#utility.yul\":8314:8318   */\n      dup1\n        /* \"#utility.yul\":8304:8312   */\n      dup7\n        /* \"#utility.yul\":8300:8319   */\n      and\n        /* \"#utility.yul\":8293:8298   */\n      dup5\n        /* \"#utility.yul\":8290:8320   */\n      or\n        /* \"#utility.yul\":8280:8320   */\n      swap3\n      pop\n        /* \"#utility.yul\":8009:8326   */\n      pop\n      pop\n        /* \"#utility.yul\":7933:8326   */\n      swap4\n      swap3\n      pop\n      pop\n      pop\n      jump\t// out\n        /* \"#utility.yul\":8332:8392   */\n    tag_147:\n        /* \"#utility.yul\":8360:8363   */\n      0x00\n        /* \"#utility.yul\":8381:8386   */\n      dup2\n        /* \"#utility.yul\":8374:8386   */\n      swap1\n      pop\n        /* \"#utility.yul\":8332:8392   */\n      swap2\n      swap1\n      pop\n      jump\t// out\n        /* \"#utility.yul\":8398:8540   */\n    tag_148:\n        /* \"#utility.yul\":8448:8457   */\n      0x00\n        /* \"#utility.yul\":8481:8534   */\n      tag_266\n        /* \"#utility.yul\":8499:8533   */\n      tag_267\n        /* \"#utility.yul\":8508:8532   */\n      tag_268\n        /* \"#utility.yul\":8526:8531   */\n      dup5\n        /* \"#utility.yul\":8508:8532   */\n      tag_128\n      jump\t// in\n    tag_268:\n        /* \"#utility.yul\":8499:8533   */\n      tag_147\n      jump\t// in\n    tag_267:\n        /* \"#utility.yul\":8481:8534   */\n      tag_128\n      jump\t// in\n    tag_266:\n        /* \"#utility.yul\":8468:8534   */\n      swap1\n      pop\n        /* \"#utility.yul\":8398:8540   */\n      swap2\n      swap1\n      pop\n      jump\t// out\n        /* \"#utility.yul\":8546:8621   */\n    tag_149:\n        /* \"#utility.yul\":8589:8592   */\n      0x00\n        /* \"#utility.yul\":8610:8615   */\n      dup2\n        /* \"#utility.yul\":8603:8615   */\n      swap1\n      pop\n        /* \"#utility.yul\":8546:8621   */\n      swap2\n      swap1\n      pop\n      jump\t// out\n        /* \"#utility.yul\":8627:8896   */\n    tag_150:\n        /* \"#utility.yul\":8737:8776   */\n      tag_271\n        /* \"#utility.yul\":8768:8775   */\n      dup4\n        /* \"#utility.yul\":8737:8776   */\n      tag_148\n      jump\t// in\n    tag_271:\n        /* \"#utility.yul\":8798:8889   */\n      tag_272\n        /* \"#utility.yul\":8847:8888   */\n      tag_273\n        /* \"#utility.yul\":8871:8887   */\n      dup3\n        /* \"#utility.yul\":8847:8888   */\n      tag_149\n      jump\t// in\n    tag_273:\n        /* \"#utility.yul\":8839:8845   */\n      dup5\n        /* \"#utility.yul\":8832:8836   */\n      dup5\n        /* \"#utility.yul\":8826:8837   */\n      sload\n        /* \"#utility.yul\":8798:8889   */\n      tag_146\n      jump\t// in\n    tag_272:\n        /* \"#utility.yul\":8792:8796   */\n      dup3\n        /* \"#utility.yul\":8785:8890   */\n      sstore\n        /* \"#utility.yul\":8703:8896   */\n      pop\n        /* \"#utility.yul\":8627:8896   */\n      pop\n      pop\n      pop\n      jump\t// out\n        /* \"#utility.yul\":8902:8975   */\n    tag_151:\n        /* \"#utility.yul\":8947:8950   */\n      0x00\n        /* \"#utility.yul\":8968:8969   */\n      0x00\n        /* \"#utility.yul\":8961:8969   */\n      swap1\n      pop\n        /* \"#utility.yul\":8902:8975   */\n      swap1\n      jump\t// out\n        /* \"#utility.yul\":8981:9170   */\n    tag_152:\n        /* \"#utility.yul\":9058:9090   */\n      tag_276\n      tag_151\n      jump\t// in\n    tag_276:\n        /* \"#utility.yul\":9099:9164   */\n      tag_277\n        /* \"#utility.yul\":9157:9163   */\n      dup2\n        /* \"#utility.yul\":9149:9155   */\n      dup5\n        /* \"#utility.yul\":9143:9147   */\n      dup5\n        /* \"#utility.yul\":9099:9164   */\n      tag_150\n      jump\t// in\n    tag_277:\n        /* \"#utility.yul\":9034:9170   */\n      pop\n        /* \"#utility.yul\":8981:9170   */\n      pop\n      pop\n      jump\t// out\n        /* \"#utility.yul\":9176:9362   */\n    tag_153:\n        /* \"#utility.yul\":9236:9356   */\n    tag_279:\n        /* \"#utility.yul\":9253:9256   */\n      dup2\n        /* \"#utility.yul\":9246:9251   */\n      dup2\n        /* \"#utility.yul\":9243:9257   */\n      lt\n        /* \"#utility.yul\":9236:9356   */\n      iszero\n      tag_281\n      jumpi\n        /* \"#utility.yul\":9307:9346   */\n      tag_282\n        /* \"#utility.yul\":9344:9345   */\n      0x00\n        /* \"#utility.yul\":9337:9342   */\n      dup3\n        /* \"#utility.yul\":9307:9346   */\n      tag_152\n      jump\t// in\n    tag_282:\n        /* \"#utility.yul\":9280:9281   */\n      0x01\n        /* \"#utility.yul\":9273:9278   */\n      dup2\n        /* \"#utility.yul\":9269:9282   */\n      add\n        /* \"#utility.yul\":9260:9282   */\n      swap1\n      pop\n        /* \"#utility.yul\":9236:9356   */\n      jump(tag_279)\n    tag_281:\n        /* \"#utility.yul\":9176:9362   */\n      pop\n      pop\n      jump\t// out\n        /* \"#utility.yul\":9368:9911   */\n    tag_154:\n        /* \"#utility.yul\":9469:9471   */\n      0x1f\n        /* \"#utility.yul\":9464:9467   */\n      dup3\n        /* \"#utility.yul\":9461:9472   */\n      gt\n        /* \"#utility.yul\":9458:9904   */\n      iszero\n      tag_284\n      jumpi\n        /* \"#utility.yul\":9503:9541   */\n      tag_285\n        /* \"#utility.yul\":9535:9540   */\n      dup2\n        /* \"#utility.yul\":9503:9541   */\n      tag_143\n      jump\t// in\n    tag_285:\n        /* \"#utility.yul\":9587:9616   */\n      tag_286\n        /* \"#utility.yul\":9605:9615   */\n      dup5\n        /* \"#utility.yul\":9587:9616   */\n      tag_144\n      jump\t// in\n    tag_286:\n        /* \"#utility.yul\":9577:9585   */\n      dup2\n        /* \"#utility.yul\":9573:9617   */\n      add\n        /* \"#utility.yul\":9770:9772   */\n      0x20\n        /* \"#utility.yul\":9758:9768   */\n      dup6\n        /* \"#utility.yul\":9755:9773   */\n      lt\n        /* \"#utility.yul\":9752:9801   */\n      iszero\n      tag_287\n      jumpi\n        /* \"#utility.yul\":9791:9799   */\n      dup2\n        /* \"#utility.yul\":9776:9799   */\n      swap1\n      pop\n        /* \"#utility.yul\":9752:9801   */\n    tag_287:\n        /* \"#utility.yul\":9814:9894   */\n      tag_288\n        /* \"#utility.yul\":9870:9892   */\n      tag_289\n        /* \"#utility.yul\":9888:9891   */\n      dup6\n        /* \"#utility.yul\":9870:9892   */\n      tag_144\n      jump\t// in\n    tag_289:\n        /* \"#utility.yul\":9860:9868   */\n      dup4\n        /* \"#utility.yul\":9856:9893   */\n      add\n        /* \"#utility.yul\":9843:9854   */\n      dup3\n        /* \"#utility.yul\":9814:9894   */\n      tag_153\n      jump\t// in\n    tag_288:\n        /* \"#utility.yul\":9473:9904   */\n      pop\n      pop\n        /* \"#utility.yul\":9458:9904   */\n    tag_284:\n        /* \"#utility.yul\":9368:9911   */\n      pop\n      pop\n      pop\n      jump\t// out\n        /* \"#utility.yul\":9917:10034   */\n    tag_155:\n        /* \"#utility.yul\":9971:9979   */\n      0x00\n        /* \"#utility.yul\":10021:10026   */\n      dup3\n        /* \"#utility.yul\":10015:10019   */\n      dup3\n        /* \"#utility.yul\":10011:10027   */\n      shr\n        /* \"#utility.yul\":9990:10027   */\n      swap1\n      pop\n        /* \"#utility.yul\":9917:10034   */\n      swap3\n      swap2\n      pop\n      pop\n      jump\t// out\n        /* \"#utility.yul\":10040:10209   */\n    tag_156:\n        /* \"#utility.yul\":10084:10090   */\n      0x00\n        /* \"#utility.yul\":10117:10168   */\n      tag_292\n        /* \"#utility.yul\":10165:10166   */\n      0x00\n        /* \"#utility.yul\":10161:10167   */\n      not\n        /* \"#utility.yul\":10153:10158   */\n      dup5\n        /* \"#utility.yul\":10150:10151   */\n      0x08\n        /* \"#utility.yul\":10146:10159   */\n      mul\n        /* \"#utility.yul\":10117:10168   */\n      tag_155\n      jump\t// in\n    tag_292:\n        /* \"#utility.yul\":10113:10169   */\n      not\n        /* \"#utility.yul\":10198:10202   */\n      dup1\n        /* \"#utility.yul\":10192:10196   */\n      dup4\n        /* \"#utility.yul\":10188:10203   */\n      and\n        /* \"#utility.yul\":10178:10203   */\n      swap2\n      pop\n        /* \"#utility.yul\":10091:10209   */\n      pop\n        /* \"#utility.yul\":10040:10209   */\n      swap3\n      swap2\n      pop\n      pop\n      jump\t// out\n        /* \"#utility.yul\":10214:10509   */\n    tag_157:\n        /* \"#utility.yul\":10290:10294   */\n      0x00\n        /* \"#utility.yul\":10436:10465   */\n      tag_294\n        /* \"#utility.yul\":10461:10464   */\n      dup4\n        /* \"#utility.yul\":10455:10459   */\n      dup4\n        /* \"#utility.yul\":10436:10465   */\n      tag_156\n      jump\t// in\n    tag_294:\n        /* \"#utility.yul\":10428:10465   */\n      swap2\n      pop\n        /* \"#utility.yul\":10498:10501   */\n      dup3\n        /* \"#utility.yul\":10495:10496   */\n      0x02\n        /* \"#utility.yul\":10491:10502   */\n      mul\n        /* \"#utility.yul\":10485:10489   */\n      dup3\n        /* \"#utility.yul\":10482:10503   */\n      or\n        /* \"#utility.yul\":10474:10503   */\n      swap1\n      pop\n        /* \"#utility.yul\":10214:10509   */\n      swap3\n      swap2\n      pop\n      pop\n      jump\t// out\n        /* \"#utility.yul\":10514:11909   */\n    tag_39:\n        /* \"#utility.yul\":10631:10668   */\n      tag_296\n        /* \"#utility.yul\":10664:10667   */\n      dup3\n        /* \"#utility.yul\":10631:10668   */\n      tag_131\n      jump\t// in\n    tag_296:\n        /* \"#utility.yul\":10733:10751   */\n      0xffffffffffffffff\n        /* \"#utility.yul\":10725:10731   */\n      dup2\n        /* \"#utility.yul\":10722:10752   */\n      gt\n        /* \"#utility.yul\":10719:10775   */\n      iszero\n      tag_297\n      jumpi\n        /* \"#utility.yul\":10755:10773   */\n      tag_298\n      tag_121\n      jump\t// in\n    tag_298:\n        /* \"#utility.yul\":10719:10775   */\n    tag_297:\n        /* \"#utility.yul\":10799:10837   */\n      tag_299\n        /* \"#utility.yul\":10831:10835   */\n      dup3\n        /* \"#utility.yul\":10825:10836   */\n      sload\n        /* \"#utility.yul\":10799:10837   */\n      tag_49\n      jump\t// in\n    tag_299:\n        /* \"#utility.yul\":10884:10951   */\n      tag_300\n        /* \"#utility.yul\":10944:10950   */\n      dup3\n        /* \"#utility.yul\":10936:10942   */\n      dup3\n        /* \"#utility.yul\":10930:10934   */\n      dup6\n        /* \"#utility.yul\":10884:10951   */\n      tag_154\n      jump\t// in\n    tag_300:\n        /* \"#utility.yul\":10978:10979   */\n      0x00\n        /* \"#utility.yul\":11002:11006   */\n      0x20\n        /* \"#utility.yul\":10989:11006   */\n      swap1\n      pop\n        /* \"#utility.yul\":11034:11036   */\n      0x1f\n        /* \"#utility.yul\":11026:11032   */\n      dup4\n        /* \"#utility.yul\":11023:11037   */\n      gt\n        /* \"#utility.yul\":11051:11052   */\n      0x01\n        /* \"#utility.yul\":11046:11664   */\n      dup2\n      eq\n      tag_302\n      jumpi\n        /* \"#utility.yul\":11708:11709   */\n      0x00\n        /* \"#utility.yul\":11725:11731   */\n      dup5\n        /* \"#utility.yul\":11722:11799   */\n      iszero\n      tag_303\n      jumpi\n        /* \"#utility.yul\":11774:11783   */\n      dup3\n        /* \"#utility.yul\":11769:11772   */\n      dup8\n        /* \"#utility.yul\":11765:11784   */\n      add\n        /* \"#utility.yul\":11759:11785   */\n      mload\n        /* \"#utility.yul\":11750:11785   */\n      swap1\n      pop\n        /* \"#utility.yul\":11722:11799   */\n    tag_303:\n        /* \"#utility.yul\":11825:11892   */\n      tag_304\n        /* \"#utility.yul\":11885:11891   */\n      dup6\n        /* \"#utility.yul\":11878:11883   */\n      dup3\n        /* \"#utility.yul\":11825:11892   */\n      tag_157\n      jump\t// in\n    tag_304:\n        /* \"#utility.yul\":11819:11823   */\n      dup7\n        /* \"#utility.yul\":11812:11893   */\n      sstore\n        /* \"#utility.yul\":11681:11903   */\n      pop\n        /* \"#utility.yul\":11016:11903   */\n      jump(tag_301)\n        /* \"#utility.yul\":11046:11664   */\n    tag_302:\n        /* \"#utility.yul\":11098:11102   */\n      0x1f\n        /* \"#utility.yul\":11094:11103   */\n      not\n        /* \"#utility.yul\":11086:11092   */\n      dup5\n        /* \"#utility.yul\":11082:11104   */\n      and\n        /* \"#utility.yul\":11132:11169   */\n      tag_305\n        /* \"#utility.yul\":11164:11168   */\n      dup7\n        /* \"#utility.yul\":11132:11169   */\n      tag_143\n      jump\t// in\n    tag_305:\n        /* \"#utility.yul\":11191:11192   */\n      0x00\n        /* \"#utility.yul\":11205:11413   */\n    tag_306:\n        /* \"#utility.yul\":11219:11226   */\n      dup3\n        /* \"#utility.yul\":11216:11217   */\n      dup2\n        /* \"#utility.yul\":11213:11227   */\n      lt\n        /* \"#utility.yul\":11205:11413   */\n      iszero\n      tag_308\n      jumpi\n        /* \"#utility.yul\":11298:11307   */\n      dup5\n        /* \"#utility.yul\":11293:11296   */\n      dup10\n        /* \"#utility.yul\":11289:11308   */\n      add\n        /* \"#utility.yul\":11283:11309   */\n      mload\n        /* \"#utility.yul\":11275:11281   */\n      dup3\n        /* \"#utility.yul\":11268:11310   */\n      sstore\n        /* \"#utility.yul\":11349:11350   */\n      0x01\n        /* \"#utility.yul\":11341:11347   */\n      dup3\n        /* \"#utility.yul\":11337:11351   */\n      add\n        /* \"#utility.yul\":11327:11351   */\n      swap2\n      pop\n        /* \"#utility.yul\":11396:11398   */\n      0x20\n        /* \"#utility.yul\":11385:11394   */\n      dup6\n        /* \"#utility.yul\":11381:11399   */\n      add\n        /* \"#utility.yul\":11368:11399   */\n      swap5\n      pop\n        /* \"#utility.yul\":11242:11246   */\n      0x20\n        /* \"#utility.yul\":11239:11240   */\n      dup2\n        /* \"#utility.yul\":11235:11247   */\n      add\n        /* \"#utility.yul\":11230:11247   */\n      swap1\n      pop\n        /* \"#utility.yul\":11205:11413   */\n      jump(tag_306)\n    tag_308:\n        /* \"#utility.yul\":11441:11447   */\n      dup7\n        /* \"#utility.yul\":11432:11439   */\n      dup4\n        /* \"#utility.yul\":11429:11448   */\n      lt\n        /* \"#utility.yul\":11426:11605   */\n      iszero\n      tag_309\n      jumpi\n        /* \"#utility.yul\":11499:11508   */\n      dup5\n        /* \"#utility.yul\":11494:11497   */\n      dup10\n        /* \"#utility.yul\":11490:11509   */\n      add\n        /* \"#utility.yul\":11484:11510   */\n      mload\n        /* \"#utility.yul\":11542:11590   */\n      tag_310\n        /* \"#utility.yul\":11584:11588   */\n      0x1f\n        /* \"#utility.yul\":11576:11582   */\n      dup10\n        /* \"#utility.yul\":11572:11589   */\n      and\n        /* \"#utility.yul\":11561:11570   */\n      dup3\n        /* \"#utility.yul\":11542:11590   */\n      tag_156\n      jump\t// in\n    tag_310:\n        /* \"#utility.yul\":11534:11540   */\n      dup4\n        /* \"#utility.yul\":11527:11591   */\n      sstore\n        /* \"#utility.yul\":11449:11605   */\n      pop\n        /* \"#utility.yul\":11426:11605   */\n    tag_309:\n        /* \"#utility.yul\":11651:11652   */\n      0x01\n        /* \"#utility.yul\":11647:11648   */\n      0x02\n        /* \"#utility.yul\":11639:11645   */\n      dup9\n        /* \"#utility.yul\":11635:11649   */\n      mul\n        /* \"#utility.yul\":11631:11653   */\n      add\n        /* \"#utility.yul\":11625:11629   */\n      dup9\n        /* \"#utility.yul\":11618:11654   */\n      sstore\n        /* \"#utility.yul\":11053:11664   */\n      pop\n      pop\n      pop\n        /* \"#utility.yul\":11016:11903   */\n    tag_301:\n      pop\n        /* \"#utility.yul\":10606:11909   */\n      pop\n      pop\n      pop\n        /* \"#utility.yul\":10514:11909   */\n      pop\n      pop\n      jump\t// out\n        /* \"#utility.yul\":11915:12095   */\n    tag_158:\n        /* \"#utility.yul\":11963:12040   */\n      0x4e487b7100000000000000000000000000000000000000000000000000000000\n        /* \"#utility.yul\":11960:11961   */\n      0x00\n        /* \"#utility.yul\":11953:12041   */\n      mstore\n        /* \"#utility.yul\":12060:12064   */\n      0x11\n        /* \"#utility.yul\":12057:12058   */\n      0x04\n        /* \"#utility.yul\":12050:12065   */\n      mstore\n        /* \"#utility.yul\":12084:12088   */\n      0x24\n        /* \"#utility.yul\":12081:12082   */\n      0x00\n        /* \"#utility.yul\":12074:12089   */\n      revert\n        /* \"#utility.yul\":12101:12295   */\n    tag_42:\n        /* \"#utility.yul\":12141:12145   */\n      0x00\n        /* \"#utility.yul\":12161:12181   */\n      tag_313\n        /* \"#utility.yul\":12179:12180   */\n      dup3\n        /* \"#utility.yul\":12161:12181   */\n      tag_128\n      jump\t// in\n    tag_313:\n        /* \"#utility.yul\":12156:12181   */\n      swap2\n      pop\n        /* \"#utility.yul\":12195:12215   */\n      tag_314\n        /* \"#utility.yul\":12213:12214   */\n      dup4\n        /* \"#utility.yul\":12195:12215   */\n      tag_128\n      jump\t// in\n    tag_314:\n        /* \"#utility.yul\":12190:12215   */\n      swap3\n      pop\n        /* \"#utility.yul\":12239:12240   */\n      dup3\n        /* \"#utility.yul\":12236:12237   */\n      dup3\n        /* \"#utility.yul\":12232:12241   */\n      sub\n        /* \"#utility.yul\":12224:12241   */\n      swap1\n      pop\n        /* \"#utility.yul\":12263:12264   */\n      dup2\n        /* \"#utility.yul\":12257:12261   */\n      dup2\n        /* \"#utility.yul\":12254:12265   */\n      gt\n        /* \"#utility.yul\":12251:12288   */\n      iszero\n      tag_315\n      jumpi\n        /* \"#utility.yul\":12268:12286   */\n      tag_316\n      tag_158\n      jump\t// in\n    tag_316:\n        /* \"#utility.yul\":12251:12288   */\n    tag_315:\n        /* \"#utility.yul\":12101:12295   */\n      swap3\n      swap2\n      pop\n      pop\n      jump\t// out\n        /* \"#utility.yul\":12301:12464   */\n    tag_159:\n        /* \"#utility.yul\":12441:12456   */\n      0x4e6f7420612073747564656e7400000000000000000000000000000000000000\n        /* \"#utility.yul\":12437:12438   */\n      0x00\n        /* \"#utility.yul\":12429:12435   */\n      dup3\n        /* \"#utility.yul\":12425:12439   */\n      add\n        /* \"#utility.yul\":12418:12457   */\n      mstore\n        /* \"#utility.yul\":12301:12464   */\n      pop\n      jump\t// out\n        /* \"#utility.yul\":12470:12836   */\n    tag_160:\n        /* \"#utility.yul\":12612:12615   */\n      0x00\n        /* \"#utility.yul\":12633:12700   */\n      tag_319\n        /* \"#utility.yul\":12697:12699   */\n      0x0d\n        /* \"#utility.yul\":12692:12695   */\n      dup4\n        /* \"#utility.yul\":12633:12700   */\n      tag_132\n      jump\t// in\n    tag_319:\n        /* \"#utility.yul\":12626:12700   */\n      swap2\n      pop\n        /* \"#utility.yul\":12709:12802   */\n      tag_320\n        /* \"#utility.yul\":12798:12801   */\n      dup3\n        /* \"#utility.yul\":12709:12802   */\n      tag_159\n      jump\t// in\n    tag_320:\n        /* \"#utility.yul\":12827:12829   */\n      0x20\n        /* \"#utility.yul\":12822:12825   */\n      dup3\n        /* \"#utility.yul\":12818:12830   */\n      add\n        /* \"#utility.yul\":12811:12830   */\n      swap1\n      pop\n        /* \"#utility.yul\":12470:12836   */\n      swap2\n      swap1\n      pop\n      jump\t// out\n        /* \"#utility.yul\":12842:13261   */\n    tag_62:\n        /* \"#utility.yul\":13008:13012   */\n      0x00\n        /* \"#utility.yul\":13046:13048   */\n      0x20\n        /* \"#utility.yul\":13035:13044   */\n      dup3\n        /* \"#utility.yul\":13031:13049   */\n      add\n        /* \"#utility.yul\":13023:13049   */\n      swap1\n      pop\n        /* \"#utility.yul\":13095:13104   */\n      dup2\n        /* \"#utility.yul\":13089:13093   */\n      dup2\n        /* \"#utility.yul\":13085:13105   */\n      sub\n        /* \"#utility.yul\":13081:13082   */\n      0x00\n        /* \"#utility.yul\":13070:13079   */\n      dup4\n        /* \"#utility.yul\":13066:13083   */\n      add\n        /* \"#utility.yul\":13059:13106   */\n      mstore\n        /* \"#utility.yul\":13123:13254   */\n      tag_322\n        /* \"#utility.yul\":13249:13253   */\n      dup2\n        /* \"#utility.yul\":13123:13254   */\n      tag_160\n      jump\t// in\n    tag_322:\n        /* \"#utility.yul\":13115:13254   */\n      swap1\n      pop\n        /* \"#utility.yul\":12842:13261   */\n      swap2\n      swap1\n      pop\n      jump\t// out\n        /* \"#utility.yul\":13267:13500   */\n    tag_67:\n        /* \"#utility.yul\":13306:13309   */\n      0x00\n        /* \"#utility.yul\":13329:13353   */\n      tag_324\n        /* \"#utility.yul\":13347:13352   */\n      dup3\n        /* \"#utility.yul\":13329:13353   */\n      tag_128\n      jump\t// in\n    tag_324:\n        /* \"#utility.yul\":13320:13353   */\n      swap2\n      pop\n        /* \"#utility.yul\":13375:13441   */\n      0xffffffffffffffffffffffffffffffffffffffffffffffffffffffffffffffff\n        /* \"#utility.yul\":13368:13373   */\n      dup3\n        /* \"#utility.yul\":13365:13442   */\n      sub\n        /* \"#utility.yul\":13362:13465   */\n      tag_325\n      jumpi\n        /* \"#utility.yul\":13445:13463   */\n      tag_326\n      tag_158\n      jump\t// in\n    tag_326:\n        /* \"#utility.yul\":13362:13465   */\n    tag_325:\n        /* \"#utility.yul\":13492:13493   */\n      0x01\n        /* \"#utility.yul\":13485:13490   */\n      dup3\n        /* \"#utility.yul\":13481:13494   */\n      add\n        /* \"#utility.yul\":13474:13494   */\n      swap1\n      pop\n        /* \"#utility.yul\":13267:13500   */\n      swap2\n      swap1\n      pop\n      jump\t// out\n        /* \"#utility.yul\":13506:13673   */\n    tag_161:\n        /* \"#utility.yul\":13646:13665   */\n      0x416c726561647920612073747564656e74000000000000000000000000000000\n        /* \"#utility.yul\":13642:13643   */\n      0x00\n        /* \"#utility.yul\":13634:13640   */\n      dup3\n        /* \"#utility.yul\":13630:13644   */\n      add\n        /* \"#utility.yul\":13623:13666   */\n      mstore\n        /* \"#utility.yul\":13506:13673   */\n      pop\n      jump\t// out\n        /* \"#utility.yul\":13679:14045   */\n    tag_162:\n        /* \"#utility.yul\":13821:13824   */\n      0x00\n        /* \"#utility.yul\":13842:13909   */\n      tag_329\n        /* \"#utility.yul\":13906:13908   */\n      0x11\n        /* \"#utility.yul\":13901:13904   */\n      dup4\n        /* \"#utility.yul\":13842:13909   */\n      tag_132\n      jump\t// in\n    tag_329:\n        /* \"#utility.yul\":13835:13909   */\n      swap2\n      pop\n        /* \"#utility.yul\":13918:14011   */\n      tag_330\n        /* \"#utility.yul\":14007:14010   */\n      dup3\n        /* \"#utility.yul\":13918:14011   */\n      tag_161\n      jump\t// in\n    tag_330:\n        /* \"#utility.yul\":14036:14038   */\n      0x20\n        /* \"#utility.yul\":14031:14034   */\n      dup3\n        /* \"#utility.yul\":14027:14039   */\n      add\n        /* \"#utility.yul\":14020:14039   */\n      swap1\n      pop\n        /* \"#utility.yul\":13679:14045   */\n      swap2\n      swap1\n      pop\n      jump\t// out\n        /* \"#utility.yul\":14051:14470   */\n    tag_75:\n        /* \"#utility.yul\":14217:14221   */\n      0x00\n        /* \"#utility.yul\":14255:14257   */\n      0x20\n        /* \"#utility.yul\":14244:14253   */\n      dup3\n        /* \"#utility.yul\":14240:14258   */\n      add\n        /* \"#utility.yul\":14232:14258   */\n      swap1\n      pop\n        /* \"#utility.yul\":14304:14313   */\n      dup2\n        /* \"#utility.yul\":14298:14302   */\n      dup2\n        /* \"#utility.yul\":14294:14314   */\n      sub\n        /* \"#utility.yul\":14290:14291   */\n      0x00\n        /* \"#utility.yul\":14279:14288   */\n      dup4\n        /* \"#utility.yul\":14275:14292   */\n      add\n        /* \"#utility.yul\":14268:14315   */\n      mstore\n        /* \"#utility.yul\":14332:14463   */\n      tag_332\n        /* \"#utility.yul\":14458:14462   */\n      dup2\n        /* \"#utility.yul\":14332:14463   */\n      tag_162\n      jump\t// in\n    tag_332:\n        /* \"#utility.yul\":14324:14463   */\n      swap1\n      pop\n        /* \"#utility.yul\":14051:14470   */\n      swap2\n      swap1\n      pop\n      jump\t// out\n        /* \"#utility.yul\":14476:14594   */\n    tag_163:\n        /* \"#utility.yul\":14563:14587   */\n      tag_334\n        /* \"#utility.yul\":14581:14586   */\n      dup2\n        /* \"#utility.yul\":14563:14587   */\n      tag_137\n      jump\t// in\n    tag_334:\n        /* \"#utility.yul\":14558:14561   */\n      dup3\n        /* \"#utility.yul\":14551:14588   */\n      mstore\n        /* \"#utility.yul\":14476:14594   */\n      pop\n      pop\n      jump\t// out\n        /* \"#utility.yul\":14600:14932   */\n    tag_77:\n        /* \"#utility.yul\":14721:14725   */\n      0x00\n        /* \"#utility.yul\":14759:14761   */\n      0x40\n        /* \"#utility.yul\":14748:14757   */\n      dup3\n        /* \"#utility.yul\":14744:14762   */\n      add\n        /* \"#utility.yul\":14736:14762   */\n      swap1\n      pop\n        /* \"#utility.yul\":14772:14843   */\n      tag_336\n        /* \"#utility.yul\":14840:14841   */\n      0x00\n        /* \"#utility.yul\":14829:14838   */\n      dup4\n        /* \"#utility.yul\":14825:14842   */\n      add\n        /* \"#utility.yul\":14816:14822   */\n      dup6\n        /* \"#utility.yul\":14772:14843   */\n      tag_163\n      jump\t// in\n    tag_336:\n        /* \"#utility.yul\":14853:14925   */\n      tag_337\n        /* \"#utility.yul\":14921:14923   */\n      0x20\n        /* \"#utility.yul\":14910:14919   */\n      dup4\n        /* \"#utility.yul\":14906:14924   */\n      add\n        /* \"#utility.yul\":14897:14903   */\n      dup5\n        /* \"#utility.yul\":14853:14925   */\n      tag_135\n      jump\t// in\n    tag_337:\n        /* \"#utility.yul\":14600:14932   */\n      swap4\n      swap3\n      pop\n      pop\n      pop\n      jump\t// out\n        /* \"#utility.yul\":14938:15103   */\n    tag_164:\n        /* \"#utility.yul\":15078:15095   */\n      0x496e76616c696420426f6f6b2049440000000000000000000000000000000000\n        /* \"#utility.yul\":15074:15075   */\n      0x00\n        /* \"#utility.yul\":15066:15072   */\n      dup3\n        /* \"#utility.yul\":15062:15076   */\n      add\n        /* \"#utility.yul\":15055:15096   */\n      mstore\n        /* \"#utility.yul\":14938:15103   */\n      pop\n      jump\t// out\n        /* \"#utility.yul\":15109:15475   */\n    tag_165:\n        /* \"#utility.yul\":15251:15254   */\n      0x00\n        /* \"#utility.yul\":15272:15339   */\n      tag_340\n        /* \"#utility.yul\":15336:15338   */\n      0x0f\n        /* \"#utility.yul\":15331:15334   */\n      dup4\n        /* \"#utility.yul\":15272:15339   */\n      tag_132\n      jump\t// in\n    tag_340:\n        /* \"#utility.yul\":15265:15339   */\n      swap2\n      pop\n        /* \"#utility.yul\":15348:15441   */\n      tag_341\n        /* \"#utility.yul\":15437:15440   */\n      dup3\n        /* \"#utility.yul\":15348:15441   */\n      tag_164\n      jump\t// in\n    tag_341:\n        /* \"#utility.yul\":15466:15468   */\n      0x20\n        /* \"#utility.yul\":15461:15464   */\n      dup3\n        /* \"#utility.yul\":15457:15469   */\n      add\n        /* \"#utility.yul\":15450:15469   */\n      swap1\n      pop\n        /* \"#utility.yul\":15109:15475   */\n      swap2\n      swap1\n      pop\n      jump\t// out\n        /* \"#utility.yul\":15481:15900   */\n    tag_85:\n        /* \"#utility.yul\":15647:15651   */\n      0x00\n        /* \"#utility.yul\":15685:15687   */\n      0x20\n        /* \"#utility.yul\":15674:15683   */\n      dup3\n        /* \"#utility.yul\":15670:15688   */\n      add\n        /* \"#utility.yul\":15662:15688   */\n      swap1\n      pop\n        /* \"#utility.yul\":15734:15743   */\n      dup2\n        /* \"#utility.yul\":15728:15732   */\n      dup2\n        /* \"#utility.yul\":15724:15744   */\n      sub\n        /* \"#utility.yul\":15720:15721   */\n      0x00\n        /* \"#utility.yul\":15709:15718   */\n      dup4\n        /* \"#utility.yul\":15705:15722   */\n      add\n        /* \"#utility.yul\":15698:15745   */\n      mstore\n        /* \"#utility.yul\":15762:15893   */\n      tag_343\n        /* \"#utility.yul\":15888:15892   */\n      dup2\n        /* \"#utility.yul\":15762:15893   */\n      tag_165\n      jump\t// in\n    tag_343:\n        /* \"#utility.yul\":15754:15893   */\n      swap1\n      pop\n        /* \"#utility.yul\":15481:15900   */\n      swap2\n      swap1\n      pop\n      jump\t// out\n        /* \"#utility.yul\":15906:16073   */\n    tag_166:\n        /* \"#utility.yul\":16046:16065   */\n      0x426f6f6b206e6f7420626f72726f776564000000000000000000000000000000\n        /* \"#utility.yul\":16042:16043   */\n      0x00\n        /* \"#utility.yul\":16034:16040   */\n      dup3\n        /* \"#utility.yul\":16030:16044   */\n      add\n        /* \"#utility.yul\":16023:16066   */\n      mstore\n        /* \"#utility.yul\":15906:16073   */\n      pop\n      jump\t// out\n        /* \"#utility.yul\":16079:16445   */\n    tag_167:\n        /* \"#utility.yul\":16221:16224   */\n      0x00\n        /* \"#utility.yul\":16242:16309   */\n      tag_346\n        /* \"#utility.yul\":16306:16308   */\n      0x11\n        /* \"#utility.yul\":16301:16304   */\n      dup4\n        /* \"#utility.yul\":16242:16309   */\n      tag_132\n      jump\t// in\n    tag_346:\n        /* \"#utility.yul\":16235:16309   */\n      swap2\n      pop\n        /* \"#utility.yul\":16318:16411   */\n      tag_347\n        /* \"#utility.yul\":16407:16410   */\n      dup3\n        /* \"#utility.yul\":16318:16411   */\n      tag_166\n      jump\t// in\n    tag_347:\n        /* \"#utility.yul\":16436:16438   */\n      0x20\n        /* \"#utility.yul\":16431:16434   */\n      dup3\n        /* \"#utility.yul\":16427:16439   */\n      add\n        /* \"#utility.yul\":16420:16439   */\n      swap1\n      pop\n        /* \"#utility.yul\":16079:16445   */\n      swap2\n      swap1\n      pop\n      jump\t// out\n        /* \"#utility.yul\":16451:16870   */\n    tag_89:\n        /* \"#utility.yul\":16617:16621   */\n      0x00\n        /* \"#utility.yul\":16655:16657   */\n      0x20\n        /* \"#utility.yul\":16644:16653   */\n      dup3\n        /* \"#utility.yul\":16640:16658   */\n      add\n        /* \"#utility.yul\":16632:16658   */\n      swap1\n      pop\n        /* \"#utility.yul\":16704:16713   */\n      dup2\n        /* \"#utility.yul\":16698:16702   */\n      dup2\n        /* \"#utility.yul\":16694:16714   */\n      sub\n        /* \"#utility.yul\":16690:16691   */\n      0x00\n        /* \"#utility.yul\":16679:16688   */\n      dup4\n        /* \"#utility.yul\":16675:16692   */\n      add\n        /* \"#utility.yul\":16668:16715   */\n      mstore\n        /* \"#utility.yul\":16732:16863   */\n      tag_349\n        /* \"#utility.yul\":16858:16862   */\n      dup2\n        /* \"#utility.yul\":16732:16863   */\n      tag_167\n      jump\t// in\n    tag_349:\n        /* \"#utility.yul\":16724:16863   */\n      swap1\n      pop\n        /* \"#utility.yul\":16451:16870   */\n      swap2\n      swap1\n      pop\n      jump\t// out\n        /* \"#utility.yul\":16876:17056   */\n    tag_92:\n        /* \"#utility.yul\":16924:17001   */\n      0x4e487b7100000000000000000000000000000000000000000000000000000000\n        /* \"#utility.yul\":16921:16922   */\n      0x00\n        /* \"#utility.yul\":16914:17002   */\n      mstore\n        /* \"#utility.yul\":17021:17025   */\n      0x32\n        /* \"#utility.yul\":17018:17019   */\n      0x04\n        /* \"#utility.yul\":17011:17026   */\n      mstore\n        /* \"#utility.yul\":17045:17049   */\n      0x24\n        /* \"#utility.yul\":17042:17043   */\n      0x00\n        /* \"#utility.yul\":17035:17050   */\n      revert\n        /* \"#utility.yul\":17062:17233   */\n    tag_168:\n        /* \"#utility.yul\":17202:17225   */\n      0x426f6f6b20616c726561647920626f72726f7765640000000000000000000000\n        /* \"#utility.yul\":17198:17199   */\n      0x00\n        /* \"#utility.yul\":17190:17196   */\n      dup3\n        /* \"#utility.yul\":17186:17200   */\n      add\n        /* \"#utility.yul\":17179:17226   */\n      mstore\n        /* \"#utility.yul\":17062:17233   */\n      pop\n      jump\t// out\n        /* \"#utility.yul\":17239:17605   */\n    tag_169:\n        /* \"#utility.yul\":17381:17384   */\n      0x00\n        /* \"#utility.yul\":17402:17469   */\n      tag_353\n        /* \"#utility.yul\":17466:17468   */\n      0x15\n        /* \"#utility.yul\":17461:17464   */\n      dup4\n        /* \"#utility.yul\":17402:17469   */\n      tag_132\n      jump\t// in\n    tag_353:\n        /* \"#utility.yul\":17395:17469   */\n      swap2\n      pop\n        /* \"#utility.yul\":17478:17571   */\n      tag_354\n        /* \"#utility.yul\":17567:17570   */\n      dup3\n        /* \"#utility.yul\":17478:17571   */\n      tag_168\n      jump\t// in\n    tag_354:\n        /* \"#utility.yul\":17596:17598   */\n      0x20\n        /* \"#utility.yul\":17591:17594   */\n      dup3\n        /* \"#utility.yul\":17587:17599   */\n      add\n        /* \"#utility.yul\":17580:17599   */\n      swap1\n      pop\n        /* \"#utility.yul\":17239:17605   */\n      swap2\n      swap1\n      pop\n      jump\t// out\n        /* \"#utility.yul\":17611:18030   */\n    tag_102:\n        /* \"#utility.yul\":17777:17781   */\n      0x00\n        /* \"#utility.yul\":17815:17817   */\n      0x20\n        /* \"#utility.yul\":17804:17813   */\n      dup3\n        /* \"#utility.yul\":17800:17818   */\n      add\n        /* \"#utility.yul\":17792:17818   */\n      swap1\n      pop\n        /* \"#utility.yul\":17864:17873   */\n      dup2\n        /* \"#utility.yul\":17858:17862   */\n      dup2\n        /* \"#utility.yul\":17854:17874   */\n      sub\n        /* \"#utility.yul\":17850:17851   */\n      0x00\n        /* \"#utility.yul\":17839:17848   */\n      dup4\n        /* \"#utility.yul\":17835:17852   */\n      add\n        /* \"#utility.yul\":17828:17875   */\n      mstore\n        /* \"#utility.yul\":17892:18023   */\n      tag_356\n        /* \"#utility.yul\":18018:18022   */\n      dup2\n        /* \"#utility.yul\":17892:18023   */\n      tag_169\n      jump\t// in\n    tag_356:\n        /* \"#utility.yul\":17884:18023   */\n      swap1\n      pop\n        /* \"#utility.yul\":17611:18030   */\n      swap2\n      swap1\n      pop\n      jump\t// out\n        /* \"#utility.yul\":18036:18209   */\n    tag_170:\n        /* \"#utility.yul\":18176:18201   */\n      0x426f6f6b20696e76656e746f727920697320656d707479000000000000000000\n        /* \"#utility.yul\":18172:18173   */\n      0x00\n        /* \"#utility.yul\":18164:18170   */\n      dup3\n        /* \"#utility.yul\":18160:18174   */\n      add\n        /* \"#utility.yul\":18153:18202   */\n      mstore\n        /* \"#utility.yul\":18036:18209   */\n      pop\n      jump\t// out\n        /* \"#utility.yul\":18215:18581   */\n    tag_171:\n        /* \"#utility.yul\":18357:18360   */\n      0x00\n        /* \"#utility.yul\":18378:18445   */\n      tag_359\n        /* \"#utility.yul\":18442:18444   */\n      0x17\n        /* \"#utility.yul\":18437:18440   */\n      dup4\n        /* \"#utility.yul\":18378:18445   */\n      tag_132\n      jump\t// in\n    tag_359:\n        /* \"#utility.yul\":18371:18445   */\n      swap2\n      pop\n        /* \"#utility.yul\":18454:18547   */\n      tag_360\n        /* \"#utility.yul\":18543:18546   */\n      dup3\n        /* \"#utility.yul\":18454:18547   */\n      tag_170\n      jump\t// in\n    tag_360:\n        /* \"#utility.yul\":18572:18574   */\n      0x20\n        /* \"#utility.yul\":18567:18570   */\n      dup3\n        /* \"#utility.yul\":18563:18575   */\n      add\n        /* \"#utility.yul\":18556:18575   */\n      swap1\n      pop\n        /* \"#utility.yul\":18215:18581   */\n      swap2\n      swap1\n      pop\n      jump\t// out\n        /* \"#utility.yul\":18587:19006   */\n    tag_108:\n        /* \"#utility.yul\":18753:18757   */\n      0x00\n        /* \"#utility.yul\":18791:18793   */\n      0x20\n        /* \"#utility.yul\":18780:18789   */\n      dup3\n        /* \"#utility.yul\":18776:18794   */\n      add\n        /* \"#utility.yul\":18768:18794   */\n      swap1\n      pop\n        /* \"#utility.yul\":18840:18849   */\n      dup2\n        /* \"#utility.yul\":18834:18838   */\n      dup2\n        /* \"#utility.yul\":18830:18850   */\n      sub\n        /* \"#utility.yul\":18826:18827   */\n      0x00\n        /* \"#utility.yul\":18815:18824   */\n      dup4\n        /* \"#utility.yul\":18811:18828   */\n      add\n        /* \"#utility.yul\":18804:18851   */\n      mstore\n        /* \"#utility.yul\":18868:18999   */\n      tag_362\n        /* \"#utility.yul\":18994:18998   */\n      dup2\n        /* \"#utility.yul\":18868:18999   */\n      tag_171\n      jump\t// in\n    tag_362:\n        /* \"#utility.yul\":18860:18999   */\n      swap1\n      pop\n        /* \"#utility.yul\":18587:19006   */\n      swap2\n      swap1\n      pop\n      jump\t// out\n        /* \"#utility.yul\":19012:19183   */\n    tag_113:\n        /* \"#utility.yul\":19051:19054   */\n      0x00\n        /* \"#utility.yul\":19074:19098   */\n      tag_364\n        /* \"#utility.yul\":19092:19097   */\n      dup3\n        /* \"#utility.yul\":19074:19098   */\n      tag_128\n      jump\t// in\n    tag_364:\n        /* \"#utility.yul\":19065:19098   */\n      swap2\n      pop\n        /* \"#utility.yul\":19120:19124   */\n      0x00\n        /* \"#utility.yul\":19113:19118   */\n      dup3\n        /* \"#utility.yul\":19110:19125   */\n      sub\n        /* \"#utility.yul\":19107:19148   */\n      tag_365\n      jumpi\n        /* \"#utility.yul\":19128:19146   */\n      tag_366\n      tag_158\n      jump\t// in\n    tag_366:\n        /* \"#utility.yul\":19107:19148   */\n    tag_365:\n        /* \"#utility.yul\":19175:19176   */\n      0x01\n        /* \"#utility.yul\":19168:19173   */\n      dup3\n        /* \"#utility.yul\":19164:19177   */\n      sub\n        /* \"#utility.yul\":19157:19177   */\n      swap1\n      pop\n        /* \"#utility.yul\":19012:19183   */\n      swap2\n      swap1\n      pop\n      jump\t// out\n\n    auxdata: 0xa2646970667358221220e65a30ac99a08d31851cc01bdca2daeceb74a22f8f1c0e2bf8169a28e99a8c8164736f6c634300081e0033\n}\n",
				"bytecode": {
					"linkReferences": {},
					"object": "6080604052348015600e575f5ffd5b50335f5f6101000a81548173ffffffffffffffffffffffffffffffffffffffff021916908373ffffffffffffffffffffffffffffffffffffffff16021790555061146b8061005b5f395ff3fe608060405234801561000f575f5ffd5b5060043610610060575f3560e01c8063042662241461006457806368744046146100805780637e490a9e146100b257806382f7d392146100ce578063ca5140c9146100fe578063e596e10f1461011a575b5f5ffd5b61007e60048036038101906100799190610bab565b610136565b005b61009a60048036038101906100959190610c33565b6102a9565b6040516100a993929190610ccd565b60405180910390f35b6100cc60048036038101906100c79190610c33565b6103ea565b005b6100e860048036038101906100e39190610d6a565b61047f565b6040516100f59190610daf565b60405180910390f35b61011860048036038101906101139190610c33565b61049c565b005b610134600480360381019061012f9190610d6a565b6104bf565b005b5f5f9054906101000a900473ffffffffffffffffffffffffffffffffffffffff1673ffffffffffffffffffffffffffffffffffffffff163373ffffffffffffffffffffffffffffffffffffffff161461018d575f5ffd5b5f6040518060600160405280858152602001848152602001838152509050600181908060018154018082558091505060019003905f5260205f2090600302015f909190919091505f820151815f0190816101e79190610fc5565b5060208201518160010190816101fd9190610fc5565b506040820151816002015550505f6001808054905061021c91906110c1565b90508160025f8381526020019081526020015f205f820151815f0190816102439190610fc5565b5060208201518160010190816102599190610fc5565b50604082015181600201559050507fe0cf28f41f6224a2dd20ffaeb131cfb4bf849b63c819a1a03eee314eac687cb685858560405161029a93929190610ccd565b60405180910390a15050505050565b600181815481106102b8575f80fd5b905f5260205f2090600302015f91509050805f0180546102d790610df5565b80601f016020809104026020016040519081016040528092919081815260200182805461030390610df5565b801561034e5780601f106103255761010080835404028352916020019161034e565b820191905f5260205f20905b81548152906001019060200180831161033157829003601f168201915b50505050509080600101805461036390610df5565b80601f016020809104026020016040519081016040528092919081815260200182805461038f90610df5565b80156103da5780601f106103b1576101008083540402835291602001916103da565b820191905f5260205f20905b8154815290600101906020018083116103bd57829003601f168201915b5050505050908060020154905083565b60065f3373ffffffffffffffffffffffffffffffffffffffff1673ffffffffffffffffffffffffffffffffffffffff1681526020019081526020015f205f9054906101000a900460ff16610473576040517f08c379a000000000000000000000000000000000000000000000000000000000815260040161046a9061113e565b60405180910390fd5b61047c81610631565b50565b6006602052805f5260405f205f915054906101000a900460ff1681565b60055f8154809291906104ae9061115c565b91905055506104bc81610654565b50565b5f5f9054906101000a900473ffffffffffffffffffffffffffffffffffffffff1673ffffffffffffffffffffffffffffffffffffffff163373ffffffffffffffffffffffffffffffffffffffff1614610516575f5ffd5b60065f8273ffffffffffffffffffffffffffffffffffffffff1673ffffffffffffffffffffffffffffffffffffffff1681526020019081526020015f205f9054906101000a900460ff16156105a0576040517f08c379a0000000000000000000000000000000000000000000000000000000008152600401610597906111ed565b60405180910390fd5b600160065f8373ffffffffffffffffffffffffffffffffffffffff1673ffffffffffffffffffffffffffffffffffffffff1681526020019081526020015f205f6101000a81548160ff0219169083151502179055507ff07a65b60d49610ecb17a83ebd42d899043a25e314c2706e2a1029ee4ffead07814260405161062692919061121a565b60405180910390a150565b60045f8154809291906106439061115c565b91905055506106518161080c565b50565b80600180549050811061069c576040517f08c379a00000000000000000000000000000000000000000000000000000000081526004016106939061128b565b60405180910390fd5b60035f3373ffffffffffffffffffffffffffffffffffffffff1673ffffffffffffffffffffffffffffffffffffffff1681526020019081526020015f205f8381526020019081526020015f205f9054906101000a900460ff16610734576040517f08c379a000000000000000000000000000000000000000000000000000000000815260040161072b906112f3565b60405180910390fd5b6001828154811061074857610747611311565b5b905f5260205f2090600302016002015f8154809291906107679061115c565b91905055505f60035f3373ffffffffffffffffffffffffffffffffffffffff1673ffffffffffffffffffffffffffffffffffffffff1681526020019081526020015f205f8481526020019081526020015f205f6101000a81548160ff0219169083151502179055507f095bd1d20746d0513acf2a85fa1f8ed7de89ff83285974a106ca40499e16c9c8338360405161080092919061121a565b60405180910390a15050565b806001805490508110610854576040517f08c379a000000000000000000000000000000000000000000000000000000000815260040161084b9061128b565b60405180910390fd5b60035f3373ffffffffffffffffffffffffffffffffffffffff1673ffffffffffffffffffffffffffffffffffffffff1681526020019081526020015f205f8381526020019081526020015f205f9054906101000a900460ff16156108ed576040517f08c379a00000000000000000000000000000000000000000000000000000000081526004016108e490611388565b60405180910390fd5b5f6001838154811061090257610901611311565b5b905f5260205f2090600302016002015411610952576040517f08c379a0000000000000000000000000000000000000000000000000000000008152600401610949906113f0565b60405180910390fd5b6001828154811061096657610965611311565b5b905f5260205f2090600302016002015f8154809291906109859061140e565b9190505550600160035f3373ffffffffffffffffffffffffffffffffffffffff1673ffffffffffffffffffffffffffffffffffffffff1681526020019081526020015f205f8481526020019081526020015f205f6101000a81548160ff0219169083151502179055507f84edab31b887a66b8af059a2b9c3c53e440d8b54f65102ae6acc11bf485db9e23383604051610a1f92919061121a565b60405180910390a15050565b5f604051905090565b5f5ffd5b5f5ffd5b5f5ffd5b5f5ffd5b5f601f19601f8301169050919050565b7f4e487b71000000000000000000000000000000000000000000000000000000005f52604160045260245ffd5b610a8a82610a44565b810181811067ffffffffffffffff82111715610aa957610aa8610a54565b5b80604052505050565b5f610abb610a2b565b9050610ac78282610a81565b919050565b5f67ffffffffffffffff821115610ae657610ae5610a54565b5b610aef82610a44565b9050602081019050919050565b828183375f83830152505050565b5f610b1c610b1784610acc565b610ab2565b905082815260208101848484011115610b3857610b37610a40565b5b610b43848285610afc565b509392505050565b5f82601f830112610b5f57610b5e610a3c565b5b8135610b6f848260208601610b0a565b91505092915050565b5f819050919050565b610b8a81610b78565b8114610b94575f5ffd5b50565b5f81359050610ba581610b81565b92915050565b5f5f5f60608486031215610bc257610bc1610a34565b5b5f84013567ffffffffffffffff811115610bdf57610bde610a38565b5b610beb86828701610b4b565b935050602084013567ffffffffffffffff811115610c0c57610c0b610a38565b5b610c1886828701610b4b565b9250506040610c2986828701610b97565b9150509250925092565b5f60208284031215610c4857610c47610a34565b5b5f610c5584828501610b97565b91505092915050565b5f81519050919050565b5f82825260208201905092915050565b8281835e5f83830152505050565b5f610c9082610c5e565b610c9a8185610c68565b9350610caa818560208601610c78565b610cb381610a44565b840191505092915050565b610cc781610b78565b82525050565b5f6060820190508181035f830152610ce58186610c86565b90508181036020830152610cf98185610c86565b9050610d086040830184610cbe565b949350505050565b5f73ffffffffffffffffffffffffffffffffffffffff82169050919050565b5f610d3982610d10565b9050919050565b610d4981610d2f565b8114610d53575f5ffd5b50565b5f81359050610d6481610d40565b92915050565b5f60208284031215610d7f57610d7e610a34565b5b5f610d8c84828501610d56565b91505092915050565b5f8115159050919050565b610da981610d95565b82525050565b5f602082019050610dc25f830184610da0565b92915050565b7f4e487b71000000000000000000000000000000000000000000000000000000005f52602260045260245ffd5b5f6002820490506001821680610e0c57607f821691505b602082108103610e1f57610e1e610dc8565b5b50919050565b5f819050815f5260205f209050919050565b5f6020601f8301049050919050565b5f82821b905092915050565b5f60088302610e817fffffffffffffffffffffffffffffffffffffffffffffffffffffffffffffffff82610e46565b610e8b8683610e46565b95508019841693508086168417925050509392505050565b5f819050919050565b5f610ec6610ec1610ebc84610b78565b610ea3565b610b78565b9050919050565b5f819050919050565b610edf83610eac565b610ef3610eeb82610ecd565b848454610e52565b825550505050565b5f5f905090565b610f0a610efb565b610f15818484610ed6565b505050565b5b81811015610f3857610f2d5f82610f02565b600181019050610f1b565b5050565b601f821115610f7d57610f4e81610e25565b610f5784610e37565b81016020851015610f66578190505b610f7a610f7285610e37565b830182610f1a565b50505b505050565b5f82821c905092915050565b5f610f9d5f1984600802610f82565b1980831691505092915050565b5f610fb58383610f8e565b9150826002028217905092915050565b610fce82610c5e565b67ffffffffffffffff811115610fe757610fe6610a54565b5b610ff18254610df5565b610ffc828285610f3c565b5f60209050601f83116001811461102d575f841561101b578287015190505b6110258582610faa565b86555061108c565b601f19841661103b86610e25565b5f5b828110156110625784890151825560018201915060208501945060208101905061103d565b8683101561107f578489015161107b601f891682610f8e565b8355505b6001600288020188555050505b505050505050565b7f4e487b71000000000000000000000000000000000000000000000000000000005f52601160045260245ffd5b5f6110cb82610b78565b91506110d683610b78565b92508282039050818111156110ee576110ed611094565b5b92915050565b7f4e6f7420612073747564656e74000000000000000000000000000000000000005f82015250565b5f611128600d83610c68565b9150611133826110f4565b602082019050919050565b5f6020820190508181035f8301526111558161111c565b9050919050565b5f61116682610b78565b91507fffffffffffffffffffffffffffffffffffffffffffffffffffffffffffffffff820361119857611197611094565b5b600182019050919050565b7f416c726561647920612073747564656e740000000000000000000000000000005f82015250565b5f6111d7601183610c68565b91506111e2826111a3565b602082019050919050565b5f6020820190508181035f830152611204816111cb565b9050919050565b61121481610d2f565b82525050565b5f60408201905061122d5f83018561120b565b61123a6020830184610cbe565b9392505050565b7f496e76616c696420426f6f6b20494400000000000000000000000000000000005f82015250565b5f611275600f83610c68565b915061128082611241565b602082019050919050565b5f6020820190508181035f8301526112a281611269565b9050919050565b7f426f6f6b206e6f7420626f72726f7765640000000000000000000000000000005f82015250565b5f6112dd601183610c68565b91506112e8826112a9565b602082019050919050565b5f6020820190508181035f83015261130a816112d1565b9050919050565b7f4e487b71000000000000000000000000000000000000000000000000000000005f52603260045260245ffd5b7f426f6f6b20616c726561647920626f72726f77656400000000000000000000005f82015250565b5f611372601583610c68565b915061137d8261133e565b602082019050919050565b5f6020820190508181035f83015261139f81611366565b9050919050565b7f426f6f6b20696e76656e746f727920697320656d7074790000000000000000005f82015250565b5f6113da601783610c68565b91506113e5826113a6565b602082019050919050565b5f6020820190508181035f830152611407816113ce565b9050919050565b5f61141882610b78565b91505f820361142a57611429611094565b5b60018203905091905056fea2646970667358221220e65a30ac99a08d31851cc01bdca2daeceb74a22f8f1c0e2bf8169a28e99a8c8164736f6c634300081e0033",
					"opcodes": "PUSH1 0x80 PUSH1 0x40 MSTORE CALLVALUE DUP1 ISZERO PUSH1 0xE JUMPI PUSH0 PUSH0 REVERT JUMPDEST POP CALLER PUSH0 PUSH0 PUSH2 0x100 EXP DUP2 SLOAD DUP2 PUSH20 0xFFFFFFFFFFFFFFFFFFFFFFFFFFFFFFFFFFFFFFFF MUL NOT AND SWAP1 DUP4 PUSH20 0xFFFFFFFFFFFFFFFFFFFFFFFFFFFFFFFFFFFFFFFF AND MUL OR SWAP1 SSTORE POP PUSH2 0x146B DUP1 PUSH2 0x5B PUSH0 CODECOPY PUSH0 RETURN INVALID PUSH1 0x80 PUSH1 0x40 MSTORE CALLVALUE DUP1 ISZERO PUSH2 0xF JUMPI PUSH0 PUSH0 REVERT JUMPDEST POP PUSH1 0x4 CALLDATASIZE LT PUSH2 0x60 JUMPI PUSH0 CALLDATALOAD PUSH1 0xE0 SHR DUP1 PUSH4 0x4266224 EQ PUSH2 0x64 JUMPI DUP1 PUSH4 0x68744046 EQ PUSH2 0x80 JUMPI DUP1 PUSH4 0x7E490A9E EQ PUSH2 0xB2 JUMPI DUP1 PUSH4 0x82F7D392 EQ PUSH2 0xCE JUMPI DUP1 PUSH4 0xCA5140C9 EQ PUSH2 0xFE JUMPI DUP1 PUSH4 0xE596E10F EQ PUSH2 0x11A JUMPI JUMPDEST PUSH0 PUSH0 REVERT JUMPDEST PUSH2 0x7E PUSH1 0x4 DUP1 CALLDATASIZE SUB DUP2 ADD SWAP1 PUSH2 0x79 SWAP2 SWAP1 PUSH2 0xBAB JUMP JUMPDEST PUSH2 0x136 JUMP JUMPDEST STOP JUMPDEST PUSH2 0x9A PUSH1 0x4 DUP1 CALLDATASIZE SUB DUP2 ADD SWAP1 PUSH2 0x95 SWAP2 SWAP1 PUSH2 0xC33 JUMP JUMPDEST PUSH2 0x2A9 JUMP JUMPDEST PUSH1 0x40 MLOAD PUSH2 0xA9 SWAP4 SWAP3 SWAP2 SWAP1 PUSH2 0xCCD JUMP JUMPDEST PUSH1 0x40 MLOAD DUP1 SWAP2 SUB SWAP1 RETURN JUMPDEST PUSH2 0xCC PUSH1 0x4 DUP1 CALLDATASIZE SUB DUP2 ADD SWAP1 PUSH2 0xC7 SWAP2 SWAP1 PUSH2 0xC33 JUMP JUMPDEST PUSH2 0x3EA JUMP JUMPDEST STOP JUMPDEST PUSH2 0xE8 PUSH1 0x4 DUP1 CALLDATASIZE SUB DUP2 ADD SWAP1 PUSH2 0xE3 SWAP2 SWAP1 PUSH2 0xD6A JUMP JUMPDEST PUSH2 0x47F JUMP JUMPDEST PUSH1 0x40 MLOAD PUSH2 0xF5 SWAP2 SWAP1 PUSH2 0xDAF JUMP JUMPDEST PUSH1 0x40 MLOAD DUP1 SWAP2 SUB SWAP1 RETURN JUMPDEST PUSH2 0x118 PUSH1 0x4 DUP1 CALLDATASIZE SUB DUP2 ADD SWAP1 PUSH2 0x113 SWAP2 SWAP1 PUSH2 0xC33 JUMP JUMPDEST PUSH2 0x49C JUMP JUMPDEST STOP JUMPDEST PUSH2 0x134 PUSH1 0x4 DUP1 CALLDATASIZE SUB DUP2 ADD SWAP1 PUSH2 0x12F SWAP2 SWAP1 PUSH2 0xD6A JUMP JUMPDEST PUSH2 0x4BF JUMP JUMPDEST STOP JUMPDEST PUSH0 PUSH0 SWAP1 SLOAD SWAP1 PUSH2 0x100 EXP SWAP1 DIV PUSH20 0xFFFFFFFFFFFFFFFFFFFFFFFFFFFFFFFFFFFFFFFF AND PUSH20 0xFFFFFFFFFFFFFFFFFFFFFFFFFFFFFFFFFFFFFFFF AND CALLER PUSH20 0xFFFFFFFFFFFFFFFFFFFFFFFFFFFFFFFFFFFFFFFF AND EQ PUSH2 0x18D JUMPI PUSH0 PUSH0 REVERT JUMPDEST PUSH0 PUSH1 0x40 MLOAD DUP1 PUSH1 0x60 ADD PUSH1 0x40 MSTORE DUP1 DUP6 DUP2 MSTORE PUSH1 0x20 ADD DUP5 DUP2 MSTORE PUSH1 0x20 ADD DUP4 DUP2 MSTORE POP SWAP1 POP PUSH1 0x1 DUP2 SWAP1 DUP1 PUSH1 0x1 DUP2 SLOAD ADD DUP1 DUP3 SSTORE DUP1 SWAP2 POP POP PUSH1 0x1 SWAP1 SUB SWAP1 PUSH0 MSTORE PUSH1 0x20 PUSH0 KECCAK256 SWAP1 PUSH1 0x3 MUL ADD PUSH0 SWAP1 SWAP2 SWAP1 SWAP2 SWAP1 SWAP2 POP PUSH0 DUP3 ADD MLOAD DUP2 PUSH0 ADD SWAP1 DUP2 PUSH2 0x1E7 SWAP2 SWAP1 PUSH2 0xFC5 JUMP JUMPDEST POP PUSH1 0x20 DUP3 ADD MLOAD DUP2 PUSH1 0x1 ADD SWAP1 DUP2 PUSH2 0x1FD SWAP2 SWAP1 PUSH2 0xFC5 JUMP JUMPDEST POP PUSH1 0x40 DUP3 ADD MLOAD DUP2 PUSH1 0x2 ADD SSTORE POP POP PUSH0 PUSH1 0x1 DUP1 DUP1 SLOAD SWAP1 POP PUSH2 0x21C SWAP2 SWAP1 PUSH2 0x10C1 JUMP JUMPDEST SWAP1 POP DUP2 PUSH1 0x2 PUSH0 DUP4 DUP2 MSTORE PUSH1 0x20 ADD SWAP1 DUP2 MSTORE PUSH1 0x20 ADD PUSH0 KECCAK256 PUSH0 DUP3 ADD MLOAD DUP2 PUSH0 ADD SWAP1 DUP2 PUSH2 0x243 SWAP2 SWAP1 PUSH2 0xFC5 JUMP JUMPDEST POP PUSH1 0x20 DUP3 ADD MLOAD DUP2 PUSH1 0x1 ADD SWAP1 DUP2 PUSH2 0x259 SWAP2 SWAP1 PUSH2 0xFC5 JUMP JUMPDEST POP PUSH1 0x40 DUP3 ADD MLOAD DUP2 PUSH1 0x2 ADD SSTORE SWAP1 POP POP PUSH32 0xE0CF28F41F6224A2DD20FFAEB131CFB4BF849B63C819A1A03EEE314EAC687CB6 DUP6 DUP6 DUP6 PUSH1 0x40 MLOAD PUSH2 0x29A SWAP4 SWAP3 SWAP2 SWAP1 PUSH2 0xCCD JUMP JUMPDEST PUSH1 0x40 MLOAD DUP1 SWAP2 SUB SWAP1 LOG1 POP POP POP POP POP JUMP JUMPDEST PUSH1 0x1 DUP2 DUP2 SLOAD DUP2 LT PUSH2 0x2B8 JUMPI PUSH0 DUP1 REVERT JUMPDEST SWAP1 PUSH0 MSTORE PUSH1 0x20 PUSH0 KECCAK256 SWAP1 PUSH1 0x3 MUL ADD PUSH0 SWAP2 POP SWAP1 POP DUP1 PUSH0 ADD DUP1 SLOAD PUSH2 0x2D7 SWAP1 PUSH2 0xDF5 JUMP JUMPDEST DUP1 PUSH1 0x1F ADD PUSH1 0x20 DUP1 SWAP2 DIV MUL PUSH1 0x20 ADD PUSH1 0x40 MLOAD SWAP1 DUP2 ADD PUSH1 0x40 MSTORE DUP1 SWAP3 SWAP2 SWAP1 DUP2 DUP2 MSTORE PUSH1 0x20 ADD DUP3 DUP1 SLOAD PUSH2 0x303 SWAP1 PUSH2 0xDF5 JUMP JUMPDEST DUP1 ISZERO PUSH2 0x34E JUMPI DUP1 PUSH1 0x1F LT PUSH2 0x325 JUMPI PUSH2 0x100 DUP1 DUP4 SLOAD DIV MUL DUP4 MSTORE SWAP2 PUSH1 0x20 ADD SWAP2 PUSH2 0x34E JUMP JUMPDEST DUP3 ADD SWAP2 SWAP1 PUSH0 MSTORE PUSH1 0x20 PUSH0 KECCAK256 SWAP1 JUMPDEST DUP2 SLOAD DUP2 MSTORE SWAP1 PUSH1 0x1 ADD SWAP1 PUSH1 0x20 ADD DUP1 DUP4 GT PUSH2 0x331 JUMPI DUP3 SWAP1 SUB PUSH1 0x1F AND DUP3 ADD SWAP2 JUMPDEST POP POP POP POP POP SWAP1 DUP1 PUSH1 0x1 ADD DUP1 SLOAD PUSH2 0x363 SWAP1 PUSH2 0xDF5 JUMP JUMPDEST DUP1 PUSH1 0x1F ADD PUSH1 0x20 DUP1 SWAP2 DIV MUL PUSH1 0x20 ADD PUSH1 0x40 MLOAD SWAP1 DUP2 ADD PUSH1 0x40 MSTORE DUP1 SWAP3 SWAP2 SWAP1 DUP2 DUP2 MSTORE PUSH1 0x20 ADD DUP3 DUP1 SLOAD PUSH2 0x38F SWAP1 PUSH2 0xDF5 JUMP JUMPDEST DUP1 ISZERO PUSH2 0x3DA JUMPI DUP1 PUSH1 0x1F LT PUSH2 0x3B1 JUMPI PUSH2 0x100 DUP1 DUP4 SLOAD DIV MUL DUP4 MSTORE SWAP2 PUSH1 0x20 ADD SWAP2 PUSH2 0x3DA JUMP JUMPDEST DUP3 ADD SWAP2 SWAP1 PUSH0 MSTORE PUSH1 0x20 PUSH0 KECCAK256 SWAP1 JUMPDEST DUP2 SLOAD DUP2 MSTORE SWAP1 PUSH1 0x1 ADD SWAP1 PUSH1 0x20 ADD DUP1 DUP4 GT PUSH2 0x3BD JUMPI DUP3 SWAP1 SUB PUSH1 0x1F AND DUP3 ADD SWAP2 JUMPDEST POP POP POP POP POP SWAP1 DUP1 PUSH1 0x2 ADD SLOAD SWAP1 POP DUP4 JUMP JUMPDEST PUSH1 0x6 PUSH0 CALLER PUSH20 0xFFFFFFFFFFFFFFFFFFFFFFFFFFFFFFFFFFFFFFFF AND PUSH20 0xFFFFFFFFFFFFFFFFFFFFFFFFFFFFFFFFFFFFFFFF AND DUP2 MSTORE PUSH1 0x20 ADD SWAP1 DUP2 MSTORE PUSH1 0x20 ADD PUSH0 KECCAK256 PUSH0 SWAP1 SLOAD SWAP1 PUSH2 0x100 EXP SWAP1 DIV PUSH1 0xFF AND PUSH2 0x473 JUMPI PUSH1 0x40 MLOAD PUSH32 0x8C379A000000000000000000000000000000000000000000000000000000000 DUP2 MSTORE PUSH1 0x4 ADD PUSH2 0x46A SWAP1 PUSH2 0x113E JUMP JUMPDEST PUSH1 0x40 MLOAD DUP1 SWAP2 SUB SWAP1 REVERT JUMPDEST PUSH2 0x47C DUP2 PUSH2 0x631 JUMP JUMPDEST POP JUMP JUMPDEST PUSH1 0x6 PUSH1 0x20 MSTORE DUP1 PUSH0 MSTORE PUSH1 0x40 PUSH0 KECCAK256 PUSH0 SWAP2 POP SLOAD SWAP1 PUSH2 0x100 EXP SWAP1 DIV PUSH1 0xFF AND DUP2 JUMP JUMPDEST PUSH1 0x5 PUSH0 DUP2 SLOAD DUP1 SWAP3 SWAP2 SWAP1 PUSH2 0x4AE SWAP1 PUSH2 0x115C JUMP JUMPDEST SWAP2 SWAP1 POP SSTORE POP PUSH2 0x4BC DUP2 PUSH2 0x654 JUMP JUMPDEST POP JUMP JUMPDEST PUSH0 PUSH0 SWAP1 SLOAD SWAP1 PUSH2 0x100 EXP SWAP1 DIV PUSH20 0xFFFFFFFFFFFFFFFFFFFFFFFFFFFFFFFFFFFFFFFF AND PUSH20 0xFFFFFFFFFFFFFFFFFFFFFFFFFFFFFFFFFFFFFFFF AND CALLER PUSH20 0xFFFFFFFFFFFFFFFFFFFFFFFFFFFFFFFFFFFFFFFF AND EQ PUSH2 0x516 JUMPI PUSH0 PUSH0 REVERT JUMPDEST PUSH1 0x6 PUSH0 DUP3 PUSH20 0xFFFFFFFFFFFFFFFFFFFFFFFFFFFFFFFFFFFFFFFF AND PUSH20 0xFFFFFFFFFFFFFFFFFFFFFFFFFFFFFFFFFFFFFFFF AND DUP2 MSTORE PUSH1 0x20 ADD SWAP1 DUP2 MSTORE PUSH1 0x20 ADD PUSH0 KECCAK256 PUSH0 SWAP1 SLOAD SWAP1 PUSH2 0x100 EXP SWAP1 DIV PUSH1 0xFF AND ISZERO PUSH2 0x5A0 JUMPI PUSH1 0x40 MLOAD PUSH32 0x8C379A000000000000000000000000000000000000000000000000000000000 DUP2 MSTORE PUSH1 0x4 ADD PUSH2 0x597 SWAP1 PUSH2 0x11ED JUMP JUMPDEST PUSH1 0x40 MLOAD DUP1 SWAP2 SUB SWAP1 REVERT JUMPDEST PUSH1 0x1 PUSH1 0x6 PUSH0 DUP4 PUSH20 0xFFFFFFFFFFFFFFFFFFFFFFFFFFFFFFFFFFFFFFFF AND PUSH20 0xFFFFFFFFFFFFFFFFFFFFFFFFFFFFFFFFFFFFFFFF AND DUP2 MSTORE PUSH1 0x20 ADD SWAP1 DUP2 MSTORE PUSH1 0x20 ADD PUSH0 KECCAK256 PUSH0 PUSH2 0x100 EXP DUP2 SLOAD DUP2 PUSH1 0xFF MUL NOT AND SWAP1 DUP4 ISZERO ISZERO MUL OR SWAP1 SSTORE POP PUSH32 0xF07A65B60D49610ECB17A83EBD42D899043A25E314C2706E2A1029EE4FFEAD07 DUP2 TIMESTAMP PUSH1 0x40 MLOAD PUSH2 0x626 SWAP3 SWAP2 SWAP1 PUSH2 0x121A JUMP JUMPDEST PUSH1 0x40 MLOAD DUP1 SWAP2 SUB SWAP1 LOG1 POP JUMP JUMPDEST PUSH1 0x4 PUSH0 DUP2 SLOAD DUP1 SWAP3 SWAP2 SWAP1 PUSH2 0x643 SWAP1 PUSH2 0x115C JUMP JUMPDEST SWAP2 SWAP1 POP SSTORE POP PUSH2 0x651 DUP2 PUSH2 0x80C JUMP JUMPDEST POP JUMP JUMPDEST DUP1 PUSH1 0x1 DUP1 SLOAD SWAP1 POP DUP2 LT PUSH2 0x69C JUMPI PUSH1 0x40 MLOAD PUSH32 0x8C379A000000000000000000000000000000000000000000000000000000000 DUP2 MSTORE PUSH1 0x4 ADD PUSH2 0x693 SWAP1 PUSH2 0x128B JUMP JUMPDEST PUSH1 0x40 MLOAD DUP1 SWAP2 SUB SWAP1 REVERT JUMPDEST PUSH1 0x3 PUSH0 CALLER PUSH20 0xFFFFFFFFFFFFFFFFFFFFFFFFFFFFFFFFFFFFFFFF AND PUSH20 0xFFFFFFFFFFFFFFFFFFFFFFFFFFFFFFFFFFFFFFFF AND DUP2 MSTORE PUSH1 0x20 ADD SWAP1 DUP2 MSTORE PUSH1 0x20 ADD PUSH0 KECCAK256 PUSH0 DUP4 DUP2 MSTORE PUSH1 0x20 ADD SWAP1 DUP2 MSTORE PUSH1 0x20 ADD PUSH0 KECCAK256 PUSH0 SWAP1 SLOAD SWAP1 PUSH2 0x100 EXP SWAP1 DIV PUSH1 0xFF AND PUSH2 0x734 JUMPI PUSH1 0x40 MLOAD PUSH32 0x8C379A000000000000000000000000000000000000000000000000000000000 DUP2 MSTORE PUSH1 0x4 ADD PUSH2 0x72B SWAP1 PUSH2 0x12F3 JUMP JUMPDEST PUSH1 0x40 MLOAD DUP1 SWAP2 SUB SWAP1 REVERT JUMPDEST PUSH1 0x1 DUP3 DUP2 SLOAD DUP2 LT PUSH2 0x748 JUMPI PUSH2 0x747 PUSH2 0x1311 JUMP JUMPDEST JUMPDEST SWAP1 PUSH0 MSTORE PUSH1 0x20 PUSH0 KECCAK256 SWAP1 PUSH1 0x3 MUL ADD PUSH1 0x2 ADD PUSH0 DUP2 SLOAD DUP1 SWAP3 SWAP2 SWAP1 PUSH2 0x767 SWAP1 PUSH2 0x115C JUMP JUMPDEST SWAP2 SWAP1 POP SSTORE POP PUSH0 PUSH1 0x3 PUSH0 CALLER PUSH20 0xFFFFFFFFFFFFFFFFFFFFFFFFFFFFFFFFFFFFFFFF AND PUSH20 0xFFFFFFFFFFFFFFFFFFFFFFFFFFFFFFFFFFFFFFFF AND DUP2 MSTORE PUSH1 0x20 ADD SWAP1 DUP2 MSTORE PUSH1 0x20 ADD PUSH0 KECCAK256 PUSH0 DUP5 DUP2 MSTORE PUSH1 0x20 ADD SWAP1 DUP2 MSTORE PUSH1 0x20 ADD PUSH0 KECCAK256 PUSH0 PUSH2 0x100 EXP DUP2 SLOAD DUP2 PUSH1 0xFF MUL NOT AND SWAP1 DUP4 ISZERO ISZERO MUL OR SWAP1 SSTORE POP PUSH32 0x95BD1D20746D0513ACF2A85FA1F8ED7DE89FF83285974A106CA40499E16C9C8 CALLER DUP4 PUSH1 0x40 MLOAD PUSH2 0x800 SWAP3 SWAP2 SWAP1 PUSH2 0x121A JUMP JUMPDEST PUSH1 0x40 MLOAD DUP1 SWAP2 SUB SWAP1 LOG1 POP POP JUMP JUMPDEST DUP1 PUSH1 0x1 DUP1 SLOAD SWAP1 POP DUP2 LT PUSH2 0x854 JUMPI PUSH1 0x40 MLOAD PUSH32 0x8C379A000000000000000000000000000000000000000000000000000000000 DUP2 MSTORE PUSH1 0x4 ADD PUSH2 0x84B SWAP1 PUSH2 0x128B JUMP JUMPDEST PUSH1 0x40 MLOAD DUP1 SWAP2 SUB SWAP1 REVERT JUMPDEST PUSH1 0x3 PUSH0 CALLER PUSH20 0xFFFFFFFFFFFFFFFFFFFFFFFFFFFFFFFFFFFFFFFF AND PUSH20 0xFFFFFFFFFFFFFFFFFFFFFFFFFFFFFFFFFFFFFFFF AND DUP2 MSTORE PUSH1 0x20 ADD SWAP1 DUP2 MSTORE PUSH1 0x20 ADD PUSH0 KECCAK256 PUSH0 DUP4 DUP2 MSTORE PUSH1 0x20 ADD SWAP1 DUP2 MSTORE PUSH1 0x20 ADD PUSH0 KECCAK256 PUSH0 SWAP1 SLOAD SWAP1 PUSH2 0x100 EXP SWAP1 DIV PUSH1 0xFF AND ISZERO PUSH2 0x8ED JUMPI PUSH1 0x40 MLOAD PUSH32 0x8C379A000000000000000000000000000000000000000000000000000000000 DUP2 MSTORE PUSH1 0x4 ADD PUSH2 0x8E4 SWAP1 PUSH2 0x1388 JUMP JUMPDEST PUSH1 0x40 MLOAD DUP1 SWAP2 SUB SWAP1 REVERT JUMPDEST PUSH0 PUSH1 0x1 DUP4 DUP2 SLOAD DUP2 LT PUSH2 0x902 JUMPI PUSH2 0x901 PUSH2 0x1311 JUMP JUMPDEST JUMPDEST SWAP1 PUSH0 MSTORE PUSH1 0x20 PUSH0 KECCAK256 SWAP1 PUSH1 0x3 MUL ADD PUSH1 0x2 ADD SLOAD GT PUSH2 0x952 JUMPI PUSH1 0x40 MLOAD PUSH32 0x8C379A000000000000000000000000000000000000000000000000000000000 DUP2 MSTORE PUSH1 0x4 ADD PUSH2 0x949 SWAP1 PUSH2 0x13F0 JUMP JUMPDEST PUSH1 0x40 MLOAD DUP1 SWAP2 SUB SWAP1 REVERT JUMPDEST PUSH1 0x1 DUP3 DUP2 SLOAD DUP2 LT PUSH2 0x966 JUMPI PUSH2 0x965 PUSH2 0x1311 JUMP JUMPDEST JUMPDEST SWAP1 PUSH0 MSTORE PUSH1 0x20 PUSH0 KECCAK256 SWAP1 PUSH1 0x3 MUL ADD PUSH1 0x2 ADD PUSH0 DUP2 SLOAD DUP1 SWAP3 SWAP2 SWAP1 PUSH2 0x985 SWAP1 PUSH2 0x140E JUMP JUMPDEST SWAP2 SWAP1 POP SSTORE POP PUSH1 0x1 PUSH1 0x3 PUSH0 CALLER PUSH20 0xFFFFFFFFFFFFFFFFFFFFFFFFFFFFFFFFFFFFFFFF AND PUSH20 0xFFFFFFFFFFFFFFFFFFFFFFFFFFFFFFFFFFFFFFFF AND DUP2 MSTORE PUSH1 0x20 ADD SWAP1 DUP2 MSTORE PUSH1 0x20 ADD PUSH0 KECCAK256 PUSH0 DUP5 DUP2 MSTORE PUSH1 0x20 ADD SWAP1 DUP2 MSTORE PUSH1 0x20 ADD PUSH0 KECCAK256 PUSH0 PUSH2 0x100 EXP DUP2 SLOAD DUP2 PUSH1 0xFF MUL NOT AND SWAP1 DUP4 ISZERO ISZERO MUL OR SWAP1 SSTORE POP PUSH32 0x84EDAB31B887A66B8AF059A2B9C3C53E440D8B54F65102AE6ACC11BF485DB9E2 CALLER DUP4 PUSH1 0x40 MLOAD PUSH2 0xA1F SWAP3 SWAP2 SWAP1 PUSH2 0x121A JUMP JUMPDEST PUSH1 0x40 MLOAD DUP1 SWAP2 SUB SWAP1 LOG1 POP POP JUMP JUMPDEST PUSH0 PUSH1 0x40 MLOAD SWAP1 POP SWAP1 JUMP JUMPDEST PUSH0 PUSH0 REVERT JUMPDEST PUSH0 PUSH0 REVERT JUMPDEST PUSH0 PUSH0 REVERT JUMPDEST PUSH0 PUSH0 REVERT JUMPDEST PUSH0 PUSH1 0x1F NOT PUSH1 0x1F DUP4 ADD AND SWAP1 POP SWAP2 SWAP1 POP JUMP JUMPDEST PUSH32 0x4E487B7100000000000000000000000000000000000000000000000000000000 PUSH0 MSTORE PUSH1 0x41 PUSH1 0x4 MSTORE PUSH1 0x24 PUSH0 REVERT JUMPDEST PUSH2 0xA8A DUP3 PUSH2 0xA44 JUMP JUMPDEST DUP2 ADD DUP2 DUP2 LT PUSH8 0xFFFFFFFFFFFFFFFF DUP3 GT OR ISZERO PUSH2 0xAA9 JUMPI PUSH2 0xAA8 PUSH2 0xA54 JUMP JUMPDEST JUMPDEST DUP1 PUSH1 0x40 MSTORE POP POP POP JUMP JUMPDEST PUSH0 PUSH2 0xABB PUSH2 0xA2B JUMP JUMPDEST SWAP1 POP PUSH2 0xAC7 DUP3 DUP3 PUSH2 0xA81 JUMP JUMPDEST SWAP2 SWAP1 POP JUMP JUMPDEST PUSH0 PUSH8 0xFFFFFFFFFFFFFFFF DUP3 GT ISZERO PUSH2 0xAE6 JUMPI PUSH2 0xAE5 PUSH2 0xA54 JUMP JUMPDEST JUMPDEST PUSH2 0xAEF DUP3 PUSH2 0xA44 JUMP JUMPDEST SWAP1 POP PUSH1 0x20 DUP2 ADD SWAP1 POP SWAP2 SWAP1 POP JUMP JUMPDEST DUP3 DUP2 DUP4 CALLDATACOPY PUSH0 DUP4 DUP4 ADD MSTORE POP POP POP JUMP JUMPDEST PUSH0 PUSH2 0xB1C PUSH2 0xB17 DUP5 PUSH2 0xACC JUMP JUMPDEST PUSH2 0xAB2 JUMP JUMPDEST SWAP1 POP DUP3 DUP2 MSTORE PUSH1 0x20 DUP2 ADD DUP5 DUP5 DUP5 ADD GT ISZERO PUSH2 0xB38 JUMPI PUSH2 0xB37 PUSH2 0xA40 JUMP JUMPDEST JUMPDEST PUSH2 0xB43 DUP5 DUP3 DUP6 PUSH2 0xAFC JUMP JUMPDEST POP SWAP4 SWAP3 POP POP POP JUMP JUMPDEST PUSH0 DUP3 PUSH1 0x1F DUP4 ADD SLT PUSH2 0xB5F JUMPI PUSH2 0xB5E PUSH2 0xA3C JUMP JUMPDEST JUMPDEST DUP2 CALLDATALOAD PUSH2 0xB6F DUP5 DUP3 PUSH1 0x20 DUP7 ADD PUSH2 0xB0A JUMP JUMPDEST SWAP2 POP POP SWAP3 SWAP2 POP POP JUMP JUMPDEST PUSH0 DUP2 SWAP1 POP SWAP2 SWAP1 POP JUMP JUMPDEST PUSH2 0xB8A DUP2 PUSH2 0xB78 JUMP JUMPDEST DUP2 EQ PUSH2 0xB94 JUMPI PUSH0 PUSH0 REVERT JUMPDEST POP JUMP JUMPDEST PUSH0 DUP2 CALLDATALOAD SWAP1 POP PUSH2 0xBA5 DUP2 PUSH2 0xB81 JUMP JUMPDEST SWAP3 SWAP2 POP POP JUMP JUMPDEST PUSH0 PUSH0 PUSH0 PUSH1 0x60 DUP5 DUP7 SUB SLT ISZERO PUSH2 0xBC2 JUMPI PUSH2 0xBC1 PUSH2 0xA34 JUMP JUMPDEST JUMPDEST PUSH0 DUP5 ADD CALLDATALOAD PUSH8 0xFFFFFFFFFFFFFFFF DUP2 GT ISZERO PUSH2 0xBDF JUMPI PUSH2 0xBDE PUSH2 0xA38 JUMP JUMPDEST JUMPDEST PUSH2 0xBEB DUP7 DUP3 DUP8 ADD PUSH2 0xB4B JUMP JUMPDEST SWAP4 POP POP PUSH1 0x20 DUP5 ADD CALLDATALOAD PUSH8 0xFFFFFFFFFFFFFFFF DUP2 GT ISZERO PUSH2 0xC0C JUMPI PUSH2 0xC0B PUSH2 0xA38 JUMP JUMPDEST JUMPDEST PUSH2 0xC18 DUP7 DUP3 DUP8 ADD PUSH2 0xB4B JUMP JUMPDEST SWAP3 POP POP PUSH1 0x40 PUSH2 0xC29 DUP7 DUP3 DUP8 ADD PUSH2 0xB97 JUMP JUMPDEST SWAP2 POP POP SWAP3 POP SWAP3 POP SWAP3 JUMP JUMPDEST PUSH0 PUSH1 0x20 DUP3 DUP5 SUB SLT ISZERO PUSH2 0xC48 JUMPI PUSH2 0xC47 PUSH2 0xA34 JUMP JUMPDEST JUMPDEST PUSH0 PUSH2 0xC55 DUP5 DUP3 DUP6 ADD PUSH2 0xB97 JUMP JUMPDEST SWAP2 POP POP SWAP3 SWAP2 POP POP JUMP JUMPDEST PUSH0 DUP2 MLOAD SWAP1 POP SWAP2 SWAP1 POP JUMP JUMPDEST PUSH0 DUP3 DUP3 MSTORE PUSH1 0x20 DUP3 ADD SWAP1 POP SWAP3 SWAP2 POP POP JUMP JUMPDEST DUP3 DUP2 DUP4 MCOPY PUSH0 DUP4 DUP4 ADD MSTORE POP POP POP JUMP JUMPDEST PUSH0 PUSH2 0xC90 DUP3 PUSH2 0xC5E JUMP JUMPDEST PUSH2 0xC9A DUP2 DUP6 PUSH2 0xC68 JUMP JUMPDEST SWAP4 POP PUSH2 0xCAA DUP2 DUP6 PUSH1 0x20 DUP7 ADD PUSH2 0xC78 JUMP JUMPDEST PUSH2 0xCB3 DUP2 PUSH2 0xA44 JUMP JUMPDEST DUP5 ADD SWAP2 POP POP SWAP3 SWAP2 POP POP JUMP JUMPDEST PUSH2 0xCC7 DUP2 PUSH2 0xB78 JUMP JUMPDEST DUP3 MSTORE POP POP JUMP JUMPDEST PUSH0 PUSH1 0x60 DUP3 ADD SWAP1 POP DUP2 DUP2 SUB PUSH0 DUP4 ADD MSTORE PUSH2 0xCE5 DUP2 DUP7 PUSH2 0xC86 JUMP JUMPDEST SWAP1 POP DUP2 DUP2 SUB PUSH1 0x20 DUP4 ADD MSTORE PUSH2 0xCF9 DUP2 DUP6 PUSH2 0xC86 JUMP JUMPDEST SWAP1 POP PUSH2 0xD08 PUSH1 0x40 DUP4 ADD DUP5 PUSH2 0xCBE JUMP JUMPDEST SWAP5 SWAP4 POP POP POP POP JUMP JUMPDEST PUSH0 PUSH20 0xFFFFFFFFFFFFFFFFFFFFFFFFFFFFFFFFFFFFFFFF DUP3 AND SWAP1 POP SWAP2 SWAP1 POP JUMP JUMPDEST PUSH0 PUSH2 0xD39 DUP3 PUSH2 0xD10 JUMP JUMPDEST SWAP1 POP SWAP2 SWAP1 POP JUMP JUMPDEST PUSH2 0xD49 DUP2 PUSH2 0xD2F JUMP JUMPDEST DUP2 EQ PUSH2 0xD53 JUMPI PUSH0 PUSH0 REVERT JUMPDEST POP JUMP JUMPDEST PUSH0 DUP2 CALLDATALOAD SWAP1 POP PUSH2 0xD64 DUP2 PUSH2 0xD40 JUMP JUMPDEST SWAP3 SWAP2 POP POP JUMP JUMPDEST PUSH0 PUSH1 0x20 DUP3 DUP5 SUB SLT ISZERO PUSH2 0xD7F JUMPI PUSH2 0xD7E PUSH2 0xA34 JUMP JUMPDEST JUMPDEST PUSH0 PUSH2 0xD8C DUP5 DUP3 DUP6 ADD PUSH2 0xD56 JUMP JUMPDEST SWAP2 POP POP SWAP3 SWAP2 POP POP JUMP JUMPDEST PUSH0 DUP2 ISZERO ISZERO SWAP1 POP SWAP2 SWAP1 POP JUMP JUMPDEST PUSH2 0xDA9 DUP2 PUSH2 0xD95 JUMP JUMPDEST DUP3 MSTORE POP POP JUMP JUMPDEST PUSH0 PUSH1 0x20 DUP3 ADD SWAP1 POP PUSH2 0xDC2 PUSH0 DUP4 ADD DUP5 PUSH2 0xDA0 JUMP JUMPDEST SWAP3 SWAP2 POP POP JUMP JUMPDEST PUSH32 0x4E487B7100000000000000000000000000000000000000000000000000000000 PUSH0 MSTORE PUSH1 0x22 PUSH1 0x4 MSTORE PUSH1 0x24 PUSH0 REVERT JUMPDEST PUSH0 PUSH1 0x2 DUP3 DIV SWAP1 POP PUSH1 0x1 DUP3 AND DUP1 PUSH2 0xE0C JUMPI PUSH1 0x7F DUP3 AND SWAP2 POP JUMPDEST PUSH1 0x20 DUP3 LT DUP2 SUB PUSH2 0xE1F JUMPI PUSH2 0xE1E PUSH2 0xDC8 JUMP JUMPDEST JUMPDEST POP SWAP2 SWAP1 POP JUMP JUMPDEST PUSH0 DUP2 SWAP1 POP DUP2 PUSH0 MSTORE PUSH1 0x20 PUSH0 KECCAK256 SWAP1 POP SWAP2 SWAP1 POP JUMP JUMPDEST PUSH0 PUSH1 0x20 PUSH1 0x1F DUP4 ADD DIV SWAP1 POP SWAP2 SWAP1 POP JUMP JUMPDEST PUSH0 DUP3 DUP3 SHL SWAP1 POP SWAP3 SWAP2 POP POP JUMP JUMPDEST PUSH0 PUSH1 0x8 DUP4 MUL PUSH2 0xE81 PUSH32 0xFFFFFFFFFFFFFFFFFFFFFFFFFFFFFFFFFFFFFFFFFFFFFFFFFFFFFFFFFFFFFFFF DUP3 PUSH2 0xE46 JUMP JUMPDEST PUSH2 0xE8B DUP7 DUP4 PUSH2 0xE46 JUMP JUMPDEST SWAP6 POP DUP1 NOT DUP5 AND SWAP4 POP DUP1 DUP7 AND DUP5 OR SWAP3 POP POP POP SWAP4 SWAP3 POP POP POP JUMP JUMPDEST PUSH0 DUP2 SWAP1 POP SWAP2 SWAP1 POP JUMP JUMPDEST PUSH0 PUSH2 0xEC6 PUSH2 0xEC1 PUSH2 0xEBC DUP5 PUSH2 0xB78 JUMP JUMPDEST PUSH2 0xEA3 JUMP JUMPDEST PUSH2 0xB78 JUMP JUMPDEST SWAP1 POP SWAP2 SWAP1 POP JUMP JUMPDEST PUSH0 DUP2 SWAP1 POP SWAP2 SWAP1 POP JUMP JUMPDEST PUSH2 0xEDF DUP4 PUSH2 0xEAC JUMP JUMPDEST PUSH2 0xEF3 PUSH2 0xEEB DUP3 PUSH2 0xECD JUMP JUMPDEST DUP5 DUP5 SLOAD PUSH2 0xE52 JUMP JUMPDEST DUP3 SSTORE POP POP POP POP JUMP JUMPDEST PUSH0 PUSH0 SWAP1 POP SWAP1 JUMP JUMPDEST PUSH2 0xF0A PUSH2 0xEFB JUMP JUMPDEST PUSH2 0xF15 DUP2 DUP5 DUP5 PUSH2 0xED6 JUMP JUMPDEST POP POP POP JUMP JUMPDEST JUMPDEST DUP2 DUP2 LT ISZERO PUSH2 0xF38 JUMPI PUSH2 0xF2D PUSH0 DUP3 PUSH2 0xF02 JUMP JUMPDEST PUSH1 0x1 DUP2 ADD SWAP1 POP PUSH2 0xF1B JUMP JUMPDEST POP POP JUMP JUMPDEST PUSH1 0x1F DUP3 GT ISZERO PUSH2 0xF7D JUMPI PUSH2 0xF4E DUP2 PUSH2 0xE25 JUMP JUMPDEST PUSH2 0xF57 DUP5 PUSH2 0xE37 JUMP JUMPDEST DUP2 ADD PUSH1 0x20 DUP6 LT ISZERO PUSH2 0xF66 JUMPI DUP2 SWAP1 POP JUMPDEST PUSH2 0xF7A PUSH2 0xF72 DUP6 PUSH2 0xE37 JUMP JUMPDEST DUP4 ADD DUP3 PUSH2 0xF1A JUMP JUMPDEST POP POP JUMPDEST POP POP POP JUMP JUMPDEST PUSH0 DUP3 DUP3 SHR SWAP1 POP SWAP3 SWAP2 POP POP JUMP JUMPDEST PUSH0 PUSH2 0xF9D PUSH0 NOT DUP5 PUSH1 0x8 MUL PUSH2 0xF82 JUMP JUMPDEST NOT DUP1 DUP4 AND SWAP2 POP POP SWAP3 SWAP2 POP POP JUMP JUMPDEST PUSH0 PUSH2 0xFB5 DUP4 DUP4 PUSH2 0xF8E JUMP JUMPDEST SWAP2 POP DUP3 PUSH1 0x2 MUL DUP3 OR SWAP1 POP SWAP3 SWAP2 POP POP JUMP JUMPDEST PUSH2 0xFCE DUP3 PUSH2 0xC5E JUMP JUMPDEST PUSH8 0xFFFFFFFFFFFFFFFF DUP2 GT ISZERO PUSH2 0xFE7 JUMPI PUSH2 0xFE6 PUSH2 0xA54 JUMP JUMPDEST JUMPDEST PUSH2 0xFF1 DUP3 SLOAD PUSH2 0xDF5 JUMP JUMPDEST PUSH2 0xFFC DUP3 DUP3 DUP6 PUSH2 0xF3C JUMP JUMPDEST PUSH0 PUSH1 0x20 SWAP1 POP PUSH1 0x1F DUP4 GT PUSH1 0x1 DUP2 EQ PUSH2 0x102D JUMPI PUSH0 DUP5 ISZERO PUSH2 0x101B JUMPI DUP3 DUP8 ADD MLOAD SWAP1 POP JUMPDEST PUSH2 0x1025 DUP6 DUP3 PUSH2 0xFAA JUMP JUMPDEST DUP7 SSTORE POP PUSH2 0x108C JUMP JUMPDEST PUSH1 0x1F NOT DUP5 AND PUSH2 0x103B DUP7 PUSH2 0xE25 JUMP JUMPDEST PUSH0 JUMPDEST DUP3 DUP2 LT ISZERO PUSH2 0x1062 JUMPI DUP5 DUP10 ADD MLOAD DUP3 SSTORE PUSH1 0x1 DUP3 ADD SWAP2 POP PUSH1 0x20 DUP6 ADD SWAP5 POP PUSH1 0x20 DUP2 ADD SWAP1 POP PUSH2 0x103D JUMP JUMPDEST DUP7 DUP4 LT ISZERO PUSH2 0x107F JUMPI DUP5 DUP10 ADD MLOAD PUSH2 0x107B PUSH1 0x1F DUP10 AND DUP3 PUSH2 0xF8E JUMP JUMPDEST DUP4 SSTORE POP JUMPDEST PUSH1 0x1 PUSH1 0x2 DUP9 MUL ADD DUP9 SSTORE POP POP POP JUMPDEST POP POP POP POP POP POP JUMP JUMPDEST PUSH32 0x4E487B7100000000000000000000000000000000000000000000000000000000 PUSH0 MSTORE PUSH1 0x11 PUSH1 0x4 MSTORE PUSH1 0x24 PUSH0 REVERT JUMPDEST PUSH0 PUSH2 0x10CB DUP3 PUSH2 0xB78 JUMP JUMPDEST SWAP2 POP PUSH2 0x10D6 DUP4 PUSH2 0xB78 JUMP JUMPDEST SWAP3 POP DUP3 DUP3 SUB SWAP1 POP DUP2 DUP2 GT ISZERO PUSH2 0x10EE JUMPI PUSH2 0x10ED PUSH2 0x1094 JUMP JUMPDEST JUMPDEST SWAP3 SWAP2 POP POP JUMP JUMPDEST PUSH32 0x4E6F7420612073747564656E7400000000000000000000000000000000000000 PUSH0 DUP3 ADD MSTORE POP JUMP JUMPDEST PUSH0 PUSH2 0x1128 PUSH1 0xD DUP4 PUSH2 0xC68 JUMP JUMPDEST SWAP2 POP PUSH2 0x1133 DUP3 PUSH2 0x10F4 JUMP JUMPDEST PUSH1 0x20 DUP3 ADD SWAP1 POP SWAP2 SWAP1 POP JUMP JUMPDEST PUSH0 PUSH1 0x20 DUP3 ADD SWAP1 POP DUP2 DUP2 SUB PUSH0 DUP4 ADD MSTORE PUSH2 0x1155 DUP2 PUSH2 0x111C JUMP JUMPDEST SWAP1 POP SWAP2 SWAP1 POP JUMP JUMPDEST PUSH0 PUSH2 0x1166 DUP3 PUSH2 0xB78 JUMP JUMPDEST SWAP2 POP PUSH32 0xFFFFFFFFFFFFFFFFFFFFFFFFFFFFFFFFFFFFFFFFFFFFFFFFFFFFFFFFFFFFFFFF DUP3 SUB PUSH2 0x1198 JUMPI PUSH2 0x1197 PUSH2 0x1094 JUMP JUMPDEST JUMPDEST PUSH1 0x1 DUP3 ADD SWAP1 POP SWAP2 SWAP1 POP JUMP JUMPDEST PUSH32 0x416C726561647920612073747564656E74000000000000000000000000000000 PUSH0 DUP3 ADD MSTORE POP JUMP JUMPDEST PUSH0 PUSH2 0x11D7 PUSH1 0x11 DUP4 PUSH2 0xC68 JUMP JUMPDEST SWAP2 POP PUSH2 0x11E2 DUP3 PUSH2 0x11A3 JUMP JUMPDEST PUSH1 0x20 DUP3 ADD SWAP1 POP SWAP2 SWAP1 POP JUMP JUMPDEST PUSH0 PUSH1 0x20 DUP3 ADD SWAP1 POP DUP2 DUP2 SUB PUSH0 DUP4 ADD MSTORE PUSH2 0x1204 DUP2 PUSH2 0x11CB JUMP JUMPDEST SWAP1 POP SWAP2 SWAP1 POP JUMP JUMPDEST PUSH2 0x1214 DUP2 PUSH2 0xD2F JUMP JUMPDEST DUP3 MSTORE POP POP JUMP JUMPDEST PUSH0 PUSH1 0x40 DUP3 ADD SWAP1 POP PUSH2 0x122D PUSH0 DUP4 ADD DUP6 PUSH2 0x120B JUMP JUMPDEST PUSH2 0x123A PUSH1 0x20 DUP4 ADD DUP5 PUSH2 0xCBE JUMP JUMPDEST SWAP4 SWAP3 POP POP POP JUMP JUMPDEST PUSH32 0x496E76616C696420426F6F6B2049440000000000000000000000000000000000 PUSH0 DUP3 ADD MSTORE POP JUMP JUMPDEST PUSH0 PUSH2 0x1275 PUSH1 0xF DUP4 PUSH2 0xC68 JUMP JUMPDEST SWAP2 POP PUSH2 0x1280 DUP3 PUSH2 0x1241 JUMP JUMPDEST PUSH1 0x20 DUP3 ADD SWAP1 POP SWAP2 SWAP1 POP JUMP JUMPDEST PUSH0 PUSH1 0x20 DUP3 ADD SWAP1 POP DUP2 DUP2 SUB PUSH0 DUP4 ADD MSTORE PUSH2 0x12A2 DUP2 PUSH2 0x1269 JUMP JUMPDEST SWAP1 POP SWAP2 SWAP1 POP JUMP JUMPDEST PUSH32 0x426F6F6B206E6F7420626F72726F776564000000000000000000000000000000 PUSH0 DUP3 ADD MSTORE POP JUMP JUMPDEST PUSH0 PUSH2 0x12DD PUSH1 0x11 DUP4 PUSH2 0xC68 JUMP JUMPDEST SWAP2 POP PUSH2 0x12E8 DUP3 PUSH2 0x12A9 JUMP JUMPDEST PUSH1 0x20 DUP3 ADD SWAP1 POP SWAP2 SWAP1 POP JUMP JUMPDEST PUSH0 PUSH1 0x20 DUP3 ADD SWAP1 POP DUP2 DUP2 SUB PUSH0 DUP4 ADD MSTORE PUSH2 0x130A DUP2 PUSH2 0x12D1 JUMP JUMPDEST SWAP1 POP SWAP2 SWAP1 POP JUMP JUMPDEST PUSH32 0x4E487B7100000000000000000000000000000000000000000000000000000000 PUSH0 MSTORE PUSH1 0x32 PUSH1 0x4 MSTORE PUSH1 0x24 PUSH0 REVERT JUMPDEST PUSH32 0x426F6F6B20616C726561647920626F72726F7765640000000000000000000000 PUSH0 DUP3 ADD MSTORE POP JUMP JUMPDEST PUSH0 PUSH2 0x1372 PUSH1 0x15 DUP4 PUSH2 0xC68 JUMP JUMPDEST SWAP2 POP PUSH2 0x137D DUP3 PUSH2 0x133E JUMP JUMPDEST PUSH1 0x20 DUP3 ADD SWAP1 POP SWAP2 SWAP1 POP JUMP JUMPDEST PUSH0 PUSH1 0x20 DUP3 ADD SWAP1 POP DUP2 DUP2 SUB PUSH0 DUP4 ADD MSTORE PUSH2 0x139F DUP2 PUSH2 0x1366 JUMP JUMPDEST SWAP1 POP SWAP2 SWAP1 POP JUMP JUMPDEST PUSH32 0x426F6F6B20696E76656E746F727920697320656D707479000000000000000000 PUSH0 DUP3 ADD MSTORE POP JUMP JUMPDEST PUSH0 PUSH2 0x13DA PUSH1 0x17 DUP4 PUSH2 0xC68 JUMP JUMPDEST SWAP2 POP PUSH2 0x13E5 DUP3 PUSH2 0x13A6 JUMP JUMPDEST PUSH1 0x20 DUP3 ADD SWAP1 POP SWAP2 SWAP1 POP JUMP JUMPDEST PUSH0 PUSH1 0x20 DUP3 ADD SWAP1 POP DUP2 DUP2 SUB PUSH0 DUP4 ADD MSTORE PUSH2 0x1407 DUP2 PUSH2 0x13CE JUMP JUMPDEST SWAP1 POP SWAP2 SWAP1 POP JUMP JUMPDEST PUSH0 PUSH2 0x1418 DUP3 PUSH2 0xB78 JUMP JUMPDEST SWAP2 POP PUSH0 DUP3 SUB PUSH2 0x142A JUMPI PUSH2 0x1429 PUSH2 0x1094 JUMP JUMPDEST JUMPDEST PUSH1 0x1 DUP3 SUB SWAP1 POP SWAP2 SWAP1 POP JUMP INVALID LOG2 PUSH5 0x6970667358 0x22 SLT KECCAK256 DUPN 0x5A ADDRESS 0xAC SWAP10 LOG0 DUP14 BALANCE DUP6 SHR 0xC0 SHL 0xDC LOG2 0xDA EOFCREATE 0xEB PUSH21 0xA22F8F1C0E2BF8169A28E99A8C8164736F6C634300 ADDMOD 0x1E STOP CALLER "
				},
				"gasEstimates": {
					"creation": {
						"codeDepositCost": "1045400",
						"executionCost": "25349",
						"totalCost": "1070749"
					},
					"external": {
						"addBook(string,string,uint256)": "infinite",
						"addStudents(address)": "infinite",
						"books(uint256)": "infinite",
						"borrowBook(uint256)": "infinite",
						"isStudent(address)": "2877",
						"returnBook(uint256)": "infinite"
					}
				},
				"methodIdentifiers": {
					"addBook(string,string,uint256)": "04266224",
					"addStudents(address)": "e596e10f",
					"books(uint256)": "68744046",
					"borrowBook(uint256)": "7e490a9e",
					"isStudent(address)": "82f7d392",
					"returnBook(uint256)": "ca5140c9"
				}
			},
			"storageLayout": {
				"storage": [
					{
						"astId": 3,
						"contract": "contracts/PHASE INHERITANCE/Library System.sol:SchoolLibrary",
						"label": "owner",
						"offset": 0,
						"slot": "0",
						"type": "t_address"
					},
					{
						"astId": 14,
						"contract": "contracts/PHASE INHERITANCE/Library System.sol:SchoolLibrary",
						"label": "books",
						"offset": 0,
						"slot": "1",
						"type": "t_array(t_struct(Book)10_storage)dyn_storage"
					},
					{
						"astId": 19,
						"contract": "contracts/PHASE INHERITANCE/Library System.sol:SchoolLibrary",
						"label": "bookId",
						"offset": 0,
						"slot": "2",
						"type": "t_mapping(t_uint256,t_struct(Book)10_storage)"
					},
					{
						"astId": 25,
						"contract": "contracts/PHASE INHERITANCE/Library System.sol:SchoolLibrary",
						"label": "hasBorrowed",
						"offset": 0,
						"slot": "3",
						"type": "t_mapping(t_address,t_mapping(t_uint256,t_bool))"
					},
					{
						"astId": 221,
						"contract": "contracts/PHASE INHERITANCE/Library System.sol:SchoolLibrary",
						"label": "totalBorrowed",
						"offset": 0,
						"slot": "4",
						"type": "t_uint256"
					},
					{
						"astId": 223,
						"contract": "contracts/PHASE INHERITANCE/Library System.sol:SchoolLibrary",
						"label": "totalReturned",
						"offset": 0,
						"slot": "5",
						"type": "t_uint256"
					},
					{
						"astId": 262,
						"contract": "contracts/PHASE INHERITANCE/Library System.sol:SchoolLibrary",
						"label": "isStudent",
						"offset": 0,
						"slot": "6",
						"type": "t_mapping(t_address,t_bool)"
					}
				],
				"types": {
					"t_address": {
						"encoding": "inplace",
						"label": "address",
						"numberOfBytes": "20"
					},
					"t_array(t_struct(Book)10_storage)dyn_storage": {
						"base": "t_struct(Book)10_storage",
						"encoding": "dynamic_array",
						"label": "struct LibraryBase.Book[]",
						"numberOfBytes": "32"
					},
					"t_bool": {
						"encoding": "inplace",
						"label": "bool",
						"numberOfBytes": "1"
					},
					"t_mapping(t_address,t_bool)": {
						"encoding": "mapping",
						"key": "t_address",
						"label": "mapping(address => bool)",
						"numberOfBytes": "32",
						"value": "t_bool"
					},
					"t_mapping(t_address,t_mapping(t_uint256,t_bool))": {
						"encoding": "mapping",
						"key": "t_address",
						"label": "mapping(address => mapping(uint256 => bool))",
						"numberOfBytes": "32",
						"value": "t_mapping(t_uint256,t_bool)"
					},
					"t_mapping(t_uint256,t_bool)": {
						"encoding": "mapping",
						"key": "t_uint256",
						"label": "mapping(uint256 => bool)",
						"numberOfBytes": "32",
						"value": "t_bool"
					},
					"t_mapping(t_uint256,t_struct(Book)10_storage)": {
						"encoding": "mapping",
						"key": "t_uint256",
						"label": "mapping(uint256 => struct LibraryBase.Book)",
						"numberOfBytes": "32",
						"value": "t_struct(Book)10_storage"
					},
					"t_string_storage": {
						"encoding": "bytes",
						"label": "string",
						"numberOfBytes": "32"
					},
					"t_struct(Book)10_storage": {
						"encoding": "inplace",
						"label": "struct LibraryBase.Book",
						"members": [
							{
								"astId": 5,
								"contract": "contracts/PHASE INHERITANCE/Library System.sol:SchoolLibrary",
								"label": "title",
								"offset": 0,
								"slot": "0",
								"type": "t_string_storage"
							},
							{
								"astId": 7,
								"contract": "contracts/PHASE INHERITANCE/Library System.sol:SchoolLibrary",
								"label": "author",
								"offset": 0,
								"slot": "1",
								"type": "t_string_storage"
							},
							{
								"astId": 9,
								"contract": "contracts/PHASE INHERITANCE/Library System.sol:SchoolLibrary",
								"label": "copies",
								"offset": 0,
								"slot": "2",
								"type": "t_uint256"
							}
						],
						"numberOfBytes": "96"
					},
					"t_uint256": {
						"encoding": "inplace",
						"label": "uint256",
						"numberOfBytes": "32"
					}
				}
			},
			"userdoc": {
				"kind": "user",
				"methods": {},
				"version": 1
			}
		}
	}
}