{
	"contracts/PHASE INHERITANCE/Access-Controlled Voting.sol": {
		"RestrictedVoting": {
			"abi": [
				{
					"anonymous": false,
					"inputs": [
						{
							"indexed": true,
							"internalType": "address",
							"name": "creator",
							"type": "address"
						},
						{
							"indexed": false,
							"internalType": "uint256",
							"name": "id",
							"type": "uint256"
						},
						{
							"indexed": false,
							"internalType": "uint256",
							"name": "timestamp",
							"type": "uint256"
						}
					],
					"name": "ProposalCreated",
					"type": "event"
				},
				{
					"anonymous": false,
					"inputs": [
						{
							"indexed": true,
							"internalType": "address",
							"name": "voter",
							"type": "address"
						},
						{
							"indexed": false,
							"internalType": "uint256",
							"name": "id",
							"type": "uint256"
						},
						{
							"indexed": false,
							"internalType": "uint256",
							"name": "timestamp",
							"type": "uint256"
						}
					],
					"name": "VoteCasted",
					"type": "event"
				},
				{
					"anonymous": false,
					"inputs": [
						{
							"indexed": false,
							"internalType": "address",
							"name": "voter",
							"type": "address"
						},
						{
							"indexed": false,
							"internalType": "uint256",
							"name": "timestamp",
							"type": "uint256"
						}
					],
					"name": "VoterAdded",
					"type": "event"
				},
				{
					"inputs": [
						{
							"internalType": "address",
							"name": "_voter",
							"type": "address"
						}
					],
					"name": "addVoter",
					"outputs": [],
					"stateMutability": "nonpayable",
					"type": "function"
				},
				{
					"inputs": [],
					"name": "admin",
					"outputs": [
						{
							"internalType": "address",
							"name": "",
							"type": "address"
						}
					],
					"stateMutability": "view",
					"type": "function"
				},
				{
					"inputs": [
						{
							"internalType": "string",
							"name": "_name",
							"type": "string"
						}
					],
					"name": "createProposal",
					"outputs": [],
					"stateMutability": "nonpayable",
					"type": "function"
				},
				{
					"inputs": [
						{
							"internalType": "uint256",
							"name": "",
							"type": "uint256"
						}
					],
					"name": "proposals",
					"outputs": [
						{
							"internalType": "string",
							"name": "name",
							"type": "string"
						},
						{
							"internalType": "uint256",
							"name": "voteCount",
							"type": "uint256"
						}
					],
					"stateMutability": "view",
					"type": "function"
				},
				{
					"inputs": [
						{
							"internalType": "uint256",
							"name": "_id",
							"type": "uint256"
						}
					],
					"name": "vote",
					"outputs": [],
					"stateMutability": "nonpayable",
					"type": "function"
				}
			],
			"devdoc": {
				"kind": "dev",
				"methods": {},
				"version": 1
			},
			"evm": {
				"assembly": "    /* \"contracts/PHASE INHERITANCE/Access-Controlled Voting.sol\":1403:1879  contract RestrictedVoting is AdminVoting {... */\n  mstore(0x40, 0x80)\n  callvalue\n  dup1\n  iszero\n  tag_1\n  jumpi\n  revert(0x00, 0x00)\ntag_1:\n  pop\n    /* \"contracts/PHASE INHERITANCE/Access-Controlled Voting.sol\":1262:1272  msg.sender */\n  caller\n    /* \"contracts/PHASE INHERITANCE/Access-Controlled Voting.sol\":1254:1259  admin */\n  0x03\n  0x00\n    /* \"contracts/PHASE INHERITANCE/Access-Controlled Voting.sol\":1254:1272  admin = msg.sender */\n  0x0100\n  exp\n  dup2\n  sload\n  dup2\n  0xffffffffffffffffffffffffffffffffffffffff\n  mul\n  not\n  and\n  swap1\n  dup4\n  0xffffffffffffffffffffffffffffffffffffffff\n  and\n  mul\n  or\n  swap1\n  sstore\n  pop\n    /* \"contracts/PHASE INHERITANCE/Access-Controlled Voting.sol\":1403:1879  contract RestrictedVoting is AdminVoting {... */\n  dataSize(sub_0)\n  dup1\n  dataOffset(sub_0)\n  0x00\n  codecopy\n  0x00\n  return\nstop\n\nsub_0: assembly {\n        /* \"contracts/PHASE INHERITANCE/Access-Controlled Voting.sol\":1403:1879  contract RestrictedVoting is AdminVoting {... */\n      mstore(0x40, 0x80)\n      callvalue\n      dup1\n      iszero\n      tag_1\n      jumpi\n      revert(0x00, 0x00)\n    tag_1:\n      pop\n      jumpi(tag_2, lt(calldatasize, 0x04))\n      shr(0xe0, calldataload(0x00))\n      dup1\n      0x0121b93f\n      eq\n      tag_3\n      jumpi\n      dup1\n      0x013cf08b\n      eq\n      tag_4\n      jumpi\n      dup1\n      0x49c2a1a6\n      eq\n      tag_5\n      jumpi\n      dup1\n      0xf4ab9adf\n      eq\n      tag_6\n      jumpi\n      dup1\n      0xf851a440\n      eq\n      tag_7\n      jumpi\n    tag_2:\n      revert(0x00, 0x00)\n        /* \"contracts/PHASE INHERITANCE/Access-Controlled Voting.sol\":1740:1877  function vote(uint _id) public override {... */\n    tag_3:\n      tag_8\n      0x04\n      dup1\n      calldatasize\n      sub\n      dup2\n      add\n      swap1\n      tag_9\n      swap2\n      swap1\n      tag_10\n      jump\t// in\n    tag_9:\n      tag_11\n      jump\t// in\n    tag_8:\n      stop\n        /* \"contracts/PHASE INHERITANCE/Access-Controlled Voting.sol\":154:181  Proposal[] public proposals */\n    tag_4:\n      tag_12\n      0x04\n      dup1\n      calldatasize\n      sub\n      dup2\n      add\n      swap1\n      tag_13\n      swap2\n      swap1\n      tag_10\n      jump\t// in\n    tag_13:\n      tag_14\n      jump\t// in\n    tag_12:\n      mload(0x40)\n      tag_15\n      swap3\n      swap2\n      swap1\n      tag_16\n      jump\t// in\n    tag_15:\n      mload(0x40)\n      dup1\n      swap2\n      sub\n      swap1\n      return\n        /* \"contracts/PHASE INHERITANCE/Access-Controlled Voting.sol\":1284:1398  function createProposal(string memory _name) public override onlyAdmin{... */\n    tag_5:\n      tag_17\n      0x04\n      dup1\n      calldatasize\n      sub\n      dup2\n      add\n      swap1\n      tag_18\n      swap2\n      swap1\n      tag_19\n      jump\t// in\n    tag_18:\n      tag_20\n      jump\t// in\n    tag_17:\n      stop\n        /* \"contracts/PHASE INHERITANCE/Access-Controlled Voting.sol\":1541:1735  function addVoter(address _voter) public onlyAdmin {... */\n    tag_6:\n      tag_21\n      0x04\n      dup1\n      calldatasize\n      sub\n      dup2\n      add\n      swap1\n      tag_22\n      swap2\n      swap1\n      tag_23\n      jump\t// in\n    tag_22:\n      tag_24\n      jump\t// in\n    tag_21:\n      stop\n        /* \"contracts/PHASE INHERITANCE/Access-Controlled Voting.sol\":1109:1129  address public admin */\n    tag_7:\n      tag_25\n      tag_26\n      jump\t// in\n    tag_25:\n      mload(0x40)\n      tag_27\n      swap2\n      swap1\n      tag_28\n      jump\t// in\n    tag_27:\n      mload(0x40)\n      dup1\n      swap2\n      sub\n      swap1\n      return\n        /* \"contracts/PHASE INHERITANCE/Access-Controlled Voting.sol\":1740:1877  function vote(uint _id) public override {... */\n    tag_11:\n        /* \"contracts/PHASE INHERITANCE/Access-Controlled Voting.sol\":1798:1805  canVote */\n      0x04\n        /* \"contracts/PHASE INHERITANCE/Access-Controlled Voting.sol\":1798:1817  canVote[msg.sender] */\n      0x00\n        /* \"contracts/PHASE INHERITANCE/Access-Controlled Voting.sol\":1806:1816  msg.sender */\n      caller\n        /* \"contracts/PHASE INHERITANCE/Access-Controlled Voting.sol\":1798:1817  canVote[msg.sender] */\n      0xffffffffffffffffffffffffffffffffffffffff\n      and\n      0xffffffffffffffffffffffffffffffffffffffff\n      and\n      dup2\n      mstore\n      0x20\n      add\n      swap1\n      dup2\n      mstore\n      0x20\n      add\n      0x00\n      keccak256\n      0x00\n      swap1\n      sload\n      swap1\n      0x0100\n      exp\n      swap1\n      div\n      0xff\n      and\n        /* \"contracts/PHASE INHERITANCE/Access-Controlled Voting.sol\":1790:1845  require(canVote[msg.sender], \"Not a whitelisted voter\") */\n      tag_30\n      jumpi\n      mload(0x40)\n      0x08c379a000000000000000000000000000000000000000000000000000000000\n      dup2\n      mstore\n      0x04\n      add\n      tag_31\n      swap1\n      tag_32\n      jump\t// in\n    tag_31:\n      mload(0x40)\n      dup1\n      swap2\n      sub\n      swap1\n      revert\n    tag_30:\n        /* \"contracts/PHASE INHERITANCE/Access-Controlled Voting.sol\":1855:1870  super.vote(_id) */\n      tag_33\n        /* \"contracts/PHASE INHERITANCE/Access-Controlled Voting.sol\":1866:1869  _id */\n      dup2\n        /* \"contracts/PHASE INHERITANCE/Access-Controlled Voting.sol\":1855:1865  super.vote */\n      tag_34\n        /* \"contracts/PHASE INHERITANCE/Access-Controlled Voting.sol\":1855:1870  super.vote(_id) */\n      jump\t// in\n    tag_33:\n        /* \"contracts/PHASE INHERITANCE/Access-Controlled Voting.sol\":1740:1877  function vote(uint _id) public override {... */\n      pop\n      jump\t// out\n        /* \"contracts/PHASE INHERITANCE/Access-Controlled Voting.sol\":154:181  Proposal[] public proposals */\n    tag_14:\n      0x00\n      dup2\n      dup2\n      sload\n      dup2\n      lt\n      tag_35\n      jumpi\n      0x00\n      dup1\n      revert\n    tag_35:\n      swap1\n      0x00\n      mstore\n      keccak256(0x00, 0x20)\n      swap1\n      0x02\n      mul\n      add\n      0x00\n      swap2\n      pop\n      swap1\n      pop\n      dup1\n      0x00\n      add\n      dup1\n      sload\n      tag_37\n      swap1\n      tag_38\n      jump\t// in\n    tag_37:\n      dup1\n      0x1f\n      add\n      0x20\n      dup1\n      swap2\n      div\n      mul\n      0x20\n      add\n      mload(0x40)\n      swap1\n      dup2\n      add\n      0x40\n      mstore\n      dup1\n      swap3\n      swap2\n      swap1\n      dup2\n      dup2\n      mstore\n      0x20\n      add\n      dup3\n      dup1\n      sload\n      tag_39\n      swap1\n      tag_38\n      jump\t// in\n    tag_39:\n      dup1\n      iszero\n      tag_40\n      jumpi\n      dup1\n      0x1f\n      lt\n      tag_41\n      jumpi\n      0x0100\n      dup1\n      dup4\n      sload\n      div\n      mul\n      dup4\n      mstore\n      swap2\n      0x20\n      add\n      swap2\n      jump(tag_40)\n    tag_41:\n      dup3\n      add\n      swap2\n      swap1\n      0x00\n      mstore\n      keccak256(0x00, 0x20)\n      swap1\n    tag_42:\n      dup2\n      sload\n      dup2\n      mstore\n      swap1\n      0x01\n      add\n      swap1\n      0x20\n      add\n      dup1\n      dup4\n      gt\n      tag_42\n      jumpi\n      dup3\n      swap1\n      sub\n      0x1f\n      and\n      dup3\n      add\n      swap2\n    tag_40:\n      pop\n      pop\n      pop\n      pop\n      pop\n      swap1\n      dup1\n      0x01\n      add\n      sload\n      swap1\n      pop\n      dup3\n      jump\t// out\n        /* \"contracts/PHASE INHERITANCE/Access-Controlled Voting.sol\":1284:1398  function createProposal(string memory _name) public override onlyAdmin{... */\n    tag_20:\n        /* \"contracts/PHASE INHERITANCE/Access-Controlled Voting.sol\":1188:1193  admin */\n      0x03\n      0x00\n      swap1\n      sload\n      swap1\n      0x0100\n      exp\n      swap1\n      div\n      0xffffffffffffffffffffffffffffffffffffffff\n      and\n        /* \"contracts/PHASE INHERITANCE/Access-Controlled Voting.sol\":1174:1193  msg.sender == admin */\n      0xffffffffffffffffffffffffffffffffffffffff\n      and\n        /* \"contracts/PHASE INHERITANCE/Access-Controlled Voting.sol\":1174:1184  msg.sender */\n      caller\n        /* \"contracts/PHASE INHERITANCE/Access-Controlled Voting.sol\":1174:1193  msg.sender == admin */\n      0xffffffffffffffffffffffffffffffffffffffff\n      and\n      eq\n        /* \"contracts/PHASE INHERITANCE/Access-Controlled Voting.sol\":1166:1207  require(msg.sender == admin, \"Not Admin\") */\n      tag_44\n      jumpi\n      mload(0x40)\n      0x08c379a000000000000000000000000000000000000000000000000000000000\n      dup2\n      mstore\n      0x04\n      add\n      tag_45\n      swap1\n      tag_46\n      jump\t// in\n    tag_45:\n      mload(0x40)\n      dup1\n      swap2\n      sub\n      swap1\n      revert\n    tag_44:\n        /* \"contracts/PHASE INHERITANCE/Access-Controlled Voting.sol\":1364:1391  super.createProposal(_name) */\n      tag_48\n        /* \"contracts/PHASE INHERITANCE/Access-Controlled Voting.sol\":1385:1390  _name */\n      dup2\n        /* \"contracts/PHASE INHERITANCE/Access-Controlled Voting.sol\":1364:1384  super.createProposal */\n      tag_49\n        /* \"contracts/PHASE INHERITANCE/Access-Controlled Voting.sol\":1364:1391  super.createProposal(_name) */\n      jump\t// in\n    tag_48:\n        /* \"contracts/PHASE INHERITANCE/Access-Controlled Voting.sol\":1284:1398  function createProposal(string memory _name) public override onlyAdmin{... */\n      pop\n      jump\t// out\n        /* \"contracts/PHASE INHERITANCE/Access-Controlled Voting.sol\":1541:1735  function addVoter(address _voter) public onlyAdmin {... */\n    tag_24:\n        /* \"contracts/PHASE INHERITANCE/Access-Controlled Voting.sol\":1188:1193  admin */\n      0x03\n      0x00\n      swap1\n      sload\n      swap1\n      0x0100\n      exp\n      swap1\n      div\n      0xffffffffffffffffffffffffffffffffffffffff\n      and\n        /* \"contracts/PHASE INHERITANCE/Access-Controlled Voting.sol\":1174:1193  msg.sender == admin */\n      0xffffffffffffffffffffffffffffffffffffffff\n      and\n        /* \"contracts/PHASE INHERITANCE/Access-Controlled Voting.sol\":1174:1184  msg.sender */\n      caller\n        /* \"contracts/PHASE INHERITANCE/Access-Controlled Voting.sol\":1174:1193  msg.sender == admin */\n      0xffffffffffffffffffffffffffffffffffffffff\n      and\n      eq\n        /* \"contracts/PHASE INHERITANCE/Access-Controlled Voting.sol\":1166:1207  require(msg.sender == admin, \"Not Admin\") */\n      tag_51\n      jumpi\n      mload(0x40)\n      0x08c379a000000000000000000000000000000000000000000000000000000000\n      dup2\n      mstore\n      0x04\n      add\n      tag_52\n      swap1\n      tag_46\n      jump\t// in\n    tag_52:\n      mload(0x40)\n      dup1\n      swap2\n      sub\n      swap1\n      revert\n    tag_51:\n        /* \"contracts/PHASE INHERITANCE/Access-Controlled Voting.sol\":1611:1618  canVote */\n      0x04\n        /* \"contracts/PHASE INHERITANCE/Access-Controlled Voting.sol\":1611:1626  canVote[_voter] */\n      0x00\n        /* \"contracts/PHASE INHERITANCE/Access-Controlled Voting.sol\":1619:1625  _voter */\n      dup3\n        /* \"contracts/PHASE INHERITANCE/Access-Controlled Voting.sol\":1611:1626  canVote[_voter] */\n      0xffffffffffffffffffffffffffffffffffffffff\n      and\n      0xffffffffffffffffffffffffffffffffffffffff\n      and\n      dup2\n      mstore\n      0x20\n      add\n      swap1\n      dup2\n      mstore\n      0x20\n      add\n      0x00\n      keccak256\n      0x00\n      swap1\n      sload\n      swap1\n      0x0100\n      exp\n      swap1\n      div\n      0xff\n      and\n        /* \"contracts/PHASE INHERITANCE/Access-Controlled Voting.sol\":1610:1626  !canVote[_voter] */\n      iszero\n        /* \"contracts/PHASE INHERITANCE/Access-Controlled Voting.sol\":1602:1646  require(!canVote[_voter], \"Already a voter\") */\n      tag_54\n      jumpi\n      mload(0x40)\n      0x08c379a000000000000000000000000000000000000000000000000000000000\n      dup2\n      mstore\n      0x04\n      add\n      tag_55\n      swap1\n      tag_56\n      jump\t// in\n    tag_55:\n      mload(0x40)\n      dup1\n      swap2\n      sub\n      swap1\n      revert\n    tag_54:\n        /* \"contracts/PHASE INHERITANCE/Access-Controlled Voting.sol\":1674:1678  true */\n      0x01\n        /* \"contracts/PHASE INHERITANCE/Access-Controlled Voting.sol\":1656:1663  canVote */\n      0x04\n        /* \"contracts/PHASE INHERITANCE/Access-Controlled Voting.sol\":1656:1671  canVote[_voter] */\n      0x00\n        /* \"contracts/PHASE INHERITANCE/Access-Controlled Voting.sol\":1664:1670  _voter */\n      dup4\n        /* \"contracts/PHASE INHERITANCE/Access-Controlled Voting.sol\":1656:1671  canVote[_voter] */\n      0xffffffffffffffffffffffffffffffffffffffff\n      and\n      0xffffffffffffffffffffffffffffffffffffffff\n      and\n      dup2\n      mstore\n      0x20\n      add\n      swap1\n      dup2\n      mstore\n      0x20\n      add\n      0x00\n      keccak256\n      0x00\n        /* \"contracts/PHASE INHERITANCE/Access-Controlled Voting.sol\":1656:1678  canVote[_voter] = true */\n      0x0100\n      exp\n      dup2\n      sload\n      dup2\n      0xff\n      mul\n      not\n      and\n      swap1\n      dup4\n      iszero\n      iszero\n      mul\n      or\n      swap1\n      sstore\n      pop\n        /* \"contracts/PHASE INHERITANCE/Access-Controlled Voting.sol\":1693:1728  VoterAdded(_voter, block.timestamp) */\n      0x56aa1768b52ddcdda65c5561181844717c2eed4bb3c848376d4420860da04dae\n        /* \"contracts/PHASE INHERITANCE/Access-Controlled Voting.sol\":1704:1710  _voter */\n      dup2\n        /* \"contracts/PHASE INHERITANCE/Access-Controlled Voting.sol\":1712:1727  block.timestamp */\n      timestamp\n        /* \"contracts/PHASE INHERITANCE/Access-Controlled Voting.sol\":1693:1728  VoterAdded(_voter, block.timestamp) */\n      mload(0x40)\n      tag_57\n      swap3\n      swap2\n      swap1\n      tag_58\n      jump\t// in\n    tag_57:\n      mload(0x40)\n      dup1\n      swap2\n      sub\n      swap1\n      log1\n        /* \"contracts/PHASE INHERITANCE/Access-Controlled Voting.sol\":1541:1735  function addVoter(address _voter) public onlyAdmin {... */\n      pop\n      jump\t// out\n        /* \"contracts/PHASE INHERITANCE/Access-Controlled Voting.sol\":1109:1129  address public admin */\n    tag_26:\n      0x03\n      0x00\n      swap1\n      sload\n      swap1\n      0x0100\n      exp\n      swap1\n      div\n      0xffffffffffffffffffffffffffffffffffffffff\n      and\n      dup2\n      jump\t// out\n        /* \"contracts/PHASE INHERITANCE/Access-Controlled Voting.sol\":738:1065  function vote(uint _id) public virtual{... */\n    tag_34:\n        /* \"contracts/PHASE INHERITANCE/Access-Controlled Voting.sol\":813:814  0 */\n      0x00\n        /* \"contracts/PHASE INHERITANCE/Access-Controlled Voting.sol\":794:803  proposals */\n      0x00\n        /* \"contracts/PHASE INHERITANCE/Access-Controlled Voting.sol\":794:810  proposals.length */\n      dup1\n      sload\n      swap1\n      pop\n        /* \"contracts/PHASE INHERITANCE/Access-Controlled Voting.sol\":794:814  proposals.length > 0 */\n      gt\n        /* \"contracts/PHASE INHERITANCE/Access-Controlled Voting.sol\":786:841  require(proposals.length > 0, \"No proposals available\") */\n      tag_60\n      jumpi\n      mload(0x40)\n      0x08c379a000000000000000000000000000000000000000000000000000000000\n      dup2\n      mstore\n      0x04\n      add\n      tag_61\n      swap1\n      tag_62\n      jump\t// in\n    tag_61:\n      mload(0x40)\n      dup1\n      swap2\n      sub\n      swap1\n      revert\n    tag_60:\n        /* \"contracts/PHASE INHERITANCE/Access-Controlled Voting.sol\":860:868  hasVoted */\n      0x02\n        /* \"contracts/PHASE INHERITANCE/Access-Controlled Voting.sol\":860:873  hasVoted[_id] */\n      0x00\n        /* \"contracts/PHASE INHERITANCE/Access-Controlled Voting.sol\":869:872  _id */\n      dup3\n        /* \"contracts/PHASE INHERITANCE/Access-Controlled Voting.sol\":860:873  hasVoted[_id] */\n      dup2\n      mstore\n      0x20\n      add\n      swap1\n      dup2\n      mstore\n      0x20\n      add\n      0x00\n      keccak256\n        /* \"contracts/PHASE INHERITANCE/Access-Controlled Voting.sol\":860:885  hasVoted[_id][msg.sender] */\n      0x00\n        /* \"contracts/PHASE INHERITANCE/Access-Controlled Voting.sol\":874:884  msg.sender */\n      caller\n        /* \"contracts/PHASE INHERITANCE/Access-Controlled Voting.sol\":860:885  hasVoted[_id][msg.sender] */\n      0xffffffffffffffffffffffffffffffffffffffff\n      and\n      0xffffffffffffffffffffffffffffffffffffffff\n      and\n      dup2\n      mstore\n      0x20\n      add\n      swap1\n      dup2\n      mstore\n      0x20\n      add\n      0x00\n      keccak256\n      0x00\n      swap1\n      sload\n      swap1\n      0x0100\n      exp\n      swap1\n      div\n      0xff\n      and\n        /* \"contracts/PHASE INHERITANCE/Access-Controlled Voting.sol\":859:885  !hasVoted[_id][msg.sender] */\n      iszero\n        /* \"contracts/PHASE INHERITANCE/Access-Controlled Voting.sol\":851:920  require(!hasVoted[_id][msg.sender], \"Already voted on this proposal\") */\n      tag_63\n      jumpi\n      mload(0x40)\n      0x08c379a000000000000000000000000000000000000000000000000000000000\n      dup2\n      mstore\n      0x04\n      add\n      tag_64\n      swap1\n      tag_65\n      jump\t// in\n    tag_64:\n      mload(0x40)\n      dup1\n      swap2\n      sub\n      swap1\n      revert\n    tag_63:\n        /* \"contracts/PHASE INHERITANCE/Access-Controlled Voting.sol\":930:939  proposals */\n      0x00\n        /* \"contracts/PHASE INHERITANCE/Access-Controlled Voting.sol\":940:943  _id */\n      dup2\n        /* \"contracts/PHASE INHERITANCE/Access-Controlled Voting.sol\":930:944  proposals[_id] */\n      dup2\n      sload\n      dup2\n      lt\n      tag_66\n      jumpi\n      tag_67\n      tag_68\n      jump\t// in\n    tag_67:\n    tag_66:\n      swap1\n      0x00\n      mstore\n      keccak256(0x00, 0x20)\n      swap1\n      0x02\n      mul\n      add\n        /* \"contracts/PHASE INHERITANCE/Access-Controlled Voting.sol\":930:954  proposals[_id].voteCount */\n      0x01\n      add\n      0x00\n        /* \"contracts/PHASE INHERITANCE/Access-Controlled Voting.sol\":930:957  proposals[_id].voteCount ++ */\n      dup2\n      sload\n      dup1\n      swap3\n      swap2\n      swap1\n      tag_70\n      swap1\n      tag_71\n      jump\t// in\n    tag_70:\n      swap2\n      swap1\n      pop\n      sstore\n      pop\n        /* \"contracts/PHASE INHERITANCE/Access-Controlled Voting.sol\":995:999  true */\n      0x01\n        /* \"contracts/PHASE INHERITANCE/Access-Controlled Voting.sol\":967:975  hasVoted */\n      0x02\n        /* \"contracts/PHASE INHERITANCE/Access-Controlled Voting.sol\":967:980  hasVoted[_id] */\n      0x00\n        /* \"contracts/PHASE INHERITANCE/Access-Controlled Voting.sol\":976:979  _id */\n      dup4\n        /* \"contracts/PHASE INHERITANCE/Access-Controlled Voting.sol\":967:980  hasVoted[_id] */\n      dup2\n      mstore\n      0x20\n      add\n      swap1\n      dup2\n      mstore\n      0x20\n      add\n      0x00\n      keccak256\n        /* \"contracts/PHASE INHERITANCE/Access-Controlled Voting.sol\":967:992  hasVoted[_id][msg.sender] */\n      0x00\n        /* \"contracts/PHASE INHERITANCE/Access-Controlled Voting.sol\":981:991  msg.sender */\n      caller\n        /* \"contracts/PHASE INHERITANCE/Access-Controlled Voting.sol\":967:992  hasVoted[_id][msg.sender] */\n      0xffffffffffffffffffffffffffffffffffffffff\n      and\n      0xffffffffffffffffffffffffffffffffffffffff\n      and\n      dup2\n      mstore\n      0x20\n      add\n      swap1\n      dup2\n      mstore\n      0x20\n      add\n      0x00\n      keccak256\n      0x00\n        /* \"contracts/PHASE INHERITANCE/Access-Controlled Voting.sol\":967:999  hasVoted[_id][msg.sender] = true */\n      0x0100\n      exp\n      dup2\n      sload\n      dup2\n      0xff\n      mul\n      not\n      and\n      swap1\n      dup4\n      iszero\n      iszero\n      mul\n      or\n      swap1\n      sstore\n      pop\n        /* \"contracts/PHASE INHERITANCE/Access-Controlled Voting.sol\":1025:1035  msg.sender */\n      caller\n        /* \"contracts/PHASE INHERITANCE/Access-Controlled Voting.sol\":1014:1058  VoteCasted(msg.sender, _id, block.timestamp) */\n      0xffffffffffffffffffffffffffffffffffffffff\n      and\n      0xcb87df07b1c304492bd875a5c8b98672eca500939412809ea229afef1d745188\n        /* \"contracts/PHASE INHERITANCE/Access-Controlled Voting.sol\":1037:1040  _id */\n      dup3\n        /* \"contracts/PHASE INHERITANCE/Access-Controlled Voting.sol\":1042:1057  block.timestamp */\n      timestamp\n        /* \"contracts/PHASE INHERITANCE/Access-Controlled Voting.sol\":1014:1058  VoteCasted(msg.sender, _id, block.timestamp) */\n      mload(0x40)\n      tag_72\n      swap3\n      swap2\n      swap1\n      tag_73\n      jump\t// in\n    tag_72:\n      mload(0x40)\n      dup1\n      swap2\n      sub\n      swap1\n      log2\n        /* \"contracts/PHASE INHERITANCE/Access-Controlled Voting.sol\":738:1065  function vote(uint _id) public virtual{... */\n      pop\n      jump\t// out\n        /* \"contracts/PHASE INHERITANCE/Access-Controlled Voting.sol\":438:733  function createProposal(string memory _name) public virtual {... */\n    tag_49:\n        /* \"contracts/PHASE INHERITANCE/Access-Controlled Voting.sol\":508:532  Proposal memory proposal */\n      0x00\n        /* \"contracts/PHASE INHERITANCE/Access-Controlled Voting.sol\":535:553  Proposal(_name, 0) */\n      mload(0x40)\n      dup1\n      0x40\n      add\n      0x40\n      mstore\n      dup1\n        /* \"contracts/PHASE INHERITANCE/Access-Controlled Voting.sol\":544:549  _name */\n      dup4\n        /* \"contracts/PHASE INHERITANCE/Access-Controlled Voting.sol\":535:553  Proposal(_name, 0) */\n      dup2\n      mstore\n      0x20\n      add\n        /* \"contracts/PHASE INHERITANCE/Access-Controlled Voting.sol\":551:552  0 */\n      0x00\n        /* \"contracts/PHASE INHERITANCE/Access-Controlled Voting.sol\":535:553  Proposal(_name, 0) */\n      dup2\n      mstore\n      pop\n        /* \"contracts/PHASE INHERITANCE/Access-Controlled Voting.sol\":508:553  Proposal memory proposal = Proposal(_name, 0) */\n      swap1\n      pop\n        /* \"contracts/PHASE INHERITANCE/Access-Controlled Voting.sol\":563:572  proposals */\n      0x00\n        /* \"contracts/PHASE INHERITANCE/Access-Controlled Voting.sol\":578:586  proposal */\n      dup2\n        /* \"contracts/PHASE INHERITANCE/Access-Controlled Voting.sol\":563:587  proposals.push(proposal) */\n      swap1\n      dup1\n      0x01\n      dup2\n      sload\n      add\n      dup1\n      dup3\n      sstore\n      dup1\n      swap2\n      pop\n      pop\n      0x01\n      swap1\n      sub\n      swap1\n      0x00\n      mstore\n      keccak256(0x00, 0x20)\n      swap1\n      0x02\n      mul\n      add\n      0x00\n      swap1\n      swap2\n      swap1\n      swap2\n      swap1\n      swap2\n      pop\n      0x00\n      dup3\n      add\n      mload\n      dup2\n      0x00\n      add\n      swap1\n      dup2\n      tag_76\n      swap2\n      swap1\n      tag_77\n      jump\t// in\n    tag_76:\n      pop\n      0x20\n      dup3\n      add\n      mload\n      dup2\n      0x01\n      add\n      sstore\n      pop\n      pop\n        /* \"contracts/PHASE INHERITANCE/Access-Controlled Voting.sol\":597:607  uint index */\n      0x00\n        /* \"contracts/PHASE INHERITANCE/Access-Controlled Voting.sol\":629:630  1 */\n      0x01\n        /* \"contracts/PHASE INHERITANCE/Access-Controlled Voting.sol\":610:619  proposals */\n      0x00\n        /* \"contracts/PHASE INHERITANCE/Access-Controlled Voting.sol\":610:626  proposals.length */\n      dup1\n      sload\n      swap1\n      pop\n        /* \"contracts/PHASE INHERITANCE/Access-Controlled Voting.sol\":610:630  proposals.length - 1 */\n      tag_78\n      swap2\n      swap1\n      tag_79\n      jump\t// in\n    tag_78:\n        /* \"contracts/PHASE INHERITANCE/Access-Controlled Voting.sol\":597:630  uint index = proposals.length - 1 */\n      swap1\n      pop\n        /* \"contracts/PHASE INHERITANCE/Access-Controlled Voting.sol\":652:660  proposal */\n      dup2\n        /* \"contracts/PHASE INHERITANCE/Access-Controlled Voting.sol\":640:642  id */\n      0x01\n        /* \"contracts/PHASE INHERITANCE/Access-Controlled Voting.sol\":640:649  id[index] */\n      0x00\n        /* \"contracts/PHASE INHERITANCE/Access-Controlled Voting.sol\":643:648  index */\n      dup4\n        /* \"contracts/PHASE INHERITANCE/Access-Controlled Voting.sol\":640:649  id[index] */\n      dup2\n      mstore\n      0x20\n      add\n      swap1\n      dup2\n      mstore\n      0x20\n      add\n      0x00\n      keccak256\n        /* \"contracts/PHASE INHERITANCE/Access-Controlled Voting.sol\":640:660  id[index] = proposal */\n      0x00\n      dup3\n      add\n      mload\n      dup2\n      0x00\n      add\n      swap1\n      dup2\n      tag_80\n      swap2\n      swap1\n      tag_77\n      jump\t// in\n    tag_80:\n      pop\n      0x20\n      dup3\n      add\n      mload\n      dup2\n      0x01\n      add\n      sstore\n      swap1\n      pop\n      pop\n        /* \"contracts/PHASE INHERITANCE/Access-Controlled Voting.sol\":691:701  msg.sender */\n      caller\n        /* \"contracts/PHASE INHERITANCE/Access-Controlled Voting.sol\":675:726  ProposalCreated(msg.sender, index, block.timestamp) */\n      0xffffffffffffffffffffffffffffffffffffffff\n      and\n      0x5fa1acbdcb8142d84e87165149f77e37c91bcf8055862afe7b9e7c6bac70404b\n        /* \"contracts/PHASE INHERITANCE/Access-Controlled Voting.sol\":703:708  index */\n      dup3\n        /* \"contracts/PHASE INHERITANCE/Access-Controlled Voting.sol\":710:725  block.timestamp */\n      timestamp\n        /* \"contracts/PHASE INHERITANCE/Access-Controlled Voting.sol\":675:726  ProposalCreated(msg.sender, index, block.timestamp) */\n      mload(0x40)\n      tag_81\n      swap3\n      swap2\n      swap1\n      tag_73\n      jump\t// in\n    tag_81:\n      mload(0x40)\n      dup1\n      swap2\n      sub\n      swap1\n      log2\n        /* \"contracts/PHASE INHERITANCE/Access-Controlled Voting.sol\":498:733  {... */\n      pop\n      pop\n        /* \"contracts/PHASE INHERITANCE/Access-Controlled Voting.sol\":438:733  function createProposal(string memory _name) public virtual {... */\n      pop\n      jump\t// out\n        /* \"#utility.yul\":7:82   */\n    tag_82:\n        /* \"#utility.yul\":40:46   */\n      0x00\n        /* \"#utility.yul\":73:75   */\n      0x40\n        /* \"#utility.yul\":67:76   */\n      mload\n        /* \"#utility.yul\":57:76   */\n      swap1\n      pop\n        /* \"#utility.yul\":7:82   */\n      swap1\n      jump\t// out\n        /* \"#utility.yul\":88:205   */\n    tag_83:\n        /* \"#utility.yul\":197:198   */\n      0x00\n        /* \"#utility.yul\":194:195   */\n      0x00\n        /* \"#utility.yul\":187:199   */\n      revert\n        /* \"#utility.yul\":211:328   */\n    tag_84:\n        /* \"#utility.yul\":320:321   */\n      0x00\n        /* \"#utility.yul\":317:318   */\n      0x00\n        /* \"#utility.yul\":310:322   */\n      revert\n        /* \"#utility.yul\":334:411   */\n    tag_85:\n        /* \"#utility.yul\":371:378   */\n      0x00\n        /* \"#utility.yul\":400:405   */\n      dup2\n        /* \"#utility.yul\":389:405   */\n      swap1\n      pop\n        /* \"#utility.yul\":334:411   */\n      swap2\n      swap1\n      pop\n      jump\t// out\n        /* \"#utility.yul\":417:539   */\n    tag_86:\n        /* \"#utility.yul\":490:514   */\n      tag_141\n        /* \"#utility.yul\":508:513   */\n      dup2\n        /* \"#utility.yul\":490:514   */\n      tag_85\n      jump\t// in\n    tag_141:\n        /* \"#utility.yul\":483:488   */\n      dup2\n        /* \"#utility.yul\":480:515   */\n      eq\n        /* \"#utility.yul\":470:533   */\n      tag_142\n      jumpi\n        /* \"#utility.yul\":529:530   */\n      0x00\n        /* \"#utility.yul\":526:527   */\n      0x00\n        /* \"#utility.yul\":519:531   */\n      revert\n        /* \"#utility.yul\":470:533   */\n    tag_142:\n        /* \"#utility.yul\":417:539   */\n      pop\n      jump\t// out\n        /* \"#utility.yul\":545:684   */\n    tag_87:\n        /* \"#utility.yul\":591:596   */\n      0x00\n        /* \"#utility.yul\":629:635   */\n      dup2\n        /* \"#utility.yul\":616:636   */\n      calldataload\n        /* \"#utility.yul\":607:636   */\n      swap1\n      pop\n        /* \"#utility.yul\":645:678   */\n      tag_144\n        /* \"#utility.yul\":672:677   */\n      dup2\n        /* \"#utility.yul\":645:678   */\n      tag_86\n      jump\t// in\n    tag_144:\n        /* \"#utility.yul\":545:684   */\n      swap3\n      swap2\n      pop\n      pop\n      jump\t// out\n        /* \"#utility.yul\":690:1019   */\n    tag_10:\n        /* \"#utility.yul\":749:755   */\n      0x00\n        /* \"#utility.yul\":798:800   */\n      0x20\n        /* \"#utility.yul\":786:795   */\n      dup3\n        /* \"#utility.yul\":777:784   */\n      dup5\n        /* \"#utility.yul\":773:796   */\n      sub\n        /* \"#utility.yul\":769:801   */\n      slt\n        /* \"#utility.yul\":766:885   */\n      iszero\n      tag_146\n      jumpi\n        /* \"#utility.yul\":804:883   */\n      tag_147\n      tag_83\n      jump\t// in\n    tag_147:\n        /* \"#utility.yul\":766:885   */\n    tag_146:\n        /* \"#utility.yul\":924:925   */\n      0x00\n        /* \"#utility.yul\":949:1002   */\n      tag_148\n        /* \"#utility.yul\":994:1001   */\n      dup5\n        /* \"#utility.yul\":985:991   */\n      dup3\n        /* \"#utility.yul\":974:983   */\n      dup6\n        /* \"#utility.yul\":970:992   */\n      add\n        /* \"#utility.yul\":949:1002   */\n      tag_87\n      jump\t// in\n    tag_148:\n        /* \"#utility.yul\":939:1002   */\n      swap2\n      pop\n        /* \"#utility.yul\":895:1012   */\n      pop\n        /* \"#utility.yul\":690:1019   */\n      swap3\n      swap2\n      pop\n      pop\n      jump\t// out\n        /* \"#utility.yul\":1025:1124   */\n    tag_88:\n        /* \"#utility.yul\":1077:1083   */\n      0x00\n        /* \"#utility.yul\":1111:1116   */\n      dup2\n        /* \"#utility.yul\":1105:1117   */\n      mload\n        /* \"#utility.yul\":1095:1117   */\n      swap1\n      pop\n        /* \"#utility.yul\":1025:1124   */\n      swap2\n      swap1\n      pop\n      jump\t// out\n        /* \"#utility.yul\":1130:1299   */\n    tag_89:\n        /* \"#utility.yul\":1214:1225   */\n      0x00\n        /* \"#utility.yul\":1248:1254   */\n      dup3\n        /* \"#utility.yul\":1243:1246   */\n      dup3\n        /* \"#utility.yul\":1236:1255   */\n      mstore\n        /* \"#utility.yul\":1288:1292   */\n      0x20\n        /* \"#utility.yul\":1283:1286   */\n      dup3\n        /* \"#utility.yul\":1279:1293   */\n      add\n        /* \"#utility.yul\":1264:1293   */\n      swap1\n      pop\n        /* \"#utility.yul\":1130:1299   */\n      swap3\n      swap2\n      pop\n      pop\n      jump\t// out\n        /* \"#utility.yul\":1305:1444   */\n    tag_90:\n        /* \"#utility.yul\":1394:1400   */\n      dup3\n        /* \"#utility.yul\":1389:1392   */\n      dup2\n        /* \"#utility.yul\":1384:1387   */\n      dup4\n        /* \"#utility.yul\":1378:1401   */\n      mcopy\n        /* \"#utility.yul\":1435:1436   */\n      0x00\n        /* \"#utility.yul\":1426:1432   */\n      dup4\n        /* \"#utility.yul\":1421:1424   */\n      dup4\n        /* \"#utility.yul\":1417:1433   */\n      add\n        /* \"#utility.yul\":1410:1437   */\n      mstore\n        /* \"#utility.yul\":1305:1444   */\n      pop\n      pop\n      pop\n      jump\t// out\n        /* \"#utility.yul\":1450:1552   */\n    tag_91:\n        /* \"#utility.yul\":1491:1497   */\n      0x00\n        /* \"#utility.yul\":1542:1544   */\n      0x1f\n        /* \"#utility.yul\":1538:1545   */\n      not\n        /* \"#utility.yul\":1533:1535   */\n      0x1f\n        /* \"#utility.yul\":1526:1531   */\n      dup4\n        /* \"#utility.yul\":1522:1536   */\n      add\n        /* \"#utility.yul\":1518:1546   */\n      and\n        /* \"#utility.yul\":1508:1546   */\n      swap1\n      pop\n        /* \"#utility.yul\":1450:1552   */\n      swap2\n      swap1\n      pop\n      jump\t// out\n        /* \"#utility.yul\":1558:1935   */\n    tag_92:\n        /* \"#utility.yul\":1646:1649   */\n      0x00\n        /* \"#utility.yul\":1674:1713   */\n      tag_154\n        /* \"#utility.yul\":1707:1712   */\n      dup3\n        /* \"#utility.yul\":1674:1713   */\n      tag_88\n      jump\t// in\n    tag_154:\n        /* \"#utility.yul\":1729:1800   */\n      tag_155\n        /* \"#utility.yul\":1793:1799   */\n      dup2\n        /* \"#utility.yul\":1788:1791   */\n      dup6\n        /* \"#utility.yul\":1729:1800   */\n      tag_89\n      jump\t// in\n    tag_155:\n        /* \"#utility.yul\":1722:1800   */\n      swap4\n      pop\n        /* \"#utility.yul\":1809:1874   */\n      tag_156\n        /* \"#utility.yul\":1867:1873   */\n      dup2\n        /* \"#utility.yul\":1862:1865   */\n      dup6\n        /* \"#utility.yul\":1855:1859   */\n      0x20\n        /* \"#utility.yul\":1848:1853   */\n      dup7\n        /* \"#utility.yul\":1844:1860   */\n      add\n        /* \"#utility.yul\":1809:1874   */\n      tag_90\n      jump\t// in\n    tag_156:\n        /* \"#utility.yul\":1899:1928   */\n      tag_157\n        /* \"#utility.yul\":1921:1927   */\n      dup2\n        /* \"#utility.yul\":1899:1928   */\n      tag_91\n      jump\t// in\n    tag_157:\n        /* \"#utility.yul\":1894:1897   */\n      dup5\n        /* \"#utility.yul\":1890:1929   */\n      add\n        /* \"#utility.yul\":1883:1929   */\n      swap2\n      pop\n        /* \"#utility.yul\":1650:1935   */\n      pop\n        /* \"#utility.yul\":1558:1935   */\n      swap3\n      swap2\n      pop\n      pop\n      jump\t// out\n        /* \"#utility.yul\":1941:2059   */\n    tag_93:\n        /* \"#utility.yul\":2028:2052   */\n      tag_159\n        /* \"#utility.yul\":2046:2051   */\n      dup2\n        /* \"#utility.yul\":2028:2052   */\n      tag_85\n      jump\t// in\n    tag_159:\n        /* \"#utility.yul\":2023:2026   */\n      dup3\n        /* \"#utility.yul\":2016:2053   */\n      mstore\n        /* \"#utility.yul\":1941:2059   */\n      pop\n      pop\n      jump\t// out\n        /* \"#utility.yul\":2065:2488   */\n    tag_16:\n        /* \"#utility.yul\":2206:2210   */\n      0x00\n        /* \"#utility.yul\":2244:2246   */\n      0x40\n        /* \"#utility.yul\":2233:2242   */\n      dup3\n        /* \"#utility.yul\":2229:2247   */\n      add\n        /* \"#utility.yul\":2221:2247   */\n      swap1\n      pop\n        /* \"#utility.yul\":2293:2302   */\n      dup2\n        /* \"#utility.yul\":2287:2291   */\n      dup2\n        /* \"#utility.yul\":2283:2303   */\n      sub\n        /* \"#utility.yul\":2279:2280   */\n      0x00\n        /* \"#utility.yul\":2268:2277   */\n      dup4\n        /* \"#utility.yul\":2264:2281   */\n      add\n        /* \"#utility.yul\":2257:2304   */\n      mstore\n        /* \"#utility.yul\":2321:2399   */\n      tag_161\n        /* \"#utility.yul\":2394:2398   */\n      dup2\n        /* \"#utility.yul\":2385:2391   */\n      dup6\n        /* \"#utility.yul\":2321:2399   */\n      tag_92\n      jump\t// in\n    tag_161:\n        /* \"#utility.yul\":2313:2399   */\n      swap1\n      pop\n        /* \"#utility.yul\":2409:2481   */\n      tag_162\n        /* \"#utility.yul\":2477:2479   */\n      0x20\n        /* \"#utility.yul\":2466:2475   */\n      dup4\n        /* \"#utility.yul\":2462:2480   */\n      add\n        /* \"#utility.yul\":2453:2459   */\n      dup5\n        /* \"#utility.yul\":2409:2481   */\n      tag_93\n      jump\t// in\n    tag_162:\n        /* \"#utility.yul\":2065:2488   */\n      swap4\n      swap3\n      pop\n      pop\n      pop\n      jump\t// out\n        /* \"#utility.yul\":2494:2611   */\n    tag_94:\n        /* \"#utility.yul\":2603:2604   */\n      0x00\n        /* \"#utility.yul\":2600:2601   */\n      0x00\n        /* \"#utility.yul\":2593:2605   */\n      revert\n        /* \"#utility.yul\":2617:2734   */\n    tag_95:\n        /* \"#utility.yul\":2726:2727   */\n      0x00\n        /* \"#utility.yul\":2723:2724   */\n      0x00\n        /* \"#utility.yul\":2716:2728   */\n      revert\n        /* \"#utility.yul\":2740:2920   */\n    tag_96:\n        /* \"#utility.yul\":2788:2865   */\n      0x4e487b7100000000000000000000000000000000000000000000000000000000\n        /* \"#utility.yul\":2785:2786   */\n      0x00\n        /* \"#utility.yul\":2778:2866   */\n      mstore\n        /* \"#utility.yul\":2885:2889   */\n      0x41\n        /* \"#utility.yul\":2882:2883   */\n      0x04\n        /* \"#utility.yul\":2875:2890   */\n      mstore\n        /* \"#utility.yul\":2909:2913   */\n      0x24\n        /* \"#utility.yul\":2906:2907   */\n      0x00\n        /* \"#utility.yul\":2899:2914   */\n      revert\n        /* \"#utility.yul\":2926:3207   */\n    tag_97:\n        /* \"#utility.yul\":3009:3036   */\n      tag_167\n        /* \"#utility.yul\":3031:3035   */\n      dup3\n        /* \"#utility.yul\":3009:3036   */\n      tag_91\n      jump\t// in\n    tag_167:\n        /* \"#utility.yul\":3001:3007   */\n      dup2\n        /* \"#utility.yul\":2997:3037   */\n      add\n        /* \"#utility.yul\":3139:3145   */\n      dup2\n        /* \"#utility.yul\":3127:3137   */\n      dup2\n        /* \"#utility.yul\":3124:3146   */\n      lt\n        /* \"#utility.yul\":3103:3121   */\n      0xffffffffffffffff\n        /* \"#utility.yul\":3091:3101   */\n      dup3\n        /* \"#utility.yul\":3088:3122   */\n      gt\n        /* \"#utility.yul\":3085:3147   */\n      or\n        /* \"#utility.yul\":3082:3170   */\n      iszero\n      tag_168\n      jumpi\n        /* \"#utility.yul\":3150:3168   */\n      tag_169\n      tag_96\n      jump\t// in\n    tag_169:\n        /* \"#utility.yul\":3082:3170   */\n    tag_168:\n        /* \"#utility.yul\":3190:3200   */\n      dup1\n        /* \"#utility.yul\":3186:3188   */\n      0x40\n        /* \"#utility.yul\":3179:3201   */\n      mstore\n        /* \"#utility.yul\":2969:3207   */\n      pop\n        /* \"#utility.yul\":2926:3207   */\n      pop\n      pop\n      jump\t// out\n        /* \"#utility.yul\":3213:3342   */\n    tag_98:\n        /* \"#utility.yul\":3247:3253   */\n      0x00\n        /* \"#utility.yul\":3274:3294   */\n      tag_171\n      tag_82\n      jump\t// in\n    tag_171:\n        /* \"#utility.yul\":3264:3294   */\n      swap1\n      pop\n        /* \"#utility.yul\":3303:3336   */\n      tag_172\n        /* \"#utility.yul\":3331:3335   */\n      dup3\n        /* \"#utility.yul\":3323:3329   */\n      dup3\n        /* \"#utility.yul\":3303:3336   */\n      tag_97\n      jump\t// in\n    tag_172:\n        /* \"#utility.yul\":3213:3342   */\n      swap2\n      swap1\n      pop\n      jump\t// out\n        /* \"#utility.yul\":3348:3656   */\n    tag_99:\n        /* \"#utility.yul\":3410:3414   */\n      0x00\n        /* \"#utility.yul\":3500:3518   */\n      0xffffffffffffffff\n        /* \"#utility.yul\":3492:3498   */\n      dup3\n        /* \"#utility.yul\":3489:3519   */\n      gt\n        /* \"#utility.yul\":3486:3542   */\n      iszero\n      tag_174\n      jumpi\n        /* \"#utility.yul\":3522:3540   */\n      tag_175\n      tag_96\n      jump\t// in\n    tag_175:\n        /* \"#utility.yul\":3486:3542   */\n    tag_174:\n        /* \"#utility.yul\":3560:3589   */\n      tag_176\n        /* \"#utility.yul\":3582:3588   */\n      dup3\n        /* \"#utility.yul\":3560:3589   */\n      tag_91\n      jump\t// in\n    tag_176:\n        /* \"#utility.yul\":3552:3589   */\n      swap1\n      pop\n        /* \"#utility.yul\":3644:3648   */\n      0x20\n        /* \"#utility.yul\":3638:3642   */\n      dup2\n        /* \"#utility.yul\":3634:3649   */\n      add\n        /* \"#utility.yul\":3626:3649   */\n      swap1\n      pop\n        /* \"#utility.yul\":3348:3656   */\n      swap2\n      swap1\n      pop\n      jump\t// out\n        /* \"#utility.yul\":3662:3810   */\n    tag_100:\n        /* \"#utility.yul\":3760:3766   */\n      dup3\n        /* \"#utility.yul\":3755:3758   */\n      dup2\n        /* \"#utility.yul\":3750:3753   */\n      dup4\n        /* \"#utility.yul\":3737:3767   */\n      calldatacopy\n        /* \"#utility.yul\":3801:3802   */\n      0x00\n        /* \"#utility.yul\":3792:3798   */\n      dup4\n        /* \"#utility.yul\":3787:3790   */\n      dup4\n        /* \"#utility.yul\":3783:3799   */\n      add\n        /* \"#utility.yul\":3776:3803   */\n      mstore\n        /* \"#utility.yul\":3662:3810   */\n      pop\n      pop\n      pop\n      jump\t// out\n        /* \"#utility.yul\":3816:4241   */\n    tag_101:\n        /* \"#utility.yul\":3894:3899   */\n      0x00\n        /* \"#utility.yul\":3919:3985   */\n      tag_179\n        /* \"#utility.yul\":3935:3984   */\n      tag_180\n        /* \"#utility.yul\":3977:3983   */\n      dup5\n        /* \"#utility.yul\":3935:3984   */\n      tag_99\n      jump\t// in\n    tag_180:\n        /* \"#utility.yul\":3919:3985   */\n      tag_98\n      jump\t// in\n    tag_179:\n        /* \"#utility.yul\":3910:3985   */\n      swap1\n      pop\n        /* \"#utility.yul\":4008:4014   */\n      dup3\n        /* \"#utility.yul\":4001:4006   */\n      dup2\n        /* \"#utility.yul\":3994:4015   */\n      mstore\n        /* \"#utility.yul\":4046:4050   */\n      0x20\n        /* \"#utility.yul\":4039:4044   */\n      dup2\n        /* \"#utility.yul\":4035:4051   */\n      add\n        /* \"#utility.yul\":4084:4087   */\n      dup5\n        /* \"#utility.yul\":4075:4081   */\n      dup5\n        /* \"#utility.yul\":4070:4073   */\n      dup5\n        /* \"#utility.yul\":4066:4082   */\n      add\n        /* \"#utility.yul\":4063:4088   */\n      gt\n        /* \"#utility.yul\":4060:4172   */\n      iszero\n      tag_181\n      jumpi\n        /* \"#utility.yul\":4091:4170   */\n      tag_182\n      tag_95\n      jump\t// in\n    tag_182:\n        /* \"#utility.yul\":4060:4172   */\n    tag_181:\n        /* \"#utility.yul\":4181:4235   */\n      tag_183\n        /* \"#utility.yul\":4228:4234   */\n      dup5\n        /* \"#utility.yul\":4223:4226   */\n      dup3\n        /* \"#utility.yul\":4218:4221   */\n      dup6\n        /* \"#utility.yul\":4181:4235   */\n      tag_100\n      jump\t// in\n    tag_183:\n        /* \"#utility.yul\":3900:4241   */\n      pop\n        /* \"#utility.yul\":3816:4241   */\n      swap4\n      swap3\n      pop\n      pop\n      pop\n      jump\t// out\n        /* \"#utility.yul\":4261:4601   */\n    tag_102:\n        /* \"#utility.yul\":4317:4322   */\n      0x00\n        /* \"#utility.yul\":4366:4369   */\n      dup3\n        /* \"#utility.yul\":4359:4363   */\n      0x1f\n        /* \"#utility.yul\":4351:4357   */\n      dup4\n        /* \"#utility.yul\":4347:4364   */\n      add\n        /* \"#utility.yul\":4343:4370   */\n      slt\n        /* \"#utility.yul\":4333:4455   */\n      tag_185\n      jumpi\n        /* \"#utility.yul\":4374:4453   */\n      tag_186\n      tag_94\n      jump\t// in\n    tag_186:\n        /* \"#utility.yul\":4333:4455   */\n    tag_185:\n        /* \"#utility.yul\":4491:4497   */\n      dup2\n        /* \"#utility.yul\":4478:4498   */\n      calldataload\n        /* \"#utility.yul\":4516:4595   */\n      tag_187\n        /* \"#utility.yul\":4591:4594   */\n      dup5\n        /* \"#utility.yul\":4583:4589   */\n      dup3\n        /* \"#utility.yul\":4576:4580   */\n      0x20\n        /* \"#utility.yul\":4568:4574   */\n      dup7\n        /* \"#utility.yul\":4564:4581   */\n      add\n        /* \"#utility.yul\":4516:4595   */\n      tag_101\n      jump\t// in\n    tag_187:\n        /* \"#utility.yul\":4507:4595   */\n      swap2\n      pop\n        /* \"#utility.yul\":4323:4601   */\n      pop\n        /* \"#utility.yul\":4261:4601   */\n      swap3\n      swap2\n      pop\n      pop\n      jump\t// out\n        /* \"#utility.yul\":4607:5116   */\n    tag_19:\n        /* \"#utility.yul\":4676:4682   */\n      0x00\n        /* \"#utility.yul\":4725:4727   */\n      0x20\n        /* \"#utility.yul\":4713:4722   */\n      dup3\n        /* \"#utility.yul\":4704:4711   */\n      dup5\n        /* \"#utility.yul\":4700:4723   */\n      sub\n        /* \"#utility.yul\":4696:4728   */\n      slt\n        /* \"#utility.yul\":4693:4812   */\n      iszero\n      tag_189\n      jumpi\n        /* \"#utility.yul\":4731:4810   */\n      tag_190\n      tag_83\n      jump\t// in\n    tag_190:\n        /* \"#utility.yul\":4693:4812   */\n    tag_189:\n        /* \"#utility.yul\":4879:4880   */\n      0x00\n        /* \"#utility.yul\":4868:4877   */\n      dup3\n        /* \"#utility.yul\":4864:4881   */\n      add\n        /* \"#utility.yul\":4851:4882   */\n      calldataload\n        /* \"#utility.yul\":4909:4927   */\n      0xffffffffffffffff\n        /* \"#utility.yul\":4901:4907   */\n      dup2\n        /* \"#utility.yul\":4898:4928   */\n      gt\n        /* \"#utility.yul\":4895:5012   */\n      iszero\n      tag_191\n      jumpi\n        /* \"#utility.yul\":4931:5010   */\n      tag_192\n      tag_84\n      jump\t// in\n    tag_192:\n        /* \"#utility.yul\":4895:5012   */\n    tag_191:\n        /* \"#utility.yul\":5036:5099   */\n      tag_193\n        /* \"#utility.yul\":5091:5098   */\n      dup5\n        /* \"#utility.yul\":5082:5088   */\n      dup3\n        /* \"#utility.yul\":5071:5080   */\n      dup6\n        /* \"#utility.yul\":5067:5089   */\n      add\n        /* \"#utility.yul\":5036:5099   */\n      tag_102\n      jump\t// in\n    tag_193:\n        /* \"#utility.yul\":5026:5099   */\n      swap2\n      pop\n        /* \"#utility.yul\":4822:5109   */\n      pop\n        /* \"#utility.yul\":4607:5116   */\n      swap3\n      swap2\n      pop\n      pop\n      jump\t// out\n        /* \"#utility.yul\":5122:5248   */\n    tag_103:\n        /* \"#utility.yul\":5159:5166   */\n      0x00\n        /* \"#utility.yul\":5199:5241   */\n      0xffffffffffffffffffffffffffffffffffffffff\n        /* \"#utility.yul\":5192:5197   */\n      dup3\n        /* \"#utility.yul\":5188:5242   */\n      and\n        /* \"#utility.yul\":5177:5242   */\n      swap1\n      pop\n        /* \"#utility.yul\":5122:5248   */\n      swap2\n      swap1\n      pop\n      jump\t// out\n        /* \"#utility.yul\":5254:5350   */\n    tag_104:\n        /* \"#utility.yul\":5291:5298   */\n      0x00\n        /* \"#utility.yul\":5320:5344   */\n      tag_196\n        /* \"#utility.yul\":5338:5343   */\n      dup3\n        /* \"#utility.yul\":5320:5344   */\n      tag_103\n      jump\t// in\n    tag_196:\n        /* \"#utility.yul\":5309:5344   */\n      swap1\n      pop\n        /* \"#utility.yul\":5254:5350   */\n      swap2\n      swap1\n      pop\n      jump\t// out\n        /* \"#utility.yul\":5356:5478   */\n    tag_105:\n        /* \"#utility.yul\":5429:5453   */\n      tag_198\n        /* \"#utility.yul\":5447:5452   */\n      dup2\n        /* \"#utility.yul\":5429:5453   */\n      tag_104\n      jump\t// in\n    tag_198:\n        /* \"#utility.yul\":5422:5427   */\n      dup2\n        /* \"#utility.yul\":5419:5454   */\n      eq\n        /* \"#utility.yul\":5409:5472   */\n      tag_199\n      jumpi\n        /* \"#utility.yul\":5468:5469   */\n      0x00\n        /* \"#utility.yul\":5465:5466   */\n      0x00\n        /* \"#utility.yul\":5458:5470   */\n      revert\n        /* \"#utility.yul\":5409:5472   */\n    tag_199:\n        /* \"#utility.yul\":5356:5478   */\n      pop\n      jump\t// out\n        /* \"#utility.yul\":5484:5623   */\n    tag_106:\n        /* \"#utility.yul\":5530:5535   */\n      0x00\n        /* \"#utility.yul\":5568:5574   */\n      dup2\n        /* \"#utility.yul\":5555:5575   */\n      calldataload\n        /* \"#utility.yul\":5546:5575   */\n      swap1\n      pop\n        /* \"#utility.yul\":5584:5617   */\n      tag_201\n        /* \"#utility.yul\":5611:5616   */\n      dup2\n        /* \"#utility.yul\":5584:5617   */\n      tag_105\n      jump\t// in\n    tag_201:\n        /* \"#utility.yul\":5484:5623   */\n      swap3\n      swap2\n      pop\n      pop\n      jump\t// out\n        /* \"#utility.yul\":5629:5958   */\n    tag_23:\n        /* \"#utility.yul\":5688:5694   */\n      0x00\n        /* \"#utility.yul\":5737:5739   */\n      0x20\n        /* \"#utility.yul\":5725:5734   */\n      dup3\n        /* \"#utility.yul\":5716:5723   */\n      dup5\n        /* \"#utility.yul\":5712:5735   */\n      sub\n        /* \"#utility.yul\":5708:5740   */\n      slt\n        /* \"#utility.yul\":5705:5824   */\n      iszero\n      tag_203\n      jumpi\n        /* \"#utility.yul\":5743:5822   */\n      tag_204\n      tag_83\n      jump\t// in\n    tag_204:\n        /* \"#utility.yul\":5705:5824   */\n    tag_203:\n        /* \"#utility.yul\":5863:5864   */\n      0x00\n        /* \"#utility.yul\":5888:5941   */\n      tag_205\n        /* \"#utility.yul\":5933:5940   */\n      dup5\n        /* \"#utility.yul\":5924:5930   */\n      dup3\n        /* \"#utility.yul\":5913:5922   */\n      dup6\n        /* \"#utility.yul\":5909:5931   */\n      add\n        /* \"#utility.yul\":5888:5941   */\n      tag_106\n      jump\t// in\n    tag_205:\n        /* \"#utility.yul\":5878:5941   */\n      swap2\n      pop\n        /* \"#utility.yul\":5834:5951   */\n      pop\n        /* \"#utility.yul\":5629:5958   */\n      swap3\n      swap2\n      pop\n      pop\n      jump\t// out\n        /* \"#utility.yul\":5964:6082   */\n    tag_107:\n        /* \"#utility.yul\":6051:6075   */\n      tag_207\n        /* \"#utility.yul\":6069:6074   */\n      dup2\n        /* \"#utility.yul\":6051:6075   */\n      tag_104\n      jump\t// in\n    tag_207:\n        /* \"#utility.yul\":6046:6049   */\n      dup3\n        /* \"#utility.yul\":6039:6076   */\n      mstore\n        /* \"#utility.yul\":5964:6082   */\n      pop\n      pop\n      jump\t// out\n        /* \"#utility.yul\":6088:6310   */\n    tag_28:\n        /* \"#utility.yul\":6181:6185   */\n      0x00\n        /* \"#utility.yul\":6219:6221   */\n      0x20\n        /* \"#utility.yul\":6208:6217   */\n      dup3\n        /* \"#utility.yul\":6204:6222   */\n      add\n        /* \"#utility.yul\":6196:6222   */\n      swap1\n      pop\n        /* \"#utility.yul\":6232:6303   */\n      tag_209\n        /* \"#utility.yul\":6300:6301   */\n      0x00\n        /* \"#utility.yul\":6289:6298   */\n      dup4\n        /* \"#utility.yul\":6285:6302   */\n      add\n        /* \"#utility.yul\":6276:6282   */\n      dup5\n        /* \"#utility.yul\":6232:6303   */\n      tag_107\n      jump\t// in\n    tag_209:\n        /* \"#utility.yul\":6088:6310   */\n      swap3\n      swap2\n      pop\n      pop\n      jump\t// out\n        /* \"#utility.yul\":6316:6489   */\n    tag_108:\n        /* \"#utility.yul\":6456:6481   */\n      0x4e6f7420612077686974656c697374656420766f746572000000000000000000\n        /* \"#utility.yul\":6452:6453   */\n      0x00\n        /* \"#utility.yul\":6444:6450   */\n      dup3\n        /* \"#utility.yul\":6440:6454   */\n      add\n        /* \"#utility.yul\":6433:6482   */\n      mstore\n        /* \"#utility.yul\":6316:6489   */\n      pop\n      jump\t// out\n        /* \"#utility.yul\":6495:6861   */\n    tag_109:\n        /* \"#utility.yul\":6637:6640   */\n      0x00\n        /* \"#utility.yul\":6658:6725   */\n      tag_212\n        /* \"#utility.yul\":6722:6724   */\n      0x17\n        /* \"#utility.yul\":6717:6720   */\n      dup4\n        /* \"#utility.yul\":6658:6725   */\n      tag_89\n      jump\t// in\n    tag_212:\n        /* \"#utility.yul\":6651:6725   */\n      swap2\n      pop\n        /* \"#utility.yul\":6734:6827   */\n      tag_213\n        /* \"#utility.yul\":6823:6826   */\n      dup3\n        /* \"#utility.yul\":6734:6827   */\n      tag_108\n      jump\t// in\n    tag_213:\n        /* \"#utility.yul\":6852:6854   */\n      0x20\n        /* \"#utility.yul\":6847:6850   */\n      dup3\n        /* \"#utility.yul\":6843:6855   */\n      add\n        /* \"#utility.yul\":6836:6855   */\n      swap1\n      pop\n        /* \"#utility.yul\":6495:6861   */\n      swap2\n      swap1\n      pop\n      jump\t// out\n        /* \"#utility.yul\":6867:7286   */\n    tag_32:\n        /* \"#utility.yul\":7033:7037   */\n      0x00\n        /* \"#utility.yul\":7071:7073   */\n      0x20\n        /* \"#utility.yul\":7060:7069   */\n      dup3\n        /* \"#utility.yul\":7056:7074   */\n      add\n        /* \"#utility.yul\":7048:7074   */\n      swap1\n      pop\n        /* \"#utility.yul\":7120:7129   */\n      dup2\n        /* \"#utility.yul\":7114:7118   */\n      dup2\n        /* \"#utility.yul\":7110:7130   */\n      sub\n        /* \"#utility.yul\":7106:7107   */\n      0x00\n        /* \"#utility.yul\":7095:7104   */\n      dup4\n        /* \"#utility.yul\":7091:7108   */\n      add\n        /* \"#utility.yul\":7084:7131   */\n      mstore\n        /* \"#utility.yul\":7148:7279   */\n      tag_215\n        /* \"#utility.yul\":7274:7278   */\n      dup2\n        /* \"#utility.yul\":7148:7279   */\n      tag_109\n      jump\t// in\n    tag_215:\n        /* \"#utility.yul\":7140:7279   */\n      swap1\n      pop\n        /* \"#utility.yul\":6867:7286   */\n      swap2\n      swap1\n      pop\n      jump\t// out\n        /* \"#utility.yul\":7292:7472   */\n    tag_110:\n        /* \"#utility.yul\":7340:7417   */\n      0x4e487b7100000000000000000000000000000000000000000000000000000000\n        /* \"#utility.yul\":7337:7338   */\n      0x00\n        /* \"#utility.yul\":7330:7418   */\n      mstore\n        /* \"#utility.yul\":7437:7441   */\n      0x22\n        /* \"#utility.yul\":7434:7435   */\n      0x04\n        /* \"#utility.yul\":7427:7442   */\n      mstore\n        /* \"#utility.yul\":7461:7465   */\n      0x24\n        /* \"#utility.yul\":7458:7459   */\n      0x00\n        /* \"#utility.yul\":7451:7466   */\n      revert\n        /* \"#utility.yul\":7478:7798   */\n    tag_38:\n        /* \"#utility.yul\":7522:7528   */\n      0x00\n        /* \"#utility.yul\":7559:7560   */\n      0x02\n        /* \"#utility.yul\":7553:7557   */\n      dup3\n        /* \"#utility.yul\":7549:7561   */\n      div\n        /* \"#utility.yul\":7539:7561   */\n      swap1\n      pop\n        /* \"#utility.yul\":7606:7607   */\n      0x01\n        /* \"#utility.yul\":7600:7604   */\n      dup3\n        /* \"#utility.yul\":7596:7608   */\n      and\n        /* \"#utility.yul\":7627:7645   */\n      dup1\n        /* \"#utility.yul\":7617:7698   */\n      tag_218\n      jumpi\n        /* \"#utility.yul\":7683:7687   */\n      0x7f\n        /* \"#utility.yul\":7675:7681   */\n      dup3\n        /* \"#utility.yul\":7671:7688   */\n      and\n        /* \"#utility.yul\":7661:7688   */\n      swap2\n      pop\n        /* \"#utility.yul\":7617:7698   */\n    tag_218:\n        /* \"#utility.yul\":7745:7747   */\n      0x20\n        /* \"#utility.yul\":7737:7743   */\n      dup3\n        /* \"#utility.yul\":7734:7748   */\n      lt\n        /* \"#utility.yul\":7714:7732   */\n      dup2\n        /* \"#utility.yul\":7711:7749   */\n      sub\n        /* \"#utility.yul\":7708:7792   */\n      tag_219\n      jumpi\n        /* \"#utility.yul\":7764:7782   */\n      tag_220\n      tag_110\n      jump\t// in\n    tag_220:\n        /* \"#utility.yul\":7708:7792   */\n    tag_219:\n        /* \"#utility.yul\":7529:7798   */\n      pop\n        /* \"#utility.yul\":7478:7798   */\n      swap2\n      swap1\n      pop\n      jump\t// out\n        /* \"#utility.yul\":7804:7963   */\n    tag_111:\n        /* \"#utility.yul\":7944:7955   */\n      0x4e6f742041646d696e0000000000000000000000000000000000000000000000\n        /* \"#utility.yul\":7940:7941   */\n      0x00\n        /* \"#utility.yul\":7932:7938   */\n      dup3\n        /* \"#utility.yul\":7928:7942   */\n      add\n        /* \"#utility.yul\":7921:7956   */\n      mstore\n        /* \"#utility.yul\":7804:7963   */\n      pop\n      jump\t// out\n        /* \"#utility.yul\":7969:8334   */\n    tag_112:\n        /* \"#utility.yul\":8111:8114   */\n      0x00\n        /* \"#utility.yul\":8132:8198   */\n      tag_223\n        /* \"#utility.yul\":8196:8197   */\n      0x09\n        /* \"#utility.yul\":8191:8194   */\n      dup4\n        /* \"#utility.yul\":8132:8198   */\n      tag_89\n      jump\t// in\n    tag_223:\n        /* \"#utility.yul\":8125:8198   */\n      swap2\n      pop\n        /* \"#utility.yul\":8207:8300   */\n      tag_224\n        /* \"#utility.yul\":8296:8299   */\n      dup3\n        /* \"#utility.yul\":8207:8300   */\n      tag_111\n      jump\t// in\n    tag_224:\n        /* \"#utility.yul\":8325:8327   */\n      0x20\n        /* \"#utility.yul\":8320:8323   */\n      dup3\n        /* \"#utility.yul\":8316:8328   */\n      add\n        /* \"#utility.yul\":8309:8328   */\n      swap1\n      pop\n        /* \"#utility.yul\":7969:8334   */\n      swap2\n      swap1\n      pop\n      jump\t// out\n        /* \"#utility.yul\":8340:8759   */\n    tag_46:\n        /* \"#utility.yul\":8506:8510   */\n      0x00\n        /* \"#utility.yul\":8544:8546   */\n      0x20\n        /* \"#utility.yul\":8533:8542   */\n      dup3\n        /* \"#utility.yul\":8529:8547   */\n      add\n        /* \"#utility.yul\":8521:8547   */\n      swap1\n      pop\n        /* \"#utility.yul\":8593:8602   */\n      dup2\n        /* \"#utility.yul\":8587:8591   */\n      dup2\n        /* \"#utility.yul\":8583:8603   */\n      sub\n        /* \"#utility.yul\":8579:8580   */\n      0x00\n        /* \"#utility.yul\":8568:8577   */\n      dup4\n        /* \"#utility.yul\":8564:8581   */\n      add\n        /* \"#utility.yul\":8557:8604   */\n      mstore\n        /* \"#utility.yul\":8621:8752   */\n      tag_226\n        /* \"#utility.yul\":8747:8751   */\n      dup2\n        /* \"#utility.yul\":8621:8752   */\n      tag_112\n      jump\t// in\n    tag_226:\n        /* \"#utility.yul\":8613:8752   */\n      swap1\n      pop\n        /* \"#utility.yul\":8340:8759   */\n      swap2\n      swap1\n      pop\n      jump\t// out\n        /* \"#utility.yul\":8765:8930   */\n    tag_113:\n        /* \"#utility.yul\":8905:8922   */\n      0x416c7265616479206120766f7465720000000000000000000000000000000000\n        /* \"#utility.yul\":8901:8902   */\n      0x00\n        /* \"#utility.yul\":8893:8899   */\n      dup3\n        /* \"#utility.yul\":8889:8903   */\n      add\n        /* \"#utility.yul\":8882:8923   */\n      mstore\n        /* \"#utility.yul\":8765:8930   */\n      pop\n      jump\t// out\n        /* \"#utility.yul\":8936:9302   */\n    tag_114:\n        /* \"#utility.yul\":9078:9081   */\n      0x00\n        /* \"#utility.yul\":9099:9166   */\n      tag_229\n        /* \"#utility.yul\":9163:9165   */\n      0x0f\n        /* \"#utility.yul\":9158:9161   */\n      dup4\n        /* \"#utility.yul\":9099:9166   */\n      tag_89\n      jump\t// in\n    tag_229:\n        /* \"#utility.yul\":9092:9166   */\n      swap2\n      pop\n        /* \"#utility.yul\":9175:9268   */\n      tag_230\n        /* \"#utility.yul\":9264:9267   */\n      dup3\n        /* \"#utility.yul\":9175:9268   */\n      tag_113\n      jump\t// in\n    tag_230:\n        /* \"#utility.yul\":9293:9295   */\n      0x20\n        /* \"#utility.yul\":9288:9291   */\n      dup3\n        /* \"#utility.yul\":9284:9296   */\n      add\n        /* \"#utility.yul\":9277:9296   */\n      swap1\n      pop\n        /* \"#utility.yul\":8936:9302   */\n      swap2\n      swap1\n      pop\n      jump\t// out\n        /* \"#utility.yul\":9308:9727   */\n    tag_56:\n        /* \"#utility.yul\":9474:9478   */\n      0x00\n        /* \"#utility.yul\":9512:9514   */\n      0x20\n        /* \"#utility.yul\":9501:9510   */\n      dup3\n        /* \"#utility.yul\":9497:9515   */\n      add\n        /* \"#utility.yul\":9489:9515   */\n      swap1\n      pop\n        /* \"#utility.yul\":9561:9570   */\n      dup2\n        /* \"#utility.yul\":9555:9559   */\n      dup2\n        /* \"#utility.yul\":9551:9571   */\n      sub\n        /* \"#utility.yul\":9547:9548   */\n      0x00\n        /* \"#utility.yul\":9536:9545   */\n      dup4\n        /* \"#utility.yul\":9532:9549   */\n      add\n        /* \"#utility.yul\":9525:9572   */\n      mstore\n        /* \"#utility.yul\":9589:9720   */\n      tag_232\n        /* \"#utility.yul\":9715:9719   */\n      dup2\n        /* \"#utility.yul\":9589:9720   */\n      tag_114\n      jump\t// in\n    tag_232:\n        /* \"#utility.yul\":9581:9720   */\n      swap1\n      pop\n        /* \"#utility.yul\":9308:9727   */\n      swap2\n      swap1\n      pop\n      jump\t// out\n        /* \"#utility.yul\":9733:10065   */\n    tag_58:\n        /* \"#utility.yul\":9854:9858   */\n      0x00\n        /* \"#utility.yul\":9892:9894   */\n      0x40\n        /* \"#utility.yul\":9881:9890   */\n      dup3\n        /* \"#utility.yul\":9877:9895   */\n      add\n        /* \"#utility.yul\":9869:9895   */\n      swap1\n      pop\n        /* \"#utility.yul\":9905:9976   */\n      tag_234\n        /* \"#utility.yul\":9973:9974   */\n      0x00\n        /* \"#utility.yul\":9962:9971   */\n      dup4\n        /* \"#utility.yul\":9958:9975   */\n      add\n        /* \"#utility.yul\":9949:9955   */\n      dup6\n        /* \"#utility.yul\":9905:9976   */\n      tag_107\n      jump\t// in\n    tag_234:\n        /* \"#utility.yul\":9986:10058   */\n      tag_235\n        /* \"#utility.yul\":10054:10056   */\n      0x20\n        /* \"#utility.yul\":10043:10052   */\n      dup4\n        /* \"#utility.yul\":10039:10057   */\n      add\n        /* \"#utility.yul\":10030:10036   */\n      dup5\n        /* \"#utility.yul\":9986:10058   */\n      tag_93\n      jump\t// in\n    tag_235:\n        /* \"#utility.yul\":9733:10065   */\n      swap4\n      swap3\n      pop\n      pop\n      pop\n      jump\t// out\n        /* \"#utility.yul\":10071:10243   */\n    tag_115:\n        /* \"#utility.yul\":10211:10235   */\n      0x4e6f2070726f706f73616c7320617661696c61626c6500000000000000000000\n        /* \"#utility.yul\":10207:10208   */\n      0x00\n        /* \"#utility.yul\":10199:10205   */\n      dup3\n        /* \"#utility.yul\":10195:10209   */\n      add\n        /* \"#utility.yul\":10188:10236   */\n      mstore\n        /* \"#utility.yul\":10071:10243   */\n      pop\n      jump\t// out\n        /* \"#utility.yul\":10249:10615   */\n    tag_116:\n        /* \"#utility.yul\":10391:10394   */\n      0x00\n        /* \"#utility.yul\":10412:10479   */\n      tag_238\n        /* \"#utility.yul\":10476:10478   */\n      0x16\n        /* \"#utility.yul\":10471:10474   */\n      dup4\n        /* \"#utility.yul\":10412:10479   */\n      tag_89\n      jump\t// in\n    tag_238:\n        /* \"#utility.yul\":10405:10479   */\n      swap2\n      pop\n        /* \"#utility.yul\":10488:10581   */\n      tag_239\n        /* \"#utility.yul\":10577:10580   */\n      dup3\n        /* \"#utility.yul\":10488:10581   */\n      tag_115\n      jump\t// in\n    tag_239:\n        /* \"#utility.yul\":10606:10608   */\n      0x20\n        /* \"#utility.yul\":10601:10604   */\n      dup3\n        /* \"#utility.yul\":10597:10609   */\n      add\n        /* \"#utility.yul\":10590:10609   */\n      swap1\n      pop\n        /* \"#utility.yul\":10249:10615   */\n      swap2\n      swap1\n      pop\n      jump\t// out\n        /* \"#utility.yul\":10621:11040   */\n    tag_62:\n        /* \"#utility.yul\":10787:10791   */\n      0x00\n        /* \"#utility.yul\":10825:10827   */\n      0x20\n        /* \"#utility.yul\":10814:10823   */\n      dup3\n        /* \"#utility.yul\":10810:10828   */\n      add\n        /* \"#utility.yul\":10802:10828   */\n      swap1\n      pop\n        /* \"#utility.yul\":10874:10883   */\n      dup2\n        /* \"#utility.yul\":10868:10872   */\n      dup2\n        /* \"#utility.yul\":10864:10884   */\n      sub\n        /* \"#utility.yul\":10860:10861   */\n      0x00\n        /* \"#utility.yul\":10849:10858   */\n      dup4\n        /* \"#utility.yul\":10845:10862   */\n      add\n        /* \"#utility.yul\":10838:10885   */\n      mstore\n        /* \"#utility.yul\":10902:11033   */\n      tag_241\n        /* \"#utility.yul\":11028:11032   */\n      dup2\n        /* \"#utility.yul\":10902:11033   */\n      tag_116\n      jump\t// in\n    tag_241:\n        /* \"#utility.yul\":10894:11033   */\n      swap1\n      pop\n        /* \"#utility.yul\":10621:11040   */\n      swap2\n      swap1\n      pop\n      jump\t// out\n        /* \"#utility.yul\":11046:11226   */\n    tag_117:\n        /* \"#utility.yul\":11186:11218   */\n      0x416c726561647920766f746564206f6e20746869732070726f706f73616c0000\n        /* \"#utility.yul\":11182:11183   */\n      0x00\n        /* \"#utility.yul\":11174:11180   */\n      dup3\n        /* \"#utility.yul\":11170:11184   */\n      add\n        /* \"#utility.yul\":11163:11219   */\n      mstore\n        /* \"#utility.yul\":11046:11226   */\n      pop\n      jump\t// out\n        /* \"#utility.yul\":11232:11598   */\n    tag_118:\n        /* \"#utility.yul\":11374:11377   */\n      0x00\n        /* \"#utility.yul\":11395:11462   */\n      tag_244\n        /* \"#utility.yul\":11459:11461   */\n      0x1e\n        /* \"#utility.yul\":11454:11457   */\n      dup4\n        /* \"#utility.yul\":11395:11462   */\n      tag_89\n      jump\t// in\n    tag_244:\n        /* \"#utility.yul\":11388:11462   */\n      swap2\n      pop\n        /* \"#utility.yul\":11471:11564   */\n      tag_245\n        /* \"#utility.yul\":11560:11563   */\n      dup3\n        /* \"#utility.yul\":11471:11564   */\n      tag_117\n      jump\t// in\n    tag_245:\n        /* \"#utility.yul\":11589:11591   */\n      0x20\n        /* \"#utility.yul\":11584:11587   */\n      dup3\n        /* \"#utility.yul\":11580:11592   */\n      add\n        /* \"#utility.yul\":11573:11592   */\n      swap1\n      pop\n        /* \"#utility.yul\":11232:11598   */\n      swap2\n      swap1\n      pop\n      jump\t// out\n        /* \"#utility.yul\":11604:12023   */\n    tag_65:\n        /* \"#utility.yul\":11770:11774   */\n      0x00\n        /* \"#utility.yul\":11808:11810   */\n      0x20\n        /* \"#utility.yul\":11797:11806   */\n      dup3\n        /* \"#utility.yul\":11793:11811   */\n      add\n        /* \"#utility.yul\":11785:11811   */\n      swap1\n      pop\n        /* \"#utility.yul\":11857:11866   */\n      dup2\n        /* \"#utility.yul\":11851:11855   */\n      dup2\n        /* \"#utility.yul\":11847:11867   */\n      sub\n        /* \"#utility.yul\":11843:11844   */\n      0x00\n        /* \"#utility.yul\":11832:11841   */\n      dup4\n        /* \"#utility.yul\":11828:11845   */\n      add\n        /* \"#utility.yul\":11821:11868   */\n      mstore\n        /* \"#utility.yul\":11885:12016   */\n      tag_247\n        /* \"#utility.yul\":12011:12015   */\n      dup2\n        /* \"#utility.yul\":11885:12016   */\n      tag_118\n      jump\t// in\n    tag_247:\n        /* \"#utility.yul\":11877:12016   */\n      swap1\n      pop\n        /* \"#utility.yul\":11604:12023   */\n      swap2\n      swap1\n      pop\n      jump\t// out\n        /* \"#utility.yul\":12029:12209   */\n    tag_68:\n        /* \"#utility.yul\":12077:12154   */\n      0x4e487b7100000000000000000000000000000000000000000000000000000000\n        /* \"#utility.yul\":12074:12075   */\n      0x00\n        /* \"#utility.yul\":12067:12155   */\n      mstore\n        /* \"#utility.yul\":12174:12178   */\n      0x32\n        /* \"#utility.yul\":12171:12172   */\n      0x04\n        /* \"#utility.yul\":12164:12179   */\n      mstore\n        /* \"#utility.yul\":12198:12202   */\n      0x24\n        /* \"#utility.yul\":12195:12196   */\n      0x00\n        /* \"#utility.yul\":12188:12203   */\n      revert\n        /* \"#utility.yul\":12215:12395   */\n    tag_119:\n        /* \"#utility.yul\":12263:12340   */\n      0x4e487b7100000000000000000000000000000000000000000000000000000000\n        /* \"#utility.yul\":12260:12261   */\n      0x00\n        /* \"#utility.yul\":12253:12341   */\n      mstore\n        /* \"#utility.yul\":12360:12364   */\n      0x11\n        /* \"#utility.yul\":12357:12358   */\n      0x04\n        /* \"#utility.yul\":12350:12365   */\n      mstore\n        /* \"#utility.yul\":12384:12388   */\n      0x24\n        /* \"#utility.yul\":12381:12382   */\n      0x00\n        /* \"#utility.yul\":12374:12389   */\n      revert\n        /* \"#utility.yul\":12401:12634   */\n    tag_71:\n        /* \"#utility.yul\":12440:12443   */\n      0x00\n        /* \"#utility.yul\":12463:12487   */\n      tag_251\n        /* \"#utility.yul\":12481:12486   */\n      dup3\n        /* \"#utility.yul\":12463:12487   */\n      tag_85\n      jump\t// in\n    tag_251:\n        /* \"#utility.yul\":12454:12487   */\n      swap2\n      pop\n        /* \"#utility.yul\":12509:12575   */\n      0xffffffffffffffffffffffffffffffffffffffffffffffffffffffffffffffff\n        /* \"#utility.yul\":12502:12507   */\n      dup3\n        /* \"#utility.yul\":12499:12576   */\n      sub\n        /* \"#utility.yul\":12496:12599   */\n      tag_252\n      jumpi\n        /* \"#utility.yul\":12579:12597   */\n      tag_253\n      tag_119\n      jump\t// in\n    tag_253:\n        /* \"#utility.yul\":12496:12599   */\n    tag_252:\n        /* \"#utility.yul\":12626:12627   */\n      0x01\n        /* \"#utility.yul\":12619:12624   */\n      dup3\n        /* \"#utility.yul\":12615:12628   */\n      add\n        /* \"#utility.yul\":12608:12628   */\n      swap1\n      pop\n        /* \"#utility.yul\":12401:12634   */\n      swap2\n      swap1\n      pop\n      jump\t// out\n        /* \"#utility.yul\":12640:12972   */\n    tag_73:\n        /* \"#utility.yul\":12761:12765   */\n      0x00\n        /* \"#utility.yul\":12799:12801   */\n      0x40\n        /* \"#utility.yul\":12788:12797   */\n      dup3\n        /* \"#utility.yul\":12784:12802   */\n      add\n        /* \"#utility.yul\":12776:12802   */\n      swap1\n      pop\n        /* \"#utility.yul\":12812:12883   */\n      tag_255\n        /* \"#utility.yul\":12880:12881   */\n      0x00\n        /* \"#utility.yul\":12869:12878   */\n      dup4\n        /* \"#utility.yul\":12865:12882   */\n      add\n        /* \"#utility.yul\":12856:12862   */\n      dup6\n        /* \"#utility.yul\":12812:12883   */\n      tag_93\n      jump\t// in\n    tag_255:\n        /* \"#utility.yul\":12893:12965   */\n      tag_256\n        /* \"#utility.yul\":12961:12963   */\n      0x20\n        /* \"#utility.yul\":12950:12959   */\n      dup4\n        /* \"#utility.yul\":12946:12964   */\n      add\n        /* \"#utility.yul\":12937:12943   */\n      dup5\n        /* \"#utility.yul\":12893:12965   */\n      tag_93\n      jump\t// in\n    tag_256:\n        /* \"#utility.yul\":12640:12972   */\n      swap4\n      swap3\n      pop\n      pop\n      pop\n      jump\t// out\n        /* \"#utility.yul\":12978:13119   */\n    tag_120:\n        /* \"#utility.yul\":13027:13031   */\n      0x00\n        /* \"#utility.yul\":13050:13053   */\n      dup2\n        /* \"#utility.yul\":13042:13053   */\n      swap1\n      pop\n        /* \"#utility.yul\":13073:13076   */\n      dup2\n        /* \"#utility.yul\":13070:13071   */\n      0x00\n        /* \"#utility.yul\":13063:13077   */\n      mstore\n        /* \"#utility.yul\":13107:13111   */\n      0x20\n        /* \"#utility.yul\":13104:13105   */\n      0x00\n        /* \"#utility.yul\":13094:13112   */\n      keccak256\n        /* \"#utility.yul\":13086:13112   */\n      swap1\n      pop\n        /* \"#utility.yul\":12978:13119   */\n      swap2\n      swap1\n      pop\n      jump\t// out\n        /* \"#utility.yul\":13125:13218   */\n    tag_121:\n        /* \"#utility.yul\":13162:13168   */\n      0x00\n        /* \"#utility.yul\":13209:13211   */\n      0x20\n        /* \"#utility.yul\":13204:13206   */\n      0x1f\n        /* \"#utility.yul\":13197:13202   */\n      dup4\n        /* \"#utility.yul\":13193:13207   */\n      add\n        /* \"#utility.yul\":13189:13212   */\n      div\n        /* \"#utility.yul\":13179:13212   */\n      swap1\n      pop\n        /* \"#utility.yul\":13125:13218   */\n      swap2\n      swap1\n      pop\n      jump\t// out\n        /* \"#utility.yul\":13224:13331   */\n    tag_122:\n        /* \"#utility.yul\":13268:13276   */\n      0x00\n        /* \"#utility.yul\":13318:13323   */\n      dup3\n        /* \"#utility.yul\":13312:13316   */\n      dup3\n        /* \"#utility.yul\":13308:13324   */\n      shl\n        /* \"#utility.yul\":13287:13324   */\n      swap1\n      pop\n        /* \"#utility.yul\":13224:13331   */\n      swap3\n      swap2\n      pop\n      pop\n      jump\t// out\n        /* \"#utility.yul\":13337:13730   */\n    tag_123:\n        /* \"#utility.yul\":13406:13412   */\n      0x00\n        /* \"#utility.yul\":13456:13457   */\n      0x08\n        /* \"#utility.yul\":13444:13454   */\n      dup4\n        /* \"#utility.yul\":13440:13458   */\n      mul\n        /* \"#utility.yul\":13479:13576   */\n      tag_261\n        /* \"#utility.yul\":13509:13575   */\n      0xffffffffffffffffffffffffffffffffffffffffffffffffffffffffffffffff\n        /* \"#utility.yul\":13498:13507   */\n      dup3\n        /* \"#utility.yul\":13479:13576   */\n      tag_122\n      jump\t// in\n    tag_261:\n        /* \"#utility.yul\":13597:13636   */\n      tag_262\n        /* \"#utility.yul\":13627:13635   */\n      dup7\n        /* \"#utility.yul\":13616:13625   */\n      dup4\n        /* \"#utility.yul\":13597:13636   */\n      tag_122\n      jump\t// in\n    tag_262:\n        /* \"#utility.yul\":13585:13636   */\n      swap6\n      pop\n        /* \"#utility.yul\":13669:13673   */\n      dup1\n        /* \"#utility.yul\":13665:13674   */\n      not\n        /* \"#utility.yul\":13658:13663   */\n      dup5\n        /* \"#utility.yul\":13654:13675   */\n      and\n        /* \"#utility.yul\":13645:13675   */\n      swap4\n      pop\n        /* \"#utility.yul\":13718:13722   */\n      dup1\n        /* \"#utility.yul\":13708:13716   */\n      dup7\n        /* \"#utility.yul\":13704:13723   */\n      and\n        /* \"#utility.yul\":13697:13702   */\n      dup5\n        /* \"#utility.yul\":13694:13724   */\n      or\n        /* \"#utility.yul\":13684:13724   */\n      swap3\n      pop\n        /* \"#utility.yul\":13413:13730   */\n      pop\n      pop\n        /* \"#utility.yul\":13337:13730   */\n      swap4\n      swap3\n      pop\n      pop\n      pop\n      jump\t// out\n        /* \"#utility.yul\":13736:13796   */\n    tag_124:\n        /* \"#utility.yul\":13764:13767   */\n      0x00\n        /* \"#utility.yul\":13785:13790   */\n      dup2\n        /* \"#utility.yul\":13778:13790   */\n      swap1\n      pop\n        /* \"#utility.yul\":13736:13796   */\n      swap2\n      swap1\n      pop\n      jump\t// out\n        /* \"#utility.yul\":13802:13944   */\n    tag_125:\n        /* \"#utility.yul\":13852:13861   */\n      0x00\n        /* \"#utility.yul\":13885:13938   */\n      tag_265\n        /* \"#utility.yul\":13903:13937   */\n      tag_266\n        /* \"#utility.yul\":13912:13936   */\n      tag_267\n        /* \"#utility.yul\":13930:13935   */\n      dup5\n        /* \"#utility.yul\":13912:13936   */\n      tag_85\n      jump\t// in\n    tag_267:\n        /* \"#utility.yul\":13903:13937   */\n      tag_124\n      jump\t// in\n    tag_266:\n        /* \"#utility.yul\":13885:13938   */\n      tag_85\n      jump\t// in\n    tag_265:\n        /* \"#utility.yul\":13872:13938   */\n      swap1\n      pop\n        /* \"#utility.yul\":13802:13944   */\n      swap2\n      swap1\n      pop\n      jump\t// out\n        /* \"#utility.yul\":13950:14025   */\n    tag_126:\n        /* \"#utility.yul\":13993:13996   */\n      0x00\n        /* \"#utility.yul\":14014:14019   */\n      dup2\n        /* \"#utility.yul\":14007:14019   */\n      swap1\n      pop\n        /* \"#utility.yul\":13950:14025   */\n      swap2\n      swap1\n      pop\n      jump\t// out\n        /* \"#utility.yul\":14031:14300   */\n    tag_127:\n        /* \"#utility.yul\":14141:14180   */\n      tag_270\n        /* \"#utility.yul\":14172:14179   */\n      dup4\n        /* \"#utility.yul\":14141:14180   */\n      tag_125\n      jump\t// in\n    tag_270:\n        /* \"#utility.yul\":14202:14293   */\n      tag_271\n        /* \"#utility.yul\":14251:14292   */\n      tag_272\n        /* \"#utility.yul\":14275:14291   */\n      dup3\n        /* \"#utility.yul\":14251:14292   */\n      tag_126\n      jump\t// in\n    tag_272:\n        /* \"#utility.yul\":14243:14249   */\n      dup5\n        /* \"#utility.yul\":14236:14240   */\n      dup5\n        /* \"#utility.yul\":14230:14241   */\n      sload\n        /* \"#utility.yul\":14202:14293   */\n      tag_123\n      jump\t// in\n    tag_271:\n        /* \"#utility.yul\":14196:14200   */\n      dup3\n        /* \"#utility.yul\":14189:14294   */\n      sstore\n        /* \"#utility.yul\":14107:14300   */\n      pop\n        /* \"#utility.yul\":14031:14300   */\n      pop\n      pop\n      pop\n      jump\t// out\n        /* \"#utility.yul\":14306:14379   */\n    tag_128:\n        /* \"#utility.yul\":14351:14354   */\n      0x00\n        /* \"#utility.yul\":14372:14373   */\n      0x00\n        /* \"#utility.yul\":14365:14373   */\n      swap1\n      pop\n        /* \"#utility.yul\":14306:14379   */\n      swap1\n      jump\t// out\n        /* \"#utility.yul\":14385:14574   */\n    tag_129:\n        /* \"#utility.yul\":14462:14494   */\n      tag_275\n      tag_128\n      jump\t// in\n    tag_275:\n        /* \"#utility.yul\":14503:14568   */\n      tag_276\n        /* \"#utility.yul\":14561:14567   */\n      dup2\n        /* \"#utility.yul\":14553:14559   */\n      dup5\n        /* \"#utility.yul\":14547:14551   */\n      dup5\n        /* \"#utility.yul\":14503:14568   */\n      tag_127\n      jump\t// in\n    tag_276:\n        /* \"#utility.yul\":14438:14574   */\n      pop\n        /* \"#utility.yul\":14385:14574   */\n      pop\n      pop\n      jump\t// out\n        /* \"#utility.yul\":14580:14766   */\n    tag_130:\n        /* \"#utility.yul\":14640:14760   */\n    tag_278:\n        /* \"#utility.yul\":14657:14660   */\n      dup2\n        /* \"#utility.yul\":14650:14655   */\n      dup2\n        /* \"#utility.yul\":14647:14661   */\n      lt\n        /* \"#utility.yul\":14640:14760   */\n      iszero\n      tag_280\n      jumpi\n        /* \"#utility.yul\":14711:14750   */\n      tag_281\n        /* \"#utility.yul\":14748:14749   */\n      0x00\n        /* \"#utility.yul\":14741:14746   */\n      dup3\n        /* \"#utility.yul\":14711:14750   */\n      tag_129\n      jump\t// in\n    tag_281:\n        /* \"#utility.yul\":14684:14685   */\n      0x01\n        /* \"#utility.yul\":14677:14682   */\n      dup2\n        /* \"#utility.yul\":14673:14686   */\n      add\n        /* \"#utility.yul\":14664:14686   */\n      swap1\n      pop\n        /* \"#utility.yul\":14640:14760   */\n      jump(tag_278)\n    tag_280:\n        /* \"#utility.yul\":14580:14766   */\n      pop\n      pop\n      jump\t// out\n        /* \"#utility.yul\":14772:15315   */\n    tag_131:\n        /* \"#utility.yul\":14873:14875   */\n      0x1f\n        /* \"#utility.yul\":14868:14871   */\n      dup3\n        /* \"#utility.yul\":14865:14876   */\n      gt\n        /* \"#utility.yul\":14862:15308   */\n      iszero\n      tag_283\n      jumpi\n        /* \"#utility.yul\":14907:14945   */\n      tag_284\n        /* \"#utility.yul\":14939:14944   */\n      dup2\n        /* \"#utility.yul\":14907:14945   */\n      tag_120\n      jump\t// in\n    tag_284:\n        /* \"#utility.yul\":14991:15020   */\n      tag_285\n        /* \"#utility.yul\":15009:15019   */\n      dup5\n        /* \"#utility.yul\":14991:15020   */\n      tag_121\n      jump\t// in\n    tag_285:\n        /* \"#utility.yul\":14981:14989   */\n      dup2\n        /* \"#utility.yul\":14977:15021   */\n      add\n        /* \"#utility.yul\":15174:15176   */\n      0x20\n        /* \"#utility.yul\":15162:15172   */\n      dup6\n        /* \"#utility.yul\":15159:15177   */\n      lt\n        /* \"#utility.yul\":15156:15205   */\n      iszero\n      tag_286\n      jumpi\n        /* \"#utility.yul\":15195:15203   */\n      dup2\n        /* \"#utility.yul\":15180:15203   */\n      swap1\n      pop\n        /* \"#utility.yul\":15156:15205   */\n    tag_286:\n        /* \"#utility.yul\":15218:15298   */\n      tag_287\n        /* \"#utility.yul\":15274:15296   */\n      tag_288\n        /* \"#utility.yul\":15292:15295   */\n      dup6\n        /* \"#utility.yul\":15274:15296   */\n      tag_121\n      jump\t// in\n    tag_288:\n        /* \"#utility.yul\":15264:15272   */\n      dup4\n        /* \"#utility.yul\":15260:15297   */\n      add\n        /* \"#utility.yul\":15247:15258   */\n      dup3\n        /* \"#utility.yul\":15218:15298   */\n      tag_130\n      jump\t// in\n    tag_287:\n        /* \"#utility.yul\":14877:15308   */\n      pop\n      pop\n        /* \"#utility.yul\":14862:15308   */\n    tag_283:\n        /* \"#utility.yul\":14772:15315   */\n      pop\n      pop\n      pop\n      jump\t// out\n        /* \"#utility.yul\":15321:15438   */\n    tag_132:\n        /* \"#utility.yul\":15375:15383   */\n      0x00\n        /* \"#utility.yul\":15425:15430   */\n      dup3\n        /* \"#utility.yul\":15419:15423   */\n      dup3\n        /* \"#utility.yul\":15415:15431   */\n      shr\n        /* \"#utility.yul\":15394:15431   */\n      swap1\n      pop\n        /* \"#utility.yul\":15321:15438   */\n      swap3\n      swap2\n      pop\n      pop\n      jump\t// out\n        /* \"#utility.yul\":15444:15613   */\n    tag_133:\n        /* \"#utility.yul\":15488:15494   */\n      0x00\n        /* \"#utility.yul\":15521:15572   */\n      tag_291\n        /* \"#utility.yul\":15569:15570   */\n      0x00\n        /* \"#utility.yul\":15565:15571   */\n      not\n        /* \"#utility.yul\":15557:15562   */\n      dup5\n        /* \"#utility.yul\":15554:15555   */\n      0x08\n        /* \"#utility.yul\":15550:15563   */\n      mul\n        /* \"#utility.yul\":15521:15572   */\n      tag_132\n      jump\t// in\n    tag_291:\n        /* \"#utility.yul\":15517:15573   */\n      not\n        /* \"#utility.yul\":15602:15606   */\n      dup1\n        /* \"#utility.yul\":15596:15600   */\n      dup4\n        /* \"#utility.yul\":15592:15607   */\n      and\n        /* \"#utility.yul\":15582:15607   */\n      swap2\n      pop\n        /* \"#utility.yul\":15495:15613   */\n      pop\n        /* \"#utility.yul\":15444:15613   */\n      swap3\n      swap2\n      pop\n      pop\n      jump\t// out\n        /* \"#utility.yul\":15618:15913   */\n    tag_134:\n        /* \"#utility.yul\":15694:15698   */\n      0x00\n        /* \"#utility.yul\":15840:15869   */\n      tag_293\n        /* \"#utility.yul\":15865:15868   */\n      dup4\n        /* \"#utility.yul\":15859:15863   */\n      dup4\n        /* \"#utility.yul\":15840:15869   */\n      tag_133\n      jump\t// in\n    tag_293:\n        /* \"#utility.yul\":15832:15869   */\n      swap2\n      pop\n        /* \"#utility.yul\":15902:15905   */\n      dup3\n        /* \"#utility.yul\":15899:15900   */\n      0x02\n        /* \"#utility.yul\":15895:15906   */\n      mul\n        /* \"#utility.yul\":15889:15893   */\n      dup3\n        /* \"#utility.yul\":15886:15907   */\n      or\n        /* \"#utility.yul\":15878:15907   */\n      swap1\n      pop\n        /* \"#utility.yul\":15618:15913   */\n      swap3\n      swap2\n      pop\n      pop\n      jump\t// out\n        /* \"#utility.yul\":15918:17313   */\n    tag_77:\n        /* \"#utility.yul\":16035:16072   */\n      tag_295\n        /* \"#utility.yul\":16068:16071   */\n      dup3\n        /* \"#utility.yul\":16035:16072   */\n      tag_88\n      jump\t// in\n    tag_295:\n        /* \"#utility.yul\":16137:16155   */\n      0xffffffffffffffff\n        /* \"#utility.yul\":16129:16135   */\n      dup2\n        /* \"#utility.yul\":16126:16156   */\n      gt\n        /* \"#utility.yul\":16123:16179   */\n      iszero\n      tag_296\n      jumpi\n        /* \"#utility.yul\":16159:16177   */\n      tag_297\n      tag_96\n      jump\t// in\n    tag_297:\n        /* \"#utility.yul\":16123:16179   */\n    tag_296:\n        /* \"#utility.yul\":16203:16241   */\n      tag_298\n        /* \"#utility.yul\":16235:16239   */\n      dup3\n        /* \"#utility.yul\":16229:16240   */\n      sload\n        /* \"#utility.yul\":16203:16241   */\n      tag_38\n      jump\t// in\n    tag_298:\n        /* \"#utility.yul\":16288:16355   */\n      tag_299\n        /* \"#utility.yul\":16348:16354   */\n      dup3\n        /* \"#utility.yul\":16340:16346   */\n      dup3\n        /* \"#utility.yul\":16334:16338   */\n      dup6\n        /* \"#utility.yul\":16288:16355   */\n      tag_131\n      jump\t// in\n    tag_299:\n        /* \"#utility.yul\":16382:16383   */\n      0x00\n        /* \"#utility.yul\":16406:16410   */\n      0x20\n        /* \"#utility.yul\":16393:16410   */\n      swap1\n      pop\n        /* \"#utility.yul\":16438:16440   */\n      0x1f\n        /* \"#utility.yul\":16430:16436   */\n      dup4\n        /* \"#utility.yul\":16427:16441   */\n      gt\n        /* \"#utility.yul\":16455:16456   */\n      0x01\n        /* \"#utility.yul\":16450:17068   */\n      dup2\n      eq\n      tag_301\n      jumpi\n        /* \"#utility.yul\":17112:17113   */\n      0x00\n        /* \"#utility.yul\":17129:17135   */\n      dup5\n        /* \"#utility.yul\":17126:17203   */\n      iszero\n      tag_302\n      jumpi\n        /* \"#utility.yul\":17178:17187   */\n      dup3\n        /* \"#utility.yul\":17173:17176   */\n      dup8\n        /* \"#utility.yul\":17169:17188   */\n      add\n        /* \"#utility.yul\":17163:17189   */\n      mload\n        /* \"#utility.yul\":17154:17189   */\n      swap1\n      pop\n        /* \"#utility.yul\":17126:17203   */\n    tag_302:\n        /* \"#utility.yul\":17229:17296   */\n      tag_303\n        /* \"#utility.yul\":17289:17295   */\n      dup6\n        /* \"#utility.yul\":17282:17287   */\n      dup3\n        /* \"#utility.yul\":17229:17296   */\n      tag_134\n      jump\t// in\n    tag_303:\n        /* \"#utility.yul\":17223:17227   */\n      dup7\n        /* \"#utility.yul\":17216:17297   */\n      sstore\n        /* \"#utility.yul\":17085:17307   */\n      pop\n        /* \"#utility.yul\":16420:17307   */\n      jump(tag_300)\n        /* \"#utility.yul\":16450:17068   */\n    tag_301:\n        /* \"#utility.yul\":16502:16506   */\n      0x1f\n        /* \"#utility.yul\":16498:16507   */\n      not\n        /* \"#utility.yul\":16490:16496   */\n      dup5\n        /* \"#utility.yul\":16486:16508   */\n      and\n        /* \"#utility.yul\":16536:16573   */\n      tag_304\n        /* \"#utility.yul\":16568:16572   */\n      dup7\n        /* \"#utility.yul\":16536:16573   */\n      tag_120\n      jump\t// in\n    tag_304:\n        /* \"#utility.yul\":16595:16596   */\n      0x00\n        /* \"#utility.yul\":16609:16817   */\n    tag_305:\n        /* \"#utility.yul\":16623:16630   */\n      dup3\n        /* \"#utility.yul\":16620:16621   */\n      dup2\n        /* \"#utility.yul\":16617:16631   */\n      lt\n        /* \"#utility.yul\":16609:16817   */\n      iszero\n      tag_307\n      jumpi\n        /* \"#utility.yul\":16702:16711   */\n      dup5\n        /* \"#utility.yul\":16697:16700   */\n      dup10\n        /* \"#utility.yul\":16693:16712   */\n      add\n        /* \"#utility.yul\":16687:16713   */\n      mload\n        /* \"#utility.yul\":16679:16685   */\n      dup3\n        /* \"#utility.yul\":16672:16714   */\n      sstore\n        /* \"#utility.yul\":16753:16754   */\n      0x01\n        /* \"#utility.yul\":16745:16751   */\n      dup3\n        /* \"#utility.yul\":16741:16755   */\n      add\n        /* \"#utility.yul\":16731:16755   */\n      swap2\n      pop\n        /* \"#utility.yul\":16800:16802   */\n      0x20\n        /* \"#utility.yul\":16789:16798   */\n      dup6\n        /* \"#utility.yul\":16785:16803   */\n      add\n        /* \"#utility.yul\":16772:16803   */\n      swap5\n      pop\n        /* \"#utility.yul\":16646:16650   */\n      0x20\n        /* \"#utility.yul\":16643:16644   */\n      dup2\n        /* \"#utility.yul\":16639:16651   */\n      add\n        /* \"#utility.yul\":16634:16651   */\n      swap1\n      pop\n        /* \"#utility.yul\":16609:16817   */\n      jump(tag_305)\n    tag_307:\n        /* \"#utility.yul\":16845:16851   */\n      dup7\n        /* \"#utility.yul\":16836:16843   */\n      dup4\n        /* \"#utility.yul\":16833:16852   */\n      lt\n        /* \"#utility.yul\":16830:17009   */\n      iszero\n      tag_308\n      jumpi\n        /* \"#utility.yul\":16903:16912   */\n      dup5\n        /* \"#utility.yul\":16898:16901   */\n      dup10\n        /* \"#utility.yul\":16894:16913   */\n      add\n        /* \"#utility.yul\":16888:16914   */\n      mload\n        /* \"#utility.yul\":16946:16994   */\n      tag_309\n        /* \"#utility.yul\":16988:16992   */\n      0x1f\n        /* \"#utility.yul\":16980:16986   */\n      dup10\n        /* \"#utility.yul\":16976:16993   */\n      and\n        /* \"#utility.yul\":16965:16974   */\n      dup3\n        /* \"#utility.yul\":16946:16994   */\n      tag_133\n      jump\t// in\n    tag_309:\n        /* \"#utility.yul\":16938:16944   */\n      dup4\n        /* \"#utility.yul\":16931:16995   */\n      sstore\n        /* \"#utility.yul\":16853:17009   */\n      pop\n        /* \"#utility.yul\":16830:17009   */\n    tag_308:\n        /* \"#utility.yul\":17055:17056   */\n      0x01\n        /* \"#utility.yul\":17051:17052   */\n      0x02\n        /* \"#utility.yul\":17043:17049   */\n      dup9\n        /* \"#utility.yul\":17039:17053   */\n      mul\n        /* \"#utility.yul\":17035:17057   */\n      add\n        /* \"#utility.yul\":17029:17033   */\n      dup9\n        /* \"#utility.yul\":17022:17058   */\n      sstore\n        /* \"#utility.yul\":16457:17068   */\n      pop\n      pop\n      pop\n        /* \"#utility.yul\":16420:17307   */\n    tag_300:\n      pop\n        /* \"#utility.yul\":16010:17313   */\n      pop\n      pop\n      pop\n        /* \"#utility.yul\":15918:17313   */\n      pop\n      pop\n      jump\t// out\n        /* \"#utility.yul\":17319:17513   */\n    tag_79:\n        /* \"#utility.yul\":17359:17363   */\n      0x00\n        /* \"#utility.yul\":17379:17399   */\n      tag_311\n        /* \"#utility.yul\":17397:17398   */\n      dup3\n        /* \"#utility.yul\":17379:17399   */\n      tag_85\n      jump\t// in\n    tag_311:\n        /* \"#utility.yul\":17374:17399   */\n      swap2\n      pop\n        /* \"#utility.yul\":17413:17433   */\n      tag_312\n        /* \"#utility.yul\":17431:17432   */\n      dup4\n        /* \"#utility.yul\":17413:17433   */\n      tag_85\n      jump\t// in\n    tag_312:\n        /* \"#utility.yul\":17408:17433   */\n      swap3\n      pop\n        /* \"#utility.yul\":17457:17458   */\n      dup3\n        /* \"#utility.yul\":17454:17455   */\n      dup3\n        /* \"#utility.yul\":17450:17459   */\n      sub\n        /* \"#utility.yul\":17442:17459   */\n      swap1\n      pop\n        /* \"#utility.yul\":17481:17482   */\n      dup2\n        /* \"#utility.yul\":17475:17479   */\n      dup2\n        /* \"#utility.yul\":17472:17483   */\n      gt\n        /* \"#utility.yul\":17469:17506   */\n      iszero\n      tag_313\n      jumpi\n        /* \"#utility.yul\":17486:17504   */\n      tag_314\n      tag_119\n      jump\t// in\n    tag_314:\n        /* \"#utility.yul\":17469:17506   */\n    tag_313:\n        /* \"#utility.yul\":17319:17513   */\n      swap3\n      swap2\n      pop\n      pop\n      jump\t// out\n\n    auxdata: 0xa26469706673582212206bd18112d476f3845dc173d03e53371a117ff5ab9b4735b868d37089b9feb8f464736f6c634300081e0033\n}\n",
				"bytecode": {
					"linkReferences": {},
					"object": "6080604052348015600e575f5ffd5b503360035f6101000a81548173ffffffffffffffffffffffffffffffffffffffff021916908373ffffffffffffffffffffffffffffffffffffffff1602179055506110e08061005c5f395ff3fe608060405234801561000f575f5ffd5b5060043610610055575f3560e01c80630121b93f14610059578063013cf08b1461007557806349c2a1a6146100a6578063f4ab9adf146100c2578063f851a440146100de575b5f5ffd5b610073600480360381019061006e91906107bc565b6100fc565b005b61008f600480360381019061008a91906107bc565b610191565b60405161009d929190610866565b60405180910390f35b6100c060048036038101906100bb91906109c0565b610245565b005b6100dc60048036038101906100d79190610a61565b6102e0565b005b6100e661048a565b6040516100f39190610a9b565b60405180910390f35b60045f3373ffffffffffffffffffffffffffffffffffffffff1673ffffffffffffffffffffffffffffffffffffffff1681526020019081526020015f205f9054906101000a900460ff16610185576040517f08c379a000000000000000000000000000000000000000000000000000000000815260040161017c90610afe565b60405180910390fd5b61018e816104af565b50565b5f818154811061019f575f80fd5b905f5260205f2090600202015f91509050805f0180546101be90610b49565b80601f01602080910402602001604051908101604052809291908181526020018280546101ea90610b49565b80156102355780601f1061020c57610100808354040283529160200191610235565b820191905f5260205f20905b81548152906001019060200180831161021857829003601f168201915b5050505050908060010154905082565b60035f9054906101000a900473ffffffffffffffffffffffffffffffffffffffff1673ffffffffffffffffffffffffffffffffffffffff163373ffffffffffffffffffffffffffffffffffffffff16146102d4576040517f08c379a00000000000000000000000000000000000000000000000000000000081526004016102cb90610bc3565b60405180910390fd5b6102dd8161067c565b50565b60035f9054906101000a900473ffffffffffffffffffffffffffffffffffffffff1673ffffffffffffffffffffffffffffffffffffffff163373ffffffffffffffffffffffffffffffffffffffff161461036f576040517f08c379a000000000000000000000000000000000000000000000000000000000815260040161036690610bc3565b60405180910390fd5b60045f8273ffffffffffffffffffffffffffffffffffffffff1673ffffffffffffffffffffffffffffffffffffffff1681526020019081526020015f205f9054906101000a900460ff16156103f9576040517f08c379a00000000000000000000000000000000000000000000000000000000081526004016103f090610c2b565b60405180910390fd5b600160045f8373ffffffffffffffffffffffffffffffffffffffff1673ffffffffffffffffffffffffffffffffffffffff1681526020019081526020015f205f6101000a81548160ff0219169083151502179055507f56aa1768b52ddcdda65c5561181844717c2eed4bb3c848376d4420860da04dae814260405161047f929190610c49565b60405180910390a150565b60035f9054906101000a900473ffffffffffffffffffffffffffffffffffffffff1681565b5f5f80549050116104f5576040517f08c379a00000000000000000000000000000000000000000000000000000000081526004016104ec90610cba565b60405180910390fd5b60025f8281526020019081526020015f205f3373ffffffffffffffffffffffffffffffffffffffff1673ffffffffffffffffffffffffffffffffffffffff1681526020019081526020015f205f9054906101000a900460ff161561058e576040517f08c379a000000000000000000000000000000000000000000000000000000000815260040161058590610d22565b60405180910390fd5b5f81815481106105a1576105a0610d40565b5b905f5260205f2090600202016001015f8154809291906105c090610d9a565b9190505550600160025f8381526020019081526020015f205f3373ffffffffffffffffffffffffffffffffffffffff1673ffffffffffffffffffffffffffffffffffffffff1681526020019081526020015f205f6101000a81548160ff0219169083151502179055503373ffffffffffffffffffffffffffffffffffffffff167fcb87df07b1c304492bd875a5c8b98672eca500939412809ea229afef1d7451888242604051610671929190610de1565b60405180910390a250565b5f60405180604001604052808381526020015f81525090505f81908060018154018082558091505060019003905f5260205f2090600202015f909190919091505f820151815f0190816106cf9190610fa8565b506020820151816001015550505f60015f805490506106ee9190611077565b90508160015f8381526020019081526020015f205f820151815f0190816107159190610fa8565b50602082015181600101559050503373ffffffffffffffffffffffffffffffffffffffff167f5fa1acbdcb8142d84e87165149f77e37c91bcf8055862afe7b9e7c6bac70404b824260405161076b929190610de1565b60405180910390a2505050565b5f604051905090565b5f5ffd5b5f5ffd5b5f819050919050565b61079b81610789565b81146107a5575f5ffd5b50565b5f813590506107b681610792565b92915050565b5f602082840312156107d1576107d0610781565b5b5f6107de848285016107a8565b91505092915050565b5f81519050919050565b5f82825260208201905092915050565b8281835e5f83830152505050565b5f601f19601f8301169050919050565b5f610829826107e7565b61083381856107f1565b9350610843818560208601610801565b61084c8161080f565b840191505092915050565b61086081610789565b82525050565b5f6040820190508181035f83015261087e818561081f565b905061088d6020830184610857565b9392505050565b5f5ffd5b5f5ffd5b7f4e487b71000000000000000000000000000000000000000000000000000000005f52604160045260245ffd5b6108d28261080f565b810181811067ffffffffffffffff821117156108f1576108f061089c565b5b80604052505050565b5f610903610778565b905061090f82826108c9565b919050565b5f67ffffffffffffffff82111561092e5761092d61089c565b5b6109378261080f565b9050602081019050919050565b828183375f83830152505050565b5f61096461095f84610914565b6108fa565b9050828152602081018484840111156109805761097f610898565b5b61098b848285610944565b509392505050565b5f82601f8301126109a7576109a6610894565b5b81356109b7848260208601610952565b91505092915050565b5f602082840312156109d5576109d4610781565b5b5f82013567ffffffffffffffff8111156109f2576109f1610785565b5b6109fe84828501610993565b91505092915050565b5f73ffffffffffffffffffffffffffffffffffffffff82169050919050565b5f610a3082610a07565b9050919050565b610a4081610a26565b8114610a4a575f5ffd5b50565b5f81359050610a5b81610a37565b92915050565b5f60208284031215610a7657610a75610781565b5b5f610a8384828501610a4d565b91505092915050565b610a9581610a26565b82525050565b5f602082019050610aae5f830184610a8c565b92915050565b7f4e6f7420612077686974656c697374656420766f7465720000000000000000005f82015250565b5f610ae86017836107f1565b9150610af382610ab4565b602082019050919050565b5f6020820190508181035f830152610b1581610adc565b9050919050565b7f4e487b71000000000000000000000000000000000000000000000000000000005f52602260045260245ffd5b5f6002820490506001821680610b6057607f821691505b602082108103610b7357610b72610b1c565b5b50919050565b7f4e6f742041646d696e00000000000000000000000000000000000000000000005f82015250565b5f610bad6009836107f1565b9150610bb882610b79565b602082019050919050565b5f6020820190508181035f830152610bda81610ba1565b9050919050565b7f416c7265616479206120766f74657200000000000000000000000000000000005f82015250565b5f610c15600f836107f1565b9150610c2082610be1565b602082019050919050565b5f6020820190508181035f830152610c4281610c09565b9050919050565b5f604082019050610c5c5f830185610a8c565b610c696020830184610857565b9392505050565b7f4e6f2070726f706f73616c7320617661696c61626c65000000000000000000005f82015250565b5f610ca46016836107f1565b9150610caf82610c70565b602082019050919050565b5f6020820190508181035f830152610cd181610c98565b9050919050565b7f416c726561647920766f746564206f6e20746869732070726f706f73616c00005f82015250565b5f610d0c601e836107f1565b9150610d1782610cd8565b602082019050919050565b5f6020820190508181035f830152610d3981610d00565b9050919050565b7f4e487b71000000000000000000000000000000000000000000000000000000005f52603260045260245ffd5b7f4e487b71000000000000000000000000000000000000000000000000000000005f52601160045260245ffd5b5f610da482610789565b91507fffffffffffffffffffffffffffffffffffffffffffffffffffffffffffffffff8203610dd657610dd5610d6d565b5b600182019050919050565b5f604082019050610df45f830185610857565b610e016020830184610857565b9392505050565b5f819050815f5260205f209050919050565b5f6020601f8301049050919050565b5f82821b905092915050565b5f60088302610e647fffffffffffffffffffffffffffffffffffffffffffffffffffffffffffffffff82610e29565b610e6e8683610e29565b95508019841693508086168417925050509392505050565b5f819050919050565b5f610ea9610ea4610e9f84610789565b610e86565b610789565b9050919050565b5f819050919050565b610ec283610e8f565b610ed6610ece82610eb0565b848454610e35565b825550505050565b5f5f905090565b610eed610ede565b610ef8818484610eb9565b505050565b5b81811015610f1b57610f105f82610ee5565b600181019050610efe565b5050565b601f821115610f6057610f3181610e08565b610f3a84610e1a565b81016020851015610f49578190505b610f5d610f5585610e1a565b830182610efd565b50505b505050565b5f82821c905092915050565b5f610f805f1984600802610f65565b1980831691505092915050565b5f610f988383610f71565b9150826002028217905092915050565b610fb1826107e7565b67ffffffffffffffff811115610fca57610fc961089c565b5b610fd48254610b49565b610fdf828285610f1f565b5f60209050601f831160018114611010575f8415610ffe578287015190505b6110088582610f8d565b86555061106f565b601f19841661101e86610e08565b5f5b8281101561104557848901518255600182019150602085019450602081019050611020565b86831015611062578489015161105e601f891682610f71565b8355505b6001600288020188555050505b505050505050565b5f61108182610789565b915061108c83610789565b92508282039050818111156110a4576110a3610d6d565b5b9291505056fea26469706673582212206bd18112d476f3845dc173d03e53371a117ff5ab9b4735b868d37089b9feb8f464736f6c634300081e0033",
					"opcodes": "PUSH1 0x80 PUSH1 0x40 MSTORE CALLVALUE DUP1 ISZERO PUSH1 0xE JUMPI PUSH0 PUSH0 REVERT JUMPDEST POP CALLER PUSH1 0x3 PUSH0 PUSH2 0x100 EXP DUP2 SLOAD DUP2 PUSH20 0xFFFFFFFFFFFFFFFFFFFFFFFFFFFFFFFFFFFFFFFF MUL NOT AND SWAP1 DUP4 PUSH20 0xFFFFFFFFFFFFFFFFFFFFFFFFFFFFFFFFFFFFFFFF AND MUL OR SWAP1 SSTORE POP PUSH2 0x10E0 DUP1 PUSH2 0x5C PUSH0 CODECOPY PUSH0 RETURN INVALID PUSH1 0x80 PUSH1 0x40 MSTORE CALLVALUE DUP1 ISZERO PUSH2 0xF JUMPI PUSH0 PUSH0 REVERT JUMPDEST POP PUSH1 0x4 CALLDATASIZE LT PUSH2 0x55 JUMPI PUSH0 CALLDATALOAD PUSH1 0xE0 SHR DUP1 PUSH4 0x121B93F EQ PUSH2 0x59 JUMPI DUP1 PUSH4 0x13CF08B EQ PUSH2 0x75 JUMPI DUP1 PUSH4 0x49C2A1A6 EQ PUSH2 0xA6 JUMPI DUP1 PUSH4 0xF4AB9ADF EQ PUSH2 0xC2 JUMPI DUP1 PUSH4 0xF851A440 EQ PUSH2 0xDE JUMPI JUMPDEST PUSH0 PUSH0 REVERT JUMPDEST PUSH2 0x73 PUSH1 0x4 DUP1 CALLDATASIZE SUB DUP2 ADD SWAP1 PUSH2 0x6E SWAP2 SWAP1 PUSH2 0x7BC JUMP JUMPDEST PUSH2 0xFC JUMP JUMPDEST STOP JUMPDEST PUSH2 0x8F PUSH1 0x4 DUP1 CALLDATASIZE SUB DUP2 ADD SWAP1 PUSH2 0x8A SWAP2 SWAP1 PUSH2 0x7BC JUMP JUMPDEST PUSH2 0x191 JUMP JUMPDEST PUSH1 0x40 MLOAD PUSH2 0x9D SWAP3 SWAP2 SWAP1 PUSH2 0x866 JUMP JUMPDEST PUSH1 0x40 MLOAD DUP1 SWAP2 SUB SWAP1 RETURN JUMPDEST PUSH2 0xC0 PUSH1 0x4 DUP1 CALLDATASIZE SUB DUP2 ADD SWAP1 PUSH2 0xBB SWAP2 SWAP1 PUSH2 0x9C0 JUMP JUMPDEST PUSH2 0x245 JUMP JUMPDEST STOP JUMPDEST PUSH2 0xDC PUSH1 0x4 DUP1 CALLDATASIZE SUB DUP2 ADD SWAP1 PUSH2 0xD7 SWAP2 SWAP1 PUSH2 0xA61 JUMP JUMPDEST PUSH2 0x2E0 JUMP JUMPDEST STOP JUMPDEST PUSH2 0xE6 PUSH2 0x48A JUMP JUMPDEST PUSH1 0x40 MLOAD PUSH2 0xF3 SWAP2 SWAP1 PUSH2 0xA9B JUMP JUMPDEST PUSH1 0x40 MLOAD DUP1 SWAP2 SUB SWAP1 RETURN JUMPDEST PUSH1 0x4 PUSH0 CALLER PUSH20 0xFFFFFFFFFFFFFFFFFFFFFFFFFFFFFFFFFFFFFFFF AND PUSH20 0xFFFFFFFFFFFFFFFFFFFFFFFFFFFFFFFFFFFFFFFF AND DUP2 MSTORE PUSH1 0x20 ADD SWAP1 DUP2 MSTORE PUSH1 0x20 ADD PUSH0 KECCAK256 PUSH0 SWAP1 SLOAD SWAP1 PUSH2 0x100 EXP SWAP1 DIV PUSH1 0xFF AND PUSH2 0x185 JUMPI PUSH1 0x40 MLOAD PUSH32 0x8C379A000000000000000000000000000000000000000000000000000000000 DUP2 MSTORE PUSH1 0x4 ADD PUSH2 0x17C SWAP1 PUSH2 0xAFE JUMP JUMPDEST PUSH1 0x40 MLOAD DUP1 SWAP2 SUB SWAP1 REVERT JUMPDEST PUSH2 0x18E DUP2 PUSH2 0x4AF JUMP JUMPDEST POP JUMP JUMPDEST PUSH0 DUP2 DUP2 SLOAD DUP2 LT PUSH2 0x19F JUMPI PUSH0 DUP1 REVERT JUMPDEST SWAP1 PUSH0 MSTORE PUSH1 0x20 PUSH0 KECCAK256 SWAP1 PUSH1 0x2 MUL ADD PUSH0 SWAP2 POP SWAP1 POP DUP1 PUSH0 ADD DUP1 SLOAD PUSH2 0x1BE SWAP1 PUSH2 0xB49 JUMP JUMPDEST DUP1 PUSH1 0x1F ADD PUSH1 0x20 DUP1 SWAP2 DIV MUL PUSH1 0x20 ADD PUSH1 0x40 MLOAD SWAP1 DUP2 ADD PUSH1 0x40 MSTORE DUP1 SWAP3 SWAP2 SWAP1 DUP2 DUP2 MSTORE PUSH1 0x20 ADD DUP3 DUP1 SLOAD PUSH2 0x1EA SWAP1 PUSH2 0xB49 JUMP JUMPDEST DUP1 ISZERO PUSH2 0x235 JUMPI DUP1 PUSH1 0x1F LT PUSH2 0x20C JUMPI PUSH2 0x100 DUP1 DUP4 SLOAD DIV MUL DUP4 MSTORE SWAP2 PUSH1 0x20 ADD SWAP2 PUSH2 0x235 JUMP JUMPDEST DUP3 ADD SWAP2 SWAP1 PUSH0 MSTORE PUSH1 0x20 PUSH0 KECCAK256 SWAP1 JUMPDEST DUP2 SLOAD DUP2 MSTORE SWAP1 PUSH1 0x1 ADD SWAP1 PUSH1 0x20 ADD DUP1 DUP4 GT PUSH2 0x218 JUMPI DUP3 SWAP1 SUB PUSH1 0x1F AND DUP3 ADD SWAP2 JUMPDEST POP POP POP POP POP SWAP1 DUP1 PUSH1 0x1 ADD SLOAD SWAP1 POP DUP3 JUMP JUMPDEST PUSH1 0x3 PUSH0 SWAP1 SLOAD SWAP1 PUSH2 0x100 EXP SWAP1 DIV PUSH20 0xFFFFFFFFFFFFFFFFFFFFFFFFFFFFFFFFFFFFFFFF AND PUSH20 0xFFFFFFFFFFFFFFFFFFFFFFFFFFFFFFFFFFFFFFFF AND CALLER PUSH20 0xFFFFFFFFFFFFFFFFFFFFFFFFFFFFFFFFFFFFFFFF AND EQ PUSH2 0x2D4 JUMPI PUSH1 0x40 MLOAD PUSH32 0x8C379A000000000000000000000000000000000000000000000000000000000 DUP2 MSTORE PUSH1 0x4 ADD PUSH2 0x2CB SWAP1 PUSH2 0xBC3 JUMP JUMPDEST PUSH1 0x40 MLOAD DUP1 SWAP2 SUB SWAP1 REVERT JUMPDEST PUSH2 0x2DD DUP2 PUSH2 0x67C JUMP JUMPDEST POP JUMP JUMPDEST PUSH1 0x3 PUSH0 SWAP1 SLOAD SWAP1 PUSH2 0x100 EXP SWAP1 DIV PUSH20 0xFFFFFFFFFFFFFFFFFFFFFFFFFFFFFFFFFFFFFFFF AND PUSH20 0xFFFFFFFFFFFFFFFFFFFFFFFFFFFFFFFFFFFFFFFF AND CALLER PUSH20 0xFFFFFFFFFFFFFFFFFFFFFFFFFFFFFFFFFFFFFFFF AND EQ PUSH2 0x36F JUMPI PUSH1 0x40 MLOAD PUSH32 0x8C379A000000000000000000000000000000000000000000000000000000000 DUP2 MSTORE PUSH1 0x4 ADD PUSH2 0x366 SWAP1 PUSH2 0xBC3 JUMP JUMPDEST PUSH1 0x40 MLOAD DUP1 SWAP2 SUB SWAP1 REVERT JUMPDEST PUSH1 0x4 PUSH0 DUP3 PUSH20 0xFFFFFFFFFFFFFFFFFFFFFFFFFFFFFFFFFFFFFFFF AND PUSH20 0xFFFFFFFFFFFFFFFFFFFFFFFFFFFFFFFFFFFFFFFF AND DUP2 MSTORE PUSH1 0x20 ADD SWAP1 DUP2 MSTORE PUSH1 0x20 ADD PUSH0 KECCAK256 PUSH0 SWAP1 SLOAD SWAP1 PUSH2 0x100 EXP SWAP1 DIV PUSH1 0xFF AND ISZERO PUSH2 0x3F9 JUMPI PUSH1 0x40 MLOAD PUSH32 0x8C379A000000000000000000000000000000000000000000000000000000000 DUP2 MSTORE PUSH1 0x4 ADD PUSH2 0x3F0 SWAP1 PUSH2 0xC2B JUMP JUMPDEST PUSH1 0x40 MLOAD DUP1 SWAP2 SUB SWAP1 REVERT JUMPDEST PUSH1 0x1 PUSH1 0x4 PUSH0 DUP4 PUSH20 0xFFFFFFFFFFFFFFFFFFFFFFFFFFFFFFFFFFFFFFFF AND PUSH20 0xFFFFFFFFFFFFFFFFFFFFFFFFFFFFFFFFFFFFFFFF AND DUP2 MSTORE PUSH1 0x20 ADD SWAP1 DUP2 MSTORE PUSH1 0x20 ADD PUSH0 KECCAK256 PUSH0 PUSH2 0x100 EXP DUP2 SLOAD DUP2 PUSH1 0xFF MUL NOT AND SWAP1 DUP4 ISZERO ISZERO MUL OR SWAP1 SSTORE POP PUSH32 0x56AA1768B52DDCDDA65C5561181844717C2EED4BB3C848376D4420860DA04DAE DUP2 TIMESTAMP PUSH1 0x40 MLOAD PUSH2 0x47F SWAP3 SWAP2 SWAP1 PUSH2 0xC49 JUMP JUMPDEST PUSH1 0x40 MLOAD DUP1 SWAP2 SUB SWAP1 LOG1 POP JUMP JUMPDEST PUSH1 0x3 PUSH0 SWAP1 SLOAD SWAP1 PUSH2 0x100 EXP SWAP1 DIV PUSH20 0xFFFFFFFFFFFFFFFFFFFFFFFFFFFFFFFFFFFFFFFF AND DUP2 JUMP JUMPDEST PUSH0 PUSH0 DUP1 SLOAD SWAP1 POP GT PUSH2 0x4F5 JUMPI PUSH1 0x40 MLOAD PUSH32 0x8C379A000000000000000000000000000000000000000000000000000000000 DUP2 MSTORE PUSH1 0x4 ADD PUSH2 0x4EC SWAP1 PUSH2 0xCBA JUMP JUMPDEST PUSH1 0x40 MLOAD DUP1 SWAP2 SUB SWAP1 REVERT JUMPDEST PUSH1 0x2 PUSH0 DUP3 DUP2 MSTORE PUSH1 0x20 ADD SWAP1 DUP2 MSTORE PUSH1 0x20 ADD PUSH0 KECCAK256 PUSH0 CALLER PUSH20 0xFFFFFFFFFFFFFFFFFFFFFFFFFFFFFFFFFFFFFFFF AND PUSH20 0xFFFFFFFFFFFFFFFFFFFFFFFFFFFFFFFFFFFFFFFF AND DUP2 MSTORE PUSH1 0x20 ADD SWAP1 DUP2 MSTORE PUSH1 0x20 ADD PUSH0 KECCAK256 PUSH0 SWAP1 SLOAD SWAP1 PUSH2 0x100 EXP SWAP1 DIV PUSH1 0xFF AND ISZERO PUSH2 0x58E JUMPI PUSH1 0x40 MLOAD PUSH32 0x8C379A000000000000000000000000000000000000000000000000000000000 DUP2 MSTORE PUSH1 0x4 ADD PUSH2 0x585 SWAP1 PUSH2 0xD22 JUMP JUMPDEST PUSH1 0x40 MLOAD DUP1 SWAP2 SUB SWAP1 REVERT JUMPDEST PUSH0 DUP2 DUP2 SLOAD DUP2 LT PUSH2 0x5A1 JUMPI PUSH2 0x5A0 PUSH2 0xD40 JUMP JUMPDEST JUMPDEST SWAP1 PUSH0 MSTORE PUSH1 0x20 PUSH0 KECCAK256 SWAP1 PUSH1 0x2 MUL ADD PUSH1 0x1 ADD PUSH0 DUP2 SLOAD DUP1 SWAP3 SWAP2 SWAP1 PUSH2 0x5C0 SWAP1 PUSH2 0xD9A JUMP JUMPDEST SWAP2 SWAP1 POP SSTORE POP PUSH1 0x1 PUSH1 0x2 PUSH0 DUP4 DUP2 MSTORE PUSH1 0x20 ADD SWAP1 DUP2 MSTORE PUSH1 0x20 ADD PUSH0 KECCAK256 PUSH0 CALLER PUSH20 0xFFFFFFFFFFFFFFFFFFFFFFFFFFFFFFFFFFFFFFFF AND PUSH20 0xFFFFFFFFFFFFFFFFFFFFFFFFFFFFFFFFFFFFFFFF AND DUP2 MSTORE PUSH1 0x20 ADD SWAP1 DUP2 MSTORE PUSH1 0x20 ADD PUSH0 KECCAK256 PUSH0 PUSH2 0x100 EXP DUP2 SLOAD DUP2 PUSH1 0xFF MUL NOT AND SWAP1 DUP4 ISZERO ISZERO MUL OR SWAP1 SSTORE POP CALLER PUSH20 0xFFFFFFFFFFFFFFFFFFFFFFFFFFFFFFFFFFFFFFFF AND PUSH32 0xCB87DF07B1C304492BD875A5C8B98672ECA500939412809EA229AFEF1D745188 DUP3 TIMESTAMP PUSH1 0x40 MLOAD PUSH2 0x671 SWAP3 SWAP2 SWAP1 PUSH2 0xDE1 JUMP JUMPDEST PUSH1 0x40 MLOAD DUP1 SWAP2 SUB SWAP1 LOG2 POP JUMP JUMPDEST PUSH0 PUSH1 0x40 MLOAD DUP1 PUSH1 0x40 ADD PUSH1 0x40 MSTORE DUP1 DUP4 DUP2 MSTORE PUSH1 0x20 ADD PUSH0 DUP2 MSTORE POP SWAP1 POP PUSH0 DUP2 SWAP1 DUP1 PUSH1 0x1 DUP2 SLOAD ADD DUP1 DUP3 SSTORE DUP1 SWAP2 POP POP PUSH1 0x1 SWAP1 SUB SWAP1 PUSH0 MSTORE PUSH1 0x20 PUSH0 KECCAK256 SWAP1 PUSH1 0x2 MUL ADD PUSH0 SWAP1 SWAP2 SWAP1 SWAP2 SWAP1 SWAP2 POP PUSH0 DUP3 ADD MLOAD DUP2 PUSH0 ADD SWAP1 DUP2 PUSH2 0x6CF SWAP2 SWAP1 PUSH2 0xFA8 JUMP JUMPDEST POP PUSH1 0x20 DUP3 ADD MLOAD DUP2 PUSH1 0x1 ADD SSTORE POP POP PUSH0 PUSH1 0x1 PUSH0 DUP1 SLOAD SWAP1 POP PUSH2 0x6EE SWAP2 SWAP1 PUSH2 0x1077 JUMP JUMPDEST SWAP1 POP DUP2 PUSH1 0x1 PUSH0 DUP4 DUP2 MSTORE PUSH1 0x20 ADD SWAP1 DUP2 MSTORE PUSH1 0x20 ADD PUSH0 KECCAK256 PUSH0 DUP3 ADD MLOAD DUP2 PUSH0 ADD SWAP1 DUP2 PUSH2 0x715 SWAP2 SWAP1 PUSH2 0xFA8 JUMP JUMPDEST POP PUSH1 0x20 DUP3 ADD MLOAD DUP2 PUSH1 0x1 ADD SSTORE SWAP1 POP POP CALLER PUSH20 0xFFFFFFFFFFFFFFFFFFFFFFFFFFFFFFFFFFFFFFFF AND PUSH32 0x5FA1ACBDCB8142D84E87165149F77E37C91BCF8055862AFE7B9E7C6BAC70404B DUP3 TIMESTAMP PUSH1 0x40 MLOAD PUSH2 0x76B SWAP3 SWAP2 SWAP1 PUSH2 0xDE1 JUMP JUMPDEST PUSH1 0x40 MLOAD DUP1 SWAP2 SUB SWAP1 LOG2 POP POP POP JUMP JUMPDEST PUSH0 PUSH1 0x40 MLOAD SWAP1 POP SWAP1 JUMP JUMPDEST PUSH0 PUSH0 REVERT JUMPDEST PUSH0 PUSH0 REVERT JUMPDEST PUSH0 DUP2 SWAP1 POP SWAP2 SWAP1 POP JUMP JUMPDEST PUSH2 0x79B DUP2 PUSH2 0x789 JUMP JUMPDEST DUP2 EQ PUSH2 0x7A5 JUMPI PUSH0 PUSH0 REVERT JUMPDEST POP JUMP JUMPDEST PUSH0 DUP2 CALLDATALOAD SWAP1 POP PUSH2 0x7B6 DUP2 PUSH2 0x792 JUMP JUMPDEST SWAP3 SWAP2 POP POP JUMP JUMPDEST PUSH0 PUSH1 0x20 DUP3 DUP5 SUB SLT ISZERO PUSH2 0x7D1 JUMPI PUSH2 0x7D0 PUSH2 0x781 JUMP JUMPDEST JUMPDEST PUSH0 PUSH2 0x7DE DUP5 DUP3 DUP6 ADD PUSH2 0x7A8 JUMP JUMPDEST SWAP2 POP POP SWAP3 SWAP2 POP POP JUMP JUMPDEST PUSH0 DUP2 MLOAD SWAP1 POP SWAP2 SWAP1 POP JUMP JUMPDEST PUSH0 DUP3 DUP3 MSTORE PUSH1 0x20 DUP3 ADD SWAP1 POP SWAP3 SWAP2 POP POP JUMP JUMPDEST DUP3 DUP2 DUP4 MCOPY PUSH0 DUP4 DUP4 ADD MSTORE POP POP POP JUMP JUMPDEST PUSH0 PUSH1 0x1F NOT PUSH1 0x1F DUP4 ADD AND SWAP1 POP SWAP2 SWAP1 POP JUMP JUMPDEST PUSH0 PUSH2 0x829 DUP3 PUSH2 0x7E7 JUMP JUMPDEST PUSH2 0x833 DUP2 DUP6 PUSH2 0x7F1 JUMP JUMPDEST SWAP4 POP PUSH2 0x843 DUP2 DUP6 PUSH1 0x20 DUP7 ADD PUSH2 0x801 JUMP JUMPDEST PUSH2 0x84C DUP2 PUSH2 0x80F JUMP JUMPDEST DUP5 ADD SWAP2 POP POP SWAP3 SWAP2 POP POP JUMP JUMPDEST PUSH2 0x860 DUP2 PUSH2 0x789 JUMP JUMPDEST DUP3 MSTORE POP POP JUMP JUMPDEST PUSH0 PUSH1 0x40 DUP3 ADD SWAP1 POP DUP2 DUP2 SUB PUSH0 DUP4 ADD MSTORE PUSH2 0x87E DUP2 DUP6 PUSH2 0x81F JUMP JUMPDEST SWAP1 POP PUSH2 0x88D PUSH1 0x20 DUP4 ADD DUP5 PUSH2 0x857 JUMP JUMPDEST SWAP4 SWAP3 POP POP POP JUMP JUMPDEST PUSH0 PUSH0 REVERT JUMPDEST PUSH0 PUSH0 REVERT JUMPDEST PUSH32 0x4E487B7100000000000000000000000000000000000000000000000000000000 PUSH0 MSTORE PUSH1 0x41 PUSH1 0x4 MSTORE PUSH1 0x24 PUSH0 REVERT JUMPDEST PUSH2 0x8D2 DUP3 PUSH2 0x80F JUMP JUMPDEST DUP2 ADD DUP2 DUP2 LT PUSH8 0xFFFFFFFFFFFFFFFF DUP3 GT OR ISZERO PUSH2 0x8F1 JUMPI PUSH2 0x8F0 PUSH2 0x89C JUMP JUMPDEST JUMPDEST DUP1 PUSH1 0x40 MSTORE POP POP POP JUMP JUMPDEST PUSH0 PUSH2 0x903 PUSH2 0x778 JUMP JUMPDEST SWAP1 POP PUSH2 0x90F DUP3 DUP3 PUSH2 0x8C9 JUMP JUMPDEST SWAP2 SWAP1 POP JUMP JUMPDEST PUSH0 PUSH8 0xFFFFFFFFFFFFFFFF DUP3 GT ISZERO PUSH2 0x92E JUMPI PUSH2 0x92D PUSH2 0x89C JUMP JUMPDEST JUMPDEST PUSH2 0x937 DUP3 PUSH2 0x80F JUMP JUMPDEST SWAP1 POP PUSH1 0x20 DUP2 ADD SWAP1 POP SWAP2 SWAP1 POP JUMP JUMPDEST DUP3 DUP2 DUP4 CALLDATACOPY PUSH0 DUP4 DUP4 ADD MSTORE POP POP POP JUMP JUMPDEST PUSH0 PUSH2 0x964 PUSH2 0x95F DUP5 PUSH2 0x914 JUMP JUMPDEST PUSH2 0x8FA JUMP JUMPDEST SWAP1 POP DUP3 DUP2 MSTORE PUSH1 0x20 DUP2 ADD DUP5 DUP5 DUP5 ADD GT ISZERO PUSH2 0x980 JUMPI PUSH2 0x97F PUSH2 0x898 JUMP JUMPDEST JUMPDEST PUSH2 0x98B DUP5 DUP3 DUP6 PUSH2 0x944 JUMP JUMPDEST POP SWAP4 SWAP3 POP POP POP JUMP JUMPDEST PUSH0 DUP3 PUSH1 0x1F DUP4 ADD SLT PUSH2 0x9A7 JUMPI PUSH2 0x9A6 PUSH2 0x894 JUMP JUMPDEST JUMPDEST DUP2 CALLDATALOAD PUSH2 0x9B7 DUP5 DUP3 PUSH1 0x20 DUP7 ADD PUSH2 0x952 JUMP JUMPDEST SWAP2 POP POP SWAP3 SWAP2 POP POP JUMP JUMPDEST PUSH0 PUSH1 0x20 DUP3 DUP5 SUB SLT ISZERO PUSH2 0x9D5 JUMPI PUSH2 0x9D4 PUSH2 0x781 JUMP JUMPDEST JUMPDEST PUSH0 DUP3 ADD CALLDATALOAD PUSH8 0xFFFFFFFFFFFFFFFF DUP2 GT ISZERO PUSH2 0x9F2 JUMPI PUSH2 0x9F1 PUSH2 0x785 JUMP JUMPDEST JUMPDEST PUSH2 0x9FE DUP5 DUP3 DUP6 ADD PUSH2 0x993 JUMP JUMPDEST SWAP2 POP POP SWAP3 SWAP2 POP POP JUMP JUMPDEST PUSH0 PUSH20 0xFFFFFFFFFFFFFFFFFFFFFFFFFFFFFFFFFFFFFFFF DUP3 AND SWAP1 POP SWAP2 SWAP1 POP JUMP JUMPDEST PUSH0 PUSH2 0xA30 DUP3 PUSH2 0xA07 JUMP JUMPDEST SWAP1 POP SWAP2 SWAP1 POP JUMP JUMPDEST PUSH2 0xA40 DUP2 PUSH2 0xA26 JUMP JUMPDEST DUP2 EQ PUSH2 0xA4A JUMPI PUSH0 PUSH0 REVERT JUMPDEST POP JUMP JUMPDEST PUSH0 DUP2 CALLDATALOAD SWAP1 POP PUSH2 0xA5B DUP2 PUSH2 0xA37 JUMP JUMPDEST SWAP3 SWAP2 POP POP JUMP JUMPDEST PUSH0 PUSH1 0x20 DUP3 DUP5 SUB SLT ISZERO PUSH2 0xA76 JUMPI PUSH2 0xA75 PUSH2 0x781 JUMP JUMPDEST JUMPDEST PUSH0 PUSH2 0xA83 DUP5 DUP3 DUP6 ADD PUSH2 0xA4D JUMP JUMPDEST SWAP2 POP POP SWAP3 SWAP2 POP POP JUMP JUMPDEST PUSH2 0xA95 DUP2 PUSH2 0xA26 JUMP JUMPDEST DUP3 MSTORE POP POP JUMP JUMPDEST PUSH0 PUSH1 0x20 DUP3 ADD SWAP1 POP PUSH2 0xAAE PUSH0 DUP4 ADD DUP5 PUSH2 0xA8C JUMP JUMPDEST SWAP3 SWAP2 POP POP JUMP JUMPDEST PUSH32 0x4E6F7420612077686974656C697374656420766F746572000000000000000000 PUSH0 DUP3 ADD MSTORE POP JUMP JUMPDEST PUSH0 PUSH2 0xAE8 PUSH1 0x17 DUP4 PUSH2 0x7F1 JUMP JUMPDEST SWAP2 POP PUSH2 0xAF3 DUP3 PUSH2 0xAB4 JUMP JUMPDEST PUSH1 0x20 DUP3 ADD SWAP1 POP SWAP2 SWAP1 POP JUMP JUMPDEST PUSH0 PUSH1 0x20 DUP3 ADD SWAP1 POP DUP2 DUP2 SUB PUSH0 DUP4 ADD MSTORE PUSH2 0xB15 DUP2 PUSH2 0xADC JUMP JUMPDEST SWAP1 POP SWAP2 SWAP1 POP JUMP JUMPDEST PUSH32 0x4E487B7100000000000000000000000000000000000000000000000000000000 PUSH0 MSTORE PUSH1 0x22 PUSH1 0x4 MSTORE PUSH1 0x24 PUSH0 REVERT JUMPDEST PUSH0 PUSH1 0x2 DUP3 DIV SWAP1 POP PUSH1 0x1 DUP3 AND DUP1 PUSH2 0xB60 JUMPI PUSH1 0x7F DUP3 AND SWAP2 POP JUMPDEST PUSH1 0x20 DUP3 LT DUP2 SUB PUSH2 0xB73 JUMPI PUSH2 0xB72 PUSH2 0xB1C JUMP JUMPDEST JUMPDEST POP SWAP2 SWAP1 POP JUMP JUMPDEST PUSH32 0x4E6F742041646D696E0000000000000000000000000000000000000000000000 PUSH0 DUP3 ADD MSTORE POP JUMP JUMPDEST PUSH0 PUSH2 0xBAD PUSH1 0x9 DUP4 PUSH2 0x7F1 JUMP JUMPDEST SWAP2 POP PUSH2 0xBB8 DUP3 PUSH2 0xB79 JUMP JUMPDEST PUSH1 0x20 DUP3 ADD SWAP1 POP SWAP2 SWAP1 POP JUMP JUMPDEST PUSH0 PUSH1 0x20 DUP3 ADD SWAP1 POP DUP2 DUP2 SUB PUSH0 DUP4 ADD MSTORE PUSH2 0xBDA DUP2 PUSH2 0xBA1 JUMP JUMPDEST SWAP1 POP SWAP2 SWAP1 POP JUMP JUMPDEST PUSH32 0x416C7265616479206120766F7465720000000000000000000000000000000000 PUSH0 DUP3 ADD MSTORE POP JUMP JUMPDEST PUSH0 PUSH2 0xC15 PUSH1 0xF DUP4 PUSH2 0x7F1 JUMP JUMPDEST SWAP2 POP PUSH2 0xC20 DUP3 PUSH2 0xBE1 JUMP JUMPDEST PUSH1 0x20 DUP3 ADD SWAP1 POP SWAP2 SWAP1 POP JUMP JUMPDEST PUSH0 PUSH1 0x20 DUP3 ADD SWAP1 POP DUP2 DUP2 SUB PUSH0 DUP4 ADD MSTORE PUSH2 0xC42 DUP2 PUSH2 0xC09 JUMP JUMPDEST SWAP1 POP SWAP2 SWAP1 POP JUMP JUMPDEST PUSH0 PUSH1 0x40 DUP3 ADD SWAP1 POP PUSH2 0xC5C PUSH0 DUP4 ADD DUP6 PUSH2 0xA8C JUMP JUMPDEST PUSH2 0xC69 PUSH1 0x20 DUP4 ADD DUP5 PUSH2 0x857 JUMP JUMPDEST SWAP4 SWAP3 POP POP POP JUMP JUMPDEST PUSH32 0x4E6F2070726F706F73616C7320617661696C61626C6500000000000000000000 PUSH0 DUP3 ADD MSTORE POP JUMP JUMPDEST PUSH0 PUSH2 0xCA4 PUSH1 0x16 DUP4 PUSH2 0x7F1 JUMP JUMPDEST SWAP2 POP PUSH2 0xCAF DUP3 PUSH2 0xC70 JUMP JUMPDEST PUSH1 0x20 DUP3 ADD SWAP1 POP SWAP2 SWAP1 POP JUMP JUMPDEST PUSH0 PUSH1 0x20 DUP3 ADD SWAP1 POP DUP2 DUP2 SUB PUSH0 DUP4 ADD MSTORE PUSH2 0xCD1 DUP2 PUSH2 0xC98 JUMP JUMPDEST SWAP1 POP SWAP2 SWAP1 POP JUMP JUMPDEST PUSH32 0x416C726561647920766F746564206F6E20746869732070726F706F73616C0000 PUSH0 DUP3 ADD MSTORE POP JUMP JUMPDEST PUSH0 PUSH2 0xD0C PUSH1 0x1E DUP4 PUSH2 0x7F1 JUMP JUMPDEST SWAP2 POP PUSH2 0xD17 DUP3 PUSH2 0xCD8 JUMP JUMPDEST PUSH1 0x20 DUP3 ADD SWAP1 POP SWAP2 SWAP1 POP JUMP JUMPDEST PUSH0 PUSH1 0x20 DUP3 ADD SWAP1 POP DUP2 DUP2 SUB PUSH0 DUP4 ADD MSTORE PUSH2 0xD39 DUP2 PUSH2 0xD00 JUMP JUMPDEST SWAP1 POP SWAP2 SWAP1 POP JUMP JUMPDEST PUSH32 0x4E487B7100000000000000000000000000000000000000000000000000000000 PUSH0 MSTORE PUSH1 0x32 PUSH1 0x4 MSTORE PUSH1 0x24 PUSH0 REVERT JUMPDEST PUSH32 0x4E487B7100000000000000000000000000000000000000000000000000000000 PUSH0 MSTORE PUSH1 0x11 PUSH1 0x4 MSTORE PUSH1 0x24 PUSH0 REVERT JUMPDEST PUSH0 PUSH2 0xDA4 DUP3 PUSH2 0x789 JUMP JUMPDEST SWAP2 POP PUSH32 0xFFFFFFFFFFFFFFFFFFFFFFFFFFFFFFFFFFFFFFFFFFFFFFFFFFFFFFFFFFFFFFFF DUP3 SUB PUSH2 0xDD6 JUMPI PUSH2 0xDD5 PUSH2 0xD6D JUMP JUMPDEST JUMPDEST PUSH1 0x1 DUP3 ADD SWAP1 POP SWAP2 SWAP1 POP JUMP JUMPDEST PUSH0 PUSH1 0x40 DUP3 ADD SWAP1 POP PUSH2 0xDF4 PUSH0 DUP4 ADD DUP6 PUSH2 0x857 JUMP JUMPDEST PUSH2 0xE01 PUSH1 0x20 DUP4 ADD DUP5 PUSH2 0x857 JUMP JUMPDEST SWAP4 SWAP3 POP POP POP JUMP JUMPDEST PUSH0 DUP2 SWAP1 POP DUP2 PUSH0 MSTORE PUSH1 0x20 PUSH0 KECCAK256 SWAP1 POP SWAP2 SWAP1 POP JUMP JUMPDEST PUSH0 PUSH1 0x20 PUSH1 0x1F DUP4 ADD DIV SWAP1 POP SWAP2 SWAP1 POP JUMP JUMPDEST PUSH0 DUP3 DUP3 SHL SWAP1 POP SWAP3 SWAP2 POP POP JUMP JUMPDEST PUSH0 PUSH1 0x8 DUP4 MUL PUSH2 0xE64 PUSH32 0xFFFFFFFFFFFFFFFFFFFFFFFFFFFFFFFFFFFFFFFFFFFFFFFFFFFFFFFFFFFFFFFF DUP3 PUSH2 0xE29 JUMP JUMPDEST PUSH2 0xE6E DUP7 DUP4 PUSH2 0xE29 JUMP JUMPDEST SWAP6 POP DUP1 NOT DUP5 AND SWAP4 POP DUP1 DUP7 AND DUP5 OR SWAP3 POP POP POP SWAP4 SWAP3 POP POP POP JUMP JUMPDEST PUSH0 DUP2 SWAP1 POP SWAP2 SWAP1 POP JUMP JUMPDEST PUSH0 PUSH2 0xEA9 PUSH2 0xEA4 PUSH2 0xE9F DUP5 PUSH2 0x789 JUMP JUMPDEST PUSH2 0xE86 JUMP JUMPDEST PUSH2 0x789 JUMP JUMPDEST SWAP1 POP SWAP2 SWAP1 POP JUMP JUMPDEST PUSH0 DUP2 SWAP1 POP SWAP2 SWAP1 POP JUMP JUMPDEST PUSH2 0xEC2 DUP4 PUSH2 0xE8F JUMP JUMPDEST PUSH2 0xED6 PUSH2 0xECE DUP3 PUSH2 0xEB0 JUMP JUMPDEST DUP5 DUP5 SLOAD PUSH2 0xE35 JUMP JUMPDEST DUP3 SSTORE POP POP POP POP JUMP JUMPDEST PUSH0 PUSH0 SWAP1 POP SWAP1 JUMP JUMPDEST PUSH2 0xEED PUSH2 0xEDE JUMP JUMPDEST PUSH2 0xEF8 DUP2 DUP5 DUP5 PUSH2 0xEB9 JUMP JUMPDEST POP POP POP JUMP JUMPDEST JUMPDEST DUP2 DUP2 LT ISZERO PUSH2 0xF1B JUMPI PUSH2 0xF10 PUSH0 DUP3 PUSH2 0xEE5 JUMP JUMPDEST PUSH1 0x1 DUP2 ADD SWAP1 POP PUSH2 0xEFE JUMP JUMPDEST POP POP JUMP JUMPDEST PUSH1 0x1F DUP3 GT ISZERO PUSH2 0xF60 JUMPI PUSH2 0xF31 DUP2 PUSH2 0xE08 JUMP JUMPDEST PUSH2 0xF3A DUP5 PUSH2 0xE1A JUMP JUMPDEST DUP2 ADD PUSH1 0x20 DUP6 LT ISZERO PUSH2 0xF49 JUMPI DUP2 SWAP1 POP JUMPDEST PUSH2 0xF5D PUSH2 0xF55 DUP6 PUSH2 0xE1A JUMP JUMPDEST DUP4 ADD DUP3 PUSH2 0xEFD JUMP JUMPDEST POP POP JUMPDEST POP POP POP JUMP JUMPDEST PUSH0 DUP3 DUP3 SHR SWAP1 POP SWAP3 SWAP2 POP POP JUMP JUMPDEST PUSH0 PUSH2 0xF80 PUSH0 NOT DUP5 PUSH1 0x8 MUL PUSH2 0xF65 JUMP JUMPDEST NOT DUP1 DUP4 AND SWAP2 POP POP SWAP3 SWAP2 POP POP JUMP JUMPDEST PUSH0 PUSH2 0xF98 DUP4 DUP4 PUSH2 0xF71 JUMP JUMPDEST SWAP2 POP DUP3 PUSH1 0x2 MUL DUP3 OR SWAP1 POP SWAP3 SWAP2 POP POP JUMP JUMPDEST PUSH2 0xFB1 DUP3 PUSH2 0x7E7 JUMP JUMPDEST PUSH8 0xFFFFFFFFFFFFFFFF DUP2 GT ISZERO PUSH2 0xFCA JUMPI PUSH2 0xFC9 PUSH2 0x89C JUMP JUMPDEST JUMPDEST PUSH2 0xFD4 DUP3 SLOAD PUSH2 0xB49 JUMP JUMPDEST PUSH2 0xFDF DUP3 DUP3 DUP6 PUSH2 0xF1F JUMP JUMPDEST PUSH0 PUSH1 0x20 SWAP1 POP PUSH1 0x1F DUP4 GT PUSH1 0x1 DUP2 EQ PUSH2 0x1010 JUMPI PUSH0 DUP5 ISZERO PUSH2 0xFFE JUMPI DUP3 DUP8 ADD MLOAD SWAP1 POP JUMPDEST PUSH2 0x1008 DUP6 DUP3 PUSH2 0xF8D JUMP JUMPDEST DUP7 SSTORE POP PUSH2 0x106F JUMP JUMPDEST PUSH1 0x1F NOT DUP5 AND PUSH2 0x101E DUP7 PUSH2 0xE08 JUMP JUMPDEST PUSH0 JUMPDEST DUP3 DUP2 LT ISZERO PUSH2 0x1045 JUMPI DUP5 DUP10 ADD MLOAD DUP3 SSTORE PUSH1 0x1 DUP3 ADD SWAP2 POP PUSH1 0x20 DUP6 ADD SWAP5 POP PUSH1 0x20 DUP2 ADD SWAP1 POP PUSH2 0x1020 JUMP JUMPDEST DUP7 DUP4 LT ISZERO PUSH2 0x1062 JUMPI DUP5 DUP10 ADD MLOAD PUSH2 0x105E PUSH1 0x1F DUP10 AND DUP3 PUSH2 0xF71 JUMP JUMPDEST DUP4 SSTORE POP JUMPDEST PUSH1 0x1 PUSH1 0x2 DUP9 MUL ADD DUP9 SSTORE POP POP POP JUMPDEST POP POP POP POP POP POP JUMP JUMPDEST PUSH0 PUSH2 0x1081 DUP3 PUSH2 0x789 JUMP JUMPDEST SWAP2 POP PUSH2 0x108C DUP4 PUSH2 0x789 JUMP JUMPDEST SWAP3 POP DUP3 DUP3 SUB SWAP1 POP DUP2 DUP2 GT ISZERO PUSH2 0x10A4 JUMPI PUSH2 0x10A3 PUSH2 0xD6D JUMP JUMPDEST JUMPDEST SWAP3 SWAP2 POP POP JUMP INVALID LOG2 PUSH5 0x6970667358 0x22 SLT KECCAK256 PUSH12 0xD18112D476F3845DC173D03E MSTORE8 CALLDATACOPY BYTE GT PUSH32 0xF5AB9B4735B868D37089B9FEB8F464736F6C634300081E003300000000000000 "
				},
				"gasEstimates": {
					"creation": {
						"codeDepositCost": "864000",
						"executionCost": "25159",
						"totalCost": "889159"
					},
					"external": {
						"addVoter(address)": "infinite",
						"admin()": "2574",
						"createProposal(string)": "infinite",
						"proposals(uint256)": "infinite",
						"vote(uint256)": "infinite"
					}
				},
				"methodIdentifiers": {
					"addVoter(address)": "f4ab9adf",
					"admin()": "f851a440",
					"createProposal(string)": "49c2a1a6",
					"proposals(uint256)": "013cf08b",
					"vote(uint256)": "0121b93f"
				}
			},
			"storageLayout": {
				"storage": [
					{
						"astId": 10,
						"contract": "contracts/PHASE INHERITANCE/Access-Controlled Voting.sol:RestrictedVoting",
						"label": "proposals",
						"offset": 0,
						"slot": "0",
						"type": "t_array(t_struct(Proposal)6_storage)dyn_storage"
					},
					{
						"astId": 15,
						"contract": "contracts/PHASE INHERITANCE/Access-Controlled Voting.sol:RestrictedVoting",
						"label": "id",
						"offset": 0,
						"slot": "1",
						"type": "t_mapping(t_uint256,t_struct(Proposal)6_storage)"
					},
					{
						"astId": 21,
						"contract": "contracts/PHASE INHERITANCE/Access-Controlled Voting.sol:RestrictedVoting",
						"label": "hasVoted",
						"offset": 0,
						"slot": "2",
						"type": "t_mapping(t_uint256,t_mapping(t_address,t_bool))"
					},
					{
						"astId": 131,
						"contract": "contracts/PHASE INHERITANCE/Access-Controlled Voting.sol:RestrictedVoting",
						"label": "admin",
						"offset": 0,
						"slot": "3",
						"type": "t_address"
					},
					{
						"astId": 174,
						"contract": "contracts/PHASE INHERITANCE/Access-Controlled Voting.sol:RestrictedVoting",
						"label": "canVote",
						"offset": 0,
						"slot": "4",
						"type": "t_mapping(t_address,t_bool)"
					}
				],
				"types": {
					"t_address": {
						"encoding": "inplace",
						"label": "address",
						"numberOfBytes": "20"
					},
					"t_array(t_struct(Proposal)6_storage)dyn_storage": {
						"base": "t_struct(Proposal)6_storage",
						"encoding": "dynamic_array",
						"label": "struct BaseVoting.Proposal[]",
						"numberOfBytes": "32"
					},
					"t_bool": {
						"encoding": "inplace",
						"label": "bool",
						"numberOfBytes": "1"
					},
					"t_mapping(t_address,t_bool)": {
						"encoding": "mapping",
						"key": "t_address",
						"label": "mapping(address => bool)",
						"numberOfBytes": "32",
						"value": "t_bool"
					},
					"t_mapping(t_uint256,t_mapping(t_address,t_bool))": {
						"encoding": "mapping",
						"key": "t_uint256",
						"label": "mapping(uint256 => mapping(address => bool))",
						"numberOfBytes": "32",
						"value": "t_mapping(t_address,t_bool)"
					},
					"t_mapping(t_uint256,t_struct(Proposal)6_storage)": {
						"encoding": "mapping",
						"key": "t_uint256",
						"label": "mapping(uint256 => struct BaseVoting.Proposal)",
						"numberOfBytes": "32",
						"value": "t_struct(Proposal)6_storage"
					},
					"t_string_storage": {
						"encoding": "bytes",
						"label": "string",
						"numberOfBytes": "32"
					},
					"t_struct(Proposal)6_storage": {
						"encoding": "inplace",
						"label": "struct BaseVoting.Proposal",
						"members": [
							{
								"astId": 3,
								"contract": "contracts/PHASE INHERITANCE/Access-Controlled Voting.sol:RestrictedVoting",
								"label": "name",
								"offset": 0,
								"slot": "0",
								"type": "t_string_storage"
							},
							{
								"astId": 5,
								"contract": "contracts/PHASE INHERITANCE/Access-Controlled Voting.sol:RestrictedVoting",
								"label": "voteCount",
								"offset": 0,
								"slot": "1",
								"type": "t_uint256"
							}
						],
						"numberOfBytes": "64"
					},
					"t_uint256": {
						"encoding": "inplace",
						"label": "uint256",
						"numberOfBytes": "32"
					}
				}
			},
			"userdoc": {
				"kind": "user",
				"methods": {},
				"version": 1
			}
		}
	}
}