{
	"contracts/PHASE INHERITANCE/Access-Controlled Voting.sol": {
		"AdminVoting": {
			"abi": [
				{
					"inputs": [],
					"stateMutability": "nonpayable",
					"type": "constructor"
				},
				{
					"anonymous": false,
					"inputs": [
						{
							"indexed": true,
							"internalType": "address",
							"name": "creator",
							"type": "address"
						},
						{
							"indexed": false,
							"internalType": "uint256",
							"name": "id",
							"type": "uint256"
						},
						{
							"indexed": false,
							"internalType": "uint256",
							"name": "timestamp",
							"type": "uint256"
						}
					],
					"name": "ProposalCreated",
					"type": "event"
				},
				{
					"anonymous": false,
					"inputs": [
						{
							"indexed": true,
							"internalType": "address",
							"name": "voter",
							"type": "address"
						},
						{
							"indexed": false,
							"internalType": "uint256",
							"name": "id",
							"type": "uint256"
						},
						{
							"indexed": false,
							"internalType": "uint256",
							"name": "timestamp",
							"type": "uint256"
						}
					],
					"name": "VoteCasted",
					"type": "event"
				},
				{
					"inputs": [],
					"name": "admin",
					"outputs": [
						{
							"internalType": "address",
							"name": "",
							"type": "address"
						}
					],
					"stateMutability": "view",
					"type": "function"
				},
				{
					"inputs": [
						{
							"internalType": "string",
							"name": "_name",
							"type": "string"
						}
					],
					"name": "createProposal",
					"outputs": [],
					"stateMutability": "nonpayable",
					"type": "function"
				},
				{
					"inputs": [
						{
							"internalType": "uint256",
							"name": "",
							"type": "uint256"
						}
					],
					"name": "proposals",
					"outputs": [
						{
							"internalType": "string",
							"name": "name",
							"type": "string"
						},
						{
							"internalType": "uint256",
							"name": "voteCount",
							"type": "uint256"
						}
					],
					"stateMutability": "view",
					"type": "function"
				},
				{
					"inputs": [
						{
							"internalType": "uint256",
							"name": "_id",
							"type": "uint256"
						}
					],
					"name": "vote",
					"outputs": [],
					"stateMutability": "nonpayable",
					"type": "function"
				}
			],
			"devdoc": {
				"kind": "dev",
				"methods": {},
				"version": 1
			},
			"evm": {
				"assembly": "    /* \"contracts/PHASE INHERITANCE/Access-Controlled Voting.sol\":1069:1401  contract AdminVoting is BaseVoting{... */\n  mstore(0x40, 0x80)\n    /* \"contracts/PHASE INHERITANCE/Access-Controlled Voting.sol\":1230:1279  constructor() {... */\n  callvalue\n  dup1\n  iszero\n  tag_1\n  jumpi\n  revert(0x00, 0x00)\ntag_1:\n  pop\n    /* \"contracts/PHASE INHERITANCE/Access-Controlled Voting.sol\":1262:1272  msg.sender */\n  caller\n    /* \"contracts/PHASE INHERITANCE/Access-Controlled Voting.sol\":1254:1259  admin */\n  0x03\n  0x00\n    /* \"contracts/PHASE INHERITANCE/Access-Controlled Voting.sol\":1254:1272  admin = msg.sender */\n  0x0100\n  exp\n  dup2\n  sload\n  dup2\n  0xffffffffffffffffffffffffffffffffffffffff\n  mul\n  not\n  and\n  swap1\n  dup4\n  0xffffffffffffffffffffffffffffffffffffffff\n  and\n  mul\n  or\n  swap1\n  sstore\n  pop\n    /* \"contracts/PHASE INHERITANCE/Access-Controlled Voting.sol\":1069:1401  contract AdminVoting is BaseVoting{... */\n  dataSize(sub_0)\n  dup1\n  dataOffset(sub_0)\n  0x00\n  codecopy\n  0x00\n  return\nstop\n\nsub_0: assembly {\n        /* \"contracts/PHASE INHERITANCE/Access-Controlled Voting.sol\":1069:1401  contract AdminVoting is BaseVoting{... */\n      mstore(0x40, 0x80)\n      callvalue\n      dup1\n      iszero\n      tag_1\n      jumpi\n      revert(0x00, 0x00)\n    tag_1:\n      pop\n      jumpi(tag_2, lt(calldatasize, 0x04))\n      shr(0xe0, calldataload(0x00))\n      dup1\n      0x0121b93f\n      eq\n      tag_3\n      jumpi\n      dup1\n      0x013cf08b\n      eq\n      tag_4\n      jumpi\n      dup1\n      0x49c2a1a6\n      eq\n      tag_5\n      jumpi\n      dup1\n      0xf851a440\n      eq\n      tag_6\n      jumpi\n    tag_2:\n      revert(0x00, 0x00)\n        /* \"contracts/PHASE INHERITANCE/Access-Controlled Voting.sol\":738:1065  function vote(uint _id) public virtual{... */\n    tag_3:\n      tag_7\n      0x04\n      dup1\n      calldatasize\n      sub\n      dup2\n      add\n      swap1\n      tag_8\n      swap2\n      swap1\n      tag_9\n      jump\t// in\n    tag_8:\n      tag_10\n      jump\t// in\n    tag_7:\n      stop\n        /* \"contracts/PHASE INHERITANCE/Access-Controlled Voting.sol\":154:181  Proposal[] public proposals */\n    tag_4:\n      tag_11\n      0x04\n      dup1\n      calldatasize\n      sub\n      dup2\n      add\n      swap1\n      tag_12\n      swap2\n      swap1\n      tag_9\n      jump\t// in\n    tag_12:\n      tag_13\n      jump\t// in\n    tag_11:\n      mload(0x40)\n      tag_14\n      swap3\n      swap2\n      swap1\n      tag_15\n      jump\t// in\n    tag_14:\n      mload(0x40)\n      dup1\n      swap2\n      sub\n      swap1\n      return\n        /* \"contracts/PHASE INHERITANCE/Access-Controlled Voting.sol\":1284:1398  function createProposal(string memory _name) public override onlyAdmin{... */\n    tag_5:\n      tag_16\n      0x04\n      dup1\n      calldatasize\n      sub\n      dup2\n      add\n      swap1\n      tag_17\n      swap2\n      swap1\n      tag_18\n      jump\t// in\n    tag_17:\n      tag_19\n      jump\t// in\n    tag_16:\n      stop\n        /* \"contracts/PHASE INHERITANCE/Access-Controlled Voting.sol\":1109:1129  address public admin */\n    tag_6:\n      tag_20\n      tag_21\n      jump\t// in\n    tag_20:\n      mload(0x40)\n      tag_22\n      swap2\n      swap1\n      tag_23\n      jump\t// in\n    tag_22:\n      mload(0x40)\n      dup1\n      swap2\n      sub\n      swap1\n      return\n        /* \"contracts/PHASE INHERITANCE/Access-Controlled Voting.sol\":738:1065  function vote(uint _id) public virtual{... */\n    tag_10:\n        /* \"contracts/PHASE INHERITANCE/Access-Controlled Voting.sol\":813:814  0 */\n      0x00\n        /* \"contracts/PHASE INHERITANCE/Access-Controlled Voting.sol\":794:803  proposals */\n      0x00\n        /* \"contracts/PHASE INHERITANCE/Access-Controlled Voting.sol\":794:810  proposals.length */\n      dup1\n      sload\n      swap1\n      pop\n        /* \"contracts/PHASE INHERITANCE/Access-Controlled Voting.sol\":794:814  proposals.length > 0 */\n      gt\n        /* \"contracts/PHASE INHERITANCE/Access-Controlled Voting.sol\":786:841  require(proposals.length > 0, \"No proposals available\") */\n      tag_25\n      jumpi\n      mload(0x40)\n      0x08c379a000000000000000000000000000000000000000000000000000000000\n      dup2\n      mstore\n      0x04\n      add\n      tag_26\n      swap1\n      tag_27\n      jump\t// in\n    tag_26:\n      mload(0x40)\n      dup1\n      swap2\n      sub\n      swap1\n      revert\n    tag_25:\n        /* \"contracts/PHASE INHERITANCE/Access-Controlled Voting.sol\":860:868  hasVoted */\n      0x02\n        /* \"contracts/PHASE INHERITANCE/Access-Controlled Voting.sol\":860:873  hasVoted[_id] */\n      0x00\n        /* \"contracts/PHASE INHERITANCE/Access-Controlled Voting.sol\":869:872  _id */\n      dup3\n        /* \"contracts/PHASE INHERITANCE/Access-Controlled Voting.sol\":860:873  hasVoted[_id] */\n      dup2\n      mstore\n      0x20\n      add\n      swap1\n      dup2\n      mstore\n      0x20\n      add\n      0x00\n      keccak256\n        /* \"contracts/PHASE INHERITANCE/Access-Controlled Voting.sol\":860:885  hasVoted[_id][msg.sender] */\n      0x00\n        /* \"contracts/PHASE INHERITANCE/Access-Controlled Voting.sol\":874:884  msg.sender */\n      caller\n        /* \"contracts/PHASE INHERITANCE/Access-Controlled Voting.sol\":860:885  hasVoted[_id][msg.sender] */\n      0xffffffffffffffffffffffffffffffffffffffff\n      and\n      0xffffffffffffffffffffffffffffffffffffffff\n      and\n      dup2\n      mstore\n      0x20\n      add\n      swap1\n      dup2\n      mstore\n      0x20\n      add\n      0x00\n      keccak256\n      0x00\n      swap1\n      sload\n      swap1\n      0x0100\n      exp\n      swap1\n      div\n      0xff\n      and\n        /* \"contracts/PHASE INHERITANCE/Access-Controlled Voting.sol\":859:885  !hasVoted[_id][msg.sender] */\n      iszero\n        /* \"contracts/PHASE INHERITANCE/Access-Controlled Voting.sol\":851:920  require(!hasVoted[_id][msg.sender], \"Already voted on this proposal\") */\n      tag_28\n      jumpi\n      mload(0x40)\n      0x08c379a000000000000000000000000000000000000000000000000000000000\n      dup2\n      mstore\n      0x04\n      add\n      tag_29\n      swap1\n      tag_30\n      jump\t// in\n    tag_29:\n      mload(0x40)\n      dup1\n      swap2\n      sub\n      swap1\n      revert\n    tag_28:\n        /* \"contracts/PHASE INHERITANCE/Access-Controlled Voting.sol\":930:939  proposals */\n      0x00\n        /* \"contracts/PHASE INHERITANCE/Access-Controlled Voting.sol\":940:943  _id */\n      dup2\n        /* \"contracts/PHASE INHERITANCE/Access-Controlled Voting.sol\":930:944  proposals[_id] */\n      dup2\n      sload\n      dup2\n      lt\n      tag_31\n      jumpi\n      tag_32\n      tag_33\n      jump\t// in\n    tag_32:\n    tag_31:\n      swap1\n      0x00\n      mstore\n      keccak256(0x00, 0x20)\n      swap1\n      0x02\n      mul\n      add\n        /* \"contracts/PHASE INHERITANCE/Access-Controlled Voting.sol\":930:954  proposals[_id].voteCount */\n      0x01\n      add\n      0x00\n        /* \"contracts/PHASE INHERITANCE/Access-Controlled Voting.sol\":930:957  proposals[_id].voteCount ++ */\n      dup2\n      sload\n      dup1\n      swap3\n      swap2\n      swap1\n      tag_35\n      swap1\n      tag_36\n      jump\t// in\n    tag_35:\n      swap2\n      swap1\n      pop\n      sstore\n      pop\n        /* \"contracts/PHASE INHERITANCE/Access-Controlled Voting.sol\":995:999  true */\n      0x01\n        /* \"contracts/PHASE INHERITANCE/Access-Controlled Voting.sol\":967:975  hasVoted */\n      0x02\n        /* \"contracts/PHASE INHERITANCE/Access-Controlled Voting.sol\":967:980  hasVoted[_id] */\n      0x00\n        /* \"contracts/PHASE INHERITANCE/Access-Controlled Voting.sol\":976:979  _id */\n      dup4\n        /* \"contracts/PHASE INHERITANCE/Access-Controlled Voting.sol\":967:980  hasVoted[_id] */\n      dup2\n      mstore\n      0x20\n      add\n      swap1\n      dup2\n      mstore\n      0x20\n      add\n      0x00\n      keccak256\n        /* \"contracts/PHASE INHERITANCE/Access-Controlled Voting.sol\":967:992  hasVoted[_id][msg.sender] */\n      0x00\n        /* \"contracts/PHASE INHERITANCE/Access-Controlled Voting.sol\":981:991  msg.sender */\n      caller\n        /* \"contracts/PHASE INHERITANCE/Access-Controlled Voting.sol\":967:992  hasVoted[_id][msg.sender] */\n      0xffffffffffffffffffffffffffffffffffffffff\n      and\n      0xffffffffffffffffffffffffffffffffffffffff\n      and\n      dup2\n      mstore\n      0x20\n      add\n      swap1\n      dup2\n      mstore\n      0x20\n      add\n      0x00\n      keccak256\n      0x00\n        /* \"contracts/PHASE INHERITANCE/Access-Controlled Voting.sol\":967:999  hasVoted[_id][msg.sender] = true */\n      0x0100\n      exp\n      dup2\n      sload\n      dup2\n      0xff\n      mul\n      not\n      and\n      swap1\n      dup4\n      iszero\n      iszero\n      mul\n      or\n      swap1\n      sstore\n      pop\n        /* \"contracts/PHASE INHERITANCE/Access-Controlled Voting.sol\":1025:1035  msg.sender */\n      caller\n        /* \"contracts/PHASE INHERITANCE/Access-Controlled Voting.sol\":1014:1058  VoteCasted(msg.sender, _id, block.timestamp) */\n      0xffffffffffffffffffffffffffffffffffffffff\n      and\n      0xcb87df07b1c304492bd875a5c8b98672eca500939412809ea229afef1d745188\n        /* \"contracts/PHASE INHERITANCE/Access-Controlled Voting.sol\":1037:1040  _id */\n      dup3\n        /* \"contracts/PHASE INHERITANCE/Access-Controlled Voting.sol\":1042:1057  block.timestamp */\n      timestamp\n        /* \"contracts/PHASE INHERITANCE/Access-Controlled Voting.sol\":1014:1058  VoteCasted(msg.sender, _id, block.timestamp) */\n      mload(0x40)\n      tag_37\n      swap3\n      swap2\n      swap1\n      tag_38\n      jump\t// in\n    tag_37:\n      mload(0x40)\n      dup1\n      swap2\n      sub\n      swap1\n      log2\n        /* \"contracts/PHASE INHERITANCE/Access-Controlled Voting.sol\":738:1065  function vote(uint _id) public virtual{... */\n      pop\n      jump\t// out\n        /* \"contracts/PHASE INHERITANCE/Access-Controlled Voting.sol\":154:181  Proposal[] public proposals */\n    tag_13:\n      0x00\n      dup2\n      dup2\n      sload\n      dup2\n      lt\n      tag_39\n      jumpi\n      0x00\n      dup1\n      revert\n    tag_39:\n      swap1\n      0x00\n      mstore\n      keccak256(0x00, 0x20)\n      swap1\n      0x02\n      mul\n      add\n      0x00\n      swap2\n      pop\n      swap1\n      pop\n      dup1\n      0x00\n      add\n      dup1\n      sload\n      tag_41\n      swap1\n      tag_42\n      jump\t// in\n    tag_41:\n      dup1\n      0x1f\n      add\n      0x20\n      dup1\n      swap2\n      div\n      mul\n      0x20\n      add\n      mload(0x40)\n      swap1\n      dup2\n      add\n      0x40\n      mstore\n      dup1\n      swap3\n      swap2\n      swap1\n      dup2\n      dup2\n      mstore\n      0x20\n      add\n      dup3\n      dup1\n      sload\n      tag_43\n      swap1\n      tag_42\n      jump\t// in\n    tag_43:\n      dup1\n      iszero\n      tag_44\n      jumpi\n      dup1\n      0x1f\n      lt\n      tag_45\n      jumpi\n      0x0100\n      dup1\n      dup4\n      sload\n      div\n      mul\n      dup4\n      mstore\n      swap2\n      0x20\n      add\n      swap2\n      jump(tag_44)\n    tag_45:\n      dup3\n      add\n      swap2\n      swap1\n      0x00\n      mstore\n      keccak256(0x00, 0x20)\n      swap1\n    tag_46:\n      dup2\n      sload\n      dup2\n      mstore\n      swap1\n      0x01\n      add\n      swap1\n      0x20\n      add\n      dup1\n      dup4\n      gt\n      tag_46\n      jumpi\n      dup3\n      swap1\n      sub\n      0x1f\n      and\n      dup3\n      add\n      swap2\n    tag_44:\n      pop\n      pop\n      pop\n      pop\n      pop\n      swap1\n      dup1\n      0x01\n      add\n      sload\n      swap1\n      pop\n      dup3\n      jump\t// out\n        /* \"contracts/PHASE INHERITANCE/Access-Controlled Voting.sol\":1284:1398  function createProposal(string memory _name) public override onlyAdmin{... */\n    tag_19:\n        /* \"contracts/PHASE INHERITANCE/Access-Controlled Voting.sol\":1188:1193  admin */\n      0x03\n      0x00\n      swap1\n      sload\n      swap1\n      0x0100\n      exp\n      swap1\n      div\n      0xffffffffffffffffffffffffffffffffffffffff\n      and\n        /* \"contracts/PHASE INHERITANCE/Access-Controlled Voting.sol\":1174:1193  msg.sender == admin */\n      0xffffffffffffffffffffffffffffffffffffffff\n      and\n        /* \"contracts/PHASE INHERITANCE/Access-Controlled Voting.sol\":1174:1184  msg.sender */\n      caller\n        /* \"contracts/PHASE INHERITANCE/Access-Controlled Voting.sol\":1174:1193  msg.sender == admin */\n      0xffffffffffffffffffffffffffffffffffffffff\n      and\n      eq\n        /* \"contracts/PHASE INHERITANCE/Access-Controlled Voting.sol\":1166:1207  require(msg.sender == admin, \"Not Admin\") */\n      tag_48\n      jumpi\n      mload(0x40)\n      0x08c379a000000000000000000000000000000000000000000000000000000000\n      dup2\n      mstore\n      0x04\n      add\n      tag_49\n      swap1\n      tag_50\n      jump\t// in\n    tag_49:\n      mload(0x40)\n      dup1\n      swap2\n      sub\n      swap1\n      revert\n    tag_48:\n        /* \"contracts/PHASE INHERITANCE/Access-Controlled Voting.sol\":1364:1391  super.createProposal(_name) */\n      tag_52\n        /* \"contracts/PHASE INHERITANCE/Access-Controlled Voting.sol\":1385:1390  _name */\n      dup2\n        /* \"contracts/PHASE INHERITANCE/Access-Controlled Voting.sol\":1364:1384  super.createProposal */\n      tag_53\n        /* \"contracts/PHASE INHERITANCE/Access-Controlled Voting.sol\":1364:1391  super.createProposal(_name) */\n      jump\t// in\n    tag_52:\n        /* \"contracts/PHASE INHERITANCE/Access-Controlled Voting.sol\":1284:1398  function createProposal(string memory _name) public override onlyAdmin{... */\n      pop\n      jump\t// out\n        /* \"contracts/PHASE INHERITANCE/Access-Controlled Voting.sol\":1109:1129  address public admin */\n    tag_21:\n      0x03\n      0x00\n      swap1\n      sload\n      swap1\n      0x0100\n      exp\n      swap1\n      div\n      0xffffffffffffffffffffffffffffffffffffffff\n      and\n      dup2\n      jump\t// out\n        /* \"contracts/PHASE INHERITANCE/Access-Controlled Voting.sol\":438:733  function createProposal(string memory _name) public virtual {... */\n    tag_53:\n        /* \"contracts/PHASE INHERITANCE/Access-Controlled Voting.sol\":508:532  Proposal memory proposal */\n      0x00\n        /* \"contracts/PHASE INHERITANCE/Access-Controlled Voting.sol\":535:553  Proposal(_name, 0) */\n      mload(0x40)\n      dup1\n      0x40\n      add\n      0x40\n      mstore\n      dup1\n        /* \"contracts/PHASE INHERITANCE/Access-Controlled Voting.sol\":544:549  _name */\n      dup4\n        /* \"contracts/PHASE INHERITANCE/Access-Controlled Voting.sol\":535:553  Proposal(_name, 0) */\n      dup2\n      mstore\n      0x20\n      add\n        /* \"contracts/PHASE INHERITANCE/Access-Controlled Voting.sol\":551:552  0 */\n      0x00\n        /* \"contracts/PHASE INHERITANCE/Access-Controlled Voting.sol\":535:553  Proposal(_name, 0) */\n      dup2\n      mstore\n      pop\n        /* \"contracts/PHASE INHERITANCE/Access-Controlled Voting.sol\":508:553  Proposal memory proposal = Proposal(_name, 0) */\n      swap1\n      pop\n        /* \"contracts/PHASE INHERITANCE/Access-Controlled Voting.sol\":563:572  proposals */\n      0x00\n        /* \"contracts/PHASE INHERITANCE/Access-Controlled Voting.sol\":578:586  proposal */\n      dup2\n        /* \"contracts/PHASE INHERITANCE/Access-Controlled Voting.sol\":563:587  proposals.push(proposal) */\n      swap1\n      dup1\n      0x01\n      dup2\n      sload\n      add\n      dup1\n      dup3\n      sstore\n      dup1\n      swap2\n      pop\n      pop\n      0x01\n      swap1\n      sub\n      swap1\n      0x00\n      mstore\n      keccak256(0x00, 0x20)\n      swap1\n      0x02\n      mul\n      add\n      0x00\n      swap1\n      swap2\n      swap1\n      swap2\n      swap1\n      swap2\n      pop\n      0x00\n      dup3\n      add\n      mload\n      dup2\n      0x00\n      add\n      swap1\n      dup2\n      tag_56\n      swap2\n      swap1\n      tag_57\n      jump\t// in\n    tag_56:\n      pop\n      0x20\n      dup3\n      add\n      mload\n      dup2\n      0x01\n      add\n      sstore\n      pop\n      pop\n        /* \"contracts/PHASE INHERITANCE/Access-Controlled Voting.sol\":597:607  uint index */\n      0x00\n        /* \"contracts/PHASE INHERITANCE/Access-Controlled Voting.sol\":629:630  1 */\n      0x01\n        /* \"contracts/PHASE INHERITANCE/Access-Controlled Voting.sol\":610:619  proposals */\n      0x00\n        /* \"contracts/PHASE INHERITANCE/Access-Controlled Voting.sol\":610:626  proposals.length */\n      dup1\n      sload\n      swap1\n      pop\n        /* \"contracts/PHASE INHERITANCE/Access-Controlled Voting.sol\":610:630  proposals.length - 1 */\n      tag_58\n      swap2\n      swap1\n      tag_59\n      jump\t// in\n    tag_58:\n        /* \"contracts/PHASE INHERITANCE/Access-Controlled Voting.sol\":597:630  uint index = proposals.length - 1 */\n      swap1\n      pop\n        /* \"contracts/PHASE INHERITANCE/Access-Controlled Voting.sol\":652:660  proposal */\n      dup2\n        /* \"contracts/PHASE INHERITANCE/Access-Controlled Voting.sol\":640:642  id */\n      0x01\n        /* \"contracts/PHASE INHERITANCE/Access-Controlled Voting.sol\":640:649  id[index] */\n      0x00\n        /* \"contracts/PHASE INHERITANCE/Access-Controlled Voting.sol\":643:648  index */\n      dup4\n        /* \"contracts/PHASE INHERITANCE/Access-Controlled Voting.sol\":640:649  id[index] */\n      dup2\n      mstore\n      0x20\n      add\n      swap1\n      dup2\n      mstore\n      0x20\n      add\n      0x00\n      keccak256\n        /* \"contracts/PHASE INHERITANCE/Access-Controlled Voting.sol\":640:660  id[index] = proposal */\n      0x00\n      dup3\n      add\n      mload\n      dup2\n      0x00\n      add\n      swap1\n      dup2\n      tag_60\n      swap2\n      swap1\n      tag_57\n      jump\t// in\n    tag_60:\n      pop\n      0x20\n      dup3\n      add\n      mload\n      dup2\n      0x01\n      add\n      sstore\n      swap1\n      pop\n      pop\n        /* \"contracts/PHASE INHERITANCE/Access-Controlled Voting.sol\":691:701  msg.sender */\n      caller\n        /* \"contracts/PHASE INHERITANCE/Access-Controlled Voting.sol\":675:726  ProposalCreated(msg.sender, index, block.timestamp) */\n      0xffffffffffffffffffffffffffffffffffffffff\n      and\n      0x5fa1acbdcb8142d84e87165149f77e37c91bcf8055862afe7b9e7c6bac70404b\n        /* \"contracts/PHASE INHERITANCE/Access-Controlled Voting.sol\":703:708  index */\n      dup3\n        /* \"contracts/PHASE INHERITANCE/Access-Controlled Voting.sol\":710:725  block.timestamp */\n      timestamp\n        /* \"contracts/PHASE INHERITANCE/Access-Controlled Voting.sol\":675:726  ProposalCreated(msg.sender, index, block.timestamp) */\n      mload(0x40)\n      tag_61\n      swap3\n      swap2\n      swap1\n      tag_38\n      jump\t// in\n    tag_61:\n      mload(0x40)\n      dup1\n      swap2\n      sub\n      swap1\n      log2\n        /* \"contracts/PHASE INHERITANCE/Access-Controlled Voting.sol\":498:733  {... */\n      pop\n      pop\n        /* \"contracts/PHASE INHERITANCE/Access-Controlled Voting.sol\":438:733  function createProposal(string memory _name) public virtual {... */\n      pop\n      jump\t// out\n        /* \"#utility.yul\":7:82   */\n    tag_62:\n        /* \"#utility.yul\":40:46   */\n      0x00\n        /* \"#utility.yul\":73:75   */\n      0x40\n        /* \"#utility.yul\":67:76   */\n      mload\n        /* \"#utility.yul\":57:76   */\n      swap1\n      pop\n        /* \"#utility.yul\":7:82   */\n      swap1\n      jump\t// out\n        /* \"#utility.yul\":88:205   */\n    tag_63:\n        /* \"#utility.yul\":197:198   */\n      0x00\n        /* \"#utility.yul\":194:195   */\n      0x00\n        /* \"#utility.yul\":187:199   */\n      revert\n        /* \"#utility.yul\":211:328   */\n    tag_64:\n        /* \"#utility.yul\":320:321   */\n      0x00\n        /* \"#utility.yul\":317:318   */\n      0x00\n        /* \"#utility.yul\":310:322   */\n      revert\n        /* \"#utility.yul\":334:411   */\n    tag_65:\n        /* \"#utility.yul\":371:378   */\n      0x00\n        /* \"#utility.yul\":400:405   */\n      dup2\n        /* \"#utility.yul\":389:405   */\n      swap1\n      pop\n        /* \"#utility.yul\":334:411   */\n      swap2\n      swap1\n      pop\n      jump\t// out\n        /* \"#utility.yul\":417:539   */\n    tag_66:\n        /* \"#utility.yul\":490:514   */\n      tag_115\n        /* \"#utility.yul\":508:513   */\n      dup2\n        /* \"#utility.yul\":490:514   */\n      tag_65\n      jump\t// in\n    tag_115:\n        /* \"#utility.yul\":483:488   */\n      dup2\n        /* \"#utility.yul\":480:515   */\n      eq\n        /* \"#utility.yul\":470:533   */\n      tag_116\n      jumpi\n        /* \"#utility.yul\":529:530   */\n      0x00\n        /* \"#utility.yul\":526:527   */\n      0x00\n        /* \"#utility.yul\":519:531   */\n      revert\n        /* \"#utility.yul\":470:533   */\n    tag_116:\n        /* \"#utility.yul\":417:539   */\n      pop\n      jump\t// out\n        /* \"#utility.yul\":545:684   */\n    tag_67:\n        /* \"#utility.yul\":591:596   */\n      0x00\n        /* \"#utility.yul\":629:635   */\n      dup2\n        /* \"#utility.yul\":616:636   */\n      calldataload\n        /* \"#utility.yul\":607:636   */\n      swap1\n      pop\n        /* \"#utility.yul\":645:678   */\n      tag_118\n        /* \"#utility.yul\":672:677   */\n      dup2\n        /* \"#utility.yul\":645:678   */\n      tag_66\n      jump\t// in\n    tag_118:\n        /* \"#utility.yul\":545:684   */\n      swap3\n      swap2\n      pop\n      pop\n      jump\t// out\n        /* \"#utility.yul\":690:1019   */\n    tag_9:\n        /* \"#utility.yul\":749:755   */\n      0x00\n        /* \"#utility.yul\":798:800   */\n      0x20\n        /* \"#utility.yul\":786:795   */\n      dup3\n        /* \"#utility.yul\":777:784   */\n      dup5\n        /* \"#utility.yul\":773:796   */\n      sub\n        /* \"#utility.yul\":769:801   */\n      slt\n        /* \"#utility.yul\":766:885   */\n      iszero\n      tag_120\n      jumpi\n        /* \"#utility.yul\":804:883   */\n      tag_121\n      tag_63\n      jump\t// in\n    tag_121:\n        /* \"#utility.yul\":766:885   */\n    tag_120:\n        /* \"#utility.yul\":924:925   */\n      0x00\n        /* \"#utility.yul\":949:1002   */\n      tag_122\n        /* \"#utility.yul\":994:1001   */\n      dup5\n        /* \"#utility.yul\":985:991   */\n      dup3\n        /* \"#utility.yul\":974:983   */\n      dup6\n        /* \"#utility.yul\":970:992   */\n      add\n        /* \"#utility.yul\":949:1002   */\n      tag_67\n      jump\t// in\n    tag_122:\n        /* \"#utility.yul\":939:1002   */\n      swap2\n      pop\n        /* \"#utility.yul\":895:1012   */\n      pop\n        /* \"#utility.yul\":690:1019   */\n      swap3\n      swap2\n      pop\n      pop\n      jump\t// out\n        /* \"#utility.yul\":1025:1124   */\n    tag_68:\n        /* \"#utility.yul\":1077:1083   */\n      0x00\n        /* \"#utility.yul\":1111:1116   */\n      dup2\n        /* \"#utility.yul\":1105:1117   */\n      mload\n        /* \"#utility.yul\":1095:1117   */\n      swap1\n      pop\n        /* \"#utility.yul\":1025:1124   */\n      swap2\n      swap1\n      pop\n      jump\t// out\n        /* \"#utility.yul\":1130:1299   */\n    tag_69:\n        /* \"#utility.yul\":1214:1225   */\n      0x00\n        /* \"#utility.yul\":1248:1254   */\n      dup3\n        /* \"#utility.yul\":1243:1246   */\n      dup3\n        /* \"#utility.yul\":1236:1255   */\n      mstore\n        /* \"#utility.yul\":1288:1292   */\n      0x20\n        /* \"#utility.yul\":1283:1286   */\n      dup3\n        /* \"#utility.yul\":1279:1293   */\n      add\n        /* \"#utility.yul\":1264:1293   */\n      swap1\n      pop\n        /* \"#utility.yul\":1130:1299   */\n      swap3\n      swap2\n      pop\n      pop\n      jump\t// out\n        /* \"#utility.yul\":1305:1444   */\n    tag_70:\n        /* \"#utility.yul\":1394:1400   */\n      dup3\n        /* \"#utility.yul\":1389:1392   */\n      dup2\n        /* \"#utility.yul\":1384:1387   */\n      dup4\n        /* \"#utility.yul\":1378:1401   */\n      mcopy\n        /* \"#utility.yul\":1435:1436   */\n      0x00\n        /* \"#utility.yul\":1426:1432   */\n      dup4\n        /* \"#utility.yul\":1421:1424   */\n      dup4\n        /* \"#utility.yul\":1417:1433   */\n      add\n        /* \"#utility.yul\":1410:1437   */\n      mstore\n        /* \"#utility.yul\":1305:1444   */\n      pop\n      pop\n      pop\n      jump\t// out\n        /* \"#utility.yul\":1450:1552   */\n    tag_71:\n        /* \"#utility.yul\":1491:1497   */\n      0x00\n        /* \"#utility.yul\":1542:1544   */\n      0x1f\n        /* \"#utility.yul\":1538:1545   */\n      not\n        /* \"#utility.yul\":1533:1535   */\n      0x1f\n        /* \"#utility.yul\":1526:1531   */\n      dup4\n        /* \"#utility.yul\":1522:1536   */\n      add\n        /* \"#utility.yul\":1518:1546   */\n      and\n        /* \"#utility.yul\":1508:1546   */\n      swap1\n      pop\n        /* \"#utility.yul\":1450:1552   */\n      swap2\n      swap1\n      pop\n      jump\t// out\n        /* \"#utility.yul\":1558:1935   */\n    tag_72:\n        /* \"#utility.yul\":1646:1649   */\n      0x00\n        /* \"#utility.yul\":1674:1713   */\n      tag_128\n        /* \"#utility.yul\":1707:1712   */\n      dup3\n        /* \"#utility.yul\":1674:1713   */\n      tag_68\n      jump\t// in\n    tag_128:\n        /* \"#utility.yul\":1729:1800   */\n      tag_129\n        /* \"#utility.yul\":1793:1799   */\n      dup2\n        /* \"#utility.yul\":1788:1791   */\n      dup6\n        /* \"#utility.yul\":1729:1800   */\n      tag_69\n      jump\t// in\n    tag_129:\n        /* \"#utility.yul\":1722:1800   */\n      swap4\n      pop\n        /* \"#utility.yul\":1809:1874   */\n      tag_130\n        /* \"#utility.yul\":1867:1873   */\n      dup2\n        /* \"#utility.yul\":1862:1865   */\n      dup6\n        /* \"#utility.yul\":1855:1859   */\n      0x20\n        /* \"#utility.yul\":1848:1853   */\n      dup7\n        /* \"#utility.yul\":1844:1860   */\n      add\n        /* \"#utility.yul\":1809:1874   */\n      tag_70\n      jump\t// in\n    tag_130:\n        /* \"#utility.yul\":1899:1928   */\n      tag_131\n        /* \"#utility.yul\":1921:1927   */\n      dup2\n        /* \"#utility.yul\":1899:1928   */\n      tag_71\n      jump\t// in\n    tag_131:\n        /* \"#utility.yul\":1894:1897   */\n      dup5\n        /* \"#utility.yul\":1890:1929   */\n      add\n        /* \"#utility.yul\":1883:1929   */\n      swap2\n      pop\n        /* \"#utility.yul\":1650:1935   */\n      pop\n        /* \"#utility.yul\":1558:1935   */\n      swap3\n      swap2\n      pop\n      pop\n      jump\t// out\n        /* \"#utility.yul\":1941:2059   */\n    tag_73:\n        /* \"#utility.yul\":2028:2052   */\n      tag_133\n        /* \"#utility.yul\":2046:2051   */\n      dup2\n        /* \"#utility.yul\":2028:2052   */\n      tag_65\n      jump\t// in\n    tag_133:\n        /* \"#utility.yul\":2023:2026   */\n      dup3\n        /* \"#utility.yul\":2016:2053   */\n      mstore\n        /* \"#utility.yul\":1941:2059   */\n      pop\n      pop\n      jump\t// out\n        /* \"#utility.yul\":2065:2488   */\n    tag_15:\n        /* \"#utility.yul\":2206:2210   */\n      0x00\n        /* \"#utility.yul\":2244:2246   */\n      0x40\n        /* \"#utility.yul\":2233:2242   */\n      dup3\n        /* \"#utility.yul\":2229:2247   */\n      add\n        /* \"#utility.yul\":2221:2247   */\n      swap1\n      pop\n        /* \"#utility.yul\":2293:2302   */\n      dup2\n        /* \"#utility.yul\":2287:2291   */\n      dup2\n        /* \"#utility.yul\":2283:2303   */\n      sub\n        /* \"#utility.yul\":2279:2280   */\n      0x00\n        /* \"#utility.yul\":2268:2277   */\n      dup4\n        /* \"#utility.yul\":2264:2281   */\n      add\n        /* \"#utility.yul\":2257:2304   */\n      mstore\n        /* \"#utility.yul\":2321:2399   */\n      tag_135\n        /* \"#utility.yul\":2394:2398   */\n      dup2\n        /* \"#utility.yul\":2385:2391   */\n      dup6\n        /* \"#utility.yul\":2321:2399   */\n      tag_72\n      jump\t// in\n    tag_135:\n        /* \"#utility.yul\":2313:2399   */\n      swap1\n      pop\n        /* \"#utility.yul\":2409:2481   */\n      tag_136\n        /* \"#utility.yul\":2477:2479   */\n      0x20\n        /* \"#utility.yul\":2466:2475   */\n      dup4\n        /* \"#utility.yul\":2462:2480   */\n      add\n        /* \"#utility.yul\":2453:2459   */\n      dup5\n        /* \"#utility.yul\":2409:2481   */\n      tag_73\n      jump\t// in\n    tag_136:\n        /* \"#utility.yul\":2065:2488   */\n      swap4\n      swap3\n      pop\n      pop\n      pop\n      jump\t// out\n        /* \"#utility.yul\":2494:2611   */\n    tag_74:\n        /* \"#utility.yul\":2603:2604   */\n      0x00\n        /* \"#utility.yul\":2600:2601   */\n      0x00\n        /* \"#utility.yul\":2593:2605   */\n      revert\n        /* \"#utility.yul\":2617:2734   */\n    tag_75:\n        /* \"#utility.yul\":2726:2727   */\n      0x00\n        /* \"#utility.yul\":2723:2724   */\n      0x00\n        /* \"#utility.yul\":2716:2728   */\n      revert\n        /* \"#utility.yul\":2740:2920   */\n    tag_76:\n        /* \"#utility.yul\":2788:2865   */\n      0x4e487b7100000000000000000000000000000000000000000000000000000000\n        /* \"#utility.yul\":2785:2786   */\n      0x00\n        /* \"#utility.yul\":2778:2866   */\n      mstore\n        /* \"#utility.yul\":2885:2889   */\n      0x41\n        /* \"#utility.yul\":2882:2883   */\n      0x04\n        /* \"#utility.yul\":2875:2890   */\n      mstore\n        /* \"#utility.yul\":2909:2913   */\n      0x24\n        /* \"#utility.yul\":2906:2907   */\n      0x00\n        /* \"#utility.yul\":2899:2914   */\n      revert\n        /* \"#utility.yul\":2926:3207   */\n    tag_77:\n        /* \"#utility.yul\":3009:3036   */\n      tag_141\n        /* \"#utility.yul\":3031:3035   */\n      dup3\n        /* \"#utility.yul\":3009:3036   */\n      tag_71\n      jump\t// in\n    tag_141:\n        /* \"#utility.yul\":3001:3007   */\n      dup2\n        /* \"#utility.yul\":2997:3037   */\n      add\n        /* \"#utility.yul\":3139:3145   */\n      dup2\n        /* \"#utility.yul\":3127:3137   */\n      dup2\n        /* \"#utility.yul\":3124:3146   */\n      lt\n        /* \"#utility.yul\":3103:3121   */\n      0xffffffffffffffff\n        /* \"#utility.yul\":3091:3101   */\n      dup3\n        /* \"#utility.yul\":3088:3122   */\n      gt\n        /* \"#utility.yul\":3085:3147   */\n      or\n        /* \"#utility.yul\":3082:3170   */\n      iszero\n      tag_142\n      jumpi\n        /* \"#utility.yul\":3150:3168   */\n      tag_143\n      tag_76\n      jump\t// in\n    tag_143:\n        /* \"#utility.yul\":3082:3170   */\n    tag_142:\n        /* \"#utility.yul\":3190:3200   */\n      dup1\n        /* \"#utility.yul\":3186:3188   */\n      0x40\n        /* \"#utility.yul\":3179:3201   */\n      mstore\n        /* \"#utility.yul\":2969:3207   */\n      pop\n        /* \"#utility.yul\":2926:3207   */\n      pop\n      pop\n      jump\t// out\n        /* \"#utility.yul\":3213:3342   */\n    tag_78:\n        /* \"#utility.yul\":3247:3253   */\n      0x00\n        /* \"#utility.yul\":3274:3294   */\n      tag_145\n      tag_62\n      jump\t// in\n    tag_145:\n        /* \"#utility.yul\":3264:3294   */\n      swap1\n      pop\n        /* \"#utility.yul\":3303:3336   */\n      tag_146\n        /* \"#utility.yul\":3331:3335   */\n      dup3\n        /* \"#utility.yul\":3323:3329   */\n      dup3\n        /* \"#utility.yul\":3303:3336   */\n      tag_77\n      jump\t// in\n    tag_146:\n        /* \"#utility.yul\":3213:3342   */\n      swap2\n      swap1\n      pop\n      jump\t// out\n        /* \"#utility.yul\":3348:3656   */\n    tag_79:\n        /* \"#utility.yul\":3410:3414   */\n      0x00\n        /* \"#utility.yul\":3500:3518   */\n      0xffffffffffffffff\n        /* \"#utility.yul\":3492:3498   */\n      dup3\n        /* \"#utility.yul\":3489:3519   */\n      gt\n        /* \"#utility.yul\":3486:3542   */\n      iszero\n      tag_148\n      jumpi\n        /* \"#utility.yul\":3522:3540   */\n      tag_149\n      tag_76\n      jump\t// in\n    tag_149:\n        /* \"#utility.yul\":3486:3542   */\n    tag_148:\n        /* \"#utility.yul\":3560:3589   */\n      tag_150\n        /* \"#utility.yul\":3582:3588   */\n      dup3\n        /* \"#utility.yul\":3560:3589   */\n      tag_71\n      jump\t// in\n    tag_150:\n        /* \"#utility.yul\":3552:3589   */\n      swap1\n      pop\n        /* \"#utility.yul\":3644:3648   */\n      0x20\n        /* \"#utility.yul\":3638:3642   */\n      dup2\n        /* \"#utility.yul\":3634:3649   */\n      add\n        /* \"#utility.yul\":3626:3649   */\n      swap1\n      pop\n        /* \"#utility.yul\":3348:3656   */\n      swap2\n      swap1\n      pop\n      jump\t// out\n        /* \"#utility.yul\":3662:3810   */\n    tag_80:\n        /* \"#utility.yul\":3760:3766   */\n      dup3\n        /* \"#utility.yul\":3755:3758   */\n      dup2\n        /* \"#utility.yul\":3750:3753   */\n      dup4\n        /* \"#utility.yul\":3737:3767   */\n      calldatacopy\n        /* \"#utility.yul\":3801:3802   */\n      0x00\n        /* \"#utility.yul\":3792:3798   */\n      dup4\n        /* \"#utility.yul\":3787:3790   */\n      dup4\n        /* \"#utility.yul\":3783:3799   */\n      add\n        /* \"#utility.yul\":3776:3803   */\n      mstore\n        /* \"#utility.yul\":3662:3810   */\n      pop\n      pop\n      pop\n      jump\t// out\n        /* \"#utility.yul\":3816:4241   */\n    tag_81:\n        /* \"#utility.yul\":3894:3899   */\n      0x00\n        /* \"#utility.yul\":3919:3985   */\n      tag_153\n        /* \"#utility.yul\":3935:3984   */\n      tag_154\n        /* \"#utility.yul\":3977:3983   */\n      dup5\n        /* \"#utility.yul\":3935:3984   */\n      tag_79\n      jump\t// in\n    tag_154:\n        /* \"#utility.yul\":3919:3985   */\n      tag_78\n      jump\t// in\n    tag_153:\n        /* \"#utility.yul\":3910:3985   */\n      swap1\n      pop\n        /* \"#utility.yul\":4008:4014   */\n      dup3\n        /* \"#utility.yul\":4001:4006   */\n      dup2\n        /* \"#utility.yul\":3994:4015   */\n      mstore\n        /* \"#utility.yul\":4046:4050   */\n      0x20\n        /* \"#utility.yul\":4039:4044   */\n      dup2\n        /* \"#utility.yul\":4035:4051   */\n      add\n        /* \"#utility.yul\":4084:4087   */\n      dup5\n        /* \"#utility.yul\":4075:4081   */\n      dup5\n        /* \"#utility.yul\":4070:4073   */\n      dup5\n        /* \"#utility.yul\":4066:4082   */\n      add\n        /* \"#utility.yul\":4063:4088   */\n      gt\n        /* \"#utility.yul\":4060:4172   */\n      iszero\n      tag_155\n      jumpi\n        /* \"#utility.yul\":4091:4170   */\n      tag_156\n      tag_75\n      jump\t// in\n    tag_156:\n        /* \"#utility.yul\":4060:4172   */\n    tag_155:\n        /* \"#utility.yul\":4181:4235   */\n      tag_157\n        /* \"#utility.yul\":4228:4234   */\n      dup5\n        /* \"#utility.yul\":4223:4226   */\n      dup3\n        /* \"#utility.yul\":4218:4221   */\n      dup6\n        /* \"#utility.yul\":4181:4235   */\n      tag_80\n      jump\t// in\n    tag_157:\n        /* \"#utility.yul\":3900:4241   */\n      pop\n        /* \"#utility.yul\":3816:4241   */\n      swap4\n      swap3\n      pop\n      pop\n      pop\n      jump\t// out\n        /* \"#utility.yul\":4261:4601   */\n    tag_82:\n        /* \"#utility.yul\":4317:4322   */\n      0x00\n        /* \"#utility.yul\":4366:4369   */\n      dup3\n        /* \"#utility.yul\":4359:4363   */\n      0x1f\n        /* \"#utility.yul\":4351:4357   */\n      dup4\n        /* \"#utility.yul\":4347:4364   */\n      add\n        /* \"#utility.yul\":4343:4370   */\n      slt\n        /* \"#utility.yul\":4333:4455   */\n      tag_159\n      jumpi\n        /* \"#utility.yul\":4374:4453   */\n      tag_160\n      tag_74\n      jump\t// in\n    tag_160:\n        /* \"#utility.yul\":4333:4455   */\n    tag_159:\n        /* \"#utility.yul\":4491:4497   */\n      dup2\n        /* \"#utility.yul\":4478:4498   */\n      calldataload\n        /* \"#utility.yul\":4516:4595   */\n      tag_161\n        /* \"#utility.yul\":4591:4594   */\n      dup5\n        /* \"#utility.yul\":4583:4589   */\n      dup3\n        /* \"#utility.yul\":4576:4580   */\n      0x20\n        /* \"#utility.yul\":4568:4574   */\n      dup7\n        /* \"#utility.yul\":4564:4581   */\n      add\n        /* \"#utility.yul\":4516:4595   */\n      tag_81\n      jump\t// in\n    tag_161:\n        /* \"#utility.yul\":4507:4595   */\n      swap2\n      pop\n        /* \"#utility.yul\":4323:4601   */\n      pop\n        /* \"#utility.yul\":4261:4601   */\n      swap3\n      swap2\n      pop\n      pop\n      jump\t// out\n        /* \"#utility.yul\":4607:5116   */\n    tag_18:\n        /* \"#utility.yul\":4676:4682   */\n      0x00\n        /* \"#utility.yul\":4725:4727   */\n      0x20\n        /* \"#utility.yul\":4713:4722   */\n      dup3\n        /* \"#utility.yul\":4704:4711   */\n      dup5\n        /* \"#utility.yul\":4700:4723   */\n      sub\n        /* \"#utility.yul\":4696:4728   */\n      slt\n        /* \"#utility.yul\":4693:4812   */\n      iszero\n      tag_163\n      jumpi\n        /* \"#utility.yul\":4731:4810   */\n      tag_164\n      tag_63\n      jump\t// in\n    tag_164:\n        /* \"#utility.yul\":4693:4812   */\n    tag_163:\n        /* \"#utility.yul\":4879:4880   */\n      0x00\n        /* \"#utility.yul\":4868:4877   */\n      dup3\n        /* \"#utility.yul\":4864:4881   */\n      add\n        /* \"#utility.yul\":4851:4882   */\n      calldataload\n        /* \"#utility.yul\":4909:4927   */\n      0xffffffffffffffff\n        /* \"#utility.yul\":4901:4907   */\n      dup2\n        /* \"#utility.yul\":4898:4928   */\n      gt\n        /* \"#utility.yul\":4895:5012   */\n      iszero\n      tag_165\n      jumpi\n        /* \"#utility.yul\":4931:5010   */\n      tag_166\n      tag_64\n      jump\t// in\n    tag_166:\n        /* \"#utility.yul\":4895:5012   */\n    tag_165:\n        /* \"#utility.yul\":5036:5099   */\n      tag_167\n        /* \"#utility.yul\":5091:5098   */\n      dup5\n        /* \"#utility.yul\":5082:5088   */\n      dup3\n        /* \"#utility.yul\":5071:5080   */\n      dup6\n        /* \"#utility.yul\":5067:5089   */\n      add\n        /* \"#utility.yul\":5036:5099   */\n      tag_82\n      jump\t// in\n    tag_167:\n        /* \"#utility.yul\":5026:5099   */\n      swap2\n      pop\n        /* \"#utility.yul\":4822:5109   */\n      pop\n        /* \"#utility.yul\":4607:5116   */\n      swap3\n      swap2\n      pop\n      pop\n      jump\t// out\n        /* \"#utility.yul\":5122:5248   */\n    tag_83:\n        /* \"#utility.yul\":5159:5166   */\n      0x00\n        /* \"#utility.yul\":5199:5241   */\n      0xffffffffffffffffffffffffffffffffffffffff\n        /* \"#utility.yul\":5192:5197   */\n      dup3\n        /* \"#utility.yul\":5188:5242   */\n      and\n        /* \"#utility.yul\":5177:5242   */\n      swap1\n      pop\n        /* \"#utility.yul\":5122:5248   */\n      swap2\n      swap1\n      pop\n      jump\t// out\n        /* \"#utility.yul\":5254:5350   */\n    tag_84:\n        /* \"#utility.yul\":5291:5298   */\n      0x00\n        /* \"#utility.yul\":5320:5344   */\n      tag_170\n        /* \"#utility.yul\":5338:5343   */\n      dup3\n        /* \"#utility.yul\":5320:5344   */\n      tag_83\n      jump\t// in\n    tag_170:\n        /* \"#utility.yul\":5309:5344   */\n      swap1\n      pop\n        /* \"#utility.yul\":5254:5350   */\n      swap2\n      swap1\n      pop\n      jump\t// out\n        /* \"#utility.yul\":5356:5474   */\n    tag_85:\n        /* \"#utility.yul\":5443:5467   */\n      tag_172\n        /* \"#utility.yul\":5461:5466   */\n      dup2\n        /* \"#utility.yul\":5443:5467   */\n      tag_84\n      jump\t// in\n    tag_172:\n        /* \"#utility.yul\":5438:5441   */\n      dup3\n        /* \"#utility.yul\":5431:5468   */\n      mstore\n        /* \"#utility.yul\":5356:5474   */\n      pop\n      pop\n      jump\t// out\n        /* \"#utility.yul\":5480:5702   */\n    tag_23:\n        /* \"#utility.yul\":5573:5577   */\n      0x00\n        /* \"#utility.yul\":5611:5613   */\n      0x20\n        /* \"#utility.yul\":5600:5609   */\n      dup3\n        /* \"#utility.yul\":5596:5614   */\n      add\n        /* \"#utility.yul\":5588:5614   */\n      swap1\n      pop\n        /* \"#utility.yul\":5624:5695   */\n      tag_174\n        /* \"#utility.yul\":5692:5693   */\n      0x00\n        /* \"#utility.yul\":5681:5690   */\n      dup4\n        /* \"#utility.yul\":5677:5694   */\n      add\n        /* \"#utility.yul\":5668:5674   */\n      dup5\n        /* \"#utility.yul\":5624:5695   */\n      tag_85\n      jump\t// in\n    tag_174:\n        /* \"#utility.yul\":5480:5702   */\n      swap3\n      swap2\n      pop\n      pop\n      jump\t// out\n        /* \"#utility.yul\":5708:5880   */\n    tag_86:\n        /* \"#utility.yul\":5848:5872   */\n      0x4e6f2070726f706f73616c7320617661696c61626c6500000000000000000000\n        /* \"#utility.yul\":5844:5845   */\n      0x00\n        /* \"#utility.yul\":5836:5842   */\n      dup3\n        /* \"#utility.yul\":5832:5846   */\n      add\n        /* \"#utility.yul\":5825:5873   */\n      mstore\n        /* \"#utility.yul\":5708:5880   */\n      pop\n      jump\t// out\n        /* \"#utility.yul\":5886:6252   */\n    tag_87:\n        /* \"#utility.yul\":6028:6031   */\n      0x00\n        /* \"#utility.yul\":6049:6116   */\n      tag_177\n        /* \"#utility.yul\":6113:6115   */\n      0x16\n        /* \"#utility.yul\":6108:6111   */\n      dup4\n        /* \"#utility.yul\":6049:6116   */\n      tag_69\n      jump\t// in\n    tag_177:\n        /* \"#utility.yul\":6042:6116   */\n      swap2\n      pop\n        /* \"#utility.yul\":6125:6218   */\n      tag_178\n        /* \"#utility.yul\":6214:6217   */\n      dup3\n        /* \"#utility.yul\":6125:6218   */\n      tag_86\n      jump\t// in\n    tag_178:\n        /* \"#utility.yul\":6243:6245   */\n      0x20\n        /* \"#utility.yul\":6238:6241   */\n      dup3\n        /* \"#utility.yul\":6234:6246   */\n      add\n        /* \"#utility.yul\":6227:6246   */\n      swap1\n      pop\n        /* \"#utility.yul\":5886:6252   */\n      swap2\n      swap1\n      pop\n      jump\t// out\n        /* \"#utility.yul\":6258:6677   */\n    tag_27:\n        /* \"#utility.yul\":6424:6428   */\n      0x00\n        /* \"#utility.yul\":6462:6464   */\n      0x20\n        /* \"#utility.yul\":6451:6460   */\n      dup3\n        /* \"#utility.yul\":6447:6465   */\n      add\n        /* \"#utility.yul\":6439:6465   */\n      swap1\n      pop\n        /* \"#utility.yul\":6511:6520   */\n      dup2\n        /* \"#utility.yul\":6505:6509   */\n      dup2\n        /* \"#utility.yul\":6501:6521   */\n      sub\n        /* \"#utility.yul\":6497:6498   */\n      0x00\n        /* \"#utility.yul\":6486:6495   */\n      dup4\n        /* \"#utility.yul\":6482:6499   */\n      add\n        /* \"#utility.yul\":6475:6522   */\n      mstore\n        /* \"#utility.yul\":6539:6670   */\n      tag_180\n        /* \"#utility.yul\":6665:6669   */\n      dup2\n        /* \"#utility.yul\":6539:6670   */\n      tag_87\n      jump\t// in\n    tag_180:\n        /* \"#utility.yul\":6531:6670   */\n      swap1\n      pop\n        /* \"#utility.yul\":6258:6677   */\n      swap2\n      swap1\n      pop\n      jump\t// out\n        /* \"#utility.yul\":6683:6863   */\n    tag_88:\n        /* \"#utility.yul\":6823:6855   */\n      0x416c726561647920766f746564206f6e20746869732070726f706f73616c0000\n        /* \"#utility.yul\":6819:6820   */\n      0x00\n        /* \"#utility.yul\":6811:6817   */\n      dup3\n        /* \"#utility.yul\":6807:6821   */\n      add\n        /* \"#utility.yul\":6800:6856   */\n      mstore\n        /* \"#utility.yul\":6683:6863   */\n      pop\n      jump\t// out\n        /* \"#utility.yul\":6869:7235   */\n    tag_89:\n        /* \"#utility.yul\":7011:7014   */\n      0x00\n        /* \"#utility.yul\":7032:7099   */\n      tag_183\n        /* \"#utility.yul\":7096:7098   */\n      0x1e\n        /* \"#utility.yul\":7091:7094   */\n      dup4\n        /* \"#utility.yul\":7032:7099   */\n      tag_69\n      jump\t// in\n    tag_183:\n        /* \"#utility.yul\":7025:7099   */\n      swap2\n      pop\n        /* \"#utility.yul\":7108:7201   */\n      tag_184\n        /* \"#utility.yul\":7197:7200   */\n      dup3\n        /* \"#utility.yul\":7108:7201   */\n      tag_88\n      jump\t// in\n    tag_184:\n        /* \"#utility.yul\":7226:7228   */\n      0x20\n        /* \"#utility.yul\":7221:7224   */\n      dup3\n        /* \"#utility.yul\":7217:7229   */\n      add\n        /* \"#utility.yul\":7210:7229   */\n      swap1\n      pop\n        /* \"#utility.yul\":6869:7235   */\n      swap2\n      swap1\n      pop\n      jump\t// out\n        /* \"#utility.yul\":7241:7660   */\n    tag_30:\n        /* \"#utility.yul\":7407:7411   */\n      0x00\n        /* \"#utility.yul\":7445:7447   */\n      0x20\n        /* \"#utility.yul\":7434:7443   */\n      dup3\n        /* \"#utility.yul\":7430:7448   */\n      add\n        /* \"#utility.yul\":7422:7448   */\n      swap1\n      pop\n        /* \"#utility.yul\":7494:7503   */\n      dup2\n        /* \"#utility.yul\":7488:7492   */\n      dup2\n        /* \"#utility.yul\":7484:7504   */\n      sub\n        /* \"#utility.yul\":7480:7481   */\n      0x00\n        /* \"#utility.yul\":7469:7478   */\n      dup4\n        /* \"#utility.yul\":7465:7482   */\n      add\n        /* \"#utility.yul\":7458:7505   */\n      mstore\n        /* \"#utility.yul\":7522:7653   */\n      tag_186\n        /* \"#utility.yul\":7648:7652   */\n      dup2\n        /* \"#utility.yul\":7522:7653   */\n      tag_89\n      jump\t// in\n    tag_186:\n        /* \"#utility.yul\":7514:7653   */\n      swap1\n      pop\n        /* \"#utility.yul\":7241:7660   */\n      swap2\n      swap1\n      pop\n      jump\t// out\n        /* \"#utility.yul\":7666:7846   */\n    tag_33:\n        /* \"#utility.yul\":7714:7791   */\n      0x4e487b7100000000000000000000000000000000000000000000000000000000\n        /* \"#utility.yul\":7711:7712   */\n      0x00\n        /* \"#utility.yul\":7704:7792   */\n      mstore\n        /* \"#utility.yul\":7811:7815   */\n      0x32\n        /* \"#utility.yul\":7808:7809   */\n      0x04\n        /* \"#utility.yul\":7801:7816   */\n      mstore\n        /* \"#utility.yul\":7835:7839   */\n      0x24\n        /* \"#utility.yul\":7832:7833   */\n      0x00\n        /* \"#utility.yul\":7825:7840   */\n      revert\n        /* \"#utility.yul\":7852:8032   */\n    tag_90:\n        /* \"#utility.yul\":7900:7977   */\n      0x4e487b7100000000000000000000000000000000000000000000000000000000\n        /* \"#utility.yul\":7897:7898   */\n      0x00\n        /* \"#utility.yul\":7890:7978   */\n      mstore\n        /* \"#utility.yul\":7997:8001   */\n      0x11\n        /* \"#utility.yul\":7994:7995   */\n      0x04\n        /* \"#utility.yul\":7987:8002   */\n      mstore\n        /* \"#utility.yul\":8021:8025   */\n      0x24\n        /* \"#utility.yul\":8018:8019   */\n      0x00\n        /* \"#utility.yul\":8011:8026   */\n      revert\n        /* \"#utility.yul\":8038:8271   */\n    tag_36:\n        /* \"#utility.yul\":8077:8080   */\n      0x00\n        /* \"#utility.yul\":8100:8124   */\n      tag_190\n        /* \"#utility.yul\":8118:8123   */\n      dup3\n        /* \"#utility.yul\":8100:8124   */\n      tag_65\n      jump\t// in\n    tag_190:\n        /* \"#utility.yul\":8091:8124   */\n      swap2\n      pop\n        /* \"#utility.yul\":8146:8212   */\n      0xffffffffffffffffffffffffffffffffffffffffffffffffffffffffffffffff\n        /* \"#utility.yul\":8139:8144   */\n      dup3\n        /* \"#utility.yul\":8136:8213   */\n      sub\n        /* \"#utility.yul\":8133:8236   */\n      tag_191\n      jumpi\n        /* \"#utility.yul\":8216:8234   */\n      tag_192\n      tag_90\n      jump\t// in\n    tag_192:\n        /* \"#utility.yul\":8133:8236   */\n    tag_191:\n        /* \"#utility.yul\":8263:8264   */\n      0x01\n        /* \"#utility.yul\":8256:8261   */\n      dup3\n        /* \"#utility.yul\":8252:8265   */\n      add\n        /* \"#utility.yul\":8245:8265   */\n      swap1\n      pop\n        /* \"#utility.yul\":8038:8271   */\n      swap2\n      swap1\n      pop\n      jump\t// out\n        /* \"#utility.yul\":8277:8609   */\n    tag_38:\n        /* \"#utility.yul\":8398:8402   */\n      0x00\n        /* \"#utility.yul\":8436:8438   */\n      0x40\n        /* \"#utility.yul\":8425:8434   */\n      dup3\n        /* \"#utility.yul\":8421:8439   */\n      add\n        /* \"#utility.yul\":8413:8439   */\n      swap1\n      pop\n        /* \"#utility.yul\":8449:8520   */\n      tag_194\n        /* \"#utility.yul\":8517:8518   */\n      0x00\n        /* \"#utility.yul\":8506:8515   */\n      dup4\n        /* \"#utility.yul\":8502:8519   */\n      add\n        /* \"#utility.yul\":8493:8499   */\n      dup6\n        /* \"#utility.yul\":8449:8520   */\n      tag_73\n      jump\t// in\n    tag_194:\n        /* \"#utility.yul\":8530:8602   */\n      tag_195\n        /* \"#utility.yul\":8598:8600   */\n      0x20\n        /* \"#utility.yul\":8587:8596   */\n      dup4\n        /* \"#utility.yul\":8583:8601   */\n      add\n        /* \"#utility.yul\":8574:8580   */\n      dup5\n        /* \"#utility.yul\":8530:8602   */\n      tag_73\n      jump\t// in\n    tag_195:\n        /* \"#utility.yul\":8277:8609   */\n      swap4\n      swap3\n      pop\n      pop\n      pop\n      jump\t// out\n        /* \"#utility.yul\":8615:8795   */\n    tag_91:\n        /* \"#utility.yul\":8663:8740   */\n      0x4e487b7100000000000000000000000000000000000000000000000000000000\n        /* \"#utility.yul\":8660:8661   */\n      0x00\n        /* \"#utility.yul\":8653:8741   */\n      mstore\n        /* \"#utility.yul\":8760:8764   */\n      0x22\n        /* \"#utility.yul\":8757:8758   */\n      0x04\n        /* \"#utility.yul\":8750:8765   */\n      mstore\n        /* \"#utility.yul\":8784:8788   */\n      0x24\n        /* \"#utility.yul\":8781:8782   */\n      0x00\n        /* \"#utility.yul\":8774:8789   */\n      revert\n        /* \"#utility.yul\":8801:9121   */\n    tag_42:\n        /* \"#utility.yul\":8845:8851   */\n      0x00\n        /* \"#utility.yul\":8882:8883   */\n      0x02\n        /* \"#utility.yul\":8876:8880   */\n      dup3\n        /* \"#utility.yul\":8872:8884   */\n      div\n        /* \"#utility.yul\":8862:8884   */\n      swap1\n      pop\n        /* \"#utility.yul\":8929:8930   */\n      0x01\n        /* \"#utility.yul\":8923:8927   */\n      dup3\n        /* \"#utility.yul\":8919:8931   */\n      and\n        /* \"#utility.yul\":8950:8968   */\n      dup1\n        /* \"#utility.yul\":8940:9021   */\n      tag_198\n      jumpi\n        /* \"#utility.yul\":9006:9010   */\n      0x7f\n        /* \"#utility.yul\":8998:9004   */\n      dup3\n        /* \"#utility.yul\":8994:9011   */\n      and\n        /* \"#utility.yul\":8984:9011   */\n      swap2\n      pop\n        /* \"#utility.yul\":8940:9021   */\n    tag_198:\n        /* \"#utility.yul\":9068:9070   */\n      0x20\n        /* \"#utility.yul\":9060:9066   */\n      dup3\n        /* \"#utility.yul\":9057:9071   */\n      lt\n        /* \"#utility.yul\":9037:9055   */\n      dup2\n        /* \"#utility.yul\":9034:9072   */\n      sub\n        /* \"#utility.yul\":9031:9115   */\n      tag_199\n      jumpi\n        /* \"#utility.yul\":9087:9105   */\n      tag_200\n      tag_91\n      jump\t// in\n    tag_200:\n        /* \"#utility.yul\":9031:9115   */\n    tag_199:\n        /* \"#utility.yul\":8852:9121   */\n      pop\n        /* \"#utility.yul\":8801:9121   */\n      swap2\n      swap1\n      pop\n      jump\t// out\n        /* \"#utility.yul\":9127:9286   */\n    tag_92:\n        /* \"#utility.yul\":9267:9278   */\n      0x4e6f742041646d696e0000000000000000000000000000000000000000000000\n        /* \"#utility.yul\":9263:9264   */\n      0x00\n        /* \"#utility.yul\":9255:9261   */\n      dup3\n        /* \"#utility.yul\":9251:9265   */\n      add\n        /* \"#utility.yul\":9244:9279   */\n      mstore\n        /* \"#utility.yul\":9127:9286   */\n      pop\n      jump\t// out\n        /* \"#utility.yul\":9292:9657   */\n    tag_93:\n        /* \"#utility.yul\":9434:9437   */\n      0x00\n        /* \"#utility.yul\":9455:9521   */\n      tag_203\n        /* \"#utility.yul\":9519:9520   */\n      0x09\n        /* \"#utility.yul\":9514:9517   */\n      dup4\n        /* \"#utility.yul\":9455:9521   */\n      tag_69\n      jump\t// in\n    tag_203:\n        /* \"#utility.yul\":9448:9521   */\n      swap2\n      pop\n        /* \"#utility.yul\":9530:9623   */\n      tag_204\n        /* \"#utility.yul\":9619:9622   */\n      dup3\n        /* \"#utility.yul\":9530:9623   */\n      tag_92\n      jump\t// in\n    tag_204:\n        /* \"#utility.yul\":9648:9650   */\n      0x20\n        /* \"#utility.yul\":9643:9646   */\n      dup3\n        /* \"#utility.yul\":9639:9651   */\n      add\n        /* \"#utility.yul\":9632:9651   */\n      swap1\n      pop\n        /* \"#utility.yul\":9292:9657   */\n      swap2\n      swap1\n      pop\n      jump\t// out\n        /* \"#utility.yul\":9663:10082   */\n    tag_50:\n        /* \"#utility.yul\":9829:9833   */\n      0x00\n        /* \"#utility.yul\":9867:9869   */\n      0x20\n        /* \"#utility.yul\":9856:9865   */\n      dup3\n        /* \"#utility.yul\":9852:9870   */\n      add\n        /* \"#utility.yul\":9844:9870   */\n      swap1\n      pop\n        /* \"#utility.yul\":9916:9925   */\n      dup2\n        /* \"#utility.yul\":9910:9914   */\n      dup2\n        /* \"#utility.yul\":9906:9926   */\n      sub\n        /* \"#utility.yul\":9902:9903   */\n      0x00\n        /* \"#utility.yul\":9891:9900   */\n      dup4\n        /* \"#utility.yul\":9887:9904   */\n      add\n        /* \"#utility.yul\":9880:9927   */\n      mstore\n        /* \"#utility.yul\":9944:10075   */\n      tag_206\n        /* \"#utility.yul\":10070:10074   */\n      dup2\n        /* \"#utility.yul\":9944:10075   */\n      tag_93\n      jump\t// in\n    tag_206:\n        /* \"#utility.yul\":9936:10075   */\n      swap1\n      pop\n        /* \"#utility.yul\":9663:10082   */\n      swap2\n      swap1\n      pop\n      jump\t// out\n        /* \"#utility.yul\":10088:10229   */\n    tag_94:\n        /* \"#utility.yul\":10137:10141   */\n      0x00\n        /* \"#utility.yul\":10160:10163   */\n      dup2\n        /* \"#utility.yul\":10152:10163   */\n      swap1\n      pop\n        /* \"#utility.yul\":10183:10186   */\n      dup2\n        /* \"#utility.yul\":10180:10181   */\n      0x00\n        /* \"#utility.yul\":10173:10187   */\n      mstore\n        /* \"#utility.yul\":10217:10221   */\n      0x20\n        /* \"#utility.yul\":10214:10215   */\n      0x00\n        /* \"#utility.yul\":10204:10222   */\n      keccak256\n        /* \"#utility.yul\":10196:10222   */\n      swap1\n      pop\n        /* \"#utility.yul\":10088:10229   */\n      swap2\n      swap1\n      pop\n      jump\t// out\n        /* \"#utility.yul\":10235:10328   */\n    tag_95:\n        /* \"#utility.yul\":10272:10278   */\n      0x00\n        /* \"#utility.yul\":10319:10321   */\n      0x20\n        /* \"#utility.yul\":10314:10316   */\n      0x1f\n        /* \"#utility.yul\":10307:10312   */\n      dup4\n        /* \"#utility.yul\":10303:10317   */\n      add\n        /* \"#utility.yul\":10299:10322   */\n      div\n        /* \"#utility.yul\":10289:10322   */\n      swap1\n      pop\n        /* \"#utility.yul\":10235:10328   */\n      swap2\n      swap1\n      pop\n      jump\t// out\n        /* \"#utility.yul\":10334:10441   */\n    tag_96:\n        /* \"#utility.yul\":10378:10386   */\n      0x00\n        /* \"#utility.yul\":10428:10433   */\n      dup3\n        /* \"#utility.yul\":10422:10426   */\n      dup3\n        /* \"#utility.yul\":10418:10434   */\n      shl\n        /* \"#utility.yul\":10397:10434   */\n      swap1\n      pop\n        /* \"#utility.yul\":10334:10441   */\n      swap3\n      swap2\n      pop\n      pop\n      jump\t// out\n        /* \"#utility.yul\":10447:10840   */\n    tag_97:\n        /* \"#utility.yul\":10516:10522   */\n      0x00\n        /* \"#utility.yul\":10566:10567   */\n      0x08\n        /* \"#utility.yul\":10554:10564   */\n      dup4\n        /* \"#utility.yul\":10550:10568   */\n      mul\n        /* \"#utility.yul\":10589:10686   */\n      tag_211\n        /* \"#utility.yul\":10619:10685   */\n      0xffffffffffffffffffffffffffffffffffffffffffffffffffffffffffffffff\n        /* \"#utility.yul\":10608:10617   */\n      dup3\n        /* \"#utility.yul\":10589:10686   */\n      tag_96\n      jump\t// in\n    tag_211:\n        /* \"#utility.yul\":10707:10746   */\n      tag_212\n        /* \"#utility.yul\":10737:10745   */\n      dup7\n        /* \"#utility.yul\":10726:10735   */\n      dup4\n        /* \"#utility.yul\":10707:10746   */\n      tag_96\n      jump\t// in\n    tag_212:\n        /* \"#utility.yul\":10695:10746   */\n      swap6\n      pop\n        /* \"#utility.yul\":10779:10783   */\n      dup1\n        /* \"#utility.yul\":10775:10784   */\n      not\n        /* \"#utility.yul\":10768:10773   */\n      dup5\n        /* \"#utility.yul\":10764:10785   */\n      and\n        /* \"#utility.yul\":10755:10785   */\n      swap4\n      pop\n        /* \"#utility.yul\":10828:10832   */\n      dup1\n        /* \"#utility.yul\":10818:10826   */\n      dup7\n        /* \"#utility.yul\":10814:10833   */\n      and\n        /* \"#utility.yul\":10807:10812   */\n      dup5\n        /* \"#utility.yul\":10804:10834   */\n      or\n        /* \"#utility.yul\":10794:10834   */\n      swap3\n      pop\n        /* \"#utility.yul\":10523:10840   */\n      pop\n      pop\n        /* \"#utility.yul\":10447:10840   */\n      swap4\n      swap3\n      pop\n      pop\n      pop\n      jump\t// out\n        /* \"#utility.yul\":10846:10906   */\n    tag_98:\n        /* \"#utility.yul\":10874:10877   */\n      0x00\n        /* \"#utility.yul\":10895:10900   */\n      dup2\n        /* \"#utility.yul\":10888:10900   */\n      swap1\n      pop\n        /* \"#utility.yul\":10846:10906   */\n      swap2\n      swap1\n      pop\n      jump\t// out\n        /* \"#utility.yul\":10912:11054   */\n    tag_99:\n        /* \"#utility.yul\":10962:10971   */\n      0x00\n        /* \"#utility.yul\":10995:11048   */\n      tag_215\n        /* \"#utility.yul\":11013:11047   */\n      tag_216\n        /* \"#utility.yul\":11022:11046   */\n      tag_217\n        /* \"#utility.yul\":11040:11045   */\n      dup5\n        /* \"#utility.yul\":11022:11046   */\n      tag_65\n      jump\t// in\n    tag_217:\n        /* \"#utility.yul\":11013:11047   */\n      tag_98\n      jump\t// in\n    tag_216:\n        /* \"#utility.yul\":10995:11048   */\n      tag_65\n      jump\t// in\n    tag_215:\n        /* \"#utility.yul\":10982:11048   */\n      swap1\n      pop\n        /* \"#utility.yul\":10912:11054   */\n      swap2\n      swap1\n      pop\n      jump\t// out\n        /* \"#utility.yul\":11060:11135   */\n    tag_100:\n        /* \"#utility.yul\":11103:11106   */\n      0x00\n        /* \"#utility.yul\":11124:11129   */\n      dup2\n        /* \"#utility.yul\":11117:11129   */\n      swap1\n      pop\n        /* \"#utility.yul\":11060:11135   */\n      swap2\n      swap1\n      pop\n      jump\t// out\n        /* \"#utility.yul\":11141:11410   */\n    tag_101:\n        /* \"#utility.yul\":11251:11290   */\n      tag_220\n        /* \"#utility.yul\":11282:11289   */\n      dup4\n        /* \"#utility.yul\":11251:11290   */\n      tag_99\n      jump\t// in\n    tag_220:\n        /* \"#utility.yul\":11312:11403   */\n      tag_221\n        /* \"#utility.yul\":11361:11402   */\n      tag_222\n        /* \"#utility.yul\":11385:11401   */\n      dup3\n        /* \"#utility.yul\":11361:11402   */\n      tag_100\n      jump\t// in\n    tag_222:\n        /* \"#utility.yul\":11353:11359   */\n      dup5\n        /* \"#utility.yul\":11346:11350   */\n      dup5\n        /* \"#utility.yul\":11340:11351   */\n      sload\n        /* \"#utility.yul\":11312:11403   */\n      tag_97\n      jump\t// in\n    tag_221:\n        /* \"#utility.yul\":11306:11310   */\n      dup3\n        /* \"#utility.yul\":11299:11404   */\n      sstore\n        /* \"#utility.yul\":11217:11410   */\n      pop\n        /* \"#utility.yul\":11141:11410   */\n      pop\n      pop\n      pop\n      jump\t// out\n        /* \"#utility.yul\":11416:11489   */\n    tag_102:\n        /* \"#utility.yul\":11461:11464   */\n      0x00\n        /* \"#utility.yul\":11482:11483   */\n      0x00\n        /* \"#utility.yul\":11475:11483   */\n      swap1\n      pop\n        /* \"#utility.yul\":11416:11489   */\n      swap1\n      jump\t// out\n        /* \"#utility.yul\":11495:11684   */\n    tag_103:\n        /* \"#utility.yul\":11572:11604   */\n      tag_225\n      tag_102\n      jump\t// in\n    tag_225:\n        /* \"#utility.yul\":11613:11678   */\n      tag_226\n        /* \"#utility.yul\":11671:11677   */\n      dup2\n        /* \"#utility.yul\":11663:11669   */\n      dup5\n        /* \"#utility.yul\":11657:11661   */\n      dup5\n        /* \"#utility.yul\":11613:11678   */\n      tag_101\n      jump\t// in\n    tag_226:\n        /* \"#utility.yul\":11548:11684   */\n      pop\n        /* \"#utility.yul\":11495:11684   */\n      pop\n      pop\n      jump\t// out\n        /* \"#utility.yul\":11690:11876   */\n    tag_104:\n        /* \"#utility.yul\":11750:11870   */\n    tag_228:\n        /* \"#utility.yul\":11767:11770   */\n      dup2\n        /* \"#utility.yul\":11760:11765   */\n      dup2\n        /* \"#utility.yul\":11757:11771   */\n      lt\n        /* \"#utility.yul\":11750:11870   */\n      iszero\n      tag_230\n      jumpi\n        /* \"#utility.yul\":11821:11860   */\n      tag_231\n        /* \"#utility.yul\":11858:11859   */\n      0x00\n        /* \"#utility.yul\":11851:11856   */\n      dup3\n        /* \"#utility.yul\":11821:11860   */\n      tag_103\n      jump\t// in\n    tag_231:\n        /* \"#utility.yul\":11794:11795   */\n      0x01\n        /* \"#utility.yul\":11787:11792   */\n      dup2\n        /* \"#utility.yul\":11783:11796   */\n      add\n        /* \"#utility.yul\":11774:11796   */\n      swap1\n      pop\n        /* \"#utility.yul\":11750:11870   */\n      jump(tag_228)\n    tag_230:\n        /* \"#utility.yul\":11690:11876   */\n      pop\n      pop\n      jump\t// out\n        /* \"#utility.yul\":11882:12425   */\n    tag_105:\n        /* \"#utility.yul\":11983:11985   */\n      0x1f\n        /* \"#utility.yul\":11978:11981   */\n      dup3\n        /* \"#utility.yul\":11975:11986   */\n      gt\n        /* \"#utility.yul\":11972:12418   */\n      iszero\n      tag_233\n      jumpi\n        /* \"#utility.yul\":12017:12055   */\n      tag_234\n        /* \"#utility.yul\":12049:12054   */\n      dup2\n        /* \"#utility.yul\":12017:12055   */\n      tag_94\n      jump\t// in\n    tag_234:\n        /* \"#utility.yul\":12101:12130   */\n      tag_235\n        /* \"#utility.yul\":12119:12129   */\n      dup5\n        /* \"#utility.yul\":12101:12130   */\n      tag_95\n      jump\t// in\n    tag_235:\n        /* \"#utility.yul\":12091:12099   */\n      dup2\n        /* \"#utility.yul\":12087:12131   */\n      add\n        /* \"#utility.yul\":12284:12286   */\n      0x20\n        /* \"#utility.yul\":12272:12282   */\n      dup6\n        /* \"#utility.yul\":12269:12287   */\n      lt\n        /* \"#utility.yul\":12266:12315   */\n      iszero\n      tag_236\n      jumpi\n        /* \"#utility.yul\":12305:12313   */\n      dup2\n        /* \"#utility.yul\":12290:12313   */\n      swap1\n      pop\n        /* \"#utility.yul\":12266:12315   */\n    tag_236:\n        /* \"#utility.yul\":12328:12408   */\n      tag_237\n        /* \"#utility.yul\":12384:12406   */\n      tag_238\n        /* \"#utility.yul\":12402:12405   */\n      dup6\n        /* \"#utility.yul\":12384:12406   */\n      tag_95\n      jump\t// in\n    tag_238:\n        /* \"#utility.yul\":12374:12382   */\n      dup4\n        /* \"#utility.yul\":12370:12407   */\n      add\n        /* \"#utility.yul\":12357:12368   */\n      dup3\n        /* \"#utility.yul\":12328:12408   */\n      tag_104\n      jump\t// in\n    tag_237:\n        /* \"#utility.yul\":11987:12418   */\n      pop\n      pop\n        /* \"#utility.yul\":11972:12418   */\n    tag_233:\n        /* \"#utility.yul\":11882:12425   */\n      pop\n      pop\n      pop\n      jump\t// out\n        /* \"#utility.yul\":12431:12548   */\n    tag_106:\n        /* \"#utility.yul\":12485:12493   */\n      0x00\n        /* \"#utility.yul\":12535:12540   */\n      dup3\n        /* \"#utility.yul\":12529:12533   */\n      dup3\n        /* \"#utility.yul\":12525:12541   */\n      shr\n        /* \"#utility.yul\":12504:12541   */\n      swap1\n      pop\n        /* \"#utility.yul\":12431:12548   */\n      swap3\n      swap2\n      pop\n      pop\n      jump\t// out\n        /* \"#utility.yul\":12554:12723   */\n    tag_107:\n        /* \"#utility.yul\":12598:12604   */\n      0x00\n        /* \"#utility.yul\":12631:12682   */\n      tag_241\n        /* \"#utility.yul\":12679:12680   */\n      0x00\n        /* \"#utility.yul\":12675:12681   */\n      not\n        /* \"#utility.yul\":12667:12672   */\n      dup5\n        /* \"#utility.yul\":12664:12665   */\n      0x08\n        /* \"#utility.yul\":12660:12673   */\n      mul\n        /* \"#utility.yul\":12631:12682   */\n      tag_106\n      jump\t// in\n    tag_241:\n        /* \"#utility.yul\":12627:12683   */\n      not\n        /* \"#utility.yul\":12712:12716   */\n      dup1\n        /* \"#utility.yul\":12706:12710   */\n      dup4\n        /* \"#utility.yul\":12702:12717   */\n      and\n        /* \"#utility.yul\":12692:12717   */\n      swap2\n      pop\n        /* \"#utility.yul\":12605:12723   */\n      pop\n        /* \"#utility.yul\":12554:12723   */\n      swap3\n      swap2\n      pop\n      pop\n      jump\t// out\n        /* \"#utility.yul\":12728:13023   */\n    tag_108:\n        /* \"#utility.yul\":12804:12808   */\n      0x00\n        /* \"#utility.yul\":12950:12979   */\n      tag_243\n        /* \"#utility.yul\":12975:12978   */\n      dup4\n        /* \"#utility.yul\":12969:12973   */\n      dup4\n        /* \"#utility.yul\":12950:12979   */\n      tag_107\n      jump\t// in\n    tag_243:\n        /* \"#utility.yul\":12942:12979   */\n      swap2\n      pop\n        /* \"#utility.yul\":13012:13015   */\n      dup3\n        /* \"#utility.yul\":13009:13010   */\n      0x02\n        /* \"#utility.yul\":13005:13016   */\n      mul\n        /* \"#utility.yul\":12999:13003   */\n      dup3\n        /* \"#utility.yul\":12996:13017   */\n      or\n        /* \"#utility.yul\":12988:13017   */\n      swap1\n      pop\n        /* \"#utility.yul\":12728:13023   */\n      swap3\n      swap2\n      pop\n      pop\n      jump\t// out\n        /* \"#utility.yul\":13028:14423   */\n    tag_57:\n        /* \"#utility.yul\":13145:13182   */\n      tag_245\n        /* \"#utility.yul\":13178:13181   */\n      dup3\n        /* \"#utility.yul\":13145:13182   */\n      tag_68\n      jump\t// in\n    tag_245:\n        /* \"#utility.yul\":13247:13265   */\n      0xffffffffffffffff\n        /* \"#utility.yul\":13239:13245   */\n      dup2\n        /* \"#utility.yul\":13236:13266   */\n      gt\n        /* \"#utility.yul\":13233:13289   */\n      iszero\n      tag_246\n      jumpi\n        /* \"#utility.yul\":13269:13287   */\n      tag_247\n      tag_76\n      jump\t// in\n    tag_247:\n        /* \"#utility.yul\":13233:13289   */\n    tag_246:\n        /* \"#utility.yul\":13313:13351   */\n      tag_248\n        /* \"#utility.yul\":13345:13349   */\n      dup3\n        /* \"#utility.yul\":13339:13350   */\n      sload\n        /* \"#utility.yul\":13313:13351   */\n      tag_42\n      jump\t// in\n    tag_248:\n        /* \"#utility.yul\":13398:13465   */\n      tag_249\n        /* \"#utility.yul\":13458:13464   */\n      dup3\n        /* \"#utility.yul\":13450:13456   */\n      dup3\n        /* \"#utility.yul\":13444:13448   */\n      dup6\n        /* \"#utility.yul\":13398:13465   */\n      tag_105\n      jump\t// in\n    tag_249:\n        /* \"#utility.yul\":13492:13493   */\n      0x00\n        /* \"#utility.yul\":13516:13520   */\n      0x20\n        /* \"#utility.yul\":13503:13520   */\n      swap1\n      pop\n        /* \"#utility.yul\":13548:13550   */\n      0x1f\n        /* \"#utility.yul\":13540:13546   */\n      dup4\n        /* \"#utility.yul\":13537:13551   */\n      gt\n        /* \"#utility.yul\":13565:13566   */\n      0x01\n        /* \"#utility.yul\":13560:14178   */\n      dup2\n      eq\n      tag_251\n      jumpi\n        /* \"#utility.yul\":14222:14223   */\n      0x00\n        /* \"#utility.yul\":14239:14245   */\n      dup5\n        /* \"#utility.yul\":14236:14313   */\n      iszero\n      tag_252\n      jumpi\n        /* \"#utility.yul\":14288:14297   */\n      dup3\n        /* \"#utility.yul\":14283:14286   */\n      dup8\n        /* \"#utility.yul\":14279:14298   */\n      add\n        /* \"#utility.yul\":14273:14299   */\n      mload\n        /* \"#utility.yul\":14264:14299   */\n      swap1\n      pop\n        /* \"#utility.yul\":14236:14313   */\n    tag_252:\n        /* \"#utility.yul\":14339:14406   */\n      tag_253\n        /* \"#utility.yul\":14399:14405   */\n      dup6\n        /* \"#utility.yul\":14392:14397   */\n      dup3\n        /* \"#utility.yul\":14339:14406   */\n      tag_108\n      jump\t// in\n    tag_253:\n        /* \"#utility.yul\":14333:14337   */\n      dup7\n        /* \"#utility.yul\":14326:14407   */\n      sstore\n        /* \"#utility.yul\":14195:14417   */\n      pop\n        /* \"#utility.yul\":13530:14417   */\n      jump(tag_250)\n        /* \"#utility.yul\":13560:14178   */\n    tag_251:\n        /* \"#utility.yul\":13612:13616   */\n      0x1f\n        /* \"#utility.yul\":13608:13617   */\n      not\n        /* \"#utility.yul\":13600:13606   */\n      dup5\n        /* \"#utility.yul\":13596:13618   */\n      and\n        /* \"#utility.yul\":13646:13683   */\n      tag_254\n        /* \"#utility.yul\":13678:13682   */\n      dup7\n        /* \"#utility.yul\":13646:13683   */\n      tag_94\n      jump\t// in\n    tag_254:\n        /* \"#utility.yul\":13705:13706   */\n      0x00\n        /* \"#utility.yul\":13719:13927   */\n    tag_255:\n        /* \"#utility.yul\":13733:13740   */\n      dup3\n        /* \"#utility.yul\":13730:13731   */\n      dup2\n        /* \"#utility.yul\":13727:13741   */\n      lt\n        /* \"#utility.yul\":13719:13927   */\n      iszero\n      tag_257\n      jumpi\n        /* \"#utility.yul\":13812:13821   */\n      dup5\n        /* \"#utility.yul\":13807:13810   */\n      dup10\n        /* \"#utility.yul\":13803:13822   */\n      add\n        /* \"#utility.yul\":13797:13823   */\n      mload\n        /* \"#utility.yul\":13789:13795   */\n      dup3\n        /* \"#utility.yul\":13782:13824   */\n      sstore\n        /* \"#utility.yul\":13863:13864   */\n      0x01\n        /* \"#utility.yul\":13855:13861   */\n      dup3\n        /* \"#utility.yul\":13851:13865   */\n      add\n        /* \"#utility.yul\":13841:13865   */\n      swap2\n      pop\n        /* \"#utility.yul\":13910:13912   */\n      0x20\n        /* \"#utility.yul\":13899:13908   */\n      dup6\n        /* \"#utility.yul\":13895:13913   */\n      add\n        /* \"#utility.yul\":13882:13913   */\n      swap5\n      pop\n        /* \"#utility.yul\":13756:13760   */\n      0x20\n        /* \"#utility.yul\":13753:13754   */\n      dup2\n        /* \"#utility.yul\":13749:13761   */\n      add\n        /* \"#utility.yul\":13744:13761   */\n      swap1\n      pop\n        /* \"#utility.yul\":13719:13927   */\n      jump(tag_255)\n    tag_257:\n        /* \"#utility.yul\":13955:13961   */\n      dup7\n        /* \"#utility.yul\":13946:13953   */\n      dup4\n        /* \"#utility.yul\":13943:13962   */\n      lt\n        /* \"#utility.yul\":13940:14119   */\n      iszero\n      tag_258\n      jumpi\n        /* \"#utility.yul\":14013:14022   */\n      dup5\n        /* \"#utility.yul\":14008:14011   */\n      dup10\n        /* \"#utility.yul\":14004:14023   */\n      add\n        /* \"#utility.yul\":13998:14024   */\n      mload\n        /* \"#utility.yul\":14056:14104   */\n      tag_259\n        /* \"#utility.yul\":14098:14102   */\n      0x1f\n        /* \"#utility.yul\":14090:14096   */\n      dup10\n        /* \"#utility.yul\":14086:14103   */\n      and\n        /* \"#utility.yul\":14075:14084   */\n      dup3\n        /* \"#utility.yul\":14056:14104   */\n      tag_107\n      jump\t// in\n    tag_259:\n        /* \"#utility.yul\":14048:14054   */\n      dup4\n        /* \"#utility.yul\":14041:14105   */\n      sstore\n        /* \"#utility.yul\":13963:14119   */\n      pop\n        /* \"#utility.yul\":13940:14119   */\n    tag_258:\n        /* \"#utility.yul\":14165:14166   */\n      0x01\n        /* \"#utility.yul\":14161:14162   */\n      0x02\n        /* \"#utility.yul\":14153:14159   */\n      dup9\n        /* \"#utility.yul\":14149:14163   */\n      mul\n        /* \"#utility.yul\":14145:14167   */\n      add\n        /* \"#utility.yul\":14139:14143   */\n      dup9\n        /* \"#utility.yul\":14132:14168   */\n      sstore\n        /* \"#utility.yul\":13567:14178   */\n      pop\n      pop\n      pop\n        /* \"#utility.yul\":13530:14417   */\n    tag_250:\n      pop\n        /* \"#utility.yul\":13120:14423   */\n      pop\n      pop\n      pop\n        /* \"#utility.yul\":13028:14423   */\n      pop\n      pop\n      jump\t// out\n        /* \"#utility.yul\":14429:14623   */\n    tag_59:\n        /* \"#utility.yul\":14469:14473   */\n      0x00\n        /* \"#utility.yul\":14489:14509   */\n      tag_261\n        /* \"#utility.yul\":14507:14508   */\n      dup3\n        /* \"#utility.yul\":14489:14509   */\n      tag_65\n      jump\t// in\n    tag_261:\n        /* \"#utility.yul\":14484:14509   */\n      swap2\n      pop\n        /* \"#utility.yul\":14523:14543   */\n      tag_262\n        /* \"#utility.yul\":14541:14542   */\n      dup4\n        /* \"#utility.yul\":14523:14543   */\n      tag_65\n      jump\t// in\n    tag_262:\n        /* \"#utility.yul\":14518:14543   */\n      swap3\n      pop\n        /* \"#utility.yul\":14567:14568   */\n      dup3\n        /* \"#utility.yul\":14564:14565   */\n      dup3\n        /* \"#utility.yul\":14560:14569   */\n      sub\n        /* \"#utility.yul\":14552:14569   */\n      swap1\n      pop\n        /* \"#utility.yul\":14591:14592   */\n      dup2\n        /* \"#utility.yul\":14585:14589   */\n      dup2\n        /* \"#utility.yul\":14582:14593   */\n      gt\n        /* \"#utility.yul\":14579:14616   */\n      iszero\n      tag_263\n      jumpi\n        /* \"#utility.yul\":14596:14614   */\n      tag_264\n      tag_90\n      jump\t// in\n    tag_264:\n        /* \"#utility.yul\":14579:14616   */\n    tag_263:\n        /* \"#utility.yul\":14429:14623   */\n      swap3\n      swap2\n      pop\n      pop\n      jump\t// out\n\n    auxdata: 0xa2646970667358221220d21cc8b1a04544304e6ed23b127083c34c72834e95052e045c0413d32c76284e64736f6c634300081e0033\n}\n",
				"bytecode": {
					"linkReferences": {},
					"object": "6080604052348015600e575f5ffd5b503360035f6101000a81548173ffffffffffffffffffffffffffffffffffffffff021916908373ffffffffffffffffffffffffffffffffffffffff160217905550610d2e8061005c5f395ff3fe608060405234801561000f575f5ffd5b506004361061004a575f3560e01c80630121b93f1461004e578063013cf08b1461006a57806349c2a1a61461009b578063f851a440146100b7575b5f5ffd5b61006860048036038101906100639190610556565b6100d5565b005b610084600480360381019061007f9190610556565b6102a2565b604051610092929190610600565b60405180910390f35b6100b560048036038101906100b0919061075a565b610356565b005b6100bf6103f1565b6040516100cc91906107e0565b60405180910390f35b5f5f805490501161011b576040517f08c379a000000000000000000000000000000000000000000000000000000000815260040161011290610843565b60405180910390fd5b60025f8281526020019081526020015f205f3373ffffffffffffffffffffffffffffffffffffffff1673ffffffffffffffffffffffffffffffffffffffff1681526020019081526020015f205f9054906101000a900460ff16156101b4576040517f08c379a00000000000000000000000000000000000000000000000000000000081526004016101ab906108ab565b60405180910390fd5b5f81815481106101c7576101c66108c9565b5b905f5260205f2090600202016001015f8154809291906101e690610923565b9190505550600160025f8381526020019081526020015f205f3373ffffffffffffffffffffffffffffffffffffffff1673ffffffffffffffffffffffffffffffffffffffff1681526020019081526020015f205f6101000a81548160ff0219169083151502179055503373ffffffffffffffffffffffffffffffffffffffff167fcb87df07b1c304492bd875a5c8b98672eca500939412809ea229afef1d745188824260405161029792919061096a565b60405180910390a250565b5f81815481106102b0575f80fd5b905f5260205f2090600202015f91509050805f0180546102cf906109be565b80601f01602080910402602001604051908101604052809291908181526020018280546102fb906109be565b80156103465780601f1061031d57610100808354040283529160200191610346565b820191905f5260205f20905b81548152906001019060200180831161032957829003601f168201915b5050505050908060010154905082565b60035f9054906101000a900473ffffffffffffffffffffffffffffffffffffffff1673ffffffffffffffffffffffffffffffffffffffff163373ffffffffffffffffffffffffffffffffffffffff16146103e5576040517f08c379a00000000000000000000000000000000000000000000000000000000081526004016103dc90610a38565b60405180910390fd5b6103ee81610416565b50565b60035f9054906101000a900473ffffffffffffffffffffffffffffffffffffffff1681565b5f60405180604001604052808381526020015f81525090505f81908060018154018082558091505060019003905f5260205f2090600202015f909190919091505f820151815f0190816104699190610bf6565b506020820151816001015550505f60015f805490506104889190610cc5565b90508160015f8381526020019081526020015f205f820151815f0190816104af9190610bf6565b50602082015181600101559050503373ffffffffffffffffffffffffffffffffffffffff167f5fa1acbdcb8142d84e87165149f77e37c91bcf8055862afe7b9e7c6bac70404b824260405161050592919061096a565b60405180910390a2505050565b5f604051905090565b5f5ffd5b5f5ffd5b5f819050919050565b61053581610523565b811461053f575f5ffd5b50565b5f813590506105508161052c565b92915050565b5f6020828403121561056b5761056a61051b565b5b5f61057884828501610542565b91505092915050565b5f81519050919050565b5f82825260208201905092915050565b8281835e5f83830152505050565b5f601f19601f8301169050919050565b5f6105c382610581565b6105cd818561058b565b93506105dd81856020860161059b565b6105e6816105a9565b840191505092915050565b6105fa81610523565b82525050565b5f6040820190508181035f83015261061881856105b9565b905061062760208301846105f1565b9392505050565b5f5ffd5b5f5ffd5b7f4e487b71000000000000000000000000000000000000000000000000000000005f52604160045260245ffd5b61066c826105a9565b810181811067ffffffffffffffff8211171561068b5761068a610636565b5b80604052505050565b5f61069d610512565b90506106a98282610663565b919050565b5f67ffffffffffffffff8211156106c8576106c7610636565b5b6106d1826105a9565b9050602081019050919050565b828183375f83830152505050565b5f6106fe6106f9846106ae565b610694565b90508281526020810184848401111561071a57610719610632565b5b6107258482856106de565b509392505050565b5f82601f8301126107415761074061062e565b5b81356107518482602086016106ec565b91505092915050565b5f6020828403121561076f5761076e61051b565b5b5f82013567ffffffffffffffff81111561078c5761078b61051f565b5b6107988482850161072d565b91505092915050565b5f73ffffffffffffffffffffffffffffffffffffffff82169050919050565b5f6107ca826107a1565b9050919050565b6107da816107c0565b82525050565b5f6020820190506107f35f8301846107d1565b92915050565b7f4e6f2070726f706f73616c7320617661696c61626c65000000000000000000005f82015250565b5f61082d60168361058b565b9150610838826107f9565b602082019050919050565b5f6020820190508181035f83015261085a81610821565b9050919050565b7f416c726561647920766f746564206f6e20746869732070726f706f73616c00005f82015250565b5f610895601e8361058b565b91506108a082610861565b602082019050919050565b5f6020820190508181035f8301526108c281610889565b9050919050565b7f4e487b71000000000000000000000000000000000000000000000000000000005f52603260045260245ffd5b7f4e487b71000000000000000000000000000000000000000000000000000000005f52601160045260245ffd5b5f61092d82610523565b91507fffffffffffffffffffffffffffffffffffffffffffffffffffffffffffffffff820361095f5761095e6108f6565b5b600182019050919050565b5f60408201905061097d5f8301856105f1565b61098a60208301846105f1565b9392505050565b7f4e487b71000000000000000000000000000000000000000000000000000000005f52602260045260245ffd5b5f60028204905060018216806109d557607f821691505b6020821081036109e8576109e7610991565b5b50919050565b7f4e6f742041646d696e00000000000000000000000000000000000000000000005f82015250565b5f610a2260098361058b565b9150610a2d826109ee565b602082019050919050565b5f6020820190508181035f830152610a4f81610a16565b9050919050565b5f819050815f5260205f209050919050565b5f6020601f8301049050919050565b5f82821b905092915050565b5f60088302610ab27fffffffffffffffffffffffffffffffffffffffffffffffffffffffffffffffff82610a77565b610abc8683610a77565b95508019841693508086168417925050509392505050565b5f819050919050565b5f610af7610af2610aed84610523565b610ad4565b610523565b9050919050565b5f819050919050565b610b1083610add565b610b24610b1c82610afe565b848454610a83565b825550505050565b5f5f905090565b610b3b610b2c565b610b46818484610b07565b505050565b5b81811015610b6957610b5e5f82610b33565b600181019050610b4c565b5050565b601f821115610bae57610b7f81610a56565b610b8884610a68565b81016020851015610b97578190505b610bab610ba385610a68565b830182610b4b565b50505b505050565b5f82821c905092915050565b5f610bce5f1984600802610bb3565b1980831691505092915050565b5f610be68383610bbf565b9150826002028217905092915050565b610bff82610581565b67ffffffffffffffff811115610c1857610c17610636565b5b610c2282546109be565b610c2d828285610b6d565b5f60209050601f831160018114610c5e575f8415610c4c578287015190505b610c568582610bdb565b865550610cbd565b601f198416610c6c86610a56565b5f5b82811015610c9357848901518255600182019150602085019450602081019050610c6e565b86831015610cb05784890151610cac601f891682610bbf565b8355505b6001600288020188555050505b505050505050565b5f610ccf82610523565b9150610cda83610523565b9250828203905081811115610cf257610cf16108f6565b5b9291505056fea2646970667358221220d21cc8b1a04544304e6ed23b127083c34c72834e95052e045c0413d32c76284e64736f6c634300081e0033",
					"opcodes": "PUSH1 0x80 PUSH1 0x40 MSTORE CALLVALUE DUP1 ISZERO PUSH1 0xE JUMPI PUSH0 PUSH0 REVERT JUMPDEST POP CALLER PUSH1 0x3 PUSH0 PUSH2 0x100 EXP DUP2 SLOAD DUP2 PUSH20 0xFFFFFFFFFFFFFFFFFFFFFFFFFFFFFFFFFFFFFFFF MUL NOT AND SWAP1 DUP4 PUSH20 0xFFFFFFFFFFFFFFFFFFFFFFFFFFFFFFFFFFFFFFFF AND MUL OR SWAP1 SSTORE POP PUSH2 0xD2E DUP1 PUSH2 0x5C PUSH0 CODECOPY PUSH0 RETURN INVALID PUSH1 0x80 PUSH1 0x40 MSTORE CALLVALUE DUP1 ISZERO PUSH2 0xF JUMPI PUSH0 PUSH0 REVERT JUMPDEST POP PUSH1 0x4 CALLDATASIZE LT PUSH2 0x4A JUMPI PUSH0 CALLDATALOAD PUSH1 0xE0 SHR DUP1 PUSH4 0x121B93F EQ PUSH2 0x4E JUMPI DUP1 PUSH4 0x13CF08B EQ PUSH2 0x6A JUMPI DUP1 PUSH4 0x49C2A1A6 EQ PUSH2 0x9B JUMPI DUP1 PUSH4 0xF851A440 EQ PUSH2 0xB7 JUMPI JUMPDEST PUSH0 PUSH0 REVERT JUMPDEST PUSH2 0x68 PUSH1 0x4 DUP1 CALLDATASIZE SUB DUP2 ADD SWAP1 PUSH2 0x63 SWAP2 SWAP1 PUSH2 0x556 JUMP JUMPDEST PUSH2 0xD5 JUMP JUMPDEST STOP JUMPDEST PUSH2 0x84 PUSH1 0x4 DUP1 CALLDATASIZE SUB DUP2 ADD SWAP1 PUSH2 0x7F SWAP2 SWAP1 PUSH2 0x556 JUMP JUMPDEST PUSH2 0x2A2 JUMP JUMPDEST PUSH1 0x40 MLOAD PUSH2 0x92 SWAP3 SWAP2 SWAP1 PUSH2 0x600 JUMP JUMPDEST PUSH1 0x40 MLOAD DUP1 SWAP2 SUB SWAP1 RETURN JUMPDEST PUSH2 0xB5 PUSH1 0x4 DUP1 CALLDATASIZE SUB DUP2 ADD SWAP1 PUSH2 0xB0 SWAP2 SWAP1 PUSH2 0x75A JUMP JUMPDEST PUSH2 0x356 JUMP JUMPDEST STOP JUMPDEST PUSH2 0xBF PUSH2 0x3F1 JUMP JUMPDEST PUSH1 0x40 MLOAD PUSH2 0xCC SWAP2 SWAP1 PUSH2 0x7E0 JUMP JUMPDEST PUSH1 0x40 MLOAD DUP1 SWAP2 SUB SWAP1 RETURN JUMPDEST PUSH0 PUSH0 DUP1 SLOAD SWAP1 POP GT PUSH2 0x11B JUMPI PUSH1 0x40 MLOAD PUSH32 0x8C379A000000000000000000000000000000000000000000000000000000000 DUP2 MSTORE PUSH1 0x4 ADD PUSH2 0x112 SWAP1 PUSH2 0x843 JUMP JUMPDEST PUSH1 0x40 MLOAD DUP1 SWAP2 SUB SWAP1 REVERT JUMPDEST PUSH1 0x2 PUSH0 DUP3 DUP2 MSTORE PUSH1 0x20 ADD SWAP1 DUP2 MSTORE PUSH1 0x20 ADD PUSH0 KECCAK256 PUSH0 CALLER PUSH20 0xFFFFFFFFFFFFFFFFFFFFFFFFFFFFFFFFFFFFFFFF AND PUSH20 0xFFFFFFFFFFFFFFFFFFFFFFFFFFFFFFFFFFFFFFFF AND DUP2 MSTORE PUSH1 0x20 ADD SWAP1 DUP2 MSTORE PUSH1 0x20 ADD PUSH0 KECCAK256 PUSH0 SWAP1 SLOAD SWAP1 PUSH2 0x100 EXP SWAP1 DIV PUSH1 0xFF AND ISZERO PUSH2 0x1B4 JUMPI PUSH1 0x40 MLOAD PUSH32 0x8C379A000000000000000000000000000000000000000000000000000000000 DUP2 MSTORE PUSH1 0x4 ADD PUSH2 0x1AB SWAP1 PUSH2 0x8AB JUMP JUMPDEST PUSH1 0x40 MLOAD DUP1 SWAP2 SUB SWAP1 REVERT JUMPDEST PUSH0 DUP2 DUP2 SLOAD DUP2 LT PUSH2 0x1C7 JUMPI PUSH2 0x1C6 PUSH2 0x8C9 JUMP JUMPDEST JUMPDEST SWAP1 PUSH0 MSTORE PUSH1 0x20 PUSH0 KECCAK256 SWAP1 PUSH1 0x2 MUL ADD PUSH1 0x1 ADD PUSH0 DUP2 SLOAD DUP1 SWAP3 SWAP2 SWAP1 PUSH2 0x1E6 SWAP1 PUSH2 0x923 JUMP JUMPDEST SWAP2 SWAP1 POP SSTORE POP PUSH1 0x1 PUSH1 0x2 PUSH0 DUP4 DUP2 MSTORE PUSH1 0x20 ADD SWAP1 DUP2 MSTORE PUSH1 0x20 ADD PUSH0 KECCAK256 PUSH0 CALLER PUSH20 0xFFFFFFFFFFFFFFFFFFFFFFFFFFFFFFFFFFFFFFFF AND PUSH20 0xFFFFFFFFFFFFFFFFFFFFFFFFFFFFFFFFFFFFFFFF AND DUP2 MSTORE PUSH1 0x20 ADD SWAP1 DUP2 MSTORE PUSH1 0x20 ADD PUSH0 KECCAK256 PUSH0 PUSH2 0x100 EXP DUP2 SLOAD DUP2 PUSH1 0xFF MUL NOT AND SWAP1 DUP4 ISZERO ISZERO MUL OR SWAP1 SSTORE POP CALLER PUSH20 0xFFFFFFFFFFFFFFFFFFFFFFFFFFFFFFFFFFFFFFFF AND PUSH32 0xCB87DF07B1C304492BD875A5C8B98672ECA500939412809EA229AFEF1D745188 DUP3 TIMESTAMP PUSH1 0x40 MLOAD PUSH2 0x297 SWAP3 SWAP2 SWAP1 PUSH2 0x96A JUMP JUMPDEST PUSH1 0x40 MLOAD DUP1 SWAP2 SUB SWAP1 LOG2 POP JUMP JUMPDEST PUSH0 DUP2 DUP2 SLOAD DUP2 LT PUSH2 0x2B0 JUMPI PUSH0 DUP1 REVERT JUMPDEST SWAP1 PUSH0 MSTORE PUSH1 0x20 PUSH0 KECCAK256 SWAP1 PUSH1 0x2 MUL ADD PUSH0 SWAP2 POP SWAP1 POP DUP1 PUSH0 ADD DUP1 SLOAD PUSH2 0x2CF SWAP1 PUSH2 0x9BE JUMP JUMPDEST DUP1 PUSH1 0x1F ADD PUSH1 0x20 DUP1 SWAP2 DIV MUL PUSH1 0x20 ADD PUSH1 0x40 MLOAD SWAP1 DUP2 ADD PUSH1 0x40 MSTORE DUP1 SWAP3 SWAP2 SWAP1 DUP2 DUP2 MSTORE PUSH1 0x20 ADD DUP3 DUP1 SLOAD PUSH2 0x2FB SWAP1 PUSH2 0x9BE JUMP JUMPDEST DUP1 ISZERO PUSH2 0x346 JUMPI DUP1 PUSH1 0x1F LT PUSH2 0x31D JUMPI PUSH2 0x100 DUP1 DUP4 SLOAD DIV MUL DUP4 MSTORE SWAP2 PUSH1 0x20 ADD SWAP2 PUSH2 0x346 JUMP JUMPDEST DUP3 ADD SWAP2 SWAP1 PUSH0 MSTORE PUSH1 0x20 PUSH0 KECCAK256 SWAP1 JUMPDEST DUP2 SLOAD DUP2 MSTORE SWAP1 PUSH1 0x1 ADD SWAP1 PUSH1 0x20 ADD DUP1 DUP4 GT PUSH2 0x329 JUMPI DUP3 SWAP1 SUB PUSH1 0x1F AND DUP3 ADD SWAP2 JUMPDEST POP POP POP POP POP SWAP1 DUP1 PUSH1 0x1 ADD SLOAD SWAP1 POP DUP3 JUMP JUMPDEST PUSH1 0x3 PUSH0 SWAP1 SLOAD SWAP1 PUSH2 0x100 EXP SWAP1 DIV PUSH20 0xFFFFFFFFFFFFFFFFFFFFFFFFFFFFFFFFFFFFFFFF AND PUSH20 0xFFFFFFFFFFFFFFFFFFFFFFFFFFFFFFFFFFFFFFFF AND CALLER PUSH20 0xFFFFFFFFFFFFFFFFFFFFFFFFFFFFFFFFFFFFFFFF AND EQ PUSH2 0x3E5 JUMPI PUSH1 0x40 MLOAD PUSH32 0x8C379A000000000000000000000000000000000000000000000000000000000 DUP2 MSTORE PUSH1 0x4 ADD PUSH2 0x3DC SWAP1 PUSH2 0xA38 JUMP JUMPDEST PUSH1 0x40 MLOAD DUP1 SWAP2 SUB SWAP1 REVERT JUMPDEST PUSH2 0x3EE DUP2 PUSH2 0x416 JUMP JUMPDEST POP JUMP JUMPDEST PUSH1 0x3 PUSH0 SWAP1 SLOAD SWAP1 PUSH2 0x100 EXP SWAP1 DIV PUSH20 0xFFFFFFFFFFFFFFFFFFFFFFFFFFFFFFFFFFFFFFFF AND DUP2 JUMP JUMPDEST PUSH0 PUSH1 0x40 MLOAD DUP1 PUSH1 0x40 ADD PUSH1 0x40 MSTORE DUP1 DUP4 DUP2 MSTORE PUSH1 0x20 ADD PUSH0 DUP2 MSTORE POP SWAP1 POP PUSH0 DUP2 SWAP1 DUP1 PUSH1 0x1 DUP2 SLOAD ADD DUP1 DUP3 SSTORE DUP1 SWAP2 POP POP PUSH1 0x1 SWAP1 SUB SWAP1 PUSH0 MSTORE PUSH1 0x20 PUSH0 KECCAK256 SWAP1 PUSH1 0x2 MUL ADD PUSH0 SWAP1 SWAP2 SWAP1 SWAP2 SWAP1 SWAP2 POP PUSH0 DUP3 ADD MLOAD DUP2 PUSH0 ADD SWAP1 DUP2 PUSH2 0x469 SWAP2 SWAP1 PUSH2 0xBF6 JUMP JUMPDEST POP PUSH1 0x20 DUP3 ADD MLOAD DUP2 PUSH1 0x1 ADD SSTORE POP POP PUSH0 PUSH1 0x1 PUSH0 DUP1 SLOAD SWAP1 POP PUSH2 0x488 SWAP2 SWAP1 PUSH2 0xCC5 JUMP JUMPDEST SWAP1 POP DUP2 PUSH1 0x1 PUSH0 DUP4 DUP2 MSTORE PUSH1 0x20 ADD SWAP1 DUP2 MSTORE PUSH1 0x20 ADD PUSH0 KECCAK256 PUSH0 DUP3 ADD MLOAD DUP2 PUSH0 ADD SWAP1 DUP2 PUSH2 0x4AF SWAP2 SWAP1 PUSH2 0xBF6 JUMP JUMPDEST POP PUSH1 0x20 DUP3 ADD MLOAD DUP2 PUSH1 0x1 ADD SSTORE SWAP1 POP POP CALLER PUSH20 0xFFFFFFFFFFFFFFFFFFFFFFFFFFFFFFFFFFFFFFFF AND PUSH32 0x5FA1ACBDCB8142D84E87165149F77E37C91BCF8055862AFE7B9E7C6BAC70404B DUP3 TIMESTAMP PUSH1 0x40 MLOAD PUSH2 0x505 SWAP3 SWAP2 SWAP1 PUSH2 0x96A JUMP JUMPDEST PUSH1 0x40 MLOAD DUP1 SWAP2 SUB SWAP1 LOG2 POP POP POP JUMP JUMPDEST PUSH0 PUSH1 0x40 MLOAD SWAP1 POP SWAP1 JUMP JUMPDEST PUSH0 PUSH0 REVERT JUMPDEST PUSH0 PUSH0 REVERT JUMPDEST PUSH0 DUP2 SWAP1 POP SWAP2 SWAP1 POP JUMP JUMPDEST PUSH2 0x535 DUP2 PUSH2 0x523 JUMP JUMPDEST DUP2 EQ PUSH2 0x53F JUMPI PUSH0 PUSH0 REVERT JUMPDEST POP JUMP JUMPDEST PUSH0 DUP2 CALLDATALOAD SWAP1 POP PUSH2 0x550 DUP2 PUSH2 0x52C JUMP JUMPDEST SWAP3 SWAP2 POP POP JUMP JUMPDEST PUSH0 PUSH1 0x20 DUP3 DUP5 SUB SLT ISZERO PUSH2 0x56B JUMPI PUSH2 0x56A PUSH2 0x51B JUMP JUMPDEST JUMPDEST PUSH0 PUSH2 0x578 DUP5 DUP3 DUP6 ADD PUSH2 0x542 JUMP JUMPDEST SWAP2 POP POP SWAP3 SWAP2 POP POP JUMP JUMPDEST PUSH0 DUP2 MLOAD SWAP1 POP SWAP2 SWAP1 POP JUMP JUMPDEST PUSH0 DUP3 DUP3 MSTORE PUSH1 0x20 DUP3 ADD SWAP1 POP SWAP3 SWAP2 POP POP JUMP JUMPDEST DUP3 DUP2 DUP4 MCOPY PUSH0 DUP4 DUP4 ADD MSTORE POP POP POP JUMP JUMPDEST PUSH0 PUSH1 0x1F NOT PUSH1 0x1F DUP4 ADD AND SWAP1 POP SWAP2 SWAP1 POP JUMP JUMPDEST PUSH0 PUSH2 0x5C3 DUP3 PUSH2 0x581 JUMP JUMPDEST PUSH2 0x5CD DUP2 DUP6 PUSH2 0x58B JUMP JUMPDEST SWAP4 POP PUSH2 0x5DD DUP2 DUP6 PUSH1 0x20 DUP7 ADD PUSH2 0x59B JUMP JUMPDEST PUSH2 0x5E6 DUP2 PUSH2 0x5A9 JUMP JUMPDEST DUP5 ADD SWAP2 POP POP SWAP3 SWAP2 POP POP JUMP JUMPDEST PUSH2 0x5FA DUP2 PUSH2 0x523 JUMP JUMPDEST DUP3 MSTORE POP POP JUMP JUMPDEST PUSH0 PUSH1 0x40 DUP3 ADD SWAP1 POP DUP2 DUP2 SUB PUSH0 DUP4 ADD MSTORE PUSH2 0x618 DUP2 DUP6 PUSH2 0x5B9 JUMP JUMPDEST SWAP1 POP PUSH2 0x627 PUSH1 0x20 DUP4 ADD DUP5 PUSH2 0x5F1 JUMP JUMPDEST SWAP4 SWAP3 POP POP POP JUMP JUMPDEST PUSH0 PUSH0 REVERT JUMPDEST PUSH0 PUSH0 REVERT JUMPDEST PUSH32 0x4E487B7100000000000000000000000000000000000000000000000000000000 PUSH0 MSTORE PUSH1 0x41 PUSH1 0x4 MSTORE PUSH1 0x24 PUSH0 REVERT JUMPDEST PUSH2 0x66C DUP3 PUSH2 0x5A9 JUMP JUMPDEST DUP2 ADD DUP2 DUP2 LT PUSH8 0xFFFFFFFFFFFFFFFF DUP3 GT OR ISZERO PUSH2 0x68B JUMPI PUSH2 0x68A PUSH2 0x636 JUMP JUMPDEST JUMPDEST DUP1 PUSH1 0x40 MSTORE POP POP POP JUMP JUMPDEST PUSH0 PUSH2 0x69D PUSH2 0x512 JUMP JUMPDEST SWAP1 POP PUSH2 0x6A9 DUP3 DUP3 PUSH2 0x663 JUMP JUMPDEST SWAP2 SWAP1 POP JUMP JUMPDEST PUSH0 PUSH8 0xFFFFFFFFFFFFFFFF DUP3 GT ISZERO PUSH2 0x6C8 JUMPI PUSH2 0x6C7 PUSH2 0x636 JUMP JUMPDEST JUMPDEST PUSH2 0x6D1 DUP3 PUSH2 0x5A9 JUMP JUMPDEST SWAP1 POP PUSH1 0x20 DUP2 ADD SWAP1 POP SWAP2 SWAP1 POP JUMP JUMPDEST DUP3 DUP2 DUP4 CALLDATACOPY PUSH0 DUP4 DUP4 ADD MSTORE POP POP POP JUMP JUMPDEST PUSH0 PUSH2 0x6FE PUSH2 0x6F9 DUP5 PUSH2 0x6AE JUMP JUMPDEST PUSH2 0x694 JUMP JUMPDEST SWAP1 POP DUP3 DUP2 MSTORE PUSH1 0x20 DUP2 ADD DUP5 DUP5 DUP5 ADD GT ISZERO PUSH2 0x71A JUMPI PUSH2 0x719 PUSH2 0x632 JUMP JUMPDEST JUMPDEST PUSH2 0x725 DUP5 DUP3 DUP6 PUSH2 0x6DE JUMP JUMPDEST POP SWAP4 SWAP3 POP POP POP JUMP JUMPDEST PUSH0 DUP3 PUSH1 0x1F DUP4 ADD SLT PUSH2 0x741 JUMPI PUSH2 0x740 PUSH2 0x62E JUMP JUMPDEST JUMPDEST DUP2 CALLDATALOAD PUSH2 0x751 DUP5 DUP3 PUSH1 0x20 DUP7 ADD PUSH2 0x6EC JUMP JUMPDEST SWAP2 POP POP SWAP3 SWAP2 POP POP JUMP JUMPDEST PUSH0 PUSH1 0x20 DUP3 DUP5 SUB SLT ISZERO PUSH2 0x76F JUMPI PUSH2 0x76E PUSH2 0x51B JUMP JUMPDEST JUMPDEST PUSH0 DUP3 ADD CALLDATALOAD PUSH8 0xFFFFFFFFFFFFFFFF DUP2 GT ISZERO PUSH2 0x78C JUMPI PUSH2 0x78B PUSH2 0x51F JUMP JUMPDEST JUMPDEST PUSH2 0x798 DUP5 DUP3 DUP6 ADD PUSH2 0x72D JUMP JUMPDEST SWAP2 POP POP SWAP3 SWAP2 POP POP JUMP JUMPDEST PUSH0 PUSH20 0xFFFFFFFFFFFFFFFFFFFFFFFFFFFFFFFFFFFFFFFF DUP3 AND SWAP1 POP SWAP2 SWAP1 POP JUMP JUMPDEST PUSH0 PUSH2 0x7CA DUP3 PUSH2 0x7A1 JUMP JUMPDEST SWAP1 POP SWAP2 SWAP1 POP JUMP JUMPDEST PUSH2 0x7DA DUP2 PUSH2 0x7C0 JUMP JUMPDEST DUP3 MSTORE POP POP JUMP JUMPDEST PUSH0 PUSH1 0x20 DUP3 ADD SWAP1 POP PUSH2 0x7F3 PUSH0 DUP4 ADD DUP5 PUSH2 0x7D1 JUMP JUMPDEST SWAP3 SWAP2 POP POP JUMP JUMPDEST PUSH32 0x4E6F2070726F706F73616C7320617661696C61626C6500000000000000000000 PUSH0 DUP3 ADD MSTORE POP JUMP JUMPDEST PUSH0 PUSH2 0x82D PUSH1 0x16 DUP4 PUSH2 0x58B JUMP JUMPDEST SWAP2 POP PUSH2 0x838 DUP3 PUSH2 0x7F9 JUMP JUMPDEST PUSH1 0x20 DUP3 ADD SWAP1 POP SWAP2 SWAP1 POP JUMP JUMPDEST PUSH0 PUSH1 0x20 DUP3 ADD SWAP1 POP DUP2 DUP2 SUB PUSH0 DUP4 ADD MSTORE PUSH2 0x85A DUP2 PUSH2 0x821 JUMP JUMPDEST SWAP1 POP SWAP2 SWAP1 POP JUMP JUMPDEST PUSH32 0x416C726561647920766F746564206F6E20746869732070726F706F73616C0000 PUSH0 DUP3 ADD MSTORE POP JUMP JUMPDEST PUSH0 PUSH2 0x895 PUSH1 0x1E DUP4 PUSH2 0x58B JUMP JUMPDEST SWAP2 POP PUSH2 0x8A0 DUP3 PUSH2 0x861 JUMP JUMPDEST PUSH1 0x20 DUP3 ADD SWAP1 POP SWAP2 SWAP1 POP JUMP JUMPDEST PUSH0 PUSH1 0x20 DUP3 ADD SWAP1 POP DUP2 DUP2 SUB PUSH0 DUP4 ADD MSTORE PUSH2 0x8C2 DUP2 PUSH2 0x889 JUMP JUMPDEST SWAP1 POP SWAP2 SWAP1 POP JUMP JUMPDEST PUSH32 0x4E487B7100000000000000000000000000000000000000000000000000000000 PUSH0 MSTORE PUSH1 0x32 PUSH1 0x4 MSTORE PUSH1 0x24 PUSH0 REVERT JUMPDEST PUSH32 0x4E487B7100000000000000000000000000000000000000000000000000000000 PUSH0 MSTORE PUSH1 0x11 PUSH1 0x4 MSTORE PUSH1 0x24 PUSH0 REVERT JUMPDEST PUSH0 PUSH2 0x92D DUP3 PUSH2 0x523 JUMP JUMPDEST SWAP2 POP PUSH32 0xFFFFFFFFFFFFFFFFFFFFFFFFFFFFFFFFFFFFFFFFFFFFFFFFFFFFFFFFFFFFFFFF DUP3 SUB PUSH2 0x95F JUMPI PUSH2 0x95E PUSH2 0x8F6 JUMP JUMPDEST JUMPDEST PUSH1 0x1 DUP3 ADD SWAP1 POP SWAP2 SWAP1 POP JUMP JUMPDEST PUSH0 PUSH1 0x40 DUP3 ADD SWAP1 POP PUSH2 0x97D PUSH0 DUP4 ADD DUP6 PUSH2 0x5F1 JUMP JUMPDEST PUSH2 0x98A PUSH1 0x20 DUP4 ADD DUP5 PUSH2 0x5F1 JUMP JUMPDEST SWAP4 SWAP3 POP POP POP JUMP JUMPDEST PUSH32 0x4E487B7100000000000000000000000000000000000000000000000000000000 PUSH0 MSTORE PUSH1 0x22 PUSH1 0x4 MSTORE PUSH1 0x24 PUSH0 REVERT JUMPDEST PUSH0 PUSH1 0x2 DUP3 DIV SWAP1 POP PUSH1 0x1 DUP3 AND DUP1 PUSH2 0x9D5 JUMPI PUSH1 0x7F DUP3 AND SWAP2 POP JUMPDEST PUSH1 0x20 DUP3 LT DUP2 SUB PUSH2 0x9E8 JUMPI PUSH2 0x9E7 PUSH2 0x991 JUMP JUMPDEST JUMPDEST POP SWAP2 SWAP1 POP JUMP JUMPDEST PUSH32 0x4E6F742041646D696E0000000000000000000000000000000000000000000000 PUSH0 DUP3 ADD MSTORE POP JUMP JUMPDEST PUSH0 PUSH2 0xA22 PUSH1 0x9 DUP4 PUSH2 0x58B JUMP JUMPDEST SWAP2 POP PUSH2 0xA2D DUP3 PUSH2 0x9EE JUMP JUMPDEST PUSH1 0x20 DUP3 ADD SWAP1 POP SWAP2 SWAP1 POP JUMP JUMPDEST PUSH0 PUSH1 0x20 DUP3 ADD SWAP1 POP DUP2 DUP2 SUB PUSH0 DUP4 ADD MSTORE PUSH2 0xA4F DUP2 PUSH2 0xA16 JUMP JUMPDEST SWAP1 POP SWAP2 SWAP1 POP JUMP JUMPDEST PUSH0 DUP2 SWAP1 POP DUP2 PUSH0 MSTORE PUSH1 0x20 PUSH0 KECCAK256 SWAP1 POP SWAP2 SWAP1 POP JUMP JUMPDEST PUSH0 PUSH1 0x20 PUSH1 0x1F DUP4 ADD DIV SWAP1 POP SWAP2 SWAP1 POP JUMP JUMPDEST PUSH0 DUP3 DUP3 SHL SWAP1 POP SWAP3 SWAP2 POP POP JUMP JUMPDEST PUSH0 PUSH1 0x8 DUP4 MUL PUSH2 0xAB2 PUSH32 0xFFFFFFFFFFFFFFFFFFFFFFFFFFFFFFFFFFFFFFFFFFFFFFFFFFFFFFFFFFFFFFFF DUP3 PUSH2 0xA77 JUMP JUMPDEST PUSH2 0xABC DUP7 DUP4 PUSH2 0xA77 JUMP JUMPDEST SWAP6 POP DUP1 NOT DUP5 AND SWAP4 POP DUP1 DUP7 AND DUP5 OR SWAP3 POP POP POP SWAP4 SWAP3 POP POP POP JUMP JUMPDEST PUSH0 DUP2 SWAP1 POP SWAP2 SWAP1 POP JUMP JUMPDEST PUSH0 PUSH2 0xAF7 PUSH2 0xAF2 PUSH2 0xAED DUP5 PUSH2 0x523 JUMP JUMPDEST PUSH2 0xAD4 JUMP JUMPDEST PUSH2 0x523 JUMP JUMPDEST SWAP1 POP SWAP2 SWAP1 POP JUMP JUMPDEST PUSH0 DUP2 SWAP1 POP SWAP2 SWAP1 POP JUMP JUMPDEST PUSH2 0xB10 DUP4 PUSH2 0xADD JUMP JUMPDEST PUSH2 0xB24 PUSH2 0xB1C DUP3 PUSH2 0xAFE JUMP JUMPDEST DUP5 DUP5 SLOAD PUSH2 0xA83 JUMP JUMPDEST DUP3 SSTORE POP POP POP POP JUMP JUMPDEST PUSH0 PUSH0 SWAP1 POP SWAP1 JUMP JUMPDEST PUSH2 0xB3B PUSH2 0xB2C JUMP JUMPDEST PUSH2 0xB46 DUP2 DUP5 DUP5 PUSH2 0xB07 JUMP JUMPDEST POP POP POP JUMP JUMPDEST JUMPDEST DUP2 DUP2 LT ISZERO PUSH2 0xB69 JUMPI PUSH2 0xB5E PUSH0 DUP3 PUSH2 0xB33 JUMP JUMPDEST PUSH1 0x1 DUP2 ADD SWAP1 POP PUSH2 0xB4C JUMP JUMPDEST POP POP JUMP JUMPDEST PUSH1 0x1F DUP3 GT ISZERO PUSH2 0xBAE JUMPI PUSH2 0xB7F DUP2 PUSH2 0xA56 JUMP JUMPDEST PUSH2 0xB88 DUP5 PUSH2 0xA68 JUMP JUMPDEST DUP2 ADD PUSH1 0x20 DUP6 LT ISZERO PUSH2 0xB97 JUMPI DUP2 SWAP1 POP JUMPDEST PUSH2 0xBAB PUSH2 0xBA3 DUP6 PUSH2 0xA68 JUMP JUMPDEST DUP4 ADD DUP3 PUSH2 0xB4B JUMP JUMPDEST POP POP JUMPDEST POP POP POP JUMP JUMPDEST PUSH0 DUP3 DUP3 SHR SWAP1 POP SWAP3 SWAP2 POP POP JUMP JUMPDEST PUSH0 PUSH2 0xBCE PUSH0 NOT DUP5 PUSH1 0x8 MUL PUSH2 0xBB3 JUMP JUMPDEST NOT DUP1 DUP4 AND SWAP2 POP POP SWAP3 SWAP2 POP POP JUMP JUMPDEST PUSH0 PUSH2 0xBE6 DUP4 DUP4 PUSH2 0xBBF JUMP JUMPDEST SWAP2 POP DUP3 PUSH1 0x2 MUL DUP3 OR SWAP1 POP SWAP3 SWAP2 POP POP JUMP JUMPDEST PUSH2 0xBFF DUP3 PUSH2 0x581 JUMP JUMPDEST PUSH8 0xFFFFFFFFFFFFFFFF DUP2 GT ISZERO PUSH2 0xC18 JUMPI PUSH2 0xC17 PUSH2 0x636 JUMP JUMPDEST JUMPDEST PUSH2 0xC22 DUP3 SLOAD PUSH2 0x9BE JUMP JUMPDEST PUSH2 0xC2D DUP3 DUP3 DUP6 PUSH2 0xB6D JUMP JUMPDEST PUSH0 PUSH1 0x20 SWAP1 POP PUSH1 0x1F DUP4 GT PUSH1 0x1 DUP2 EQ PUSH2 0xC5E JUMPI PUSH0 DUP5 ISZERO PUSH2 0xC4C JUMPI DUP3 DUP8 ADD MLOAD SWAP1 POP JUMPDEST PUSH2 0xC56 DUP6 DUP3 PUSH2 0xBDB JUMP JUMPDEST DUP7 SSTORE POP PUSH2 0xCBD JUMP JUMPDEST PUSH1 0x1F NOT DUP5 AND PUSH2 0xC6C DUP7 PUSH2 0xA56 JUMP JUMPDEST PUSH0 JUMPDEST DUP3 DUP2 LT ISZERO PUSH2 0xC93 JUMPI DUP5 DUP10 ADD MLOAD DUP3 SSTORE PUSH1 0x1 DUP3 ADD SWAP2 POP PUSH1 0x20 DUP6 ADD SWAP5 POP PUSH1 0x20 DUP2 ADD SWAP1 POP PUSH2 0xC6E JUMP JUMPDEST DUP7 DUP4 LT ISZERO PUSH2 0xCB0 JUMPI DUP5 DUP10 ADD MLOAD PUSH2 0xCAC PUSH1 0x1F DUP10 AND DUP3 PUSH2 0xBBF JUMP JUMPDEST DUP4 SSTORE POP JUMPDEST PUSH1 0x1 PUSH1 0x2 DUP9 MUL ADD DUP9 SSTORE POP POP POP JUMPDEST POP POP POP POP POP POP JUMP JUMPDEST PUSH0 PUSH2 0xCCF DUP3 PUSH2 0x523 JUMP JUMPDEST SWAP2 POP PUSH2 0xCDA DUP4 PUSH2 0x523 JUMP JUMPDEST SWAP3 POP DUP3 DUP3 SUB SWAP1 POP DUP2 DUP2 GT ISZERO PUSH2 0xCF2 JUMPI PUSH2 0xCF1 PUSH2 0x8F6 JUMP JUMPDEST JUMPDEST SWAP3 SWAP2 POP POP JUMP INVALID LOG2 PUSH5 0x6970667358 0x22 SLT KECCAK256 0xD2 SHR 0xC8 0xB1 LOG0 GASLIMIT PREVRANDAO ADDRESS 0x4E PUSH15 0xD23B127083C34C72834E95052E045C DIV SGT 0xD3 0x2C PUSH23 0x284E64736F6C634300081E003300000000000000000000 "
				},
				"gasEstimates": {
					"creation": {
						"codeDepositCost": "674800",
						"executionCost": "24971",
						"totalCost": "699771"
					},
					"external": {
						"admin()": "2552",
						"createProposal(string)": "infinite",
						"proposals(uint256)": "infinite",
						"vote(uint256)": "infinite"
					}
				},
				"methodIdentifiers": {
					"admin()": "f851a440",
					"createProposal(string)": "49c2a1a6",
					"proposals(uint256)": "013cf08b",
					"vote(uint256)": "0121b93f"
				}
			},
			"storageLayout": {
				"storage": [
					{
						"astId": 10,
						"contract": "contracts/PHASE INHERITANCE/Access-Controlled Voting.sol:AdminVoting",
						"label": "proposals",
						"offset": 0,
						"slot": "0",
						"type": "t_array(t_struct(Proposal)6_storage)dyn_storage"
					},
					{
						"astId": 15,
						"contract": "contracts/PHASE INHERITANCE/Access-Controlled Voting.sol:AdminVoting",
						"label": "id",
						"offset": 0,
						"slot": "1",
						"type": "t_mapping(t_uint256,t_struct(Proposal)6_storage)"
					},
					{
						"astId": 21,
						"contract": "contracts/PHASE INHERITANCE/Access-Controlled Voting.sol:AdminVoting",
						"label": "hasVoted",
						"offset": 0,
						"slot": "2",
						"type": "t_mapping(t_uint256,t_mapping(t_address,t_bool))"
					},
					{
						"astId": 131,
						"contract": "contracts/PHASE INHERITANCE/Access-Controlled Voting.sol:AdminVoting",
						"label": "admin",
						"offset": 0,
						"slot": "3",
						"type": "t_address"
					}
				],
				"types": {
					"t_address": {
						"encoding": "inplace",
						"label": "address",
						"numberOfBytes": "20"
					},
					"t_array(t_struct(Proposal)6_storage)dyn_storage": {
						"base": "t_struct(Proposal)6_storage",
						"encoding": "dynamic_array",
						"label": "struct BaseVoting.Proposal[]",
						"numberOfBytes": "32"
					},
					"t_bool": {
						"encoding": "inplace",
						"label": "bool",
						"numberOfBytes": "1"
					},
					"t_mapping(t_address,t_bool)": {
						"encoding": "mapping",
						"key": "t_address",
						"label": "mapping(address => bool)",
						"numberOfBytes": "32",
						"value": "t_bool"
					},
					"t_mapping(t_uint256,t_mapping(t_address,t_bool))": {
						"encoding": "mapping",
						"key": "t_uint256",
						"label": "mapping(uint256 => mapping(address => bool))",
						"numberOfBytes": "32",
						"value": "t_mapping(t_address,t_bool)"
					},
					"t_mapping(t_uint256,t_struct(Proposal)6_storage)": {
						"encoding": "mapping",
						"key": "t_uint256",
						"label": "mapping(uint256 => struct BaseVoting.Proposal)",
						"numberOfBytes": "32",
						"value": "t_struct(Proposal)6_storage"
					},
					"t_string_storage": {
						"encoding": "bytes",
						"label": "string",
						"numberOfBytes": "32"
					},
					"t_struct(Proposal)6_storage": {
						"encoding": "inplace",
						"label": "struct BaseVoting.Proposal",
						"members": [
							{
								"astId": 3,
								"contract": "contracts/PHASE INHERITANCE/Access-Controlled Voting.sol:AdminVoting",
								"label": "name",
								"offset": 0,
								"slot": "0",
								"type": "t_string_storage"
							},
							{
								"astId": 5,
								"contract": "contracts/PHASE INHERITANCE/Access-Controlled Voting.sol:AdminVoting",
								"label": "voteCount",
								"offset": 0,
								"slot": "1",
								"type": "t_uint256"
							}
						],
						"numberOfBytes": "64"
					},
					"t_uint256": {
						"encoding": "inplace",
						"label": "uint256",
						"numberOfBytes": "32"
					}
				}
			},
			"userdoc": {
				"kind": "user",
				"methods": {},
				"version": 1
			}
		}
	}
}