{
	"contracts/PHASE INHERITANCE/Access-Controlled Voting.sol": {
		"BaseVoting": {
			"abi": [
				{
					"anonymous": false,
					"inputs": [
						{
							"indexed": true,
							"internalType": "address",
							"name": "creator",
							"type": "address"
						},
						{
							"indexed": false,
							"internalType": "uint256",
							"name": "id",
							"type": "uint256"
						},
						{
							"indexed": false,
							"internalType": "uint256",
							"name": "timestamp",
							"type": "uint256"
						}
					],
					"name": "ProposalCreated",
					"type": "event"
				},
				{
					"anonymous": false,
					"inputs": [
						{
							"indexed": true,
							"internalType": "address",
							"name": "voter",
							"type": "address"
						},
						{
							"indexed": false,
							"internalType": "uint256",
							"name": "id",
							"type": "uint256"
						},
						{
							"indexed": false,
							"internalType": "uint256",
							"name": "timestamp",
							"type": "uint256"
						}
					],
					"name": "VoteCasted",
					"type": "event"
				},
				{
					"inputs": [
						{
							"internalType": "string",
							"name": "_name",
							"type": "string"
						}
					],
					"name": "createProposal",
					"outputs": [],
					"stateMutability": "nonpayable",
					"type": "function"
				},
				{
					"inputs": [
						{
							"internalType": "uint256",
							"name": "",
							"type": "uint256"
						}
					],
					"name": "proposals",
					"outputs": [
						{
							"internalType": "string",
							"name": "name",
							"type": "string"
						},
						{
							"internalType": "uint256",
							"name": "voteCount",
							"type": "uint256"
						}
					],
					"stateMutability": "view",
					"type": "function"
				},
				{
					"inputs": [
						{
							"internalType": "uint256",
							"name": "_id",
							"type": "uint256"
						}
					],
					"name": "vote",
					"outputs": [],
					"stateMutability": "nonpayable",
					"type": "function"
				}
			],
			"devdoc": {
				"kind": "dev",
				"methods": {},
				"version": 1
			},
			"evm": {
				"assembly": "    /* \"contracts/PHASE INHERITANCE/Access-Controlled Voting.sol\":56:1067  contract BaseVoting{... */\n  mstore(0x40, 0x80)\n  callvalue\n  dup1\n  iszero\n  tag_1\n  jumpi\n  revert(0x00, 0x00)\ntag_1:\n  pop\n  dataSize(sub_0)\n  dup1\n  dataOffset(sub_0)\n  0x00\n  codecopy\n  0x00\n  return\nstop\n\nsub_0: assembly {\n        /* \"contracts/PHASE INHERITANCE/Access-Controlled Voting.sol\":56:1067  contract BaseVoting{... */\n      mstore(0x40, 0x80)\n      callvalue\n      dup1\n      iszero\n      tag_1\n      jumpi\n      revert(0x00, 0x00)\n    tag_1:\n      pop\n      jumpi(tag_2, lt(calldatasize, 0x04))\n      shr(0xe0, calldataload(0x00))\n      dup1\n      0x0121b93f\n      eq\n      tag_3\n      jumpi\n      dup1\n      0x013cf08b\n      eq\n      tag_4\n      jumpi\n      dup1\n      0x49c2a1a6\n      eq\n      tag_5\n      jumpi\n    tag_2:\n      revert(0x00, 0x00)\n        /* \"contracts/PHASE INHERITANCE/Access-Controlled Voting.sol\":738:1065  function vote(uint _id) public virtual{... */\n    tag_3:\n      tag_6\n      0x04\n      dup1\n      calldatasize\n      sub\n      dup2\n      add\n      swap1\n      tag_7\n      swap2\n      swap1\n      tag_8\n      jump\t// in\n    tag_7:\n      tag_9\n      jump\t// in\n    tag_6:\n      stop\n        /* \"contracts/PHASE INHERITANCE/Access-Controlled Voting.sol\":154:181  Proposal[] public proposals */\n    tag_4:\n      tag_10\n      0x04\n      dup1\n      calldatasize\n      sub\n      dup2\n      add\n      swap1\n      tag_11\n      swap2\n      swap1\n      tag_8\n      jump\t// in\n    tag_11:\n      tag_12\n      jump\t// in\n    tag_10:\n      mload(0x40)\n      tag_13\n      swap3\n      swap2\n      swap1\n      tag_14\n      jump\t// in\n    tag_13:\n      mload(0x40)\n      dup1\n      swap2\n      sub\n      swap1\n      return\n        /* \"contracts/PHASE INHERITANCE/Access-Controlled Voting.sol\":438:733  function createProposal(string memory _name) public virtual {... */\n    tag_5:\n      tag_15\n      0x04\n      dup1\n      calldatasize\n      sub\n      dup2\n      add\n      swap1\n      tag_16\n      swap2\n      swap1\n      tag_17\n      jump\t// in\n    tag_16:\n      tag_18\n      jump\t// in\n    tag_15:\n      stop\n        /* \"contracts/PHASE INHERITANCE/Access-Controlled Voting.sol\":738:1065  function vote(uint _id) public virtual{... */\n    tag_9:\n        /* \"contracts/PHASE INHERITANCE/Access-Controlled Voting.sol\":813:814  0 */\n      0x00\n        /* \"contracts/PHASE INHERITANCE/Access-Controlled Voting.sol\":794:803  proposals */\n      0x00\n        /* \"contracts/PHASE INHERITANCE/Access-Controlled Voting.sol\":794:810  proposals.length */\n      dup1\n      sload\n      swap1\n      pop\n        /* \"contracts/PHASE INHERITANCE/Access-Controlled Voting.sol\":794:814  proposals.length > 0 */\n      gt\n        /* \"contracts/PHASE INHERITANCE/Access-Controlled Voting.sol\":786:841  require(proposals.length > 0, \"No proposals available\") */\n      tag_20\n      jumpi\n      mload(0x40)\n      0x08c379a000000000000000000000000000000000000000000000000000000000\n      dup2\n      mstore\n      0x04\n      add\n      tag_21\n      swap1\n      tag_22\n      jump\t// in\n    tag_21:\n      mload(0x40)\n      dup1\n      swap2\n      sub\n      swap1\n      revert\n    tag_20:\n        /* \"contracts/PHASE INHERITANCE/Access-Controlled Voting.sol\":860:868  hasVoted */\n      0x02\n        /* \"contracts/PHASE INHERITANCE/Access-Controlled Voting.sol\":860:873  hasVoted[_id] */\n      0x00\n        /* \"contracts/PHASE INHERITANCE/Access-Controlled Voting.sol\":869:872  _id */\n      dup3\n        /* \"contracts/PHASE INHERITANCE/Access-Controlled Voting.sol\":860:873  hasVoted[_id] */\n      dup2\n      mstore\n      0x20\n      add\n      swap1\n      dup2\n      mstore\n      0x20\n      add\n      0x00\n      keccak256\n        /* \"contracts/PHASE INHERITANCE/Access-Controlled Voting.sol\":860:885  hasVoted[_id][msg.sender] */\n      0x00\n        /* \"contracts/PHASE INHERITANCE/Access-Controlled Voting.sol\":874:884  msg.sender */\n      caller\n        /* \"contracts/PHASE INHERITANCE/Access-Controlled Voting.sol\":860:885  hasVoted[_id][msg.sender] */\n      0xffffffffffffffffffffffffffffffffffffffff\n      and\n      0xffffffffffffffffffffffffffffffffffffffff\n      and\n      dup2\n      mstore\n      0x20\n      add\n      swap1\n      dup2\n      mstore\n      0x20\n      add\n      0x00\n      keccak256\n      0x00\n      swap1\n      sload\n      swap1\n      0x0100\n      exp\n      swap1\n      div\n      0xff\n      and\n        /* \"contracts/PHASE INHERITANCE/Access-Controlled Voting.sol\":859:885  !hasVoted[_id][msg.sender] */\n      iszero\n        /* \"contracts/PHASE INHERITANCE/Access-Controlled Voting.sol\":851:920  require(!hasVoted[_id][msg.sender], \"Already voted on this proposal\") */\n      tag_23\n      jumpi\n      mload(0x40)\n      0x08c379a000000000000000000000000000000000000000000000000000000000\n      dup2\n      mstore\n      0x04\n      add\n      tag_24\n      swap1\n      tag_25\n      jump\t// in\n    tag_24:\n      mload(0x40)\n      dup1\n      swap2\n      sub\n      swap1\n      revert\n    tag_23:\n        /* \"contracts/PHASE INHERITANCE/Access-Controlled Voting.sol\":930:939  proposals */\n      0x00\n        /* \"contracts/PHASE INHERITANCE/Access-Controlled Voting.sol\":940:943  _id */\n      dup2\n        /* \"contracts/PHASE INHERITANCE/Access-Controlled Voting.sol\":930:944  proposals[_id] */\n      dup2\n      sload\n      dup2\n      lt\n      tag_26\n      jumpi\n      tag_27\n      tag_28\n      jump\t// in\n    tag_27:\n    tag_26:\n      swap1\n      0x00\n      mstore\n      keccak256(0x00, 0x20)\n      swap1\n      0x02\n      mul\n      add\n        /* \"contracts/PHASE INHERITANCE/Access-Controlled Voting.sol\":930:954  proposals[_id].voteCount */\n      0x01\n      add\n      0x00\n        /* \"contracts/PHASE INHERITANCE/Access-Controlled Voting.sol\":930:957  proposals[_id].voteCount ++ */\n      dup2\n      sload\n      dup1\n      swap3\n      swap2\n      swap1\n      tag_30\n      swap1\n      tag_31\n      jump\t// in\n    tag_30:\n      swap2\n      swap1\n      pop\n      sstore\n      pop\n        /* \"contracts/PHASE INHERITANCE/Access-Controlled Voting.sol\":995:999  true */\n      0x01\n        /* \"contracts/PHASE INHERITANCE/Access-Controlled Voting.sol\":967:975  hasVoted */\n      0x02\n        /* \"contracts/PHASE INHERITANCE/Access-Controlled Voting.sol\":967:980  hasVoted[_id] */\n      0x00\n        /* \"contracts/PHASE INHERITANCE/Access-Controlled Voting.sol\":976:979  _id */\n      dup4\n        /* \"contracts/PHASE INHERITANCE/Access-Controlled Voting.sol\":967:980  hasVoted[_id] */\n      dup2\n      mstore\n      0x20\n      add\n      swap1\n      dup2\n      mstore\n      0x20\n      add\n      0x00\n      keccak256\n        /* \"contracts/PHASE INHERITANCE/Access-Controlled Voting.sol\":967:992  hasVoted[_id][msg.sender] */\n      0x00\n        /* \"contracts/PHASE INHERITANCE/Access-Controlled Voting.sol\":981:991  msg.sender */\n      caller\n        /* \"contracts/PHASE INHERITANCE/Access-Controlled Voting.sol\":967:992  hasVoted[_id][msg.sender] */\n      0xffffffffffffffffffffffffffffffffffffffff\n      and\n      0xffffffffffffffffffffffffffffffffffffffff\n      and\n      dup2\n      mstore\n      0x20\n      add\n      swap1\n      dup2\n      mstore\n      0x20\n      add\n      0x00\n      keccak256\n      0x00\n        /* \"contracts/PHASE INHERITANCE/Access-Controlled Voting.sol\":967:999  hasVoted[_id][msg.sender] = true */\n      0x0100\n      exp\n      dup2\n      sload\n      dup2\n      0xff\n      mul\n      not\n      and\n      swap1\n      dup4\n      iszero\n      iszero\n      mul\n      or\n      swap1\n      sstore\n      pop\n        /* \"contracts/PHASE INHERITANCE/Access-Controlled Voting.sol\":1025:1035  msg.sender */\n      caller\n        /* \"contracts/PHASE INHERITANCE/Access-Controlled Voting.sol\":1014:1058  VoteCasted(msg.sender, _id, block.timestamp) */\n      0xffffffffffffffffffffffffffffffffffffffff\n      and\n      0xcb87df07b1c304492bd875a5c8b98672eca500939412809ea229afef1d745188\n        /* \"contracts/PHASE INHERITANCE/Access-Controlled Voting.sol\":1037:1040  _id */\n      dup3\n        /* \"contracts/PHASE INHERITANCE/Access-Controlled Voting.sol\":1042:1057  block.timestamp */\n      timestamp\n        /* \"contracts/PHASE INHERITANCE/Access-Controlled Voting.sol\":1014:1058  VoteCasted(msg.sender, _id, block.timestamp) */\n      mload(0x40)\n      tag_32\n      swap3\n      swap2\n      swap1\n      tag_33\n      jump\t// in\n    tag_32:\n      mload(0x40)\n      dup1\n      swap2\n      sub\n      swap1\n      log2\n        /* \"contracts/PHASE INHERITANCE/Access-Controlled Voting.sol\":738:1065  function vote(uint _id) public virtual{... */\n      pop\n      jump\t// out\n        /* \"contracts/PHASE INHERITANCE/Access-Controlled Voting.sol\":154:181  Proposal[] public proposals */\n    tag_12:\n      0x00\n      dup2\n      dup2\n      sload\n      dup2\n      lt\n      tag_34\n      jumpi\n      0x00\n      dup1\n      revert\n    tag_34:\n      swap1\n      0x00\n      mstore\n      keccak256(0x00, 0x20)\n      swap1\n      0x02\n      mul\n      add\n      0x00\n      swap2\n      pop\n      swap1\n      pop\n      dup1\n      0x00\n      add\n      dup1\n      sload\n      tag_36\n      swap1\n      tag_37\n      jump\t// in\n    tag_36:\n      dup1\n      0x1f\n      add\n      0x20\n      dup1\n      swap2\n      div\n      mul\n      0x20\n      add\n      mload(0x40)\n      swap1\n      dup2\n      add\n      0x40\n      mstore\n      dup1\n      swap3\n      swap2\n      swap1\n      dup2\n      dup2\n      mstore\n      0x20\n      add\n      dup3\n      dup1\n      sload\n      tag_38\n      swap1\n      tag_37\n      jump\t// in\n    tag_38:\n      dup1\n      iszero\n      tag_39\n      jumpi\n      dup1\n      0x1f\n      lt\n      tag_40\n      jumpi\n      0x0100\n      dup1\n      dup4\n      sload\n      div\n      mul\n      dup4\n      mstore\n      swap2\n      0x20\n      add\n      swap2\n      jump(tag_39)\n    tag_40:\n      dup3\n      add\n      swap2\n      swap1\n      0x00\n      mstore\n      keccak256(0x00, 0x20)\n      swap1\n    tag_41:\n      dup2\n      sload\n      dup2\n      mstore\n      swap1\n      0x01\n      add\n      swap1\n      0x20\n      add\n      dup1\n      dup4\n      gt\n      tag_41\n      jumpi\n      dup3\n      swap1\n      sub\n      0x1f\n      and\n      dup3\n      add\n      swap2\n    tag_39:\n      pop\n      pop\n      pop\n      pop\n      pop\n      swap1\n      dup1\n      0x01\n      add\n      sload\n      swap1\n      pop\n      dup3\n      jump\t// out\n        /* \"contracts/PHASE INHERITANCE/Access-Controlled Voting.sol\":438:733  function createProposal(string memory _name) public virtual {... */\n    tag_18:\n        /* \"contracts/PHASE INHERITANCE/Access-Controlled Voting.sol\":508:532  Proposal memory proposal */\n      0x00\n        /* \"contracts/PHASE INHERITANCE/Access-Controlled Voting.sol\":535:553  Proposal(_name, 0) */\n      mload(0x40)\n      dup1\n      0x40\n      add\n      0x40\n      mstore\n      dup1\n        /* \"contracts/PHASE INHERITANCE/Access-Controlled Voting.sol\":544:549  _name */\n      dup4\n        /* \"contracts/PHASE INHERITANCE/Access-Controlled Voting.sol\":535:553  Proposal(_name, 0) */\n      dup2\n      mstore\n      0x20\n      add\n        /* \"contracts/PHASE INHERITANCE/Access-Controlled Voting.sol\":551:552  0 */\n      0x00\n        /* \"contracts/PHASE INHERITANCE/Access-Controlled Voting.sol\":535:553  Proposal(_name, 0) */\n      dup2\n      mstore\n      pop\n        /* \"contracts/PHASE INHERITANCE/Access-Controlled Voting.sol\":508:553  Proposal memory proposal = Proposal(_name, 0) */\n      swap1\n      pop\n        /* \"contracts/PHASE INHERITANCE/Access-Controlled Voting.sol\":563:572  proposals */\n      0x00\n        /* \"contracts/PHASE INHERITANCE/Access-Controlled Voting.sol\":578:586  proposal */\n      dup2\n        /* \"contracts/PHASE INHERITANCE/Access-Controlled Voting.sol\":563:587  proposals.push(proposal) */\n      swap1\n      dup1\n      0x01\n      dup2\n      sload\n      add\n      dup1\n      dup3\n      sstore\n      dup1\n      swap2\n      pop\n      pop\n      0x01\n      swap1\n      sub\n      swap1\n      0x00\n      mstore\n      keccak256(0x00, 0x20)\n      swap1\n      0x02\n      mul\n      add\n      0x00\n      swap1\n      swap2\n      swap1\n      swap2\n      swap1\n      swap2\n      pop\n      0x00\n      dup3\n      add\n      mload\n      dup2\n      0x00\n      add\n      swap1\n      dup2\n      tag_44\n      swap2\n      swap1\n      tag_45\n      jump\t// in\n    tag_44:\n      pop\n      0x20\n      dup3\n      add\n      mload\n      dup2\n      0x01\n      add\n      sstore\n      pop\n      pop\n        /* \"contracts/PHASE INHERITANCE/Access-Controlled Voting.sol\":597:607  uint index */\n      0x00\n        /* \"contracts/PHASE INHERITANCE/Access-Controlled Voting.sol\":629:630  1 */\n      0x01\n        /* \"contracts/PHASE INHERITANCE/Access-Controlled Voting.sol\":610:619  proposals */\n      0x00\n        /* \"contracts/PHASE INHERITANCE/Access-Controlled Voting.sol\":610:626  proposals.length */\n      dup1\n      sload\n      swap1\n      pop\n        /* \"contracts/PHASE INHERITANCE/Access-Controlled Voting.sol\":610:630  proposals.length - 1 */\n      tag_46\n      swap2\n      swap1\n      tag_47\n      jump\t// in\n    tag_46:\n        /* \"contracts/PHASE INHERITANCE/Access-Controlled Voting.sol\":597:630  uint index = proposals.length - 1 */\n      swap1\n      pop\n        /* \"contracts/PHASE INHERITANCE/Access-Controlled Voting.sol\":652:660  proposal */\n      dup2\n        /* \"contracts/PHASE INHERITANCE/Access-Controlled Voting.sol\":640:642  id */\n      0x01\n        /* \"contracts/PHASE INHERITANCE/Access-Controlled Voting.sol\":640:649  id[index] */\n      0x00\n        /* \"contracts/PHASE INHERITANCE/Access-Controlled Voting.sol\":643:648  index */\n      dup4\n        /* \"contracts/PHASE INHERITANCE/Access-Controlled Voting.sol\":640:649  id[index] */\n      dup2\n      mstore\n      0x20\n      add\n      swap1\n      dup2\n      mstore\n      0x20\n      add\n      0x00\n      keccak256\n        /* \"contracts/PHASE INHERITANCE/Access-Controlled Voting.sol\":640:660  id[index] = proposal */\n      0x00\n      dup3\n      add\n      mload\n      dup2\n      0x00\n      add\n      swap1\n      dup2\n      tag_48\n      swap2\n      swap1\n      tag_45\n      jump\t// in\n    tag_48:\n      pop\n      0x20\n      dup3\n      add\n      mload\n      dup2\n      0x01\n      add\n      sstore\n      swap1\n      pop\n      pop\n        /* \"contracts/PHASE INHERITANCE/Access-Controlled Voting.sol\":691:701  msg.sender */\n      caller\n        /* \"contracts/PHASE INHERITANCE/Access-Controlled Voting.sol\":675:726  ProposalCreated(msg.sender, index, block.timestamp) */\n      0xffffffffffffffffffffffffffffffffffffffff\n      and\n      0x5fa1acbdcb8142d84e87165149f77e37c91bcf8055862afe7b9e7c6bac70404b\n        /* \"contracts/PHASE INHERITANCE/Access-Controlled Voting.sol\":703:708  index */\n      dup3\n        /* \"contracts/PHASE INHERITANCE/Access-Controlled Voting.sol\":710:725  block.timestamp */\n      timestamp\n        /* \"contracts/PHASE INHERITANCE/Access-Controlled Voting.sol\":675:726  ProposalCreated(msg.sender, index, block.timestamp) */\n      mload(0x40)\n      tag_49\n      swap3\n      swap2\n      swap1\n      tag_33\n      jump\t// in\n    tag_49:\n      mload(0x40)\n      dup1\n      swap2\n      sub\n      swap1\n      log2\n        /* \"contracts/PHASE INHERITANCE/Access-Controlled Voting.sol\":498:733  {... */\n      pop\n      pop\n        /* \"contracts/PHASE INHERITANCE/Access-Controlled Voting.sol\":438:733  function createProposal(string memory _name) public virtual {... */\n      pop\n      jump\t// out\n        /* \"#utility.yul\":7:82   */\n    tag_50:\n        /* \"#utility.yul\":40:46   */\n      0x00\n        /* \"#utility.yul\":73:75   */\n      0x40\n        /* \"#utility.yul\":67:76   */\n      mload\n        /* \"#utility.yul\":57:76   */\n      swap1\n      pop\n        /* \"#utility.yul\":7:82   */\n      swap1\n      jump\t// out\n        /* \"#utility.yul\":88:205   */\n    tag_51:\n        /* \"#utility.yul\":197:198   */\n      0x00\n        /* \"#utility.yul\":194:195   */\n      0x00\n        /* \"#utility.yul\":187:199   */\n      revert\n        /* \"#utility.yul\":211:328   */\n    tag_52:\n        /* \"#utility.yul\":320:321   */\n      0x00\n        /* \"#utility.yul\":317:318   */\n      0x00\n        /* \"#utility.yul\":310:322   */\n      revert\n        /* \"#utility.yul\":334:411   */\n    tag_53:\n        /* \"#utility.yul\":371:378   */\n      0x00\n        /* \"#utility.yul\":400:405   */\n      dup2\n        /* \"#utility.yul\":389:405   */\n      swap1\n      pop\n        /* \"#utility.yul\":334:411   */\n      swap2\n      swap1\n      pop\n      jump\t// out\n        /* \"#utility.yul\":417:539   */\n    tag_54:\n        /* \"#utility.yul\":490:514   */\n      tag_98\n        /* \"#utility.yul\":508:513   */\n      dup2\n        /* \"#utility.yul\":490:514   */\n      tag_53\n      jump\t// in\n    tag_98:\n        /* \"#utility.yul\":483:488   */\n      dup2\n        /* \"#utility.yul\":480:515   */\n      eq\n        /* \"#utility.yul\":470:533   */\n      tag_99\n      jumpi\n        /* \"#utility.yul\":529:530   */\n      0x00\n        /* \"#utility.yul\":526:527   */\n      0x00\n        /* \"#utility.yul\":519:531   */\n      revert\n        /* \"#utility.yul\":470:533   */\n    tag_99:\n        /* \"#utility.yul\":417:539   */\n      pop\n      jump\t// out\n        /* \"#utility.yul\":545:684   */\n    tag_55:\n        /* \"#utility.yul\":591:596   */\n      0x00\n        /* \"#utility.yul\":629:635   */\n      dup2\n        /* \"#utility.yul\":616:636   */\n      calldataload\n        /* \"#utility.yul\":607:636   */\n      swap1\n      pop\n        /* \"#utility.yul\":645:678   */\n      tag_101\n        /* \"#utility.yul\":672:677   */\n      dup2\n        /* \"#utility.yul\":645:678   */\n      tag_54\n      jump\t// in\n    tag_101:\n        /* \"#utility.yul\":545:684   */\n      swap3\n      swap2\n      pop\n      pop\n      jump\t// out\n        /* \"#utility.yul\":690:1019   */\n    tag_8:\n        /* \"#utility.yul\":749:755   */\n      0x00\n        /* \"#utility.yul\":798:800   */\n      0x20\n        /* \"#utility.yul\":786:795   */\n      dup3\n        /* \"#utility.yul\":777:784   */\n      dup5\n        /* \"#utility.yul\":773:796   */\n      sub\n        /* \"#utility.yul\":769:801   */\n      slt\n        /* \"#utility.yul\":766:885   */\n      iszero\n      tag_103\n      jumpi\n        /* \"#utility.yul\":804:883   */\n      tag_104\n      tag_51\n      jump\t// in\n    tag_104:\n        /* \"#utility.yul\":766:885   */\n    tag_103:\n        /* \"#utility.yul\":924:925   */\n      0x00\n        /* \"#utility.yul\":949:1002   */\n      tag_105\n        /* \"#utility.yul\":994:1001   */\n      dup5\n        /* \"#utility.yul\":985:991   */\n      dup3\n        /* \"#utility.yul\":974:983   */\n      dup6\n        /* \"#utility.yul\":970:992   */\n      add\n        /* \"#utility.yul\":949:1002   */\n      tag_55\n      jump\t// in\n    tag_105:\n        /* \"#utility.yul\":939:1002   */\n      swap2\n      pop\n        /* \"#utility.yul\":895:1012   */\n      pop\n        /* \"#utility.yul\":690:1019   */\n      swap3\n      swap2\n      pop\n      pop\n      jump\t// out\n        /* \"#utility.yul\":1025:1124   */\n    tag_56:\n        /* \"#utility.yul\":1077:1083   */\n      0x00\n        /* \"#utility.yul\":1111:1116   */\n      dup2\n        /* \"#utility.yul\":1105:1117   */\n      mload\n        /* \"#utility.yul\":1095:1117   */\n      swap1\n      pop\n        /* \"#utility.yul\":1025:1124   */\n      swap2\n      swap1\n      pop\n      jump\t// out\n        /* \"#utility.yul\":1130:1299   */\n    tag_57:\n        /* \"#utility.yul\":1214:1225   */\n      0x00\n        /* \"#utility.yul\":1248:1254   */\n      dup3\n        /* \"#utility.yul\":1243:1246   */\n      dup3\n        /* \"#utility.yul\":1236:1255   */\n      mstore\n        /* \"#utility.yul\":1288:1292   */\n      0x20\n        /* \"#utility.yul\":1283:1286   */\n      dup3\n        /* \"#utility.yul\":1279:1293   */\n      add\n        /* \"#utility.yul\":1264:1293   */\n      swap1\n      pop\n        /* \"#utility.yul\":1130:1299   */\n      swap3\n      swap2\n      pop\n      pop\n      jump\t// out\n        /* \"#utility.yul\":1305:1444   */\n    tag_58:\n        /* \"#utility.yul\":1394:1400   */\n      dup3\n        /* \"#utility.yul\":1389:1392   */\n      dup2\n        /* \"#utility.yul\":1384:1387   */\n      dup4\n        /* \"#utility.yul\":1378:1401   */\n      mcopy\n        /* \"#utility.yul\":1435:1436   */\n      0x00\n        /* \"#utility.yul\":1426:1432   */\n      dup4\n        /* \"#utility.yul\":1421:1424   */\n      dup4\n        /* \"#utility.yul\":1417:1433   */\n      add\n        /* \"#utility.yul\":1410:1437   */\n      mstore\n        /* \"#utility.yul\":1305:1444   */\n      pop\n      pop\n      pop\n      jump\t// out\n        /* \"#utility.yul\":1450:1552   */\n    tag_59:\n        /* \"#utility.yul\":1491:1497   */\n      0x00\n        /* \"#utility.yul\":1542:1544   */\n      0x1f\n        /* \"#utility.yul\":1538:1545   */\n      not\n        /* \"#utility.yul\":1533:1535   */\n      0x1f\n        /* \"#utility.yul\":1526:1531   */\n      dup4\n        /* \"#utility.yul\":1522:1536   */\n      add\n        /* \"#utility.yul\":1518:1546   */\n      and\n        /* \"#utility.yul\":1508:1546   */\n      swap1\n      pop\n        /* \"#utility.yul\":1450:1552   */\n      swap2\n      swap1\n      pop\n      jump\t// out\n        /* \"#utility.yul\":1558:1935   */\n    tag_60:\n        /* \"#utility.yul\":1646:1649   */\n      0x00\n        /* \"#utility.yul\":1674:1713   */\n      tag_111\n        /* \"#utility.yul\":1707:1712   */\n      dup3\n        /* \"#utility.yul\":1674:1713   */\n      tag_56\n      jump\t// in\n    tag_111:\n        /* \"#utility.yul\":1729:1800   */\n      tag_112\n        /* \"#utility.yul\":1793:1799   */\n      dup2\n        /* \"#utility.yul\":1788:1791   */\n      dup6\n        /* \"#utility.yul\":1729:1800   */\n      tag_57\n      jump\t// in\n    tag_112:\n        /* \"#utility.yul\":1722:1800   */\n      swap4\n      pop\n        /* \"#utility.yul\":1809:1874   */\n      tag_113\n        /* \"#utility.yul\":1867:1873   */\n      dup2\n        /* \"#utility.yul\":1862:1865   */\n      dup6\n        /* \"#utility.yul\":1855:1859   */\n      0x20\n        /* \"#utility.yul\":1848:1853   */\n      dup7\n        /* \"#utility.yul\":1844:1860   */\n      add\n        /* \"#utility.yul\":1809:1874   */\n      tag_58\n      jump\t// in\n    tag_113:\n        /* \"#utility.yul\":1899:1928   */\n      tag_114\n        /* \"#utility.yul\":1921:1927   */\n      dup2\n        /* \"#utility.yul\":1899:1928   */\n      tag_59\n      jump\t// in\n    tag_114:\n        /* \"#utility.yul\":1894:1897   */\n      dup5\n        /* \"#utility.yul\":1890:1929   */\n      add\n        /* \"#utility.yul\":1883:1929   */\n      swap2\n      pop\n        /* \"#utility.yul\":1650:1935   */\n      pop\n        /* \"#utility.yul\":1558:1935   */\n      swap3\n      swap2\n      pop\n      pop\n      jump\t// out\n        /* \"#utility.yul\":1941:2059   */\n    tag_61:\n        /* \"#utility.yul\":2028:2052   */\n      tag_116\n        /* \"#utility.yul\":2046:2051   */\n      dup2\n        /* \"#utility.yul\":2028:2052   */\n      tag_53\n      jump\t// in\n    tag_116:\n        /* \"#utility.yul\":2023:2026   */\n      dup3\n        /* \"#utility.yul\":2016:2053   */\n      mstore\n        /* \"#utility.yul\":1941:2059   */\n      pop\n      pop\n      jump\t// out\n        /* \"#utility.yul\":2065:2488   */\n    tag_14:\n        /* \"#utility.yul\":2206:2210   */\n      0x00\n        /* \"#utility.yul\":2244:2246   */\n      0x40\n        /* \"#utility.yul\":2233:2242   */\n      dup3\n        /* \"#utility.yul\":2229:2247   */\n      add\n        /* \"#utility.yul\":2221:2247   */\n      swap1\n      pop\n        /* \"#utility.yul\":2293:2302   */\n      dup2\n        /* \"#utility.yul\":2287:2291   */\n      dup2\n        /* \"#utility.yul\":2283:2303   */\n      sub\n        /* \"#utility.yul\":2279:2280   */\n      0x00\n        /* \"#utility.yul\":2268:2277   */\n      dup4\n        /* \"#utility.yul\":2264:2281   */\n      add\n        /* \"#utility.yul\":2257:2304   */\n      mstore\n        /* \"#utility.yul\":2321:2399   */\n      tag_118\n        /* \"#utility.yul\":2394:2398   */\n      dup2\n        /* \"#utility.yul\":2385:2391   */\n      dup6\n        /* \"#utility.yul\":2321:2399   */\n      tag_60\n      jump\t// in\n    tag_118:\n        /* \"#utility.yul\":2313:2399   */\n      swap1\n      pop\n        /* \"#utility.yul\":2409:2481   */\n      tag_119\n        /* \"#utility.yul\":2477:2479   */\n      0x20\n        /* \"#utility.yul\":2466:2475   */\n      dup4\n        /* \"#utility.yul\":2462:2480   */\n      add\n        /* \"#utility.yul\":2453:2459   */\n      dup5\n        /* \"#utility.yul\":2409:2481   */\n      tag_61\n      jump\t// in\n    tag_119:\n        /* \"#utility.yul\":2065:2488   */\n      swap4\n      swap3\n      pop\n      pop\n      pop\n      jump\t// out\n        /* \"#utility.yul\":2494:2611   */\n    tag_62:\n        /* \"#utility.yul\":2603:2604   */\n      0x00\n        /* \"#utility.yul\":2600:2601   */\n      0x00\n        /* \"#utility.yul\":2593:2605   */\n      revert\n        /* \"#utility.yul\":2617:2734   */\n    tag_63:\n        /* \"#utility.yul\":2726:2727   */\n      0x00\n        /* \"#utility.yul\":2723:2724   */\n      0x00\n        /* \"#utility.yul\":2716:2728   */\n      revert\n        /* \"#utility.yul\":2740:2920   */\n    tag_64:\n        /* \"#utility.yul\":2788:2865   */\n      0x4e487b7100000000000000000000000000000000000000000000000000000000\n        /* \"#utility.yul\":2785:2786   */\n      0x00\n        /* \"#utility.yul\":2778:2866   */\n      mstore\n        /* \"#utility.yul\":2885:2889   */\n      0x41\n        /* \"#utility.yul\":2882:2883   */\n      0x04\n        /* \"#utility.yul\":2875:2890   */\n      mstore\n        /* \"#utility.yul\":2909:2913   */\n      0x24\n        /* \"#utility.yul\":2906:2907   */\n      0x00\n        /* \"#utility.yul\":2899:2914   */\n      revert\n        /* \"#utility.yul\":2926:3207   */\n    tag_65:\n        /* \"#utility.yul\":3009:3036   */\n      tag_124\n        /* \"#utility.yul\":3031:3035   */\n      dup3\n        /* \"#utility.yul\":3009:3036   */\n      tag_59\n      jump\t// in\n    tag_124:\n        /* \"#utility.yul\":3001:3007   */\n      dup2\n        /* \"#utility.yul\":2997:3037   */\n      add\n        /* \"#utility.yul\":3139:3145   */\n      dup2\n        /* \"#utility.yul\":3127:3137   */\n      dup2\n        /* \"#utility.yul\":3124:3146   */\n      lt\n        /* \"#utility.yul\":3103:3121   */\n      0xffffffffffffffff\n        /* \"#utility.yul\":3091:3101   */\n      dup3\n        /* \"#utility.yul\":3088:3122   */\n      gt\n        /* \"#utility.yul\":3085:3147   */\n      or\n        /* \"#utility.yul\":3082:3170   */\n      iszero\n      tag_125\n      jumpi\n        /* \"#utility.yul\":3150:3168   */\n      tag_126\n      tag_64\n      jump\t// in\n    tag_126:\n        /* \"#utility.yul\":3082:3170   */\n    tag_125:\n        /* \"#utility.yul\":3190:3200   */\n      dup1\n        /* \"#utility.yul\":3186:3188   */\n      0x40\n        /* \"#utility.yul\":3179:3201   */\n      mstore\n        /* \"#utility.yul\":2969:3207   */\n      pop\n        /* \"#utility.yul\":2926:3207   */\n      pop\n      pop\n      jump\t// out\n        /* \"#utility.yul\":3213:3342   */\n    tag_66:\n        /* \"#utility.yul\":3247:3253   */\n      0x00\n        /* \"#utility.yul\":3274:3294   */\n      tag_128\n      tag_50\n      jump\t// in\n    tag_128:\n        /* \"#utility.yul\":3264:3294   */\n      swap1\n      pop\n        /* \"#utility.yul\":3303:3336   */\n      tag_129\n        /* \"#utility.yul\":3331:3335   */\n      dup3\n        /* \"#utility.yul\":3323:3329   */\n      dup3\n        /* \"#utility.yul\":3303:3336   */\n      tag_65\n      jump\t// in\n    tag_129:\n        /* \"#utility.yul\":3213:3342   */\n      swap2\n      swap1\n      pop\n      jump\t// out\n        /* \"#utility.yul\":3348:3656   */\n    tag_67:\n        /* \"#utility.yul\":3410:3414   */\n      0x00\n        /* \"#utility.yul\":3500:3518   */\n      0xffffffffffffffff\n        /* \"#utility.yul\":3492:3498   */\n      dup3\n        /* \"#utility.yul\":3489:3519   */\n      gt\n        /* \"#utility.yul\":3486:3542   */\n      iszero\n      tag_131\n      jumpi\n        /* \"#utility.yul\":3522:3540   */\n      tag_132\n      tag_64\n      jump\t// in\n    tag_132:\n        /* \"#utility.yul\":3486:3542   */\n    tag_131:\n        /* \"#utility.yul\":3560:3589   */\n      tag_133\n        /* \"#utility.yul\":3582:3588   */\n      dup3\n        /* \"#utility.yul\":3560:3589   */\n      tag_59\n      jump\t// in\n    tag_133:\n        /* \"#utility.yul\":3552:3589   */\n      swap1\n      pop\n        /* \"#utility.yul\":3644:3648   */\n      0x20\n        /* \"#utility.yul\":3638:3642   */\n      dup2\n        /* \"#utility.yul\":3634:3649   */\n      add\n        /* \"#utility.yul\":3626:3649   */\n      swap1\n      pop\n        /* \"#utility.yul\":3348:3656   */\n      swap2\n      swap1\n      pop\n      jump\t// out\n        /* \"#utility.yul\":3662:3810   */\n    tag_68:\n        /* \"#utility.yul\":3760:3766   */\n      dup3\n        /* \"#utility.yul\":3755:3758   */\n      dup2\n        /* \"#utility.yul\":3750:3753   */\n      dup4\n        /* \"#utility.yul\":3737:3767   */\n      calldatacopy\n        /* \"#utility.yul\":3801:3802   */\n      0x00\n        /* \"#utility.yul\":3792:3798   */\n      dup4\n        /* \"#utility.yul\":3787:3790   */\n      dup4\n        /* \"#utility.yul\":3783:3799   */\n      add\n        /* \"#utility.yul\":3776:3803   */\n      mstore\n        /* \"#utility.yul\":3662:3810   */\n      pop\n      pop\n      pop\n      jump\t// out\n        /* \"#utility.yul\":3816:4241   */\n    tag_69:\n        /* \"#utility.yul\":3894:3899   */\n      0x00\n        /* \"#utility.yul\":3919:3985   */\n      tag_136\n        /* \"#utility.yul\":3935:3984   */\n      tag_137\n        /* \"#utility.yul\":3977:3983   */\n      dup5\n        /* \"#utility.yul\":3935:3984   */\n      tag_67\n      jump\t// in\n    tag_137:\n        /* \"#utility.yul\":3919:3985   */\n      tag_66\n      jump\t// in\n    tag_136:\n        /* \"#utility.yul\":3910:3985   */\n      swap1\n      pop\n        /* \"#utility.yul\":4008:4014   */\n      dup3\n        /* \"#utility.yul\":4001:4006   */\n      dup2\n        /* \"#utility.yul\":3994:4015   */\n      mstore\n        /* \"#utility.yul\":4046:4050   */\n      0x20\n        /* \"#utility.yul\":4039:4044   */\n      dup2\n        /* \"#utility.yul\":4035:4051   */\n      add\n        /* \"#utility.yul\":4084:4087   */\n      dup5\n        /* \"#utility.yul\":4075:4081   */\n      dup5\n        /* \"#utility.yul\":4070:4073   */\n      dup5\n        /* \"#utility.yul\":4066:4082   */\n      add\n        /* \"#utility.yul\":4063:4088   */\n      gt\n        /* \"#utility.yul\":4060:4172   */\n      iszero\n      tag_138\n      jumpi\n        /* \"#utility.yul\":4091:4170   */\n      tag_139\n      tag_63\n      jump\t// in\n    tag_139:\n        /* \"#utility.yul\":4060:4172   */\n    tag_138:\n        /* \"#utility.yul\":4181:4235   */\n      tag_140\n        /* \"#utility.yul\":4228:4234   */\n      dup5\n        /* \"#utility.yul\":4223:4226   */\n      dup3\n        /* \"#utility.yul\":4218:4221   */\n      dup6\n        /* \"#utility.yul\":4181:4235   */\n      tag_68\n      jump\t// in\n    tag_140:\n        /* \"#utility.yul\":3900:4241   */\n      pop\n        /* \"#utility.yul\":3816:4241   */\n      swap4\n      swap3\n      pop\n      pop\n      pop\n      jump\t// out\n        /* \"#utility.yul\":4261:4601   */\n    tag_70:\n        /* \"#utility.yul\":4317:4322   */\n      0x00\n        /* \"#utility.yul\":4366:4369   */\n      dup3\n        /* \"#utility.yul\":4359:4363   */\n      0x1f\n        /* \"#utility.yul\":4351:4357   */\n      dup4\n        /* \"#utility.yul\":4347:4364   */\n      add\n        /* \"#utility.yul\":4343:4370   */\n      slt\n        /* \"#utility.yul\":4333:4455   */\n      tag_142\n      jumpi\n        /* \"#utility.yul\":4374:4453   */\n      tag_143\n      tag_62\n      jump\t// in\n    tag_143:\n        /* \"#utility.yul\":4333:4455   */\n    tag_142:\n        /* \"#utility.yul\":4491:4497   */\n      dup2\n        /* \"#utility.yul\":4478:4498   */\n      calldataload\n        /* \"#utility.yul\":4516:4595   */\n      tag_144\n        /* \"#utility.yul\":4591:4594   */\n      dup5\n        /* \"#utility.yul\":4583:4589   */\n      dup3\n        /* \"#utility.yul\":4576:4580   */\n      0x20\n        /* \"#utility.yul\":4568:4574   */\n      dup7\n        /* \"#utility.yul\":4564:4581   */\n      add\n        /* \"#utility.yul\":4516:4595   */\n      tag_69\n      jump\t// in\n    tag_144:\n        /* \"#utility.yul\":4507:4595   */\n      swap2\n      pop\n        /* \"#utility.yul\":4323:4601   */\n      pop\n        /* \"#utility.yul\":4261:4601   */\n      swap3\n      swap2\n      pop\n      pop\n      jump\t// out\n        /* \"#utility.yul\":4607:5116   */\n    tag_17:\n        /* \"#utility.yul\":4676:4682   */\n      0x00\n        /* \"#utility.yul\":4725:4727   */\n      0x20\n        /* \"#utility.yul\":4713:4722   */\n      dup3\n        /* \"#utility.yul\":4704:4711   */\n      dup5\n        /* \"#utility.yul\":4700:4723   */\n      sub\n        /* \"#utility.yul\":4696:4728   */\n      slt\n        /* \"#utility.yul\":4693:4812   */\n      iszero\n      tag_146\n      jumpi\n        /* \"#utility.yul\":4731:4810   */\n      tag_147\n      tag_51\n      jump\t// in\n    tag_147:\n        /* \"#utility.yul\":4693:4812   */\n    tag_146:\n        /* \"#utility.yul\":4879:4880   */\n      0x00\n        /* \"#utility.yul\":4868:4877   */\n      dup3\n        /* \"#utility.yul\":4864:4881   */\n      add\n        /* \"#utility.yul\":4851:4882   */\n      calldataload\n        /* \"#utility.yul\":4909:4927   */\n      0xffffffffffffffff\n        /* \"#utility.yul\":4901:4907   */\n      dup2\n        /* \"#utility.yul\":4898:4928   */\n      gt\n        /* \"#utility.yul\":4895:5012   */\n      iszero\n      tag_148\n      jumpi\n        /* \"#utility.yul\":4931:5010   */\n      tag_149\n      tag_52\n      jump\t// in\n    tag_149:\n        /* \"#utility.yul\":4895:5012   */\n    tag_148:\n        /* \"#utility.yul\":5036:5099   */\n      tag_150\n        /* \"#utility.yul\":5091:5098   */\n      dup5\n        /* \"#utility.yul\":5082:5088   */\n      dup3\n        /* \"#utility.yul\":5071:5080   */\n      dup6\n        /* \"#utility.yul\":5067:5089   */\n      add\n        /* \"#utility.yul\":5036:5099   */\n      tag_70\n      jump\t// in\n    tag_150:\n        /* \"#utility.yul\":5026:5099   */\n      swap2\n      pop\n        /* \"#utility.yul\":4822:5109   */\n      pop\n        /* \"#utility.yul\":4607:5116   */\n      swap3\n      swap2\n      pop\n      pop\n      jump\t// out\n        /* \"#utility.yul\":5122:5294   */\n    tag_71:\n        /* \"#utility.yul\":5262:5286   */\n      0x4e6f2070726f706f73616c7320617661696c61626c6500000000000000000000\n        /* \"#utility.yul\":5258:5259   */\n      0x00\n        /* \"#utility.yul\":5250:5256   */\n      dup3\n        /* \"#utility.yul\":5246:5260   */\n      add\n        /* \"#utility.yul\":5239:5287   */\n      mstore\n        /* \"#utility.yul\":5122:5294   */\n      pop\n      jump\t// out\n        /* \"#utility.yul\":5300:5666   */\n    tag_72:\n        /* \"#utility.yul\":5442:5445   */\n      0x00\n        /* \"#utility.yul\":5463:5530   */\n      tag_153\n        /* \"#utility.yul\":5527:5529   */\n      0x16\n        /* \"#utility.yul\":5522:5525   */\n      dup4\n        /* \"#utility.yul\":5463:5530   */\n      tag_57\n      jump\t// in\n    tag_153:\n        /* \"#utility.yul\":5456:5530   */\n      swap2\n      pop\n        /* \"#utility.yul\":5539:5632   */\n      tag_154\n        /* \"#utility.yul\":5628:5631   */\n      dup3\n        /* \"#utility.yul\":5539:5632   */\n      tag_71\n      jump\t// in\n    tag_154:\n        /* \"#utility.yul\":5657:5659   */\n      0x20\n        /* \"#utility.yul\":5652:5655   */\n      dup3\n        /* \"#utility.yul\":5648:5660   */\n      add\n        /* \"#utility.yul\":5641:5660   */\n      swap1\n      pop\n        /* \"#utility.yul\":5300:5666   */\n      swap2\n      swap1\n      pop\n      jump\t// out\n        /* \"#utility.yul\":5672:6091   */\n    tag_22:\n        /* \"#utility.yul\":5838:5842   */\n      0x00\n        /* \"#utility.yul\":5876:5878   */\n      0x20\n        /* \"#utility.yul\":5865:5874   */\n      dup3\n        /* \"#utility.yul\":5861:5879   */\n      add\n        /* \"#utility.yul\":5853:5879   */\n      swap1\n      pop\n        /* \"#utility.yul\":5925:5934   */\n      dup2\n        /* \"#utility.yul\":5919:5923   */\n      dup2\n        /* \"#utility.yul\":5915:5935   */\n      sub\n        /* \"#utility.yul\":5911:5912   */\n      0x00\n        /* \"#utility.yul\":5900:5909   */\n      dup4\n        /* \"#utility.yul\":5896:5913   */\n      add\n        /* \"#utility.yul\":5889:5936   */\n      mstore\n        /* \"#utility.yul\":5953:6084   */\n      tag_156\n        /* \"#utility.yul\":6079:6083   */\n      dup2\n        /* \"#utility.yul\":5953:6084   */\n      tag_72\n      jump\t// in\n    tag_156:\n        /* \"#utility.yul\":5945:6084   */\n      swap1\n      pop\n        /* \"#utility.yul\":5672:6091   */\n      swap2\n      swap1\n      pop\n      jump\t// out\n        /* \"#utility.yul\":6097:6277   */\n    tag_73:\n        /* \"#utility.yul\":6237:6269   */\n      0x416c726561647920766f746564206f6e20746869732070726f706f73616c0000\n        /* \"#utility.yul\":6233:6234   */\n      0x00\n        /* \"#utility.yul\":6225:6231   */\n      dup3\n        /* \"#utility.yul\":6221:6235   */\n      add\n        /* \"#utility.yul\":6214:6270   */\n      mstore\n        /* \"#utility.yul\":6097:6277   */\n      pop\n      jump\t// out\n        /* \"#utility.yul\":6283:6649   */\n    tag_74:\n        /* \"#utility.yul\":6425:6428   */\n      0x00\n        /* \"#utility.yul\":6446:6513   */\n      tag_159\n        /* \"#utility.yul\":6510:6512   */\n      0x1e\n        /* \"#utility.yul\":6505:6508   */\n      dup4\n        /* \"#utility.yul\":6446:6513   */\n      tag_57\n      jump\t// in\n    tag_159:\n        /* \"#utility.yul\":6439:6513   */\n      swap2\n      pop\n        /* \"#utility.yul\":6522:6615   */\n      tag_160\n        /* \"#utility.yul\":6611:6614   */\n      dup3\n        /* \"#utility.yul\":6522:6615   */\n      tag_73\n      jump\t// in\n    tag_160:\n        /* \"#utility.yul\":6640:6642   */\n      0x20\n        /* \"#utility.yul\":6635:6638   */\n      dup3\n        /* \"#utility.yul\":6631:6643   */\n      add\n        /* \"#utility.yul\":6624:6643   */\n      swap1\n      pop\n        /* \"#utility.yul\":6283:6649   */\n      swap2\n      swap1\n      pop\n      jump\t// out\n        /* \"#utility.yul\":6655:7074   */\n    tag_25:\n        /* \"#utility.yul\":6821:6825   */\n      0x00\n        /* \"#utility.yul\":6859:6861   */\n      0x20\n        /* \"#utility.yul\":6848:6857   */\n      dup3\n        /* \"#utility.yul\":6844:6862   */\n      add\n        /* \"#utility.yul\":6836:6862   */\n      swap1\n      pop\n        /* \"#utility.yul\":6908:6917   */\n      dup2\n        /* \"#utility.yul\":6902:6906   */\n      dup2\n        /* \"#utility.yul\":6898:6918   */\n      sub\n        /* \"#utility.yul\":6894:6895   */\n      0x00\n        /* \"#utility.yul\":6883:6892   */\n      dup4\n        /* \"#utility.yul\":6879:6896   */\n      add\n        /* \"#utility.yul\":6872:6919   */\n      mstore\n        /* \"#utility.yul\":6936:7067   */\n      tag_162\n        /* \"#utility.yul\":7062:7066   */\n      dup2\n        /* \"#utility.yul\":6936:7067   */\n      tag_74\n      jump\t// in\n    tag_162:\n        /* \"#utility.yul\":6928:7067   */\n      swap1\n      pop\n        /* \"#utility.yul\":6655:7074   */\n      swap2\n      swap1\n      pop\n      jump\t// out\n        /* \"#utility.yul\":7080:7260   */\n    tag_28:\n        /* \"#utility.yul\":7128:7205   */\n      0x4e487b7100000000000000000000000000000000000000000000000000000000\n        /* \"#utility.yul\":7125:7126   */\n      0x00\n        /* \"#utility.yul\":7118:7206   */\n      mstore\n        /* \"#utility.yul\":7225:7229   */\n      0x32\n        /* \"#utility.yul\":7222:7223   */\n      0x04\n        /* \"#utility.yul\":7215:7230   */\n      mstore\n        /* \"#utility.yul\":7249:7253   */\n      0x24\n        /* \"#utility.yul\":7246:7247   */\n      0x00\n        /* \"#utility.yul\":7239:7254   */\n      revert\n        /* \"#utility.yul\":7266:7446   */\n    tag_75:\n        /* \"#utility.yul\":7314:7391   */\n      0x4e487b7100000000000000000000000000000000000000000000000000000000\n        /* \"#utility.yul\":7311:7312   */\n      0x00\n        /* \"#utility.yul\":7304:7392   */\n      mstore\n        /* \"#utility.yul\":7411:7415   */\n      0x11\n        /* \"#utility.yul\":7408:7409   */\n      0x04\n        /* \"#utility.yul\":7401:7416   */\n      mstore\n        /* \"#utility.yul\":7435:7439   */\n      0x24\n        /* \"#utility.yul\":7432:7433   */\n      0x00\n        /* \"#utility.yul\":7425:7440   */\n      revert\n        /* \"#utility.yul\":7452:7685   */\n    tag_31:\n        /* \"#utility.yul\":7491:7494   */\n      0x00\n        /* \"#utility.yul\":7514:7538   */\n      tag_166\n        /* \"#utility.yul\":7532:7537   */\n      dup3\n        /* \"#utility.yul\":7514:7538   */\n      tag_53\n      jump\t// in\n    tag_166:\n        /* \"#utility.yul\":7505:7538   */\n      swap2\n      pop\n        /* \"#utility.yul\":7560:7626   */\n      0xffffffffffffffffffffffffffffffffffffffffffffffffffffffffffffffff\n        /* \"#utility.yul\":7553:7558   */\n      dup3\n        /* \"#utility.yul\":7550:7627   */\n      sub\n        /* \"#utility.yul\":7547:7650   */\n      tag_167\n      jumpi\n        /* \"#utility.yul\":7630:7648   */\n      tag_168\n      tag_75\n      jump\t// in\n    tag_168:\n        /* \"#utility.yul\":7547:7650   */\n    tag_167:\n        /* \"#utility.yul\":7677:7678   */\n      0x01\n        /* \"#utility.yul\":7670:7675   */\n      dup3\n        /* \"#utility.yul\":7666:7679   */\n      add\n        /* \"#utility.yul\":7659:7679   */\n      swap1\n      pop\n        /* \"#utility.yul\":7452:7685   */\n      swap2\n      swap1\n      pop\n      jump\t// out\n        /* \"#utility.yul\":7691:8023   */\n    tag_33:\n        /* \"#utility.yul\":7812:7816   */\n      0x00\n        /* \"#utility.yul\":7850:7852   */\n      0x40\n        /* \"#utility.yul\":7839:7848   */\n      dup3\n        /* \"#utility.yul\":7835:7853   */\n      add\n        /* \"#utility.yul\":7827:7853   */\n      swap1\n      pop\n        /* \"#utility.yul\":7863:7934   */\n      tag_170\n        /* \"#utility.yul\":7931:7932   */\n      0x00\n        /* \"#utility.yul\":7920:7929   */\n      dup4\n        /* \"#utility.yul\":7916:7933   */\n      add\n        /* \"#utility.yul\":7907:7913   */\n      dup6\n        /* \"#utility.yul\":7863:7934   */\n      tag_61\n      jump\t// in\n    tag_170:\n        /* \"#utility.yul\":7944:8016   */\n      tag_171\n        /* \"#utility.yul\":8012:8014   */\n      0x20\n        /* \"#utility.yul\":8001:8010   */\n      dup4\n        /* \"#utility.yul\":7997:8015   */\n      add\n        /* \"#utility.yul\":7988:7994   */\n      dup5\n        /* \"#utility.yul\":7944:8016   */\n      tag_61\n      jump\t// in\n    tag_171:\n        /* \"#utility.yul\":7691:8023   */\n      swap4\n      swap3\n      pop\n      pop\n      pop\n      jump\t// out\n        /* \"#utility.yul\":8029:8209   */\n    tag_76:\n        /* \"#utility.yul\":8077:8154   */\n      0x4e487b7100000000000000000000000000000000000000000000000000000000\n        /* \"#utility.yul\":8074:8075   */\n      0x00\n        /* \"#utility.yul\":8067:8155   */\n      mstore\n        /* \"#utility.yul\":8174:8178   */\n      0x22\n        /* \"#utility.yul\":8171:8172   */\n      0x04\n        /* \"#utility.yul\":8164:8179   */\n      mstore\n        /* \"#utility.yul\":8198:8202   */\n      0x24\n        /* \"#utility.yul\":8195:8196   */\n      0x00\n        /* \"#utility.yul\":8188:8203   */\n      revert\n        /* \"#utility.yul\":8215:8535   */\n    tag_37:\n        /* \"#utility.yul\":8259:8265   */\n      0x00\n        /* \"#utility.yul\":8296:8297   */\n      0x02\n        /* \"#utility.yul\":8290:8294   */\n      dup3\n        /* \"#utility.yul\":8286:8298   */\n      div\n        /* \"#utility.yul\":8276:8298   */\n      swap1\n      pop\n        /* \"#utility.yul\":8343:8344   */\n      0x01\n        /* \"#utility.yul\":8337:8341   */\n      dup3\n        /* \"#utility.yul\":8333:8345   */\n      and\n        /* \"#utility.yul\":8364:8382   */\n      dup1\n        /* \"#utility.yul\":8354:8435   */\n      tag_174\n      jumpi\n        /* \"#utility.yul\":8420:8424   */\n      0x7f\n        /* \"#utility.yul\":8412:8418   */\n      dup3\n        /* \"#utility.yul\":8408:8425   */\n      and\n        /* \"#utility.yul\":8398:8425   */\n      swap2\n      pop\n        /* \"#utility.yul\":8354:8435   */\n    tag_174:\n        /* \"#utility.yul\":8482:8484   */\n      0x20\n        /* \"#utility.yul\":8474:8480   */\n      dup3\n        /* \"#utility.yul\":8471:8485   */\n      lt\n        /* \"#utility.yul\":8451:8469   */\n      dup2\n        /* \"#utility.yul\":8448:8486   */\n      sub\n        /* \"#utility.yul\":8445:8529   */\n      tag_175\n      jumpi\n        /* \"#utility.yul\":8501:8519   */\n      tag_176\n      tag_76\n      jump\t// in\n    tag_176:\n        /* \"#utility.yul\":8445:8529   */\n    tag_175:\n        /* \"#utility.yul\":8266:8535   */\n      pop\n        /* \"#utility.yul\":8215:8535   */\n      swap2\n      swap1\n      pop\n      jump\t// out\n        /* \"#utility.yul\":8541:8682   */\n    tag_77:\n        /* \"#utility.yul\":8590:8594   */\n      0x00\n        /* \"#utility.yul\":8613:8616   */\n      dup2\n        /* \"#utility.yul\":8605:8616   */\n      swap1\n      pop\n        /* \"#utility.yul\":8636:8639   */\n      dup2\n        /* \"#utility.yul\":8633:8634   */\n      0x00\n        /* \"#utility.yul\":8626:8640   */\n      mstore\n        /* \"#utility.yul\":8670:8674   */\n      0x20\n        /* \"#utility.yul\":8667:8668   */\n      0x00\n        /* \"#utility.yul\":8657:8675   */\n      keccak256\n        /* \"#utility.yul\":8649:8675   */\n      swap1\n      pop\n        /* \"#utility.yul\":8541:8682   */\n      swap2\n      swap1\n      pop\n      jump\t// out\n        /* \"#utility.yul\":8688:8781   */\n    tag_78:\n        /* \"#utility.yul\":8725:8731   */\n      0x00\n        /* \"#utility.yul\":8772:8774   */\n      0x20\n        /* \"#utility.yul\":8767:8769   */\n      0x1f\n        /* \"#utility.yul\":8760:8765   */\n      dup4\n        /* \"#utility.yul\":8756:8770   */\n      add\n        /* \"#utility.yul\":8752:8775   */\n      div\n        /* \"#utility.yul\":8742:8775   */\n      swap1\n      pop\n        /* \"#utility.yul\":8688:8781   */\n      swap2\n      swap1\n      pop\n      jump\t// out\n        /* \"#utility.yul\":8787:8894   */\n    tag_79:\n        /* \"#utility.yul\":8831:8839   */\n      0x00\n        /* \"#utility.yul\":8881:8886   */\n      dup3\n        /* \"#utility.yul\":8875:8879   */\n      dup3\n        /* \"#utility.yul\":8871:8887   */\n      shl\n        /* \"#utility.yul\":8850:8887   */\n      swap1\n      pop\n        /* \"#utility.yul\":8787:8894   */\n      swap3\n      swap2\n      pop\n      pop\n      jump\t// out\n        /* \"#utility.yul\":8900:9293   */\n    tag_80:\n        /* \"#utility.yul\":8969:8975   */\n      0x00\n        /* \"#utility.yul\":9019:9020   */\n      0x08\n        /* \"#utility.yul\":9007:9017   */\n      dup4\n        /* \"#utility.yul\":9003:9021   */\n      mul\n        /* \"#utility.yul\":9042:9139   */\n      tag_181\n        /* \"#utility.yul\":9072:9138   */\n      0xffffffffffffffffffffffffffffffffffffffffffffffffffffffffffffffff\n        /* \"#utility.yul\":9061:9070   */\n      dup3\n        /* \"#utility.yul\":9042:9139   */\n      tag_79\n      jump\t// in\n    tag_181:\n        /* \"#utility.yul\":9160:9199   */\n      tag_182\n        /* \"#utility.yul\":9190:9198   */\n      dup7\n        /* \"#utility.yul\":9179:9188   */\n      dup4\n        /* \"#utility.yul\":9160:9199   */\n      tag_79\n      jump\t// in\n    tag_182:\n        /* \"#utility.yul\":9148:9199   */\n      swap6\n      pop\n        /* \"#utility.yul\":9232:9236   */\n      dup1\n        /* \"#utility.yul\":9228:9237   */\n      not\n        /* \"#utility.yul\":9221:9226   */\n      dup5\n        /* \"#utility.yul\":9217:9238   */\n      and\n        /* \"#utility.yul\":9208:9238   */\n      swap4\n      pop\n        /* \"#utility.yul\":9281:9285   */\n      dup1\n        /* \"#utility.yul\":9271:9279   */\n      dup7\n        /* \"#utility.yul\":9267:9286   */\n      and\n        /* \"#utility.yul\":9260:9265   */\n      dup5\n        /* \"#utility.yul\":9257:9287   */\n      or\n        /* \"#utility.yul\":9247:9287   */\n      swap3\n      pop\n        /* \"#utility.yul\":8976:9293   */\n      pop\n      pop\n        /* \"#utility.yul\":8900:9293   */\n      swap4\n      swap3\n      pop\n      pop\n      pop\n      jump\t// out\n        /* \"#utility.yul\":9299:9359   */\n    tag_81:\n        /* \"#utility.yul\":9327:9330   */\n      0x00\n        /* \"#utility.yul\":9348:9353   */\n      dup2\n        /* \"#utility.yul\":9341:9353   */\n      swap1\n      pop\n        /* \"#utility.yul\":9299:9359   */\n      swap2\n      swap1\n      pop\n      jump\t// out\n        /* \"#utility.yul\":9365:9507   */\n    tag_82:\n        /* \"#utility.yul\":9415:9424   */\n      0x00\n        /* \"#utility.yul\":9448:9501   */\n      tag_185\n        /* \"#utility.yul\":9466:9500   */\n      tag_186\n        /* \"#utility.yul\":9475:9499   */\n      tag_187\n        /* \"#utility.yul\":9493:9498   */\n      dup5\n        /* \"#utility.yul\":9475:9499   */\n      tag_53\n      jump\t// in\n    tag_187:\n        /* \"#utility.yul\":9466:9500   */\n      tag_81\n      jump\t// in\n    tag_186:\n        /* \"#utility.yul\":9448:9501   */\n      tag_53\n      jump\t// in\n    tag_185:\n        /* \"#utility.yul\":9435:9501   */\n      swap1\n      pop\n        /* \"#utility.yul\":9365:9507   */\n      swap2\n      swap1\n      pop\n      jump\t// out\n        /* \"#utility.yul\":9513:9588   */\n    tag_83:\n        /* \"#utility.yul\":9556:9559   */\n      0x00\n        /* \"#utility.yul\":9577:9582   */\n      dup2\n        /* \"#utility.yul\":9570:9582   */\n      swap1\n      pop\n        /* \"#utility.yul\":9513:9588   */\n      swap2\n      swap1\n      pop\n      jump\t// out\n        /* \"#utility.yul\":9594:9863   */\n    tag_84:\n        /* \"#utility.yul\":9704:9743   */\n      tag_190\n        /* \"#utility.yul\":9735:9742   */\n      dup4\n        /* \"#utility.yul\":9704:9743   */\n      tag_82\n      jump\t// in\n    tag_190:\n        /* \"#utility.yul\":9765:9856   */\n      tag_191\n        /* \"#utility.yul\":9814:9855   */\n      tag_192\n        /* \"#utility.yul\":9838:9854   */\n      dup3\n        /* \"#utility.yul\":9814:9855   */\n      tag_83\n      jump\t// in\n    tag_192:\n        /* \"#utility.yul\":9806:9812   */\n      dup5\n        /* \"#utility.yul\":9799:9803   */\n      dup5\n        /* \"#utility.yul\":9793:9804   */\n      sload\n        /* \"#utility.yul\":9765:9856   */\n      tag_80\n      jump\t// in\n    tag_191:\n        /* \"#utility.yul\":9759:9763   */\n      dup3\n        /* \"#utility.yul\":9752:9857   */\n      sstore\n        /* \"#utility.yul\":9670:9863   */\n      pop\n        /* \"#utility.yul\":9594:9863   */\n      pop\n      pop\n      pop\n      jump\t// out\n        /* \"#utility.yul\":9869:9942   */\n    tag_85:\n        /* \"#utility.yul\":9914:9917   */\n      0x00\n        /* \"#utility.yul\":9935:9936   */\n      0x00\n        /* \"#utility.yul\":9928:9936   */\n      swap1\n      pop\n        /* \"#utility.yul\":9869:9942   */\n      swap1\n      jump\t// out\n        /* \"#utility.yul\":9948:10137   */\n    tag_86:\n        /* \"#utility.yul\":10025:10057   */\n      tag_195\n      tag_85\n      jump\t// in\n    tag_195:\n        /* \"#utility.yul\":10066:10131   */\n      tag_196\n        /* \"#utility.yul\":10124:10130   */\n      dup2\n        /* \"#utility.yul\":10116:10122   */\n      dup5\n        /* \"#utility.yul\":10110:10114   */\n      dup5\n        /* \"#utility.yul\":10066:10131   */\n      tag_84\n      jump\t// in\n    tag_196:\n        /* \"#utility.yul\":10001:10137   */\n      pop\n        /* \"#utility.yul\":9948:10137   */\n      pop\n      pop\n      jump\t// out\n        /* \"#utility.yul\":10143:10329   */\n    tag_87:\n        /* \"#utility.yul\":10203:10323   */\n    tag_198:\n        /* \"#utility.yul\":10220:10223   */\n      dup2\n        /* \"#utility.yul\":10213:10218   */\n      dup2\n        /* \"#utility.yul\":10210:10224   */\n      lt\n        /* \"#utility.yul\":10203:10323   */\n      iszero\n      tag_200\n      jumpi\n        /* \"#utility.yul\":10274:10313   */\n      tag_201\n        /* \"#utility.yul\":10311:10312   */\n      0x00\n        /* \"#utility.yul\":10304:10309   */\n      dup3\n        /* \"#utility.yul\":10274:10313   */\n      tag_86\n      jump\t// in\n    tag_201:\n        /* \"#utility.yul\":10247:10248   */\n      0x01\n        /* \"#utility.yul\":10240:10245   */\n      dup2\n        /* \"#utility.yul\":10236:10249   */\n      add\n        /* \"#utility.yul\":10227:10249   */\n      swap1\n      pop\n        /* \"#utility.yul\":10203:10323   */\n      jump(tag_198)\n    tag_200:\n        /* \"#utility.yul\":10143:10329   */\n      pop\n      pop\n      jump\t// out\n        /* \"#utility.yul\":10335:10878   */\n    tag_88:\n        /* \"#utility.yul\":10436:10438   */\n      0x1f\n        /* \"#utility.yul\":10431:10434   */\n      dup3\n        /* \"#utility.yul\":10428:10439   */\n      gt\n        /* \"#utility.yul\":10425:10871   */\n      iszero\n      tag_203\n      jumpi\n        /* \"#utility.yul\":10470:10508   */\n      tag_204\n        /* \"#utility.yul\":10502:10507   */\n      dup2\n        /* \"#utility.yul\":10470:10508   */\n      tag_77\n      jump\t// in\n    tag_204:\n        /* \"#utility.yul\":10554:10583   */\n      tag_205\n        /* \"#utility.yul\":10572:10582   */\n      dup5\n        /* \"#utility.yul\":10554:10583   */\n      tag_78\n      jump\t// in\n    tag_205:\n        /* \"#utility.yul\":10544:10552   */\n      dup2\n        /* \"#utility.yul\":10540:10584   */\n      add\n        /* \"#utility.yul\":10737:10739   */\n      0x20\n        /* \"#utility.yul\":10725:10735   */\n      dup6\n        /* \"#utility.yul\":10722:10740   */\n      lt\n        /* \"#utility.yul\":10719:10768   */\n      iszero\n      tag_206\n      jumpi\n        /* \"#utility.yul\":10758:10766   */\n      dup2\n        /* \"#utility.yul\":10743:10766   */\n      swap1\n      pop\n        /* \"#utility.yul\":10719:10768   */\n    tag_206:\n        /* \"#utility.yul\":10781:10861   */\n      tag_207\n        /* \"#utility.yul\":10837:10859   */\n      tag_208\n        /* \"#utility.yul\":10855:10858   */\n      dup6\n        /* \"#utility.yul\":10837:10859   */\n      tag_78\n      jump\t// in\n    tag_208:\n        /* \"#utility.yul\":10827:10835   */\n      dup4\n        /* \"#utility.yul\":10823:10860   */\n      add\n        /* \"#utility.yul\":10810:10821   */\n      dup3\n        /* \"#utility.yul\":10781:10861   */\n      tag_87\n      jump\t// in\n    tag_207:\n        /* \"#utility.yul\":10440:10871   */\n      pop\n      pop\n        /* \"#utility.yul\":10425:10871   */\n    tag_203:\n        /* \"#utility.yul\":10335:10878   */\n      pop\n      pop\n      pop\n      jump\t// out\n        /* \"#utility.yul\":10884:11001   */\n    tag_89:\n        /* \"#utility.yul\":10938:10946   */\n      0x00\n        /* \"#utility.yul\":10988:10993   */\n      dup3\n        /* \"#utility.yul\":10982:10986   */\n      dup3\n        /* \"#utility.yul\":10978:10994   */\n      shr\n        /* \"#utility.yul\":10957:10994   */\n      swap1\n      pop\n        /* \"#utility.yul\":10884:11001   */\n      swap3\n      swap2\n      pop\n      pop\n      jump\t// out\n        /* \"#utility.yul\":11007:11176   */\n    tag_90:\n        /* \"#utility.yul\":11051:11057   */\n      0x00\n        /* \"#utility.yul\":11084:11135   */\n      tag_211\n        /* \"#utility.yul\":11132:11133   */\n      0x00\n        /* \"#utility.yul\":11128:11134   */\n      not\n        /* \"#utility.yul\":11120:11125   */\n      dup5\n        /* \"#utility.yul\":11117:11118   */\n      0x08\n        /* \"#utility.yul\":11113:11126   */\n      mul\n        /* \"#utility.yul\":11084:11135   */\n      tag_89\n      jump\t// in\n    tag_211:\n        /* \"#utility.yul\":11080:11136   */\n      not\n        /* \"#utility.yul\":11165:11169   */\n      dup1\n        /* \"#utility.yul\":11159:11163   */\n      dup4\n        /* \"#utility.yul\":11155:11170   */\n      and\n        /* \"#utility.yul\":11145:11170   */\n      swap2\n      pop\n        /* \"#utility.yul\":11058:11176   */\n      pop\n        /* \"#utility.yul\":11007:11176   */\n      swap3\n      swap2\n      pop\n      pop\n      jump\t// out\n        /* \"#utility.yul\":11181:11476   */\n    tag_91:\n        /* \"#utility.yul\":11257:11261   */\n      0x00\n        /* \"#utility.yul\":11403:11432   */\n      tag_213\n        /* \"#utility.yul\":11428:11431   */\n      dup4\n        /* \"#utility.yul\":11422:11426   */\n      dup4\n        /* \"#utility.yul\":11403:11432   */\n      tag_90\n      jump\t// in\n    tag_213:\n        /* \"#utility.yul\":11395:11432   */\n      swap2\n      pop\n        /* \"#utility.yul\":11465:11468   */\n      dup3\n        /* \"#utility.yul\":11462:11463   */\n      0x02\n        /* \"#utility.yul\":11458:11469   */\n      mul\n        /* \"#utility.yul\":11452:11456   */\n      dup3\n        /* \"#utility.yul\":11449:11470   */\n      or\n        /* \"#utility.yul\":11441:11470   */\n      swap1\n      pop\n        /* \"#utility.yul\":11181:11476   */\n      swap3\n      swap2\n      pop\n      pop\n      jump\t// out\n        /* \"#utility.yul\":11481:12876   */\n    tag_45:\n        /* \"#utility.yul\":11598:11635   */\n      tag_215\n        /* \"#utility.yul\":11631:11634   */\n      dup3\n        /* \"#utility.yul\":11598:11635   */\n      tag_56\n      jump\t// in\n    tag_215:\n        /* \"#utility.yul\":11700:11718   */\n      0xffffffffffffffff\n        /* \"#utility.yul\":11692:11698   */\n      dup2\n        /* \"#utility.yul\":11689:11719   */\n      gt\n        /* \"#utility.yul\":11686:11742   */\n      iszero\n      tag_216\n      jumpi\n        /* \"#utility.yul\":11722:11740   */\n      tag_217\n      tag_64\n      jump\t// in\n    tag_217:\n        /* \"#utility.yul\":11686:11742   */\n    tag_216:\n        /* \"#utility.yul\":11766:11804   */\n      tag_218\n        /* \"#utility.yul\":11798:11802   */\n      dup3\n        /* \"#utility.yul\":11792:11803   */\n      sload\n        /* \"#utility.yul\":11766:11804   */\n      tag_37\n      jump\t// in\n    tag_218:\n        /* \"#utility.yul\":11851:11918   */\n      tag_219\n        /* \"#utility.yul\":11911:11917   */\n      dup3\n        /* \"#utility.yul\":11903:11909   */\n      dup3\n        /* \"#utility.yul\":11897:11901   */\n      dup6\n        /* \"#utility.yul\":11851:11918   */\n      tag_88\n      jump\t// in\n    tag_219:\n        /* \"#utility.yul\":11945:11946   */\n      0x00\n        /* \"#utility.yul\":11969:11973   */\n      0x20\n        /* \"#utility.yul\":11956:11973   */\n      swap1\n      pop\n        /* \"#utility.yul\":12001:12003   */\n      0x1f\n        /* \"#utility.yul\":11993:11999   */\n      dup4\n        /* \"#utility.yul\":11990:12004   */\n      gt\n        /* \"#utility.yul\":12018:12019   */\n      0x01\n        /* \"#utility.yul\":12013:12631   */\n      dup2\n      eq\n      tag_221\n      jumpi\n        /* \"#utility.yul\":12675:12676   */\n      0x00\n        /* \"#utility.yul\":12692:12698   */\n      dup5\n        /* \"#utility.yul\":12689:12766   */\n      iszero\n      tag_222\n      jumpi\n        /* \"#utility.yul\":12741:12750   */\n      dup3\n        /* \"#utility.yul\":12736:12739   */\n      dup8\n        /* \"#utility.yul\":12732:12751   */\n      add\n        /* \"#utility.yul\":12726:12752   */\n      mload\n        /* \"#utility.yul\":12717:12752   */\n      swap1\n      pop\n        /* \"#utility.yul\":12689:12766   */\n    tag_222:\n        /* \"#utility.yul\":12792:12859   */\n      tag_223\n        /* \"#utility.yul\":12852:12858   */\n      dup6\n        /* \"#utility.yul\":12845:12850   */\n      dup3\n        /* \"#utility.yul\":12792:12859   */\n      tag_91\n      jump\t// in\n    tag_223:\n        /* \"#utility.yul\":12786:12790   */\n      dup7\n        /* \"#utility.yul\":12779:12860   */\n      sstore\n        /* \"#utility.yul\":12648:12870   */\n      pop\n        /* \"#utility.yul\":11983:12870   */\n      jump(tag_220)\n        /* \"#utility.yul\":12013:12631   */\n    tag_221:\n        /* \"#utility.yul\":12065:12069   */\n      0x1f\n        /* \"#utility.yul\":12061:12070   */\n      not\n        /* \"#utility.yul\":12053:12059   */\n      dup5\n        /* \"#utility.yul\":12049:12071   */\n      and\n        /* \"#utility.yul\":12099:12136   */\n      tag_224\n        /* \"#utility.yul\":12131:12135   */\n      dup7\n        /* \"#utility.yul\":12099:12136   */\n      tag_77\n      jump\t// in\n    tag_224:\n        /* \"#utility.yul\":12158:12159   */\n      0x00\n        /* \"#utility.yul\":12172:12380   */\n    tag_225:\n        /* \"#utility.yul\":12186:12193   */\n      dup3\n        /* \"#utility.yul\":12183:12184   */\n      dup2\n        /* \"#utility.yul\":12180:12194   */\n      lt\n        /* \"#utility.yul\":12172:12380   */\n      iszero\n      tag_227\n      jumpi\n        /* \"#utility.yul\":12265:12274   */\n      dup5\n        /* \"#utility.yul\":12260:12263   */\n      dup10\n        /* \"#utility.yul\":12256:12275   */\n      add\n        /* \"#utility.yul\":12250:12276   */\n      mload\n        /* \"#utility.yul\":12242:12248   */\n      dup3\n        /* \"#utility.yul\":12235:12277   */\n      sstore\n        /* \"#utility.yul\":12316:12317   */\n      0x01\n        /* \"#utility.yul\":12308:12314   */\n      dup3\n        /* \"#utility.yul\":12304:12318   */\n      add\n        /* \"#utility.yul\":12294:12318   */\n      swap2\n      pop\n        /* \"#utility.yul\":12363:12365   */\n      0x20\n        /* \"#utility.yul\":12352:12361   */\n      dup6\n        /* \"#utility.yul\":12348:12366   */\n      add\n        /* \"#utility.yul\":12335:12366   */\n      swap5\n      pop\n        /* \"#utility.yul\":12209:12213   */\n      0x20\n        /* \"#utility.yul\":12206:12207   */\n      dup2\n        /* \"#utility.yul\":12202:12214   */\n      add\n        /* \"#utility.yul\":12197:12214   */\n      swap1\n      pop\n        /* \"#utility.yul\":12172:12380   */\n      jump(tag_225)\n    tag_227:\n        /* \"#utility.yul\":12408:12414   */\n      dup7\n        /* \"#utility.yul\":12399:12406   */\n      dup4\n        /* \"#utility.yul\":12396:12415   */\n      lt\n        /* \"#utility.yul\":12393:12572   */\n      iszero\n      tag_228\n      jumpi\n        /* \"#utility.yul\":12466:12475   */\n      dup5\n        /* \"#utility.yul\":12461:12464   */\n      dup10\n        /* \"#utility.yul\":12457:12476   */\n      add\n        /* \"#utility.yul\":12451:12477   */\n      mload\n        /* \"#utility.yul\":12509:12557   */\n      tag_229\n        /* \"#utility.yul\":12551:12555   */\n      0x1f\n        /* \"#utility.yul\":12543:12549   */\n      dup10\n        /* \"#utility.yul\":12539:12556   */\n      and\n        /* \"#utility.yul\":12528:12537   */\n      dup3\n        /* \"#utility.yul\":12509:12557   */\n      tag_90\n      jump\t// in\n    tag_229:\n        /* \"#utility.yul\":12501:12507   */\n      dup4\n        /* \"#utility.yul\":12494:12558   */\n      sstore\n        /* \"#utility.yul\":12416:12572   */\n      pop\n        /* \"#utility.yul\":12393:12572   */\n    tag_228:\n        /* \"#utility.yul\":12618:12619   */\n      0x01\n        /* \"#utility.yul\":12614:12615   */\n      0x02\n        /* \"#utility.yul\":12606:12612   */\n      dup9\n        /* \"#utility.yul\":12602:12616   */\n      mul\n        /* \"#utility.yul\":12598:12620   */\n      add\n        /* \"#utility.yul\":12592:12596   */\n      dup9\n        /* \"#utility.yul\":12585:12621   */\n      sstore\n        /* \"#utility.yul\":12020:12631   */\n      pop\n      pop\n      pop\n        /* \"#utility.yul\":11983:12870   */\n    tag_220:\n      pop\n        /* \"#utility.yul\":11573:12876   */\n      pop\n      pop\n      pop\n        /* \"#utility.yul\":11481:12876   */\n      pop\n      pop\n      jump\t// out\n        /* \"#utility.yul\":12882:13076   */\n    tag_47:\n        /* \"#utility.yul\":12922:12926   */\n      0x00\n        /* \"#utility.yul\":12942:12962   */\n      tag_231\n        /* \"#utility.yul\":12960:12961   */\n      dup3\n        /* \"#utility.yul\":12942:12962   */\n      tag_53\n      jump\t// in\n    tag_231:\n        /* \"#utility.yul\":12937:12962   */\n      swap2\n      pop\n        /* \"#utility.yul\":12976:12996   */\n      tag_232\n        /* \"#utility.yul\":12994:12995   */\n      dup4\n        /* \"#utility.yul\":12976:12996   */\n      tag_53\n      jump\t// in\n    tag_232:\n        /* \"#utility.yul\":12971:12996   */\n      swap3\n      pop\n        /* \"#utility.yul\":13020:13021   */\n      dup3\n        /* \"#utility.yul\":13017:13018   */\n      dup3\n        /* \"#utility.yul\":13013:13022   */\n      sub\n        /* \"#utility.yul\":13005:13022   */\n      swap1\n      pop\n        /* \"#utility.yul\":13044:13045   */\n      dup2\n        /* \"#utility.yul\":13038:13042   */\n      dup2\n        /* \"#utility.yul\":13035:13046   */\n      gt\n        /* \"#utility.yul\":13032:13069   */\n      iszero\n      tag_233\n      jumpi\n        /* \"#utility.yul\":13049:13067   */\n      tag_234\n      tag_75\n      jump\t// in\n    tag_234:\n        /* \"#utility.yul\":13032:13069   */\n    tag_233:\n        /* \"#utility.yul\":12882:13076   */\n      swap3\n      swap2\n      pop\n      pop\n      jump\t// out\n\n    auxdata: 0xa2646970667358221220e29fcf930a38d412f3f1227bb6a07e4c4063698b99f1494d35b498c0d4b8d9a864736f6c634300081e0033\n}\n",
				"bytecode": {
					"linkReferences": {},
					"object": "6080604052348015600e575f5ffd5b50610b858061001c5f395ff3fe608060405234801561000f575f5ffd5b506004361061003f575f3560e01c80630121b93f14610043578063013cf08b1461005f57806349c2a1a614610090575b5f5ffd5b61005d6004803603810190610058919061046d565b6100ac565b005b6100796004803603810190610074919061046d565b610279565b604051610087929190610517565b60405180910390f35b6100aa60048036038101906100a59190610671565b61032d565b005b5f5f80549050116100f2576040517f08c379a00000000000000000000000000000000000000000000000000000000081526004016100e990610702565b60405180910390fd5b60025f8281526020019081526020015f205f3373ffffffffffffffffffffffffffffffffffffffff1673ffffffffffffffffffffffffffffffffffffffff1681526020019081526020015f205f9054906101000a900460ff161561018b576040517f08c379a00000000000000000000000000000000000000000000000000000000081526004016101829061076a565b60405180910390fd5b5f818154811061019e5761019d610788565b5b905f5260205f2090600202016001015f8154809291906101bd906107e2565b9190505550600160025f8381526020019081526020015f205f3373ffffffffffffffffffffffffffffffffffffffff1673ffffffffffffffffffffffffffffffffffffffff1681526020019081526020015f205f6101000a81548160ff0219169083151502179055503373ffffffffffffffffffffffffffffffffffffffff167fcb87df07b1c304492bd875a5c8b98672eca500939412809ea229afef1d745188824260405161026e929190610829565b60405180910390a250565b5f8181548110610287575f80fd5b905f5260205f2090600202015f91509050805f0180546102a69061087d565b80601f01602080910402602001604051908101604052809291908181526020018280546102d29061087d565b801561031d5780601f106102f45761010080835404028352916020019161031d565b820191905f5260205f20905b81548152906001019060200180831161030057829003601f168201915b5050505050908060010154905082565b5f60405180604001604052808381526020015f81525090505f81908060018154018082558091505060019003905f5260205f2090600202015f909190919091505f820151815f0190816103809190610a4d565b506020820151816001015550505f60015f8054905061039f9190610b1c565b90508160015f8381526020019081526020015f205f820151815f0190816103c69190610a4d565b50602082015181600101559050503373ffffffffffffffffffffffffffffffffffffffff167f5fa1acbdcb8142d84e87165149f77e37c91bcf8055862afe7b9e7c6bac70404b824260405161041c929190610829565b60405180910390a2505050565b5f604051905090565b5f5ffd5b5f5ffd5b5f819050919050565b61044c8161043a565b8114610456575f5ffd5b50565b5f8135905061046781610443565b92915050565b5f6020828403121561048257610481610432565b5b5f61048f84828501610459565b91505092915050565b5f81519050919050565b5f82825260208201905092915050565b8281835e5f83830152505050565b5f601f19601f8301169050919050565b5f6104da82610498565b6104e481856104a2565b93506104f48185602086016104b2565b6104fd816104c0565b840191505092915050565b6105118161043a565b82525050565b5f6040820190508181035f83015261052f81856104d0565b905061053e6020830184610508565b9392505050565b5f5ffd5b5f5ffd5b7f4e487b71000000000000000000000000000000000000000000000000000000005f52604160045260245ffd5b610583826104c0565b810181811067ffffffffffffffff821117156105a2576105a161054d565b5b80604052505050565b5f6105b4610429565b90506105c0828261057a565b919050565b5f67ffffffffffffffff8211156105df576105de61054d565b5b6105e8826104c0565b9050602081019050919050565b828183375f83830152505050565b5f610615610610846105c5565b6105ab565b90508281526020810184848401111561063157610630610549565b5b61063c8482856105f5565b509392505050565b5f82601f83011261065857610657610545565b5b8135610668848260208601610603565b91505092915050565b5f6020828403121561068657610685610432565b5b5f82013567ffffffffffffffff8111156106a3576106a2610436565b5b6106af84828501610644565b91505092915050565b7f4e6f2070726f706f73616c7320617661696c61626c65000000000000000000005f82015250565b5f6106ec6016836104a2565b91506106f7826106b8565b602082019050919050565b5f6020820190508181035f830152610719816106e0565b9050919050565b7f416c726561647920766f746564206f6e20746869732070726f706f73616c00005f82015250565b5f610754601e836104a2565b915061075f82610720565b602082019050919050565b5f6020820190508181035f83015261078181610748565b9050919050565b7f4e487b71000000000000000000000000000000000000000000000000000000005f52603260045260245ffd5b7f4e487b71000000000000000000000000000000000000000000000000000000005f52601160045260245ffd5b5f6107ec8261043a565b91507fffffffffffffffffffffffffffffffffffffffffffffffffffffffffffffffff820361081e5761081d6107b5565b5b600182019050919050565b5f60408201905061083c5f830185610508565b6108496020830184610508565b9392505050565b7f4e487b71000000000000000000000000000000000000000000000000000000005f52602260045260245ffd5b5f600282049050600182168061089457607f821691505b6020821081036108a7576108a6610850565b5b50919050565b5f819050815f5260205f209050919050565b5f6020601f8301049050919050565b5f82821b905092915050565b5f600883026109097fffffffffffffffffffffffffffffffffffffffffffffffffffffffffffffffff826108ce565b61091386836108ce565b95508019841693508086168417925050509392505050565b5f819050919050565b5f61094e6109496109448461043a565b61092b565b61043a565b9050919050565b5f819050919050565b61096783610934565b61097b61097382610955565b8484546108da565b825550505050565b5f5f905090565b610992610983565b61099d81848461095e565b505050565b5b818110156109c0576109b55f8261098a565b6001810190506109a3565b5050565b601f821115610a05576109d6816108ad565b6109df846108bf565b810160208510156109ee578190505b610a026109fa856108bf565b8301826109a2565b50505b505050565b5f82821c905092915050565b5f610a255f1984600802610a0a565b1980831691505092915050565b5f610a3d8383610a16565b9150826002028217905092915050565b610a5682610498565b67ffffffffffffffff811115610a6f57610a6e61054d565b5b610a79825461087d565b610a848282856109c4565b5f60209050601f831160018114610ab5575f8415610aa3578287015190505b610aad8582610a32565b865550610b14565b601f198416610ac3866108ad565b5f5b82811015610aea57848901518255600182019150602085019450602081019050610ac5565b86831015610b075784890151610b03601f891682610a16565b8355505b6001600288020188555050505b505050505050565b5f610b268261043a565b9150610b318361043a565b9250828203905081811115610b4957610b486107b5565b5b9291505056fea2646970667358221220e29fcf930a38d412f3f1227bb6a07e4c4063698b99f1494d35b498c0d4b8d9a864736f6c634300081e0033",
					"opcodes": "PUSH1 0x80 PUSH1 0x40 MSTORE CALLVALUE DUP1 ISZERO PUSH1 0xE JUMPI PUSH0 PUSH0 REVERT JUMPDEST POP PUSH2 0xB85 DUP1 PUSH2 0x1C PUSH0 CODECOPY PUSH0 RETURN INVALID PUSH1 0x80 PUSH1 0x40 MSTORE CALLVALUE DUP1 ISZERO PUSH2 0xF JUMPI PUSH0 PUSH0 REVERT JUMPDEST POP PUSH1 0x4 CALLDATASIZE LT PUSH2 0x3F JUMPI PUSH0 CALLDATALOAD PUSH1 0xE0 SHR DUP1 PUSH4 0x121B93F EQ PUSH2 0x43 JUMPI DUP1 PUSH4 0x13CF08B EQ PUSH2 0x5F JUMPI DUP1 PUSH4 0x49C2A1A6 EQ PUSH2 0x90 JUMPI JUMPDEST PUSH0 PUSH0 REVERT JUMPDEST PUSH2 0x5D PUSH1 0x4 DUP1 CALLDATASIZE SUB DUP2 ADD SWAP1 PUSH2 0x58 SWAP2 SWAP1 PUSH2 0x46D JUMP JUMPDEST PUSH2 0xAC JUMP JUMPDEST STOP JUMPDEST PUSH2 0x79 PUSH1 0x4 DUP1 CALLDATASIZE SUB DUP2 ADD SWAP1 PUSH2 0x74 SWAP2 SWAP1 PUSH2 0x46D JUMP JUMPDEST PUSH2 0x279 JUMP JUMPDEST PUSH1 0x40 MLOAD PUSH2 0x87 SWAP3 SWAP2 SWAP1 PUSH2 0x517 JUMP JUMPDEST PUSH1 0x40 MLOAD DUP1 SWAP2 SUB SWAP1 RETURN JUMPDEST PUSH2 0xAA PUSH1 0x4 DUP1 CALLDATASIZE SUB DUP2 ADD SWAP1 PUSH2 0xA5 SWAP2 SWAP1 PUSH2 0x671 JUMP JUMPDEST PUSH2 0x32D JUMP JUMPDEST STOP JUMPDEST PUSH0 PUSH0 DUP1 SLOAD SWAP1 POP GT PUSH2 0xF2 JUMPI PUSH1 0x40 MLOAD PUSH32 0x8C379A000000000000000000000000000000000000000000000000000000000 DUP2 MSTORE PUSH1 0x4 ADD PUSH2 0xE9 SWAP1 PUSH2 0x702 JUMP JUMPDEST PUSH1 0x40 MLOAD DUP1 SWAP2 SUB SWAP1 REVERT JUMPDEST PUSH1 0x2 PUSH0 DUP3 DUP2 MSTORE PUSH1 0x20 ADD SWAP1 DUP2 MSTORE PUSH1 0x20 ADD PUSH0 KECCAK256 PUSH0 CALLER PUSH20 0xFFFFFFFFFFFFFFFFFFFFFFFFFFFFFFFFFFFFFFFF AND PUSH20 0xFFFFFFFFFFFFFFFFFFFFFFFFFFFFFFFFFFFFFFFF AND DUP2 MSTORE PUSH1 0x20 ADD SWAP1 DUP2 MSTORE PUSH1 0x20 ADD PUSH0 KECCAK256 PUSH0 SWAP1 SLOAD SWAP1 PUSH2 0x100 EXP SWAP1 DIV PUSH1 0xFF AND ISZERO PUSH2 0x18B JUMPI PUSH1 0x40 MLOAD PUSH32 0x8C379A000000000000000000000000000000000000000000000000000000000 DUP2 MSTORE PUSH1 0x4 ADD PUSH2 0x182 SWAP1 PUSH2 0x76A JUMP JUMPDEST PUSH1 0x40 MLOAD DUP1 SWAP2 SUB SWAP1 REVERT JUMPDEST PUSH0 DUP2 DUP2 SLOAD DUP2 LT PUSH2 0x19E JUMPI PUSH2 0x19D PUSH2 0x788 JUMP JUMPDEST JUMPDEST SWAP1 PUSH0 MSTORE PUSH1 0x20 PUSH0 KECCAK256 SWAP1 PUSH1 0x2 MUL ADD PUSH1 0x1 ADD PUSH0 DUP2 SLOAD DUP1 SWAP3 SWAP2 SWAP1 PUSH2 0x1BD SWAP1 PUSH2 0x7E2 JUMP JUMPDEST SWAP2 SWAP1 POP SSTORE POP PUSH1 0x1 PUSH1 0x2 PUSH0 DUP4 DUP2 MSTORE PUSH1 0x20 ADD SWAP1 DUP2 MSTORE PUSH1 0x20 ADD PUSH0 KECCAK256 PUSH0 CALLER PUSH20 0xFFFFFFFFFFFFFFFFFFFFFFFFFFFFFFFFFFFFFFFF AND PUSH20 0xFFFFFFFFFFFFFFFFFFFFFFFFFFFFFFFFFFFFFFFF AND DUP2 MSTORE PUSH1 0x20 ADD SWAP1 DUP2 MSTORE PUSH1 0x20 ADD PUSH0 KECCAK256 PUSH0 PUSH2 0x100 EXP DUP2 SLOAD DUP2 PUSH1 0xFF MUL NOT AND SWAP1 DUP4 ISZERO ISZERO MUL OR SWAP1 SSTORE POP CALLER PUSH20 0xFFFFFFFFFFFFFFFFFFFFFFFFFFFFFFFFFFFFFFFF AND PUSH32 0xCB87DF07B1C304492BD875A5C8B98672ECA500939412809EA229AFEF1D745188 DUP3 TIMESTAMP PUSH1 0x40 MLOAD PUSH2 0x26E SWAP3 SWAP2 SWAP1 PUSH2 0x829 JUMP JUMPDEST PUSH1 0x40 MLOAD DUP1 SWAP2 SUB SWAP1 LOG2 POP JUMP JUMPDEST PUSH0 DUP2 DUP2 SLOAD DUP2 LT PUSH2 0x287 JUMPI PUSH0 DUP1 REVERT JUMPDEST SWAP1 PUSH0 MSTORE PUSH1 0x20 PUSH0 KECCAK256 SWAP1 PUSH1 0x2 MUL ADD PUSH0 SWAP2 POP SWAP1 POP DUP1 PUSH0 ADD DUP1 SLOAD PUSH2 0x2A6 SWAP1 PUSH2 0x87D JUMP JUMPDEST DUP1 PUSH1 0x1F ADD PUSH1 0x20 DUP1 SWAP2 DIV MUL PUSH1 0x20 ADD PUSH1 0x40 MLOAD SWAP1 DUP2 ADD PUSH1 0x40 MSTORE DUP1 SWAP3 SWAP2 SWAP1 DUP2 DUP2 MSTORE PUSH1 0x20 ADD DUP3 DUP1 SLOAD PUSH2 0x2D2 SWAP1 PUSH2 0x87D JUMP JUMPDEST DUP1 ISZERO PUSH2 0x31D JUMPI DUP1 PUSH1 0x1F LT PUSH2 0x2F4 JUMPI PUSH2 0x100 DUP1 DUP4 SLOAD DIV MUL DUP4 MSTORE SWAP2 PUSH1 0x20 ADD SWAP2 PUSH2 0x31D JUMP JUMPDEST DUP3 ADD SWAP2 SWAP1 PUSH0 MSTORE PUSH1 0x20 PUSH0 KECCAK256 SWAP1 JUMPDEST DUP2 SLOAD DUP2 MSTORE SWAP1 PUSH1 0x1 ADD SWAP1 PUSH1 0x20 ADD DUP1 DUP4 GT PUSH2 0x300 JUMPI DUP3 SWAP1 SUB PUSH1 0x1F AND DUP3 ADD SWAP2 JUMPDEST POP POP POP POP POP SWAP1 DUP1 PUSH1 0x1 ADD SLOAD SWAP1 POP DUP3 JUMP JUMPDEST PUSH0 PUSH1 0x40 MLOAD DUP1 PUSH1 0x40 ADD PUSH1 0x40 MSTORE DUP1 DUP4 DUP2 MSTORE PUSH1 0x20 ADD PUSH0 DUP2 MSTORE POP SWAP1 POP PUSH0 DUP2 SWAP1 DUP1 PUSH1 0x1 DUP2 SLOAD ADD DUP1 DUP3 SSTORE DUP1 SWAP2 POP POP PUSH1 0x1 SWAP1 SUB SWAP1 PUSH0 MSTORE PUSH1 0x20 PUSH0 KECCAK256 SWAP1 PUSH1 0x2 MUL ADD PUSH0 SWAP1 SWAP2 SWAP1 SWAP2 SWAP1 SWAP2 POP PUSH0 DUP3 ADD MLOAD DUP2 PUSH0 ADD SWAP1 DUP2 PUSH2 0x380 SWAP2 SWAP1 PUSH2 0xA4D JUMP JUMPDEST POP PUSH1 0x20 DUP3 ADD MLOAD DUP2 PUSH1 0x1 ADD SSTORE POP POP PUSH0 PUSH1 0x1 PUSH0 DUP1 SLOAD SWAP1 POP PUSH2 0x39F SWAP2 SWAP1 PUSH2 0xB1C JUMP JUMPDEST SWAP1 POP DUP2 PUSH1 0x1 PUSH0 DUP4 DUP2 MSTORE PUSH1 0x20 ADD SWAP1 DUP2 MSTORE PUSH1 0x20 ADD PUSH0 KECCAK256 PUSH0 DUP3 ADD MLOAD DUP2 PUSH0 ADD SWAP1 DUP2 PUSH2 0x3C6 SWAP2 SWAP1 PUSH2 0xA4D JUMP JUMPDEST POP PUSH1 0x20 DUP3 ADD MLOAD DUP2 PUSH1 0x1 ADD SSTORE SWAP1 POP POP CALLER PUSH20 0xFFFFFFFFFFFFFFFFFFFFFFFFFFFFFFFFFFFFFFFF AND PUSH32 0x5FA1ACBDCB8142D84E87165149F77E37C91BCF8055862AFE7B9E7C6BAC70404B DUP3 TIMESTAMP PUSH1 0x40 MLOAD PUSH2 0x41C SWAP3 SWAP2 SWAP1 PUSH2 0x829 JUMP JUMPDEST PUSH1 0x40 MLOAD DUP1 SWAP2 SUB SWAP1 LOG2 POP POP POP JUMP JUMPDEST PUSH0 PUSH1 0x40 MLOAD SWAP1 POP SWAP1 JUMP JUMPDEST PUSH0 PUSH0 REVERT JUMPDEST PUSH0 PUSH0 REVERT JUMPDEST PUSH0 DUP2 SWAP1 POP SWAP2 SWAP1 POP JUMP JUMPDEST PUSH2 0x44C DUP2 PUSH2 0x43A JUMP JUMPDEST DUP2 EQ PUSH2 0x456 JUMPI PUSH0 PUSH0 REVERT JUMPDEST POP JUMP JUMPDEST PUSH0 DUP2 CALLDATALOAD SWAP1 POP PUSH2 0x467 DUP2 PUSH2 0x443 JUMP JUMPDEST SWAP3 SWAP2 POP POP JUMP JUMPDEST PUSH0 PUSH1 0x20 DUP3 DUP5 SUB SLT ISZERO PUSH2 0x482 JUMPI PUSH2 0x481 PUSH2 0x432 JUMP JUMPDEST JUMPDEST PUSH0 PUSH2 0x48F DUP5 DUP3 DUP6 ADD PUSH2 0x459 JUMP JUMPDEST SWAP2 POP POP SWAP3 SWAP2 POP POP JUMP JUMPDEST PUSH0 DUP2 MLOAD SWAP1 POP SWAP2 SWAP1 POP JUMP JUMPDEST PUSH0 DUP3 DUP3 MSTORE PUSH1 0x20 DUP3 ADD SWAP1 POP SWAP3 SWAP2 POP POP JUMP JUMPDEST DUP3 DUP2 DUP4 MCOPY PUSH0 DUP4 DUP4 ADD MSTORE POP POP POP JUMP JUMPDEST PUSH0 PUSH1 0x1F NOT PUSH1 0x1F DUP4 ADD AND SWAP1 POP SWAP2 SWAP1 POP JUMP JUMPDEST PUSH0 PUSH2 0x4DA DUP3 PUSH2 0x498 JUMP JUMPDEST PUSH2 0x4E4 DUP2 DUP6 PUSH2 0x4A2 JUMP JUMPDEST SWAP4 POP PUSH2 0x4F4 DUP2 DUP6 PUSH1 0x20 DUP7 ADD PUSH2 0x4B2 JUMP JUMPDEST PUSH2 0x4FD DUP2 PUSH2 0x4C0 JUMP JUMPDEST DUP5 ADD SWAP2 POP POP SWAP3 SWAP2 POP POP JUMP JUMPDEST PUSH2 0x511 DUP2 PUSH2 0x43A JUMP JUMPDEST DUP3 MSTORE POP POP JUMP JUMPDEST PUSH0 PUSH1 0x40 DUP3 ADD SWAP1 POP DUP2 DUP2 SUB PUSH0 DUP4 ADD MSTORE PUSH2 0x52F DUP2 DUP6 PUSH2 0x4D0 JUMP JUMPDEST SWAP1 POP PUSH2 0x53E PUSH1 0x20 DUP4 ADD DUP5 PUSH2 0x508 JUMP JUMPDEST SWAP4 SWAP3 POP POP POP JUMP JUMPDEST PUSH0 PUSH0 REVERT JUMPDEST PUSH0 PUSH0 REVERT JUMPDEST PUSH32 0x4E487B7100000000000000000000000000000000000000000000000000000000 PUSH0 MSTORE PUSH1 0x41 PUSH1 0x4 MSTORE PUSH1 0x24 PUSH0 REVERT JUMPDEST PUSH2 0x583 DUP3 PUSH2 0x4C0 JUMP JUMPDEST DUP2 ADD DUP2 DUP2 LT PUSH8 0xFFFFFFFFFFFFFFFF DUP3 GT OR ISZERO PUSH2 0x5A2 JUMPI PUSH2 0x5A1 PUSH2 0x54D JUMP JUMPDEST JUMPDEST DUP1 PUSH1 0x40 MSTORE POP POP POP JUMP JUMPDEST PUSH0 PUSH2 0x5B4 PUSH2 0x429 JUMP JUMPDEST SWAP1 POP PUSH2 0x5C0 DUP3 DUP3 PUSH2 0x57A JUMP JUMPDEST SWAP2 SWAP1 POP JUMP JUMPDEST PUSH0 PUSH8 0xFFFFFFFFFFFFFFFF DUP3 GT ISZERO PUSH2 0x5DF JUMPI PUSH2 0x5DE PUSH2 0x54D JUMP JUMPDEST JUMPDEST PUSH2 0x5E8 DUP3 PUSH2 0x4C0 JUMP JUMPDEST SWAP1 POP PUSH1 0x20 DUP2 ADD SWAP1 POP SWAP2 SWAP1 POP JUMP JUMPDEST DUP3 DUP2 DUP4 CALLDATACOPY PUSH0 DUP4 DUP4 ADD MSTORE POP POP POP JUMP JUMPDEST PUSH0 PUSH2 0x615 PUSH2 0x610 DUP5 PUSH2 0x5C5 JUMP JUMPDEST PUSH2 0x5AB JUMP JUMPDEST SWAP1 POP DUP3 DUP2 MSTORE PUSH1 0x20 DUP2 ADD DUP5 DUP5 DUP5 ADD GT ISZERO PUSH2 0x631 JUMPI PUSH2 0x630 PUSH2 0x549 JUMP JUMPDEST JUMPDEST PUSH2 0x63C DUP5 DUP3 DUP6 PUSH2 0x5F5 JUMP JUMPDEST POP SWAP4 SWAP3 POP POP POP JUMP JUMPDEST PUSH0 DUP3 PUSH1 0x1F DUP4 ADD SLT PUSH2 0x658 JUMPI PUSH2 0x657 PUSH2 0x545 JUMP JUMPDEST JUMPDEST DUP2 CALLDATALOAD PUSH2 0x668 DUP5 DUP3 PUSH1 0x20 DUP7 ADD PUSH2 0x603 JUMP JUMPDEST SWAP2 POP POP SWAP3 SWAP2 POP POP JUMP JUMPDEST PUSH0 PUSH1 0x20 DUP3 DUP5 SUB SLT ISZERO PUSH2 0x686 JUMPI PUSH2 0x685 PUSH2 0x432 JUMP JUMPDEST JUMPDEST PUSH0 DUP3 ADD CALLDATALOAD PUSH8 0xFFFFFFFFFFFFFFFF DUP2 GT ISZERO PUSH2 0x6A3 JUMPI PUSH2 0x6A2 PUSH2 0x436 JUMP JUMPDEST JUMPDEST PUSH2 0x6AF DUP5 DUP3 DUP6 ADD PUSH2 0x644 JUMP JUMPDEST SWAP2 POP POP SWAP3 SWAP2 POP POP JUMP JUMPDEST PUSH32 0x4E6F2070726F706F73616C7320617661696C61626C6500000000000000000000 PUSH0 DUP3 ADD MSTORE POP JUMP JUMPDEST PUSH0 PUSH2 0x6EC PUSH1 0x16 DUP4 PUSH2 0x4A2 JUMP JUMPDEST SWAP2 POP PUSH2 0x6F7 DUP3 PUSH2 0x6B8 JUMP JUMPDEST PUSH1 0x20 DUP3 ADD SWAP1 POP SWAP2 SWAP1 POP JUMP JUMPDEST PUSH0 PUSH1 0x20 DUP3 ADD SWAP1 POP DUP2 DUP2 SUB PUSH0 DUP4 ADD MSTORE PUSH2 0x719 DUP2 PUSH2 0x6E0 JUMP JUMPDEST SWAP1 POP SWAP2 SWAP1 POP JUMP JUMPDEST PUSH32 0x416C726561647920766F746564206F6E20746869732070726F706F73616C0000 PUSH0 DUP3 ADD MSTORE POP JUMP JUMPDEST PUSH0 PUSH2 0x754 PUSH1 0x1E DUP4 PUSH2 0x4A2 JUMP JUMPDEST SWAP2 POP PUSH2 0x75F DUP3 PUSH2 0x720 JUMP JUMPDEST PUSH1 0x20 DUP3 ADD SWAP1 POP SWAP2 SWAP1 POP JUMP JUMPDEST PUSH0 PUSH1 0x20 DUP3 ADD SWAP1 POP DUP2 DUP2 SUB PUSH0 DUP4 ADD MSTORE PUSH2 0x781 DUP2 PUSH2 0x748 JUMP JUMPDEST SWAP1 POP SWAP2 SWAP1 POP JUMP JUMPDEST PUSH32 0x4E487B7100000000000000000000000000000000000000000000000000000000 PUSH0 MSTORE PUSH1 0x32 PUSH1 0x4 MSTORE PUSH1 0x24 PUSH0 REVERT JUMPDEST PUSH32 0x4E487B7100000000000000000000000000000000000000000000000000000000 PUSH0 MSTORE PUSH1 0x11 PUSH1 0x4 MSTORE PUSH1 0x24 PUSH0 REVERT JUMPDEST PUSH0 PUSH2 0x7EC DUP3 PUSH2 0x43A JUMP JUMPDEST SWAP2 POP PUSH32 0xFFFFFFFFFFFFFFFFFFFFFFFFFFFFFFFFFFFFFFFFFFFFFFFFFFFFFFFFFFFFFFFF DUP3 SUB PUSH2 0x81E JUMPI PUSH2 0x81D PUSH2 0x7B5 JUMP JUMPDEST JUMPDEST PUSH1 0x1 DUP3 ADD SWAP1 POP SWAP2 SWAP1 POP JUMP JUMPDEST PUSH0 PUSH1 0x40 DUP3 ADD SWAP1 POP PUSH2 0x83C PUSH0 DUP4 ADD DUP6 PUSH2 0x508 JUMP JUMPDEST PUSH2 0x849 PUSH1 0x20 DUP4 ADD DUP5 PUSH2 0x508 JUMP JUMPDEST SWAP4 SWAP3 POP POP POP JUMP JUMPDEST PUSH32 0x4E487B7100000000000000000000000000000000000000000000000000000000 PUSH0 MSTORE PUSH1 0x22 PUSH1 0x4 MSTORE PUSH1 0x24 PUSH0 REVERT JUMPDEST PUSH0 PUSH1 0x2 DUP3 DIV SWAP1 POP PUSH1 0x1 DUP3 AND DUP1 PUSH2 0x894 JUMPI PUSH1 0x7F DUP3 AND SWAP2 POP JUMPDEST PUSH1 0x20 DUP3 LT DUP2 SUB PUSH2 0x8A7 JUMPI PUSH2 0x8A6 PUSH2 0x850 JUMP JUMPDEST JUMPDEST POP SWAP2 SWAP1 POP JUMP JUMPDEST PUSH0 DUP2 SWAP1 POP DUP2 PUSH0 MSTORE PUSH1 0x20 PUSH0 KECCAK256 SWAP1 POP SWAP2 SWAP1 POP JUMP JUMPDEST PUSH0 PUSH1 0x20 PUSH1 0x1F DUP4 ADD DIV SWAP1 POP SWAP2 SWAP1 POP JUMP JUMPDEST PUSH0 DUP3 DUP3 SHL SWAP1 POP SWAP3 SWAP2 POP POP JUMP JUMPDEST PUSH0 PUSH1 0x8 DUP4 MUL PUSH2 0x909 PUSH32 0xFFFFFFFFFFFFFFFFFFFFFFFFFFFFFFFFFFFFFFFFFFFFFFFFFFFFFFFFFFFFFFFF DUP3 PUSH2 0x8CE JUMP JUMPDEST PUSH2 0x913 DUP7 DUP4 PUSH2 0x8CE JUMP JUMPDEST SWAP6 POP DUP1 NOT DUP5 AND SWAP4 POP DUP1 DUP7 AND DUP5 OR SWAP3 POP POP POP SWAP4 SWAP3 POP POP POP JUMP JUMPDEST PUSH0 DUP2 SWAP1 POP SWAP2 SWAP1 POP JUMP JUMPDEST PUSH0 PUSH2 0x94E PUSH2 0x949 PUSH2 0x944 DUP5 PUSH2 0x43A JUMP JUMPDEST PUSH2 0x92B JUMP JUMPDEST PUSH2 0x43A JUMP JUMPDEST SWAP1 POP SWAP2 SWAP1 POP JUMP JUMPDEST PUSH0 DUP2 SWAP1 POP SWAP2 SWAP1 POP JUMP JUMPDEST PUSH2 0x967 DUP4 PUSH2 0x934 JUMP JUMPDEST PUSH2 0x97B PUSH2 0x973 DUP3 PUSH2 0x955 JUMP JUMPDEST DUP5 DUP5 SLOAD PUSH2 0x8DA JUMP JUMPDEST DUP3 SSTORE POP POP POP POP JUMP JUMPDEST PUSH0 PUSH0 SWAP1 POP SWAP1 JUMP JUMPDEST PUSH2 0x992 PUSH2 0x983 JUMP JUMPDEST PUSH2 0x99D DUP2 DUP5 DUP5 PUSH2 0x95E JUMP JUMPDEST POP POP POP JUMP JUMPDEST JUMPDEST DUP2 DUP2 LT ISZERO PUSH2 0x9C0 JUMPI PUSH2 0x9B5 PUSH0 DUP3 PUSH2 0x98A JUMP JUMPDEST PUSH1 0x1 DUP2 ADD SWAP1 POP PUSH2 0x9A3 JUMP JUMPDEST POP POP JUMP JUMPDEST PUSH1 0x1F DUP3 GT ISZERO PUSH2 0xA05 JUMPI PUSH2 0x9D6 DUP2 PUSH2 0x8AD JUMP JUMPDEST PUSH2 0x9DF DUP5 PUSH2 0x8BF JUMP JUMPDEST DUP2 ADD PUSH1 0x20 DUP6 LT ISZERO PUSH2 0x9EE JUMPI DUP2 SWAP1 POP JUMPDEST PUSH2 0xA02 PUSH2 0x9FA DUP6 PUSH2 0x8BF JUMP JUMPDEST DUP4 ADD DUP3 PUSH2 0x9A2 JUMP JUMPDEST POP POP JUMPDEST POP POP POP JUMP JUMPDEST PUSH0 DUP3 DUP3 SHR SWAP1 POP SWAP3 SWAP2 POP POP JUMP JUMPDEST PUSH0 PUSH2 0xA25 PUSH0 NOT DUP5 PUSH1 0x8 MUL PUSH2 0xA0A JUMP JUMPDEST NOT DUP1 DUP4 AND SWAP2 POP POP SWAP3 SWAP2 POP POP JUMP JUMPDEST PUSH0 PUSH2 0xA3D DUP4 DUP4 PUSH2 0xA16 JUMP JUMPDEST SWAP2 POP DUP3 PUSH1 0x2 MUL DUP3 OR SWAP1 POP SWAP3 SWAP2 POP POP JUMP JUMPDEST PUSH2 0xA56 DUP3 PUSH2 0x498 JUMP JUMPDEST PUSH8 0xFFFFFFFFFFFFFFFF DUP2 GT ISZERO PUSH2 0xA6F JUMPI PUSH2 0xA6E PUSH2 0x54D JUMP JUMPDEST JUMPDEST PUSH2 0xA79 DUP3 SLOAD PUSH2 0x87D JUMP JUMPDEST PUSH2 0xA84 DUP3 DUP3 DUP6 PUSH2 0x9C4 JUMP JUMPDEST PUSH0 PUSH1 0x20 SWAP1 POP PUSH1 0x1F DUP4 GT PUSH1 0x1 DUP2 EQ PUSH2 0xAB5 JUMPI PUSH0 DUP5 ISZERO PUSH2 0xAA3 JUMPI DUP3 DUP8 ADD MLOAD SWAP1 POP JUMPDEST PUSH2 0xAAD DUP6 DUP3 PUSH2 0xA32 JUMP JUMPDEST DUP7 SSTORE POP PUSH2 0xB14 JUMP JUMPDEST PUSH1 0x1F NOT DUP5 AND PUSH2 0xAC3 DUP7 PUSH2 0x8AD JUMP JUMPDEST PUSH0 JUMPDEST DUP3 DUP2 LT ISZERO PUSH2 0xAEA JUMPI DUP5 DUP10 ADD MLOAD DUP3 SSTORE PUSH1 0x1 DUP3 ADD SWAP2 POP PUSH1 0x20 DUP6 ADD SWAP5 POP PUSH1 0x20 DUP2 ADD SWAP1 POP PUSH2 0xAC5 JUMP JUMPDEST DUP7 DUP4 LT ISZERO PUSH2 0xB07 JUMPI DUP5 DUP10 ADD MLOAD PUSH2 0xB03 PUSH1 0x1F DUP10 AND DUP3 PUSH2 0xA16 JUMP JUMPDEST DUP4 SSTORE POP JUMPDEST PUSH1 0x1 PUSH1 0x2 DUP9 MUL ADD DUP9 SSTORE POP POP POP JUMPDEST POP POP POP POP POP POP JUMP JUMPDEST PUSH0 PUSH2 0xB26 DUP3 PUSH2 0x43A JUMP JUMPDEST SWAP2 POP PUSH2 0xB31 DUP4 PUSH2 0x43A JUMP JUMPDEST SWAP3 POP DUP3 DUP3 SUB SWAP1 POP DUP2 DUP2 GT ISZERO PUSH2 0xB49 JUMPI PUSH2 0xB48 PUSH2 0x7B5 JUMP JUMPDEST JUMPDEST SWAP3 SWAP2 POP POP JUMP INVALID LOG2 PUSH5 0x6970667358 0x22 SLT KECCAK256 0xE2 SWAP16 0xCF SWAP4 EXP CODESIZE 0xD4 SLT RETURN CALL 0x22 PUSH28 0xB6A07E4C4063698B99F1494D35B498C0D4B8D9A864736F6C63430008 0x1E STOP CALLER "
				},
				"gasEstimates": {
					"creation": {
						"codeDepositCost": "589800",
						"executionCost": "623",
						"totalCost": "590423"
					},
					"external": {
						"createProposal(string)": "infinite",
						"proposals(uint256)": "infinite",
						"vote(uint256)": "infinite"
					}
				},
				"methodIdentifiers": {
					"createProposal(string)": "49c2a1a6",
					"proposals(uint256)": "013cf08b",
					"vote(uint256)": "0121b93f"
				}
			},
			"storageLayout": {
				"storage": [
					{
						"astId": 10,
						"contract": "contracts/PHASE INHERITANCE/Access-Controlled Voting.sol:BaseVoting",
						"label": "proposals",
						"offset": 0,
						"slot": "0",
						"type": "t_array(t_struct(Proposal)6_storage)dyn_storage"
					},
					{
						"astId": 15,
						"contract": "contracts/PHASE INHERITANCE/Access-Controlled Voting.sol:BaseVoting",
						"label": "id",
						"offset": 0,
						"slot": "1",
						"type": "t_mapping(t_uint256,t_struct(Proposal)6_storage)"
					},
					{
						"astId": 21,
						"contract": "contracts/PHASE INHERITANCE/Access-Controlled Voting.sol:BaseVoting",
						"label": "hasVoted",
						"offset": 0,
						"slot": "2",
						"type": "t_mapping(t_uint256,t_mapping(t_address,t_bool))"
					}
				],
				"types": {
					"t_address": {
						"encoding": "inplace",
						"label": "address",
						"numberOfBytes": "20"
					},
					"t_array(t_struct(Proposal)6_storage)dyn_storage": {
						"base": "t_struct(Proposal)6_storage",
						"encoding": "dynamic_array",
						"label": "struct BaseVoting.Proposal[]",
						"numberOfBytes": "32"
					},
					"t_bool": {
						"encoding": "inplace",
						"label": "bool",
						"numberOfBytes": "1"
					},
					"t_mapping(t_address,t_bool)": {
						"encoding": "mapping",
						"key": "t_address",
						"label": "mapping(address => bool)",
						"numberOfBytes": "32",
						"value": "t_bool"
					},
					"t_mapping(t_uint256,t_mapping(t_address,t_bool))": {
						"encoding": "mapping",
						"key": "t_uint256",
						"label": "mapping(uint256 => mapping(address => bool))",
						"numberOfBytes": "32",
						"value": "t_mapping(t_address,t_bool)"
					},
					"t_mapping(t_uint256,t_struct(Proposal)6_storage)": {
						"encoding": "mapping",
						"key": "t_uint256",
						"label": "mapping(uint256 => struct BaseVoting.Proposal)",
						"numberOfBytes": "32",
						"value": "t_struct(Proposal)6_storage"
					},
					"t_string_storage": {
						"encoding": "bytes",
						"label": "string",
						"numberOfBytes": "32"
					},
					"t_struct(Proposal)6_storage": {
						"encoding": "inplace",
						"label": "struct BaseVoting.Proposal",
						"members": [
							{
								"astId": 3,
								"contract": "contracts/PHASE INHERITANCE/Access-Controlled Voting.sol:BaseVoting",
								"label": "name",
								"offset": 0,
								"slot": "0",
								"type": "t_string_storage"
							},
							{
								"astId": 5,
								"contract": "contracts/PHASE INHERITANCE/Access-Controlled Voting.sol:BaseVoting",
								"label": "voteCount",
								"offset": 0,
								"slot": "1",
								"type": "t_uint256"
							}
						],
						"numberOfBytes": "64"
					},
					"t_uint256": {
						"encoding": "inplace",
						"label": "uint256",
						"numberOfBytes": "32"
					}
				}
			},
			"userdoc": {
				"kind": "user",
				"methods": {},
				"version": 1
			}
		}
	}
}