{
	"contracts/PHASE INHERITANCE/Multi-Role Bank System.sol": {
		"PremiumBank": {
			"abi": [
				{
					"anonymous": false,
					"inputs": [
						{
							"indexed": true,
							"internalType": "address",
							"name": "sender",
							"type": "address"
						},
						{
							"indexed": false,
							"internalType": "uint256",
							"name": "value",
							"type": "uint256"
						}
					],
					"name": "Deposit",
					"type": "event"
				},
				{
					"anonymous": false,
					"inputs": [
						{
							"indexed": true,
							"internalType": "address",
							"name": "sender",
							"type": "address"
						},
						{
							"indexed": false,
							"internalType": "uint256",
							"name": "value",
							"type": "uint256"
						}
					],
					"name": "Fallback",
					"type": "event"
				},
				{
					"anonymous": false,
					"inputs": [
						{
							"indexed": false,
							"internalType": "uint256",
							"name": "newFee",
							"type": "uint256"
						},
						{
							"indexed": false,
							"internalType": "uint256",
							"name": "timestamp",
							"type": "uint256"
						}
					],
					"name": "FeeUpdated",
					"type": "event"
				},
				{
					"anonymous": false,
					"inputs": [
						{
							"indexed": false,
							"internalType": "address",
							"name": "recipient",
							"type": "address"
						},
						{
							"indexed": false,
							"internalType": "uint256",
							"name": "value",
							"type": "uint256"
						}
					],
					"name": "FeesWithdrawn",
					"type": "event"
				},
				{
					"anonymous": false,
					"inputs": [
						{
							"indexed": true,
							"internalType": "address",
							"name": "user",
							"type": "address"
						},
						{
							"indexed": false,
							"internalType": "uint256",
							"name": "timestamp",
							"type": "uint256"
						}
					],
					"name": "PremiumUserAdded",
					"type": "event"
				},
				{
					"anonymous": false,
					"inputs": [
						{
							"indexed": true,
							"internalType": "address",
							"name": "user",
							"type": "address"
						},
						{
							"indexed": false,
							"internalType": "uint256",
							"name": "timestamp",
							"type": "uint256"
						}
					],
					"name": "PremiumUserRemoved",
					"type": "event"
				},
				{
					"anonymous": false,
					"inputs": [
						{
							"indexed": true,
							"internalType": "address",
							"name": "sender",
							"type": "address"
						},
						{
							"indexed": false,
							"internalType": "uint256",
							"name": "value",
							"type": "uint256"
						}
					],
					"name": "Receive",
					"type": "event"
				},
				{
					"anonymous": false,
					"inputs": [
						{
							"indexed": true,
							"internalType": "address",
							"name": "recipient",
							"type": "address"
						},
						{
							"indexed": false,
							"internalType": "uint256",
							"name": "value",
							"type": "uint256"
						}
					],
					"name": "Withdraw",
					"type": "event"
				},
				{
					"stateMutability": "payable",
					"type": "fallback"
				},
				{
					"inputs": [
						{
							"internalType": "address",
							"name": "_user",
							"type": "address"
						}
					],
					"name": "addPremiumUser",
					"outputs": [],
					"stateMutability": "nonpayable",
					"type": "function"
				},
				{
					"inputs": [
						{
							"internalType": "address",
							"name": "",
							"type": "address"
						}
					],
					"name": "balanceOf",
					"outputs": [
						{
							"internalType": "uint256",
							"name": "",
							"type": "uint256"
						}
					],
					"stateMutability": "view",
					"type": "function"
				},
				{
					"inputs": [],
					"name": "deposit",
					"outputs": [],
					"stateMutability": "payable",
					"type": "function"
				},
				{
					"inputs": [],
					"name": "feePercentage",
					"outputs": [
						{
							"internalType": "uint256",
							"name": "",
							"type": "uint256"
						}
					],
					"stateMutability": "view",
					"type": "function"
				},
				{
					"inputs": [],
					"name": "owner",
					"outputs": [
						{
							"internalType": "address",
							"name": "",
							"type": "address"
						}
					],
					"stateMutability": "view",
					"type": "function"
				},
				{
					"inputs": [
						{
							"internalType": "address",
							"name": "",
							"type": "address"
						}
					],
					"name": "premiumUser",
					"outputs": [
						{
							"internalType": "bool",
							"name": "",
							"type": "bool"
						}
					],
					"stateMutability": "view",
					"type": "function"
				},
				{
					"inputs": [
						{
							"internalType": "address",
							"name": "_user",
							"type": "address"
						}
					],
					"name": "removePremiumUser",
					"outputs": [],
					"stateMutability": "nonpayable",
					"type": "function"
				},
				{
					"inputs": [
						{
							"internalType": "uint256",
							"name": "_newFeePerc",
							"type": "uint256"
						}
					],
					"name": "updateFee",
					"outputs": [],
					"stateMutability": "nonpayable",
					"type": "function"
				},
				{
					"inputs": [
						{
							"internalType": "uint256",
							"name": "_amount",
							"type": "uint256"
						}
					],
					"name": "withdraw",
					"outputs": [],
					"stateMutability": "nonpayable",
					"type": "function"
				},
				{
					"inputs": [
						{
							"internalType": "uint256",
							"name": "_amount",
							"type": "uint256"
						},
						{
							"internalType": "bool",
							"name": "chargeFee",
							"type": "bool"
						}
					],
					"name": "withdraw",
					"outputs": [],
					"stateMutability": "nonpayable",
					"type": "function"
				},
				{
					"stateMutability": "payable",
					"type": "receive"
				}
			],
			"devdoc": {
				"kind": "dev",
				"methods": {},
				"version": 1
			},
			"evm": {
				"assembly": "    /* \"contracts/PHASE INHERITANCE/Multi-Role Bank System.sol\":2622:3316  contract PremiumBank is FeeBank{... */\n  mstore(0x40, 0x80)\n    /* \"contracts/PHASE INHERITANCE/Multi-Role Bank System.sol\":1788:1790  10 */\n  0x0a\n    /* \"contracts/PHASE INHERITANCE/Multi-Role Bank System.sol\":1760:1790  uint public feePercentage = 10 */\n  0x02\n  sstore\n    /* \"contracts/PHASE INHERITANCE/Multi-Role Bank System.sol\":2622:3316  contract PremiumBank is FeeBank{... */\n  callvalue\n  dup1\n  iszero\n  tag_1\n  jumpi\n  revert(0x00, 0x00)\ntag_1:\n  pop\n    /* \"contracts/PHASE INHERITANCE/Multi-Role Bank System.sol\":935:945  msg.sender */\n  caller\n    /* \"contracts/PHASE INHERITANCE/Multi-Role Bank System.sol\":927:932  owner */\n  0x00\n  0x00\n    /* \"contracts/PHASE INHERITANCE/Multi-Role Bank System.sol\":927:945  owner = msg.sender */\n  0x0100\n  exp\n  dup2\n  sload\n  dup2\n  0xffffffffffffffffffffffffffffffffffffffff\n  mul\n  not\n  and\n  swap1\n  dup4\n  0xffffffffffffffffffffffffffffffffffffffff\n  and\n  mul\n  or\n  swap1\n  sstore\n  pop\n    /* \"contracts/PHASE INHERITANCE/Multi-Role Bank System.sol\":2622:3316  contract PremiumBank is FeeBank{... */\n  dataSize(sub_0)\n  dup1\n  dataOffset(sub_0)\n  0x00\n  codecopy\n  0x00\n  return\nstop\n\nsub_0: assembly {\n        /* \"contracts/PHASE INHERITANCE/Multi-Role Bank System.sol\":2622:3316  contract PremiumBank is FeeBank{... */\n      mstore(0x40, 0x80)\n      jumpi(tag_1, lt(calldatasize, 0x04))\n      shr(0xe0, calldataload(0x00))\n      dup1\n      0x8da5cb5b\n      gt\n      tag_13\n      jumpi\n      dup1\n      0x8da5cb5b\n      eq\n      tag_8\n      jumpi\n      dup1\n      0x9012c4a8\n      eq\n      tag_9\n      jumpi\n      dup1\n      0xa001ecdd\n      eq\n      tag_10\n      jumpi\n      dup1\n      0xaeffed29\n      eq\n      tag_11\n      jumpi\n      dup1\n      0xd0e30db0\n      eq\n      tag_12\n      jumpi\n      jump(tag_2)\n    tag_13:\n      dup1\n      0x2e1a7d4d\n      eq\n      tag_3\n      jumpi\n      dup1\n      0x38d07436\n      eq\n      tag_4\n      jumpi\n      dup1\n      0x6deb88fc\n      eq\n      tag_5\n      jumpi\n      dup1\n      0x70a08231\n      eq\n      tag_6\n      jumpi\n      dup1\n      0x772f8316\n      eq\n      tag_7\n      jumpi\n      jump(tag_2)\n    tag_1:\n      jumpi(tag_2, calldatasize)\n        /* \"contracts/PHASE INHERITANCE/Multi-Role Bank System.sol\":1154:1163  msg.value */\n      callvalue\n        /* \"contracts/PHASE INHERITANCE/Multi-Role Bank System.sol\":1129:1138  balanceOf */\n      0x01\n        /* \"contracts/PHASE INHERITANCE/Multi-Role Bank System.sol\":1129:1150  balanceOf[msg.sender] */\n      0x00\n        /* \"contracts/PHASE INHERITANCE/Multi-Role Bank System.sol\":1139:1149  msg.sender */\n      caller\n        /* \"contracts/PHASE INHERITANCE/Multi-Role Bank System.sol\":1129:1150  balanceOf[msg.sender] */\n      0xffffffffffffffffffffffffffffffffffffffff\n      and\n      0xffffffffffffffffffffffffffffffffffffffff\n      and\n      dup2\n      mstore\n      0x20\n      add\n      swap1\n      dup2\n      mstore\n      0x20\n      add\n      0x00\n      keccak256\n      0x00\n        /* \"contracts/PHASE INHERITANCE/Multi-Role Bank System.sol\":1129:1163  balanceOf[msg.sender] += msg.value */\n      dup3\n      dup3\n      sload\n      tag_16\n      swap2\n      swap1\n      tag_17\n      jump\t// in\n    tag_16:\n      swap3\n      pop\n      pop\n      dup2\n      swap1\n      sstore\n      pop\n        /* \"contracts/PHASE INHERITANCE/Multi-Role Bank System.sol\":1186:1196  msg.sender */\n      caller\n        /* \"contracts/PHASE INHERITANCE/Multi-Role Bank System.sol\":1178:1208  Receive(msg.sender, msg.value) */\n      0xffffffffffffffffffffffffffffffffffffffff\n      and\n      0xd6717f327e0cb88b4a97a7f67a453e9258252c34937ccbdd86de7cb840e7def3\n        /* \"contracts/PHASE INHERITANCE/Multi-Role Bank System.sol\":1198:1207  msg.value */\n      callvalue\n        /* \"contracts/PHASE INHERITANCE/Multi-Role Bank System.sol\":1178:1208  Receive(msg.sender, msg.value) */\n      mload(0x40)\n      tag_18\n      swap2\n      swap1\n      tag_19\n      jump\t// in\n    tag_18:\n      mload(0x40)\n      dup1\n      swap2\n      sub\n      swap1\n      log2\n        /* \"contracts/PHASE INHERITANCE/Multi-Role Bank System.sol\":2622:3316  contract PremiumBank is FeeBank{... */\n      stop\n    tag_2:\n        /* \"contracts/PHASE INHERITANCE/Multi-Role Bank System.sol\":1283:1292  msg.value */\n      callvalue\n        /* \"contracts/PHASE INHERITANCE/Multi-Role Bank System.sol\":1258:1267  balanceOf */\n      0x01\n        /* \"contracts/PHASE INHERITANCE/Multi-Role Bank System.sol\":1258:1279  balanceOf[msg.sender] */\n      0x00\n        /* \"contracts/PHASE INHERITANCE/Multi-Role Bank System.sol\":1268:1278  msg.sender */\n      caller\n        /* \"contracts/PHASE INHERITANCE/Multi-Role Bank System.sol\":1258:1279  balanceOf[msg.sender] */\n      0xffffffffffffffffffffffffffffffffffffffff\n      and\n      0xffffffffffffffffffffffffffffffffffffffff\n      and\n      dup2\n      mstore\n      0x20\n      add\n      swap1\n      dup2\n      mstore\n      0x20\n      add\n      0x00\n      keccak256\n      0x00\n        /* \"contracts/PHASE INHERITANCE/Multi-Role Bank System.sol\":1258:1292  balanceOf[msg.sender] += msg.value */\n      dup3\n      dup3\n      sload\n      tag_22\n      swap2\n      swap1\n      tag_17\n      jump\t// in\n    tag_22:\n      swap3\n      pop\n      pop\n      dup2\n      swap1\n      sstore\n      pop\n        /* \"contracts/PHASE INHERITANCE/Multi-Role Bank System.sol\":1316:1326  msg.sender */\n      caller\n        /* \"contracts/PHASE INHERITANCE/Multi-Role Bank System.sol\":1307:1338  Fallback(msg.sender, msg.value) */\n      0xffffffffffffffffffffffffffffffffffffffff\n      and\n      0xfbf15a1bae5e021d024841007b692b167afd2a281a4ff0b44f47387eb388205c\n        /* \"contracts/PHASE INHERITANCE/Multi-Role Bank System.sol\":1328:1337  msg.value */\n      callvalue\n        /* \"contracts/PHASE INHERITANCE/Multi-Role Bank System.sol\":1307:1338  Fallback(msg.sender, msg.value) */\n      mload(0x40)\n      tag_23\n      swap2\n      swap1\n      tag_19\n      jump\t// in\n    tag_23:\n      mload(0x40)\n      dup1\n      swap2\n      sub\n      swap1\n      log2\n        /* \"contracts/PHASE INHERITANCE/Multi-Role Bank System.sol\":2622:3316  contract PremiumBank is FeeBank{... */\n      stop\n        /* \"contracts/PHASE INHERITANCE/Multi-Role Bank System.sol\":3152:3314  function withdraw(uint _amount) public override nonreentrant{... */\n    tag_3:\n      callvalue\n      dup1\n      iszero\n      tag_24\n      jumpi\n      revert(0x00, 0x00)\n    tag_24:\n      pop\n      tag_25\n      0x04\n      dup1\n      calldatasize\n      sub\n      dup2\n      add\n      swap1\n      tag_26\n      swap2\n      swap1\n      tag_27\n      jump\t// in\n    tag_26:\n      tag_28\n      jump\t// in\n    tag_25:\n      stop\n        /* \"contracts/PHASE INHERITANCE/Multi-Role Bank System.sol\":1796:2460  function withdraw(uint _amount, bool chargeFee) public virtual{... */\n    tag_4:\n      callvalue\n      dup1\n      iszero\n      tag_29\n      jumpi\n      revert(0x00, 0x00)\n    tag_29:\n      pop\n      tag_30\n      0x04\n      dup1\n      calldatasize\n      sub\n      dup2\n      add\n      swap1\n      tag_31\n      swap2\n      swap1\n      tag_32\n      jump\t// in\n    tag_31:\n      tag_33\n      jump\t// in\n    tag_30:\n      stop\n        /* \"contracts/PHASE INHERITANCE/Multi-Role Bank System.sol\":2929:3146  function removePremiumUser(address _user) public onlyOwner{... */\n    tag_5:\n      callvalue\n      dup1\n      iszero\n      tag_34\n      jumpi\n      revert(0x00, 0x00)\n    tag_34:\n      pop\n      tag_35\n      0x04\n      dup1\n      calldatasize\n      sub\n      dup2\n      add\n      swap1\n      tag_36\n      swap2\n      swap1\n      tag_37\n      jump\t// in\n    tag_36:\n      tag_38\n      jump\t// in\n    tag_35:\n      stop\n        /* \"contracts/PHASE INHERITANCE/Multi-Role Bank System.sol\":132:173  mapping(address => uint) public balanceOf */\n    tag_6:\n      callvalue\n      dup1\n      iszero\n      tag_39\n      jumpi\n      revert(0x00, 0x00)\n    tag_39:\n      pop\n      tag_40\n      0x04\n      dup1\n      calldatasize\n      sub\n      dup2\n      add\n      swap1\n      tag_41\n      swap2\n      swap1\n      tag_37\n      jump\t// in\n    tag_41:\n      tag_42\n      jump\t// in\n    tag_40:\n      mload(0x40)\n      tag_43\n      swap2\n      swap1\n      tag_19\n      jump\t// in\n    tag_43:\n      mload(0x40)\n      dup1\n      swap2\n      sub\n      swap1\n      return\n        /* \"contracts/PHASE INHERITANCE/Multi-Role Bank System.sol\":2708:2924  function addPremiumUser(address _user) public onlyOwner{... */\n    tag_7:\n      callvalue\n      dup1\n      iszero\n      tag_44\n      jumpi\n      revert(0x00, 0x00)\n    tag_44:\n      pop\n      tag_45\n      0x04\n      dup1\n      calldatasize\n      sub\n      dup2\n      add\n      swap1\n      tag_46\n      swap2\n      swap1\n      tag_37\n      jump\t// in\n    tag_46:\n      tag_47\n      jump\t// in\n    tag_45:\n      stop\n        /* \"contracts/PHASE INHERITANCE/Multi-Role Bank System.sol\":81:101  address public owner */\n    tag_8:\n      callvalue\n      dup1\n      iszero\n      tag_48\n      jumpi\n      revert(0x00, 0x00)\n    tag_48:\n      pop\n      tag_49\n      tag_50\n      jump\t// in\n    tag_49:\n      mload(0x40)\n      tag_51\n      swap2\n      swap1\n      tag_52\n      jump\t// in\n    tag_51:\n      mload(0x40)\n      dup1\n      swap2\n      sub\n      swap1\n      return\n        /* \"contracts/PHASE INHERITANCE/Multi-Role Bank System.sol\":2465:2618  function updateFee(uint _newFeePerc) public onlyOwner {... */\n    tag_9:\n      callvalue\n      dup1\n      iszero\n      tag_53\n      jumpi\n      revert(0x00, 0x00)\n    tag_53:\n      pop\n      tag_54\n      0x04\n      dup1\n      calldatasize\n      sub\n      dup2\n      add\n      swap1\n      tag_55\n      swap2\n      swap1\n      tag_27\n      jump\t// in\n    tag_55:\n      tag_56\n      jump\t// in\n    tag_54:\n      stop\n        /* \"contracts/PHASE INHERITANCE/Multi-Role Bank System.sol\":1760:1790  uint public feePercentage = 10 */\n    tag_10:\n      callvalue\n      dup1\n      iszero\n      tag_57\n      jumpi\n      revert(0x00, 0x00)\n    tag_57:\n      pop\n      tag_58\n      tag_59\n      jump\t// in\n    tag_58:\n      mload(0x40)\n      tag_60\n      swap2\n      swap1\n      tag_19\n      jump\t// in\n    tag_60:\n      mload(0x40)\n      dup1\n      swap2\n      sub\n      swap1\n      return\n        /* \"contracts/PHASE INHERITANCE/Multi-Role Bank System.sol\":2659:2702  mapping(address => bool) public premiumUser */\n    tag_11:\n      callvalue\n      dup1\n      iszero\n      tag_61\n      jumpi\n      revert(0x00, 0x00)\n    tag_61:\n      pop\n      tag_62\n      0x04\n      dup1\n      calldatasize\n      sub\n      dup2\n      add\n      swap1\n      tag_63\n      swap2\n      swap1\n      tag_37\n      jump\t// in\n    tag_63:\n      tag_64\n      jump\t// in\n    tag_62:\n      mload(0x40)\n      tag_65\n      swap2\n      swap1\n      tag_66\n      jump\t// in\n    tag_65:\n      mload(0x40)\n      dup1\n      swap2\n      sub\n      swap1\n      return\n        /* \"contracts/PHASE INHERITANCE/Multi-Role Bank System.sol\":957:1087  function deposit() public payable {... */\n    tag_12:\n      tag_67\n      tag_68\n      jump\t// in\n    tag_67:\n      stop\n        /* \"contracts/PHASE INHERITANCE/Multi-Role Bank System.sol\":3152:3314  function withdraw(uint _amount) public override nonreentrant{... */\n    tag_28:\n        /* \"contracts/PHASE INHERITANCE/Multi-Role Bank System.sol\":812:818  locked */\n      0x00\n      0x14\n      swap1\n      sload\n      swap1\n      0x0100\n      exp\n      swap1\n      div\n      0xff\n      and\n        /* \"contracts/PHASE INHERITANCE/Multi-Role Bank System.sol\":811:818  !locked */\n      iszero\n        /* \"contracts/PHASE INHERITANCE/Multi-Role Bank System.sol\":803:833  require(!locked, \"Reentrancy\") */\n      tag_70\n      jumpi\n      mload(0x40)\n      0x08c379a000000000000000000000000000000000000000000000000000000000\n      dup2\n      mstore\n      0x04\n      add\n      tag_71\n      swap1\n      tag_72\n      jump\t// in\n    tag_71:\n      mload(0x40)\n      dup1\n      swap2\n      sub\n      swap1\n      revert\n    tag_70:\n        /* \"contracts/PHASE INHERITANCE/Multi-Role Bank System.sol\":852:856  true */\n      0x01\n        /* \"contracts/PHASE INHERITANCE/Multi-Role Bank System.sol\":843:849  locked */\n      0x00\n      0x14\n        /* \"contracts/PHASE INHERITANCE/Multi-Role Bank System.sol\":843:856  locked = true */\n      0x0100\n      exp\n      dup2\n      sload\n      dup2\n      0xff\n      mul\n      not\n      and\n      swap1\n      dup4\n      iszero\n      iszero\n      mul\n      or\n      swap1\n      sstore\n      pop\n        /* \"contracts/PHASE INHERITANCE/Multi-Role Bank System.sol\":3222:3236  bool isPremium */\n      0x00\n        /* \"contracts/PHASE INHERITANCE/Multi-Role Bank System.sol\":3239:3250  premiumUser */\n      0x03\n        /* \"contracts/PHASE INHERITANCE/Multi-Role Bank System.sol\":3239:3262  premiumUser[msg.sender] */\n      0x00\n        /* \"contracts/PHASE INHERITANCE/Multi-Role Bank System.sol\":3251:3261  msg.sender */\n      caller\n        /* \"contracts/PHASE INHERITANCE/Multi-Role Bank System.sol\":3239:3262  premiumUser[msg.sender] */\n      0xffffffffffffffffffffffffffffffffffffffff\n      and\n      0xffffffffffffffffffffffffffffffffffffffff\n      and\n      dup2\n      mstore\n      0x20\n      add\n      swap1\n      dup2\n      mstore\n      0x20\n      add\n      0x00\n      keccak256\n      0x00\n      swap1\n      sload\n      swap1\n      0x0100\n      exp\n      swap1\n      div\n      0xff\n      and\n        /* \"contracts/PHASE INHERITANCE/Multi-Role Bank System.sol\":3222:3262  bool isPremium = premiumUser[msg.sender] */\n      swap1\n      pop\n        /* \"contracts/PHASE INHERITANCE/Multi-Role Bank System.sol\":3272:3307  super.withdraw(_amount, !isPremium) */\n      tag_74\n        /* \"contracts/PHASE INHERITANCE/Multi-Role Bank System.sol\":3287:3294  _amount */\n      dup3\n        /* \"contracts/PHASE INHERITANCE/Multi-Role Bank System.sol\":3297:3306  isPremium */\n      dup3\n        /* \"contracts/PHASE INHERITANCE/Multi-Role Bank System.sol\":3296:3306  !isPremium */\n      iszero\n        /* \"contracts/PHASE INHERITANCE/Multi-Role Bank System.sol\":3272:3286  super.withdraw */\n      tag_33\n        /* \"contracts/PHASE INHERITANCE/Multi-Role Bank System.sol\":3272:3307  super.withdraw(_amount, !isPremium) */\n      jump\t// in\n    tag_74:\n        /* \"contracts/PHASE INHERITANCE/Multi-Role Bank System.sol\":3212:3314  {... */\n      pop\n        /* \"contracts/PHASE INHERITANCE/Multi-Role Bank System.sol\":886:891  false */\n      0x00\n        /* \"contracts/PHASE INHERITANCE/Multi-Role Bank System.sol\":877:883  locked */\n      0x00\n      0x14\n        /* \"contracts/PHASE INHERITANCE/Multi-Role Bank System.sol\":877:891  locked = false */\n      0x0100\n      exp\n      dup2\n      sload\n      dup2\n      0xff\n      mul\n      not\n      and\n      swap1\n      dup4\n      iszero\n      iszero\n      mul\n      or\n      swap1\n      sstore\n      pop\n        /* \"contracts/PHASE INHERITANCE/Multi-Role Bank System.sol\":3152:3314  function withdraw(uint _amount) public override nonreentrant{... */\n      pop\n      jump\t// out\n        /* \"contracts/PHASE INHERITANCE/Multi-Role Bank System.sol\":1796:2460  function withdraw(uint _amount, bool chargeFee) public virtual{... */\n    tag_33:\n        /* \"contracts/PHASE INHERITANCE/Multi-Role Bank System.sol\":1872:1881  chargeFee */\n      dup1\n        /* \"contracts/PHASE INHERITANCE/Multi-Role Bank System.sol\":1868:1951  if(!chargeFee) {... */\n      tag_76\n      jumpi\n        /* \"contracts/PHASE INHERITANCE/Multi-Role Bank System.sol\":1897:1920  super.withdraw(_amount) */\n      tag_77\n        /* \"contracts/PHASE INHERITANCE/Multi-Role Bank System.sol\":1912:1919  _amount */\n      dup3\n        /* \"contracts/PHASE INHERITANCE/Multi-Role Bank System.sol\":1897:1911  super.withdraw */\n      tag_78\n        /* \"contracts/PHASE INHERITANCE/Multi-Role Bank System.sol\":1897:1920  super.withdraw(_amount) */\n      jump\t// in\n    tag_77:\n        /* \"contracts/PHASE INHERITANCE/Multi-Role Bank System.sol\":1934:1941  return; */\n      jump(tag_75)\n        /* \"contracts/PHASE INHERITANCE/Multi-Role Bank System.sol\":1868:1951  if(!chargeFee) {... */\n    tag_76:\n        /* \"contracts/PHASE INHERITANCE/Multi-Role Bank System.sol\":1960:1976  uint amountInWei */\n      0x00\n        /* \"contracts/PHASE INHERITANCE/Multi-Role Bank System.sol\":1989:1996  1 ether */\n      0x0de0b6b3a7640000\n        /* \"contracts/PHASE INHERITANCE/Multi-Role Bank System.sol\":1979:1986  _amount */\n      dup4\n        /* \"contracts/PHASE INHERITANCE/Multi-Role Bank System.sol\":1979:1996  _amount * 1 ether */\n      tag_79\n      swap2\n      swap1\n      tag_80\n      jump\t// in\n    tag_79:\n        /* \"contracts/PHASE INHERITANCE/Multi-Role Bank System.sol\":1960:1996  uint amountInWei = _amount * 1 ether */\n      swap1\n      pop\n        /* \"contracts/PHASE INHERITANCE/Multi-Role Bank System.sol\":2006:2014  uint fee */\n      0x00\n        /* \"contracts/PHASE INHERITANCE/Multi-Role Bank System.sol\":2045:2048  100 */\n      0x64\n        /* \"contracts/PHASE INHERITANCE/Multi-Role Bank System.sol\":2028:2041  feePercentage */\n      sload(0x02)\n        /* \"contracts/PHASE INHERITANCE/Multi-Role Bank System.sol\":2018:2025  _amount */\n      dup6\n        /* \"contracts/PHASE INHERITANCE/Multi-Role Bank System.sol\":2018:2041  _amount * feePercentage */\n      tag_81\n      swap2\n      swap1\n      tag_80\n      jump\t// in\n    tag_81:\n        /* \"contracts/PHASE INHERITANCE/Multi-Role Bank System.sol\":2017:2048  (_amount * feePercentage) / 100 */\n      tag_82\n      swap2\n      swap1\n      tag_83\n      jump\t// in\n    tag_82:\n        /* \"contracts/PHASE INHERITANCE/Multi-Role Bank System.sol\":2006:2048  uint fee = (_amount * feePercentage) / 100 */\n      swap1\n      pop\n        /* \"contracts/PHASE INHERITANCE/Multi-Role Bank System.sol\":2058:2069  uint payout */\n      0x00\n        /* \"contracts/PHASE INHERITANCE/Multi-Role Bank System.sol\":2082:2085  fee */\n      dup2\n        /* \"contracts/PHASE INHERITANCE/Multi-Role Bank System.sol\":2072:2079  _amount */\n      dup6\n        /* \"contracts/PHASE INHERITANCE/Multi-Role Bank System.sol\":2072:2085  _amount - fee */\n      tag_84\n      swap2\n      swap1\n      tag_85\n      jump\t// in\n    tag_84:\n        /* \"contracts/PHASE INHERITANCE/Multi-Role Bank System.sol\":2058:2085  uint payout = _amount - fee */\n      swap1\n      pop\n        /* \"contracts/PHASE INHERITANCE/Multi-Role Bank System.sol\":2128:2139  amountInWei */\n      dup3\n        /* \"contracts/PHASE INHERITANCE/Multi-Role Bank System.sol\":2103:2112  balanceOf */\n      0x01\n        /* \"contracts/PHASE INHERITANCE/Multi-Role Bank System.sol\":2103:2124  balanceOf[msg.sender] */\n      0x00\n        /* \"contracts/PHASE INHERITANCE/Multi-Role Bank System.sol\":2113:2123  msg.sender */\n      caller\n        /* \"contracts/PHASE INHERITANCE/Multi-Role Bank System.sol\":2103:2124  balanceOf[msg.sender] */\n      0xffffffffffffffffffffffffffffffffffffffff\n      and\n      0xffffffffffffffffffffffffffffffffffffffff\n      and\n      dup2\n      mstore\n      0x20\n      add\n      swap1\n      dup2\n      mstore\n      0x20\n      add\n      0x00\n      keccak256\n      sload\n        /* \"contracts/PHASE INHERITANCE/Multi-Role Bank System.sol\":2103:2139  balanceOf[msg.sender] >= amountInWei */\n      lt\n      iszero\n        /* \"contracts/PHASE INHERITANCE/Multi-Role Bank System.sol\":2095:2162  require(balanceOf[msg.sender] >= amountInWei, \"Insufficient funds\") */\n      tag_86\n      jumpi\n      mload(0x40)\n      0x08c379a000000000000000000000000000000000000000000000000000000000\n      dup2\n      mstore\n      0x04\n      add\n      tag_87\n      swap1\n      tag_88\n      jump\t// in\n    tag_87:\n      mload(0x40)\n      dup1\n      swap2\n      sub\n      swap1\n      revert\n    tag_86:\n        /* \"contracts/PHASE INHERITANCE/Multi-Role Bank System.sol\":2203:2210  1 ether */\n      0x0de0b6b3a7640000\n        /* \"contracts/PHASE INHERITANCE/Multi-Role Bank System.sol\":2197:2200  fee */\n      dup3\n        /* \"contracts/PHASE INHERITANCE/Multi-Role Bank System.sol\":2197:2210  fee * 1 ether */\n      tag_89\n      swap2\n      swap1\n      tag_80\n      jump\t// in\n    tag_89:\n        /* \"contracts/PHASE INHERITANCE/Multi-Role Bank System.sol\":2172:2181  balanceOf */\n      0x01\n        /* \"contracts/PHASE INHERITANCE/Multi-Role Bank System.sol\":2172:2193  balanceOf[msg.sender] */\n      0x00\n        /* \"contracts/PHASE INHERITANCE/Multi-Role Bank System.sol\":2182:2192  msg.sender */\n      caller\n        /* \"contracts/PHASE INHERITANCE/Multi-Role Bank System.sol\":2172:2193  balanceOf[msg.sender] */\n      0xffffffffffffffffffffffffffffffffffffffff\n      and\n      0xffffffffffffffffffffffffffffffffffffffff\n      and\n      dup2\n      mstore\n      0x20\n      add\n      swap1\n      dup2\n      mstore\n      0x20\n      add\n      0x00\n      keccak256\n      0x00\n        /* \"contracts/PHASE INHERITANCE/Multi-Role Bank System.sol\":2172:2210  balanceOf[msg.sender] -= fee * 1 ether */\n      dup3\n      dup3\n      sload\n      tag_90\n      swap2\n      swap1\n      tag_85\n      jump\t// in\n    tag_90:\n      swap3\n      pop\n      pop\n      dup2\n      swap1\n      sstore\n      pop\n        /* \"contracts/PHASE INHERITANCE/Multi-Role Bank System.sol\":2220:2242  super.withdraw(payout) */\n      tag_91\n        /* \"contracts/PHASE INHERITANCE/Multi-Role Bank System.sol\":2235:2241  payout */\n      dup2\n        /* \"contracts/PHASE INHERITANCE/Multi-Role Bank System.sol\":2220:2234  super.withdraw */\n      tag_78\n        /* \"contracts/PHASE INHERITANCE/Multi-Role Bank System.sol\":2220:2242  super.withdraw(payout) */\n      jump\t// in\n    tag_91:\n        /* \"contracts/PHASE INHERITANCE/Multi-Role Bank System.sol\":2253:2266  uint feeInWei */\n      0x00\n        /* \"contracts/PHASE INHERITANCE/Multi-Role Bank System.sol\":2275:2282  1 ether */\n      0x0de0b6b3a7640000\n        /* \"contracts/PHASE INHERITANCE/Multi-Role Bank System.sol\":2269:2272  fee */\n      dup4\n        /* \"contracts/PHASE INHERITANCE/Multi-Role Bank System.sol\":2269:2282  fee * 1 ether */\n      tag_92\n      swap2\n      swap1\n      tag_80\n      jump\t// in\n    tag_92:\n        /* \"contracts/PHASE INHERITANCE/Multi-Role Bank System.sol\":2253:2282  uint feeInWei = fee * 1 ether */\n      swap1\n      pop\n        /* \"contracts/PHASE INHERITANCE/Multi-Role Bank System.sol\":2293:2305  bool success */\n      0x00\n        /* \"contracts/PHASE INHERITANCE/Multi-Role Bank System.sol\":2319:2324  owner */\n      0x00\n      0x00\n      swap1\n      sload\n      swap1\n      0x0100\n      exp\n      swap1\n      div\n      0xffffffffffffffffffffffffffffffffffffffff\n      and\n        /* \"contracts/PHASE INHERITANCE/Multi-Role Bank System.sol\":2311:2330  payable(owner).call */\n      0xffffffffffffffffffffffffffffffffffffffff\n      and\n        /* \"contracts/PHASE INHERITANCE/Multi-Role Bank System.sol\":2337:2345  feeInWei */\n      dup3\n        /* \"contracts/PHASE INHERITANCE/Multi-Role Bank System.sol\":2311:2350  payable(owner).call{value:feeInWei}(\"\") */\n      mload(0x40)\n      tag_93\n      swap1\n      tag_94\n      jump\t// in\n    tag_93:\n      0x00\n      mload(0x40)\n      dup1\n      dup4\n      sub\n      dup2\n      dup6\n      dup8\n      gas\n      call\n      swap3\n      pop\n      pop\n      pop\n      returndatasize\n      dup1\n      0x00\n      dup2\n      eq\n      tag_97\n      jumpi\n      mload(0x40)\n      swap2\n      pop\n      and(add(returndatasize, 0x3f), not(0x1f))\n      dup3\n      add\n      0x40\n      mstore\n      returndatasize\n      dup3\n      mstore\n      returndatasize\n      0x00\n      0x20\n      dup5\n      add\n      returndatacopy\n      jump(tag_96)\n    tag_97:\n      0x60\n      swap2\n      pop\n    tag_96:\n      pop\n        /* \"contracts/PHASE INHERITANCE/Multi-Role Bank System.sol\":2292:2350  (bool success, ) = payable(owner).call{value:feeInWei}(\"\") */\n      pop\n      swap1\n      pop\n        /* \"contracts/PHASE INHERITANCE/Multi-Role Bank System.sol\":2368:2375  success */\n      dup1\n        /* \"contracts/PHASE INHERITANCE/Multi-Role Bank System.sol\":2360:2402  require(success, \"Fees Withdrawal failed\") */\n      tag_98\n      jumpi\n      mload(0x40)\n      0x08c379a000000000000000000000000000000000000000000000000000000000\n      dup2\n      mstore\n      0x04\n      add\n      tag_99\n      swap1\n      tag_100\n      jump\t// in\n    tag_99:\n      mload(0x40)\n      dup1\n      swap2\n      sub\n      swap1\n      revert\n    tag_98:\n        /* \"contracts/PHASE INHERITANCE/Multi-Role Bank System.sol\":2417:2452  FeesWithdrawn(msg.sender, feeInWei) */\n      0xc0819c13be868895eb93e40eaceb96de976442fa1d404e5c55f14bb65a8c489a\n        /* \"contracts/PHASE INHERITANCE/Multi-Role Bank System.sol\":2431:2441  msg.sender */\n      caller\n        /* \"contracts/PHASE INHERITANCE/Multi-Role Bank System.sol\":2443:2451  feeInWei */\n      dup4\n        /* \"contracts/PHASE INHERITANCE/Multi-Role Bank System.sol\":2417:2452  FeesWithdrawn(msg.sender, feeInWei) */\n      mload(0x40)\n      tag_101\n      swap3\n      swap2\n      swap1\n      tag_102\n      jump\t// in\n    tag_101:\n      mload(0x40)\n      dup1\n      swap2\n      sub\n      swap1\n      log1\n        /* \"contracts/PHASE INHERITANCE/Multi-Role Bank System.sol\":1858:2460  {... */\n      pop\n      pop\n      pop\n      pop\n      pop\n        /* \"contracts/PHASE INHERITANCE/Multi-Role Bank System.sol\":1796:2460  function withdraw(uint _amount, bool chargeFee) public virtual{... */\n    tag_75:\n      pop\n      pop\n      jump\t// out\n        /* \"contracts/PHASE INHERITANCE/Multi-Role Bank System.sol\":2929:3146  function removePremiumUser(address _user) public onlyOwner{... */\n    tag_38:\n        /* \"contracts/PHASE INHERITANCE/Multi-Role Bank System.sol\":727:732  owner */\n      0x00\n      0x00\n      swap1\n      sload\n      swap1\n      0x0100\n      exp\n      swap1\n      div\n      0xffffffffffffffffffffffffffffffffffffffff\n      and\n        /* \"contracts/PHASE INHERITANCE/Multi-Role Bank System.sol\":713:732  msg.sender == owner */\n      0xffffffffffffffffffffffffffffffffffffffff\n      and\n        /* \"contracts/PHASE INHERITANCE/Multi-Role Bank System.sol\":713:723  msg.sender */\n      caller\n        /* \"contracts/PHASE INHERITANCE/Multi-Role Bank System.sol\":713:732  msg.sender == owner */\n      0xffffffffffffffffffffffffffffffffffffffff\n      and\n      eq\n        /* \"contracts/PHASE INHERITANCE/Multi-Role Bank System.sol\":705:746  require(msg.sender == owner, \"Not Owner\") */\n      tag_104\n      jumpi\n      mload(0x40)\n      0x08c379a000000000000000000000000000000000000000000000000000000000\n      dup2\n      mstore\n      0x04\n      add\n      tag_105\n      swap1\n      tag_106\n      jump\t// in\n    tag_105:\n      mload(0x40)\n      dup1\n      swap2\n      sub\n      swap1\n      revert\n    tag_104:\n        /* \"contracts/PHASE INHERITANCE/Multi-Role Bank System.sol\":3005:3016  premiumUser */\n      0x03\n        /* \"contracts/PHASE INHERITANCE/Multi-Role Bank System.sol\":3005:3023  premiumUser[_user] */\n      0x00\n        /* \"contracts/PHASE INHERITANCE/Multi-Role Bank System.sol\":3017:3022  _user */\n      dup3\n        /* \"contracts/PHASE INHERITANCE/Multi-Role Bank System.sol\":3005:3023  premiumUser[_user] */\n      0xffffffffffffffffffffffffffffffffffffffff\n      and\n      0xffffffffffffffffffffffffffffffffffffffff\n      and\n      dup2\n      mstore\n      0x20\n      add\n      swap1\n      dup2\n      mstore\n      0x20\n      add\n      0x00\n      keccak256\n      0x00\n      swap1\n      sload\n      swap1\n      0x0100\n      exp\n      swap1\n      div\n      0xff\n      and\n        /* \"contracts/PHASE INHERITANCE/Multi-Role Bank System.sol\":2997:3046  require(premiumUser[_user], \"Not a premium user\") */\n      tag_108\n      jumpi\n      mload(0x40)\n      0x08c379a000000000000000000000000000000000000000000000000000000000\n      dup2\n      mstore\n      0x04\n      add\n      tag_109\n      swap1\n      tag_110\n      jump\t// in\n    tag_109:\n      mload(0x40)\n      dup1\n      swap2\n      sub\n      swap1\n      revert\n    tag_108:\n        /* \"contracts/PHASE INHERITANCE/Multi-Role Bank System.sol\":3077:3082  false */\n      0x00\n        /* \"contracts/PHASE INHERITANCE/Multi-Role Bank System.sol\":3056:3067  premiumUser */\n      0x03\n        /* \"contracts/PHASE INHERITANCE/Multi-Role Bank System.sol\":3056:3074  premiumUser[_user] */\n      0x00\n        /* \"contracts/PHASE INHERITANCE/Multi-Role Bank System.sol\":3068:3073  _user */\n      dup4\n        /* \"contracts/PHASE INHERITANCE/Multi-Role Bank System.sol\":3056:3074  premiumUser[_user] */\n      0xffffffffffffffffffffffffffffffffffffffff\n      and\n      0xffffffffffffffffffffffffffffffffffffffff\n      and\n      dup2\n      mstore\n      0x20\n      add\n      swap1\n      dup2\n      mstore\n      0x20\n      add\n      0x00\n      keccak256\n      0x00\n        /* \"contracts/PHASE INHERITANCE/Multi-Role Bank System.sol\":3056:3082  premiumUser[_user] = false */\n      0x0100\n      exp\n      dup2\n      sload\n      dup2\n      0xff\n      mul\n      not\n      and\n      swap1\n      dup4\n      iszero\n      iszero\n      mul\n      or\n      swap1\n      sstore\n      pop\n        /* \"contracts/PHASE INHERITANCE/Multi-Role Bank System.sol\":3116:3121  _user */\n      dup1\n        /* \"contracts/PHASE INHERITANCE/Multi-Role Bank System.sol\":3097:3139  PremiumUserRemoved(_user, block.timestamp) */\n      0xffffffffffffffffffffffffffffffffffffffff\n      and\n      0x27901402b7a88dcad52b23014a18758b42e92a996ec9bc0651ee4b1367b8a4a8\n        /* \"contracts/PHASE INHERITANCE/Multi-Role Bank System.sol\":3123:3138  block.timestamp */\n      timestamp\n        /* \"contracts/PHASE INHERITANCE/Multi-Role Bank System.sol\":3097:3139  PremiumUserRemoved(_user, block.timestamp) */\n      mload(0x40)\n      tag_111\n      swap2\n      swap1\n      tag_19\n      jump\t// in\n    tag_111:\n      mload(0x40)\n      dup1\n      swap2\n      sub\n      swap1\n      log2\n        /* \"contracts/PHASE INHERITANCE/Multi-Role Bank System.sol\":2929:3146  function removePremiumUser(address _user) public onlyOwner{... */\n      pop\n      jump\t// out\n        /* \"contracts/PHASE INHERITANCE/Multi-Role Bank System.sol\":132:173  mapping(address => uint) public balanceOf */\n    tag_42:\n      mstore(0x20, 0x01)\n      dup1\n      0x00\n      mstore\n      keccak256(0x00, 0x40)\n      0x00\n      swap2\n      pop\n      swap1\n      pop\n      sload\n      dup2\n      jump\t// out\n        /* \"contracts/PHASE INHERITANCE/Multi-Role Bank System.sol\":2708:2924  function addPremiumUser(address _user) public onlyOwner{... */\n    tag_47:\n        /* \"contracts/PHASE INHERITANCE/Multi-Role Bank System.sol\":727:732  owner */\n      0x00\n      0x00\n      swap1\n      sload\n      swap1\n      0x0100\n      exp\n      swap1\n      div\n      0xffffffffffffffffffffffffffffffffffffffff\n      and\n        /* \"contracts/PHASE INHERITANCE/Multi-Role Bank System.sol\":713:732  msg.sender == owner */\n      0xffffffffffffffffffffffffffffffffffffffff\n      and\n        /* \"contracts/PHASE INHERITANCE/Multi-Role Bank System.sol\":713:723  msg.sender */\n      caller\n        /* \"contracts/PHASE INHERITANCE/Multi-Role Bank System.sol\":713:732  msg.sender == owner */\n      0xffffffffffffffffffffffffffffffffffffffff\n      and\n      eq\n        /* \"contracts/PHASE INHERITANCE/Multi-Role Bank System.sol\":705:746  require(msg.sender == owner, \"Not Owner\") */\n      tag_113\n      jumpi\n      mload(0x40)\n      0x08c379a000000000000000000000000000000000000000000000000000000000\n      dup2\n      mstore\n      0x04\n      add\n      tag_114\n      swap1\n      tag_106\n      jump\t// in\n    tag_114:\n      mload(0x40)\n      dup1\n      swap2\n      sub\n      swap1\n      revert\n    tag_113:\n        /* \"contracts/PHASE INHERITANCE/Multi-Role Bank System.sol\":2782:2793  premiumUser */\n      0x03\n        /* \"contracts/PHASE INHERITANCE/Multi-Role Bank System.sol\":2782:2800  premiumUser[_user] */\n      0x00\n        /* \"contracts/PHASE INHERITANCE/Multi-Role Bank System.sol\":2794:2799  _user */\n      dup3\n        /* \"contracts/PHASE INHERITANCE/Multi-Role Bank System.sol\":2782:2800  premiumUser[_user] */\n      0xffffffffffffffffffffffffffffffffffffffff\n      and\n      0xffffffffffffffffffffffffffffffffffffffff\n      and\n      dup2\n      mstore\n      0x20\n      add\n      swap1\n      dup2\n      mstore\n      0x20\n      add\n      0x00\n      keccak256\n      0x00\n      swap1\n      sload\n      swap1\n      0x0100\n      exp\n      swap1\n      div\n      0xff\n      and\n        /* \"contracts/PHASE INHERITANCE/Multi-Role Bank System.sol\":2781:2800  !premiumUser[_user] */\n      iszero\n        /* \"contracts/PHASE INHERITANCE/Multi-Role Bank System.sol\":2773:2827  require(!premiumUser[_user], \"Already a premium user\") */\n      tag_116\n      jumpi\n      mload(0x40)\n      0x08c379a000000000000000000000000000000000000000000000000000000000\n      dup2\n      mstore\n      0x04\n      add\n      tag_117\n      swap1\n      tag_118\n      jump\t// in\n    tag_117:\n      mload(0x40)\n      dup1\n      swap2\n      sub\n      swap1\n      revert\n    tag_116:\n        /* \"contracts/PHASE INHERITANCE/Multi-Role Bank System.sol\":2858:2862  true */\n      0x01\n        /* \"contracts/PHASE INHERITANCE/Multi-Role Bank System.sol\":2837:2848  premiumUser */\n      0x03\n        /* \"contracts/PHASE INHERITANCE/Multi-Role Bank System.sol\":2837:2855  premiumUser[_user] */\n      0x00\n        /* \"contracts/PHASE INHERITANCE/Multi-Role Bank System.sol\":2849:2854  _user */\n      dup4\n        /* \"contracts/PHASE INHERITANCE/Multi-Role Bank System.sol\":2837:2855  premiumUser[_user] */\n      0xffffffffffffffffffffffffffffffffffffffff\n      and\n      0xffffffffffffffffffffffffffffffffffffffff\n      and\n      dup2\n      mstore\n      0x20\n      add\n      swap1\n      dup2\n      mstore\n      0x20\n      add\n      0x00\n      keccak256\n      0x00\n        /* \"contracts/PHASE INHERITANCE/Multi-Role Bank System.sol\":2837:2862  premiumUser[_user] = true */\n      0x0100\n      exp\n      dup2\n      sload\n      dup2\n      0xff\n      mul\n      not\n      and\n      swap1\n      dup4\n      iszero\n      iszero\n      mul\n      or\n      swap1\n      sstore\n      pop\n        /* \"contracts/PHASE INHERITANCE/Multi-Role Bank System.sol\":2894:2899  _user */\n      dup1\n        /* \"contracts/PHASE INHERITANCE/Multi-Role Bank System.sol\":2877:2917  PremiumUserAdded(_user, block.timestamp) */\n      0xffffffffffffffffffffffffffffffffffffffff\n      and\n      0x3c521a01e5b8cc0c480919ef2e8031de8d54a2bb0371d2967be98a07aeb81365\n        /* \"contracts/PHASE INHERITANCE/Multi-Role Bank System.sol\":2901:2916  block.timestamp */\n      timestamp\n        /* \"contracts/PHASE INHERITANCE/Multi-Role Bank System.sol\":2877:2917  PremiumUserAdded(_user, block.timestamp) */\n      mload(0x40)\n      tag_119\n      swap2\n      swap1\n      tag_19\n      jump\t// in\n    tag_119:\n      mload(0x40)\n      dup1\n      swap2\n      sub\n      swap1\n      log2\n        /* \"contracts/PHASE INHERITANCE/Multi-Role Bank System.sol\":2708:2924  function addPremiumUser(address _user) public onlyOwner{... */\n      pop\n      jump\t// out\n        /* \"contracts/PHASE INHERITANCE/Multi-Role Bank System.sol\":81:101  address public owner */\n    tag_50:\n      0x00\n      0x00\n      swap1\n      sload\n      swap1\n      0x0100\n      exp\n      swap1\n      div\n      0xffffffffffffffffffffffffffffffffffffffff\n      and\n      dup2\n      jump\t// out\n        /* \"contracts/PHASE INHERITANCE/Multi-Role Bank System.sol\":2465:2618  function updateFee(uint _newFeePerc) public onlyOwner {... */\n    tag_56:\n        /* \"contracts/PHASE INHERITANCE/Multi-Role Bank System.sol\":727:732  owner */\n      0x00\n      0x00\n      swap1\n      sload\n      swap1\n      0x0100\n      exp\n      swap1\n      div\n      0xffffffffffffffffffffffffffffffffffffffff\n      and\n        /* \"contracts/PHASE INHERITANCE/Multi-Role Bank System.sol\":713:732  msg.sender == owner */\n      0xffffffffffffffffffffffffffffffffffffffff\n      and\n        /* \"contracts/PHASE INHERITANCE/Multi-Role Bank System.sol\":713:723  msg.sender */\n      caller\n        /* \"contracts/PHASE INHERITANCE/Multi-Role Bank System.sol\":713:732  msg.sender == owner */\n      0xffffffffffffffffffffffffffffffffffffffff\n      and\n      eq\n        /* \"contracts/PHASE INHERITANCE/Multi-Role Bank System.sol\":705:746  require(msg.sender == owner, \"Not Owner\") */\n      tag_121\n      jumpi\n      mload(0x40)\n      0x08c379a000000000000000000000000000000000000000000000000000000000\n      dup2\n      mstore\n      0x04\n      add\n      tag_122\n      swap1\n      tag_106\n      jump\t// in\n    tag_122:\n      mload(0x40)\n      dup1\n      swap2\n      sub\n      swap1\n      revert\n    tag_121:\n        /* \"contracts/PHASE INHERITANCE/Multi-Role Bank System.sol\":2545:2556  _newFeePerc */\n      dup1\n        /* \"contracts/PHASE INHERITANCE/Multi-Role Bank System.sol\":2529:2542  feePercentage */\n      0x02\n        /* \"contracts/PHASE INHERITANCE/Multi-Role Bank System.sol\":2529:2556  feePercentage = _newFeePerc */\n      dup2\n      swap1\n      sstore\n      pop\n        /* \"contracts/PHASE INHERITANCE/Multi-Role Bank System.sol\":2571:2611  FeeUpdated(_newFeePerc, block.timestamp) */\n      0x528d9479e9f9889a87a3c30c7f7ba537e5e59c4c85a37733b16e57c62df61302\n        /* \"contracts/PHASE INHERITANCE/Multi-Role Bank System.sol\":2582:2593  _newFeePerc */\n      dup2\n        /* \"contracts/PHASE INHERITANCE/Multi-Role Bank System.sol\":2595:2610  block.timestamp */\n      timestamp\n        /* \"contracts/PHASE INHERITANCE/Multi-Role Bank System.sol\":2571:2611  FeeUpdated(_newFeePerc, block.timestamp) */\n      mload(0x40)\n      tag_124\n      swap3\n      swap2\n      swap1\n      tag_125\n      jump\t// in\n    tag_124:\n      mload(0x40)\n      dup1\n      swap2\n      sub\n      swap1\n      log1\n        /* \"contracts/PHASE INHERITANCE/Multi-Role Bank System.sol\":2465:2618  function updateFee(uint _newFeePerc) public onlyOwner {... */\n      pop\n      jump\t// out\n        /* \"contracts/PHASE INHERITANCE/Multi-Role Bank System.sol\":1760:1790  uint public feePercentage = 10 */\n    tag_59:\n      sload(0x02)\n      dup2\n      jump\t// out\n        /* \"contracts/PHASE INHERITANCE/Multi-Role Bank System.sol\":2659:2702  mapping(address => bool) public premiumUser */\n    tag_64:\n      mstore(0x20, 0x03)\n      dup1\n      0x00\n      mstore\n      keccak256(0x00, 0x40)\n      0x00\n      swap2\n      pop\n      sload\n      swap1\n      0x0100\n      exp\n      swap1\n      div\n      0xff\n      and\n      dup2\n      jump\t// out\n        /* \"contracts/PHASE INHERITANCE/Multi-Role Bank System.sol\":957:1087  function deposit() public payable {... */\n    tag_68:\n        /* \"contracts/PHASE INHERITANCE/Multi-Role Bank System.sol\":1026:1035  msg.value */\n      callvalue\n        /* \"contracts/PHASE INHERITANCE/Multi-Role Bank System.sol\":1001:1010  balanceOf */\n      0x01\n        /* \"contracts/PHASE INHERITANCE/Multi-Role Bank System.sol\":1001:1022  balanceOf[msg.sender] */\n      0x00\n        /* \"contracts/PHASE INHERITANCE/Multi-Role Bank System.sol\":1011:1021  msg.sender */\n      caller\n        /* \"contracts/PHASE INHERITANCE/Multi-Role Bank System.sol\":1001:1022  balanceOf[msg.sender] */\n      0xffffffffffffffffffffffffffffffffffffffff\n      and\n      0xffffffffffffffffffffffffffffffffffffffff\n      and\n      dup2\n      mstore\n      0x20\n      add\n      swap1\n      dup2\n      mstore\n      0x20\n      add\n      0x00\n      keccak256\n      0x00\n        /* \"contracts/PHASE INHERITANCE/Multi-Role Bank System.sol\":1001:1035  balanceOf[msg.sender] += msg.value */\n      dup3\n      dup3\n      sload\n      tag_127\n      swap2\n      swap1\n      tag_17\n      jump\t// in\n    tag_127:\n      swap3\n      pop\n      pop\n      dup2\n      swap1\n      sstore\n      pop\n        /* \"contracts/PHASE INHERITANCE/Multi-Role Bank System.sol\":1058:1068  msg.sender */\n      caller\n        /* \"contracts/PHASE INHERITANCE/Multi-Role Bank System.sol\":1050:1080  Deposit(msg.sender, msg.value) */\n      0xffffffffffffffffffffffffffffffffffffffff\n      and\n      0xe1fffcc4923d04b559f4d29a8bfc6cda04eb5b0d3c460751c2402c5c5cc9109c\n        /* \"contracts/PHASE INHERITANCE/Multi-Role Bank System.sol\":1070:1079  msg.value */\n      callvalue\n        /* \"contracts/PHASE INHERITANCE/Multi-Role Bank System.sol\":1050:1080  Deposit(msg.sender, msg.value) */\n      mload(0x40)\n      tag_128\n      swap2\n      swap1\n      tag_19\n      jump\t// in\n    tag_128:\n      mload(0x40)\n      dup1\n      swap2\n      sub\n      swap1\n      log2\n        /* \"contracts/PHASE INHERITANCE/Multi-Role Bank System.sol\":957:1087  function deposit() public payable {... */\n      jump\t// out\n        /* \"contracts/PHASE INHERITANCE/Multi-Role Bank System.sol\":1350:1721  function withdraw(uint _amount) public virtual {... */\n    tag_78:\n        /* \"contracts/PHASE INHERITANCE/Multi-Role Bank System.sol\":1407:1418  uint amount */\n      0x00\n        /* \"contracts/PHASE INHERITANCE/Multi-Role Bank System.sol\":1431:1438  1 ether */\n      0x0de0b6b3a7640000\n        /* \"contracts/PHASE INHERITANCE/Multi-Role Bank System.sol\":1421:1428  _amount */\n      dup3\n        /* \"contracts/PHASE INHERITANCE/Multi-Role Bank System.sol\":1421:1438  _amount * 1 ether */\n      tag_130\n      swap2\n      swap1\n      tag_80\n      jump\t// in\n    tag_130:\n        /* \"contracts/PHASE INHERITANCE/Multi-Role Bank System.sol\":1407:1438  uint amount = _amount * 1 ether */\n      swap1\n      pop\n        /* \"contracts/PHASE INHERITANCE/Multi-Role Bank System.sol\":1466:1475  balanceOf */\n      0x01\n        /* \"contracts/PHASE INHERITANCE/Multi-Role Bank System.sol\":1466:1487  balanceOf[msg.sender] */\n      0x00\n        /* \"contracts/PHASE INHERITANCE/Multi-Role Bank System.sol\":1476:1486  msg.sender */\n      caller\n        /* \"contracts/PHASE INHERITANCE/Multi-Role Bank System.sol\":1466:1487  balanceOf[msg.sender] */\n      0xffffffffffffffffffffffffffffffffffffffff\n      and\n      0xffffffffffffffffffffffffffffffffffffffff\n      and\n      dup2\n      mstore\n      0x20\n      add\n      swap1\n      dup2\n      mstore\n      0x20\n      add\n      0x00\n      keccak256\n      sload\n        /* \"contracts/PHASE INHERITANCE/Multi-Role Bank System.sol\":1456:1462  amount */\n      dup2\n        /* \"contracts/PHASE INHERITANCE/Multi-Role Bank System.sol\":1456:1487  amount <= balanceOf[msg.sender] */\n      gt\n      iszero\n        /* \"contracts/PHASE INHERITANCE/Multi-Role Bank System.sol\":1448:1510  require(amount <= balanceOf[msg.sender], \"Insufficient funds\") */\n      tag_131\n      jumpi\n      mload(0x40)\n      0x08c379a000000000000000000000000000000000000000000000000000000000\n      dup2\n      mstore\n      0x04\n      add\n      tag_132\n      swap1\n      tag_88\n      jump\t// in\n    tag_132:\n      mload(0x40)\n      dup1\n      swap2\n      sub\n      swap1\n      revert\n    tag_131:\n        /* \"contracts/PHASE INHERITANCE/Multi-Role Bank System.sol\":1554:1561  1 ether */\n      0x0de0b6b3a7640000\n        /* \"contracts/PHASE INHERITANCE/Multi-Role Bank System.sol\":1544:1551  _amount */\n      dup3\n        /* \"contracts/PHASE INHERITANCE/Multi-Role Bank System.sol\":1544:1561  _amount * 1 ether */\n      tag_133\n      swap2\n      swap1\n      tag_80\n      jump\t// in\n    tag_133:\n        /* \"contracts/PHASE INHERITANCE/Multi-Role Bank System.sol\":1520:1529  balanceOf */\n      0x01\n        /* \"contracts/PHASE INHERITANCE/Multi-Role Bank System.sol\":1520:1541  balanceOf[msg.sender] */\n      0x00\n        /* \"contracts/PHASE INHERITANCE/Multi-Role Bank System.sol\":1530:1540  msg.sender */\n      caller\n        /* \"contracts/PHASE INHERITANCE/Multi-Role Bank System.sol\":1520:1541  balanceOf[msg.sender] */\n      0xffffffffffffffffffffffffffffffffffffffff\n      and\n      0xffffffffffffffffffffffffffffffffffffffff\n      and\n      dup2\n      mstore\n      0x20\n      add\n      swap1\n      dup2\n      mstore\n      0x20\n      add\n      0x00\n      keccak256\n      0x00\n        /* \"contracts/PHASE INHERITANCE/Multi-Role Bank System.sol\":1520:1561  balanceOf[msg.sender]-= _amount * 1 ether */\n      dup3\n      dup3\n      sload\n      tag_134\n      swap2\n      swap1\n      tag_85\n      jump\t// in\n    tag_134:\n      swap3\n      pop\n      pop\n      dup2\n      swap1\n      sstore\n      pop\n        /* \"contracts/PHASE INHERITANCE/Multi-Role Bank System.sol\":1572:1584  bool success */\n      0x00\n        /* \"contracts/PHASE INHERITANCE/Multi-Role Bank System.sol\":1590:1600  msg.sender */\n      caller\n        /* \"contracts/PHASE INHERITANCE/Multi-Role Bank System.sol\":1590:1605  msg.sender.call */\n      0xffffffffffffffffffffffffffffffffffffffff\n      and\n        /* \"contracts/PHASE INHERITANCE/Multi-Role Bank System.sol\":1613:1619  amount */\n      dup3\n        /* \"contracts/PHASE INHERITANCE/Multi-Role Bank System.sol\":1590:1624  msg.sender.call{value: amount}(\"\") */\n      mload(0x40)\n      tag_135\n      swap1\n      tag_94\n      jump\t// in\n    tag_135:\n      0x00\n      mload(0x40)\n      dup1\n      dup4\n      sub\n      dup2\n      dup6\n      dup8\n      gas\n      call\n      swap3\n      pop\n      pop\n      pop\n      returndatasize\n      dup1\n      0x00\n      dup2\n      eq\n      tag_138\n      jumpi\n      mload(0x40)\n      swap2\n      pop\n      and(add(returndatasize, 0x3f), not(0x1f))\n      dup3\n      add\n      0x40\n      mstore\n      returndatasize\n      dup3\n      mstore\n      returndatasize\n      0x00\n      0x20\n      dup5\n      add\n      returndatacopy\n      jump(tag_137)\n    tag_138:\n      0x60\n      swap2\n      pop\n    tag_137:\n      pop\n        /* \"contracts/PHASE INHERITANCE/Multi-Role Bank System.sol\":1571:1624  (bool success, ) = msg.sender.call{value: amount}(\"\") */\n      pop\n      swap1\n      pop\n        /* \"contracts/PHASE INHERITANCE/Multi-Role Bank System.sol\":1642:1649  success */\n      dup1\n        /* \"contracts/PHASE INHERITANCE/Multi-Role Bank System.sol\":1634:1671  require(success, \"Withdrawal failed\") */\n      tag_139\n      jumpi\n      mload(0x40)\n      0x08c379a000000000000000000000000000000000000000000000000000000000\n      dup2\n      mstore\n      0x04\n      add\n      tag_140\n      swap1\n      tag_141\n      jump\t// in\n    tag_140:\n      mload(0x40)\n      dup1\n      swap2\n      sub\n      swap1\n      revert\n    tag_139:\n        /* \"contracts/PHASE INHERITANCE/Multi-Role Bank System.sol\":1695:1705  msg.sender */\n      caller\n        /* \"contracts/PHASE INHERITANCE/Multi-Role Bank System.sol\":1686:1714  Withdraw(msg.sender, amount) */\n      0xffffffffffffffffffffffffffffffffffffffff\n      and\n      0x884edad9ce6fa2440d8a54cc123490eb96d2768479d49ff9c7366125a9424364\n        /* \"contracts/PHASE INHERITANCE/Multi-Role Bank System.sol\":1707:1713  amount */\n      dup4\n        /* \"contracts/PHASE INHERITANCE/Multi-Role Bank System.sol\":1686:1714  Withdraw(msg.sender, amount) */\n      mload(0x40)\n      tag_142\n      swap2\n      swap1\n      tag_19\n      jump\t// in\n    tag_142:\n      mload(0x40)\n      dup1\n      swap2\n      sub\n      swap1\n      log2\n        /* \"contracts/PHASE INHERITANCE/Multi-Role Bank System.sol\":1397:1721  {... */\n      pop\n      pop\n        /* \"contracts/PHASE INHERITANCE/Multi-Role Bank System.sol\":1350:1721  function withdraw(uint _amount) public virtual {... */\n      pop\n      jump\t// out\n        /* \"#utility.yul\":7:84   */\n    tag_143:\n        /* \"#utility.yul\":44:51   */\n      0x00\n        /* \"#utility.yul\":73:78   */\n      dup2\n        /* \"#utility.yul\":62:78   */\n      swap1\n      pop\n        /* \"#utility.yul\":7:84   */\n      swap2\n      swap1\n      pop\n      jump\t// out\n        /* \"#utility.yul\":90:270   */\n    tag_144:\n        /* \"#utility.yul\":138:215   */\n      0x4e487b7100000000000000000000000000000000000000000000000000000000\n        /* \"#utility.yul\":135:136   */\n      0x00\n        /* \"#utility.yul\":128:216   */\n      mstore\n        /* \"#utility.yul\":235:239   */\n      0x11\n        /* \"#utility.yul\":232:233   */\n      0x04\n        /* \"#utility.yul\":225:240   */\n      mstore\n        /* \"#utility.yul\":259:263   */\n      0x24\n        /* \"#utility.yul\":256:257   */\n      0x00\n        /* \"#utility.yul\":249:264   */\n      revert\n        /* \"#utility.yul\":276:467   */\n    tag_17:\n        /* \"#utility.yul\":316:319   */\n      0x00\n        /* \"#utility.yul\":335:355   */\n      tag_183\n        /* \"#utility.yul\":353:354   */\n      dup3\n        /* \"#utility.yul\":335:355   */\n      tag_143\n      jump\t// in\n    tag_183:\n        /* \"#utility.yul\":330:355   */\n      swap2\n      pop\n        /* \"#utility.yul\":369:389   */\n      tag_184\n        /* \"#utility.yul\":387:388   */\n      dup4\n        /* \"#utility.yul\":369:389   */\n      tag_143\n      jump\t// in\n    tag_184:\n        /* \"#utility.yul\":364:389   */\n      swap3\n      pop\n        /* \"#utility.yul\":412:413   */\n      dup3\n        /* \"#utility.yul\":409:410   */\n      dup3\n        /* \"#utility.yul\":405:414   */\n      add\n        /* \"#utility.yul\":398:414   */\n      swap1\n      pop\n        /* \"#utility.yul\":433:436   */\n      dup1\n        /* \"#utility.yul\":430:431   */\n      dup3\n        /* \"#utility.yul\":427:437   */\n      gt\n        /* \"#utility.yul\":424:460   */\n      iszero\n      tag_185\n      jumpi\n        /* \"#utility.yul\":440:458   */\n      tag_186\n      tag_144\n      jump\t// in\n    tag_186:\n        /* \"#utility.yul\":424:460   */\n    tag_185:\n        /* \"#utility.yul\":276:467   */\n      swap3\n      swap2\n      pop\n      pop\n      jump\t// out\n        /* \"#utility.yul\":473:591   */\n    tag_145:\n        /* \"#utility.yul\":560:584   */\n      tag_188\n        /* \"#utility.yul\":578:583   */\n      dup2\n        /* \"#utility.yul\":560:584   */\n      tag_143\n      jump\t// in\n    tag_188:\n        /* \"#utility.yul\":555:558   */\n      dup3\n        /* \"#utility.yul\":548:585   */\n      mstore\n        /* \"#utility.yul\":473:591   */\n      pop\n      pop\n      jump\t// out\n        /* \"#utility.yul\":597:819   */\n    tag_19:\n        /* \"#utility.yul\":690:694   */\n      0x00\n        /* \"#utility.yul\":728:730   */\n      0x20\n        /* \"#utility.yul\":717:726   */\n      dup3\n        /* \"#utility.yul\":713:731   */\n      add\n        /* \"#utility.yul\":705:731   */\n      swap1\n      pop\n        /* \"#utility.yul\":741:812   */\n      tag_190\n        /* \"#utility.yul\":809:810   */\n      0x00\n        /* \"#utility.yul\":798:807   */\n      dup4\n        /* \"#utility.yul\":794:811   */\n      add\n        /* \"#utility.yul\":785:791   */\n      dup5\n        /* \"#utility.yul\":741:812   */\n      tag_145\n      jump\t// in\n    tag_190:\n        /* \"#utility.yul\":597:819   */\n      swap3\n      swap2\n      pop\n      pop\n      jump\t// out\n        /* \"#utility.yul\":906:1023   */\n    tag_147:\n        /* \"#utility.yul\":1015:1016   */\n      0x00\n        /* \"#utility.yul\":1012:1013   */\n      0x00\n        /* \"#utility.yul\":1005:1017   */\n      revert\n        /* \"#utility.yul\":1152:1274   */\n    tag_149:\n        /* \"#utility.yul\":1225:1249   */\n      tag_195\n        /* \"#utility.yul\":1243:1248   */\n      dup2\n        /* \"#utility.yul\":1225:1249   */\n      tag_143\n      jump\t// in\n    tag_195:\n        /* \"#utility.yul\":1218:1223   */\n      dup2\n        /* \"#utility.yul\":1215:1250   */\n      eq\n        /* \"#utility.yul\":1205:1268   */\n      tag_196\n      jumpi\n        /* \"#utility.yul\":1264:1265   */\n      0x00\n        /* \"#utility.yul\":1261:1262   */\n      0x00\n        /* \"#utility.yul\":1254:1266   */\n      revert\n        /* \"#utility.yul\":1205:1268   */\n    tag_196:\n        /* \"#utility.yul\":1152:1274   */\n      pop\n      jump\t// out\n        /* \"#utility.yul\":1280:1419   */\n    tag_150:\n        /* \"#utility.yul\":1326:1331   */\n      0x00\n        /* \"#utility.yul\":1364:1370   */\n      dup2\n        /* \"#utility.yul\":1351:1371   */\n      calldataload\n        /* \"#utility.yul\":1342:1371   */\n      swap1\n      pop\n        /* \"#utility.yul\":1380:1413   */\n      tag_198\n        /* \"#utility.yul\":1407:1412   */\n      dup2\n        /* \"#utility.yul\":1380:1413   */\n      tag_149\n      jump\t// in\n    tag_198:\n        /* \"#utility.yul\":1280:1419   */\n      swap3\n      swap2\n      pop\n      pop\n      jump\t// out\n        /* \"#utility.yul\":1425:1754   */\n    tag_27:\n        /* \"#utility.yul\":1484:1490   */\n      0x00\n        /* \"#utility.yul\":1533:1535   */\n      0x20\n        /* \"#utility.yul\":1521:1530   */\n      dup3\n        /* \"#utility.yul\":1512:1519   */\n      dup5\n        /* \"#utility.yul\":1508:1531   */\n      sub\n        /* \"#utility.yul\":1504:1536   */\n      slt\n        /* \"#utility.yul\":1501:1620   */\n      iszero\n      tag_200\n      jumpi\n        /* \"#utility.yul\":1539:1618   */\n      tag_201\n      tag_147\n      jump\t// in\n    tag_201:\n        /* \"#utility.yul\":1501:1620   */\n    tag_200:\n        /* \"#utility.yul\":1659:1660   */\n      0x00\n        /* \"#utility.yul\":1684:1737   */\n      tag_202\n        /* \"#utility.yul\":1729:1736   */\n      dup5\n        /* \"#utility.yul\":1720:1726   */\n      dup3\n        /* \"#utility.yul\":1709:1718   */\n      dup6\n        /* \"#utility.yul\":1705:1727   */\n      add\n        /* \"#utility.yul\":1684:1737   */\n      tag_150\n      jump\t// in\n    tag_202:\n        /* \"#utility.yul\":1674:1737   */\n      swap2\n      pop\n        /* \"#utility.yul\":1630:1747   */\n      pop\n        /* \"#utility.yul\":1425:1754   */\n      swap3\n      swap2\n      pop\n      pop\n      jump\t// out\n        /* \"#utility.yul\":1760:1850   */\n    tag_151:\n        /* \"#utility.yul\":1794:1801   */\n      0x00\n        /* \"#utility.yul\":1837:1842   */\n      dup2\n        /* \"#utility.yul\":1830:1843   */\n      iszero\n        /* \"#utility.yul\":1823:1844   */\n      iszero\n        /* \"#utility.yul\":1812:1844   */\n      swap1\n      pop\n        /* \"#utility.yul\":1760:1850   */\n      swap2\n      swap1\n      pop\n      jump\t// out\n        /* \"#utility.yul\":1856:1972   */\n    tag_152:\n        /* \"#utility.yul\":1926:1947   */\n      tag_205\n        /* \"#utility.yul\":1941:1946   */\n      dup2\n        /* \"#utility.yul\":1926:1947   */\n      tag_151\n      jump\t// in\n    tag_205:\n        /* \"#utility.yul\":1919:1924   */\n      dup2\n        /* \"#utility.yul\":1916:1948   */\n      eq\n        /* \"#utility.yul\":1906:1966   */\n      tag_206\n      jumpi\n        /* \"#utility.yul\":1962:1963   */\n      0x00\n        /* \"#utility.yul\":1959:1960   */\n      0x00\n        /* \"#utility.yul\":1952:1964   */\n      revert\n        /* \"#utility.yul\":1906:1966   */\n    tag_206:\n        /* \"#utility.yul\":1856:1972   */\n      pop\n      jump\t// out\n        /* \"#utility.yul\":1978:2111   */\n    tag_153:\n        /* \"#utility.yul\":2021:2026   */\n      0x00\n        /* \"#utility.yul\":2059:2065   */\n      dup2\n        /* \"#utility.yul\":2046:2066   */\n      calldataload\n        /* \"#utility.yul\":2037:2066   */\n      swap1\n      pop\n        /* \"#utility.yul\":2075:2105   */\n      tag_208\n        /* \"#utility.yul\":2099:2104   */\n      dup2\n        /* \"#utility.yul\":2075:2105   */\n      tag_152\n      jump\t// in\n    tag_208:\n        /* \"#utility.yul\":1978:2111   */\n      swap3\n      swap2\n      pop\n      pop\n      jump\t// out\n        /* \"#utility.yul\":2117:2585   */\n    tag_32:\n        /* \"#utility.yul\":2182:2188   */\n      0x00\n        /* \"#utility.yul\":2190:2196   */\n      0x00\n        /* \"#utility.yul\":2239:2241   */\n      0x40\n        /* \"#utility.yul\":2227:2236   */\n      dup4\n        /* \"#utility.yul\":2218:2225   */\n      dup6\n        /* \"#utility.yul\":2214:2237   */\n      sub\n        /* \"#utility.yul\":2210:2242   */\n      slt\n        /* \"#utility.yul\":2207:2326   */\n      iszero\n      tag_210\n      jumpi\n        /* \"#utility.yul\":2245:2324   */\n      tag_211\n      tag_147\n      jump\t// in\n    tag_211:\n        /* \"#utility.yul\":2207:2326   */\n    tag_210:\n        /* \"#utility.yul\":2365:2366   */\n      0x00\n        /* \"#utility.yul\":2390:2443   */\n      tag_212\n        /* \"#utility.yul\":2435:2442   */\n      dup6\n        /* \"#utility.yul\":2426:2432   */\n      dup3\n        /* \"#utility.yul\":2415:2424   */\n      dup7\n        /* \"#utility.yul\":2411:2433   */\n      add\n        /* \"#utility.yul\":2390:2443   */\n      tag_150\n      jump\t// in\n    tag_212:\n        /* \"#utility.yul\":2380:2443   */\n      swap3\n      pop\n        /* \"#utility.yul\":2336:2453   */\n      pop\n        /* \"#utility.yul\":2492:2494   */\n      0x20\n        /* \"#utility.yul\":2518:2568   */\n      tag_213\n        /* \"#utility.yul\":2560:2567   */\n      dup6\n        /* \"#utility.yul\":2551:2557   */\n      dup3\n        /* \"#utility.yul\":2540:2549   */\n      dup7\n        /* \"#utility.yul\":2536:2558   */\n      add\n        /* \"#utility.yul\":2518:2568   */\n      tag_153\n      jump\t// in\n    tag_213:\n        /* \"#utility.yul\":2508:2568   */\n      swap2\n      pop\n        /* \"#utility.yul\":2463:2578   */\n      pop\n        /* \"#utility.yul\":2117:2585   */\n      swap3\n      pop\n      swap3\n      swap1\n      pop\n      jump\t// out\n        /* \"#utility.yul\":2591:2717   */\n    tag_154:\n        /* \"#utility.yul\":2628:2635   */\n      0x00\n        /* \"#utility.yul\":2668:2710   */\n      0xffffffffffffffffffffffffffffffffffffffff\n        /* \"#utility.yul\":2661:2666   */\n      dup3\n        /* \"#utility.yul\":2657:2711   */\n      and\n        /* \"#utility.yul\":2646:2711   */\n      swap1\n      pop\n        /* \"#utility.yul\":2591:2717   */\n      swap2\n      swap1\n      pop\n      jump\t// out\n        /* \"#utility.yul\":2723:2819   */\n    tag_155:\n        /* \"#utility.yul\":2760:2767   */\n      0x00\n        /* \"#utility.yul\":2789:2813   */\n      tag_216\n        /* \"#utility.yul\":2807:2812   */\n      dup3\n        /* \"#utility.yul\":2789:2813   */\n      tag_154\n      jump\t// in\n    tag_216:\n        /* \"#utility.yul\":2778:2813   */\n      swap1\n      pop\n        /* \"#utility.yul\":2723:2819   */\n      swap2\n      swap1\n      pop\n      jump\t// out\n        /* \"#utility.yul\":2825:2947   */\n    tag_156:\n        /* \"#utility.yul\":2898:2922   */\n      tag_218\n        /* \"#utility.yul\":2916:2921   */\n      dup2\n        /* \"#utility.yul\":2898:2922   */\n      tag_155\n      jump\t// in\n    tag_218:\n        /* \"#utility.yul\":2891:2896   */\n      dup2\n        /* \"#utility.yul\":2888:2923   */\n      eq\n        /* \"#utility.yul\":2878:2941   */\n      tag_219\n      jumpi\n        /* \"#utility.yul\":2937:2938   */\n      0x00\n        /* \"#utility.yul\":2934:2935   */\n      0x00\n        /* \"#utility.yul\":2927:2939   */\n      revert\n        /* \"#utility.yul\":2878:2941   */\n    tag_219:\n        /* \"#utility.yul\":2825:2947   */\n      pop\n      jump\t// out\n        /* \"#utility.yul\":2953:3092   */\n    tag_157:\n        /* \"#utility.yul\":2999:3004   */\n      0x00\n        /* \"#utility.yul\":3037:3043   */\n      dup2\n        /* \"#utility.yul\":3024:3044   */\n      calldataload\n        /* \"#utility.yul\":3015:3044   */\n      swap1\n      pop\n        /* \"#utility.yul\":3053:3086   */\n      tag_221\n        /* \"#utility.yul\":3080:3085   */\n      dup2\n        /* \"#utility.yul\":3053:3086   */\n      tag_156\n      jump\t// in\n    tag_221:\n        /* \"#utility.yul\":2953:3092   */\n      swap3\n      swap2\n      pop\n      pop\n      jump\t// out\n        /* \"#utility.yul\":3098:3427   */\n    tag_37:\n        /* \"#utility.yul\":3157:3163   */\n      0x00\n        /* \"#utility.yul\":3206:3208   */\n      0x20\n        /* \"#utility.yul\":3194:3203   */\n      dup3\n        /* \"#utility.yul\":3185:3192   */\n      dup5\n        /* \"#utility.yul\":3181:3204   */\n      sub\n        /* \"#utility.yul\":3177:3209   */\n      slt\n        /* \"#utility.yul\":3174:3293   */\n      iszero\n      tag_223\n      jumpi\n        /* \"#utility.yul\":3212:3291   */\n      tag_224\n      tag_147\n      jump\t// in\n    tag_224:\n        /* \"#utility.yul\":3174:3293   */\n    tag_223:\n        /* \"#utility.yul\":3332:3333   */\n      0x00\n        /* \"#utility.yul\":3357:3410   */\n      tag_225\n        /* \"#utility.yul\":3402:3409   */\n      dup5\n        /* \"#utility.yul\":3393:3399   */\n      dup3\n        /* \"#utility.yul\":3382:3391   */\n      dup6\n        /* \"#utility.yul\":3378:3400   */\n      add\n        /* \"#utility.yul\":3357:3410   */\n      tag_157\n      jump\t// in\n    tag_225:\n        /* \"#utility.yul\":3347:3410   */\n      swap2\n      pop\n        /* \"#utility.yul\":3303:3420   */\n      pop\n        /* \"#utility.yul\":3098:3427   */\n      swap3\n      swap2\n      pop\n      pop\n      jump\t// out\n        /* \"#utility.yul\":3433:3551   */\n    tag_158:\n        /* \"#utility.yul\":3520:3544   */\n      tag_227\n        /* \"#utility.yul\":3538:3543   */\n      dup2\n        /* \"#utility.yul\":3520:3544   */\n      tag_155\n      jump\t// in\n    tag_227:\n        /* \"#utility.yul\":3515:3518   */\n      dup3\n        /* \"#utility.yul\":3508:3545   */\n      mstore\n        /* \"#utility.yul\":3433:3551   */\n      pop\n      pop\n      jump\t// out\n        /* \"#utility.yul\":3557:3779   */\n    tag_52:\n        /* \"#utility.yul\":3650:3654   */\n      0x00\n        /* \"#utility.yul\":3688:3690   */\n      0x20\n        /* \"#utility.yul\":3677:3686   */\n      dup3\n        /* \"#utility.yul\":3673:3691   */\n      add\n        /* \"#utility.yul\":3665:3691   */\n      swap1\n      pop\n        /* \"#utility.yul\":3701:3772   */\n      tag_229\n        /* \"#utility.yul\":3769:3770   */\n      0x00\n        /* \"#utility.yul\":3758:3767   */\n      dup4\n        /* \"#utility.yul\":3754:3771   */\n      add\n        /* \"#utility.yul\":3745:3751   */\n      dup5\n        /* \"#utility.yul\":3701:3772   */\n      tag_158\n      jump\t// in\n    tag_229:\n        /* \"#utility.yul\":3557:3779   */\n      swap3\n      swap2\n      pop\n      pop\n      jump\t// out\n        /* \"#utility.yul\":3785:3894   */\n    tag_159:\n        /* \"#utility.yul\":3866:3887   */\n      tag_231\n        /* \"#utility.yul\":3881:3886   */\n      dup2\n        /* \"#utility.yul\":3866:3887   */\n      tag_151\n      jump\t// in\n    tag_231:\n        /* \"#utility.yul\":3861:3864   */\n      dup3\n        /* \"#utility.yul\":3854:3888   */\n      mstore\n        /* \"#utility.yul\":3785:3894   */\n      pop\n      pop\n      jump\t// out\n        /* \"#utility.yul\":3900:4110   */\n    tag_66:\n        /* \"#utility.yul\":3987:3991   */\n      0x00\n        /* \"#utility.yul\":4025:4027   */\n      0x20\n        /* \"#utility.yul\":4014:4023   */\n      dup3\n        /* \"#utility.yul\":4010:4028   */\n      add\n        /* \"#utility.yul\":4002:4028   */\n      swap1\n      pop\n        /* \"#utility.yul\":4038:4103   */\n      tag_233\n        /* \"#utility.yul\":4100:4101   */\n      0x00\n        /* \"#utility.yul\":4089:4098   */\n      dup4\n        /* \"#utility.yul\":4085:4102   */\n      add\n        /* \"#utility.yul\":4076:4082   */\n      dup5\n        /* \"#utility.yul\":4038:4103   */\n      tag_159\n      jump\t// in\n    tag_233:\n        /* \"#utility.yul\":3900:4110   */\n      swap3\n      swap2\n      pop\n      pop\n      jump\t// out\n        /* \"#utility.yul\":4116:4285   */\n    tag_160:\n        /* \"#utility.yul\":4200:4211   */\n      0x00\n        /* \"#utility.yul\":4234:4240   */\n      dup3\n        /* \"#utility.yul\":4229:4232   */\n      dup3\n        /* \"#utility.yul\":4222:4241   */\n      mstore\n        /* \"#utility.yul\":4274:4278   */\n      0x20\n        /* \"#utility.yul\":4269:4272   */\n      dup3\n        /* \"#utility.yul\":4265:4279   */\n      add\n        /* \"#utility.yul\":4250:4279   */\n      swap1\n      pop\n        /* \"#utility.yul\":4116:4285   */\n      swap3\n      swap2\n      pop\n      pop\n      jump\t// out\n        /* \"#utility.yul\":4291:4451   */\n    tag_161:\n        /* \"#utility.yul\":4431:4443   */\n      0x5265656e7472616e637900000000000000000000000000000000000000000000\n        /* \"#utility.yul\":4427:4428   */\n      0x00\n        /* \"#utility.yul\":4419:4425   */\n      dup3\n        /* \"#utility.yul\":4415:4429   */\n      add\n        /* \"#utility.yul\":4408:4444   */\n      mstore\n        /* \"#utility.yul\":4291:4451   */\n      pop\n      jump\t// out\n        /* \"#utility.yul\":4457:4823   */\n    tag_162:\n        /* \"#utility.yul\":4599:4602   */\n      0x00\n        /* \"#utility.yul\":4620:4687   */\n      tag_237\n        /* \"#utility.yul\":4684:4686   */\n      0x0a\n        /* \"#utility.yul\":4679:4682   */\n      dup4\n        /* \"#utility.yul\":4620:4687   */\n      tag_160\n      jump\t// in\n    tag_237:\n        /* \"#utility.yul\":4613:4687   */\n      swap2\n      pop\n        /* \"#utility.yul\":4696:4789   */\n      tag_238\n        /* \"#utility.yul\":4785:4788   */\n      dup3\n        /* \"#utility.yul\":4696:4789   */\n      tag_161\n      jump\t// in\n    tag_238:\n        /* \"#utility.yul\":4814:4816   */\n      0x20\n        /* \"#utility.yul\":4809:4812   */\n      dup3\n        /* \"#utility.yul\":4805:4817   */\n      add\n        /* \"#utility.yul\":4798:4817   */\n      swap1\n      pop\n        /* \"#utility.yul\":4457:4823   */\n      swap2\n      swap1\n      pop\n      jump\t// out\n        /* \"#utility.yul\":4829:5248   */\n    tag_72:\n        /* \"#utility.yul\":4995:4999   */\n      0x00\n        /* \"#utility.yul\":5033:5035   */\n      0x20\n        /* \"#utility.yul\":5022:5031   */\n      dup3\n        /* \"#utility.yul\":5018:5036   */\n      add\n        /* \"#utility.yul\":5010:5036   */\n      swap1\n      pop\n        /* \"#utility.yul\":5082:5091   */\n      dup2\n        /* \"#utility.yul\":5076:5080   */\n      dup2\n        /* \"#utility.yul\":5072:5092   */\n      sub\n        /* \"#utility.yul\":5068:5069   */\n      0x00\n        /* \"#utility.yul\":5057:5066   */\n      dup4\n        /* \"#utility.yul\":5053:5070   */\n      add\n        /* \"#utility.yul\":5046:5093   */\n      mstore\n        /* \"#utility.yul\":5110:5241   */\n      tag_240\n        /* \"#utility.yul\":5236:5240   */\n      dup2\n        /* \"#utility.yul\":5110:5241   */\n      tag_162\n      jump\t// in\n    tag_240:\n        /* \"#utility.yul\":5102:5241   */\n      swap1\n      pop\n        /* \"#utility.yul\":4829:5248   */\n      swap2\n      swap1\n      pop\n      jump\t// out\n        /* \"#utility.yul\":5254:5664   */\n    tag_80:\n        /* \"#utility.yul\":5294:5301   */\n      0x00\n        /* \"#utility.yul\":5317:5337   */\n      tag_242\n        /* \"#utility.yul\":5335:5336   */\n      dup3\n        /* \"#utility.yul\":5317:5337   */\n      tag_143\n      jump\t// in\n    tag_242:\n        /* \"#utility.yul\":5312:5337   */\n      swap2\n      pop\n        /* \"#utility.yul\":5351:5371   */\n      tag_243\n        /* \"#utility.yul\":5369:5370   */\n      dup4\n        /* \"#utility.yul\":5351:5371   */\n      tag_143\n      jump\t// in\n    tag_243:\n        /* \"#utility.yul\":5346:5371   */\n      swap3\n      pop\n        /* \"#utility.yul\":5406:5407   */\n      dup3\n        /* \"#utility.yul\":5403:5404   */\n      dup3\n        /* \"#utility.yul\":5399:5408   */\n      mul\n        /* \"#utility.yul\":5428:5458   */\n      tag_244\n        /* \"#utility.yul\":5446:5457   */\n      dup2\n        /* \"#utility.yul\":5428:5458   */\n      tag_143\n      jump\t// in\n    tag_244:\n        /* \"#utility.yul\":5417:5458   */\n      swap2\n      pop\n        /* \"#utility.yul\":5607:5608   */\n      dup3\n        /* \"#utility.yul\":5598:5605   */\n      dup3\n        /* \"#utility.yul\":5594:5609   */\n      div\n        /* \"#utility.yul\":5591:5592   */\n      dup5\n        /* \"#utility.yul\":5588:5610   */\n      eq\n        /* \"#utility.yul\":5568:5569   */\n      dup4\n        /* \"#utility.yul\":5561:5570   */\n      iszero\n        /* \"#utility.yul\":5541:5624   */\n      or\n        /* \"#utility.yul\":5518:5657   */\n      tag_245\n      jumpi\n        /* \"#utility.yul\":5637:5655   */\n      tag_246\n      tag_144\n      jump\t// in\n    tag_246:\n        /* \"#utility.yul\":5518:5657   */\n    tag_245:\n        /* \"#utility.yul\":5302:5664   */\n      pop\n        /* \"#utility.yul\":5254:5664   */\n      swap3\n      swap2\n      pop\n      pop\n      jump\t// out\n        /* \"#utility.yul\":5670:5850   */\n    tag_163:\n        /* \"#utility.yul\":5718:5795   */\n      0x4e487b7100000000000000000000000000000000000000000000000000000000\n        /* \"#utility.yul\":5715:5716   */\n      0x00\n        /* \"#utility.yul\":5708:5796   */\n      mstore\n        /* \"#utility.yul\":5815:5819   */\n      0x12\n        /* \"#utility.yul\":5812:5813   */\n      0x04\n        /* \"#utility.yul\":5805:5820   */\n      mstore\n        /* \"#utility.yul\":5839:5843   */\n      0x24\n        /* \"#utility.yul\":5836:5837   */\n      0x00\n        /* \"#utility.yul\":5829:5844   */\n      revert\n        /* \"#utility.yul\":5856:6041   */\n    tag_83:\n        /* \"#utility.yul\":5896:5897   */\n      0x00\n        /* \"#utility.yul\":5913:5933   */\n      tag_249\n        /* \"#utility.yul\":5931:5932   */\n      dup3\n        /* \"#utility.yul\":5913:5933   */\n      tag_143\n      jump\t// in\n    tag_249:\n        /* \"#utility.yul\":5908:5933   */\n      swap2\n      pop\n        /* \"#utility.yul\":5947:5967   */\n      tag_250\n        /* \"#utility.yul\":5965:5966   */\n      dup4\n        /* \"#utility.yul\":5947:5967   */\n      tag_143\n      jump\t// in\n    tag_250:\n        /* \"#utility.yul\":5942:5967   */\n      swap3\n      pop\n        /* \"#utility.yul\":5986:5987   */\n      dup3\n        /* \"#utility.yul\":5976:6011   */\n      tag_251\n      jumpi\n        /* \"#utility.yul\":5991:6009   */\n      tag_252\n      tag_163\n      jump\t// in\n    tag_252:\n        /* \"#utility.yul\":5976:6011   */\n    tag_251:\n        /* \"#utility.yul\":6033:6034   */\n      dup3\n        /* \"#utility.yul\":6030:6031   */\n      dup3\n        /* \"#utility.yul\":6026:6035   */\n      div\n        /* \"#utility.yul\":6021:6035   */\n      swap1\n      pop\n        /* \"#utility.yul\":5856:6041   */\n      swap3\n      swap2\n      pop\n      pop\n      jump\t// out\n        /* \"#utility.yul\":6047:6241   */\n    tag_85:\n        /* \"#utility.yul\":6087:6091   */\n      0x00\n        /* \"#utility.yul\":6107:6127   */\n      tag_254\n        /* \"#utility.yul\":6125:6126   */\n      dup3\n        /* \"#utility.yul\":6107:6127   */\n      tag_143\n      jump\t// in\n    tag_254:\n        /* \"#utility.yul\":6102:6127   */\n      swap2\n      pop\n        /* \"#utility.yul\":6141:6161   */\n      tag_255\n        /* \"#utility.yul\":6159:6160   */\n      dup4\n        /* \"#utility.yul\":6141:6161   */\n      tag_143\n      jump\t// in\n    tag_255:\n        /* \"#utility.yul\":6136:6161   */\n      swap3\n      pop\n        /* \"#utility.yul\":6185:6186   */\n      dup3\n        /* \"#utility.yul\":6182:6183   */\n      dup3\n        /* \"#utility.yul\":6178:6187   */\n      sub\n        /* \"#utility.yul\":6170:6187   */\n      swap1\n      pop\n        /* \"#utility.yul\":6209:6210   */\n      dup2\n        /* \"#utility.yul\":6203:6207   */\n      dup2\n        /* \"#utility.yul\":6200:6211   */\n      gt\n        /* \"#utility.yul\":6197:6234   */\n      iszero\n      tag_256\n      jumpi\n        /* \"#utility.yul\":6214:6232   */\n      tag_257\n      tag_144\n      jump\t// in\n    tag_257:\n        /* \"#utility.yul\":6197:6234   */\n    tag_256:\n        /* \"#utility.yul\":6047:6241   */\n      swap3\n      swap2\n      pop\n      pop\n      jump\t// out\n        /* \"#utility.yul\":6247:6415   */\n    tag_164:\n        /* \"#utility.yul\":6387:6407   */\n      0x496e73756666696369656e742066756e64730000000000000000000000000000\n        /* \"#utility.yul\":6383:6384   */\n      0x00\n        /* \"#utility.yul\":6375:6381   */\n      dup3\n        /* \"#utility.yul\":6371:6385   */\n      add\n        /* \"#utility.yul\":6364:6408   */\n      mstore\n        /* \"#utility.yul\":6247:6415   */\n      pop\n      jump\t// out\n        /* \"#utility.yul\":6421:6787   */\n    tag_165:\n        /* \"#utility.yul\":6563:6566   */\n      0x00\n        /* \"#utility.yul\":6584:6651   */\n      tag_260\n        /* \"#utility.yul\":6648:6650   */\n      0x12\n        /* \"#utility.yul\":6643:6646   */\n      dup4\n        /* \"#utility.yul\":6584:6651   */\n      tag_160\n      jump\t// in\n    tag_260:\n        /* \"#utility.yul\":6577:6651   */\n      swap2\n      pop\n        /* \"#utility.yul\":6660:6753   */\n      tag_261\n        /* \"#utility.yul\":6749:6752   */\n      dup3\n        /* \"#utility.yul\":6660:6753   */\n      tag_164\n      jump\t// in\n    tag_261:\n        /* \"#utility.yul\":6778:6780   */\n      0x20\n        /* \"#utility.yul\":6773:6776   */\n      dup3\n        /* \"#utility.yul\":6769:6781   */\n      add\n        /* \"#utility.yul\":6762:6781   */\n      swap1\n      pop\n        /* \"#utility.yul\":6421:6787   */\n      swap2\n      swap1\n      pop\n      jump\t// out\n        /* \"#utility.yul\":6793:7212   */\n    tag_88:\n        /* \"#utility.yul\":6959:6963   */\n      0x00\n        /* \"#utility.yul\":6997:6999   */\n      0x20\n        /* \"#utility.yul\":6986:6995   */\n      dup3\n        /* \"#utility.yul\":6982:7000   */\n      add\n        /* \"#utility.yul\":6974:7000   */\n      swap1\n      pop\n        /* \"#utility.yul\":7046:7055   */\n      dup2\n        /* \"#utility.yul\":7040:7044   */\n      dup2\n        /* \"#utility.yul\":7036:7056   */\n      sub\n        /* \"#utility.yul\":7032:7033   */\n      0x00\n        /* \"#utility.yul\":7021:7030   */\n      dup4\n        /* \"#utility.yul\":7017:7034   */\n      add\n        /* \"#utility.yul\":7010:7057   */\n      mstore\n        /* \"#utility.yul\":7074:7205   */\n      tag_263\n        /* \"#utility.yul\":7200:7204   */\n      dup2\n        /* \"#utility.yul\":7074:7205   */\n      tag_165\n      jump\t// in\n    tag_263:\n        /* \"#utility.yul\":7066:7205   */\n      swap1\n      pop\n        /* \"#utility.yul\":6793:7212   */\n      swap2\n      swap1\n      pop\n      jump\t// out\n        /* \"#utility.yul\":7218:7365   */\n    tag_166:\n        /* \"#utility.yul\":7319:7330   */\n      0x00\n        /* \"#utility.yul\":7356:7359   */\n      dup2\n        /* \"#utility.yul\":7341:7359   */\n      swap1\n      pop\n        /* \"#utility.yul\":7218:7365   */\n      swap3\n      swap2\n      pop\n      pop\n      jump\t// out\n        /* \"#utility.yul\":7371:7485   */\n    tag_167:\n      pop\n      jump\t// out\n        /* \"#utility.yul\":7491:7889   */\n    tag_168:\n        /* \"#utility.yul\":7650:7653   */\n      0x00\n        /* \"#utility.yul\":7671:7754   */\n      tag_267\n        /* \"#utility.yul\":7752:7753   */\n      0x00\n        /* \"#utility.yul\":7747:7750   */\n      dup4\n        /* \"#utility.yul\":7671:7754   */\n      tag_166\n      jump\t// in\n    tag_267:\n        /* \"#utility.yul\":7664:7754   */\n      swap2\n      pop\n        /* \"#utility.yul\":7763:7856   */\n      tag_268\n        /* \"#utility.yul\":7852:7855   */\n      dup3\n        /* \"#utility.yul\":7763:7856   */\n      tag_167\n      jump\t// in\n    tag_268:\n        /* \"#utility.yul\":7881:7882   */\n      0x00\n        /* \"#utility.yul\":7876:7879   */\n      dup3\n        /* \"#utility.yul\":7872:7883   */\n      add\n        /* \"#utility.yul\":7865:7883   */\n      swap1\n      pop\n        /* \"#utility.yul\":7491:7889   */\n      swap2\n      swap1\n      pop\n      jump\t// out\n        /* \"#utility.yul\":7895:8274   */\n    tag_94:\n        /* \"#utility.yul\":8079:8082   */\n      0x00\n        /* \"#utility.yul\":8101:8248   */\n      tag_270\n        /* \"#utility.yul\":8244:8247   */\n      dup3\n        /* \"#utility.yul\":8101:8248   */\n      tag_168\n      jump\t// in\n    tag_270:\n        /* \"#utility.yul\":8094:8248   */\n      swap2\n      pop\n        /* \"#utility.yul\":8265:8268   */\n      dup2\n        /* \"#utility.yul\":8258:8268   */\n      swap1\n      pop\n        /* \"#utility.yul\":7895:8274   */\n      swap2\n      swap1\n      pop\n      jump\t// out\n        /* \"#utility.yul\":8280:8452   */\n    tag_169:\n        /* \"#utility.yul\":8420:8444   */\n      0x46656573205769746864726177616c206661696c656400000000000000000000\n        /* \"#utility.yul\":8416:8417   */\n      0x00\n        /* \"#utility.yul\":8408:8414   */\n      dup3\n        /* \"#utility.yul\":8404:8418   */\n      add\n        /* \"#utility.yul\":8397:8445   */\n      mstore\n        /* \"#utility.yul\":8280:8452   */\n      pop\n      jump\t// out\n        /* \"#utility.yul\":8458:8824   */\n    tag_170:\n        /* \"#utility.yul\":8600:8603   */\n      0x00\n        /* \"#utility.yul\":8621:8688   */\n      tag_273\n        /* \"#utility.yul\":8685:8687   */\n      0x16\n        /* \"#utility.yul\":8680:8683   */\n      dup4\n        /* \"#utility.yul\":8621:8688   */\n      tag_160\n      jump\t// in\n    tag_273:\n        /* \"#utility.yul\":8614:8688   */\n      swap2\n      pop\n        /* \"#utility.yul\":8697:8790   */\n      tag_274\n        /* \"#utility.yul\":8786:8789   */\n      dup3\n        /* \"#utility.yul\":8697:8790   */\n      tag_169\n      jump\t// in\n    tag_274:\n        /* \"#utility.yul\":8815:8817   */\n      0x20\n        /* \"#utility.yul\":8810:8813   */\n      dup3\n        /* \"#utility.yul\":8806:8818   */\n      add\n        /* \"#utility.yul\":8799:8818   */\n      swap1\n      pop\n        /* \"#utility.yul\":8458:8824   */\n      swap2\n      swap1\n      pop\n      jump\t// out\n        /* \"#utility.yul\":8830:9249   */\n    tag_100:\n        /* \"#utility.yul\":8996:9000   */\n      0x00\n        /* \"#utility.yul\":9034:9036   */\n      0x20\n        /* \"#utility.yul\":9023:9032   */\n      dup3\n        /* \"#utility.yul\":9019:9037   */\n      add\n        /* \"#utility.yul\":9011:9037   */\n      swap1\n      pop\n        /* \"#utility.yul\":9083:9092   */\n      dup2\n        /* \"#utility.yul\":9077:9081   */\n      dup2\n        /* \"#utility.yul\":9073:9093   */\n      sub\n        /* \"#utility.yul\":9069:9070   */\n      0x00\n        /* \"#utility.yul\":9058:9067   */\n      dup4\n        /* \"#utility.yul\":9054:9071   */\n      add\n        /* \"#utility.yul\":9047:9094   */\n      mstore\n        /* \"#utility.yul\":9111:9242   */\n      tag_276\n        /* \"#utility.yul\":9237:9241   */\n      dup2\n        /* \"#utility.yul\":9111:9242   */\n      tag_170\n      jump\t// in\n    tag_276:\n        /* \"#utility.yul\":9103:9242   */\n      swap1\n      pop\n        /* \"#utility.yul\":8830:9249   */\n      swap2\n      swap1\n      pop\n      jump\t// out\n        /* \"#utility.yul\":9255:9587   */\n    tag_102:\n        /* \"#utility.yul\":9376:9380   */\n      0x00\n        /* \"#utility.yul\":9414:9416   */\n      0x40\n        /* \"#utility.yul\":9403:9412   */\n      dup3\n        /* \"#utility.yul\":9399:9417   */\n      add\n        /* \"#utility.yul\":9391:9417   */\n      swap1\n      pop\n        /* \"#utility.yul\":9427:9498   */\n      tag_278\n        /* \"#utility.yul\":9495:9496   */\n      0x00\n        /* \"#utility.yul\":9484:9493   */\n      dup4\n        /* \"#utility.yul\":9480:9497   */\n      add\n        /* \"#utility.yul\":9471:9477   */\n      dup6\n        /* \"#utility.yul\":9427:9498   */\n      tag_158\n      jump\t// in\n    tag_278:\n        /* \"#utility.yul\":9508:9580   */\n      tag_279\n        /* \"#utility.yul\":9576:9578   */\n      0x20\n        /* \"#utility.yul\":9565:9574   */\n      dup4\n        /* \"#utility.yul\":9561:9579   */\n      add\n        /* \"#utility.yul\":9552:9558   */\n      dup5\n        /* \"#utility.yul\":9508:9580   */\n      tag_145\n      jump\t// in\n    tag_279:\n        /* \"#utility.yul\":9255:9587   */\n      swap4\n      swap3\n      pop\n      pop\n      pop\n      jump\t// out\n        /* \"#utility.yul\":9593:9752   */\n    tag_171:\n        /* \"#utility.yul\":9733:9744   */\n      0x4e6f74204f776e65720000000000000000000000000000000000000000000000\n        /* \"#utility.yul\":9729:9730   */\n      0x00\n        /* \"#utility.yul\":9721:9727   */\n      dup3\n        /* \"#utility.yul\":9717:9731   */\n      add\n        /* \"#utility.yul\":9710:9745   */\n      mstore\n        /* \"#utility.yul\":9593:9752   */\n      pop\n      jump\t// out\n        /* \"#utility.yul\":9758:10123   */\n    tag_172:\n        /* \"#utility.yul\":9900:9903   */\n      0x00\n        /* \"#utility.yul\":9921:9987   */\n      tag_282\n        /* \"#utility.yul\":9985:9986   */\n      0x09\n        /* \"#utility.yul\":9980:9983   */\n      dup4\n        /* \"#utility.yul\":9921:9987   */\n      tag_160\n      jump\t// in\n    tag_282:\n        /* \"#utility.yul\":9914:9987   */\n      swap2\n      pop\n        /* \"#utility.yul\":9996:10089   */\n      tag_283\n        /* \"#utility.yul\":10085:10088   */\n      dup3\n        /* \"#utility.yul\":9996:10089   */\n      tag_171\n      jump\t// in\n    tag_283:\n        /* \"#utility.yul\":10114:10116   */\n      0x20\n        /* \"#utility.yul\":10109:10112   */\n      dup3\n        /* \"#utility.yul\":10105:10117   */\n      add\n        /* \"#utility.yul\":10098:10117   */\n      swap1\n      pop\n        /* \"#utility.yul\":9758:10123   */\n      swap2\n      swap1\n      pop\n      jump\t// out\n        /* \"#utility.yul\":10129:10548   */\n    tag_106:\n        /* \"#utility.yul\":10295:10299   */\n      0x00\n        /* \"#utility.yul\":10333:10335   */\n      0x20\n        /* \"#utility.yul\":10322:10331   */\n      dup3\n        /* \"#utility.yul\":10318:10336   */\n      add\n        /* \"#utility.yul\":10310:10336   */\n      swap1\n      pop\n        /* \"#utility.yul\":10382:10391   */\n      dup2\n        /* \"#utility.yul\":10376:10380   */\n      dup2\n        /* \"#utility.yul\":10372:10392   */\n      sub\n        /* \"#utility.yul\":10368:10369   */\n      0x00\n        /* \"#utility.yul\":10357:10366   */\n      dup4\n        /* \"#utility.yul\":10353:10370   */\n      add\n        /* \"#utility.yul\":10346:10393   */\n      mstore\n        /* \"#utility.yul\":10410:10541   */\n      tag_285\n        /* \"#utility.yul\":10536:10540   */\n      dup2\n        /* \"#utility.yul\":10410:10541   */\n      tag_172\n      jump\t// in\n    tag_285:\n        /* \"#utility.yul\":10402:10541   */\n      swap1\n      pop\n        /* \"#utility.yul\":10129:10548   */\n      swap2\n      swap1\n      pop\n      jump\t// out\n        /* \"#utility.yul\":10554:10722   */\n    tag_173:\n        /* \"#utility.yul\":10694:10714   */\n      0x4e6f742061207072656d69756d20757365720000000000000000000000000000\n        /* \"#utility.yul\":10690:10691   */\n      0x00\n        /* \"#utility.yul\":10682:10688   */\n      dup3\n        /* \"#utility.yul\":10678:10692   */\n      add\n        /* \"#utility.yul\":10671:10715   */\n      mstore\n        /* \"#utility.yul\":10554:10722   */\n      pop\n      jump\t// out\n        /* \"#utility.yul\":10728:11094   */\n    tag_174:\n        /* \"#utility.yul\":10870:10873   */\n      0x00\n        /* \"#utility.yul\":10891:10958   */\n      tag_288\n        /* \"#utility.yul\":10955:10957   */\n      0x12\n        /* \"#utility.yul\":10950:10953   */\n      dup4\n        /* \"#utility.yul\":10891:10958   */\n      tag_160\n      jump\t// in\n    tag_288:\n        /* \"#utility.yul\":10884:10958   */\n      swap2\n      pop\n        /* \"#utility.yul\":10967:11060   */\n      tag_289\n        /* \"#utility.yul\":11056:11059   */\n      dup3\n        /* \"#utility.yul\":10967:11060   */\n      tag_173\n      jump\t// in\n    tag_289:\n        /* \"#utility.yul\":11085:11087   */\n      0x20\n        /* \"#utility.yul\":11080:11083   */\n      dup3\n        /* \"#utility.yul\":11076:11088   */\n      add\n        /* \"#utility.yul\":11069:11088   */\n      swap1\n      pop\n        /* \"#utility.yul\":10728:11094   */\n      swap2\n      swap1\n      pop\n      jump\t// out\n        /* \"#utility.yul\":11100:11519   */\n    tag_110:\n        /* \"#utility.yul\":11266:11270   */\n      0x00\n        /* \"#utility.yul\":11304:11306   */\n      0x20\n        /* \"#utility.yul\":11293:11302   */\n      dup3\n        /* \"#utility.yul\":11289:11307   */\n      add\n        /* \"#utility.yul\":11281:11307   */\n      swap1\n      pop\n        /* \"#utility.yul\":11353:11362   */\n      dup2\n        /* \"#utility.yul\":11347:11351   */\n      dup2\n        /* \"#utility.yul\":11343:11363   */\n      sub\n        /* \"#utility.yul\":11339:11340   */\n      0x00\n        /* \"#utility.yul\":11328:11337   */\n      dup4\n        /* \"#utility.yul\":11324:11341   */\n      add\n        /* \"#utility.yul\":11317:11364   */\n      mstore\n        /* \"#utility.yul\":11381:11512   */\n      tag_291\n        /* \"#utility.yul\":11507:11511   */\n      dup2\n        /* \"#utility.yul\":11381:11512   */\n      tag_174\n      jump\t// in\n    tag_291:\n        /* \"#utility.yul\":11373:11512   */\n      swap1\n      pop\n        /* \"#utility.yul\":11100:11519   */\n      swap2\n      swap1\n      pop\n      jump\t// out\n        /* \"#utility.yul\":11525:11697   */\n    tag_175:\n        /* \"#utility.yul\":11665:11689   */\n      0x416c72656164792061207072656d69756d207573657200000000000000000000\n        /* \"#utility.yul\":11661:11662   */\n      0x00\n        /* \"#utility.yul\":11653:11659   */\n      dup3\n        /* \"#utility.yul\":11649:11663   */\n      add\n        /* \"#utility.yul\":11642:11690   */\n      mstore\n        /* \"#utility.yul\":11525:11697   */\n      pop\n      jump\t// out\n        /* \"#utility.yul\":11703:12069   */\n    tag_176:\n        /* \"#utility.yul\":11845:11848   */\n      0x00\n        /* \"#utility.yul\":11866:11933   */\n      tag_294\n        /* \"#utility.yul\":11930:11932   */\n      0x16\n        /* \"#utility.yul\":11925:11928   */\n      dup4\n        /* \"#utility.yul\":11866:11933   */\n      tag_160\n      jump\t// in\n    tag_294:\n        /* \"#utility.yul\":11859:11933   */\n      swap2\n      pop\n        /* \"#utility.yul\":11942:12035   */\n      tag_295\n        /* \"#utility.yul\":12031:12034   */\n      dup3\n        /* \"#utility.yul\":11942:12035   */\n      tag_175\n      jump\t// in\n    tag_295:\n        /* \"#utility.yul\":12060:12062   */\n      0x20\n        /* \"#utility.yul\":12055:12058   */\n      dup3\n        /* \"#utility.yul\":12051:12063   */\n      add\n        /* \"#utility.yul\":12044:12063   */\n      swap1\n      pop\n        /* \"#utility.yul\":11703:12069   */\n      swap2\n      swap1\n      pop\n      jump\t// out\n        /* \"#utility.yul\":12075:12494   */\n    tag_118:\n        /* \"#utility.yul\":12241:12245   */\n      0x00\n        /* \"#utility.yul\":12279:12281   */\n      0x20\n        /* \"#utility.yul\":12268:12277   */\n      dup3\n        /* \"#utility.yul\":12264:12282   */\n      add\n        /* \"#utility.yul\":12256:12282   */\n      swap1\n      pop\n        /* \"#utility.yul\":12328:12337   */\n      dup2\n        /* \"#utility.yul\":12322:12326   */\n      dup2\n        /* \"#utility.yul\":12318:12338   */\n      sub\n        /* \"#utility.yul\":12314:12315   */\n      0x00\n        /* \"#utility.yul\":12303:12312   */\n      dup4\n        /* \"#utility.yul\":12299:12316   */\n      add\n        /* \"#utility.yul\":12292:12339   */\n      mstore\n        /* \"#utility.yul\":12356:12487   */\n      tag_297\n        /* \"#utility.yul\":12482:12486   */\n      dup2\n        /* \"#utility.yul\":12356:12487   */\n      tag_176\n      jump\t// in\n    tag_297:\n        /* \"#utility.yul\":12348:12487   */\n      swap1\n      pop\n        /* \"#utility.yul\":12075:12494   */\n      swap2\n      swap1\n      pop\n      jump\t// out\n        /* \"#utility.yul\":12500:12832   */\n    tag_125:\n        /* \"#utility.yul\":12621:12625   */\n      0x00\n        /* \"#utility.yul\":12659:12661   */\n      0x40\n        /* \"#utility.yul\":12648:12657   */\n      dup3\n        /* \"#utility.yul\":12644:12662   */\n      add\n        /* \"#utility.yul\":12636:12662   */\n      swap1\n      pop\n        /* \"#utility.yul\":12672:12743   */\n      tag_299\n        /* \"#utility.yul\":12740:12741   */\n      0x00\n        /* \"#utility.yul\":12729:12738   */\n      dup4\n        /* \"#utility.yul\":12725:12742   */\n      add\n        /* \"#utility.yul\":12716:12722   */\n      dup6\n        /* \"#utility.yul\":12672:12743   */\n      tag_145\n      jump\t// in\n    tag_299:\n        /* \"#utility.yul\":12753:12825   */\n      tag_300\n        /* \"#utility.yul\":12821:12823   */\n      0x20\n        /* \"#utility.yul\":12810:12819   */\n      dup4\n        /* \"#utility.yul\":12806:12824   */\n      add\n        /* \"#utility.yul\":12797:12803   */\n      dup5\n        /* \"#utility.yul\":12753:12825   */\n      tag_145\n      jump\t// in\n    tag_300:\n        /* \"#utility.yul\":12500:12832   */\n      swap4\n      swap3\n      pop\n      pop\n      pop\n      jump\t// out\n        /* \"#utility.yul\":12838:13005   */\n    tag_177:\n        /* \"#utility.yul\":12978:12997   */\n      0x5769746864726177616c206661696c6564000000000000000000000000000000\n        /* \"#utility.yul\":12974:12975   */\n      0x00\n        /* \"#utility.yul\":12966:12972   */\n      dup3\n        /* \"#utility.yul\":12962:12976   */\n      add\n        /* \"#utility.yul\":12955:12998   */\n      mstore\n        /* \"#utility.yul\":12838:13005   */\n      pop\n      jump\t// out\n        /* \"#utility.yul\":13011:13377   */\n    tag_178:\n        /* \"#utility.yul\":13153:13156   */\n      0x00\n        /* \"#utility.yul\":13174:13241   */\n      tag_303\n        /* \"#utility.yul\":13238:13240   */\n      0x11\n        /* \"#utility.yul\":13233:13236   */\n      dup4\n        /* \"#utility.yul\":13174:13241   */\n      tag_160\n      jump\t// in\n    tag_303:\n        /* \"#utility.yul\":13167:13241   */\n      swap2\n      pop\n        /* \"#utility.yul\":13250:13343   */\n      tag_304\n        /* \"#utility.yul\":13339:13342   */\n      dup3\n        /* \"#utility.yul\":13250:13343   */\n      tag_177\n      jump\t// in\n    tag_304:\n        /* \"#utility.yul\":13368:13370   */\n      0x20\n        /* \"#utility.yul\":13363:13366   */\n      dup3\n        /* \"#utility.yul\":13359:13371   */\n      add\n        /* \"#utility.yul\":13352:13371   */\n      swap1\n      pop\n        /* \"#utility.yul\":13011:13377   */\n      swap2\n      swap1\n      pop\n      jump\t// out\n        /* \"#utility.yul\":13383:13802   */\n    tag_141:\n        /* \"#utility.yul\":13549:13553   */\n      0x00\n        /* \"#utility.yul\":13587:13589   */\n      0x20\n        /* \"#utility.yul\":13576:13585   */\n      dup3\n        /* \"#utility.yul\":13572:13590   */\n      add\n        /* \"#utility.yul\":13564:13590   */\n      swap1\n      pop\n        /* \"#utility.yul\":13636:13645   */\n      dup2\n        /* \"#utility.yul\":13630:13634   */\n      dup2\n        /* \"#utility.yul\":13626:13646   */\n      sub\n        /* \"#utility.yul\":13622:13623   */\n      0x00\n        /* \"#utility.yul\":13611:13620   */\n      dup4\n        /* \"#utility.yul\":13607:13624   */\n      add\n        /* \"#utility.yul\":13600:13647   */\n      mstore\n        /* \"#utility.yul\":13664:13795   */\n      tag_306\n        /* \"#utility.yul\":13790:13794   */\n      dup2\n        /* \"#utility.yul\":13664:13795   */\n      tag_178\n      jump\t// in\n    tag_306:\n        /* \"#utility.yul\":13656:13795   */\n      swap1\n      pop\n        /* \"#utility.yul\":13383:13802   */\n      swap2\n      swap1\n      pop\n      jump\t// out\n\n    auxdata: 0xa2646970667358221220451387f0a129289ad7c725a7ae6971754e4f0572b7f23323bae7770021c1b8b564736f6c634300081e0033\n}\n",
				"bytecode": {
					"linkReferences": {},
					"object": "6080604052600a6002553480156013575f5ffd5b50335f5f6101000a81548173ffffffffffffffffffffffffffffffffffffffff021916908373ffffffffffffffffffffffffffffffffffffffff1602179055506114b4806100605f395ff3fe608060405260043610610094575f3560e01c80638da5cb5b116100585780638da5cb5b146102bb5780639012c4a8146102e5578063a001ecdd1461030d578063aeffed2914610337578063d0e30db0146103735761013c565b80632e1a7d4d146101df57806338d07436146102075780636deb88fc1461022f57806370a0823114610257578063772f8316146102935761013c565b3661013c573460015f3373ffffffffffffffffffffffffffffffffffffffff1673ffffffffffffffffffffffffffffffffffffffff1681526020019081526020015f205f8282546100e59190610e3a565b925050819055503373ffffffffffffffffffffffffffffffffffffffff167fd6717f327e0cb88b4a97a7f67a453e9258252c34937ccbdd86de7cb840e7def3346040516101329190610e7c565b60405180910390a2005b3460015f3373ffffffffffffffffffffffffffffffffffffffff1673ffffffffffffffffffffffffffffffffffffffff1681526020019081526020015f205f8282546101889190610e3a565b925050819055503373ffffffffffffffffffffffffffffffffffffffff167ffbf15a1bae5e021d024841007b692b167afd2a281a4ff0b44f47387eb388205c346040516101d59190610e7c565b60405180910390a2005b3480156101ea575f5ffd5b5061020560048036038101906102009190610ec3565b61037d565b005b348015610212575f5ffd5b5061022d60048036038101906102289190610f23565b61045b565b005b34801561023a575f5ffd5b5061025560048036038101906102509190610fbb565b6106c2565b005b348015610262575f5ffd5b5061027d60048036038101906102789190610fbb565b61087e565b60405161028a9190610e7c565b60405180910390f35b34801561029e575f5ffd5b506102b960048036038101906102b49190610fbb565b610893565b005b3480156102c6575f5ffd5b506102cf610a51565b6040516102dc9190610ff5565b60405180910390f35b3480156102f0575f5ffd5b5061030b60048036038101906103069190610ec3565b610a75565b005b348015610318575f5ffd5b50610321610b46565b60405161032e9190610e7c565b60405180910390f35b348015610342575f5ffd5b5061035d60048036038101906103589190610fbb565b610b4c565b60405161036a919061101d565b60405180910390f35b61037b610b69565b005b5f60149054906101000a900460ff16156103cc576040517f08c379a00000000000000000000000000000000000000000000000000000000081526004016103c390611090565b60405180910390fd5b60015f60146101000a81548160ff0219169083151502179055505f60035f3373ffffffffffffffffffffffffffffffffffffffff1673ffffffffffffffffffffffffffffffffffffffff1681526020019081526020015f205f9054906101000a900460ff16905061043e82821561045b565b505f5f60146101000a81548160ff02191690831515021790555050565b8061046e5761046982610c0c565b6106be565b5f670de0b6b3a76400008361048391906110ae565b90505f60646002548561049691906110ae565b6104a0919061111c565b90505f81856104af919061114c565b90508260015f3373ffffffffffffffffffffffffffffffffffffffff1673ffffffffffffffffffffffffffffffffffffffff1681526020019081526020015f20541015610531576040517f08c379a0000000000000000000000000000000000000000000000000000000008152600401610528906111c9565b60405180910390fd5b670de0b6b3a76400008261054591906110ae565b60015f3373ffffffffffffffffffffffffffffffffffffffff1673ffffffffffffffffffffffffffffffffffffffff1681526020019081526020015f205f828254610590919061114c565b925050819055506105a081610c0c565b5f670de0b6b3a7640000836105b591906110ae565b90505f5f5f9054906101000a900473ffffffffffffffffffffffffffffffffffffffff1673ffffffffffffffffffffffffffffffffffffffff16826040516105fc90611214565b5f6040518083038185875af1925050503d805f8114610636576040519150601f19603f3d011682016040523d82523d5f602084013e61063b565b606091505b505090508061067f576040517f08c379a000000000000000000000000000000000000000000000000000000000815260040161067690611272565b60405180910390fd5b7fc0819c13be868895eb93e40eaceb96de976442fa1d404e5c55f14bb65a8c489a33836040516106b0929190611290565b60405180910390a150505050505b5050565b5f5f9054906101000a900473ffffffffffffffffffffffffffffffffffffffff1673ffffffffffffffffffffffffffffffffffffffff163373ffffffffffffffffffffffffffffffffffffffff1614610750576040517f08c379a000000000000000000000000000000000000000000000000000000000815260040161074790611301565b60405180910390fd5b60035f8273ffffffffffffffffffffffffffffffffffffffff1673ffffffffffffffffffffffffffffffffffffffff1681526020019081526020015f205f9054906101000a900460ff166107d9576040517f08c379a00000000000000000000000000000000000000000000000000000000081526004016107d090611369565b60405180910390fd5b5f60035f8373ffffffffffffffffffffffffffffffffffffffff1673ffffffffffffffffffffffffffffffffffffffff1681526020019081526020015f205f6101000a81548160ff0219169083151502179055508073ffffffffffffffffffffffffffffffffffffffff167f27901402b7a88dcad52b23014a18758b42e92a996ec9bc0651ee4b1367b8a4a8426040516108739190610e7c565b60405180910390a250565b6001602052805f5260405f205f915090505481565b5f5f9054906101000a900473ffffffffffffffffffffffffffffffffffffffff1673ffffffffffffffffffffffffffffffffffffffff163373ffffffffffffffffffffffffffffffffffffffff1614610921576040517f08c379a000000000000000000000000000000000000000000000000000000000815260040161091890611301565b60405180910390fd5b60035f8273ffffffffffffffffffffffffffffffffffffffff1673ffffffffffffffffffffffffffffffffffffffff1681526020019081526020015f205f9054906101000a900460ff16156109ab576040517f08c379a00000000000000000000000000000000000000000000000000000000081526004016109a2906113d1565b60405180910390fd5b600160035f8373ffffffffffffffffffffffffffffffffffffffff1673ffffffffffffffffffffffffffffffffffffffff1681526020019081526020015f205f6101000a81548160ff0219169083151502179055508073ffffffffffffffffffffffffffffffffffffffff167f3c521a01e5b8cc0c480919ef2e8031de8d54a2bb0371d2967be98a07aeb8136542604051610a469190610e7c565b60405180910390a250565b5f5f9054906101000a900473ffffffffffffffffffffffffffffffffffffffff1681565b5f5f9054906101000a900473ffffffffffffffffffffffffffffffffffffffff1673ffffffffffffffffffffffffffffffffffffffff163373ffffffffffffffffffffffffffffffffffffffff1614610b03576040517f08c379a0000000000000000000000000000000000000000000000000000000008152600401610afa90611301565b60405180910390fd5b806002819055507f528d9479e9f9889a87a3c30c7f7ba537e5e59c4c85a37733b16e57c62df613028142604051610b3b9291906113ef565b60405180910390a150565b60025481565b6003602052805f5260405f205f915054906101000a900460ff1681565b3460015f3373ffffffffffffffffffffffffffffffffffffffff1673ffffffffffffffffffffffffffffffffffffffff1681526020019081526020015f205f828254610bb59190610e3a565b925050819055503373ffffffffffffffffffffffffffffffffffffffff167fe1fffcc4923d04b559f4d29a8bfc6cda04eb5b0d3c460751c2402c5c5cc9109c34604051610c029190610e7c565b60405180910390a2565b5f670de0b6b3a764000082610c2191906110ae565b905060015f3373ffffffffffffffffffffffffffffffffffffffff1673ffffffffffffffffffffffffffffffffffffffff1681526020019081526020015f2054811115610ca3576040517f08c379a0000000000000000000000000000000000000000000000000000000008152600401610c9a906111c9565b60405180910390fd5b670de0b6b3a764000082610cb791906110ae565b60015f3373ffffffffffffffffffffffffffffffffffffffff1673ffffffffffffffffffffffffffffffffffffffff1681526020019081526020015f205f828254610d02919061114c565b925050819055505f3373ffffffffffffffffffffffffffffffffffffffff1682604051610d2e90611214565b5f6040518083038185875af1925050503d805f8114610d68576040519150601f19603f3d011682016040523d82523d5f602084013e610d6d565b606091505b5050905080610db1576040517f08c379a0000000000000000000000000000000000000000000000000000000008152600401610da890611460565b60405180910390fd5b3373ffffffffffffffffffffffffffffffffffffffff167f884edad9ce6fa2440d8a54cc123490eb96d2768479d49ff9c7366125a942436483604051610df79190610e7c565b60405180910390a2505050565b5f819050919050565b7f4e487b71000000000000000000000000000000000000000000000000000000005f52601160045260245ffd5b5f610e4482610e04565b9150610e4f83610e04565b9250828201905080821115610e6757610e66610e0d565b5b92915050565b610e7681610e04565b82525050565b5f602082019050610e8f5f830184610e6d565b92915050565b5f5ffd5b610ea281610e04565b8114610eac575f5ffd5b50565b5f81359050610ebd81610e99565b92915050565b5f60208284031215610ed857610ed7610e95565b5b5f610ee584828501610eaf565b91505092915050565b5f8115159050919050565b610f0281610eee565b8114610f0c575f5ffd5b50565b5f81359050610f1d81610ef9565b92915050565b5f5f60408385031215610f3957610f38610e95565b5b5f610f4685828601610eaf565b9250506020610f5785828601610f0f565b9150509250929050565b5f73ffffffffffffffffffffffffffffffffffffffff82169050919050565b5f610f8a82610f61565b9050919050565b610f9a81610f80565b8114610fa4575f5ffd5b50565b5f81359050610fb581610f91565b92915050565b5f60208284031215610fd057610fcf610e95565b5b5f610fdd84828501610fa7565b91505092915050565b610fef81610f80565b82525050565b5f6020820190506110085f830184610fe6565b92915050565b61101781610eee565b82525050565b5f6020820190506110305f83018461100e565b92915050565b5f82825260208201905092915050565b7f5265656e7472616e6379000000000000000000000000000000000000000000005f82015250565b5f61107a600a83611036565b915061108582611046565b602082019050919050565b5f6020820190508181035f8301526110a78161106e565b9050919050565b5f6110b882610e04565b91506110c383610e04565b92508282026110d181610e04565b915082820484148315176110e8576110e7610e0d565b5b5092915050565b7f4e487b71000000000000000000000000000000000000000000000000000000005f52601260045260245ffd5b5f61112682610e04565b915061113183610e04565b925082611141576111406110ef565b5b828204905092915050565b5f61115682610e04565b915061116183610e04565b925082820390508181111561117957611178610e0d565b5b92915050565b7f496e73756666696369656e742066756e647300000000000000000000000000005f82015250565b5f6111b3601283611036565b91506111be8261117f565b602082019050919050565b5f6020820190508181035f8301526111e0816111a7565b9050919050565b5f81905092915050565b50565b5f6111ff5f836111e7565b915061120a826111f1565b5f82019050919050565b5f61121e826111f4565b9150819050919050565b7f46656573205769746864726177616c206661696c6564000000000000000000005f82015250565b5f61125c601683611036565b915061126782611228565b602082019050919050565b5f6020820190508181035f83015261128981611250565b9050919050565b5f6040820190506112a35f830185610fe6565b6112b06020830184610e6d565b9392505050565b7f4e6f74204f776e657200000000000000000000000000000000000000000000005f82015250565b5f6112eb600983611036565b91506112f6826112b7565b602082019050919050565b5f6020820190508181035f830152611318816112df565b9050919050565b7f4e6f742061207072656d69756d207573657200000000000000000000000000005f82015250565b5f611353601283611036565b915061135e8261131f565b602082019050919050565b5f6020820190508181035f83015261138081611347565b9050919050565b7f416c72656164792061207072656d69756d2075736572000000000000000000005f82015250565b5f6113bb601683611036565b91506113c682611387565b602082019050919050565b5f6020820190508181035f8301526113e8816113af565b9050919050565b5f6040820190506114025f830185610e6d565b61140f6020830184610e6d565b9392505050565b7f5769746864726177616c206661696c65640000000000000000000000000000005f82015250565b5f61144a601183611036565b915061145582611416565b602082019050919050565b5f6020820190508181035f8301526114778161143e565b905091905056fea2646970667358221220451387f0a129289ad7c725a7ae6971754e4f0572b7f23323bae7770021c1b8b564736f6c634300081e0033",
					"opcodes": "PUSH1 0x80 PUSH1 0x40 MSTORE PUSH1 0xA PUSH1 0x2 SSTORE CALLVALUE DUP1 ISZERO PUSH1 0x13 JUMPI PUSH0 PUSH0 REVERT JUMPDEST POP CALLER PUSH0 PUSH0 PUSH2 0x100 EXP DUP2 SLOAD DUP2 PUSH20 0xFFFFFFFFFFFFFFFFFFFFFFFFFFFFFFFFFFFFFFFF MUL NOT AND SWAP1 DUP4 PUSH20 0xFFFFFFFFFFFFFFFFFFFFFFFFFFFFFFFFFFFFFFFF AND MUL OR SWAP1 SSTORE POP PUSH2 0x14B4 DUP1 PUSH2 0x60 PUSH0 CODECOPY PUSH0 RETURN INVALID PUSH1 0x80 PUSH1 0x40 MSTORE PUSH1 0x4 CALLDATASIZE LT PUSH2 0x94 JUMPI PUSH0 CALLDATALOAD PUSH1 0xE0 SHR DUP1 PUSH4 0x8DA5CB5B GT PUSH2 0x58 JUMPI DUP1 PUSH4 0x8DA5CB5B EQ PUSH2 0x2BB JUMPI DUP1 PUSH4 0x9012C4A8 EQ PUSH2 0x2E5 JUMPI DUP1 PUSH4 0xA001ECDD EQ PUSH2 0x30D JUMPI DUP1 PUSH4 0xAEFFED29 EQ PUSH2 0x337 JUMPI DUP1 PUSH4 0xD0E30DB0 EQ PUSH2 0x373 JUMPI PUSH2 0x13C JUMP JUMPDEST DUP1 PUSH4 0x2E1A7D4D EQ PUSH2 0x1DF JUMPI DUP1 PUSH4 0x38D07436 EQ PUSH2 0x207 JUMPI DUP1 PUSH4 0x6DEB88FC EQ PUSH2 0x22F JUMPI DUP1 PUSH4 0x70A08231 EQ PUSH2 0x257 JUMPI DUP1 PUSH4 0x772F8316 EQ PUSH2 0x293 JUMPI PUSH2 0x13C JUMP JUMPDEST CALLDATASIZE PUSH2 0x13C JUMPI CALLVALUE PUSH1 0x1 PUSH0 CALLER PUSH20 0xFFFFFFFFFFFFFFFFFFFFFFFFFFFFFFFFFFFFFFFF AND PUSH20 0xFFFFFFFFFFFFFFFFFFFFFFFFFFFFFFFFFFFFFFFF AND DUP2 MSTORE PUSH1 0x20 ADD SWAP1 DUP2 MSTORE PUSH1 0x20 ADD PUSH0 KECCAK256 PUSH0 DUP3 DUP3 SLOAD PUSH2 0xE5 SWAP2 SWAP1 PUSH2 0xE3A JUMP JUMPDEST SWAP3 POP POP DUP2 SWAP1 SSTORE POP CALLER PUSH20 0xFFFFFFFFFFFFFFFFFFFFFFFFFFFFFFFFFFFFFFFF AND PUSH32 0xD6717F327E0CB88B4A97A7F67A453E9258252C34937CCBDD86DE7CB840E7DEF3 CALLVALUE PUSH1 0x40 MLOAD PUSH2 0x132 SWAP2 SWAP1 PUSH2 0xE7C JUMP JUMPDEST PUSH1 0x40 MLOAD DUP1 SWAP2 SUB SWAP1 LOG2 STOP JUMPDEST CALLVALUE PUSH1 0x1 PUSH0 CALLER PUSH20 0xFFFFFFFFFFFFFFFFFFFFFFFFFFFFFFFFFFFFFFFF AND PUSH20 0xFFFFFFFFFFFFFFFFFFFFFFFFFFFFFFFFFFFFFFFF AND DUP2 MSTORE PUSH1 0x20 ADD SWAP1 DUP2 MSTORE PUSH1 0x20 ADD PUSH0 KECCAK256 PUSH0 DUP3 DUP3 SLOAD PUSH2 0x188 SWAP2 SWAP1 PUSH2 0xE3A JUMP JUMPDEST SWAP3 POP POP DUP2 SWAP1 SSTORE POP CALLER PUSH20 0xFFFFFFFFFFFFFFFFFFFFFFFFFFFFFFFFFFFFFFFF AND PUSH32 0xFBF15A1BAE5E021D024841007B692B167AFD2A281A4FF0B44F47387EB388205C CALLVALUE PUSH1 0x40 MLOAD PUSH2 0x1D5 SWAP2 SWAP1 PUSH2 0xE7C JUMP JUMPDEST PUSH1 0x40 MLOAD DUP1 SWAP2 SUB SWAP1 LOG2 STOP JUMPDEST CALLVALUE DUP1 ISZERO PUSH2 0x1EA JUMPI PUSH0 PUSH0 REVERT JUMPDEST POP PUSH2 0x205 PUSH1 0x4 DUP1 CALLDATASIZE SUB DUP2 ADD SWAP1 PUSH2 0x200 SWAP2 SWAP1 PUSH2 0xEC3 JUMP JUMPDEST PUSH2 0x37D JUMP JUMPDEST STOP JUMPDEST CALLVALUE DUP1 ISZERO PUSH2 0x212 JUMPI PUSH0 PUSH0 REVERT JUMPDEST POP PUSH2 0x22D PUSH1 0x4 DUP1 CALLDATASIZE SUB DUP2 ADD SWAP1 PUSH2 0x228 SWAP2 SWAP1 PUSH2 0xF23 JUMP JUMPDEST PUSH2 0x45B JUMP JUMPDEST STOP JUMPDEST CALLVALUE DUP1 ISZERO PUSH2 0x23A JUMPI PUSH0 PUSH0 REVERT JUMPDEST POP PUSH2 0x255 PUSH1 0x4 DUP1 CALLDATASIZE SUB DUP2 ADD SWAP1 PUSH2 0x250 SWAP2 SWAP1 PUSH2 0xFBB JUMP JUMPDEST PUSH2 0x6C2 JUMP JUMPDEST STOP JUMPDEST CALLVALUE DUP1 ISZERO PUSH2 0x262 JUMPI PUSH0 PUSH0 REVERT JUMPDEST POP PUSH2 0x27D PUSH1 0x4 DUP1 CALLDATASIZE SUB DUP2 ADD SWAP1 PUSH2 0x278 SWAP2 SWAP1 PUSH2 0xFBB JUMP JUMPDEST PUSH2 0x87E JUMP JUMPDEST PUSH1 0x40 MLOAD PUSH2 0x28A SWAP2 SWAP1 PUSH2 0xE7C JUMP JUMPDEST PUSH1 0x40 MLOAD DUP1 SWAP2 SUB SWAP1 RETURN JUMPDEST CALLVALUE DUP1 ISZERO PUSH2 0x29E JUMPI PUSH0 PUSH0 REVERT JUMPDEST POP PUSH2 0x2B9 PUSH1 0x4 DUP1 CALLDATASIZE SUB DUP2 ADD SWAP1 PUSH2 0x2B4 SWAP2 SWAP1 PUSH2 0xFBB JUMP JUMPDEST PUSH2 0x893 JUMP JUMPDEST STOP JUMPDEST CALLVALUE DUP1 ISZERO PUSH2 0x2C6 JUMPI PUSH0 PUSH0 REVERT JUMPDEST POP PUSH2 0x2CF PUSH2 0xA51 JUMP JUMPDEST PUSH1 0x40 MLOAD PUSH2 0x2DC SWAP2 SWAP1 PUSH2 0xFF5 JUMP JUMPDEST PUSH1 0x40 MLOAD DUP1 SWAP2 SUB SWAP1 RETURN JUMPDEST CALLVALUE DUP1 ISZERO PUSH2 0x2F0 JUMPI PUSH0 PUSH0 REVERT JUMPDEST POP PUSH2 0x30B PUSH1 0x4 DUP1 CALLDATASIZE SUB DUP2 ADD SWAP1 PUSH2 0x306 SWAP2 SWAP1 PUSH2 0xEC3 JUMP JUMPDEST PUSH2 0xA75 JUMP JUMPDEST STOP JUMPDEST CALLVALUE DUP1 ISZERO PUSH2 0x318 JUMPI PUSH0 PUSH0 REVERT JUMPDEST POP PUSH2 0x321 PUSH2 0xB46 JUMP JUMPDEST PUSH1 0x40 MLOAD PUSH2 0x32E SWAP2 SWAP1 PUSH2 0xE7C JUMP JUMPDEST PUSH1 0x40 MLOAD DUP1 SWAP2 SUB SWAP1 RETURN JUMPDEST CALLVALUE DUP1 ISZERO PUSH2 0x342 JUMPI PUSH0 PUSH0 REVERT JUMPDEST POP PUSH2 0x35D PUSH1 0x4 DUP1 CALLDATASIZE SUB DUP2 ADD SWAP1 PUSH2 0x358 SWAP2 SWAP1 PUSH2 0xFBB JUMP JUMPDEST PUSH2 0xB4C JUMP JUMPDEST PUSH1 0x40 MLOAD PUSH2 0x36A SWAP2 SWAP1 PUSH2 0x101D JUMP JUMPDEST PUSH1 0x40 MLOAD DUP1 SWAP2 SUB SWAP1 RETURN JUMPDEST PUSH2 0x37B PUSH2 0xB69 JUMP JUMPDEST STOP JUMPDEST PUSH0 PUSH1 0x14 SWAP1 SLOAD SWAP1 PUSH2 0x100 EXP SWAP1 DIV PUSH1 0xFF AND ISZERO PUSH2 0x3CC JUMPI PUSH1 0x40 MLOAD PUSH32 0x8C379A000000000000000000000000000000000000000000000000000000000 DUP2 MSTORE PUSH1 0x4 ADD PUSH2 0x3C3 SWAP1 PUSH2 0x1090 JUMP JUMPDEST PUSH1 0x40 MLOAD DUP1 SWAP2 SUB SWAP1 REVERT JUMPDEST PUSH1 0x1 PUSH0 PUSH1 0x14 PUSH2 0x100 EXP DUP2 SLOAD DUP2 PUSH1 0xFF MUL NOT AND SWAP1 DUP4 ISZERO ISZERO MUL OR SWAP1 SSTORE POP PUSH0 PUSH1 0x3 PUSH0 CALLER PUSH20 0xFFFFFFFFFFFFFFFFFFFFFFFFFFFFFFFFFFFFFFFF AND PUSH20 0xFFFFFFFFFFFFFFFFFFFFFFFFFFFFFFFFFFFFFFFF AND DUP2 MSTORE PUSH1 0x20 ADD SWAP1 DUP2 MSTORE PUSH1 0x20 ADD PUSH0 KECCAK256 PUSH0 SWAP1 SLOAD SWAP1 PUSH2 0x100 EXP SWAP1 DIV PUSH1 0xFF AND SWAP1 POP PUSH2 0x43E DUP3 DUP3 ISZERO PUSH2 0x45B JUMP JUMPDEST POP PUSH0 PUSH0 PUSH1 0x14 PUSH2 0x100 EXP DUP2 SLOAD DUP2 PUSH1 0xFF MUL NOT AND SWAP1 DUP4 ISZERO ISZERO MUL OR SWAP1 SSTORE POP POP JUMP JUMPDEST DUP1 PUSH2 0x46E JUMPI PUSH2 0x469 DUP3 PUSH2 0xC0C JUMP JUMPDEST PUSH2 0x6BE JUMP JUMPDEST PUSH0 PUSH8 0xDE0B6B3A7640000 DUP4 PUSH2 0x483 SWAP2 SWAP1 PUSH2 0x10AE JUMP JUMPDEST SWAP1 POP PUSH0 PUSH1 0x64 PUSH1 0x2 SLOAD DUP6 PUSH2 0x496 SWAP2 SWAP1 PUSH2 0x10AE JUMP JUMPDEST PUSH2 0x4A0 SWAP2 SWAP1 PUSH2 0x111C JUMP JUMPDEST SWAP1 POP PUSH0 DUP2 DUP6 PUSH2 0x4AF SWAP2 SWAP1 PUSH2 0x114C JUMP JUMPDEST SWAP1 POP DUP3 PUSH1 0x1 PUSH0 CALLER PUSH20 0xFFFFFFFFFFFFFFFFFFFFFFFFFFFFFFFFFFFFFFFF AND PUSH20 0xFFFFFFFFFFFFFFFFFFFFFFFFFFFFFFFFFFFFFFFF AND DUP2 MSTORE PUSH1 0x20 ADD SWAP1 DUP2 MSTORE PUSH1 0x20 ADD PUSH0 KECCAK256 SLOAD LT ISZERO PUSH2 0x531 JUMPI PUSH1 0x40 MLOAD PUSH32 0x8C379A000000000000000000000000000000000000000000000000000000000 DUP2 MSTORE PUSH1 0x4 ADD PUSH2 0x528 SWAP1 PUSH2 0x11C9 JUMP JUMPDEST PUSH1 0x40 MLOAD DUP1 SWAP2 SUB SWAP1 REVERT JUMPDEST PUSH8 0xDE0B6B3A7640000 DUP3 PUSH2 0x545 SWAP2 SWAP1 PUSH2 0x10AE JUMP JUMPDEST PUSH1 0x1 PUSH0 CALLER PUSH20 0xFFFFFFFFFFFFFFFFFFFFFFFFFFFFFFFFFFFFFFFF AND PUSH20 0xFFFFFFFFFFFFFFFFFFFFFFFFFFFFFFFFFFFFFFFF AND DUP2 MSTORE PUSH1 0x20 ADD SWAP1 DUP2 MSTORE PUSH1 0x20 ADD PUSH0 KECCAK256 PUSH0 DUP3 DUP3 SLOAD PUSH2 0x590 SWAP2 SWAP1 PUSH2 0x114C JUMP JUMPDEST SWAP3 POP POP DUP2 SWAP1 SSTORE POP PUSH2 0x5A0 DUP2 PUSH2 0xC0C JUMP JUMPDEST PUSH0 PUSH8 0xDE0B6B3A7640000 DUP4 PUSH2 0x5B5 SWAP2 SWAP1 PUSH2 0x10AE JUMP JUMPDEST SWAP1 POP PUSH0 PUSH0 PUSH0 SWAP1 SLOAD SWAP1 PUSH2 0x100 EXP SWAP1 DIV PUSH20 0xFFFFFFFFFFFFFFFFFFFFFFFFFFFFFFFFFFFFFFFF AND PUSH20 0xFFFFFFFFFFFFFFFFFFFFFFFFFFFFFFFFFFFFFFFF AND DUP3 PUSH1 0x40 MLOAD PUSH2 0x5FC SWAP1 PUSH2 0x1214 JUMP JUMPDEST PUSH0 PUSH1 0x40 MLOAD DUP1 DUP4 SUB DUP2 DUP6 DUP8 GAS CALL SWAP3 POP POP POP RETURNDATASIZE DUP1 PUSH0 DUP2 EQ PUSH2 0x636 JUMPI PUSH1 0x40 MLOAD SWAP2 POP PUSH1 0x1F NOT PUSH1 0x3F RETURNDATASIZE ADD AND DUP3 ADD PUSH1 0x40 MSTORE RETURNDATASIZE DUP3 MSTORE RETURNDATASIZE PUSH0 PUSH1 0x20 DUP5 ADD RETURNDATACOPY PUSH2 0x63B JUMP JUMPDEST PUSH1 0x60 SWAP2 POP JUMPDEST POP POP SWAP1 POP DUP1 PUSH2 0x67F JUMPI PUSH1 0x40 MLOAD PUSH32 0x8C379A000000000000000000000000000000000000000000000000000000000 DUP2 MSTORE PUSH1 0x4 ADD PUSH2 0x676 SWAP1 PUSH2 0x1272 JUMP JUMPDEST PUSH1 0x40 MLOAD DUP1 SWAP2 SUB SWAP1 REVERT JUMPDEST PUSH32 0xC0819C13BE868895EB93E40EACEB96DE976442FA1D404E5C55F14BB65A8C489A CALLER DUP4 PUSH1 0x40 MLOAD PUSH2 0x6B0 SWAP3 SWAP2 SWAP1 PUSH2 0x1290 JUMP JUMPDEST PUSH1 0x40 MLOAD DUP1 SWAP2 SUB SWAP1 LOG1 POP POP POP POP POP JUMPDEST POP POP JUMP JUMPDEST PUSH0 PUSH0 SWAP1 SLOAD SWAP1 PUSH2 0x100 EXP SWAP1 DIV PUSH20 0xFFFFFFFFFFFFFFFFFFFFFFFFFFFFFFFFFFFFFFFF AND PUSH20 0xFFFFFFFFFFFFFFFFFFFFFFFFFFFFFFFFFFFFFFFF AND CALLER PUSH20 0xFFFFFFFFFFFFFFFFFFFFFFFFFFFFFFFFFFFFFFFF AND EQ PUSH2 0x750 JUMPI PUSH1 0x40 MLOAD PUSH32 0x8C379A000000000000000000000000000000000000000000000000000000000 DUP2 MSTORE PUSH1 0x4 ADD PUSH2 0x747 SWAP1 PUSH2 0x1301 JUMP JUMPDEST PUSH1 0x40 MLOAD DUP1 SWAP2 SUB SWAP1 REVERT JUMPDEST PUSH1 0x3 PUSH0 DUP3 PUSH20 0xFFFFFFFFFFFFFFFFFFFFFFFFFFFFFFFFFFFFFFFF AND PUSH20 0xFFFFFFFFFFFFFFFFFFFFFFFFFFFFFFFFFFFFFFFF AND DUP2 MSTORE PUSH1 0x20 ADD SWAP1 DUP2 MSTORE PUSH1 0x20 ADD PUSH0 KECCAK256 PUSH0 SWAP1 SLOAD SWAP1 PUSH2 0x100 EXP SWAP1 DIV PUSH1 0xFF AND PUSH2 0x7D9 JUMPI PUSH1 0x40 MLOAD PUSH32 0x8C379A000000000000000000000000000000000000000000000000000000000 DUP2 MSTORE PUSH1 0x4 ADD PUSH2 0x7D0 SWAP1 PUSH2 0x1369 JUMP JUMPDEST PUSH1 0x40 MLOAD DUP1 SWAP2 SUB SWAP1 REVERT JUMPDEST PUSH0 PUSH1 0x3 PUSH0 DUP4 PUSH20 0xFFFFFFFFFFFFFFFFFFFFFFFFFFFFFFFFFFFFFFFF AND PUSH20 0xFFFFFFFFFFFFFFFFFFFFFFFFFFFFFFFFFFFFFFFF AND DUP2 MSTORE PUSH1 0x20 ADD SWAP1 DUP2 MSTORE PUSH1 0x20 ADD PUSH0 KECCAK256 PUSH0 PUSH2 0x100 EXP DUP2 SLOAD DUP2 PUSH1 0xFF MUL NOT AND SWAP1 DUP4 ISZERO ISZERO MUL OR SWAP1 SSTORE POP DUP1 PUSH20 0xFFFFFFFFFFFFFFFFFFFFFFFFFFFFFFFFFFFFFFFF AND PUSH32 0x27901402B7A88DCAD52B23014A18758B42E92A996EC9BC0651EE4B1367B8A4A8 TIMESTAMP PUSH1 0x40 MLOAD PUSH2 0x873 SWAP2 SWAP1 PUSH2 0xE7C JUMP JUMPDEST PUSH1 0x40 MLOAD DUP1 SWAP2 SUB SWAP1 LOG2 POP JUMP JUMPDEST PUSH1 0x1 PUSH1 0x20 MSTORE DUP1 PUSH0 MSTORE PUSH1 0x40 PUSH0 KECCAK256 PUSH0 SWAP2 POP SWAP1 POP SLOAD DUP2 JUMP JUMPDEST PUSH0 PUSH0 SWAP1 SLOAD SWAP1 PUSH2 0x100 EXP SWAP1 DIV PUSH20 0xFFFFFFFFFFFFFFFFFFFFFFFFFFFFFFFFFFFFFFFF AND PUSH20 0xFFFFFFFFFFFFFFFFFFFFFFFFFFFFFFFFFFFFFFFF AND CALLER PUSH20 0xFFFFFFFFFFFFFFFFFFFFFFFFFFFFFFFFFFFFFFFF AND EQ PUSH2 0x921 JUMPI PUSH1 0x40 MLOAD PUSH32 0x8C379A000000000000000000000000000000000000000000000000000000000 DUP2 MSTORE PUSH1 0x4 ADD PUSH2 0x918 SWAP1 PUSH2 0x1301 JUMP JUMPDEST PUSH1 0x40 MLOAD DUP1 SWAP2 SUB SWAP1 REVERT JUMPDEST PUSH1 0x3 PUSH0 DUP3 PUSH20 0xFFFFFFFFFFFFFFFFFFFFFFFFFFFFFFFFFFFFFFFF AND PUSH20 0xFFFFFFFFFFFFFFFFFFFFFFFFFFFFFFFFFFFFFFFF AND DUP2 MSTORE PUSH1 0x20 ADD SWAP1 DUP2 MSTORE PUSH1 0x20 ADD PUSH0 KECCAK256 PUSH0 SWAP1 SLOAD SWAP1 PUSH2 0x100 EXP SWAP1 DIV PUSH1 0xFF AND ISZERO PUSH2 0x9AB JUMPI PUSH1 0x40 MLOAD PUSH32 0x8C379A000000000000000000000000000000000000000000000000000000000 DUP2 MSTORE PUSH1 0x4 ADD PUSH2 0x9A2 SWAP1 PUSH2 0x13D1 JUMP JUMPDEST PUSH1 0x40 MLOAD DUP1 SWAP2 SUB SWAP1 REVERT JUMPDEST PUSH1 0x1 PUSH1 0x3 PUSH0 DUP4 PUSH20 0xFFFFFFFFFFFFFFFFFFFFFFFFFFFFFFFFFFFFFFFF AND PUSH20 0xFFFFFFFFFFFFFFFFFFFFFFFFFFFFFFFFFFFFFFFF AND DUP2 MSTORE PUSH1 0x20 ADD SWAP1 DUP2 MSTORE PUSH1 0x20 ADD PUSH0 KECCAK256 PUSH0 PUSH2 0x100 EXP DUP2 SLOAD DUP2 PUSH1 0xFF MUL NOT AND SWAP1 DUP4 ISZERO ISZERO MUL OR SWAP1 SSTORE POP DUP1 PUSH20 0xFFFFFFFFFFFFFFFFFFFFFFFFFFFFFFFFFFFFFFFF AND PUSH32 0x3C521A01E5B8CC0C480919EF2E8031DE8D54A2BB0371D2967BE98A07AEB81365 TIMESTAMP PUSH1 0x40 MLOAD PUSH2 0xA46 SWAP2 SWAP1 PUSH2 0xE7C JUMP JUMPDEST PUSH1 0x40 MLOAD DUP1 SWAP2 SUB SWAP1 LOG2 POP JUMP JUMPDEST PUSH0 PUSH0 SWAP1 SLOAD SWAP1 PUSH2 0x100 EXP SWAP1 DIV PUSH20 0xFFFFFFFFFFFFFFFFFFFFFFFFFFFFFFFFFFFFFFFF AND DUP2 JUMP JUMPDEST PUSH0 PUSH0 SWAP1 SLOAD SWAP1 PUSH2 0x100 EXP SWAP1 DIV PUSH20 0xFFFFFFFFFFFFFFFFFFFFFFFFFFFFFFFFFFFFFFFF AND PUSH20 0xFFFFFFFFFFFFFFFFFFFFFFFFFFFFFFFFFFFFFFFF AND CALLER PUSH20 0xFFFFFFFFFFFFFFFFFFFFFFFFFFFFFFFFFFFFFFFF AND EQ PUSH2 0xB03 JUMPI PUSH1 0x40 MLOAD PUSH32 0x8C379A000000000000000000000000000000000000000000000000000000000 DUP2 MSTORE PUSH1 0x4 ADD PUSH2 0xAFA SWAP1 PUSH2 0x1301 JUMP JUMPDEST PUSH1 0x40 MLOAD DUP1 SWAP2 SUB SWAP1 REVERT JUMPDEST DUP1 PUSH1 0x2 DUP2 SWAP1 SSTORE POP PUSH32 0x528D9479E9F9889A87A3C30C7F7BA537E5E59C4C85A37733B16E57C62DF61302 DUP2 TIMESTAMP PUSH1 0x40 MLOAD PUSH2 0xB3B SWAP3 SWAP2 SWAP1 PUSH2 0x13EF JUMP JUMPDEST PUSH1 0x40 MLOAD DUP1 SWAP2 SUB SWAP1 LOG1 POP JUMP JUMPDEST PUSH1 0x2 SLOAD DUP2 JUMP JUMPDEST PUSH1 0x3 PUSH1 0x20 MSTORE DUP1 PUSH0 MSTORE PUSH1 0x40 PUSH0 KECCAK256 PUSH0 SWAP2 POP SLOAD SWAP1 PUSH2 0x100 EXP SWAP1 DIV PUSH1 0xFF AND DUP2 JUMP JUMPDEST CALLVALUE PUSH1 0x1 PUSH0 CALLER PUSH20 0xFFFFFFFFFFFFFFFFFFFFFFFFFFFFFFFFFFFFFFFF AND PUSH20 0xFFFFFFFFFFFFFFFFFFFFFFFFFFFFFFFFFFFFFFFF AND DUP2 MSTORE PUSH1 0x20 ADD SWAP1 DUP2 MSTORE PUSH1 0x20 ADD PUSH0 KECCAK256 PUSH0 DUP3 DUP3 SLOAD PUSH2 0xBB5 SWAP2 SWAP1 PUSH2 0xE3A JUMP JUMPDEST SWAP3 POP POP DUP2 SWAP1 SSTORE POP CALLER PUSH20 0xFFFFFFFFFFFFFFFFFFFFFFFFFFFFFFFFFFFFFFFF AND PUSH32 0xE1FFFCC4923D04B559F4D29A8BFC6CDA04EB5B0D3C460751C2402C5C5CC9109C CALLVALUE PUSH1 0x40 MLOAD PUSH2 0xC02 SWAP2 SWAP1 PUSH2 0xE7C JUMP JUMPDEST PUSH1 0x40 MLOAD DUP1 SWAP2 SUB SWAP1 LOG2 JUMP JUMPDEST PUSH0 PUSH8 0xDE0B6B3A7640000 DUP3 PUSH2 0xC21 SWAP2 SWAP1 PUSH2 0x10AE JUMP JUMPDEST SWAP1 POP PUSH1 0x1 PUSH0 CALLER PUSH20 0xFFFFFFFFFFFFFFFFFFFFFFFFFFFFFFFFFFFFFFFF AND PUSH20 0xFFFFFFFFFFFFFFFFFFFFFFFFFFFFFFFFFFFFFFFF AND DUP2 MSTORE PUSH1 0x20 ADD SWAP1 DUP2 MSTORE PUSH1 0x20 ADD PUSH0 KECCAK256 SLOAD DUP2 GT ISZERO PUSH2 0xCA3 JUMPI PUSH1 0x40 MLOAD PUSH32 0x8C379A000000000000000000000000000000000000000000000000000000000 DUP2 MSTORE PUSH1 0x4 ADD PUSH2 0xC9A SWAP1 PUSH2 0x11C9 JUMP JUMPDEST PUSH1 0x40 MLOAD DUP1 SWAP2 SUB SWAP1 REVERT JUMPDEST PUSH8 0xDE0B6B3A7640000 DUP3 PUSH2 0xCB7 SWAP2 SWAP1 PUSH2 0x10AE JUMP JUMPDEST PUSH1 0x1 PUSH0 CALLER PUSH20 0xFFFFFFFFFFFFFFFFFFFFFFFFFFFFFFFFFFFFFFFF AND PUSH20 0xFFFFFFFFFFFFFFFFFFFFFFFFFFFFFFFFFFFFFFFF AND DUP2 MSTORE PUSH1 0x20 ADD SWAP1 DUP2 MSTORE PUSH1 0x20 ADD PUSH0 KECCAK256 PUSH0 DUP3 DUP3 SLOAD PUSH2 0xD02 SWAP2 SWAP1 PUSH2 0x114C JUMP JUMPDEST SWAP3 POP POP DUP2 SWAP1 SSTORE POP PUSH0 CALLER PUSH20 0xFFFFFFFFFFFFFFFFFFFFFFFFFFFFFFFFFFFFFFFF AND DUP3 PUSH1 0x40 MLOAD PUSH2 0xD2E SWAP1 PUSH2 0x1214 JUMP JUMPDEST PUSH0 PUSH1 0x40 MLOAD DUP1 DUP4 SUB DUP2 DUP6 DUP8 GAS CALL SWAP3 POP POP POP RETURNDATASIZE DUP1 PUSH0 DUP2 EQ PUSH2 0xD68 JUMPI PUSH1 0x40 MLOAD SWAP2 POP PUSH1 0x1F NOT PUSH1 0x3F RETURNDATASIZE ADD AND DUP3 ADD PUSH1 0x40 MSTORE RETURNDATASIZE DUP3 MSTORE RETURNDATASIZE PUSH0 PUSH1 0x20 DUP5 ADD RETURNDATACOPY PUSH2 0xD6D JUMP JUMPDEST PUSH1 0x60 SWAP2 POP JUMPDEST POP POP SWAP1 POP DUP1 PUSH2 0xDB1 JUMPI PUSH1 0x40 MLOAD PUSH32 0x8C379A000000000000000000000000000000000000000000000000000000000 DUP2 MSTORE PUSH1 0x4 ADD PUSH2 0xDA8 SWAP1 PUSH2 0x1460 JUMP JUMPDEST PUSH1 0x40 MLOAD DUP1 SWAP2 SUB SWAP1 REVERT JUMPDEST CALLER PUSH20 0xFFFFFFFFFFFFFFFFFFFFFFFFFFFFFFFFFFFFFFFF AND PUSH32 0x884EDAD9CE6FA2440D8A54CC123490EB96D2768479D49FF9C7366125A9424364 DUP4 PUSH1 0x40 MLOAD PUSH2 0xDF7 SWAP2 SWAP1 PUSH2 0xE7C JUMP JUMPDEST PUSH1 0x40 MLOAD DUP1 SWAP2 SUB SWAP1 LOG2 POP POP POP JUMP JUMPDEST PUSH0 DUP2 SWAP1 POP SWAP2 SWAP1 POP JUMP JUMPDEST PUSH32 0x4E487B7100000000000000000000000000000000000000000000000000000000 PUSH0 MSTORE PUSH1 0x11 PUSH1 0x4 MSTORE PUSH1 0x24 PUSH0 REVERT JUMPDEST PUSH0 PUSH2 0xE44 DUP3 PUSH2 0xE04 JUMP JUMPDEST SWAP2 POP PUSH2 0xE4F DUP4 PUSH2 0xE04 JUMP JUMPDEST SWAP3 POP DUP3 DUP3 ADD SWAP1 POP DUP1 DUP3 GT ISZERO PUSH2 0xE67 JUMPI PUSH2 0xE66 PUSH2 0xE0D JUMP JUMPDEST JUMPDEST SWAP3 SWAP2 POP POP JUMP JUMPDEST PUSH2 0xE76 DUP2 PUSH2 0xE04 JUMP JUMPDEST DUP3 MSTORE POP POP JUMP JUMPDEST PUSH0 PUSH1 0x20 DUP3 ADD SWAP1 POP PUSH2 0xE8F PUSH0 DUP4 ADD DUP5 PUSH2 0xE6D JUMP JUMPDEST SWAP3 SWAP2 POP POP JUMP JUMPDEST PUSH0 PUSH0 REVERT JUMPDEST PUSH2 0xEA2 DUP2 PUSH2 0xE04 JUMP JUMPDEST DUP2 EQ PUSH2 0xEAC JUMPI PUSH0 PUSH0 REVERT JUMPDEST POP JUMP JUMPDEST PUSH0 DUP2 CALLDATALOAD SWAP1 POP PUSH2 0xEBD DUP2 PUSH2 0xE99 JUMP JUMPDEST SWAP3 SWAP2 POP POP JUMP JUMPDEST PUSH0 PUSH1 0x20 DUP3 DUP5 SUB SLT ISZERO PUSH2 0xED8 JUMPI PUSH2 0xED7 PUSH2 0xE95 JUMP JUMPDEST JUMPDEST PUSH0 PUSH2 0xEE5 DUP5 DUP3 DUP6 ADD PUSH2 0xEAF JUMP JUMPDEST SWAP2 POP POP SWAP3 SWAP2 POP POP JUMP JUMPDEST PUSH0 DUP2 ISZERO ISZERO SWAP1 POP SWAP2 SWAP1 POP JUMP JUMPDEST PUSH2 0xF02 DUP2 PUSH2 0xEEE JUMP JUMPDEST DUP2 EQ PUSH2 0xF0C JUMPI PUSH0 PUSH0 REVERT JUMPDEST POP JUMP JUMPDEST PUSH0 DUP2 CALLDATALOAD SWAP1 POP PUSH2 0xF1D DUP2 PUSH2 0xEF9 JUMP JUMPDEST SWAP3 SWAP2 POP POP JUMP JUMPDEST PUSH0 PUSH0 PUSH1 0x40 DUP4 DUP6 SUB SLT ISZERO PUSH2 0xF39 JUMPI PUSH2 0xF38 PUSH2 0xE95 JUMP JUMPDEST JUMPDEST PUSH0 PUSH2 0xF46 DUP6 DUP3 DUP7 ADD PUSH2 0xEAF JUMP JUMPDEST SWAP3 POP POP PUSH1 0x20 PUSH2 0xF57 DUP6 DUP3 DUP7 ADD PUSH2 0xF0F JUMP JUMPDEST SWAP2 POP POP SWAP3 POP SWAP3 SWAP1 POP JUMP JUMPDEST PUSH0 PUSH20 0xFFFFFFFFFFFFFFFFFFFFFFFFFFFFFFFFFFFFFFFF DUP3 AND SWAP1 POP SWAP2 SWAP1 POP JUMP JUMPDEST PUSH0 PUSH2 0xF8A DUP3 PUSH2 0xF61 JUMP JUMPDEST SWAP1 POP SWAP2 SWAP1 POP JUMP JUMPDEST PUSH2 0xF9A DUP2 PUSH2 0xF80 JUMP JUMPDEST DUP2 EQ PUSH2 0xFA4 JUMPI PUSH0 PUSH0 REVERT JUMPDEST POP JUMP JUMPDEST PUSH0 DUP2 CALLDATALOAD SWAP1 POP PUSH2 0xFB5 DUP2 PUSH2 0xF91 JUMP JUMPDEST SWAP3 SWAP2 POP POP JUMP JUMPDEST PUSH0 PUSH1 0x20 DUP3 DUP5 SUB SLT ISZERO PUSH2 0xFD0 JUMPI PUSH2 0xFCF PUSH2 0xE95 JUMP JUMPDEST JUMPDEST PUSH0 PUSH2 0xFDD DUP5 DUP3 DUP6 ADD PUSH2 0xFA7 JUMP JUMPDEST SWAP2 POP POP SWAP3 SWAP2 POP POP JUMP JUMPDEST PUSH2 0xFEF DUP2 PUSH2 0xF80 JUMP JUMPDEST DUP3 MSTORE POP POP JUMP JUMPDEST PUSH0 PUSH1 0x20 DUP3 ADD SWAP1 POP PUSH2 0x1008 PUSH0 DUP4 ADD DUP5 PUSH2 0xFE6 JUMP JUMPDEST SWAP3 SWAP2 POP POP JUMP JUMPDEST PUSH2 0x1017 DUP2 PUSH2 0xEEE JUMP JUMPDEST DUP3 MSTORE POP POP JUMP JUMPDEST PUSH0 PUSH1 0x20 DUP3 ADD SWAP1 POP PUSH2 0x1030 PUSH0 DUP4 ADD DUP5 PUSH2 0x100E JUMP JUMPDEST SWAP3 SWAP2 POP POP JUMP JUMPDEST PUSH0 DUP3 DUP3 MSTORE PUSH1 0x20 DUP3 ADD SWAP1 POP SWAP3 SWAP2 POP POP JUMP JUMPDEST PUSH32 0x5265656E7472616E637900000000000000000000000000000000000000000000 PUSH0 DUP3 ADD MSTORE POP JUMP JUMPDEST PUSH0 PUSH2 0x107A PUSH1 0xA DUP4 PUSH2 0x1036 JUMP JUMPDEST SWAP2 POP PUSH2 0x1085 DUP3 PUSH2 0x1046 JUMP JUMPDEST PUSH1 0x20 DUP3 ADD SWAP1 POP SWAP2 SWAP1 POP JUMP JUMPDEST PUSH0 PUSH1 0x20 DUP3 ADD SWAP1 POP DUP2 DUP2 SUB PUSH0 DUP4 ADD MSTORE PUSH2 0x10A7 DUP2 PUSH2 0x106E JUMP JUMPDEST SWAP1 POP SWAP2 SWAP1 POP JUMP JUMPDEST PUSH0 PUSH2 0x10B8 DUP3 PUSH2 0xE04 JUMP JUMPDEST SWAP2 POP PUSH2 0x10C3 DUP4 PUSH2 0xE04 JUMP JUMPDEST SWAP3 POP DUP3 DUP3 MUL PUSH2 0x10D1 DUP2 PUSH2 0xE04 JUMP JUMPDEST SWAP2 POP DUP3 DUP3 DIV DUP5 EQ DUP4 ISZERO OR PUSH2 0x10E8 JUMPI PUSH2 0x10E7 PUSH2 0xE0D JUMP JUMPDEST JUMPDEST POP SWAP3 SWAP2 POP POP JUMP JUMPDEST PUSH32 0x4E487B7100000000000000000000000000000000000000000000000000000000 PUSH0 MSTORE PUSH1 0x12 PUSH1 0x4 MSTORE PUSH1 0x24 PUSH0 REVERT JUMPDEST PUSH0 PUSH2 0x1126 DUP3 PUSH2 0xE04 JUMP JUMPDEST SWAP2 POP PUSH2 0x1131 DUP4 PUSH2 0xE04 JUMP JUMPDEST SWAP3 POP DUP3 PUSH2 0x1141 JUMPI PUSH2 0x1140 PUSH2 0x10EF JUMP JUMPDEST JUMPDEST DUP3 DUP3 DIV SWAP1 POP SWAP3 SWAP2 POP POP JUMP JUMPDEST PUSH0 PUSH2 0x1156 DUP3 PUSH2 0xE04 JUMP JUMPDEST SWAP2 POP PUSH2 0x1161 DUP4 PUSH2 0xE04 JUMP JUMPDEST SWAP3 POP DUP3 DUP3 SUB SWAP1 POP DUP2 DUP2 GT ISZERO PUSH2 0x1179 JUMPI PUSH2 0x1178 PUSH2 0xE0D JUMP JUMPDEST JUMPDEST SWAP3 SWAP2 POP POP JUMP JUMPDEST PUSH32 0x496E73756666696369656E742066756E64730000000000000000000000000000 PUSH0 DUP3 ADD MSTORE POP JUMP JUMPDEST PUSH0 PUSH2 0x11B3 PUSH1 0x12 DUP4 PUSH2 0x1036 JUMP JUMPDEST SWAP2 POP PUSH2 0x11BE DUP3 PUSH2 0x117F JUMP JUMPDEST PUSH1 0x20 DUP3 ADD SWAP1 POP SWAP2 SWAP1 POP JUMP JUMPDEST PUSH0 PUSH1 0x20 DUP3 ADD SWAP1 POP DUP2 DUP2 SUB PUSH0 DUP4 ADD MSTORE PUSH2 0x11E0 DUP2 PUSH2 0x11A7 JUMP JUMPDEST SWAP1 POP SWAP2 SWAP1 POP JUMP JUMPDEST PUSH0 DUP2 SWAP1 POP SWAP3 SWAP2 POP POP JUMP JUMPDEST POP JUMP JUMPDEST PUSH0 PUSH2 0x11FF PUSH0 DUP4 PUSH2 0x11E7 JUMP JUMPDEST SWAP2 POP PUSH2 0x120A DUP3 PUSH2 0x11F1 JUMP JUMPDEST PUSH0 DUP3 ADD SWAP1 POP SWAP2 SWAP1 POP JUMP JUMPDEST PUSH0 PUSH2 0x121E DUP3 PUSH2 0x11F4 JUMP JUMPDEST SWAP2 POP DUP2 SWAP1 POP SWAP2 SWAP1 POP JUMP JUMPDEST PUSH32 0x46656573205769746864726177616C206661696C656400000000000000000000 PUSH0 DUP3 ADD MSTORE POP JUMP JUMPDEST PUSH0 PUSH2 0x125C PUSH1 0x16 DUP4 PUSH2 0x1036 JUMP JUMPDEST SWAP2 POP PUSH2 0x1267 DUP3 PUSH2 0x1228 JUMP JUMPDEST PUSH1 0x20 DUP3 ADD SWAP1 POP SWAP2 SWAP1 POP JUMP JUMPDEST PUSH0 PUSH1 0x20 DUP3 ADD SWAP1 POP DUP2 DUP2 SUB PUSH0 DUP4 ADD MSTORE PUSH2 0x1289 DUP2 PUSH2 0x1250 JUMP JUMPDEST SWAP1 POP SWAP2 SWAP1 POP JUMP JUMPDEST PUSH0 PUSH1 0x40 DUP3 ADD SWAP1 POP PUSH2 0x12A3 PUSH0 DUP4 ADD DUP6 PUSH2 0xFE6 JUMP JUMPDEST PUSH2 0x12B0 PUSH1 0x20 DUP4 ADD DUP5 PUSH2 0xE6D JUMP JUMPDEST SWAP4 SWAP3 POP POP POP JUMP JUMPDEST PUSH32 0x4E6F74204F776E65720000000000000000000000000000000000000000000000 PUSH0 DUP3 ADD MSTORE POP JUMP JUMPDEST PUSH0 PUSH2 0x12EB PUSH1 0x9 DUP4 PUSH2 0x1036 JUMP JUMPDEST SWAP2 POP PUSH2 0x12F6 DUP3 PUSH2 0x12B7 JUMP JUMPDEST PUSH1 0x20 DUP3 ADD SWAP1 POP SWAP2 SWAP1 POP JUMP JUMPDEST PUSH0 PUSH1 0x20 DUP3 ADD SWAP1 POP DUP2 DUP2 SUB PUSH0 DUP4 ADD MSTORE PUSH2 0x1318 DUP2 PUSH2 0x12DF JUMP JUMPDEST SWAP1 POP SWAP2 SWAP1 POP JUMP JUMPDEST PUSH32 0x4E6F742061207072656D69756D20757365720000000000000000000000000000 PUSH0 DUP3 ADD MSTORE POP JUMP JUMPDEST PUSH0 PUSH2 0x1353 PUSH1 0x12 DUP4 PUSH2 0x1036 JUMP JUMPDEST SWAP2 POP PUSH2 0x135E DUP3 PUSH2 0x131F JUMP JUMPDEST PUSH1 0x20 DUP3 ADD SWAP1 POP SWAP2 SWAP1 POP JUMP JUMPDEST PUSH0 PUSH1 0x20 DUP3 ADD SWAP1 POP DUP2 DUP2 SUB PUSH0 DUP4 ADD MSTORE PUSH2 0x1380 DUP2 PUSH2 0x1347 JUMP JUMPDEST SWAP1 POP SWAP2 SWAP1 POP JUMP JUMPDEST PUSH32 0x416C72656164792061207072656D69756D207573657200000000000000000000 PUSH0 DUP3 ADD MSTORE POP JUMP JUMPDEST PUSH0 PUSH2 0x13BB PUSH1 0x16 DUP4 PUSH2 0x1036 JUMP JUMPDEST SWAP2 POP PUSH2 0x13C6 DUP3 PUSH2 0x1387 JUMP JUMPDEST PUSH1 0x20 DUP3 ADD SWAP1 POP SWAP2 SWAP1 POP JUMP JUMPDEST PUSH0 PUSH1 0x20 DUP3 ADD SWAP1 POP DUP2 DUP2 SUB PUSH0 DUP4 ADD MSTORE PUSH2 0x13E8 DUP2 PUSH2 0x13AF JUMP JUMPDEST SWAP1 POP SWAP2 SWAP1 POP JUMP JUMPDEST PUSH0 PUSH1 0x40 DUP3 ADD SWAP1 POP PUSH2 0x1402 PUSH0 DUP4 ADD DUP6 PUSH2 0xE6D JUMP JUMPDEST PUSH2 0x140F PUSH1 0x20 DUP4 ADD DUP5 PUSH2 0xE6D JUMP JUMPDEST SWAP4 SWAP3 POP POP POP JUMP JUMPDEST PUSH32 0x5769746864726177616C206661696C6564000000000000000000000000000000 PUSH0 DUP3 ADD MSTORE POP JUMP JUMPDEST PUSH0 PUSH2 0x144A PUSH1 0x11 DUP4 PUSH2 0x1036 JUMP JUMPDEST SWAP2 POP PUSH2 0x1455 DUP3 PUSH2 0x1416 JUMP JUMPDEST PUSH1 0x20 DUP3 ADD SWAP1 POP SWAP2 SWAP1 POP JUMP JUMPDEST PUSH0 PUSH1 0x20 DUP3 ADD SWAP1 POP DUP2 DUP2 SUB PUSH0 DUP4 ADD MSTORE PUSH2 0x1477 DUP2 PUSH2 0x143E JUMP JUMPDEST SWAP1 POP SWAP2 SWAP1 POP JUMP INVALID LOG2 PUSH5 0x6970667358 0x22 SLT KECCAK256 GASLIMIT SGT DUP8 CREATE LOG1 0x29 0x28 SWAP11 0xD7 0xC7 0x25 0xA7 0xAE PUSH10 0x71754E4F0572B7F23323 0xBA SWAPN 0x77 STOP 0x21 0xC1 0xB8 0xB5 PUSH5 0x736F6C6343 STOP ADDMOD 0x1E STOP CALLER "
				},
				"gasEstimates": {
					"creation": {
						"codeDepositCost": "1060000",
						"executionCost": "47468",
						"totalCost": "1107468"
					},
					"external": {
						"": "infinite",
						"addPremiumUser(address)": "30874",
						"balanceOf(address)": "2869",
						"deposit()": "infinite",
						"feePercentage()": "2469",
						"owner()": "2507",
						"premiumUser(address)": "2899",
						"removePremiumUser(address)": "30826",
						"updateFee(uint256)": "infinite",
						"withdraw(uint256)": "infinite",
						"withdraw(uint256,bool)": "infinite"
					}
				},
				"methodIdentifiers": {
					"addPremiumUser(address)": "772f8316",
					"balanceOf(address)": "70a08231",
					"deposit()": "d0e30db0",
					"feePercentage()": "a001ecdd",
					"owner()": "8da5cb5b",
					"premiumUser(address)": "aeffed29",
					"removePremiumUser(address)": "6deb88fc",
					"updateFee(uint256)": "9012c4a8",
					"withdraw(uint256)": "2e1a7d4d",
					"withdraw(uint256,bool)": "38d07436"
				}
			},
			"storageLayout": {
				"storage": [
					{
						"astId": 3,
						"contract": "contracts/PHASE INHERITANCE/Multi-Role Bank System.sol:PremiumBank",
						"label": "owner",
						"offset": 0,
						"slot": "0",
						"type": "t_address"
					},
					{
						"astId": 5,
						"contract": "contracts/PHASE INHERITANCE/Multi-Role Bank System.sol:PremiumBank",
						"label": "locked",
						"offset": 20,
						"slot": "0",
						"type": "t_bool"
					},
					{
						"astId": 9,
						"contract": "contracts/PHASE INHERITANCE/Multi-Role Bank System.sol:PremiumBank",
						"label": "balanceOf",
						"offset": 0,
						"slot": "1",
						"type": "t_mapping(t_address,t_uint256)"
					},
					{
						"astId": 211,
						"contract": "contracts/PHASE INHERITANCE/Multi-Role Bank System.sol:PremiumBank",
						"label": "feePercentage",
						"offset": 0,
						"slot": "2",
						"type": "t_uint256"
					},
					{
						"astId": 330,
						"contract": "contracts/PHASE INHERITANCE/Multi-Role Bank System.sol:PremiumBank",
						"label": "premiumUser",
						"offset": 0,
						"slot": "3",
						"type": "t_mapping(t_address,t_bool)"
					}
				],
				"types": {
					"t_address": {
						"encoding": "inplace",
						"label": "address",
						"numberOfBytes": "20"
					},
					"t_bool": {
						"encoding": "inplace",
						"label": "bool",
						"numberOfBytes": "1"
					},
					"t_mapping(t_address,t_bool)": {
						"encoding": "mapping",
						"key": "t_address",
						"label": "mapping(address => bool)",
						"numberOfBytes": "32",
						"value": "t_bool"
					},
					"t_mapping(t_address,t_uint256)": {
						"encoding": "mapping",
						"key": "t_address",
						"label": "mapping(address => uint256)",
						"numberOfBytes": "32",
						"value": "t_uint256"
					},
					"t_uint256": {
						"encoding": "inplace",
						"label": "uint256",
						"numberOfBytes": "32"
					}
				}
			},
			"userdoc": {
				"kind": "user",
				"methods": {},
				"version": 1
			}
		}
	}
}