{
	"contracts/PHASE INHERITANCE/Multi-Role Bank System.sol": {
		"FeeBank": {
			"abi": [
				{
					"anonymous": false,
					"inputs": [
						{
							"indexed": true,
							"internalType": "address",
							"name": "sender",
							"type": "address"
						},
						{
							"indexed": false,
							"internalType": "uint256",
							"name": "value",
							"type": "uint256"
						}
					],
					"name": "Deposit",
					"type": "event"
				},
				{
					"anonymous": false,
					"inputs": [
						{
							"indexed": true,
							"internalType": "address",
							"name": "sender",
							"type": "address"
						},
						{
							"indexed": false,
							"internalType": "uint256",
							"name": "value",
							"type": "uint256"
						}
					],
					"name": "Fallback",
					"type": "event"
				},
				{
					"anonymous": false,
					"inputs": [
						{
							"indexed": false,
							"internalType": "uint256",
							"name": "newFee",
							"type": "uint256"
						},
						{
							"indexed": false,
							"internalType": "uint256",
							"name": "timestamp",
							"type": "uint256"
						}
					],
					"name": "FeeUpdated",
					"type": "event"
				},
				{
					"anonymous": false,
					"inputs": [
						{
							"indexed": false,
							"internalType": "address",
							"name": "recipient",
							"type": "address"
						},
						{
							"indexed": false,
							"internalType": "uint256",
							"name": "value",
							"type": "uint256"
						}
					],
					"name": "FeesWithdrawn",
					"type": "event"
				},
				{
					"anonymous": false,
					"inputs": [
						{
							"indexed": true,
							"internalType": "address",
							"name": "user",
							"type": "address"
						},
						{
							"indexed": false,
							"internalType": "uint256",
							"name": "timestamp",
							"type": "uint256"
						}
					],
					"name": "PremiumUserAdded",
					"type": "event"
				},
				{
					"anonymous": false,
					"inputs": [
						{
							"indexed": true,
							"internalType": "address",
							"name": "user",
							"type": "address"
						},
						{
							"indexed": false,
							"internalType": "uint256",
							"name": "timestamp",
							"type": "uint256"
						}
					],
					"name": "PremiumUserRemoved",
					"type": "event"
				},
				{
					"anonymous": false,
					"inputs": [
						{
							"indexed": true,
							"internalType": "address",
							"name": "sender",
							"type": "address"
						},
						{
							"indexed": false,
							"internalType": "uint256",
							"name": "value",
							"type": "uint256"
						}
					],
					"name": "Receive",
					"type": "event"
				},
				{
					"anonymous": false,
					"inputs": [
						{
							"indexed": true,
							"internalType": "address",
							"name": "recipient",
							"type": "address"
						},
						{
							"indexed": false,
							"internalType": "uint256",
							"name": "value",
							"type": "uint256"
						}
					],
					"name": "Withdraw",
					"type": "event"
				},
				{
					"stateMutability": "payable",
					"type": "fallback"
				},
				{
					"inputs": [
						{
							"internalType": "address",
							"name": "",
							"type": "address"
						}
					],
					"name": "balanceOf",
					"outputs": [
						{
							"internalType": "uint256",
							"name": "",
							"type": "uint256"
						}
					],
					"stateMutability": "view",
					"type": "function"
				},
				{
					"inputs": [],
					"name": "deposit",
					"outputs": [],
					"stateMutability": "payable",
					"type": "function"
				},
				{
					"inputs": [],
					"name": "feePercentage",
					"outputs": [
						{
							"internalType": "uint256",
							"name": "",
							"type": "uint256"
						}
					],
					"stateMutability": "view",
					"type": "function"
				},
				{
					"inputs": [],
					"name": "owner",
					"outputs": [
						{
							"internalType": "address",
							"name": "",
							"type": "address"
						}
					],
					"stateMutability": "view",
					"type": "function"
				},
				{
					"inputs": [
						{
							"internalType": "uint256",
							"name": "_newFeePerc",
							"type": "uint256"
						}
					],
					"name": "updateFee",
					"outputs": [],
					"stateMutability": "nonpayable",
					"type": "function"
				},
				{
					"inputs": [
						{
							"internalType": "uint256",
							"name": "_amount",
							"type": "uint256"
						}
					],
					"name": "withdraw",
					"outputs": [],
					"stateMutability": "nonpayable",
					"type": "function"
				},
				{
					"inputs": [
						{
							"internalType": "uint256",
							"name": "_amount",
							"type": "uint256"
						},
						{
							"internalType": "bool",
							"name": "chargeFee",
							"type": "bool"
						}
					],
					"name": "withdraw",
					"outputs": [],
					"stateMutability": "nonpayable",
					"type": "function"
				},
				{
					"stateMutability": "payable",
					"type": "receive"
				}
			],
			"devdoc": {
				"kind": "dev",
				"methods": {},
				"version": 1
			},
			"evm": {
				"assembly": "    /* \"contracts/PHASE INHERITANCE/Multi-Role Bank System.sol\":1725:2620  contract FeeBank is BasicBank{... */\n  mstore(0x40, 0x80)\n    /* \"contracts/PHASE INHERITANCE/Multi-Role Bank System.sol\":1788:1790  10 */\n  0x0a\n    /* \"contracts/PHASE INHERITANCE/Multi-Role Bank System.sol\":1760:1790  uint public feePercentage = 10 */\n  0x02\n  sstore\n    /* \"contracts/PHASE INHERITANCE/Multi-Role Bank System.sol\":1725:2620  contract FeeBank is BasicBank{... */\n  callvalue\n  dup1\n  iszero\n  tag_1\n  jumpi\n  revert(0x00, 0x00)\ntag_1:\n  pop\n    /* \"contracts/PHASE INHERITANCE/Multi-Role Bank System.sol\":935:945  msg.sender */\n  caller\n    /* \"contracts/PHASE INHERITANCE/Multi-Role Bank System.sol\":927:932  owner */\n  0x00\n  0x00\n    /* \"contracts/PHASE INHERITANCE/Multi-Role Bank System.sol\":927:945  owner = msg.sender */\n  0x0100\n  exp\n  dup2\n  sload\n  dup2\n  0xffffffffffffffffffffffffffffffffffffffff\n  mul\n  not\n  and\n  swap1\n  dup4\n  0xffffffffffffffffffffffffffffffffffffffff\n  and\n  mul\n  or\n  swap1\n  sstore\n  pop\n    /* \"contracts/PHASE INHERITANCE/Multi-Role Bank System.sol\":1725:2620  contract FeeBank is BasicBank{... */\n  dataSize(sub_0)\n  dup1\n  dataOffset(sub_0)\n  0x00\n  codecopy\n  0x00\n  return\nstop\n\nsub_0: assembly {\n        /* \"contracts/PHASE INHERITANCE/Multi-Role Bank System.sol\":1725:2620  contract FeeBank is BasicBank{... */\n      mstore(0x40, 0x80)\n      jumpi(tag_1, lt(calldatasize, 0x04))\n      shr(0xe0, calldataload(0x00))\n      dup1\n      0x8da5cb5b\n      gt\n      tag_10\n      jumpi\n      dup1\n      0x8da5cb5b\n      eq\n      tag_6\n      jumpi\n      dup1\n      0x9012c4a8\n      eq\n      tag_7\n      jumpi\n      dup1\n      0xa001ecdd\n      eq\n      tag_8\n      jumpi\n      dup1\n      0xd0e30db0\n      eq\n      tag_9\n      jumpi\n      jump(tag_2)\n    tag_10:\n      dup1\n      0x2e1a7d4d\n      eq\n      tag_3\n      jumpi\n      dup1\n      0x38d07436\n      eq\n      tag_4\n      jumpi\n      dup1\n      0x70a08231\n      eq\n      tag_5\n      jumpi\n      jump(tag_2)\n    tag_1:\n      jumpi(tag_2, calldatasize)\n        /* \"contracts/PHASE INHERITANCE/Multi-Role Bank System.sol\":1154:1163  msg.value */\n      callvalue\n        /* \"contracts/PHASE INHERITANCE/Multi-Role Bank System.sol\":1129:1138  balanceOf */\n      0x01\n        /* \"contracts/PHASE INHERITANCE/Multi-Role Bank System.sol\":1129:1150  balanceOf[msg.sender] */\n      0x00\n        /* \"contracts/PHASE INHERITANCE/Multi-Role Bank System.sol\":1139:1149  msg.sender */\n      caller\n        /* \"contracts/PHASE INHERITANCE/Multi-Role Bank System.sol\":1129:1150  balanceOf[msg.sender] */\n      0xffffffffffffffffffffffffffffffffffffffff\n      and\n      0xffffffffffffffffffffffffffffffffffffffff\n      and\n      dup2\n      mstore\n      0x20\n      add\n      swap1\n      dup2\n      mstore\n      0x20\n      add\n      0x00\n      keccak256\n      0x00\n        /* \"contracts/PHASE INHERITANCE/Multi-Role Bank System.sol\":1129:1163  balanceOf[msg.sender] += msg.value */\n      dup3\n      dup3\n      sload\n      tag_13\n      swap2\n      swap1\n      tag_14\n      jump\t// in\n    tag_13:\n      swap3\n      pop\n      pop\n      dup2\n      swap1\n      sstore\n      pop\n        /* \"contracts/PHASE INHERITANCE/Multi-Role Bank System.sol\":1186:1196  msg.sender */\n      caller\n        /* \"contracts/PHASE INHERITANCE/Multi-Role Bank System.sol\":1178:1208  Receive(msg.sender, msg.value) */\n      0xffffffffffffffffffffffffffffffffffffffff\n      and\n      0xd6717f327e0cb88b4a97a7f67a453e9258252c34937ccbdd86de7cb840e7def3\n        /* \"contracts/PHASE INHERITANCE/Multi-Role Bank System.sol\":1198:1207  msg.value */\n      callvalue\n        /* \"contracts/PHASE INHERITANCE/Multi-Role Bank System.sol\":1178:1208  Receive(msg.sender, msg.value) */\n      mload(0x40)\n      tag_15\n      swap2\n      swap1\n      tag_16\n      jump\t// in\n    tag_15:\n      mload(0x40)\n      dup1\n      swap2\n      sub\n      swap1\n      log2\n        /* \"contracts/PHASE INHERITANCE/Multi-Role Bank System.sol\":1725:2620  contract FeeBank is BasicBank{... */\n      stop\n    tag_2:\n        /* \"contracts/PHASE INHERITANCE/Multi-Role Bank System.sol\":1283:1292  msg.value */\n      callvalue\n        /* \"contracts/PHASE INHERITANCE/Multi-Role Bank System.sol\":1258:1267  balanceOf */\n      0x01\n        /* \"contracts/PHASE INHERITANCE/Multi-Role Bank System.sol\":1258:1279  balanceOf[msg.sender] */\n      0x00\n        /* \"contracts/PHASE INHERITANCE/Multi-Role Bank System.sol\":1268:1278  msg.sender */\n      caller\n        /* \"contracts/PHASE INHERITANCE/Multi-Role Bank System.sol\":1258:1279  balanceOf[msg.sender] */\n      0xffffffffffffffffffffffffffffffffffffffff\n      and\n      0xffffffffffffffffffffffffffffffffffffffff\n      and\n      dup2\n      mstore\n      0x20\n      add\n      swap1\n      dup2\n      mstore\n      0x20\n      add\n      0x00\n      keccak256\n      0x00\n        /* \"contracts/PHASE INHERITANCE/Multi-Role Bank System.sol\":1258:1292  balanceOf[msg.sender] += msg.value */\n      dup3\n      dup3\n      sload\n      tag_19\n      swap2\n      swap1\n      tag_14\n      jump\t// in\n    tag_19:\n      swap3\n      pop\n      pop\n      dup2\n      swap1\n      sstore\n      pop\n        /* \"contracts/PHASE INHERITANCE/Multi-Role Bank System.sol\":1316:1326  msg.sender */\n      caller\n        /* \"contracts/PHASE INHERITANCE/Multi-Role Bank System.sol\":1307:1338  Fallback(msg.sender, msg.value) */\n      0xffffffffffffffffffffffffffffffffffffffff\n      and\n      0xfbf15a1bae5e021d024841007b692b167afd2a281a4ff0b44f47387eb388205c\n        /* \"contracts/PHASE INHERITANCE/Multi-Role Bank System.sol\":1328:1337  msg.value */\n      callvalue\n        /* \"contracts/PHASE INHERITANCE/Multi-Role Bank System.sol\":1307:1338  Fallback(msg.sender, msg.value) */\n      mload(0x40)\n      tag_20\n      swap2\n      swap1\n      tag_16\n      jump\t// in\n    tag_20:\n      mload(0x40)\n      dup1\n      swap2\n      sub\n      swap1\n      log2\n        /* \"contracts/PHASE INHERITANCE/Multi-Role Bank System.sol\":1725:2620  contract FeeBank is BasicBank{... */\n      stop\n        /* \"contracts/PHASE INHERITANCE/Multi-Role Bank System.sol\":1350:1721  function withdraw(uint _amount) public virtual {... */\n    tag_3:\n      callvalue\n      dup1\n      iszero\n      tag_21\n      jumpi\n      revert(0x00, 0x00)\n    tag_21:\n      pop\n      tag_22\n      0x04\n      dup1\n      calldatasize\n      sub\n      dup2\n      add\n      swap1\n      tag_23\n      swap2\n      swap1\n      tag_24\n      jump\t// in\n    tag_23:\n      tag_25\n      jump\t// in\n    tag_22:\n      stop\n        /* \"contracts/PHASE INHERITANCE/Multi-Role Bank System.sol\":1796:2460  function withdraw(uint _amount, bool chargeFee) public virtual{... */\n    tag_4:\n      callvalue\n      dup1\n      iszero\n      tag_26\n      jumpi\n      revert(0x00, 0x00)\n    tag_26:\n      pop\n      tag_27\n      0x04\n      dup1\n      calldatasize\n      sub\n      dup2\n      add\n      swap1\n      tag_28\n      swap2\n      swap1\n      tag_29\n      jump\t// in\n    tag_28:\n      tag_30\n      jump\t// in\n    tag_27:\n      stop\n        /* \"contracts/PHASE INHERITANCE/Multi-Role Bank System.sol\":132:173  mapping(address => uint) public balanceOf */\n    tag_5:\n      callvalue\n      dup1\n      iszero\n      tag_31\n      jumpi\n      revert(0x00, 0x00)\n    tag_31:\n      pop\n      tag_32\n      0x04\n      dup1\n      calldatasize\n      sub\n      dup2\n      add\n      swap1\n      tag_33\n      swap2\n      swap1\n      tag_34\n      jump\t// in\n    tag_33:\n      tag_35\n      jump\t// in\n    tag_32:\n      mload(0x40)\n      tag_36\n      swap2\n      swap1\n      tag_16\n      jump\t// in\n    tag_36:\n      mload(0x40)\n      dup1\n      swap2\n      sub\n      swap1\n      return\n        /* \"contracts/PHASE INHERITANCE/Multi-Role Bank System.sol\":81:101  address public owner */\n    tag_6:\n      callvalue\n      dup1\n      iszero\n      tag_37\n      jumpi\n      revert(0x00, 0x00)\n    tag_37:\n      pop\n      tag_38\n      tag_39\n      jump\t// in\n    tag_38:\n      mload(0x40)\n      tag_40\n      swap2\n      swap1\n      tag_41\n      jump\t// in\n    tag_40:\n      mload(0x40)\n      dup1\n      swap2\n      sub\n      swap1\n      return\n        /* \"contracts/PHASE INHERITANCE/Multi-Role Bank System.sol\":2465:2618  function updateFee(uint _newFeePerc) public onlyOwner {... */\n    tag_7:\n      callvalue\n      dup1\n      iszero\n      tag_42\n      jumpi\n      revert(0x00, 0x00)\n    tag_42:\n      pop\n      tag_43\n      0x04\n      dup1\n      calldatasize\n      sub\n      dup2\n      add\n      swap1\n      tag_44\n      swap2\n      swap1\n      tag_24\n      jump\t// in\n    tag_44:\n      tag_45\n      jump\t// in\n    tag_43:\n      stop\n        /* \"contracts/PHASE INHERITANCE/Multi-Role Bank System.sol\":1760:1790  uint public feePercentage = 10 */\n    tag_8:\n      callvalue\n      dup1\n      iszero\n      tag_46\n      jumpi\n      revert(0x00, 0x00)\n    tag_46:\n      pop\n      tag_47\n      tag_48\n      jump\t// in\n    tag_47:\n      mload(0x40)\n      tag_49\n      swap2\n      swap1\n      tag_16\n      jump\t// in\n    tag_49:\n      mload(0x40)\n      dup1\n      swap2\n      sub\n      swap1\n      return\n        /* \"contracts/PHASE INHERITANCE/Multi-Role Bank System.sol\":957:1087  function deposit() public payable {... */\n    tag_9:\n      tag_50\n      tag_51\n      jump\t// in\n    tag_50:\n      stop\n        /* \"contracts/PHASE INHERITANCE/Multi-Role Bank System.sol\":1350:1721  function withdraw(uint _amount) public virtual {... */\n    tag_25:\n        /* \"contracts/PHASE INHERITANCE/Multi-Role Bank System.sol\":1407:1418  uint amount */\n      0x00\n        /* \"contracts/PHASE INHERITANCE/Multi-Role Bank System.sol\":1431:1438  1 ether */\n      0x0de0b6b3a7640000\n        /* \"contracts/PHASE INHERITANCE/Multi-Role Bank System.sol\":1421:1428  _amount */\n      dup3\n        /* \"contracts/PHASE INHERITANCE/Multi-Role Bank System.sol\":1421:1438  _amount * 1 ether */\n      tag_53\n      swap2\n      swap1\n      tag_54\n      jump\t// in\n    tag_53:\n        /* \"contracts/PHASE INHERITANCE/Multi-Role Bank System.sol\":1407:1438  uint amount = _amount * 1 ether */\n      swap1\n      pop\n        /* \"contracts/PHASE INHERITANCE/Multi-Role Bank System.sol\":1466:1475  balanceOf */\n      0x01\n        /* \"contracts/PHASE INHERITANCE/Multi-Role Bank System.sol\":1466:1487  balanceOf[msg.sender] */\n      0x00\n        /* \"contracts/PHASE INHERITANCE/Multi-Role Bank System.sol\":1476:1486  msg.sender */\n      caller\n        /* \"contracts/PHASE INHERITANCE/Multi-Role Bank System.sol\":1466:1487  balanceOf[msg.sender] */\n      0xffffffffffffffffffffffffffffffffffffffff\n      and\n      0xffffffffffffffffffffffffffffffffffffffff\n      and\n      dup2\n      mstore\n      0x20\n      add\n      swap1\n      dup2\n      mstore\n      0x20\n      add\n      0x00\n      keccak256\n      sload\n        /* \"contracts/PHASE INHERITANCE/Multi-Role Bank System.sol\":1456:1462  amount */\n      dup2\n        /* \"contracts/PHASE INHERITANCE/Multi-Role Bank System.sol\":1456:1487  amount <= balanceOf[msg.sender] */\n      gt\n      iszero\n        /* \"contracts/PHASE INHERITANCE/Multi-Role Bank System.sol\":1448:1510  require(amount <= balanceOf[msg.sender], \"Insufficient funds\") */\n      tag_55\n      jumpi\n      mload(0x40)\n      0x08c379a000000000000000000000000000000000000000000000000000000000\n      dup2\n      mstore\n      0x04\n      add\n      tag_56\n      swap1\n      tag_57\n      jump\t// in\n    tag_56:\n      mload(0x40)\n      dup1\n      swap2\n      sub\n      swap1\n      revert\n    tag_55:\n        /* \"contracts/PHASE INHERITANCE/Multi-Role Bank System.sol\":1554:1561  1 ether */\n      0x0de0b6b3a7640000\n        /* \"contracts/PHASE INHERITANCE/Multi-Role Bank System.sol\":1544:1551  _amount */\n      dup3\n        /* \"contracts/PHASE INHERITANCE/Multi-Role Bank System.sol\":1544:1561  _amount * 1 ether */\n      tag_58\n      swap2\n      swap1\n      tag_54\n      jump\t// in\n    tag_58:\n        /* \"contracts/PHASE INHERITANCE/Multi-Role Bank System.sol\":1520:1529  balanceOf */\n      0x01\n        /* \"contracts/PHASE INHERITANCE/Multi-Role Bank System.sol\":1520:1541  balanceOf[msg.sender] */\n      0x00\n        /* \"contracts/PHASE INHERITANCE/Multi-Role Bank System.sol\":1530:1540  msg.sender */\n      caller\n        /* \"contracts/PHASE INHERITANCE/Multi-Role Bank System.sol\":1520:1541  balanceOf[msg.sender] */\n      0xffffffffffffffffffffffffffffffffffffffff\n      and\n      0xffffffffffffffffffffffffffffffffffffffff\n      and\n      dup2\n      mstore\n      0x20\n      add\n      swap1\n      dup2\n      mstore\n      0x20\n      add\n      0x00\n      keccak256\n      0x00\n        /* \"contracts/PHASE INHERITANCE/Multi-Role Bank System.sol\":1520:1561  balanceOf[msg.sender]-= _amount * 1 ether */\n      dup3\n      dup3\n      sload\n      tag_59\n      swap2\n      swap1\n      tag_60\n      jump\t// in\n    tag_59:\n      swap3\n      pop\n      pop\n      dup2\n      swap1\n      sstore\n      pop\n        /* \"contracts/PHASE INHERITANCE/Multi-Role Bank System.sol\":1572:1584  bool success */\n      0x00\n        /* \"contracts/PHASE INHERITANCE/Multi-Role Bank System.sol\":1590:1600  msg.sender */\n      caller\n        /* \"contracts/PHASE INHERITANCE/Multi-Role Bank System.sol\":1590:1605  msg.sender.call */\n      0xffffffffffffffffffffffffffffffffffffffff\n      and\n        /* \"contracts/PHASE INHERITANCE/Multi-Role Bank System.sol\":1613:1619  amount */\n      dup3\n        /* \"contracts/PHASE INHERITANCE/Multi-Role Bank System.sol\":1590:1624  msg.sender.call{value: amount}(\"\") */\n      mload(0x40)\n      tag_61\n      swap1\n      tag_62\n      jump\t// in\n    tag_61:\n      0x00\n      mload(0x40)\n      dup1\n      dup4\n      sub\n      dup2\n      dup6\n      dup8\n      gas\n      call\n      swap3\n      pop\n      pop\n      pop\n      returndatasize\n      dup1\n      0x00\n      dup2\n      eq\n      tag_65\n      jumpi\n      mload(0x40)\n      swap2\n      pop\n      and(add(returndatasize, 0x3f), not(0x1f))\n      dup3\n      add\n      0x40\n      mstore\n      returndatasize\n      dup3\n      mstore\n      returndatasize\n      0x00\n      0x20\n      dup5\n      add\n      returndatacopy\n      jump(tag_64)\n    tag_65:\n      0x60\n      swap2\n      pop\n    tag_64:\n      pop\n        /* \"contracts/PHASE INHERITANCE/Multi-Role Bank System.sol\":1571:1624  (bool success, ) = msg.sender.call{value: amount}(\"\") */\n      pop\n      swap1\n      pop\n        /* \"contracts/PHASE INHERITANCE/Multi-Role Bank System.sol\":1642:1649  success */\n      dup1\n        /* \"contracts/PHASE INHERITANCE/Multi-Role Bank System.sol\":1634:1671  require(success, \"Withdrawal failed\") */\n      tag_66\n      jumpi\n      mload(0x40)\n      0x08c379a000000000000000000000000000000000000000000000000000000000\n      dup2\n      mstore\n      0x04\n      add\n      tag_67\n      swap1\n      tag_68\n      jump\t// in\n    tag_67:\n      mload(0x40)\n      dup1\n      swap2\n      sub\n      swap1\n      revert\n    tag_66:\n        /* \"contracts/PHASE INHERITANCE/Multi-Role Bank System.sol\":1695:1705  msg.sender */\n      caller\n        /* \"contracts/PHASE INHERITANCE/Multi-Role Bank System.sol\":1686:1714  Withdraw(msg.sender, amount) */\n      0xffffffffffffffffffffffffffffffffffffffff\n      and\n      0x884edad9ce6fa2440d8a54cc123490eb96d2768479d49ff9c7366125a9424364\n        /* \"contracts/PHASE INHERITANCE/Multi-Role Bank System.sol\":1707:1713  amount */\n      dup4\n        /* \"contracts/PHASE INHERITANCE/Multi-Role Bank System.sol\":1686:1714  Withdraw(msg.sender, amount) */\n      mload(0x40)\n      tag_69\n      swap2\n      swap1\n      tag_16\n      jump\t// in\n    tag_69:\n      mload(0x40)\n      dup1\n      swap2\n      sub\n      swap1\n      log2\n        /* \"contracts/PHASE INHERITANCE/Multi-Role Bank System.sol\":1397:1721  {... */\n      pop\n      pop\n        /* \"contracts/PHASE INHERITANCE/Multi-Role Bank System.sol\":1350:1721  function withdraw(uint _amount) public virtual {... */\n      pop\n      jump\t// out\n        /* \"contracts/PHASE INHERITANCE/Multi-Role Bank System.sol\":1796:2460  function withdraw(uint _amount, bool chargeFee) public virtual{... */\n    tag_30:\n        /* \"contracts/PHASE INHERITANCE/Multi-Role Bank System.sol\":1872:1881  chargeFee */\n      dup1\n        /* \"contracts/PHASE INHERITANCE/Multi-Role Bank System.sol\":1868:1951  if(!chargeFee) {... */\n      tag_71\n      jumpi\n        /* \"contracts/PHASE INHERITANCE/Multi-Role Bank System.sol\":1897:1920  super.withdraw(_amount) */\n      tag_72\n        /* \"contracts/PHASE INHERITANCE/Multi-Role Bank System.sol\":1912:1919  _amount */\n      dup3\n        /* \"contracts/PHASE INHERITANCE/Multi-Role Bank System.sol\":1897:1911  super.withdraw */\n      tag_25\n        /* \"contracts/PHASE INHERITANCE/Multi-Role Bank System.sol\":1897:1920  super.withdraw(_amount) */\n      jump\t// in\n    tag_72:\n        /* \"contracts/PHASE INHERITANCE/Multi-Role Bank System.sol\":1934:1941  return; */\n      jump(tag_70)\n        /* \"contracts/PHASE INHERITANCE/Multi-Role Bank System.sol\":1868:1951  if(!chargeFee) {... */\n    tag_71:\n        /* \"contracts/PHASE INHERITANCE/Multi-Role Bank System.sol\":1960:1976  uint amountInWei */\n      0x00\n        /* \"contracts/PHASE INHERITANCE/Multi-Role Bank System.sol\":1989:1996  1 ether */\n      0x0de0b6b3a7640000\n        /* \"contracts/PHASE INHERITANCE/Multi-Role Bank System.sol\":1979:1986  _amount */\n      dup4\n        /* \"contracts/PHASE INHERITANCE/Multi-Role Bank System.sol\":1979:1996  _amount * 1 ether */\n      tag_73\n      swap2\n      swap1\n      tag_54\n      jump\t// in\n    tag_73:\n        /* \"contracts/PHASE INHERITANCE/Multi-Role Bank System.sol\":1960:1996  uint amountInWei = _amount * 1 ether */\n      swap1\n      pop\n        /* \"contracts/PHASE INHERITANCE/Multi-Role Bank System.sol\":2006:2014  uint fee */\n      0x00\n        /* \"contracts/PHASE INHERITANCE/Multi-Role Bank System.sol\":2045:2048  100 */\n      0x64\n        /* \"contracts/PHASE INHERITANCE/Multi-Role Bank System.sol\":2028:2041  feePercentage */\n      sload(0x02)\n        /* \"contracts/PHASE INHERITANCE/Multi-Role Bank System.sol\":2018:2025  _amount */\n      dup6\n        /* \"contracts/PHASE INHERITANCE/Multi-Role Bank System.sol\":2018:2041  _amount * feePercentage */\n      tag_74\n      swap2\n      swap1\n      tag_54\n      jump\t// in\n    tag_74:\n        /* \"contracts/PHASE INHERITANCE/Multi-Role Bank System.sol\":2017:2048  (_amount * feePercentage) / 100 */\n      tag_75\n      swap2\n      swap1\n      tag_76\n      jump\t// in\n    tag_75:\n        /* \"contracts/PHASE INHERITANCE/Multi-Role Bank System.sol\":2006:2048  uint fee = (_amount * feePercentage) / 100 */\n      swap1\n      pop\n        /* \"contracts/PHASE INHERITANCE/Multi-Role Bank System.sol\":2058:2069  uint payout */\n      0x00\n        /* \"contracts/PHASE INHERITANCE/Multi-Role Bank System.sol\":2082:2085  fee */\n      dup2\n        /* \"contracts/PHASE INHERITANCE/Multi-Role Bank System.sol\":2072:2079  _amount */\n      dup6\n        /* \"contracts/PHASE INHERITANCE/Multi-Role Bank System.sol\":2072:2085  _amount - fee */\n      tag_77\n      swap2\n      swap1\n      tag_60\n      jump\t// in\n    tag_77:\n        /* \"contracts/PHASE INHERITANCE/Multi-Role Bank System.sol\":2058:2085  uint payout = _amount - fee */\n      swap1\n      pop\n        /* \"contracts/PHASE INHERITANCE/Multi-Role Bank System.sol\":2128:2139  amountInWei */\n      dup3\n        /* \"contracts/PHASE INHERITANCE/Multi-Role Bank System.sol\":2103:2112  balanceOf */\n      0x01\n        /* \"contracts/PHASE INHERITANCE/Multi-Role Bank System.sol\":2103:2124  balanceOf[msg.sender] */\n      0x00\n        /* \"contracts/PHASE INHERITANCE/Multi-Role Bank System.sol\":2113:2123  msg.sender */\n      caller\n        /* \"contracts/PHASE INHERITANCE/Multi-Role Bank System.sol\":2103:2124  balanceOf[msg.sender] */\n      0xffffffffffffffffffffffffffffffffffffffff\n      and\n      0xffffffffffffffffffffffffffffffffffffffff\n      and\n      dup2\n      mstore\n      0x20\n      add\n      swap1\n      dup2\n      mstore\n      0x20\n      add\n      0x00\n      keccak256\n      sload\n        /* \"contracts/PHASE INHERITANCE/Multi-Role Bank System.sol\":2103:2139  balanceOf[msg.sender] >= amountInWei */\n      lt\n      iszero\n        /* \"contracts/PHASE INHERITANCE/Multi-Role Bank System.sol\":2095:2162  require(balanceOf[msg.sender] >= amountInWei, \"Insufficient funds\") */\n      tag_78\n      jumpi\n      mload(0x40)\n      0x08c379a000000000000000000000000000000000000000000000000000000000\n      dup2\n      mstore\n      0x04\n      add\n      tag_79\n      swap1\n      tag_57\n      jump\t// in\n    tag_79:\n      mload(0x40)\n      dup1\n      swap2\n      sub\n      swap1\n      revert\n    tag_78:\n        /* \"contracts/PHASE INHERITANCE/Multi-Role Bank System.sol\":2203:2210  1 ether */\n      0x0de0b6b3a7640000\n        /* \"contracts/PHASE INHERITANCE/Multi-Role Bank System.sol\":2197:2200  fee */\n      dup3\n        /* \"contracts/PHASE INHERITANCE/Multi-Role Bank System.sol\":2197:2210  fee * 1 ether */\n      tag_80\n      swap2\n      swap1\n      tag_54\n      jump\t// in\n    tag_80:\n        /* \"contracts/PHASE INHERITANCE/Multi-Role Bank System.sol\":2172:2181  balanceOf */\n      0x01\n        /* \"contracts/PHASE INHERITANCE/Multi-Role Bank System.sol\":2172:2193  balanceOf[msg.sender] */\n      0x00\n        /* \"contracts/PHASE INHERITANCE/Multi-Role Bank System.sol\":2182:2192  msg.sender */\n      caller\n        /* \"contracts/PHASE INHERITANCE/Multi-Role Bank System.sol\":2172:2193  balanceOf[msg.sender] */\n      0xffffffffffffffffffffffffffffffffffffffff\n      and\n      0xffffffffffffffffffffffffffffffffffffffff\n      and\n      dup2\n      mstore\n      0x20\n      add\n      swap1\n      dup2\n      mstore\n      0x20\n      add\n      0x00\n      keccak256\n      0x00\n        /* \"contracts/PHASE INHERITANCE/Multi-Role Bank System.sol\":2172:2210  balanceOf[msg.sender] -= fee * 1 ether */\n      dup3\n      dup3\n      sload\n      tag_81\n      swap2\n      swap1\n      tag_60\n      jump\t// in\n    tag_81:\n      swap3\n      pop\n      pop\n      dup2\n      swap1\n      sstore\n      pop\n        /* \"contracts/PHASE INHERITANCE/Multi-Role Bank System.sol\":2220:2242  super.withdraw(payout) */\n      tag_82\n        /* \"contracts/PHASE INHERITANCE/Multi-Role Bank System.sol\":2235:2241  payout */\n      dup2\n        /* \"contracts/PHASE INHERITANCE/Multi-Role Bank System.sol\":2220:2234  super.withdraw */\n      tag_25\n        /* \"contracts/PHASE INHERITANCE/Multi-Role Bank System.sol\":2220:2242  super.withdraw(payout) */\n      jump\t// in\n    tag_82:\n        /* \"contracts/PHASE INHERITANCE/Multi-Role Bank System.sol\":2253:2266  uint feeInWei */\n      0x00\n        /* \"contracts/PHASE INHERITANCE/Multi-Role Bank System.sol\":2275:2282  1 ether */\n      0x0de0b6b3a7640000\n        /* \"contracts/PHASE INHERITANCE/Multi-Role Bank System.sol\":2269:2272  fee */\n      dup4\n        /* \"contracts/PHASE INHERITANCE/Multi-Role Bank System.sol\":2269:2282  fee * 1 ether */\n      tag_83\n      swap2\n      swap1\n      tag_54\n      jump\t// in\n    tag_83:\n        /* \"contracts/PHASE INHERITANCE/Multi-Role Bank System.sol\":2253:2282  uint feeInWei = fee * 1 ether */\n      swap1\n      pop\n        /* \"contracts/PHASE INHERITANCE/Multi-Role Bank System.sol\":2293:2305  bool success */\n      0x00\n        /* \"contracts/PHASE INHERITANCE/Multi-Role Bank System.sol\":2319:2324  owner */\n      0x00\n      0x00\n      swap1\n      sload\n      swap1\n      0x0100\n      exp\n      swap1\n      div\n      0xffffffffffffffffffffffffffffffffffffffff\n      and\n        /* \"contracts/PHASE INHERITANCE/Multi-Role Bank System.sol\":2311:2330  payable(owner).call */\n      0xffffffffffffffffffffffffffffffffffffffff\n      and\n        /* \"contracts/PHASE INHERITANCE/Multi-Role Bank System.sol\":2337:2345  feeInWei */\n      dup3\n        /* \"contracts/PHASE INHERITANCE/Multi-Role Bank System.sol\":2311:2350  payable(owner).call{value:feeInWei}(\"\") */\n      mload(0x40)\n      tag_84\n      swap1\n      tag_62\n      jump\t// in\n    tag_84:\n      0x00\n      mload(0x40)\n      dup1\n      dup4\n      sub\n      dup2\n      dup6\n      dup8\n      gas\n      call\n      swap3\n      pop\n      pop\n      pop\n      returndatasize\n      dup1\n      0x00\n      dup2\n      eq\n      tag_87\n      jumpi\n      mload(0x40)\n      swap2\n      pop\n      and(add(returndatasize, 0x3f), not(0x1f))\n      dup3\n      add\n      0x40\n      mstore\n      returndatasize\n      dup3\n      mstore\n      returndatasize\n      0x00\n      0x20\n      dup5\n      add\n      returndatacopy\n      jump(tag_86)\n    tag_87:\n      0x60\n      swap2\n      pop\n    tag_86:\n      pop\n        /* \"contracts/PHASE INHERITANCE/Multi-Role Bank System.sol\":2292:2350  (bool success, ) = payable(owner).call{value:feeInWei}(\"\") */\n      pop\n      swap1\n      pop\n        /* \"contracts/PHASE INHERITANCE/Multi-Role Bank System.sol\":2368:2375  success */\n      dup1\n        /* \"contracts/PHASE INHERITANCE/Multi-Role Bank System.sol\":2360:2402  require(success, \"Fees Withdrawal failed\") */\n      tag_88\n      jumpi\n      mload(0x40)\n      0x08c379a000000000000000000000000000000000000000000000000000000000\n      dup2\n      mstore\n      0x04\n      add\n      tag_89\n      swap1\n      tag_90\n      jump\t// in\n    tag_89:\n      mload(0x40)\n      dup1\n      swap2\n      sub\n      swap1\n      revert\n    tag_88:\n        /* \"contracts/PHASE INHERITANCE/Multi-Role Bank System.sol\":2417:2452  FeesWithdrawn(msg.sender, feeInWei) */\n      0xc0819c13be868895eb93e40eaceb96de976442fa1d404e5c55f14bb65a8c489a\n        /* \"contracts/PHASE INHERITANCE/Multi-Role Bank System.sol\":2431:2441  msg.sender */\n      caller\n        /* \"contracts/PHASE INHERITANCE/Multi-Role Bank System.sol\":2443:2451  feeInWei */\n      dup4\n        /* \"contracts/PHASE INHERITANCE/Multi-Role Bank System.sol\":2417:2452  FeesWithdrawn(msg.sender, feeInWei) */\n      mload(0x40)\n      tag_91\n      swap3\n      swap2\n      swap1\n      tag_92\n      jump\t// in\n    tag_91:\n      mload(0x40)\n      dup1\n      swap2\n      sub\n      swap1\n      log1\n        /* \"contracts/PHASE INHERITANCE/Multi-Role Bank System.sol\":1858:2460  {... */\n      pop\n      pop\n      pop\n      pop\n      pop\n        /* \"contracts/PHASE INHERITANCE/Multi-Role Bank System.sol\":1796:2460  function withdraw(uint _amount, bool chargeFee) public virtual{... */\n    tag_70:\n      pop\n      pop\n      jump\t// out\n        /* \"contracts/PHASE INHERITANCE/Multi-Role Bank System.sol\":132:173  mapping(address => uint) public balanceOf */\n    tag_35:\n      mstore(0x20, 0x01)\n      dup1\n      0x00\n      mstore\n      keccak256(0x00, 0x40)\n      0x00\n      swap2\n      pop\n      swap1\n      pop\n      sload\n      dup2\n      jump\t// out\n        /* \"contracts/PHASE INHERITANCE/Multi-Role Bank System.sol\":81:101  address public owner */\n    tag_39:\n      0x00\n      0x00\n      swap1\n      sload\n      swap1\n      0x0100\n      exp\n      swap1\n      div\n      0xffffffffffffffffffffffffffffffffffffffff\n      and\n      dup2\n      jump\t// out\n        /* \"contracts/PHASE INHERITANCE/Multi-Role Bank System.sol\":2465:2618  function updateFee(uint _newFeePerc) public onlyOwner {... */\n    tag_45:\n        /* \"contracts/PHASE INHERITANCE/Multi-Role Bank System.sol\":727:732  owner */\n      0x00\n      0x00\n      swap1\n      sload\n      swap1\n      0x0100\n      exp\n      swap1\n      div\n      0xffffffffffffffffffffffffffffffffffffffff\n      and\n        /* \"contracts/PHASE INHERITANCE/Multi-Role Bank System.sol\":713:732  msg.sender == owner */\n      0xffffffffffffffffffffffffffffffffffffffff\n      and\n        /* \"contracts/PHASE INHERITANCE/Multi-Role Bank System.sol\":713:723  msg.sender */\n      caller\n        /* \"contracts/PHASE INHERITANCE/Multi-Role Bank System.sol\":713:732  msg.sender == owner */\n      0xffffffffffffffffffffffffffffffffffffffff\n      and\n      eq\n        /* \"contracts/PHASE INHERITANCE/Multi-Role Bank System.sol\":705:746  require(msg.sender == owner, \"Not Owner\") */\n      tag_94\n      jumpi\n      mload(0x40)\n      0x08c379a000000000000000000000000000000000000000000000000000000000\n      dup2\n      mstore\n      0x04\n      add\n      tag_95\n      swap1\n      tag_96\n      jump\t// in\n    tag_95:\n      mload(0x40)\n      dup1\n      swap2\n      sub\n      swap1\n      revert\n    tag_94:\n        /* \"contracts/PHASE INHERITANCE/Multi-Role Bank System.sol\":2545:2556  _newFeePerc */\n      dup1\n        /* \"contracts/PHASE INHERITANCE/Multi-Role Bank System.sol\":2529:2542  feePercentage */\n      0x02\n        /* \"contracts/PHASE INHERITANCE/Multi-Role Bank System.sol\":2529:2556  feePercentage = _newFeePerc */\n      dup2\n      swap1\n      sstore\n      pop\n        /* \"contracts/PHASE INHERITANCE/Multi-Role Bank System.sol\":2571:2611  FeeUpdated(_newFeePerc, block.timestamp) */\n      0x528d9479e9f9889a87a3c30c7f7ba537e5e59c4c85a37733b16e57c62df61302\n        /* \"contracts/PHASE INHERITANCE/Multi-Role Bank System.sol\":2582:2593  _newFeePerc */\n      dup2\n        /* \"contracts/PHASE INHERITANCE/Multi-Role Bank System.sol\":2595:2610  block.timestamp */\n      timestamp\n        /* \"contracts/PHASE INHERITANCE/Multi-Role Bank System.sol\":2571:2611  FeeUpdated(_newFeePerc, block.timestamp) */\n      mload(0x40)\n      tag_98\n      swap3\n      swap2\n      swap1\n      tag_99\n      jump\t// in\n    tag_98:\n      mload(0x40)\n      dup1\n      swap2\n      sub\n      swap1\n      log1\n        /* \"contracts/PHASE INHERITANCE/Multi-Role Bank System.sol\":2465:2618  function updateFee(uint _newFeePerc) public onlyOwner {... */\n      pop\n      jump\t// out\n        /* \"contracts/PHASE INHERITANCE/Multi-Role Bank System.sol\":1760:1790  uint public feePercentage = 10 */\n    tag_48:\n      sload(0x02)\n      dup2\n      jump\t// out\n        /* \"contracts/PHASE INHERITANCE/Multi-Role Bank System.sol\":957:1087  function deposit() public payable {... */\n    tag_51:\n        /* \"contracts/PHASE INHERITANCE/Multi-Role Bank System.sol\":1026:1035  msg.value */\n      callvalue\n        /* \"contracts/PHASE INHERITANCE/Multi-Role Bank System.sol\":1001:1010  balanceOf */\n      0x01\n        /* \"contracts/PHASE INHERITANCE/Multi-Role Bank System.sol\":1001:1022  balanceOf[msg.sender] */\n      0x00\n        /* \"contracts/PHASE INHERITANCE/Multi-Role Bank System.sol\":1011:1021  msg.sender */\n      caller\n        /* \"contracts/PHASE INHERITANCE/Multi-Role Bank System.sol\":1001:1022  balanceOf[msg.sender] */\n      0xffffffffffffffffffffffffffffffffffffffff\n      and\n      0xffffffffffffffffffffffffffffffffffffffff\n      and\n      dup2\n      mstore\n      0x20\n      add\n      swap1\n      dup2\n      mstore\n      0x20\n      add\n      0x00\n      keccak256\n      0x00\n        /* \"contracts/PHASE INHERITANCE/Multi-Role Bank System.sol\":1001:1035  balanceOf[msg.sender] += msg.value */\n      dup3\n      dup3\n      sload\n      tag_101\n      swap2\n      swap1\n      tag_14\n      jump\t// in\n    tag_101:\n      swap3\n      pop\n      pop\n      dup2\n      swap1\n      sstore\n      pop\n        /* \"contracts/PHASE INHERITANCE/Multi-Role Bank System.sol\":1058:1068  msg.sender */\n      caller\n        /* \"contracts/PHASE INHERITANCE/Multi-Role Bank System.sol\":1050:1080  Deposit(msg.sender, msg.value) */\n      0xffffffffffffffffffffffffffffffffffffffff\n      and\n      0xe1fffcc4923d04b559f4d29a8bfc6cda04eb5b0d3c460751c2402c5c5cc9109c\n        /* \"contracts/PHASE INHERITANCE/Multi-Role Bank System.sol\":1070:1079  msg.value */\n      callvalue\n        /* \"contracts/PHASE INHERITANCE/Multi-Role Bank System.sol\":1050:1080  Deposit(msg.sender, msg.value) */\n      mload(0x40)\n      tag_102\n      swap2\n      swap1\n      tag_16\n      jump\t// in\n    tag_102:\n      mload(0x40)\n      dup1\n      swap2\n      sub\n      swap1\n      log2\n        /* \"contracts/PHASE INHERITANCE/Multi-Role Bank System.sol\":957:1087  function deposit() public payable {... */\n      jump\t// out\n        /* \"#utility.yul\":7:84   */\n    tag_103:\n        /* \"#utility.yul\":44:51   */\n      0x00\n        /* \"#utility.yul\":73:78   */\n      dup2\n        /* \"#utility.yul\":62:78   */\n      swap1\n      pop\n        /* \"#utility.yul\":7:84   */\n      swap2\n      swap1\n      pop\n      jump\t// out\n        /* \"#utility.yul\":90:270   */\n    tag_104:\n        /* \"#utility.yul\":138:215   */\n      0x4e487b7100000000000000000000000000000000000000000000000000000000\n        /* \"#utility.yul\":135:136   */\n      0x00\n        /* \"#utility.yul\":128:216   */\n      mstore\n        /* \"#utility.yul\":235:239   */\n      0x11\n        /* \"#utility.yul\":232:233   */\n      0x04\n        /* \"#utility.yul\":225:240   */\n      mstore\n        /* \"#utility.yul\":259:263   */\n      0x24\n        /* \"#utility.yul\":256:257   */\n      0x00\n        /* \"#utility.yul\":249:264   */\n      revert\n        /* \"#utility.yul\":276:467   */\n    tag_14:\n        /* \"#utility.yul\":316:319   */\n      0x00\n        /* \"#utility.yul\":335:355   */\n      tag_136\n        /* \"#utility.yul\":353:354   */\n      dup3\n        /* \"#utility.yul\":335:355   */\n      tag_103\n      jump\t// in\n    tag_136:\n        /* \"#utility.yul\":330:355   */\n      swap2\n      pop\n        /* \"#utility.yul\":369:389   */\n      tag_137\n        /* \"#utility.yul\":387:388   */\n      dup4\n        /* \"#utility.yul\":369:389   */\n      tag_103\n      jump\t// in\n    tag_137:\n        /* \"#utility.yul\":364:389   */\n      swap3\n      pop\n        /* \"#utility.yul\":412:413   */\n      dup3\n        /* \"#utility.yul\":409:410   */\n      dup3\n        /* \"#utility.yul\":405:414   */\n      add\n        /* \"#utility.yul\":398:414   */\n      swap1\n      pop\n        /* \"#utility.yul\":433:436   */\n      dup1\n        /* \"#utility.yul\":430:431   */\n      dup3\n        /* \"#utility.yul\":427:437   */\n      gt\n        /* \"#utility.yul\":424:460   */\n      iszero\n      tag_138\n      jumpi\n        /* \"#utility.yul\":440:458   */\n      tag_139\n      tag_104\n      jump\t// in\n    tag_139:\n        /* \"#utility.yul\":424:460   */\n    tag_138:\n        /* \"#utility.yul\":276:467   */\n      swap3\n      swap2\n      pop\n      pop\n      jump\t// out\n        /* \"#utility.yul\":473:591   */\n    tag_105:\n        /* \"#utility.yul\":560:584   */\n      tag_141\n        /* \"#utility.yul\":578:583   */\n      dup2\n        /* \"#utility.yul\":560:584   */\n      tag_103\n      jump\t// in\n    tag_141:\n        /* \"#utility.yul\":555:558   */\n      dup3\n        /* \"#utility.yul\":548:585   */\n      mstore\n        /* \"#utility.yul\":473:591   */\n      pop\n      pop\n      jump\t// out\n        /* \"#utility.yul\":597:819   */\n    tag_16:\n        /* \"#utility.yul\":690:694   */\n      0x00\n        /* \"#utility.yul\":728:730   */\n      0x20\n        /* \"#utility.yul\":717:726   */\n      dup3\n        /* \"#utility.yul\":713:731   */\n      add\n        /* \"#utility.yul\":705:731   */\n      swap1\n      pop\n        /* \"#utility.yul\":741:812   */\n      tag_143\n        /* \"#utility.yul\":809:810   */\n      0x00\n        /* \"#utility.yul\":798:807   */\n      dup4\n        /* \"#utility.yul\":794:811   */\n      add\n        /* \"#utility.yul\":785:791   */\n      dup5\n        /* \"#utility.yul\":741:812   */\n      tag_105\n      jump\t// in\n    tag_143:\n        /* \"#utility.yul\":597:819   */\n      swap3\n      swap2\n      pop\n      pop\n      jump\t// out\n        /* \"#utility.yul\":906:1023   */\n    tag_107:\n        /* \"#utility.yul\":1015:1016   */\n      0x00\n        /* \"#utility.yul\":1012:1013   */\n      0x00\n        /* \"#utility.yul\":1005:1017   */\n      revert\n        /* \"#utility.yul\":1152:1274   */\n    tag_109:\n        /* \"#utility.yul\":1225:1249   */\n      tag_148\n        /* \"#utility.yul\":1243:1248   */\n      dup2\n        /* \"#utility.yul\":1225:1249   */\n      tag_103\n      jump\t// in\n    tag_148:\n        /* \"#utility.yul\":1218:1223   */\n      dup2\n        /* \"#utility.yul\":1215:1250   */\n      eq\n        /* \"#utility.yul\":1205:1268   */\n      tag_149\n      jumpi\n        /* \"#utility.yul\":1264:1265   */\n      0x00\n        /* \"#utility.yul\":1261:1262   */\n      0x00\n        /* \"#utility.yul\":1254:1266   */\n      revert\n        /* \"#utility.yul\":1205:1268   */\n    tag_149:\n        /* \"#utility.yul\":1152:1274   */\n      pop\n      jump\t// out\n        /* \"#utility.yul\":1280:1419   */\n    tag_110:\n        /* \"#utility.yul\":1326:1331   */\n      0x00\n        /* \"#utility.yul\":1364:1370   */\n      dup2\n        /* \"#utility.yul\":1351:1371   */\n      calldataload\n        /* \"#utility.yul\":1342:1371   */\n      swap1\n      pop\n        /* \"#utility.yul\":1380:1413   */\n      tag_151\n        /* \"#utility.yul\":1407:1412   */\n      dup2\n        /* \"#utility.yul\":1380:1413   */\n      tag_109\n      jump\t// in\n    tag_151:\n        /* \"#utility.yul\":1280:1419   */\n      swap3\n      swap2\n      pop\n      pop\n      jump\t// out\n        /* \"#utility.yul\":1425:1754   */\n    tag_24:\n        /* \"#utility.yul\":1484:1490   */\n      0x00\n        /* \"#utility.yul\":1533:1535   */\n      0x20\n        /* \"#utility.yul\":1521:1530   */\n      dup3\n        /* \"#utility.yul\":1512:1519   */\n      dup5\n        /* \"#utility.yul\":1508:1531   */\n      sub\n        /* \"#utility.yul\":1504:1536   */\n      slt\n        /* \"#utility.yul\":1501:1620   */\n      iszero\n      tag_153\n      jumpi\n        /* \"#utility.yul\":1539:1618   */\n      tag_154\n      tag_107\n      jump\t// in\n    tag_154:\n        /* \"#utility.yul\":1501:1620   */\n    tag_153:\n        /* \"#utility.yul\":1659:1660   */\n      0x00\n        /* \"#utility.yul\":1684:1737   */\n      tag_155\n        /* \"#utility.yul\":1729:1736   */\n      dup5\n        /* \"#utility.yul\":1720:1726   */\n      dup3\n        /* \"#utility.yul\":1709:1718   */\n      dup6\n        /* \"#utility.yul\":1705:1727   */\n      add\n        /* \"#utility.yul\":1684:1737   */\n      tag_110\n      jump\t// in\n    tag_155:\n        /* \"#utility.yul\":1674:1737   */\n      swap2\n      pop\n        /* \"#utility.yul\":1630:1747   */\n      pop\n        /* \"#utility.yul\":1425:1754   */\n      swap3\n      swap2\n      pop\n      pop\n      jump\t// out\n        /* \"#utility.yul\":1760:1850   */\n    tag_111:\n        /* \"#utility.yul\":1794:1801   */\n      0x00\n        /* \"#utility.yul\":1837:1842   */\n      dup2\n        /* \"#utility.yul\":1830:1843   */\n      iszero\n        /* \"#utility.yul\":1823:1844   */\n      iszero\n        /* \"#utility.yul\":1812:1844   */\n      swap1\n      pop\n        /* \"#utility.yul\":1760:1850   */\n      swap2\n      swap1\n      pop\n      jump\t// out\n        /* \"#utility.yul\":1856:1972   */\n    tag_112:\n        /* \"#utility.yul\":1926:1947   */\n      tag_158\n        /* \"#utility.yul\":1941:1946   */\n      dup2\n        /* \"#utility.yul\":1926:1947   */\n      tag_111\n      jump\t// in\n    tag_158:\n        /* \"#utility.yul\":1919:1924   */\n      dup2\n        /* \"#utility.yul\":1916:1948   */\n      eq\n        /* \"#utility.yul\":1906:1966   */\n      tag_159\n      jumpi\n        /* \"#utility.yul\":1962:1963   */\n      0x00\n        /* \"#utility.yul\":1959:1960   */\n      0x00\n        /* \"#utility.yul\":1952:1964   */\n      revert\n        /* \"#utility.yul\":1906:1966   */\n    tag_159:\n        /* \"#utility.yul\":1856:1972   */\n      pop\n      jump\t// out\n        /* \"#utility.yul\":1978:2111   */\n    tag_113:\n        /* \"#utility.yul\":2021:2026   */\n      0x00\n        /* \"#utility.yul\":2059:2065   */\n      dup2\n        /* \"#utility.yul\":2046:2066   */\n      calldataload\n        /* \"#utility.yul\":2037:2066   */\n      swap1\n      pop\n        /* \"#utility.yul\":2075:2105   */\n      tag_161\n        /* \"#utility.yul\":2099:2104   */\n      dup2\n        /* \"#utility.yul\":2075:2105   */\n      tag_112\n      jump\t// in\n    tag_161:\n        /* \"#utility.yul\":1978:2111   */\n      swap3\n      swap2\n      pop\n      pop\n      jump\t// out\n        /* \"#utility.yul\":2117:2585   */\n    tag_29:\n        /* \"#utility.yul\":2182:2188   */\n      0x00\n        /* \"#utility.yul\":2190:2196   */\n      0x00\n        /* \"#utility.yul\":2239:2241   */\n      0x40\n        /* \"#utility.yul\":2227:2236   */\n      dup4\n        /* \"#utility.yul\":2218:2225   */\n      dup6\n        /* \"#utility.yul\":2214:2237   */\n      sub\n        /* \"#utility.yul\":2210:2242   */\n      slt\n        /* \"#utility.yul\":2207:2326   */\n      iszero\n      tag_163\n      jumpi\n        /* \"#utility.yul\":2245:2324   */\n      tag_164\n      tag_107\n      jump\t// in\n    tag_164:\n        /* \"#utility.yul\":2207:2326   */\n    tag_163:\n        /* \"#utility.yul\":2365:2366   */\n      0x00\n        /* \"#utility.yul\":2390:2443   */\n      tag_165\n        /* \"#utility.yul\":2435:2442   */\n      dup6\n        /* \"#utility.yul\":2426:2432   */\n      dup3\n        /* \"#utility.yul\":2415:2424   */\n      dup7\n        /* \"#utility.yul\":2411:2433   */\n      add\n        /* \"#utility.yul\":2390:2443   */\n      tag_110\n      jump\t// in\n    tag_165:\n        /* \"#utility.yul\":2380:2443   */\n      swap3\n      pop\n        /* \"#utility.yul\":2336:2453   */\n      pop\n        /* \"#utility.yul\":2492:2494   */\n      0x20\n        /* \"#utility.yul\":2518:2568   */\n      tag_166\n        /* \"#utility.yul\":2560:2567   */\n      dup6\n        /* \"#utility.yul\":2551:2557   */\n      dup3\n        /* \"#utility.yul\":2540:2549   */\n      dup7\n        /* \"#utility.yul\":2536:2558   */\n      add\n        /* \"#utility.yul\":2518:2568   */\n      tag_113\n      jump\t// in\n    tag_166:\n        /* \"#utility.yul\":2508:2568   */\n      swap2\n      pop\n        /* \"#utility.yul\":2463:2578   */\n      pop\n        /* \"#utility.yul\":2117:2585   */\n      swap3\n      pop\n      swap3\n      swap1\n      pop\n      jump\t// out\n        /* \"#utility.yul\":2591:2717   */\n    tag_114:\n        /* \"#utility.yul\":2628:2635   */\n      0x00\n        /* \"#utility.yul\":2668:2710   */\n      0xffffffffffffffffffffffffffffffffffffffff\n        /* \"#utility.yul\":2661:2666   */\n      dup3\n        /* \"#utility.yul\":2657:2711   */\n      and\n        /* \"#utility.yul\":2646:2711   */\n      swap1\n      pop\n        /* \"#utility.yul\":2591:2717   */\n      swap2\n      swap1\n      pop\n      jump\t// out\n        /* \"#utility.yul\":2723:2819   */\n    tag_115:\n        /* \"#utility.yul\":2760:2767   */\n      0x00\n        /* \"#utility.yul\":2789:2813   */\n      tag_169\n        /* \"#utility.yul\":2807:2812   */\n      dup3\n        /* \"#utility.yul\":2789:2813   */\n      tag_114\n      jump\t// in\n    tag_169:\n        /* \"#utility.yul\":2778:2813   */\n      swap1\n      pop\n        /* \"#utility.yul\":2723:2819   */\n      swap2\n      swap1\n      pop\n      jump\t// out\n        /* \"#utility.yul\":2825:2947   */\n    tag_116:\n        /* \"#utility.yul\":2898:2922   */\n      tag_171\n        /* \"#utility.yul\":2916:2921   */\n      dup2\n        /* \"#utility.yul\":2898:2922   */\n      tag_115\n      jump\t// in\n    tag_171:\n        /* \"#utility.yul\":2891:2896   */\n      dup2\n        /* \"#utility.yul\":2888:2923   */\n      eq\n        /* \"#utility.yul\":2878:2941   */\n      tag_172\n      jumpi\n        /* \"#utility.yul\":2937:2938   */\n      0x00\n        /* \"#utility.yul\":2934:2935   */\n      0x00\n        /* \"#utility.yul\":2927:2939   */\n      revert\n        /* \"#utility.yul\":2878:2941   */\n    tag_172:\n        /* \"#utility.yul\":2825:2947   */\n      pop\n      jump\t// out\n        /* \"#utility.yul\":2953:3092   */\n    tag_117:\n        /* \"#utility.yul\":2999:3004   */\n      0x00\n        /* \"#utility.yul\":3037:3043   */\n      dup2\n        /* \"#utility.yul\":3024:3044   */\n      calldataload\n        /* \"#utility.yul\":3015:3044   */\n      swap1\n      pop\n        /* \"#utility.yul\":3053:3086   */\n      tag_174\n        /* \"#utility.yul\":3080:3085   */\n      dup2\n        /* \"#utility.yul\":3053:3086   */\n      tag_116\n      jump\t// in\n    tag_174:\n        /* \"#utility.yul\":2953:3092   */\n      swap3\n      swap2\n      pop\n      pop\n      jump\t// out\n        /* \"#utility.yul\":3098:3427   */\n    tag_34:\n        /* \"#utility.yul\":3157:3163   */\n      0x00\n        /* \"#utility.yul\":3206:3208   */\n      0x20\n        /* \"#utility.yul\":3194:3203   */\n      dup3\n        /* \"#utility.yul\":3185:3192   */\n      dup5\n        /* \"#utility.yul\":3181:3204   */\n      sub\n        /* \"#utility.yul\":3177:3209   */\n      slt\n        /* \"#utility.yul\":3174:3293   */\n      iszero\n      tag_176\n      jumpi\n        /* \"#utility.yul\":3212:3291   */\n      tag_177\n      tag_107\n      jump\t// in\n    tag_177:\n        /* \"#utility.yul\":3174:3293   */\n    tag_176:\n        /* \"#utility.yul\":3332:3333   */\n      0x00\n        /* \"#utility.yul\":3357:3410   */\n      tag_178\n        /* \"#utility.yul\":3402:3409   */\n      dup5\n        /* \"#utility.yul\":3393:3399   */\n      dup3\n        /* \"#utility.yul\":3382:3391   */\n      dup6\n        /* \"#utility.yul\":3378:3400   */\n      add\n        /* \"#utility.yul\":3357:3410   */\n      tag_117\n      jump\t// in\n    tag_178:\n        /* \"#utility.yul\":3347:3410   */\n      swap2\n      pop\n        /* \"#utility.yul\":3303:3420   */\n      pop\n        /* \"#utility.yul\":3098:3427   */\n      swap3\n      swap2\n      pop\n      pop\n      jump\t// out\n        /* \"#utility.yul\":3433:3551   */\n    tag_118:\n        /* \"#utility.yul\":3520:3544   */\n      tag_180\n        /* \"#utility.yul\":3538:3543   */\n      dup2\n        /* \"#utility.yul\":3520:3544   */\n      tag_115\n      jump\t// in\n    tag_180:\n        /* \"#utility.yul\":3515:3518   */\n      dup3\n        /* \"#utility.yul\":3508:3545   */\n      mstore\n        /* \"#utility.yul\":3433:3551   */\n      pop\n      pop\n      jump\t// out\n        /* \"#utility.yul\":3557:3779   */\n    tag_41:\n        /* \"#utility.yul\":3650:3654   */\n      0x00\n        /* \"#utility.yul\":3688:3690   */\n      0x20\n        /* \"#utility.yul\":3677:3686   */\n      dup3\n        /* \"#utility.yul\":3673:3691   */\n      add\n        /* \"#utility.yul\":3665:3691   */\n      swap1\n      pop\n        /* \"#utility.yul\":3701:3772   */\n      tag_182\n        /* \"#utility.yul\":3769:3770   */\n      0x00\n        /* \"#utility.yul\":3758:3767   */\n      dup4\n        /* \"#utility.yul\":3754:3771   */\n      add\n        /* \"#utility.yul\":3745:3751   */\n      dup5\n        /* \"#utility.yul\":3701:3772   */\n      tag_118\n      jump\t// in\n    tag_182:\n        /* \"#utility.yul\":3557:3779   */\n      swap3\n      swap2\n      pop\n      pop\n      jump\t// out\n        /* \"#utility.yul\":3785:4195   */\n    tag_54:\n        /* \"#utility.yul\":3825:3832   */\n      0x00\n        /* \"#utility.yul\":3848:3868   */\n      tag_184\n        /* \"#utility.yul\":3866:3867   */\n      dup3\n        /* \"#utility.yul\":3848:3868   */\n      tag_103\n      jump\t// in\n    tag_184:\n        /* \"#utility.yul\":3843:3868   */\n      swap2\n      pop\n        /* \"#utility.yul\":3882:3902   */\n      tag_185\n        /* \"#utility.yul\":3900:3901   */\n      dup4\n        /* \"#utility.yul\":3882:3902   */\n      tag_103\n      jump\t// in\n    tag_185:\n        /* \"#utility.yul\":3877:3902   */\n      swap3\n      pop\n        /* \"#utility.yul\":3937:3938   */\n      dup3\n        /* \"#utility.yul\":3934:3935   */\n      dup3\n        /* \"#utility.yul\":3930:3939   */\n      mul\n        /* \"#utility.yul\":3959:3989   */\n      tag_186\n        /* \"#utility.yul\":3977:3988   */\n      dup2\n        /* \"#utility.yul\":3959:3989   */\n      tag_103\n      jump\t// in\n    tag_186:\n        /* \"#utility.yul\":3948:3989   */\n      swap2\n      pop\n        /* \"#utility.yul\":4138:4139   */\n      dup3\n        /* \"#utility.yul\":4129:4136   */\n      dup3\n        /* \"#utility.yul\":4125:4140   */\n      div\n        /* \"#utility.yul\":4122:4123   */\n      dup5\n        /* \"#utility.yul\":4119:4141   */\n      eq\n        /* \"#utility.yul\":4099:4100   */\n      dup4\n        /* \"#utility.yul\":4092:4101   */\n      iszero\n        /* \"#utility.yul\":4072:4155   */\n      or\n        /* \"#utility.yul\":4049:4188   */\n      tag_187\n      jumpi\n        /* \"#utility.yul\":4168:4186   */\n      tag_188\n      tag_104\n      jump\t// in\n    tag_188:\n        /* \"#utility.yul\":4049:4188   */\n    tag_187:\n        /* \"#utility.yul\":3833:4195   */\n      pop\n        /* \"#utility.yul\":3785:4195   */\n      swap3\n      swap2\n      pop\n      pop\n      jump\t// out\n        /* \"#utility.yul\":4201:4370   */\n    tag_119:\n        /* \"#utility.yul\":4285:4296   */\n      0x00\n        /* \"#utility.yul\":4319:4325   */\n      dup3\n        /* \"#utility.yul\":4314:4317   */\n      dup3\n        /* \"#utility.yul\":4307:4326   */\n      mstore\n        /* \"#utility.yul\":4359:4363   */\n      0x20\n        /* \"#utility.yul\":4354:4357   */\n      dup3\n        /* \"#utility.yul\":4350:4364   */\n      add\n        /* \"#utility.yul\":4335:4364   */\n      swap1\n      pop\n        /* \"#utility.yul\":4201:4370   */\n      swap3\n      swap2\n      pop\n      pop\n      jump\t// out\n        /* \"#utility.yul\":4376:4544   */\n    tag_120:\n        /* \"#utility.yul\":4516:4536   */\n      0x496e73756666696369656e742066756e64730000000000000000000000000000\n        /* \"#utility.yul\":4512:4513   */\n      0x00\n        /* \"#utility.yul\":4504:4510   */\n      dup3\n        /* \"#utility.yul\":4500:4514   */\n      add\n        /* \"#utility.yul\":4493:4537   */\n      mstore\n        /* \"#utility.yul\":4376:4544   */\n      pop\n      jump\t// out\n        /* \"#utility.yul\":4550:4916   */\n    tag_121:\n        /* \"#utility.yul\":4692:4695   */\n      0x00\n        /* \"#utility.yul\":4713:4780   */\n      tag_192\n        /* \"#utility.yul\":4777:4779   */\n      0x12\n        /* \"#utility.yul\":4772:4775   */\n      dup4\n        /* \"#utility.yul\":4713:4780   */\n      tag_119\n      jump\t// in\n    tag_192:\n        /* \"#utility.yul\":4706:4780   */\n      swap2\n      pop\n        /* \"#utility.yul\":4789:4882   */\n      tag_193\n        /* \"#utility.yul\":4878:4881   */\n      dup3\n        /* \"#utility.yul\":4789:4882   */\n      tag_120\n      jump\t// in\n    tag_193:\n        /* \"#utility.yul\":4907:4909   */\n      0x20\n        /* \"#utility.yul\":4902:4905   */\n      dup3\n        /* \"#utility.yul\":4898:4910   */\n      add\n        /* \"#utility.yul\":4891:4910   */\n      swap1\n      pop\n        /* \"#utility.yul\":4550:4916   */\n      swap2\n      swap1\n      pop\n      jump\t// out\n        /* \"#utility.yul\":4922:5341   */\n    tag_57:\n        /* \"#utility.yul\":5088:5092   */\n      0x00\n        /* \"#utility.yul\":5126:5128   */\n      0x20\n        /* \"#utility.yul\":5115:5124   */\n      dup3\n        /* \"#utility.yul\":5111:5129   */\n      add\n        /* \"#utility.yul\":5103:5129   */\n      swap1\n      pop\n        /* \"#utility.yul\":5175:5184   */\n      dup2\n        /* \"#utility.yul\":5169:5173   */\n      dup2\n        /* \"#utility.yul\":5165:5185   */\n      sub\n        /* \"#utility.yul\":5161:5162   */\n      0x00\n        /* \"#utility.yul\":5150:5159   */\n      dup4\n        /* \"#utility.yul\":5146:5163   */\n      add\n        /* \"#utility.yul\":5139:5186   */\n      mstore\n        /* \"#utility.yul\":5203:5334   */\n      tag_195\n        /* \"#utility.yul\":5329:5333   */\n      dup2\n        /* \"#utility.yul\":5203:5334   */\n      tag_121\n      jump\t// in\n    tag_195:\n        /* \"#utility.yul\":5195:5334   */\n      swap1\n      pop\n        /* \"#utility.yul\":4922:5341   */\n      swap2\n      swap1\n      pop\n      jump\t// out\n        /* \"#utility.yul\":5347:5541   */\n    tag_60:\n        /* \"#utility.yul\":5387:5391   */\n      0x00\n        /* \"#utility.yul\":5407:5427   */\n      tag_197\n        /* \"#utility.yul\":5425:5426   */\n      dup3\n        /* \"#utility.yul\":5407:5427   */\n      tag_103\n      jump\t// in\n    tag_197:\n        /* \"#utility.yul\":5402:5427   */\n      swap2\n      pop\n        /* \"#utility.yul\":5441:5461   */\n      tag_198\n        /* \"#utility.yul\":5459:5460   */\n      dup4\n        /* \"#utility.yul\":5441:5461   */\n      tag_103\n      jump\t// in\n    tag_198:\n        /* \"#utility.yul\":5436:5461   */\n      swap3\n      pop\n        /* \"#utility.yul\":5485:5486   */\n      dup3\n        /* \"#utility.yul\":5482:5483   */\n      dup3\n        /* \"#utility.yul\":5478:5487   */\n      sub\n        /* \"#utility.yul\":5470:5487   */\n      swap1\n      pop\n        /* \"#utility.yul\":5509:5510   */\n      dup2\n        /* \"#utility.yul\":5503:5507   */\n      dup2\n        /* \"#utility.yul\":5500:5511   */\n      gt\n        /* \"#utility.yul\":5497:5534   */\n      iszero\n      tag_199\n      jumpi\n        /* \"#utility.yul\":5514:5532   */\n      tag_200\n      tag_104\n      jump\t// in\n    tag_200:\n        /* \"#utility.yul\":5497:5534   */\n    tag_199:\n        /* \"#utility.yul\":5347:5541   */\n      swap3\n      swap2\n      pop\n      pop\n      jump\t// out\n        /* \"#utility.yul\":5547:5694   */\n    tag_122:\n        /* \"#utility.yul\":5648:5659   */\n      0x00\n        /* \"#utility.yul\":5685:5688   */\n      dup2\n        /* \"#utility.yul\":5670:5688   */\n      swap1\n      pop\n        /* \"#utility.yul\":5547:5694   */\n      swap3\n      swap2\n      pop\n      pop\n      jump\t// out\n        /* \"#utility.yul\":5700:5814   */\n    tag_123:\n      pop\n      jump\t// out\n        /* \"#utility.yul\":5820:6218   */\n    tag_124:\n        /* \"#utility.yul\":5979:5982   */\n      0x00\n        /* \"#utility.yul\":6000:6083   */\n      tag_204\n        /* \"#utility.yul\":6081:6082   */\n      0x00\n        /* \"#utility.yul\":6076:6079   */\n      dup4\n        /* \"#utility.yul\":6000:6083   */\n      tag_122\n      jump\t// in\n    tag_204:\n        /* \"#utility.yul\":5993:6083   */\n      swap2\n      pop\n        /* \"#utility.yul\":6092:6185   */\n      tag_205\n        /* \"#utility.yul\":6181:6184   */\n      dup3\n        /* \"#utility.yul\":6092:6185   */\n      tag_123\n      jump\t// in\n    tag_205:\n        /* \"#utility.yul\":6210:6211   */\n      0x00\n        /* \"#utility.yul\":6205:6208   */\n      dup3\n        /* \"#utility.yul\":6201:6212   */\n      add\n        /* \"#utility.yul\":6194:6212   */\n      swap1\n      pop\n        /* \"#utility.yul\":5820:6218   */\n      swap2\n      swap1\n      pop\n      jump\t// out\n        /* \"#utility.yul\":6224:6603   */\n    tag_62:\n        /* \"#utility.yul\":6408:6411   */\n      0x00\n        /* \"#utility.yul\":6430:6577   */\n      tag_207\n        /* \"#utility.yul\":6573:6576   */\n      dup3\n        /* \"#utility.yul\":6430:6577   */\n      tag_124\n      jump\t// in\n    tag_207:\n        /* \"#utility.yul\":6423:6577   */\n      swap2\n      pop\n        /* \"#utility.yul\":6594:6597   */\n      dup2\n        /* \"#utility.yul\":6587:6597   */\n      swap1\n      pop\n        /* \"#utility.yul\":6224:6603   */\n      swap2\n      swap1\n      pop\n      jump\t// out\n        /* \"#utility.yul\":6609:6776   */\n    tag_125:\n        /* \"#utility.yul\":6749:6768   */\n      0x5769746864726177616c206661696c6564000000000000000000000000000000\n        /* \"#utility.yul\":6745:6746   */\n      0x00\n        /* \"#utility.yul\":6737:6743   */\n      dup3\n        /* \"#utility.yul\":6733:6747   */\n      add\n        /* \"#utility.yul\":6726:6769   */\n      mstore\n        /* \"#utility.yul\":6609:6776   */\n      pop\n      jump\t// out\n        /* \"#utility.yul\":6782:7148   */\n    tag_126:\n        /* \"#utility.yul\":6924:6927   */\n      0x00\n        /* \"#utility.yul\":6945:7012   */\n      tag_210\n        /* \"#utility.yul\":7009:7011   */\n      0x11\n        /* \"#utility.yul\":7004:7007   */\n      dup4\n        /* \"#utility.yul\":6945:7012   */\n      tag_119\n      jump\t// in\n    tag_210:\n        /* \"#utility.yul\":6938:7012   */\n      swap2\n      pop\n        /* \"#utility.yul\":7021:7114   */\n      tag_211\n        /* \"#utility.yul\":7110:7113   */\n      dup3\n        /* \"#utility.yul\":7021:7114   */\n      tag_125\n      jump\t// in\n    tag_211:\n        /* \"#utility.yul\":7139:7141   */\n      0x20\n        /* \"#utility.yul\":7134:7137   */\n      dup3\n        /* \"#utility.yul\":7130:7142   */\n      add\n        /* \"#utility.yul\":7123:7142   */\n      swap1\n      pop\n        /* \"#utility.yul\":6782:7148   */\n      swap2\n      swap1\n      pop\n      jump\t// out\n        /* \"#utility.yul\":7154:7573   */\n    tag_68:\n        /* \"#utility.yul\":7320:7324   */\n      0x00\n        /* \"#utility.yul\":7358:7360   */\n      0x20\n        /* \"#utility.yul\":7347:7356   */\n      dup3\n        /* \"#utility.yul\":7343:7361   */\n      add\n        /* \"#utility.yul\":7335:7361   */\n      swap1\n      pop\n        /* \"#utility.yul\":7407:7416   */\n      dup2\n        /* \"#utility.yul\":7401:7405   */\n      dup2\n        /* \"#utility.yul\":7397:7417   */\n      sub\n        /* \"#utility.yul\":7393:7394   */\n      0x00\n        /* \"#utility.yul\":7382:7391   */\n      dup4\n        /* \"#utility.yul\":7378:7395   */\n      add\n        /* \"#utility.yul\":7371:7418   */\n      mstore\n        /* \"#utility.yul\":7435:7566   */\n      tag_213\n        /* \"#utility.yul\":7561:7565   */\n      dup2\n        /* \"#utility.yul\":7435:7566   */\n      tag_126\n      jump\t// in\n    tag_213:\n        /* \"#utility.yul\":7427:7566   */\n      swap1\n      pop\n        /* \"#utility.yul\":7154:7573   */\n      swap2\n      swap1\n      pop\n      jump\t// out\n        /* \"#utility.yul\":7579:7759   */\n    tag_127:\n        /* \"#utility.yul\":7627:7704   */\n      0x4e487b7100000000000000000000000000000000000000000000000000000000\n        /* \"#utility.yul\":7624:7625   */\n      0x00\n        /* \"#utility.yul\":7617:7705   */\n      mstore\n        /* \"#utility.yul\":7724:7728   */\n      0x12\n        /* \"#utility.yul\":7721:7722   */\n      0x04\n        /* \"#utility.yul\":7714:7729   */\n      mstore\n        /* \"#utility.yul\":7748:7752   */\n      0x24\n        /* \"#utility.yul\":7745:7746   */\n      0x00\n        /* \"#utility.yul\":7738:7753   */\n      revert\n        /* \"#utility.yul\":7765:7950   */\n    tag_76:\n        /* \"#utility.yul\":7805:7806   */\n      0x00\n        /* \"#utility.yul\":7822:7842   */\n      tag_216\n        /* \"#utility.yul\":7840:7841   */\n      dup3\n        /* \"#utility.yul\":7822:7842   */\n      tag_103\n      jump\t// in\n    tag_216:\n        /* \"#utility.yul\":7817:7842   */\n      swap2\n      pop\n        /* \"#utility.yul\":7856:7876   */\n      tag_217\n        /* \"#utility.yul\":7874:7875   */\n      dup4\n        /* \"#utility.yul\":7856:7876   */\n      tag_103\n      jump\t// in\n    tag_217:\n        /* \"#utility.yul\":7851:7876   */\n      swap3\n      pop\n        /* \"#utility.yul\":7895:7896   */\n      dup3\n        /* \"#utility.yul\":7885:7920   */\n      tag_218\n      jumpi\n        /* \"#utility.yul\":7900:7918   */\n      tag_219\n      tag_127\n      jump\t// in\n    tag_219:\n        /* \"#utility.yul\":7885:7920   */\n    tag_218:\n        /* \"#utility.yul\":7942:7943   */\n      dup3\n        /* \"#utility.yul\":7939:7940   */\n      dup3\n        /* \"#utility.yul\":7935:7944   */\n      div\n        /* \"#utility.yul\":7930:7944   */\n      swap1\n      pop\n        /* \"#utility.yul\":7765:7950   */\n      swap3\n      swap2\n      pop\n      pop\n      jump\t// out\n        /* \"#utility.yul\":7956:8128   */\n    tag_128:\n        /* \"#utility.yul\":8096:8120   */\n      0x46656573205769746864726177616c206661696c656400000000000000000000\n        /* \"#utility.yul\":8092:8093   */\n      0x00\n        /* \"#utility.yul\":8084:8090   */\n      dup3\n        /* \"#utility.yul\":8080:8094   */\n      add\n        /* \"#utility.yul\":8073:8121   */\n      mstore\n        /* \"#utility.yul\":7956:8128   */\n      pop\n      jump\t// out\n        /* \"#utility.yul\":8134:8500   */\n    tag_129:\n        /* \"#utility.yul\":8276:8279   */\n      0x00\n        /* \"#utility.yul\":8297:8364   */\n      tag_222\n        /* \"#utility.yul\":8361:8363   */\n      0x16\n        /* \"#utility.yul\":8356:8359   */\n      dup4\n        /* \"#utility.yul\":8297:8364   */\n      tag_119\n      jump\t// in\n    tag_222:\n        /* \"#utility.yul\":8290:8364   */\n      swap2\n      pop\n        /* \"#utility.yul\":8373:8466   */\n      tag_223\n        /* \"#utility.yul\":8462:8465   */\n      dup3\n        /* \"#utility.yul\":8373:8466   */\n      tag_128\n      jump\t// in\n    tag_223:\n        /* \"#utility.yul\":8491:8493   */\n      0x20\n        /* \"#utility.yul\":8486:8489   */\n      dup3\n        /* \"#utility.yul\":8482:8494   */\n      add\n        /* \"#utility.yul\":8475:8494   */\n      swap1\n      pop\n        /* \"#utility.yul\":8134:8500   */\n      swap2\n      swap1\n      pop\n      jump\t// out\n        /* \"#utility.yul\":8506:8925   */\n    tag_90:\n        /* \"#utility.yul\":8672:8676   */\n      0x00\n        /* \"#utility.yul\":8710:8712   */\n      0x20\n        /* \"#utility.yul\":8699:8708   */\n      dup3\n        /* \"#utility.yul\":8695:8713   */\n      add\n        /* \"#utility.yul\":8687:8713   */\n      swap1\n      pop\n        /* \"#utility.yul\":8759:8768   */\n      dup2\n        /* \"#utility.yul\":8753:8757   */\n      dup2\n        /* \"#utility.yul\":8749:8769   */\n      sub\n        /* \"#utility.yul\":8745:8746   */\n      0x00\n        /* \"#utility.yul\":8734:8743   */\n      dup4\n        /* \"#utility.yul\":8730:8747   */\n      add\n        /* \"#utility.yul\":8723:8770   */\n      mstore\n        /* \"#utility.yul\":8787:8918   */\n      tag_225\n        /* \"#utility.yul\":8913:8917   */\n      dup2\n        /* \"#utility.yul\":8787:8918   */\n      tag_129\n      jump\t// in\n    tag_225:\n        /* \"#utility.yul\":8779:8918   */\n      swap1\n      pop\n        /* \"#utility.yul\":8506:8925   */\n      swap2\n      swap1\n      pop\n      jump\t// out\n        /* \"#utility.yul\":8931:9263   */\n    tag_92:\n        /* \"#utility.yul\":9052:9056   */\n      0x00\n        /* \"#utility.yul\":9090:9092   */\n      0x40\n        /* \"#utility.yul\":9079:9088   */\n      dup3\n        /* \"#utility.yul\":9075:9093   */\n      add\n        /* \"#utility.yul\":9067:9093   */\n      swap1\n      pop\n        /* \"#utility.yul\":9103:9174   */\n      tag_227\n        /* \"#utility.yul\":9171:9172   */\n      0x00\n        /* \"#utility.yul\":9160:9169   */\n      dup4\n        /* \"#utility.yul\":9156:9173   */\n      add\n        /* \"#utility.yul\":9147:9153   */\n      dup6\n        /* \"#utility.yul\":9103:9174   */\n      tag_118\n      jump\t// in\n    tag_227:\n        /* \"#utility.yul\":9184:9256   */\n      tag_228\n        /* \"#utility.yul\":9252:9254   */\n      0x20\n        /* \"#utility.yul\":9241:9250   */\n      dup4\n        /* \"#utility.yul\":9237:9255   */\n      add\n        /* \"#utility.yul\":9228:9234   */\n      dup5\n        /* \"#utility.yul\":9184:9256   */\n      tag_105\n      jump\t// in\n    tag_228:\n        /* \"#utility.yul\":8931:9263   */\n      swap4\n      swap3\n      pop\n      pop\n      pop\n      jump\t// out\n        /* \"#utility.yul\":9269:9428   */\n    tag_130:\n        /* \"#utility.yul\":9409:9420   */\n      0x4e6f74204f776e65720000000000000000000000000000000000000000000000\n        /* \"#utility.yul\":9405:9406   */\n      0x00\n        /* \"#utility.yul\":9397:9403   */\n      dup3\n        /* \"#utility.yul\":9393:9407   */\n      add\n        /* \"#utility.yul\":9386:9421   */\n      mstore\n        /* \"#utility.yul\":9269:9428   */\n      pop\n      jump\t// out\n        /* \"#utility.yul\":9434:9799   */\n    tag_131:\n        /* \"#utility.yul\":9576:9579   */\n      0x00\n        /* \"#utility.yul\":9597:9663   */\n      tag_231\n        /* \"#utility.yul\":9661:9662   */\n      0x09\n        /* \"#utility.yul\":9656:9659   */\n      dup4\n        /* \"#utility.yul\":9597:9663   */\n      tag_119\n      jump\t// in\n    tag_231:\n        /* \"#utility.yul\":9590:9663   */\n      swap2\n      pop\n        /* \"#utility.yul\":9672:9765   */\n      tag_232\n        /* \"#utility.yul\":9761:9764   */\n      dup3\n        /* \"#utility.yul\":9672:9765   */\n      tag_130\n      jump\t// in\n    tag_232:\n        /* \"#utility.yul\":9790:9792   */\n      0x20\n        /* \"#utility.yul\":9785:9788   */\n      dup3\n        /* \"#utility.yul\":9781:9793   */\n      add\n        /* \"#utility.yul\":9774:9793   */\n      swap1\n      pop\n        /* \"#utility.yul\":9434:9799   */\n      swap2\n      swap1\n      pop\n      jump\t// out\n        /* \"#utility.yul\":9805:10224   */\n    tag_96:\n        /* \"#utility.yul\":9971:9975   */\n      0x00\n        /* \"#utility.yul\":10009:10011   */\n      0x20\n        /* \"#utility.yul\":9998:10007   */\n      dup3\n        /* \"#utility.yul\":9994:10012   */\n      add\n        /* \"#utility.yul\":9986:10012   */\n      swap1\n      pop\n        /* \"#utility.yul\":10058:10067   */\n      dup2\n        /* \"#utility.yul\":10052:10056   */\n      dup2\n        /* \"#utility.yul\":10048:10068   */\n      sub\n        /* \"#utility.yul\":10044:10045   */\n      0x00\n        /* \"#utility.yul\":10033:10042   */\n      dup4\n        /* \"#utility.yul\":10029:10046   */\n      add\n        /* \"#utility.yul\":10022:10069   */\n      mstore\n        /* \"#utility.yul\":10086:10217   */\n      tag_234\n        /* \"#utility.yul\":10212:10216   */\n      dup2\n        /* \"#utility.yul\":10086:10217   */\n      tag_131\n      jump\t// in\n    tag_234:\n        /* \"#utility.yul\":10078:10217   */\n      swap1\n      pop\n        /* \"#utility.yul\":9805:10224   */\n      swap2\n      swap1\n      pop\n      jump\t// out\n        /* \"#utility.yul\":10230:10562   */\n    tag_99:\n        /* \"#utility.yul\":10351:10355   */\n      0x00\n        /* \"#utility.yul\":10389:10391   */\n      0x40\n        /* \"#utility.yul\":10378:10387   */\n      dup3\n        /* \"#utility.yul\":10374:10392   */\n      add\n        /* \"#utility.yul\":10366:10392   */\n      swap1\n      pop\n        /* \"#utility.yul\":10402:10473   */\n      tag_236\n        /* \"#utility.yul\":10470:10471   */\n      0x00\n        /* \"#utility.yul\":10459:10468   */\n      dup4\n        /* \"#utility.yul\":10455:10472   */\n      add\n        /* \"#utility.yul\":10446:10452   */\n      dup6\n        /* \"#utility.yul\":10402:10473   */\n      tag_105\n      jump\t// in\n    tag_236:\n        /* \"#utility.yul\":10483:10555   */\n      tag_237\n        /* \"#utility.yul\":10551:10553   */\n      0x20\n        /* \"#utility.yul\":10540:10549   */\n      dup4\n        /* \"#utility.yul\":10536:10554   */\n      add\n        /* \"#utility.yul\":10527:10533   */\n      dup5\n        /* \"#utility.yul\":10483:10555   */\n      tag_105\n      jump\t// in\n    tag_237:\n        /* \"#utility.yul\":10230:10562   */\n      swap4\n      swap3\n      pop\n      pop\n      pop\n      jump\t// out\n\n    auxdata: 0xa264697066735822122093a138d7f14aef5f0b454a16265ad27f3605023551eea8f3ce1f960b4dcee26a64736f6c634300081e0033\n}\n",
				"bytecode": {
					"linkReferences": {},
					"object": "6080604052600a6002553480156013575f5ffd5b50335f5f6101000a81548173ffffffffffffffffffffffffffffffffffffffff021916908373ffffffffffffffffffffffffffffffffffffffff160217905550610e32806100605f395ff3fe608060405260043610610073575f3560e01c80638da5cb5b1161004d5780638da5cb5b1461024a5780639012c4a814610274578063a001ecdd1461029c578063d0e30db0146102c65761011b565b80632e1a7d4d146101be57806338d07436146101e657806370a082311461020e5761011b565b3661011b573460015f3373ffffffffffffffffffffffffffffffffffffffff1673ffffffffffffffffffffffffffffffffffffffff1681526020019081526020015f205f8282546100c49190610918565b925050819055503373ffffffffffffffffffffffffffffffffffffffff167fd6717f327e0cb88b4a97a7f67a453e9258252c34937ccbdd86de7cb840e7def334604051610111919061095a565b60405180910390a2005b3460015f3373ffffffffffffffffffffffffffffffffffffffff1673ffffffffffffffffffffffffffffffffffffffff1681526020019081526020015f205f8282546101679190610918565b925050819055503373ffffffffffffffffffffffffffffffffffffffff167ffbf15a1bae5e021d024841007b692b167afd2a281a4ff0b44f47387eb388205c346040516101b4919061095a565b60405180910390a2005b3480156101c9575f5ffd5b506101e460048036038101906101df91906109a1565b6102d0565b005b3480156101f1575f5ffd5b5061020c60048036038101906102079190610a01565b6104c8565b005b348015610219575f5ffd5b50610234600480360381019061022f9190610a99565b61072f565b604051610241919061095a565b60405180910390f35b348015610255575f5ffd5b5061025e610744565b60405161026b9190610ad3565b60405180910390f35b34801561027f575f5ffd5b5061029a600480360381019061029591906109a1565b610768565b005b3480156102a7575f5ffd5b506102b0610839565b6040516102bd919061095a565b60405180910390f35b6102ce61083f565b005b5f670de0b6b3a7640000826102e59190610aec565b905060015f3373ffffffffffffffffffffffffffffffffffffffff1673ffffffffffffffffffffffffffffffffffffffff1681526020019081526020015f2054811115610367576040517f08c379a000000000000000000000000000000000000000000000000000000000815260040161035e90610b87565b60405180910390fd5b670de0b6b3a76400008261037b9190610aec565b60015f3373ffffffffffffffffffffffffffffffffffffffff1673ffffffffffffffffffffffffffffffffffffffff1681526020019081526020015f205f8282546103c69190610ba5565b925050819055505f3373ffffffffffffffffffffffffffffffffffffffff16826040516103f290610c05565b5f6040518083038185875af1925050503d805f811461042c576040519150601f19603f3d011682016040523d82523d5f602084013e610431565b606091505b5050905080610475576040517f08c379a000000000000000000000000000000000000000000000000000000000815260040161046c90610c63565b60405180910390fd5b3373ffffffffffffffffffffffffffffffffffffffff167f884edad9ce6fa2440d8a54cc123490eb96d2768479d49ff9c7366125a9424364836040516104bb919061095a565b60405180910390a2505050565b806104db576104d6826102d0565b61072b565b5f670de0b6b3a7640000836104f09190610aec565b90505f6064600254856105039190610aec565b61050d9190610cae565b90505f818561051c9190610ba5565b90508260015f3373ffffffffffffffffffffffffffffffffffffffff1673ffffffffffffffffffffffffffffffffffffffff1681526020019081526020015f2054101561059e576040517f08c379a000000000000000000000000000000000000000000000000000000000815260040161059590610b87565b60405180910390fd5b670de0b6b3a7640000826105b29190610aec565b60015f3373ffffffffffffffffffffffffffffffffffffffff1673ffffffffffffffffffffffffffffffffffffffff1681526020019081526020015f205f8282546105fd9190610ba5565b9250508190555061060d816102d0565b5f670de0b6b3a7640000836106229190610aec565b90505f5f5f9054906101000a900473ffffffffffffffffffffffffffffffffffffffff1673ffffffffffffffffffffffffffffffffffffffff168260405161066990610c05565b5f6040518083038185875af1925050503d805f81146106a3576040519150601f19603f3d011682016040523d82523d5f602084013e6106a8565b606091505b50509050806106ec576040517f08c379a00000000000000000000000000000000000000000000000000000000081526004016106e390610d28565b60405180910390fd5b7fc0819c13be868895eb93e40eaceb96de976442fa1d404e5c55f14bb65a8c489a338360405161071d929190610d46565b60405180910390a150505050505b5050565b6001602052805f5260405f205f915090505481565b5f5f9054906101000a900473ffffffffffffffffffffffffffffffffffffffff1681565b5f5f9054906101000a900473ffffffffffffffffffffffffffffffffffffffff1673ffffffffffffffffffffffffffffffffffffffff163373ffffffffffffffffffffffffffffffffffffffff16146107f6576040517f08c379a00000000000000000000000000000000000000000000000000000000081526004016107ed90610db7565b60405180910390fd5b806002819055507f528d9479e9f9889a87a3c30c7f7ba537e5e59c4c85a37733b16e57c62df61302814260405161082e929190610dd5565b60405180910390a150565b60025481565b3460015f3373ffffffffffffffffffffffffffffffffffffffff1673ffffffffffffffffffffffffffffffffffffffff1681526020019081526020015f205f82825461088b9190610918565b925050819055503373ffffffffffffffffffffffffffffffffffffffff167fe1fffcc4923d04b559f4d29a8bfc6cda04eb5b0d3c460751c2402c5c5cc9109c346040516108d8919061095a565b60405180910390a2565b5f819050919050565b7f4e487b71000000000000000000000000000000000000000000000000000000005f52601160045260245ffd5b5f610922826108e2565b915061092d836108e2565b9250828201905080821115610945576109446108eb565b5b92915050565b610954816108e2565b82525050565b5f60208201905061096d5f83018461094b565b92915050565b5f5ffd5b610980816108e2565b811461098a575f5ffd5b50565b5f8135905061099b81610977565b92915050565b5f602082840312156109b6576109b5610973565b5b5f6109c38482850161098d565b91505092915050565b5f8115159050919050565b6109e0816109cc565b81146109ea575f5ffd5b50565b5f813590506109fb816109d7565b92915050565b5f5f60408385031215610a1757610a16610973565b5b5f610a248582860161098d565b9250506020610a35858286016109ed565b9150509250929050565b5f73ffffffffffffffffffffffffffffffffffffffff82169050919050565b5f610a6882610a3f565b9050919050565b610a7881610a5e565b8114610a82575f5ffd5b50565b5f81359050610a9381610a6f565b92915050565b5f60208284031215610aae57610aad610973565b5b5f610abb84828501610a85565b91505092915050565b610acd81610a5e565b82525050565b5f602082019050610ae65f830184610ac4565b92915050565b5f610af6826108e2565b9150610b01836108e2565b9250828202610b0f816108e2565b91508282048414831517610b2657610b256108eb565b5b5092915050565b5f82825260208201905092915050565b7f496e73756666696369656e742066756e647300000000000000000000000000005f82015250565b5f610b71601283610b2d565b9150610b7c82610b3d565b602082019050919050565b5f6020820190508181035f830152610b9e81610b65565b9050919050565b5f610baf826108e2565b9150610bba836108e2565b9250828203905081811115610bd257610bd16108eb565b5b92915050565b5f81905092915050565b50565b5f610bf05f83610bd8565b9150610bfb82610be2565b5f82019050919050565b5f610c0f82610be5565b9150819050919050565b7f5769746864726177616c206661696c65640000000000000000000000000000005f82015250565b5f610c4d601183610b2d565b9150610c5882610c19565b602082019050919050565b5f6020820190508181035f830152610c7a81610c41565b9050919050565b7f4e487b71000000000000000000000000000000000000000000000000000000005f52601260045260245ffd5b5f610cb8826108e2565b9150610cc3836108e2565b925082610cd357610cd2610c81565b5b828204905092915050565b7f46656573205769746864726177616c206661696c6564000000000000000000005f82015250565b5f610d12601683610b2d565b9150610d1d82610cde565b602082019050919050565b5f6020820190508181035f830152610d3f81610d06565b9050919050565b5f604082019050610d595f830185610ac4565b610d66602083018461094b565b9392505050565b7f4e6f74204f776e657200000000000000000000000000000000000000000000005f82015250565b5f610da1600983610b2d565b9150610dac82610d6d565b602082019050919050565b5f6020820190508181035f830152610dce81610d95565b9050919050565b5f604082019050610de85f83018561094b565b610df5602083018461094b565b939250505056fea264697066735822122093a138d7f14aef5f0b454a16265ad27f3605023551eea8f3ce1f960b4dcee26a64736f6c634300081e0033",
					"opcodes": "PUSH1 0x80 PUSH1 0x40 MSTORE PUSH1 0xA PUSH1 0x2 SSTORE CALLVALUE DUP1 ISZERO PUSH1 0x13 JUMPI PUSH0 PUSH0 REVERT JUMPDEST POP CALLER PUSH0 PUSH0 PUSH2 0x100 EXP DUP2 SLOAD DUP2 PUSH20 0xFFFFFFFFFFFFFFFFFFFFFFFFFFFFFFFFFFFFFFFF MUL NOT AND SWAP1 DUP4 PUSH20 0xFFFFFFFFFFFFFFFFFFFFFFFFFFFFFFFFFFFFFFFF AND MUL OR SWAP1 SSTORE POP PUSH2 0xE32 DUP1 PUSH2 0x60 PUSH0 CODECOPY PUSH0 RETURN INVALID PUSH1 0x80 PUSH1 0x40 MSTORE PUSH1 0x4 CALLDATASIZE LT PUSH2 0x73 JUMPI PUSH0 CALLDATALOAD PUSH1 0xE0 SHR DUP1 PUSH4 0x8DA5CB5B GT PUSH2 0x4D JUMPI DUP1 PUSH4 0x8DA5CB5B EQ PUSH2 0x24A JUMPI DUP1 PUSH4 0x9012C4A8 EQ PUSH2 0x274 JUMPI DUP1 PUSH4 0xA001ECDD EQ PUSH2 0x29C JUMPI DUP1 PUSH4 0xD0E30DB0 EQ PUSH2 0x2C6 JUMPI PUSH2 0x11B JUMP JUMPDEST DUP1 PUSH4 0x2E1A7D4D EQ PUSH2 0x1BE JUMPI DUP1 PUSH4 0x38D07436 EQ PUSH2 0x1E6 JUMPI DUP1 PUSH4 0x70A08231 EQ PUSH2 0x20E JUMPI PUSH2 0x11B JUMP JUMPDEST CALLDATASIZE PUSH2 0x11B JUMPI CALLVALUE PUSH1 0x1 PUSH0 CALLER PUSH20 0xFFFFFFFFFFFFFFFFFFFFFFFFFFFFFFFFFFFFFFFF AND PUSH20 0xFFFFFFFFFFFFFFFFFFFFFFFFFFFFFFFFFFFFFFFF AND DUP2 MSTORE PUSH1 0x20 ADD SWAP1 DUP2 MSTORE PUSH1 0x20 ADD PUSH0 KECCAK256 PUSH0 DUP3 DUP3 SLOAD PUSH2 0xC4 SWAP2 SWAP1 PUSH2 0x918 JUMP JUMPDEST SWAP3 POP POP DUP2 SWAP1 SSTORE POP CALLER PUSH20 0xFFFFFFFFFFFFFFFFFFFFFFFFFFFFFFFFFFFFFFFF AND PUSH32 0xD6717F327E0CB88B4A97A7F67A453E9258252C34937CCBDD86DE7CB840E7DEF3 CALLVALUE PUSH1 0x40 MLOAD PUSH2 0x111 SWAP2 SWAP1 PUSH2 0x95A JUMP JUMPDEST PUSH1 0x40 MLOAD DUP1 SWAP2 SUB SWAP1 LOG2 STOP JUMPDEST CALLVALUE PUSH1 0x1 PUSH0 CALLER PUSH20 0xFFFFFFFFFFFFFFFFFFFFFFFFFFFFFFFFFFFFFFFF AND PUSH20 0xFFFFFFFFFFFFFFFFFFFFFFFFFFFFFFFFFFFFFFFF AND DUP2 MSTORE PUSH1 0x20 ADD SWAP1 DUP2 MSTORE PUSH1 0x20 ADD PUSH0 KECCAK256 PUSH0 DUP3 DUP3 SLOAD PUSH2 0x167 SWAP2 SWAP1 PUSH2 0x918 JUMP JUMPDEST SWAP3 POP POP DUP2 SWAP1 SSTORE POP CALLER PUSH20 0xFFFFFFFFFFFFFFFFFFFFFFFFFFFFFFFFFFFFFFFF AND PUSH32 0xFBF15A1BAE5E021D024841007B692B167AFD2A281A4FF0B44F47387EB388205C CALLVALUE PUSH1 0x40 MLOAD PUSH2 0x1B4 SWAP2 SWAP1 PUSH2 0x95A JUMP JUMPDEST PUSH1 0x40 MLOAD DUP1 SWAP2 SUB SWAP1 LOG2 STOP JUMPDEST CALLVALUE DUP1 ISZERO PUSH2 0x1C9 JUMPI PUSH0 PUSH0 REVERT JUMPDEST POP PUSH2 0x1E4 PUSH1 0x4 DUP1 CALLDATASIZE SUB DUP2 ADD SWAP1 PUSH2 0x1DF SWAP2 SWAP1 PUSH2 0x9A1 JUMP JUMPDEST PUSH2 0x2D0 JUMP JUMPDEST STOP JUMPDEST CALLVALUE DUP1 ISZERO PUSH2 0x1F1 JUMPI PUSH0 PUSH0 REVERT JUMPDEST POP PUSH2 0x20C PUSH1 0x4 DUP1 CALLDATASIZE SUB DUP2 ADD SWAP1 PUSH2 0x207 SWAP2 SWAP1 PUSH2 0xA01 JUMP JUMPDEST PUSH2 0x4C8 JUMP JUMPDEST STOP JUMPDEST CALLVALUE DUP1 ISZERO PUSH2 0x219 JUMPI PUSH0 PUSH0 REVERT JUMPDEST POP PUSH2 0x234 PUSH1 0x4 DUP1 CALLDATASIZE SUB DUP2 ADD SWAP1 PUSH2 0x22F SWAP2 SWAP1 PUSH2 0xA99 JUMP JUMPDEST PUSH2 0x72F JUMP JUMPDEST PUSH1 0x40 MLOAD PUSH2 0x241 SWAP2 SWAP1 PUSH2 0x95A JUMP JUMPDEST PUSH1 0x40 MLOAD DUP1 SWAP2 SUB SWAP1 RETURN JUMPDEST CALLVALUE DUP1 ISZERO PUSH2 0x255 JUMPI PUSH0 PUSH0 REVERT JUMPDEST POP PUSH2 0x25E PUSH2 0x744 JUMP JUMPDEST PUSH1 0x40 MLOAD PUSH2 0x26B SWAP2 SWAP1 PUSH2 0xAD3 JUMP JUMPDEST PUSH1 0x40 MLOAD DUP1 SWAP2 SUB SWAP1 RETURN JUMPDEST CALLVALUE DUP1 ISZERO PUSH2 0x27F JUMPI PUSH0 PUSH0 REVERT JUMPDEST POP PUSH2 0x29A PUSH1 0x4 DUP1 CALLDATASIZE SUB DUP2 ADD SWAP1 PUSH2 0x295 SWAP2 SWAP1 PUSH2 0x9A1 JUMP JUMPDEST PUSH2 0x768 JUMP JUMPDEST STOP JUMPDEST CALLVALUE DUP1 ISZERO PUSH2 0x2A7 JUMPI PUSH0 PUSH0 REVERT JUMPDEST POP PUSH2 0x2B0 PUSH2 0x839 JUMP JUMPDEST PUSH1 0x40 MLOAD PUSH2 0x2BD SWAP2 SWAP1 PUSH2 0x95A JUMP JUMPDEST PUSH1 0x40 MLOAD DUP1 SWAP2 SUB SWAP1 RETURN JUMPDEST PUSH2 0x2CE PUSH2 0x83F JUMP JUMPDEST STOP JUMPDEST PUSH0 PUSH8 0xDE0B6B3A7640000 DUP3 PUSH2 0x2E5 SWAP2 SWAP1 PUSH2 0xAEC JUMP JUMPDEST SWAP1 POP PUSH1 0x1 PUSH0 CALLER PUSH20 0xFFFFFFFFFFFFFFFFFFFFFFFFFFFFFFFFFFFFFFFF AND PUSH20 0xFFFFFFFFFFFFFFFFFFFFFFFFFFFFFFFFFFFFFFFF AND DUP2 MSTORE PUSH1 0x20 ADD SWAP1 DUP2 MSTORE PUSH1 0x20 ADD PUSH0 KECCAK256 SLOAD DUP2 GT ISZERO PUSH2 0x367 JUMPI PUSH1 0x40 MLOAD PUSH32 0x8C379A000000000000000000000000000000000000000000000000000000000 DUP2 MSTORE PUSH1 0x4 ADD PUSH2 0x35E SWAP1 PUSH2 0xB87 JUMP JUMPDEST PUSH1 0x40 MLOAD DUP1 SWAP2 SUB SWAP1 REVERT JUMPDEST PUSH8 0xDE0B6B3A7640000 DUP3 PUSH2 0x37B SWAP2 SWAP1 PUSH2 0xAEC JUMP JUMPDEST PUSH1 0x1 PUSH0 CALLER PUSH20 0xFFFFFFFFFFFFFFFFFFFFFFFFFFFFFFFFFFFFFFFF AND PUSH20 0xFFFFFFFFFFFFFFFFFFFFFFFFFFFFFFFFFFFFFFFF AND DUP2 MSTORE PUSH1 0x20 ADD SWAP1 DUP2 MSTORE PUSH1 0x20 ADD PUSH0 KECCAK256 PUSH0 DUP3 DUP3 SLOAD PUSH2 0x3C6 SWAP2 SWAP1 PUSH2 0xBA5 JUMP JUMPDEST SWAP3 POP POP DUP2 SWAP1 SSTORE POP PUSH0 CALLER PUSH20 0xFFFFFFFFFFFFFFFFFFFFFFFFFFFFFFFFFFFFFFFF AND DUP3 PUSH1 0x40 MLOAD PUSH2 0x3F2 SWAP1 PUSH2 0xC05 JUMP JUMPDEST PUSH0 PUSH1 0x40 MLOAD DUP1 DUP4 SUB DUP2 DUP6 DUP8 GAS CALL SWAP3 POP POP POP RETURNDATASIZE DUP1 PUSH0 DUP2 EQ PUSH2 0x42C JUMPI PUSH1 0x40 MLOAD SWAP2 POP PUSH1 0x1F NOT PUSH1 0x3F RETURNDATASIZE ADD AND DUP3 ADD PUSH1 0x40 MSTORE RETURNDATASIZE DUP3 MSTORE RETURNDATASIZE PUSH0 PUSH1 0x20 DUP5 ADD RETURNDATACOPY PUSH2 0x431 JUMP JUMPDEST PUSH1 0x60 SWAP2 POP JUMPDEST POP POP SWAP1 POP DUP1 PUSH2 0x475 JUMPI PUSH1 0x40 MLOAD PUSH32 0x8C379A000000000000000000000000000000000000000000000000000000000 DUP2 MSTORE PUSH1 0x4 ADD PUSH2 0x46C SWAP1 PUSH2 0xC63 JUMP JUMPDEST PUSH1 0x40 MLOAD DUP1 SWAP2 SUB SWAP1 REVERT JUMPDEST CALLER PUSH20 0xFFFFFFFFFFFFFFFFFFFFFFFFFFFFFFFFFFFFFFFF AND PUSH32 0x884EDAD9CE6FA2440D8A54CC123490EB96D2768479D49FF9C7366125A9424364 DUP4 PUSH1 0x40 MLOAD PUSH2 0x4BB SWAP2 SWAP1 PUSH2 0x95A JUMP JUMPDEST PUSH1 0x40 MLOAD DUP1 SWAP2 SUB SWAP1 LOG2 POP POP POP JUMP JUMPDEST DUP1 PUSH2 0x4DB JUMPI PUSH2 0x4D6 DUP3 PUSH2 0x2D0 JUMP JUMPDEST PUSH2 0x72B JUMP JUMPDEST PUSH0 PUSH8 0xDE0B6B3A7640000 DUP4 PUSH2 0x4F0 SWAP2 SWAP1 PUSH2 0xAEC JUMP JUMPDEST SWAP1 POP PUSH0 PUSH1 0x64 PUSH1 0x2 SLOAD DUP6 PUSH2 0x503 SWAP2 SWAP1 PUSH2 0xAEC JUMP JUMPDEST PUSH2 0x50D SWAP2 SWAP1 PUSH2 0xCAE JUMP JUMPDEST SWAP1 POP PUSH0 DUP2 DUP6 PUSH2 0x51C SWAP2 SWAP1 PUSH2 0xBA5 JUMP JUMPDEST SWAP1 POP DUP3 PUSH1 0x1 PUSH0 CALLER PUSH20 0xFFFFFFFFFFFFFFFFFFFFFFFFFFFFFFFFFFFFFFFF AND PUSH20 0xFFFFFFFFFFFFFFFFFFFFFFFFFFFFFFFFFFFFFFFF AND DUP2 MSTORE PUSH1 0x20 ADD SWAP1 DUP2 MSTORE PUSH1 0x20 ADD PUSH0 KECCAK256 SLOAD LT ISZERO PUSH2 0x59E JUMPI PUSH1 0x40 MLOAD PUSH32 0x8C379A000000000000000000000000000000000000000000000000000000000 DUP2 MSTORE PUSH1 0x4 ADD PUSH2 0x595 SWAP1 PUSH2 0xB87 JUMP JUMPDEST PUSH1 0x40 MLOAD DUP1 SWAP2 SUB SWAP1 REVERT JUMPDEST PUSH8 0xDE0B6B3A7640000 DUP3 PUSH2 0x5B2 SWAP2 SWAP1 PUSH2 0xAEC JUMP JUMPDEST PUSH1 0x1 PUSH0 CALLER PUSH20 0xFFFFFFFFFFFFFFFFFFFFFFFFFFFFFFFFFFFFFFFF AND PUSH20 0xFFFFFFFFFFFFFFFFFFFFFFFFFFFFFFFFFFFFFFFF AND DUP2 MSTORE PUSH1 0x20 ADD SWAP1 DUP2 MSTORE PUSH1 0x20 ADD PUSH0 KECCAK256 PUSH0 DUP3 DUP3 SLOAD PUSH2 0x5FD SWAP2 SWAP1 PUSH2 0xBA5 JUMP JUMPDEST SWAP3 POP POP DUP2 SWAP1 SSTORE POP PUSH2 0x60D DUP2 PUSH2 0x2D0 JUMP JUMPDEST PUSH0 PUSH8 0xDE0B6B3A7640000 DUP4 PUSH2 0x622 SWAP2 SWAP1 PUSH2 0xAEC JUMP JUMPDEST SWAP1 POP PUSH0 PUSH0 PUSH0 SWAP1 SLOAD SWAP1 PUSH2 0x100 EXP SWAP1 DIV PUSH20 0xFFFFFFFFFFFFFFFFFFFFFFFFFFFFFFFFFFFFFFFF AND PUSH20 0xFFFFFFFFFFFFFFFFFFFFFFFFFFFFFFFFFFFFFFFF AND DUP3 PUSH1 0x40 MLOAD PUSH2 0x669 SWAP1 PUSH2 0xC05 JUMP JUMPDEST PUSH0 PUSH1 0x40 MLOAD DUP1 DUP4 SUB DUP2 DUP6 DUP8 GAS CALL SWAP3 POP POP POP RETURNDATASIZE DUP1 PUSH0 DUP2 EQ PUSH2 0x6A3 JUMPI PUSH1 0x40 MLOAD SWAP2 POP PUSH1 0x1F NOT PUSH1 0x3F RETURNDATASIZE ADD AND DUP3 ADD PUSH1 0x40 MSTORE RETURNDATASIZE DUP3 MSTORE RETURNDATASIZE PUSH0 PUSH1 0x20 DUP5 ADD RETURNDATACOPY PUSH2 0x6A8 JUMP JUMPDEST PUSH1 0x60 SWAP2 POP JUMPDEST POP POP SWAP1 POP DUP1 PUSH2 0x6EC JUMPI PUSH1 0x40 MLOAD PUSH32 0x8C379A000000000000000000000000000000000000000000000000000000000 DUP2 MSTORE PUSH1 0x4 ADD PUSH2 0x6E3 SWAP1 PUSH2 0xD28 JUMP JUMPDEST PUSH1 0x40 MLOAD DUP1 SWAP2 SUB SWAP1 REVERT JUMPDEST PUSH32 0xC0819C13BE868895EB93E40EACEB96DE976442FA1D404E5C55F14BB65A8C489A CALLER DUP4 PUSH1 0x40 MLOAD PUSH2 0x71D SWAP3 SWAP2 SWAP1 PUSH2 0xD46 JUMP JUMPDEST PUSH1 0x40 MLOAD DUP1 SWAP2 SUB SWAP1 LOG1 POP POP POP POP POP JUMPDEST POP POP JUMP JUMPDEST PUSH1 0x1 PUSH1 0x20 MSTORE DUP1 PUSH0 MSTORE PUSH1 0x40 PUSH0 KECCAK256 PUSH0 SWAP2 POP SWAP1 POP SLOAD DUP2 JUMP JUMPDEST PUSH0 PUSH0 SWAP1 SLOAD SWAP1 PUSH2 0x100 EXP SWAP1 DIV PUSH20 0xFFFFFFFFFFFFFFFFFFFFFFFFFFFFFFFFFFFFFFFF AND DUP2 JUMP JUMPDEST PUSH0 PUSH0 SWAP1 SLOAD SWAP1 PUSH2 0x100 EXP SWAP1 DIV PUSH20 0xFFFFFFFFFFFFFFFFFFFFFFFFFFFFFFFFFFFFFFFF AND PUSH20 0xFFFFFFFFFFFFFFFFFFFFFFFFFFFFFFFFFFFFFFFF AND CALLER PUSH20 0xFFFFFFFFFFFFFFFFFFFFFFFFFFFFFFFFFFFFFFFF AND EQ PUSH2 0x7F6 JUMPI PUSH1 0x40 MLOAD PUSH32 0x8C379A000000000000000000000000000000000000000000000000000000000 DUP2 MSTORE PUSH1 0x4 ADD PUSH2 0x7ED SWAP1 PUSH2 0xDB7 JUMP JUMPDEST PUSH1 0x40 MLOAD DUP1 SWAP2 SUB SWAP1 REVERT JUMPDEST DUP1 PUSH1 0x2 DUP2 SWAP1 SSTORE POP PUSH32 0x528D9479E9F9889A87A3C30C7F7BA537E5E59C4C85A37733B16E57C62DF61302 DUP2 TIMESTAMP PUSH1 0x40 MLOAD PUSH2 0x82E SWAP3 SWAP2 SWAP1 PUSH2 0xDD5 JUMP JUMPDEST PUSH1 0x40 MLOAD DUP1 SWAP2 SUB SWAP1 LOG1 POP JUMP JUMPDEST PUSH1 0x2 SLOAD DUP2 JUMP JUMPDEST CALLVALUE PUSH1 0x1 PUSH0 CALLER PUSH20 0xFFFFFFFFFFFFFFFFFFFFFFFFFFFFFFFFFFFFFFFF AND PUSH20 0xFFFFFFFFFFFFFFFFFFFFFFFFFFFFFFFFFFFFFFFF AND DUP2 MSTORE PUSH1 0x20 ADD SWAP1 DUP2 MSTORE PUSH1 0x20 ADD PUSH0 KECCAK256 PUSH0 DUP3 DUP3 SLOAD PUSH2 0x88B SWAP2 SWAP1 PUSH2 0x918 JUMP JUMPDEST SWAP3 POP POP DUP2 SWAP1 SSTORE POP CALLER PUSH20 0xFFFFFFFFFFFFFFFFFFFFFFFFFFFFFFFFFFFFFFFF AND PUSH32 0xE1FFFCC4923D04B559F4D29A8BFC6CDA04EB5B0D3C460751C2402C5C5CC9109C CALLVALUE PUSH1 0x40 MLOAD PUSH2 0x8D8 SWAP2 SWAP1 PUSH2 0x95A JUMP JUMPDEST PUSH1 0x40 MLOAD DUP1 SWAP2 SUB SWAP1 LOG2 JUMP JUMPDEST PUSH0 DUP2 SWAP1 POP SWAP2 SWAP1 POP JUMP JUMPDEST PUSH32 0x4E487B7100000000000000000000000000000000000000000000000000000000 PUSH0 MSTORE PUSH1 0x11 PUSH1 0x4 MSTORE PUSH1 0x24 PUSH0 REVERT JUMPDEST PUSH0 PUSH2 0x922 DUP3 PUSH2 0x8E2 JUMP JUMPDEST SWAP2 POP PUSH2 0x92D DUP4 PUSH2 0x8E2 JUMP JUMPDEST SWAP3 POP DUP3 DUP3 ADD SWAP1 POP DUP1 DUP3 GT ISZERO PUSH2 0x945 JUMPI PUSH2 0x944 PUSH2 0x8EB JUMP JUMPDEST JUMPDEST SWAP3 SWAP2 POP POP JUMP JUMPDEST PUSH2 0x954 DUP2 PUSH2 0x8E2 JUMP JUMPDEST DUP3 MSTORE POP POP JUMP JUMPDEST PUSH0 PUSH1 0x20 DUP3 ADD SWAP1 POP PUSH2 0x96D PUSH0 DUP4 ADD DUP5 PUSH2 0x94B JUMP JUMPDEST SWAP3 SWAP2 POP POP JUMP JUMPDEST PUSH0 PUSH0 REVERT JUMPDEST PUSH2 0x980 DUP2 PUSH2 0x8E2 JUMP JUMPDEST DUP2 EQ PUSH2 0x98A JUMPI PUSH0 PUSH0 REVERT JUMPDEST POP JUMP JUMPDEST PUSH0 DUP2 CALLDATALOAD SWAP1 POP PUSH2 0x99B DUP2 PUSH2 0x977 JUMP JUMPDEST SWAP3 SWAP2 POP POP JUMP JUMPDEST PUSH0 PUSH1 0x20 DUP3 DUP5 SUB SLT ISZERO PUSH2 0x9B6 JUMPI PUSH2 0x9B5 PUSH2 0x973 JUMP JUMPDEST JUMPDEST PUSH0 PUSH2 0x9C3 DUP5 DUP3 DUP6 ADD PUSH2 0x98D JUMP JUMPDEST SWAP2 POP POP SWAP3 SWAP2 POP POP JUMP JUMPDEST PUSH0 DUP2 ISZERO ISZERO SWAP1 POP SWAP2 SWAP1 POP JUMP JUMPDEST PUSH2 0x9E0 DUP2 PUSH2 0x9CC JUMP JUMPDEST DUP2 EQ PUSH2 0x9EA JUMPI PUSH0 PUSH0 REVERT JUMPDEST POP JUMP JUMPDEST PUSH0 DUP2 CALLDATALOAD SWAP1 POP PUSH2 0x9FB DUP2 PUSH2 0x9D7 JUMP JUMPDEST SWAP3 SWAP2 POP POP JUMP JUMPDEST PUSH0 PUSH0 PUSH1 0x40 DUP4 DUP6 SUB SLT ISZERO PUSH2 0xA17 JUMPI PUSH2 0xA16 PUSH2 0x973 JUMP JUMPDEST JUMPDEST PUSH0 PUSH2 0xA24 DUP6 DUP3 DUP7 ADD PUSH2 0x98D JUMP JUMPDEST SWAP3 POP POP PUSH1 0x20 PUSH2 0xA35 DUP6 DUP3 DUP7 ADD PUSH2 0x9ED JUMP JUMPDEST SWAP2 POP POP SWAP3 POP SWAP3 SWAP1 POP JUMP JUMPDEST PUSH0 PUSH20 0xFFFFFFFFFFFFFFFFFFFFFFFFFFFFFFFFFFFFFFFF DUP3 AND SWAP1 POP SWAP2 SWAP1 POP JUMP JUMPDEST PUSH0 PUSH2 0xA68 DUP3 PUSH2 0xA3F JUMP JUMPDEST SWAP1 POP SWAP2 SWAP1 POP JUMP JUMPDEST PUSH2 0xA78 DUP2 PUSH2 0xA5E JUMP JUMPDEST DUP2 EQ PUSH2 0xA82 JUMPI PUSH0 PUSH0 REVERT JUMPDEST POP JUMP JUMPDEST PUSH0 DUP2 CALLDATALOAD SWAP1 POP PUSH2 0xA93 DUP2 PUSH2 0xA6F JUMP JUMPDEST SWAP3 SWAP2 POP POP JUMP JUMPDEST PUSH0 PUSH1 0x20 DUP3 DUP5 SUB SLT ISZERO PUSH2 0xAAE JUMPI PUSH2 0xAAD PUSH2 0x973 JUMP JUMPDEST JUMPDEST PUSH0 PUSH2 0xABB DUP5 DUP3 DUP6 ADD PUSH2 0xA85 JUMP JUMPDEST SWAP2 POP POP SWAP3 SWAP2 POP POP JUMP JUMPDEST PUSH2 0xACD DUP2 PUSH2 0xA5E JUMP JUMPDEST DUP3 MSTORE POP POP JUMP JUMPDEST PUSH0 PUSH1 0x20 DUP3 ADD SWAP1 POP PUSH2 0xAE6 PUSH0 DUP4 ADD DUP5 PUSH2 0xAC4 JUMP JUMPDEST SWAP3 SWAP2 POP POP JUMP JUMPDEST PUSH0 PUSH2 0xAF6 DUP3 PUSH2 0x8E2 JUMP JUMPDEST SWAP2 POP PUSH2 0xB01 DUP4 PUSH2 0x8E2 JUMP JUMPDEST SWAP3 POP DUP3 DUP3 MUL PUSH2 0xB0F DUP2 PUSH2 0x8E2 JUMP JUMPDEST SWAP2 POP DUP3 DUP3 DIV DUP5 EQ DUP4 ISZERO OR PUSH2 0xB26 JUMPI PUSH2 0xB25 PUSH2 0x8EB JUMP JUMPDEST JUMPDEST POP SWAP3 SWAP2 POP POP JUMP JUMPDEST PUSH0 DUP3 DUP3 MSTORE PUSH1 0x20 DUP3 ADD SWAP1 POP SWAP3 SWAP2 POP POP JUMP JUMPDEST PUSH32 0x496E73756666696369656E742066756E64730000000000000000000000000000 PUSH0 DUP3 ADD MSTORE POP JUMP JUMPDEST PUSH0 PUSH2 0xB71 PUSH1 0x12 DUP4 PUSH2 0xB2D JUMP JUMPDEST SWAP2 POP PUSH2 0xB7C DUP3 PUSH2 0xB3D JUMP JUMPDEST PUSH1 0x20 DUP3 ADD SWAP1 POP SWAP2 SWAP1 POP JUMP JUMPDEST PUSH0 PUSH1 0x20 DUP3 ADD SWAP1 POP DUP2 DUP2 SUB PUSH0 DUP4 ADD MSTORE PUSH2 0xB9E DUP2 PUSH2 0xB65 JUMP JUMPDEST SWAP1 POP SWAP2 SWAP1 POP JUMP JUMPDEST PUSH0 PUSH2 0xBAF DUP3 PUSH2 0x8E2 JUMP JUMPDEST SWAP2 POP PUSH2 0xBBA DUP4 PUSH2 0x8E2 JUMP JUMPDEST SWAP3 POP DUP3 DUP3 SUB SWAP1 POP DUP2 DUP2 GT ISZERO PUSH2 0xBD2 JUMPI PUSH2 0xBD1 PUSH2 0x8EB JUMP JUMPDEST JUMPDEST SWAP3 SWAP2 POP POP JUMP JUMPDEST PUSH0 DUP2 SWAP1 POP SWAP3 SWAP2 POP POP JUMP JUMPDEST POP JUMP JUMPDEST PUSH0 PUSH2 0xBF0 PUSH0 DUP4 PUSH2 0xBD8 JUMP JUMPDEST SWAP2 POP PUSH2 0xBFB DUP3 PUSH2 0xBE2 JUMP JUMPDEST PUSH0 DUP3 ADD SWAP1 POP SWAP2 SWAP1 POP JUMP JUMPDEST PUSH0 PUSH2 0xC0F DUP3 PUSH2 0xBE5 JUMP JUMPDEST SWAP2 POP DUP2 SWAP1 POP SWAP2 SWAP1 POP JUMP JUMPDEST PUSH32 0x5769746864726177616C206661696C6564000000000000000000000000000000 PUSH0 DUP3 ADD MSTORE POP JUMP JUMPDEST PUSH0 PUSH2 0xC4D PUSH1 0x11 DUP4 PUSH2 0xB2D JUMP JUMPDEST SWAP2 POP PUSH2 0xC58 DUP3 PUSH2 0xC19 JUMP JUMPDEST PUSH1 0x20 DUP3 ADD SWAP1 POP SWAP2 SWAP1 POP JUMP JUMPDEST PUSH0 PUSH1 0x20 DUP3 ADD SWAP1 POP DUP2 DUP2 SUB PUSH0 DUP4 ADD MSTORE PUSH2 0xC7A DUP2 PUSH2 0xC41 JUMP JUMPDEST SWAP1 POP SWAP2 SWAP1 POP JUMP JUMPDEST PUSH32 0x4E487B7100000000000000000000000000000000000000000000000000000000 PUSH0 MSTORE PUSH1 0x12 PUSH1 0x4 MSTORE PUSH1 0x24 PUSH0 REVERT JUMPDEST PUSH0 PUSH2 0xCB8 DUP3 PUSH2 0x8E2 JUMP JUMPDEST SWAP2 POP PUSH2 0xCC3 DUP4 PUSH2 0x8E2 JUMP JUMPDEST SWAP3 POP DUP3 PUSH2 0xCD3 JUMPI PUSH2 0xCD2 PUSH2 0xC81 JUMP JUMPDEST JUMPDEST DUP3 DUP3 DIV SWAP1 POP SWAP3 SWAP2 POP POP JUMP JUMPDEST PUSH32 0x46656573205769746864726177616C206661696C656400000000000000000000 PUSH0 DUP3 ADD MSTORE POP JUMP JUMPDEST PUSH0 PUSH2 0xD12 PUSH1 0x16 DUP4 PUSH2 0xB2D JUMP JUMPDEST SWAP2 POP PUSH2 0xD1D DUP3 PUSH2 0xCDE JUMP JUMPDEST PUSH1 0x20 DUP3 ADD SWAP1 POP SWAP2 SWAP1 POP JUMP JUMPDEST PUSH0 PUSH1 0x20 DUP3 ADD SWAP1 POP DUP2 DUP2 SUB PUSH0 DUP4 ADD MSTORE PUSH2 0xD3F DUP2 PUSH2 0xD06 JUMP JUMPDEST SWAP1 POP SWAP2 SWAP1 POP JUMP JUMPDEST PUSH0 PUSH1 0x40 DUP3 ADD SWAP1 POP PUSH2 0xD59 PUSH0 DUP4 ADD DUP6 PUSH2 0xAC4 JUMP JUMPDEST PUSH2 0xD66 PUSH1 0x20 DUP4 ADD DUP5 PUSH2 0x94B JUMP JUMPDEST SWAP4 SWAP3 POP POP POP JUMP JUMPDEST PUSH32 0x4E6F74204F776E65720000000000000000000000000000000000000000000000 PUSH0 DUP3 ADD MSTORE POP JUMP JUMPDEST PUSH0 PUSH2 0xDA1 PUSH1 0x9 DUP4 PUSH2 0xB2D JUMP JUMPDEST SWAP2 POP PUSH2 0xDAC DUP3 PUSH2 0xD6D JUMP JUMPDEST PUSH1 0x20 DUP3 ADD SWAP1 POP SWAP2 SWAP1 POP JUMP JUMPDEST PUSH0 PUSH1 0x20 DUP3 ADD SWAP1 POP DUP2 DUP2 SUB PUSH0 DUP4 ADD MSTORE PUSH2 0xDCE DUP2 PUSH2 0xD95 JUMP JUMPDEST SWAP1 POP SWAP2 SWAP1 POP JUMP JUMPDEST PUSH0 PUSH1 0x40 DUP3 ADD SWAP1 POP PUSH2 0xDE8 PUSH0 DUP4 ADD DUP6 PUSH2 0x94B JUMP JUMPDEST PUSH2 0xDF5 PUSH1 0x20 DUP4 ADD DUP5 PUSH2 0x94B JUMP JUMPDEST SWAP4 SWAP3 POP POP POP JUMP INVALID LOG2 PUSH5 0x6970667358 0x22 SLT KECCAK256 SWAP4 LOG1 CODESIZE 0xD7 CALL BLOBBASEFEE 0xEF PUSH0 SIGNEXTEND GASLIMIT BLOBBASEFEE AND 0x26 GAS 0xD2 PUSH32 0x3605023551EEA8F3CE1F960B4DCEE26A64736F6C634300081E00330000000000 "
				},
				"gasEstimates": {
					"creation": {
						"codeDepositCost": "726800",
						"executionCost": "47128",
						"totalCost": "773928"
					},
					"external": {
						"": "infinite",
						"balanceOf(address)": "2847",
						"deposit()": "infinite",
						"feePercentage()": "2469",
						"owner()": "2507",
						"updateFee(uint256)": "infinite",
						"withdraw(uint256)": "infinite",
						"withdraw(uint256,bool)": "infinite"
					}
				},
				"methodIdentifiers": {
					"balanceOf(address)": "70a08231",
					"deposit()": "d0e30db0",
					"feePercentage()": "a001ecdd",
					"owner()": "8da5cb5b",
					"updateFee(uint256)": "9012c4a8",
					"withdraw(uint256)": "2e1a7d4d",
					"withdraw(uint256,bool)": "38d07436"
				}
			},
			"storageLayout": {
				"storage": [
					{
						"astId": 3,
						"contract": "contracts/PHASE INHERITANCE/Multi-Role Bank System.sol:FeeBank",
						"label": "owner",
						"offset": 0,
						"slot": "0",
						"type": "t_address"
					},
					{
						"astId": 5,
						"contract": "contracts/PHASE INHERITANCE/Multi-Role Bank System.sol:FeeBank",
						"label": "locked",
						"offset": 20,
						"slot": "0",
						"type": "t_bool"
					},
					{
						"astId": 9,
						"contract": "contracts/PHASE INHERITANCE/Multi-Role Bank System.sol:FeeBank",
						"label": "balanceOf",
						"offset": 0,
						"slot": "1",
						"type": "t_mapping(t_address,t_uint256)"
					},
					{
						"astId": 211,
						"contract": "contracts/PHASE INHERITANCE/Multi-Role Bank System.sol:FeeBank",
						"label": "feePercentage",
						"offset": 0,
						"slot": "2",
						"type": "t_uint256"
					}
				],
				"types": {
					"t_address": {
						"encoding": "inplace",
						"label": "address",
						"numberOfBytes": "20"
					},
					"t_bool": {
						"encoding": "inplace",
						"label": "bool",
						"numberOfBytes": "1"
					},
					"t_mapping(t_address,t_uint256)": {
						"encoding": "mapping",
						"key": "t_address",
						"label": "mapping(address => uint256)",
						"numberOfBytes": "32",
						"value": "t_uint256"
					},
					"t_uint256": {
						"encoding": "inplace",
						"label": "uint256",
						"numberOfBytes": "32"
					}
				}
			},
			"userdoc": {
				"kind": "user",
				"methods": {},
				"version": 1
			}
		}
	}
}