{
	"contracts/PHASE INHERITANCE/Payment Module.sol": {
		"RoyaltySplitterV2": {
			"abi": [
				{
					"inputs": [
						{
							"internalType": "address",
							"name": "_artist",
							"type": "address"
						},
						{
							"internalType": "address",
							"name": "_platform",
							"type": "address"
						},
						{
							"internalType": "uint256",
							"name": "_platformShare",
							"type": "uint256"
						}
					],
					"stateMutability": "nonpayable",
					"type": "constructor"
				},
				{
					"anonymous": false,
					"inputs": [
						{
							"indexed": false,
							"internalType": "address",
							"name": "sender",
							"type": "address"
						},
						{
							"indexed": false,
							"internalType": "uint256",
							"name": "value",
							"type": "uint256"
						}
					],
					"name": "Deposit",
					"type": "event"
				},
				{
					"anonymous": false,
					"inputs": [
						{
							"indexed": false,
							"internalType": "address",
							"name": "sender",
							"type": "address"
						},
						{
							"indexed": false,
							"internalType": "uint256",
							"name": "value",
							"type": "uint256"
						}
					],
					"name": "Receive",
					"type": "event"
				},
				{
					"anonymous": false,
					"inputs": [
						{
							"indexed": false,
							"internalType": "address",
							"name": "recipient",
							"type": "address"
						},
						{
							"indexed": false,
							"internalType": "uint256",
							"name": "value",
							"type": "uint256"
						}
					],
					"name": "Release",
					"type": "event"
				},
				{
					"inputs": [],
					"name": "deposit",
					"outputs": [],
					"stateMutability": "payable",
					"type": "function"
				},
				{
					"inputs": [
						{
							"internalType": "address",
							"name": "_to",
							"type": "address"
						},
						{
							"internalType": "uint256",
							"name": "_amount",
							"type": "uint256"
						}
					],
					"name": "release",
					"outputs": [],
					"stateMutability": "nonpayable",
					"type": "function"
				},
				{
					"inputs": [
						{
							"internalType": "address",
							"name": "_to",
							"type": "address"
						},
						{
							"internalType": "uint256",
							"name": "_amount",
							"type": "uint256"
						},
						{
							"internalType": "uint256",
							"name": "_artistShare",
							"type": "uint256"
						}
					],
					"name": "release",
					"outputs": [],
					"stateMutability": "nonpayable",
					"type": "function"
				},
				{
					"inputs": [
						{
							"internalType": "address",
							"name": "_artist",
							"type": "address"
						},
						{
							"internalType": "uint256",
							"name": "_share",
							"type": "uint256"
						}
					],
					"name": "setCustomRoyalty",
					"outputs": [],
					"stateMutability": "nonpayable",
					"type": "function"
				},
				{
					"stateMutability": "payable",
					"type": "receive"
				}
			],
			"devdoc": {
				"kind": "dev",
				"methods": {},
				"version": 1
			},
			"evm": {
				"assembly": "    /* \"contracts/PHASE INHERITANCE/Payment Module.sol\":1816:2425  contract RoyaltySplitterV2 is RoyaltySplitter {... */\n  mstore(0x40, 0x80)\n    /* \"contracts/PHASE INHERITANCE/Payment Module.sol\":1916:2057  constructor(address _artist, address _platform, uint _platformShare)... */\n  callvalue\n  dup1\n  iszero\n  tag_1\n  jumpi\n  revert(0x00, 0x00)\ntag_1:\n  pop\n  mload(0x40)\n  sub(codesize, bytecodeSize)\n  dup1\n  bytecodeSize\n  dup4\n  codecopy\n  dup2\n  dup2\n  add\n  0x40\n  mstore\n  dup2\n  add\n  swap1\n  tag_2\n  swap2\n  swap1\n  tag_3\n  jump\t// in\ntag_2:\n    /* \"contracts/PHASE INHERITANCE/Payment Module.sol\":2009:2016  _artist */\n  dup3\n    /* \"contracts/PHASE INHERITANCE/Payment Module.sol\":2018:2027  _platform */\n  dup3\n    /* \"contracts/PHASE INHERITANCE/Payment Module.sol\":2029:2043  _platformShare */\n  dup3\n    /* \"contracts/PHASE INHERITANCE/Payment Module.sol\":320:330  msg.sender */\n  caller\n    /* \"contracts/PHASE INHERITANCE/Payment Module.sol\":312:317  owner */\n  0x00\n  0x00\n    /* \"contracts/PHASE INHERITANCE/Payment Module.sol\":312:330  owner = msg.sender */\n  0x0100\n  exp\n  dup2\n  sload\n  dup2\n  0xffffffffffffffffffffffffffffffffffffffff\n  mul\n  not\n  and\n  swap1\n  dup4\n  0xffffffffffffffffffffffffffffffffffffffff\n  and\n  mul\n  or\n  swap1\n  sstore\n  pop\n    /* \"contracts/PHASE INHERITANCE/Payment Module.sol\":1192:1199  _artist */\n  dup3\n    /* \"contracts/PHASE INHERITANCE/Payment Module.sol\":1183:1189  artist */\n  0x01\n  0x00\n    /* \"contracts/PHASE INHERITANCE/Payment Module.sol\":1183:1199  artist = _artist */\n  0x0100\n  exp\n  dup2\n  sload\n  dup2\n  0xffffffffffffffffffffffffffffffffffffffff\n  mul\n  not\n  and\n  swap1\n  dup4\n  0xffffffffffffffffffffffffffffffffffffffff\n  and\n  mul\n  or\n  swap1\n  sstore\n  pop\n    /* \"contracts/PHASE INHERITANCE/Payment Module.sol\":1220:1229  _platform */\n  dup2\n    /* \"contracts/PHASE INHERITANCE/Payment Module.sol\":1209:1217  platform */\n  0x02\n  0x00\n    /* \"contracts/PHASE INHERITANCE/Payment Module.sol\":1209:1229  platform = _platform */\n  0x0100\n  exp\n  dup2\n  sload\n  dup2\n  0xffffffffffffffffffffffffffffffffffffffff\n  mul\n  not\n  and\n  swap1\n  dup4\n  0xffffffffffffffffffffffffffffffffffffffff\n  and\n  mul\n  or\n  swap1\n  sstore\n  pop\n    /* \"contracts/PHASE INHERITANCE/Payment Module.sol\":1255:1269  _platformShare */\n  dup1\n    /* \"contracts/PHASE INHERITANCE/Payment Module.sol\":1239:1252  platformShare */\n  0x04\n    /* \"contracts/PHASE INHERITANCE/Payment Module.sol\":1239:1269  platformShare = _platformShare */\n  dup2\n  swap1\n  sstore\n  pop\n    /* \"contracts/PHASE INHERITANCE/Payment Module.sol\":1099:1277  constructor(address _artist, address _platform, uint _platformShare) ... */\n  pop\n  pop\n  pop\n    /* \"contracts/PHASE INHERITANCE/Payment Module.sol\":1916:2057  constructor(address _artist, address _platform, uint _platformShare)... */\n  pop\n  pop\n  pop\n    /* \"contracts/PHASE INHERITANCE/Payment Module.sol\":1816:2425  contract RoyaltySplitterV2 is RoyaltySplitter {... */\n  jump(tag_10)\n    /* \"#utility.yul\":88:205   */\ntag_12:\n    /* \"#utility.yul\":197:198   */\n  0x00\n    /* \"#utility.yul\":194:195   */\n  0x00\n    /* \"#utility.yul\":187:199   */\n  revert\n    /* \"#utility.yul\":334:460   */\ntag_14:\n    /* \"#utility.yul\":371:378   */\n  0x00\n    /* \"#utility.yul\":411:453   */\n  0xffffffffffffffffffffffffffffffffffffffff\n    /* \"#utility.yul\":404:409   */\n  dup3\n    /* \"#utility.yul\":400:454   */\n  and\n    /* \"#utility.yul\":389:454   */\n  swap1\n  pop\n    /* \"#utility.yul\":334:460   */\n  swap2\n  swap1\n  pop\n  jump\t// out\n    /* \"#utility.yul\":466:562   */\ntag_15:\n    /* \"#utility.yul\":503:510   */\n  0x00\n    /* \"#utility.yul\":532:556   */\n  tag_27\n    /* \"#utility.yul\":550:555   */\n  dup3\n    /* \"#utility.yul\":532:556   */\n  tag_14\n  jump\t// in\ntag_27:\n    /* \"#utility.yul\":521:556   */\n  swap1\n  pop\n    /* \"#utility.yul\":466:562   */\n  swap2\n  swap1\n  pop\n  jump\t// out\n    /* \"#utility.yul\":568:690   */\ntag_16:\n    /* \"#utility.yul\":641:665   */\n  tag_29\n    /* \"#utility.yul\":659:664   */\n  dup2\n    /* \"#utility.yul\":641:665   */\n  tag_15\n  jump\t// in\ntag_29:\n    /* \"#utility.yul\":634:639   */\n  dup2\n    /* \"#utility.yul\":631:666   */\n  eq\n    /* \"#utility.yul\":621:684   */\n  tag_30\n  jumpi\n    /* \"#utility.yul\":680:681   */\n  0x00\n    /* \"#utility.yul\":677:678   */\n  0x00\n    /* \"#utility.yul\":670:682   */\n  revert\n    /* \"#utility.yul\":621:684   */\ntag_30:\n    /* \"#utility.yul\":568:690   */\n  pop\n  jump\t// out\n    /* \"#utility.yul\":696:839   */\ntag_17:\n    /* \"#utility.yul\":753:758   */\n  0x00\n    /* \"#utility.yul\":784:790   */\n  dup2\n    /* \"#utility.yul\":778:791   */\n  mload\n    /* \"#utility.yul\":769:791   */\n  swap1\n  pop\n    /* \"#utility.yul\":800:833   */\n  tag_32\n    /* \"#utility.yul\":827:832   */\n  dup2\n    /* \"#utility.yul\":800:833   */\n  tag_16\n  jump\t// in\ntag_32:\n    /* \"#utility.yul\":696:839   */\n  swap3\n  swap2\n  pop\n  pop\n  jump\t// out\n    /* \"#utility.yul\":845:922   */\ntag_18:\n    /* \"#utility.yul\":882:889   */\n  0x00\n    /* \"#utility.yul\":911:916   */\n  dup2\n    /* \"#utility.yul\":900:916   */\n  swap1\n  pop\n    /* \"#utility.yul\":845:922   */\n  swap2\n  swap1\n  pop\n  jump\t// out\n    /* \"#utility.yul\":928:1050   */\ntag_19:\n    /* \"#utility.yul\":1001:1025   */\n  tag_35\n    /* \"#utility.yul\":1019:1024   */\n  dup2\n    /* \"#utility.yul\":1001:1025   */\n  tag_18\n  jump\t// in\ntag_35:\n    /* \"#utility.yul\":994:999   */\n  dup2\n    /* \"#utility.yul\":991:1026   */\n  eq\n    /* \"#utility.yul\":981:1044   */\n  tag_36\n  jumpi\n    /* \"#utility.yul\":1040:1041   */\n  0x00\n    /* \"#utility.yul\":1037:1038   */\n  0x00\n    /* \"#utility.yul\":1030:1042   */\n  revert\n    /* \"#utility.yul\":981:1044   */\ntag_36:\n    /* \"#utility.yul\":928:1050   */\n  pop\n  jump\t// out\n    /* \"#utility.yul\":1056:1199   */\ntag_20:\n    /* \"#utility.yul\":1113:1118   */\n  0x00\n    /* \"#utility.yul\":1144:1150   */\n  dup2\n    /* \"#utility.yul\":1138:1151   */\n  mload\n    /* \"#utility.yul\":1129:1151   */\n  swap1\n  pop\n    /* \"#utility.yul\":1160:1193   */\n  tag_38\n    /* \"#utility.yul\":1187:1192   */\n  dup2\n    /* \"#utility.yul\":1160:1193   */\n  tag_19\n  jump\t// in\ntag_38:\n    /* \"#utility.yul\":1056:1199   */\n  swap3\n  swap2\n  pop\n  pop\n  jump\t// out\n    /* \"#utility.yul\":1205:1868   */\ntag_3:\n    /* \"#utility.yul\":1293:1299   */\n  0x00\n    /* \"#utility.yul\":1301:1307   */\n  0x00\n    /* \"#utility.yul\":1309:1315   */\n  0x00\n    /* \"#utility.yul\":1358:1360   */\n  0x60\n    /* \"#utility.yul\":1346:1355   */\n  dup5\n    /* \"#utility.yul\":1337:1344   */\n  dup7\n    /* \"#utility.yul\":1333:1356   */\n  sub\n    /* \"#utility.yul\":1329:1361   */\n  slt\n    /* \"#utility.yul\":1326:1445   */\n  iszero\n  tag_40\n  jumpi\n    /* \"#utility.yul\":1364:1443   */\n  tag_41\n  tag_12\n  jump\t// in\ntag_41:\n    /* \"#utility.yul\":1326:1445   */\ntag_40:\n    /* \"#utility.yul\":1484:1485   */\n  0x00\n    /* \"#utility.yul\":1509:1573   */\n  tag_42\n    /* \"#utility.yul\":1565:1572   */\n  dup7\n    /* \"#utility.yul\":1556:1562   */\n  dup3\n    /* \"#utility.yul\":1545:1554   */\n  dup8\n    /* \"#utility.yul\":1541:1563   */\n  add\n    /* \"#utility.yul\":1509:1573   */\n  tag_17\n  jump\t// in\ntag_42:\n    /* \"#utility.yul\":1499:1573   */\n  swap4\n  pop\n    /* \"#utility.yul\":1455:1583   */\n  pop\n    /* \"#utility.yul\":1622:1624   */\n  0x20\n    /* \"#utility.yul\":1648:1712   */\n  tag_43\n    /* \"#utility.yul\":1704:1711   */\n  dup7\n    /* \"#utility.yul\":1695:1701   */\n  dup3\n    /* \"#utility.yul\":1684:1693   */\n  dup8\n    /* \"#utility.yul\":1680:1702   */\n  add\n    /* \"#utility.yul\":1648:1712   */\n  tag_17\n  jump\t// in\ntag_43:\n    /* \"#utility.yul\":1638:1712   */\n  swap3\n  pop\n    /* \"#utility.yul\":1593:1722   */\n  pop\n    /* \"#utility.yul\":1761:1763   */\n  0x40\n    /* \"#utility.yul\":1787:1851   */\n  tag_44\n    /* \"#utility.yul\":1843:1850   */\n  dup7\n    /* \"#utility.yul\":1834:1840   */\n  dup3\n    /* \"#utility.yul\":1823:1832   */\n  dup8\n    /* \"#utility.yul\":1819:1841   */\n  add\n    /* \"#utility.yul\":1787:1851   */\n  tag_20\n  jump\t// in\ntag_44:\n    /* \"#utility.yul\":1777:1851   */\n  swap2\n  pop\n    /* \"#utility.yul\":1732:1861   */\n  pop\n    /* \"#utility.yul\":1205:1868   */\n  swap3\n  pop\n  swap3\n  pop\n  swap3\n  jump\t// out\n    /* \"contracts/PHASE INHERITANCE/Payment Module.sol\":1816:2425  contract RoyaltySplitterV2 is RoyaltySplitter {... */\ntag_10:\n  dataSize(sub_0)\n  dup1\n  dataOffset(sub_0)\n  0x00\n  codecopy\n  0x00\n  return\nstop\n\nsub_0: assembly {\n        /* \"contracts/PHASE INHERITANCE/Payment Module.sol\":1816:2425  contract RoyaltySplitterV2 is RoyaltySplitter {... */\n      mstore(0x40, 0x80)\n      jumpi(tag_1, lt(calldatasize, 0x04))\n      shr(0xe0, calldataload(0x00))\n      dup1\n      0x0357371d\n      eq\n      tag_3\n      jumpi\n      dup1\n      0x5892fad0\n      eq\n      tag_4\n      jumpi\n      dup1\n      0xd0e30db0\n      eq\n      tag_5\n      jumpi\n      dup1\n      0xf297be66\n      eq\n      tag_6\n      jumpi\n      jump(tag_2)\n    tag_1:\n      jumpi(tag_2, calldatasize)\n        /* \"contracts/PHASE INHERITANCE/Payment Module.sol\":725:755  Receive(msg.sender, msg.value) */\n      0xd6717f327e0cb88b4a97a7f67a453e9258252c34937ccbdd86de7cb840e7def3\n        /* \"contracts/PHASE INHERITANCE/Payment Module.sol\":733:743  msg.sender */\n      caller\n        /* \"contracts/PHASE INHERITANCE/Payment Module.sol\":745:754  msg.value */\n      callvalue\n        /* \"contracts/PHASE INHERITANCE/Payment Module.sol\":725:755  Receive(msg.sender, msg.value) */\n      mload(0x40)\n      tag_9\n      swap3\n      swap2\n      swap1\n      tag_10\n      jump\t// in\n    tag_9:\n      mload(0x40)\n      dup1\n      swap2\n      sub\n      swap1\n      log1\n        /* \"contracts/PHASE INHERITANCE/Payment Module.sol\":1816:2425  contract RoyaltySplitterV2 is RoyaltySplitter {... */\n      stop\n    tag_2:\n      revert(0x00, 0x00)\n        /* \"contracts/PHASE INHERITANCE/Payment Module.sol\":2194:2422  function release(address _to, uint _amount) public override onlyOwner nonreentrant{... */\n    tag_3:\n      callvalue\n      dup1\n      iszero\n      tag_11\n      jumpi\n      revert(0x00, 0x00)\n    tag_11:\n      pop\n      tag_12\n      0x04\n      dup1\n      calldatasize\n      sub\n      dup2\n      add\n      swap1\n      tag_13\n      swap2\n      swap1\n      tag_14\n      jump\t// in\n    tag_13:\n      tag_15\n      jump\t// in\n    tag_12:\n      stop\n        /* \"contracts/PHASE INHERITANCE/Payment Module.sol\":2062:2189  function setCustomRoyalty(address _artist, uint _share) external onlyOwner {... */\n    tag_4:\n      callvalue\n      dup1\n      iszero\n      tag_16\n      jumpi\n      revert(0x00, 0x00)\n    tag_16:\n      pop\n      tag_17\n      0x04\n      dup1\n      calldatasize\n      sub\n      dup2\n      add\n      swap1\n      tag_18\n      swap2\n      swap1\n      tag_14\n      jump\t// in\n    tag_18:\n      tag_19\n      jump\t// in\n    tag_17:\n      stop\n        /* \"contracts/PHASE INHERITANCE/Payment Module.sol\":592:678  function deposit() public payable {... */\n    tag_5:\n      tag_20\n      tag_21\n      jump\t// in\n    tag_20:\n      stop\n        /* \"contracts/PHASE INHERITANCE/Payment Module.sol\":1282:1812  function release(address _to, uint _amount, uint _artistShare) public virtual onlyOwner{... */\n    tag_6:\n      callvalue\n      dup1\n      iszero\n      tag_22\n      jumpi\n      revert(0x00, 0x00)\n    tag_22:\n      pop\n      tag_23\n      0x04\n      dup1\n      calldatasize\n      sub\n      dup2\n      add\n      swap1\n      tag_24\n      swap2\n      swap1\n      tag_25\n      jump\t// in\n    tag_24:\n      tag_26\n      jump\t// in\n    tag_23:\n      stop\n        /* \"contracts/PHASE INHERITANCE/Payment Module.sol\":2194:2422  function release(address _to, uint _amount) public override onlyOwner nonreentrant{... */\n    tag_15:\n        /* \"contracts/PHASE INHERITANCE/Payment Module.sol\":415:420  owner */\n      0x00\n      0x00\n      swap1\n      sload\n      swap1\n      0x0100\n      exp\n      swap1\n      div\n      0xffffffffffffffffffffffffffffffffffffffff\n      and\n        /* \"contracts/PHASE INHERITANCE/Payment Module.sol\":401:420  msg.sender == owner */\n      0xffffffffffffffffffffffffffffffffffffffff\n      and\n        /* \"contracts/PHASE INHERITANCE/Payment Module.sol\":401:411  msg.sender */\n      caller\n        /* \"contracts/PHASE INHERITANCE/Payment Module.sol\":401:420  msg.sender == owner */\n      0xffffffffffffffffffffffffffffffffffffffff\n      and\n      eq\n        /* \"contracts/PHASE INHERITANCE/Payment Module.sol\":393:434  require(msg.sender == owner, \"Not Owner\") */\n      tag_28\n      jumpi\n      mload(0x40)\n      0x08c379a000000000000000000000000000000000000000000000000000000000\n      dup2\n      mstore\n      0x04\n      add\n      tag_29\n      swap1\n      tag_30\n      jump\t// in\n    tag_29:\n      mload(0x40)\n      dup1\n      swap2\n      sub\n      swap1\n      revert\n    tag_28:\n        /* \"contracts/PHASE INHERITANCE/Payment Module.sol\":500:506  locked */\n      0x00\n      0x14\n      swap1\n      sload\n      swap1\n      0x0100\n      exp\n      swap1\n      div\n      0xff\n      and\n        /* \"contracts/PHASE INHERITANCE/Payment Module.sol\":499:506  !locked */\n      iszero\n        /* \"contracts/PHASE INHERITANCE/Payment Module.sol\":491:521  require(!locked, \"Reentrancy\") */\n      tag_32\n      jumpi\n      mload(0x40)\n      0x08c379a000000000000000000000000000000000000000000000000000000000\n      dup2\n      mstore\n      0x04\n      add\n      tag_33\n      swap1\n      tag_34\n      jump\t// in\n    tag_33:\n      mload(0x40)\n      dup1\n      swap2\n      sub\n      swap1\n      revert\n    tag_32:\n        /* \"contracts/PHASE INHERITANCE/Payment Module.sol\":540:544  true */\n      0x01\n        /* \"contracts/PHASE INHERITANCE/Payment Module.sol\":531:537  locked */\n      0x00\n      0x14\n        /* \"contracts/PHASE INHERITANCE/Payment Module.sol\":531:544  locked = true */\n      0x0100\n      exp\n      dup2\n      sload\n      dup2\n      0xff\n      mul\n      not\n      and\n      swap1\n      dup4\n      iszero\n      iszero\n      mul\n      or\n      swap1\n      sstore\n      pop\n        /* \"contracts/PHASE INHERITANCE/Payment Module.sol\":2286:2301  uint shareToUse */\n      0x00\n        /* \"contracts/PHASE INHERITANCE/Payment Module.sol\":2332:2333  0 */\n      0x00\n        /* \"contracts/PHASE INHERITANCE/Payment Module.sol\":2304:2321  customArtistShare */\n      0x05\n        /* \"contracts/PHASE INHERITANCE/Payment Module.sol\":2304:2329  customArtistShare[artist] */\n      0x00\n        /* \"contracts/PHASE INHERITANCE/Payment Module.sol\":2322:2328  artist */\n      0x01\n      0x00\n      swap1\n      sload\n      swap1\n      0x0100\n      exp\n      swap1\n      div\n      0xffffffffffffffffffffffffffffffffffffffff\n      and\n        /* \"contracts/PHASE INHERITANCE/Payment Module.sol\":2304:2329  customArtistShare[artist] */\n      0xffffffffffffffffffffffffffffffffffffffff\n      and\n      0xffffffffffffffffffffffffffffffffffffffff\n      and\n      dup2\n      mstore\n      0x20\n      add\n      swap1\n      dup2\n      mstore\n      0x20\n      add\n      0x00\n      keccak256\n      sload\n        /* \"contracts/PHASE INHERITANCE/Payment Module.sol\":2304:2333  customArtistShare[artist] > 0 */\n      gt\n        /* \"contracts/PHASE INHERITANCE/Payment Module.sol\":2304:2366  customArtistShare[artist] > 0 ? customArtistShare[artist] : 10 */\n      tag_36\n      jumpi\n        /* \"contracts/PHASE INHERITANCE/Payment Module.sol\":2364:2366  10 */\n      0x0a\n        /* \"contracts/PHASE INHERITANCE/Payment Module.sol\":2304:2366  customArtistShare[artist] > 0 ? customArtistShare[artist] : 10 */\n      jump(tag_37)\n    tag_36:\n        /* \"contracts/PHASE INHERITANCE/Payment Module.sol\":2336:2353  customArtistShare */\n      0x05\n        /* \"contracts/PHASE INHERITANCE/Payment Module.sol\":2336:2361  customArtistShare[artist] */\n      0x00\n        /* \"contracts/PHASE INHERITANCE/Payment Module.sol\":2354:2360  artist */\n      0x01\n      0x00\n      swap1\n      sload\n      swap1\n      0x0100\n      exp\n      swap1\n      div\n      0xffffffffffffffffffffffffffffffffffffffff\n      and\n        /* \"contracts/PHASE INHERITANCE/Payment Module.sol\":2336:2361  customArtistShare[artist] */\n      0xffffffffffffffffffffffffffffffffffffffff\n      and\n      0xffffffffffffffffffffffffffffffffffffffff\n      and\n      dup2\n      mstore\n      0x20\n      add\n      swap1\n      dup2\n      mstore\n      0x20\n      add\n      0x00\n      keccak256\n      sload\n        /* \"contracts/PHASE INHERITANCE/Payment Module.sol\":2304:2366  customArtistShare[artist] > 0 ? customArtistShare[artist] : 10 */\n    tag_37:\n        /* \"contracts/PHASE INHERITANCE/Payment Module.sol\":2286:2366  uint shareToUse = customArtistShare[artist] > 0 ? customArtistShare[artist] : 10 */\n      swap1\n      pop\n        /* \"contracts/PHASE INHERITANCE/Payment Module.sol\":2376:2415  super.release(_to, _amount, shareToUse) */\n      tag_38\n        /* \"contracts/PHASE INHERITANCE/Payment Module.sol\":2390:2393  _to */\n      dup4\n        /* \"contracts/PHASE INHERITANCE/Payment Module.sol\":2395:2402  _amount */\n      dup4\n        /* \"contracts/PHASE INHERITANCE/Payment Module.sol\":2404:2414  shareToUse */\n      dup4\n        /* \"contracts/PHASE INHERITANCE/Payment Module.sol\":2376:2389  super.release */\n      tag_26\n        /* \"contracts/PHASE INHERITANCE/Payment Module.sol\":2376:2415  super.release(_to, _amount, shareToUse) */\n      jump\t// in\n    tag_38:\n        /* \"contracts/PHASE INHERITANCE/Payment Module.sol\":2276:2422  {... */\n      pop\n        /* \"contracts/PHASE INHERITANCE/Payment Module.sol\":574:579  false */\n      0x00\n        /* \"contracts/PHASE INHERITANCE/Payment Module.sol\":565:571  locked */\n      0x00\n      0x14\n        /* \"contracts/PHASE INHERITANCE/Payment Module.sol\":565:579  locked = false */\n      0x0100\n      exp\n      dup2\n      sload\n      dup2\n      0xff\n      mul\n      not\n      and\n      swap1\n      dup4\n      iszero\n      iszero\n      mul\n      or\n      swap1\n      sstore\n      pop\n        /* \"contracts/PHASE INHERITANCE/Payment Module.sol\":2194:2422  function release(address _to, uint _amount) public override onlyOwner nonreentrant{... */\n      pop\n      pop\n      jump\t// out\n        /* \"contracts/PHASE INHERITANCE/Payment Module.sol\":2062:2189  function setCustomRoyalty(address _artist, uint _share) external onlyOwner {... */\n    tag_19:\n        /* \"contracts/PHASE INHERITANCE/Payment Module.sol\":415:420  owner */\n      0x00\n      0x00\n      swap1\n      sload\n      swap1\n      0x0100\n      exp\n      swap1\n      div\n      0xffffffffffffffffffffffffffffffffffffffff\n      and\n        /* \"contracts/PHASE INHERITANCE/Payment Module.sol\":401:420  msg.sender == owner */\n      0xffffffffffffffffffffffffffffffffffffffff\n      and\n        /* \"contracts/PHASE INHERITANCE/Payment Module.sol\":401:411  msg.sender */\n      caller\n        /* \"contracts/PHASE INHERITANCE/Payment Module.sol\":401:420  msg.sender == owner */\n      0xffffffffffffffffffffffffffffffffffffffff\n      and\n      eq\n        /* \"contracts/PHASE INHERITANCE/Payment Module.sol\":393:434  require(msg.sender == owner, \"Not Owner\") */\n      tag_40\n      jumpi\n      mload(0x40)\n      0x08c379a000000000000000000000000000000000000000000000000000000000\n      dup2\n      mstore\n      0x04\n      add\n      tag_41\n      swap1\n      tag_30\n      jump\t// in\n    tag_41:\n      mload(0x40)\n      dup1\n      swap2\n      sub\n      swap1\n      revert\n    tag_40:\n        /* \"contracts/PHASE INHERITANCE/Payment Module.sol\":2176:2182  _share */\n      dup1\n        /* \"contracts/PHASE INHERITANCE/Payment Module.sol\":2147:2164  customArtistShare */\n      0x05\n        /* \"contracts/PHASE INHERITANCE/Payment Module.sol\":2147:2173  customArtistShare[_artist] */\n      0x00\n        /* \"contracts/PHASE INHERITANCE/Payment Module.sol\":2165:2172  _artist */\n      dup5\n        /* \"contracts/PHASE INHERITANCE/Payment Module.sol\":2147:2173  customArtistShare[_artist] */\n      0xffffffffffffffffffffffffffffffffffffffff\n      and\n      0xffffffffffffffffffffffffffffffffffffffff\n      and\n      dup2\n      mstore\n      0x20\n      add\n      swap1\n      dup2\n      mstore\n      0x20\n      add\n      0x00\n      keccak256\n        /* \"contracts/PHASE INHERITANCE/Payment Module.sol\":2147:2182  customArtistShare[_artist] = _share */\n      dup2\n      swap1\n      sstore\n      pop\n        /* \"contracts/PHASE INHERITANCE/Payment Module.sol\":2062:2189  function setCustomRoyalty(address _artist, uint _share) external onlyOwner {... */\n      pop\n      pop\n      jump\t// out\n        /* \"contracts/PHASE INHERITANCE/Payment Module.sol\":592:678  function deposit() public payable {... */\n    tag_21:\n        /* \"contracts/PHASE INHERITANCE/Payment Module.sol\":641:671  Deposit(msg.sender, msg.value) */\n      0xe1fffcc4923d04b559f4d29a8bfc6cda04eb5b0d3c460751c2402c5c5cc9109c\n        /* \"contracts/PHASE INHERITANCE/Payment Module.sol\":649:659  msg.sender */\n      caller\n        /* \"contracts/PHASE INHERITANCE/Payment Module.sol\":661:670  msg.value */\n      callvalue\n        /* \"contracts/PHASE INHERITANCE/Payment Module.sol\":641:671  Deposit(msg.sender, msg.value) */\n      mload(0x40)\n      tag_44\n      swap3\n      swap2\n      swap1\n      tag_10\n      jump\t// in\n    tag_44:\n      mload(0x40)\n      dup1\n      swap2\n      sub\n      swap1\n      log1\n        /* \"contracts/PHASE INHERITANCE/Payment Module.sol\":592:678  function deposit() public payable {... */\n      jump\t// out\n        /* \"contracts/PHASE INHERITANCE/Payment Module.sol\":1282:1812  function release(address _to, uint _amount, uint _artistShare) public virtual onlyOwner{... */\n    tag_26:\n        /* \"contracts/PHASE INHERITANCE/Payment Module.sol\":415:420  owner */\n      0x00\n      0x00\n      swap1\n      sload\n      swap1\n      0x0100\n      exp\n      swap1\n      div\n      0xffffffffffffffffffffffffffffffffffffffff\n      and\n        /* \"contracts/PHASE INHERITANCE/Payment Module.sol\":401:420  msg.sender == owner */\n      0xffffffffffffffffffffffffffffffffffffffff\n      and\n        /* \"contracts/PHASE INHERITANCE/Payment Module.sol\":401:411  msg.sender */\n      caller\n        /* \"contracts/PHASE INHERITANCE/Payment Module.sol\":401:420  msg.sender == owner */\n      0xffffffffffffffffffffffffffffffffffffffff\n      and\n      eq\n        /* \"contracts/PHASE INHERITANCE/Payment Module.sol\":393:434  require(msg.sender == owner, \"Not Owner\") */\n      tag_46\n      jumpi\n      mload(0x40)\n      0x08c379a000000000000000000000000000000000000000000000000000000000\n      dup2\n      mstore\n      0x04\n      add\n      tag_47\n      swap1\n      tag_30\n      jump\t// in\n    tag_47:\n      mload(0x40)\n      dup1\n      swap2\n      sub\n      swap1\n      revert\n    tag_46:\n        /* \"contracts/PHASE INHERITANCE/Payment Module.sol\":1379:1390  uint amount */\n      0x00\n        /* \"contracts/PHASE INHERITANCE/Payment Module.sol\":1403:1410  1 ether */\n      0x0de0b6b3a7640000\n        /* \"contracts/PHASE INHERITANCE/Payment Module.sol\":1393:1400  _amount */\n      dup4\n        /* \"contracts/PHASE INHERITANCE/Payment Module.sol\":1393:1410  _amount * 1 ether */\n      tag_49\n      swap2\n      swap1\n      tag_50\n      jump\t// in\n    tag_49:\n        /* \"contracts/PHASE INHERITANCE/Payment Module.sol\":1379:1410  uint amount = _amount * 1 ether */\n      swap1\n      pop\n        /* \"contracts/PHASE INHERITANCE/Payment Module.sol\":1420:1434  uint artistCut */\n      0x00\n        /* \"contracts/PHASE INHERITANCE/Payment Module.sol\":1463:1466  100 */\n      0x64\n        /* \"contracts/PHASE INHERITANCE/Payment Module.sol\":1447:1459  _artistShare */\n      dup4\n        /* \"contracts/PHASE INHERITANCE/Payment Module.sol\":1438:1444  amount */\n      dup4\n        /* \"contracts/PHASE INHERITANCE/Payment Module.sol\":1438:1459  amount * _artistShare */\n      tag_51\n      swap2\n      swap1\n      tag_50\n      jump\t// in\n    tag_51:\n        /* \"contracts/PHASE INHERITANCE/Payment Module.sol\":1437:1466  (amount * _artistShare) / 100 */\n      tag_52\n      swap2\n      swap1\n      tag_53\n      jump\t// in\n    tag_52:\n        /* \"contracts/PHASE INHERITANCE/Payment Module.sol\":1420:1466  uint artistCut = (amount * _artistShare) / 100 */\n      swap1\n      pop\n        /* \"contracts/PHASE INHERITANCE/Payment Module.sol\":1476:1492  uint platformCut */\n      0x00\n        /* \"contracts/PHASE INHERITANCE/Payment Module.sol\":1522:1525  100 */\n      0x64\n        /* \"contracts/PHASE INHERITANCE/Payment Module.sol\":1505:1518  platformShare */\n      sload(0x04)\n        /* \"contracts/PHASE INHERITANCE/Payment Module.sol\":1496:1502  amount */\n      dup5\n        /* \"contracts/PHASE INHERITANCE/Payment Module.sol\":1496:1518  amount * platformShare */\n      tag_54\n      swap2\n      swap1\n      tag_50\n      jump\t// in\n    tag_54:\n        /* \"contracts/PHASE INHERITANCE/Payment Module.sol\":1495:1525  (amount * platformShare) / 100 */\n      tag_55\n      swap2\n      swap1\n      tag_53\n      jump\t// in\n    tag_55:\n        /* \"contracts/PHASE INHERITANCE/Payment Module.sol\":1476:1525  uint platformCut = (amount * platformShare) / 100 */\n      swap1\n      pop\n        /* \"contracts/PHASE INHERITANCE/Payment Module.sol\":1535:1549  uint remainder */\n      0x00\n        /* \"contracts/PHASE INHERITANCE/Payment Module.sol\":1574:1585  platformCut */\n      dup2\n        /* \"contracts/PHASE INHERITANCE/Payment Module.sol\":1562:1571  artistCut */\n      dup4\n        /* \"contracts/PHASE INHERITANCE/Payment Module.sol\":1562:1585  artistCut + platformCut */\n      tag_56\n      swap2\n      swap1\n      tag_57\n      jump\t// in\n    tag_56:\n        /* \"contracts/PHASE INHERITANCE/Payment Module.sol\":1552:1558  amount */\n      dup5\n        /* \"contracts/PHASE INHERITANCE/Payment Module.sol\":1552:1586  amount - (artistCut + platformCut) */\n      tag_58\n      swap2\n      swap1\n      tag_59\n      jump\t// in\n    tag_58:\n        /* \"contracts/PHASE INHERITANCE/Payment Module.sol\":1535:1586  uint remainder = amount - (artistCut + platformCut) */\n      swap1\n      pop\n        /* \"contracts/PHASE INHERITANCE/Payment Module.sol\":1597:1609  bool success */\n      0x00\n        /* \"contracts/PHASE INHERITANCE/Payment Module.sol\":1615:1621  artist */\n      0x01\n      0x00\n      swap1\n      sload\n      swap1\n      0x0100\n      exp\n      swap1\n      div\n      0xffffffffffffffffffffffffffffffffffffffff\n      and\n        /* \"contracts/PHASE INHERITANCE/Payment Module.sol\":1615:1626  artist.call */\n      0xffffffffffffffffffffffffffffffffffffffff\n      and\n        /* \"contracts/PHASE INHERITANCE/Payment Module.sol\":1633:1642  artistCut */\n      dup5\n        /* \"contracts/PHASE INHERITANCE/Payment Module.sol\":1615:1647  artist.call{value:artistCut}(\"\") */\n      mload(0x40)\n      tag_60\n      swap1\n      tag_61\n      jump\t// in\n    tag_60:\n      0x00\n      mload(0x40)\n      dup1\n      dup4\n      sub\n      dup2\n      dup6\n      dup8\n      gas\n      call\n      swap3\n      pop\n      pop\n      pop\n      returndatasize\n      dup1\n      0x00\n      dup2\n      eq\n      tag_64\n      jumpi\n      mload(0x40)\n      swap2\n      pop\n      and(add(returndatasize, 0x3f), not(0x1f))\n      dup3\n      add\n      0x40\n      mstore\n      returndatasize\n      dup3\n      mstore\n      returndatasize\n      0x00\n      0x20\n      dup5\n      add\n      returndatacopy\n      jump(tag_63)\n    tag_64:\n      0x60\n      swap2\n      pop\n    tag_63:\n      pop\n        /* \"contracts/PHASE INHERITANCE/Payment Module.sol\":1596:1647  (bool success, ) = artist.call{value:artistCut}(\"\") */\n      pop\n      swap1\n      pop\n        /* \"contracts/PHASE INHERITANCE/Payment Module.sol\":1665:1672  success */\n      dup1\n        /* \"contracts/PHASE INHERITANCE/Payment Module.sol\":1657:1673  require(success) */\n      tag_65\n      jumpi\n      revert(0x00, 0x00)\n    tag_65:\n        /* \"contracts/PHASE INHERITANCE/Payment Module.sol\":1684:1697  bool success2 */\n      0x00\n        /* \"contracts/PHASE INHERITANCE/Payment Module.sol\":1703:1711  platform */\n      0x02\n      0x00\n      swap1\n      sload\n      swap1\n      0x0100\n      exp\n      swap1\n      div\n      0xffffffffffffffffffffffffffffffffffffffff\n      and\n        /* \"contracts/PHASE INHERITANCE/Payment Module.sol\":1703:1716  platform.call */\n      0xffffffffffffffffffffffffffffffffffffffff\n      and\n        /* \"contracts/PHASE INHERITANCE/Payment Module.sol\":1723:1734  platformCut */\n      dup5\n        /* \"contracts/PHASE INHERITANCE/Payment Module.sol\":1703:1739  platform.call{value:platformCut}(\"\") */\n      mload(0x40)\n      tag_66\n      swap1\n      tag_61\n      jump\t// in\n    tag_66:\n      0x00\n      mload(0x40)\n      dup1\n      dup4\n      sub\n      dup2\n      dup6\n      dup8\n      gas\n      call\n      swap3\n      pop\n      pop\n      pop\n      returndatasize\n      dup1\n      0x00\n      dup2\n      eq\n      tag_69\n      jumpi\n      mload(0x40)\n      swap2\n      pop\n      and(add(returndatasize, 0x3f), not(0x1f))\n      dup3\n      add\n      0x40\n      mstore\n      returndatasize\n      dup3\n      mstore\n      returndatasize\n      0x00\n      0x20\n      dup5\n      add\n      returndatacopy\n      jump(tag_68)\n    tag_69:\n      0x60\n      swap2\n      pop\n    tag_68:\n      pop\n        /* \"contracts/PHASE INHERITANCE/Payment Module.sol\":1683:1739  (bool success2, ) = platform.call{value:platformCut}(\"\") */\n      pop\n      swap1\n      pop\n        /* \"contracts/PHASE INHERITANCE/Payment Module.sol\":1757:1765  success2 */\n      dup1\n        /* \"contracts/PHASE INHERITANCE/Payment Module.sol\":1749:1766  require(success2) */\n      tag_70\n      jumpi\n      revert(0x00, 0x00)\n    tag_70:\n        /* \"contracts/PHASE INHERITANCE/Payment Module.sol\":1776:1805  super.release(_to, remainder) */\n      tag_71\n        /* \"contracts/PHASE INHERITANCE/Payment Module.sol\":1790:1793  _to */\n      dup10\n        /* \"contracts/PHASE INHERITANCE/Payment Module.sol\":1795:1804  remainder */\n      dup5\n        /* \"contracts/PHASE INHERITANCE/Payment Module.sol\":1776:1789  super.release */\n      tag_72\n        /* \"contracts/PHASE INHERITANCE/Payment Module.sol\":1776:1805  super.release(_to, remainder) */\n      jump\t// in\n    tag_71:\n        /* \"contracts/PHASE INHERITANCE/Payment Module.sol\":1369:1812  {... */\n      pop\n      pop\n      pop\n      pop\n      pop\n      pop\n        /* \"contracts/PHASE INHERITANCE/Payment Module.sol\":1282:1812  function release(address _to, uint _amount, uint _artistShare) public virtual onlyOwner{... */\n      pop\n      pop\n      pop\n      jump\t// out\n        /* \"contracts/PHASE INHERITANCE/Payment Module.sol\":767:960  function release(address _to, uint _amount) public virtual onlyOwner{... */\n    tag_72:\n        /* \"contracts/PHASE INHERITANCE/Payment Module.sol\":415:420  owner */\n      0x00\n      0x00\n      swap1\n      sload\n      swap1\n      0x0100\n      exp\n      swap1\n      div\n      0xffffffffffffffffffffffffffffffffffffffff\n      and\n        /* \"contracts/PHASE INHERITANCE/Payment Module.sol\":401:420  msg.sender == owner */\n      0xffffffffffffffffffffffffffffffffffffffff\n      and\n        /* \"contracts/PHASE INHERITANCE/Payment Module.sol\":401:411  msg.sender */\n      caller\n        /* \"contracts/PHASE INHERITANCE/Payment Module.sol\":401:420  msg.sender == owner */\n      0xffffffffffffffffffffffffffffffffffffffff\n      and\n      eq\n        /* \"contracts/PHASE INHERITANCE/Payment Module.sol\":393:434  require(msg.sender == owner, \"Not Owner\") */\n      tag_74\n      jumpi\n      mload(0x40)\n      0x08c379a000000000000000000000000000000000000000000000000000000000\n      dup2\n      mstore\n      0x04\n      add\n      tag_75\n      swap1\n      tag_30\n      jump\t// in\n    tag_75:\n      mload(0x40)\n      dup1\n      swap2\n      sub\n      swap1\n      revert\n    tag_74:\n        /* \"contracts/PHASE INHERITANCE/Payment Module.sol\":846:858  bool success */\n      0x00\n        /* \"contracts/PHASE INHERITANCE/Payment Module.sol\":864:867  _to */\n      dup3\n        /* \"contracts/PHASE INHERITANCE/Payment Module.sol\":864:872  _to.call */\n      0xffffffffffffffffffffffffffffffffffffffff\n      and\n        /* \"contracts/PHASE INHERITANCE/Payment Module.sol\":879:886  _amount */\n      dup3\n        /* \"contracts/PHASE INHERITANCE/Payment Module.sol\":864:891  _to.call{value:_amount}(\"\") */\n      mload(0x40)\n      tag_77\n      swap1\n      tag_61\n      jump\t// in\n    tag_77:\n      0x00\n      mload(0x40)\n      dup1\n      dup4\n      sub\n      dup2\n      dup6\n      dup8\n      gas\n      call\n      swap3\n      pop\n      pop\n      pop\n      returndatasize\n      dup1\n      0x00\n      dup2\n      eq\n      tag_80\n      jumpi\n      mload(0x40)\n      swap2\n      pop\n      and(add(returndatasize, 0x3f), not(0x1f))\n      dup3\n      add\n      0x40\n      mstore\n      returndatasize\n      dup3\n      mstore\n      returndatasize\n      0x00\n      0x20\n      dup5\n      add\n      returndatacopy\n      jump(tag_79)\n    tag_80:\n      0x60\n      swap2\n      pop\n    tag_79:\n      pop\n        /* \"contracts/PHASE INHERITANCE/Payment Module.sol\":845:891  (bool success, ) = _to.call{value:_amount}(\"\") */\n      pop\n      swap1\n      pop\n        /* \"contracts/PHASE INHERITANCE/Payment Module.sol\":909:916  success */\n      dup1\n        /* \"contracts/PHASE INHERITANCE/Payment Module.sol\":901:917  require(success) */\n      tag_81\n      jumpi\n      revert(0x00, 0x00)\n    tag_81:\n        /* \"contracts/PHASE INHERITANCE/Payment Module.sol\":932:953  Release(_to, _amount) */\n      0xf6334794522b9db534a812aaae1af828a2e96aac68473b58e36d7d0bfd67477b\n        /* \"contracts/PHASE INHERITANCE/Payment Module.sol\":940:943  _to */\n      dup4\n        /* \"contracts/PHASE INHERITANCE/Payment Module.sol\":945:952  _amount */\n      dup4\n        /* \"contracts/PHASE INHERITANCE/Payment Module.sol\":932:953  Release(_to, _amount) */\n      mload(0x40)\n      tag_82\n      swap3\n      swap2\n      swap1\n      tag_10\n      jump\t// in\n    tag_82:\n      mload(0x40)\n      dup1\n      swap2\n      sub\n      swap1\n      log1\n        /* \"contracts/PHASE INHERITANCE/Payment Module.sol\":835:960  {... */\n      pop\n        /* \"contracts/PHASE INHERITANCE/Payment Module.sol\":767:960  function release(address _to, uint _amount) public virtual onlyOwner{... */\n      pop\n      pop\n      jump\t// out\n        /* \"#utility.yul\":7:133   */\n    tag_83:\n        /* \"#utility.yul\":44:51   */\n      0x00\n        /* \"#utility.yul\":84:126   */\n      0xffffffffffffffffffffffffffffffffffffffff\n        /* \"#utility.yul\":77:82   */\n      dup3\n        /* \"#utility.yul\":73:127   */\n      and\n        /* \"#utility.yul\":62:127   */\n      swap1\n      pop\n        /* \"#utility.yul\":7:133   */\n      swap2\n      swap1\n      pop\n      jump\t// out\n        /* \"#utility.yul\":139:235   */\n    tag_84:\n        /* \"#utility.yul\":176:183   */\n      0x00\n        /* \"#utility.yul\":205:229   */\n      tag_108\n        /* \"#utility.yul\":223:228   */\n      dup3\n        /* \"#utility.yul\":205:229   */\n      tag_83\n      jump\t// in\n    tag_108:\n        /* \"#utility.yul\":194:229   */\n      swap1\n      pop\n        /* \"#utility.yul\":139:235   */\n      swap2\n      swap1\n      pop\n      jump\t// out\n        /* \"#utility.yul\":241:359   */\n    tag_85:\n        /* \"#utility.yul\":328:352   */\n      tag_110\n        /* \"#utility.yul\":346:351   */\n      dup2\n        /* \"#utility.yul\":328:352   */\n      tag_84\n      jump\t// in\n    tag_110:\n        /* \"#utility.yul\":323:326   */\n      dup3\n        /* \"#utility.yul\":316:353   */\n      mstore\n        /* \"#utility.yul\":241:359   */\n      pop\n      pop\n      jump\t// out\n        /* \"#utility.yul\":365:442   */\n    tag_86:\n        /* \"#utility.yul\":402:409   */\n      0x00\n        /* \"#utility.yul\":431:436   */\n      dup2\n        /* \"#utility.yul\":420:436   */\n      swap1\n      pop\n        /* \"#utility.yul\":365:442   */\n      swap2\n      swap1\n      pop\n      jump\t// out\n        /* \"#utility.yul\":448:566   */\n    tag_87:\n        /* \"#utility.yul\":535:559   */\n      tag_113\n        /* \"#utility.yul\":553:558   */\n      dup2\n        /* \"#utility.yul\":535:559   */\n      tag_86\n      jump\t// in\n    tag_113:\n        /* \"#utility.yul\":530:533   */\n      dup3\n        /* \"#utility.yul\":523:560   */\n      mstore\n        /* \"#utility.yul\":448:566   */\n      pop\n      pop\n      jump\t// out\n        /* \"#utility.yul\":572:904   */\n    tag_10:\n        /* \"#utility.yul\":693:697   */\n      0x00\n        /* \"#utility.yul\":731:733   */\n      0x40\n        /* \"#utility.yul\":720:729   */\n      dup3\n        /* \"#utility.yul\":716:734   */\n      add\n        /* \"#utility.yul\":708:734   */\n      swap1\n      pop\n        /* \"#utility.yul\":744:815   */\n      tag_115\n        /* \"#utility.yul\":812:813   */\n      0x00\n        /* \"#utility.yul\":801:810   */\n      dup4\n        /* \"#utility.yul\":797:814   */\n      add\n        /* \"#utility.yul\":788:794   */\n      dup6\n        /* \"#utility.yul\":744:815   */\n      tag_85\n      jump\t// in\n    tag_115:\n        /* \"#utility.yul\":825:897   */\n      tag_116\n        /* \"#utility.yul\":893:895   */\n      0x20\n        /* \"#utility.yul\":882:891   */\n      dup4\n        /* \"#utility.yul\":878:896   */\n      add\n        /* \"#utility.yul\":869:875   */\n      dup5\n        /* \"#utility.yul\":825:897   */\n      tag_87\n      jump\t// in\n    tag_116:\n        /* \"#utility.yul\":572:904   */\n      swap4\n      swap3\n      pop\n      pop\n      pop\n      jump\t// out\n        /* \"#utility.yul\":991:1108   */\n    tag_89:\n        /* \"#utility.yul\":1100:1101   */\n      0x00\n        /* \"#utility.yul\":1097:1098   */\n      0x00\n        /* \"#utility.yul\":1090:1102   */\n      revert\n        /* \"#utility.yul\":1237:1359   */\n    tag_91:\n        /* \"#utility.yul\":1310:1334   */\n      tag_121\n        /* \"#utility.yul\":1328:1333   */\n      dup2\n        /* \"#utility.yul\":1310:1334   */\n      tag_84\n      jump\t// in\n    tag_121:\n        /* \"#utility.yul\":1303:1308   */\n      dup2\n        /* \"#utility.yul\":1300:1335   */\n      eq\n        /* \"#utility.yul\":1290:1353   */\n      tag_122\n      jumpi\n        /* \"#utility.yul\":1349:1350   */\n      0x00\n        /* \"#utility.yul\":1346:1347   */\n      0x00\n        /* \"#utility.yul\":1339:1351   */\n      revert\n        /* \"#utility.yul\":1290:1353   */\n    tag_122:\n        /* \"#utility.yul\":1237:1359   */\n      pop\n      jump\t// out\n        /* \"#utility.yul\":1365:1504   */\n    tag_92:\n        /* \"#utility.yul\":1411:1416   */\n      0x00\n        /* \"#utility.yul\":1449:1455   */\n      dup2\n        /* \"#utility.yul\":1436:1456   */\n      calldataload\n        /* \"#utility.yul\":1427:1456   */\n      swap1\n      pop\n        /* \"#utility.yul\":1465:1498   */\n      tag_124\n        /* \"#utility.yul\":1492:1497   */\n      dup2\n        /* \"#utility.yul\":1465:1498   */\n      tag_91\n      jump\t// in\n    tag_124:\n        /* \"#utility.yul\":1365:1504   */\n      swap3\n      swap2\n      pop\n      pop\n      jump\t// out\n        /* \"#utility.yul\":1510:1632   */\n    tag_93:\n        /* \"#utility.yul\":1583:1607   */\n      tag_126\n        /* \"#utility.yul\":1601:1606   */\n      dup2\n        /* \"#utility.yul\":1583:1607   */\n      tag_86\n      jump\t// in\n    tag_126:\n        /* \"#utility.yul\":1576:1581   */\n      dup2\n        /* \"#utility.yul\":1573:1608   */\n      eq\n        /* \"#utility.yul\":1563:1626   */\n      tag_127\n      jumpi\n        /* \"#utility.yul\":1622:1623   */\n      0x00\n        /* \"#utility.yul\":1619:1620   */\n      0x00\n        /* \"#utility.yul\":1612:1624   */\n      revert\n        /* \"#utility.yul\":1563:1626   */\n    tag_127:\n        /* \"#utility.yul\":1510:1632   */\n      pop\n      jump\t// out\n        /* \"#utility.yul\":1638:1777   */\n    tag_94:\n        /* \"#utility.yul\":1684:1689   */\n      0x00\n        /* \"#utility.yul\":1722:1728   */\n      dup2\n        /* \"#utility.yul\":1709:1729   */\n      calldataload\n        /* \"#utility.yul\":1700:1729   */\n      swap1\n      pop\n        /* \"#utility.yul\":1738:1771   */\n      tag_129\n        /* \"#utility.yul\":1765:1770   */\n      dup2\n        /* \"#utility.yul\":1738:1771   */\n      tag_93\n      jump\t// in\n    tag_129:\n        /* \"#utility.yul\":1638:1777   */\n      swap3\n      swap2\n      pop\n      pop\n      jump\t// out\n        /* \"#utility.yul\":1783:2257   */\n    tag_14:\n        /* \"#utility.yul\":1851:1857   */\n      0x00\n        /* \"#utility.yul\":1859:1865   */\n      0x00\n        /* \"#utility.yul\":1908:1910   */\n      0x40\n        /* \"#utility.yul\":1896:1905   */\n      dup4\n        /* \"#utility.yul\":1887:1894   */\n      dup6\n        /* \"#utility.yul\":1883:1906   */\n      sub\n        /* \"#utility.yul\":1879:1911   */\n      slt\n        /* \"#utility.yul\":1876:1995   */\n      iszero\n      tag_131\n      jumpi\n        /* \"#utility.yul\":1914:1993   */\n      tag_132\n      tag_89\n      jump\t// in\n    tag_132:\n        /* \"#utility.yul\":1876:1995   */\n    tag_131:\n        /* \"#utility.yul\":2034:2035   */\n      0x00\n        /* \"#utility.yul\":2059:2112   */\n      tag_133\n        /* \"#utility.yul\":2104:2111   */\n      dup6\n        /* \"#utility.yul\":2095:2101   */\n      dup3\n        /* \"#utility.yul\":2084:2093   */\n      dup7\n        /* \"#utility.yul\":2080:2102   */\n      add\n        /* \"#utility.yul\":2059:2112   */\n      tag_92\n      jump\t// in\n    tag_133:\n        /* \"#utility.yul\":2049:2112   */\n      swap3\n      pop\n        /* \"#utility.yul\":2005:2122   */\n      pop\n        /* \"#utility.yul\":2161:2163   */\n      0x20\n        /* \"#utility.yul\":2187:2240   */\n      tag_134\n        /* \"#utility.yul\":2232:2239   */\n      dup6\n        /* \"#utility.yul\":2223:2229   */\n      dup3\n        /* \"#utility.yul\":2212:2221   */\n      dup7\n        /* \"#utility.yul\":2208:2230   */\n      add\n        /* \"#utility.yul\":2187:2240   */\n      tag_94\n      jump\t// in\n    tag_134:\n        /* \"#utility.yul\":2177:2240   */\n      swap2\n      pop\n        /* \"#utility.yul\":2132:2250   */\n      pop\n        /* \"#utility.yul\":1783:2257   */\n      swap3\n      pop\n      swap3\n      swap1\n      pop\n      jump\t// out\n        /* \"#utility.yul\":2263:2882   */\n    tag_25:\n        /* \"#utility.yul\":2340:2346   */\n      0x00\n        /* \"#utility.yul\":2348:2354   */\n      0x00\n        /* \"#utility.yul\":2356:2362   */\n      0x00\n        /* \"#utility.yul\":2405:2407   */\n      0x60\n        /* \"#utility.yul\":2393:2402   */\n      dup5\n        /* \"#utility.yul\":2384:2391   */\n      dup7\n        /* \"#utility.yul\":2380:2403   */\n      sub\n        /* \"#utility.yul\":2376:2408   */\n      slt\n        /* \"#utility.yul\":2373:2492   */\n      iszero\n      tag_136\n      jumpi\n        /* \"#utility.yul\":2411:2490   */\n      tag_137\n      tag_89\n      jump\t// in\n    tag_137:\n        /* \"#utility.yul\":2373:2492   */\n    tag_136:\n        /* \"#utility.yul\":2531:2532   */\n      0x00\n        /* \"#utility.yul\":2556:2609   */\n      tag_138\n        /* \"#utility.yul\":2601:2608   */\n      dup7\n        /* \"#utility.yul\":2592:2598   */\n      dup3\n        /* \"#utility.yul\":2581:2590   */\n      dup8\n        /* \"#utility.yul\":2577:2599   */\n      add\n        /* \"#utility.yul\":2556:2609   */\n      tag_92\n      jump\t// in\n    tag_138:\n        /* \"#utility.yul\":2546:2609   */\n      swap4\n      pop\n        /* \"#utility.yul\":2502:2619   */\n      pop\n        /* \"#utility.yul\":2658:2660   */\n      0x20\n        /* \"#utility.yul\":2684:2737   */\n      tag_139\n        /* \"#utility.yul\":2729:2736   */\n      dup7\n        /* \"#utility.yul\":2720:2726   */\n      dup3\n        /* \"#utility.yul\":2709:2718   */\n      dup8\n        /* \"#utility.yul\":2705:2727   */\n      add\n        /* \"#utility.yul\":2684:2737   */\n      tag_94\n      jump\t// in\n    tag_139:\n        /* \"#utility.yul\":2674:2737   */\n      swap3\n      pop\n        /* \"#utility.yul\":2629:2747   */\n      pop\n        /* \"#utility.yul\":2786:2788   */\n      0x40\n        /* \"#utility.yul\":2812:2865   */\n      tag_140\n        /* \"#utility.yul\":2857:2864   */\n      dup7\n        /* \"#utility.yul\":2848:2854   */\n      dup3\n        /* \"#utility.yul\":2837:2846   */\n      dup8\n        /* \"#utility.yul\":2833:2855   */\n      add\n        /* \"#utility.yul\":2812:2865   */\n      tag_94\n      jump\t// in\n    tag_140:\n        /* \"#utility.yul\":2802:2865   */\n      swap2\n      pop\n        /* \"#utility.yul\":2757:2875   */\n      pop\n        /* \"#utility.yul\":2263:2882   */\n      swap3\n      pop\n      swap3\n      pop\n      swap3\n      jump\t// out\n        /* \"#utility.yul\":2888:3057   */\n    tag_95:\n        /* \"#utility.yul\":2972:2983   */\n      0x00\n        /* \"#utility.yul\":3006:3012   */\n      dup3\n        /* \"#utility.yul\":3001:3004   */\n      dup3\n        /* \"#utility.yul\":2994:3013   */\n      mstore\n        /* \"#utility.yul\":3046:3050   */\n      0x20\n        /* \"#utility.yul\":3041:3044   */\n      dup3\n        /* \"#utility.yul\":3037:3051   */\n      add\n        /* \"#utility.yul\":3022:3051   */\n      swap1\n      pop\n        /* \"#utility.yul\":2888:3057   */\n      swap3\n      swap2\n      pop\n      pop\n      jump\t// out\n        /* \"#utility.yul\":3063:3222   */\n    tag_96:\n        /* \"#utility.yul\":3203:3214   */\n      0x4e6f74204f776e65720000000000000000000000000000000000000000000000\n        /* \"#utility.yul\":3199:3200   */\n      0x00\n        /* \"#utility.yul\":3191:3197   */\n      dup3\n        /* \"#utility.yul\":3187:3201   */\n      add\n        /* \"#utility.yul\":3180:3215   */\n      mstore\n        /* \"#utility.yul\":3063:3222   */\n      pop\n      jump\t// out\n        /* \"#utility.yul\":3228:3593   */\n    tag_97:\n        /* \"#utility.yul\":3370:3373   */\n      0x00\n        /* \"#utility.yul\":3391:3457   */\n      tag_144\n        /* \"#utility.yul\":3455:3456   */\n      0x09\n        /* \"#utility.yul\":3450:3453   */\n      dup4\n        /* \"#utility.yul\":3391:3457   */\n      tag_95\n      jump\t// in\n    tag_144:\n        /* \"#utility.yul\":3384:3457   */\n      swap2\n      pop\n        /* \"#utility.yul\":3466:3559   */\n      tag_145\n        /* \"#utility.yul\":3555:3558   */\n      dup3\n        /* \"#utility.yul\":3466:3559   */\n      tag_96\n      jump\t// in\n    tag_145:\n        /* \"#utility.yul\":3584:3586   */\n      0x20\n        /* \"#utility.yul\":3579:3582   */\n      dup3\n        /* \"#utility.yul\":3575:3587   */\n      add\n        /* \"#utility.yul\":3568:3587   */\n      swap1\n      pop\n        /* \"#utility.yul\":3228:3593   */\n      swap2\n      swap1\n      pop\n      jump\t// out\n        /* \"#utility.yul\":3599:4018   */\n    tag_30:\n        /* \"#utility.yul\":3765:3769   */\n      0x00\n        /* \"#utility.yul\":3803:3805   */\n      0x20\n        /* \"#utility.yul\":3792:3801   */\n      dup3\n        /* \"#utility.yul\":3788:3806   */\n      add\n        /* \"#utility.yul\":3780:3806   */\n      swap1\n      pop\n        /* \"#utility.yul\":3852:3861   */\n      dup2\n        /* \"#utility.yul\":3846:3850   */\n      dup2\n        /* \"#utility.yul\":3842:3862   */\n      sub\n        /* \"#utility.yul\":3838:3839   */\n      0x00\n        /* \"#utility.yul\":3827:3836   */\n      dup4\n        /* \"#utility.yul\":3823:3840   */\n      add\n        /* \"#utility.yul\":3816:3863   */\n      mstore\n        /* \"#utility.yul\":3880:4011   */\n      tag_147\n        /* \"#utility.yul\":4006:4010   */\n      dup2\n        /* \"#utility.yul\":3880:4011   */\n      tag_97\n      jump\t// in\n    tag_147:\n        /* \"#utility.yul\":3872:4011   */\n      swap1\n      pop\n        /* \"#utility.yul\":3599:4018   */\n      swap2\n      swap1\n      pop\n      jump\t// out\n        /* \"#utility.yul\":4024:4184   */\n    tag_98:\n        /* \"#utility.yul\":4164:4176   */\n      0x5265656e7472616e637900000000000000000000000000000000000000000000\n        /* \"#utility.yul\":4160:4161   */\n      0x00\n        /* \"#utility.yul\":4152:4158   */\n      dup3\n        /* \"#utility.yul\":4148:4162   */\n      add\n        /* \"#utility.yul\":4141:4177   */\n      mstore\n        /* \"#utility.yul\":4024:4184   */\n      pop\n      jump\t// out\n        /* \"#utility.yul\":4190:4556   */\n    tag_99:\n        /* \"#utility.yul\":4332:4335   */\n      0x00\n        /* \"#utility.yul\":4353:4420   */\n      tag_150\n        /* \"#utility.yul\":4417:4419   */\n      0x0a\n        /* \"#utility.yul\":4412:4415   */\n      dup4\n        /* \"#utility.yul\":4353:4420   */\n      tag_95\n      jump\t// in\n    tag_150:\n        /* \"#utility.yul\":4346:4420   */\n      swap2\n      pop\n        /* \"#utility.yul\":4429:4522   */\n      tag_151\n        /* \"#utility.yul\":4518:4521   */\n      dup3\n        /* \"#utility.yul\":4429:4522   */\n      tag_98\n      jump\t// in\n    tag_151:\n        /* \"#utility.yul\":4547:4549   */\n      0x20\n        /* \"#utility.yul\":4542:4545   */\n      dup3\n        /* \"#utility.yul\":4538:4550   */\n      add\n        /* \"#utility.yul\":4531:4550   */\n      swap1\n      pop\n        /* \"#utility.yul\":4190:4556   */\n      swap2\n      swap1\n      pop\n      jump\t// out\n        /* \"#utility.yul\":4562:4981   */\n    tag_34:\n        /* \"#utility.yul\":4728:4732   */\n      0x00\n        /* \"#utility.yul\":4766:4768   */\n      0x20\n        /* \"#utility.yul\":4755:4764   */\n      dup3\n        /* \"#utility.yul\":4751:4769   */\n      add\n        /* \"#utility.yul\":4743:4769   */\n      swap1\n      pop\n        /* \"#utility.yul\":4815:4824   */\n      dup2\n        /* \"#utility.yul\":4809:4813   */\n      dup2\n        /* \"#utility.yul\":4805:4825   */\n      sub\n        /* \"#utility.yul\":4801:4802   */\n      0x00\n        /* \"#utility.yul\":4790:4799   */\n      dup4\n        /* \"#utility.yul\":4786:4803   */\n      add\n        /* \"#utility.yul\":4779:4826   */\n      mstore\n        /* \"#utility.yul\":4843:4974   */\n      tag_153\n        /* \"#utility.yul\":4969:4973   */\n      dup2\n        /* \"#utility.yul\":4843:4974   */\n      tag_99\n      jump\t// in\n    tag_153:\n        /* \"#utility.yul\":4835:4974   */\n      swap1\n      pop\n        /* \"#utility.yul\":4562:4981   */\n      swap2\n      swap1\n      pop\n      jump\t// out\n        /* \"#utility.yul\":4987:5167   */\n    tag_100:\n        /* \"#utility.yul\":5035:5112   */\n      0x4e487b7100000000000000000000000000000000000000000000000000000000\n        /* \"#utility.yul\":5032:5033   */\n      0x00\n        /* \"#utility.yul\":5025:5113   */\n      mstore\n        /* \"#utility.yul\":5132:5136   */\n      0x11\n        /* \"#utility.yul\":5129:5130   */\n      0x04\n        /* \"#utility.yul\":5122:5137   */\n      mstore\n        /* \"#utility.yul\":5156:5160   */\n      0x24\n        /* \"#utility.yul\":5153:5154   */\n      0x00\n        /* \"#utility.yul\":5146:5161   */\n      revert\n        /* \"#utility.yul\":5173:5583   */\n    tag_50:\n        /* \"#utility.yul\":5213:5220   */\n      0x00\n        /* \"#utility.yul\":5236:5256   */\n      tag_156\n        /* \"#utility.yul\":5254:5255   */\n      dup3\n        /* \"#utility.yul\":5236:5256   */\n      tag_86\n      jump\t// in\n    tag_156:\n        /* \"#utility.yul\":5231:5256   */\n      swap2\n      pop\n        /* \"#utility.yul\":5270:5290   */\n      tag_157\n        /* \"#utility.yul\":5288:5289   */\n      dup4\n        /* \"#utility.yul\":5270:5290   */\n      tag_86\n      jump\t// in\n    tag_157:\n        /* \"#utility.yul\":5265:5290   */\n      swap3\n      pop\n        /* \"#utility.yul\":5325:5326   */\n      dup3\n        /* \"#utility.yul\":5322:5323   */\n      dup3\n        /* \"#utility.yul\":5318:5327   */\n      mul\n        /* \"#utility.yul\":5347:5377   */\n      tag_158\n        /* \"#utility.yul\":5365:5376   */\n      dup2\n        /* \"#utility.yul\":5347:5377   */\n      tag_86\n      jump\t// in\n    tag_158:\n        /* \"#utility.yul\":5336:5377   */\n      swap2\n      pop\n        /* \"#utility.yul\":5526:5527   */\n      dup3\n        /* \"#utility.yul\":5517:5524   */\n      dup3\n        /* \"#utility.yul\":5513:5528   */\n      div\n        /* \"#utility.yul\":5510:5511   */\n      dup5\n        /* \"#utility.yul\":5507:5529   */\n      eq\n        /* \"#utility.yul\":5487:5488   */\n      dup4\n        /* \"#utility.yul\":5480:5489   */\n      iszero\n        /* \"#utility.yul\":5460:5543   */\n      or\n        /* \"#utility.yul\":5437:5576   */\n      tag_159\n      jumpi\n        /* \"#utility.yul\":5556:5574   */\n      tag_160\n      tag_100\n      jump\t// in\n    tag_160:\n        /* \"#utility.yul\":5437:5576   */\n    tag_159:\n        /* \"#utility.yul\":5221:5583   */\n      pop\n        /* \"#utility.yul\":5173:5583   */\n      swap3\n      swap2\n      pop\n      pop\n      jump\t// out\n        /* \"#utility.yul\":5589:5769   */\n    tag_101:\n        /* \"#utility.yul\":5637:5714   */\n      0x4e487b7100000000000000000000000000000000000000000000000000000000\n        /* \"#utility.yul\":5634:5635   */\n      0x00\n        /* \"#utility.yul\":5627:5715   */\n      mstore\n        /* \"#utility.yul\":5734:5738   */\n      0x12\n        /* \"#utility.yul\":5731:5732   */\n      0x04\n        /* \"#utility.yul\":5724:5739   */\n      mstore\n        /* \"#utility.yul\":5758:5762   */\n      0x24\n        /* \"#utility.yul\":5755:5756   */\n      0x00\n        /* \"#utility.yul\":5748:5763   */\n      revert\n        /* \"#utility.yul\":5775:5960   */\n    tag_53:\n        /* \"#utility.yul\":5815:5816   */\n      0x00\n        /* \"#utility.yul\":5832:5852   */\n      tag_163\n        /* \"#utility.yul\":5850:5851   */\n      dup3\n        /* \"#utility.yul\":5832:5852   */\n      tag_86\n      jump\t// in\n    tag_163:\n        /* \"#utility.yul\":5827:5852   */\n      swap2\n      pop\n        /* \"#utility.yul\":5866:5886   */\n      tag_164\n        /* \"#utility.yul\":5884:5885   */\n      dup4\n        /* \"#utility.yul\":5866:5886   */\n      tag_86\n      jump\t// in\n    tag_164:\n        /* \"#utility.yul\":5861:5886   */\n      swap3\n      pop\n        /* \"#utility.yul\":5905:5906   */\n      dup3\n        /* \"#utility.yul\":5895:5930   */\n      tag_165\n      jumpi\n        /* \"#utility.yul\":5910:5928   */\n      tag_166\n      tag_101\n      jump\t// in\n    tag_166:\n        /* \"#utility.yul\":5895:5930   */\n    tag_165:\n        /* \"#utility.yul\":5952:5953   */\n      dup3\n        /* \"#utility.yul\":5949:5950   */\n      dup3\n        /* \"#utility.yul\":5945:5954   */\n      div\n        /* \"#utility.yul\":5940:5954   */\n      swap1\n      pop\n        /* \"#utility.yul\":5775:5960   */\n      swap3\n      swap2\n      pop\n      pop\n      jump\t// out\n        /* \"#utility.yul\":5966:6157   */\n    tag_57:\n        /* \"#utility.yul\":6006:6009   */\n      0x00\n        /* \"#utility.yul\":6025:6045   */\n      tag_168\n        /* \"#utility.yul\":6043:6044   */\n      dup3\n        /* \"#utility.yul\":6025:6045   */\n      tag_86\n      jump\t// in\n    tag_168:\n        /* \"#utility.yul\":6020:6045   */\n      swap2\n      pop\n        /* \"#utility.yul\":6059:6079   */\n      tag_169\n        /* \"#utility.yul\":6077:6078   */\n      dup4\n        /* \"#utility.yul\":6059:6079   */\n      tag_86\n      jump\t// in\n    tag_169:\n        /* \"#utility.yul\":6054:6079   */\n      swap3\n      pop\n        /* \"#utility.yul\":6102:6103   */\n      dup3\n        /* \"#utility.yul\":6099:6100   */\n      dup3\n        /* \"#utility.yul\":6095:6104   */\n      add\n        /* \"#utility.yul\":6088:6104   */\n      swap1\n      pop\n        /* \"#utility.yul\":6123:6126   */\n      dup1\n        /* \"#utility.yul\":6120:6121   */\n      dup3\n        /* \"#utility.yul\":6117:6127   */\n      gt\n        /* \"#utility.yul\":6114:6150   */\n      iszero\n      tag_170\n      jumpi\n        /* \"#utility.yul\":6130:6148   */\n      tag_171\n      tag_100\n      jump\t// in\n    tag_171:\n        /* \"#utility.yul\":6114:6150   */\n    tag_170:\n        /* \"#utility.yul\":5966:6157   */\n      swap3\n      swap2\n      pop\n      pop\n      jump\t// out\n        /* \"#utility.yul\":6163:6357   */\n    tag_59:\n        /* \"#utility.yul\":6203:6207   */\n      0x00\n        /* \"#utility.yul\":6223:6243   */\n      tag_173\n        /* \"#utility.yul\":6241:6242   */\n      dup3\n        /* \"#utility.yul\":6223:6243   */\n      tag_86\n      jump\t// in\n    tag_173:\n        /* \"#utility.yul\":6218:6243   */\n      swap2\n      pop\n        /* \"#utility.yul\":6257:6277   */\n      tag_174\n        /* \"#utility.yul\":6275:6276   */\n      dup4\n        /* \"#utility.yul\":6257:6277   */\n      tag_86\n      jump\t// in\n    tag_174:\n        /* \"#utility.yul\":6252:6277   */\n      swap3\n      pop\n        /* \"#utility.yul\":6301:6302   */\n      dup3\n        /* \"#utility.yul\":6298:6299   */\n      dup3\n        /* \"#utility.yul\":6294:6303   */\n      sub\n        /* \"#utility.yul\":6286:6303   */\n      swap1\n      pop\n        /* \"#utility.yul\":6325:6326   */\n      dup2\n        /* \"#utility.yul\":6319:6323   */\n      dup2\n        /* \"#utility.yul\":6316:6327   */\n      gt\n        /* \"#utility.yul\":6313:6350   */\n      iszero\n      tag_175\n      jumpi\n        /* \"#utility.yul\":6330:6348   */\n      tag_176\n      tag_100\n      jump\t// in\n    tag_176:\n        /* \"#utility.yul\":6313:6350   */\n    tag_175:\n        /* \"#utility.yul\":6163:6357   */\n      swap3\n      swap2\n      pop\n      pop\n      jump\t// out\n        /* \"#utility.yul\":6363:6510   */\n    tag_102:\n        /* \"#utility.yul\":6464:6475   */\n      0x00\n        /* \"#utility.yul\":6501:6504   */\n      dup2\n        /* \"#utility.yul\":6486:6504   */\n      swap1\n      pop\n        /* \"#utility.yul\":6363:6510   */\n      swap3\n      swap2\n      pop\n      pop\n      jump\t// out\n        /* \"#utility.yul\":6516:6630   */\n    tag_103:\n      pop\n      jump\t// out\n        /* \"#utility.yul\":6636:7034   */\n    tag_104:\n        /* \"#utility.yul\":6795:6798   */\n      0x00\n        /* \"#utility.yul\":6816:6899   */\n      tag_180\n        /* \"#utility.yul\":6897:6898   */\n      0x00\n        /* \"#utility.yul\":6892:6895   */\n      dup4\n        /* \"#utility.yul\":6816:6899   */\n      tag_102\n      jump\t// in\n    tag_180:\n        /* \"#utility.yul\":6809:6899   */\n      swap2\n      pop\n        /* \"#utility.yul\":6908:7001   */\n      tag_181\n        /* \"#utility.yul\":6997:7000   */\n      dup3\n        /* \"#utility.yul\":6908:7001   */\n      tag_103\n      jump\t// in\n    tag_181:\n        /* \"#utility.yul\":7026:7027   */\n      0x00\n        /* \"#utility.yul\":7021:7024   */\n      dup3\n        /* \"#utility.yul\":7017:7028   */\n      add\n        /* \"#utility.yul\":7010:7028   */\n      swap1\n      pop\n        /* \"#utility.yul\":6636:7034   */\n      swap2\n      swap1\n      pop\n      jump\t// out\n        /* \"#utility.yul\":7040:7419   */\n    tag_61:\n        /* \"#utility.yul\":7224:7227   */\n      0x00\n        /* \"#utility.yul\":7246:7393   */\n      tag_183\n        /* \"#utility.yul\":7389:7392   */\n      dup3\n        /* \"#utility.yul\":7246:7393   */\n      tag_104\n      jump\t// in\n    tag_183:\n        /* \"#utility.yul\":7239:7393   */\n      swap2\n      pop\n        /* \"#utility.yul\":7410:7413   */\n      dup2\n        /* \"#utility.yul\":7403:7413   */\n      swap1\n      pop\n        /* \"#utility.yul\":7040:7419   */\n      swap2\n      swap1\n      pop\n      jump\t// out\n\n    auxdata: 0xa2646970667358221220d18c3e662e8bbbed2a024935676e8658f7929b79be24fa45fa8fd8fdaeb6678d64736f6c634300081e0033\n}\n",
				"bytecode": {
					"linkReferences": {},
					"object": "608060405234801561000f575f5ffd5b50604051610d52380380610d5283398181016040528101906100319190610196565b828282335f5f6101000a81548173ffffffffffffffffffffffffffffffffffffffff021916908373ffffffffffffffffffffffffffffffffffffffff1602179055508260015f6101000a81548173ffffffffffffffffffffffffffffffffffffffff021916908373ffffffffffffffffffffffffffffffffffffffff1602179055508160025f6101000a81548173ffffffffffffffffffffffffffffffffffffffff021916908373ffffffffffffffffffffffffffffffffffffffff160217905550806004819055505050505050506101e6565b5f5ffd5b5f73ffffffffffffffffffffffffffffffffffffffff82169050919050565b5f61013282610109565b9050919050565b61014281610128565b811461014c575f5ffd5b50565b5f8151905061015d81610139565b92915050565b5f819050919050565b61017581610163565b811461017f575f5ffd5b50565b5f815190506101908161016c565b92915050565b5f5f5f606084860312156101ad576101ac610105565b5b5f6101ba8682870161014f565b93505060206101cb8682870161014f565b92505060406101dc86828701610182565b9150509250925092565b610b5f806101f35f395ff3fe608060405260043610610042575f3560e01c80630357371d146100865780635892fad0146100ae578063d0e30db0146100d6578063f297be66146100e057610082565b36610082577fd6717f327e0cb88b4a97a7f67a453e9258252c34937ccbdd86de7cb840e7def333346040516100789291906107ca565b60405180910390a1005b5f5ffd5b348015610091575f5ffd5b506100ac60048036038101906100a79190610849565b610108565b005b3480156100b9575f5ffd5b506100d460048036038101906100cf9190610849565b6102f7565b005b6100de6103cb565b005b3480156100eb575f5ffd5b5061010660048036038101906101019190610887565b610406565b005b5f5f9054906101000a900473ffffffffffffffffffffffffffffffffffffffff1673ffffffffffffffffffffffffffffffffffffffff163373ffffffffffffffffffffffffffffffffffffffff1614610196576040517f08c379a000000000000000000000000000000000000000000000000000000000815260040161018d90610931565b60405180910390fd5b5f60149054906101000a900460ff16156101e5576040517f08c379a00000000000000000000000000000000000000000000000000000000081526004016101dc90610999565b60405180910390fd5b60015f60146101000a81548160ff0219169083151502179055505f5f60055f60015f9054906101000a900473ffffffffffffffffffffffffffffffffffffffff1673ffffffffffffffffffffffffffffffffffffffff1673ffffffffffffffffffffffffffffffffffffffff1681526020019081526020015f20541161026c57600a6102cc565b60055f60015f9054906101000a900473ffffffffffffffffffffffffffffffffffffffff1673ffffffffffffffffffffffffffffffffffffffff1673ffffffffffffffffffffffffffffffffffffffff1681526020019081526020015f20545b90506102d9838383610406565b505f5f60146101000a81548160ff0219169083151502179055505050565b5f5f9054906101000a900473ffffffffffffffffffffffffffffffffffffffff1673ffffffffffffffffffffffffffffffffffffffff163373ffffffffffffffffffffffffffffffffffffffff1614610385576040517f08c379a000000000000000000000000000000000000000000000000000000000815260040161037c90610931565b60405180910390fd5b8060055f8473ffffffffffffffffffffffffffffffffffffffff1673ffffffffffffffffffffffffffffffffffffffff1681526020019081526020015f20819055505050565b7fe1fffcc4923d04b559f4d29a8bfc6cda04eb5b0d3c460751c2402c5c5cc9109c33346040516103fc9291906107ca565b60405180910390a1565b5f5f9054906101000a900473ffffffffffffffffffffffffffffffffffffffff1673ffffffffffffffffffffffffffffffffffffffff163373ffffffffffffffffffffffffffffffffffffffff1614610494576040517f08c379a000000000000000000000000000000000000000000000000000000000815260040161048b90610931565b60405180910390fd5b5f670de0b6b3a7640000836104a991906109e4565b90505f606483836104ba91906109e4565b6104c49190610a52565b90505f6064600454846104d791906109e4565b6104e19190610a52565b90505f81836104f09190610a82565b846104fb9190610ab5565b90505f60015f9054906101000a900473ffffffffffffffffffffffffffffffffffffffff1673ffffffffffffffffffffffffffffffffffffffff168460405161054390610b15565b5f6040518083038185875af1925050503d805f811461057d576040519150601f19603f3d011682016040523d82523d5f602084013e610582565b606091505b505090508061058f575f5ffd5b5f60025f9054906101000a900473ffffffffffffffffffffffffffffffffffffffff1673ffffffffffffffffffffffffffffffffffffffff16846040516105d590610b15565b5f6040518083038185875af1925050503d805f811461060f576040519150601f19603f3d011682016040523d82523d5f602084013e610614565b606091505b5050905080610621575f5ffd5b61062b8984610636565b505050505050505050565b5f5f9054906101000a900473ffffffffffffffffffffffffffffffffffffffff1673ffffffffffffffffffffffffffffffffffffffff163373ffffffffffffffffffffffffffffffffffffffff16146106c4576040517f08c379a00000000000000000000000000000000000000000000000000000000081526004016106bb90610931565b60405180910390fd5b5f8273ffffffffffffffffffffffffffffffffffffffff16826040516106e990610b15565b5f6040518083038185875af1925050503d805f8114610723576040519150601f19603f3d011682016040523d82523d5f602084013e610728565b606091505b5050905080610735575f5ffd5b7ff6334794522b9db534a812aaae1af828a2e96aac68473b58e36d7d0bfd67477b83836040516107669291906107ca565b60405180910390a1505050565b5f73ffffffffffffffffffffffffffffffffffffffff82169050919050565b5f61079c82610773565b9050919050565b6107ac81610792565b82525050565b5f819050919050565b6107c4816107b2565b82525050565b5f6040820190506107dd5f8301856107a3565b6107ea60208301846107bb565b9392505050565b5f5ffd5b6107fe81610792565b8114610808575f5ffd5b50565b5f81359050610819816107f5565b92915050565b610828816107b2565b8114610832575f5ffd5b50565b5f813590506108438161081f565b92915050565b5f5f6040838503121561085f5761085e6107f1565b5b5f61086c8582860161080b565b925050602061087d85828601610835565b9150509250929050565b5f5f5f6060848603121561089e5761089d6107f1565b5b5f6108ab8682870161080b565b93505060206108bc86828701610835565b92505060406108cd86828701610835565b9150509250925092565b5f82825260208201905092915050565b7f4e6f74204f776e657200000000000000000000000000000000000000000000005f82015250565b5f61091b6009836108d7565b9150610926826108e7565b602082019050919050565b5f6020820190508181035f8301526109488161090f565b9050919050565b7f5265656e7472616e6379000000000000000000000000000000000000000000005f82015250565b5f610983600a836108d7565b915061098e8261094f565b602082019050919050565b5f6020820190508181035f8301526109b081610977565b9050919050565b7f4e487b71000000000000000000000000000000000000000000000000000000005f52601160045260245ffd5b5f6109ee826107b2565b91506109f9836107b2565b9250828202610a07816107b2565b91508282048414831517610a1e57610a1d6109b7565b5b5092915050565b7f4e487b71000000000000000000000000000000000000000000000000000000005f52601260045260245ffd5b5f610a5c826107b2565b9150610a67836107b2565b925082610a7757610a76610a25565b5b828204905092915050565b5f610a8c826107b2565b9150610a97836107b2565b9250828201905080821115610aaf57610aae6109b7565b5b92915050565b5f610abf826107b2565b9150610aca836107b2565b9250828203905081811115610ae257610ae16109b7565b5b92915050565b5f81905092915050565b50565b5f610b005f83610ae8565b9150610b0b82610af2565b5f82019050919050565b5f610b1f82610af5565b915081905091905056fea2646970667358221220d18c3e662e8bbbed2a024935676e8658f7929b79be24fa45fa8fd8fdaeb6678d64736f6c634300081e0033",
					"opcodes": "PUSH1 0x80 PUSH1 0x40 MSTORE CALLVALUE DUP1 ISZERO PUSH2 0xF JUMPI PUSH0 PUSH0 REVERT JUMPDEST POP PUSH1 0x40 MLOAD PUSH2 0xD52 CODESIZE SUB DUP1 PUSH2 0xD52 DUP4 CODECOPY DUP2 DUP2 ADD PUSH1 0x40 MSTORE DUP2 ADD SWAP1 PUSH2 0x31 SWAP2 SWAP1 PUSH2 0x196 JUMP JUMPDEST DUP3 DUP3 DUP3 CALLER PUSH0 PUSH0 PUSH2 0x100 EXP DUP2 SLOAD DUP2 PUSH20 0xFFFFFFFFFFFFFFFFFFFFFFFFFFFFFFFFFFFFFFFF MUL NOT AND SWAP1 DUP4 PUSH20 0xFFFFFFFFFFFFFFFFFFFFFFFFFFFFFFFFFFFFFFFF AND MUL OR SWAP1 SSTORE POP DUP3 PUSH1 0x1 PUSH0 PUSH2 0x100 EXP DUP2 SLOAD DUP2 PUSH20 0xFFFFFFFFFFFFFFFFFFFFFFFFFFFFFFFFFFFFFFFF MUL NOT AND SWAP1 DUP4 PUSH20 0xFFFFFFFFFFFFFFFFFFFFFFFFFFFFFFFFFFFFFFFF AND MUL OR SWAP1 SSTORE POP DUP2 PUSH1 0x2 PUSH0 PUSH2 0x100 EXP DUP2 SLOAD DUP2 PUSH20 0xFFFFFFFFFFFFFFFFFFFFFFFFFFFFFFFFFFFFFFFF MUL NOT AND SWAP1 DUP4 PUSH20 0xFFFFFFFFFFFFFFFFFFFFFFFFFFFFFFFFFFFFFFFF AND MUL OR SWAP1 SSTORE POP DUP1 PUSH1 0x4 DUP2 SWAP1 SSTORE POP POP POP POP POP POP POP PUSH2 0x1E6 JUMP JUMPDEST PUSH0 PUSH0 REVERT JUMPDEST PUSH0 PUSH20 0xFFFFFFFFFFFFFFFFFFFFFFFFFFFFFFFFFFFFFFFF DUP3 AND SWAP1 POP SWAP2 SWAP1 POP JUMP JUMPDEST PUSH0 PUSH2 0x132 DUP3 PUSH2 0x109 JUMP JUMPDEST SWAP1 POP SWAP2 SWAP1 POP JUMP JUMPDEST PUSH2 0x142 DUP2 PUSH2 0x128 JUMP JUMPDEST DUP2 EQ PUSH2 0x14C JUMPI PUSH0 PUSH0 REVERT JUMPDEST POP JUMP JUMPDEST PUSH0 DUP2 MLOAD SWAP1 POP PUSH2 0x15D DUP2 PUSH2 0x139 JUMP JUMPDEST SWAP3 SWAP2 POP POP JUMP JUMPDEST PUSH0 DUP2 SWAP1 POP SWAP2 SWAP1 POP JUMP JUMPDEST PUSH2 0x175 DUP2 PUSH2 0x163 JUMP JUMPDEST DUP2 EQ PUSH2 0x17F JUMPI PUSH0 PUSH0 REVERT JUMPDEST POP JUMP JUMPDEST PUSH0 DUP2 MLOAD SWAP1 POP PUSH2 0x190 DUP2 PUSH2 0x16C JUMP JUMPDEST SWAP3 SWAP2 POP POP JUMP JUMPDEST PUSH0 PUSH0 PUSH0 PUSH1 0x60 DUP5 DUP7 SUB SLT ISZERO PUSH2 0x1AD JUMPI PUSH2 0x1AC PUSH2 0x105 JUMP JUMPDEST JUMPDEST PUSH0 PUSH2 0x1BA DUP7 DUP3 DUP8 ADD PUSH2 0x14F JUMP JUMPDEST SWAP4 POP POP PUSH1 0x20 PUSH2 0x1CB DUP7 DUP3 DUP8 ADD PUSH2 0x14F JUMP JUMPDEST SWAP3 POP POP PUSH1 0x40 PUSH2 0x1DC DUP7 DUP3 DUP8 ADD PUSH2 0x182 JUMP JUMPDEST SWAP2 POP POP SWAP3 POP SWAP3 POP SWAP3 JUMP JUMPDEST PUSH2 0xB5F DUP1 PUSH2 0x1F3 PUSH0 CODECOPY PUSH0 RETURN INVALID PUSH1 0x80 PUSH1 0x40 MSTORE PUSH1 0x4 CALLDATASIZE LT PUSH2 0x42 JUMPI PUSH0 CALLDATALOAD PUSH1 0xE0 SHR DUP1 PUSH4 0x357371D EQ PUSH2 0x86 JUMPI DUP1 PUSH4 0x5892FAD0 EQ PUSH2 0xAE JUMPI DUP1 PUSH4 0xD0E30DB0 EQ PUSH2 0xD6 JUMPI DUP1 PUSH4 0xF297BE66 EQ PUSH2 0xE0 JUMPI PUSH2 0x82 JUMP JUMPDEST CALLDATASIZE PUSH2 0x82 JUMPI PUSH32 0xD6717F327E0CB88B4A97A7F67A453E9258252C34937CCBDD86DE7CB840E7DEF3 CALLER CALLVALUE PUSH1 0x40 MLOAD PUSH2 0x78 SWAP3 SWAP2 SWAP1 PUSH2 0x7CA JUMP JUMPDEST PUSH1 0x40 MLOAD DUP1 SWAP2 SUB SWAP1 LOG1 STOP JUMPDEST PUSH0 PUSH0 REVERT JUMPDEST CALLVALUE DUP1 ISZERO PUSH2 0x91 JUMPI PUSH0 PUSH0 REVERT JUMPDEST POP PUSH2 0xAC PUSH1 0x4 DUP1 CALLDATASIZE SUB DUP2 ADD SWAP1 PUSH2 0xA7 SWAP2 SWAP1 PUSH2 0x849 JUMP JUMPDEST PUSH2 0x108 JUMP JUMPDEST STOP JUMPDEST CALLVALUE DUP1 ISZERO PUSH2 0xB9 JUMPI PUSH0 PUSH0 REVERT JUMPDEST POP PUSH2 0xD4 PUSH1 0x4 DUP1 CALLDATASIZE SUB DUP2 ADD SWAP1 PUSH2 0xCF SWAP2 SWAP1 PUSH2 0x849 JUMP JUMPDEST PUSH2 0x2F7 JUMP JUMPDEST STOP JUMPDEST PUSH2 0xDE PUSH2 0x3CB JUMP JUMPDEST STOP JUMPDEST CALLVALUE DUP1 ISZERO PUSH2 0xEB JUMPI PUSH0 PUSH0 REVERT JUMPDEST POP PUSH2 0x106 PUSH1 0x4 DUP1 CALLDATASIZE SUB DUP2 ADD SWAP1 PUSH2 0x101 SWAP2 SWAP1 PUSH2 0x887 JUMP JUMPDEST PUSH2 0x406 JUMP JUMPDEST STOP JUMPDEST PUSH0 PUSH0 SWAP1 SLOAD SWAP1 PUSH2 0x100 EXP SWAP1 DIV PUSH20 0xFFFFFFFFFFFFFFFFFFFFFFFFFFFFFFFFFFFFFFFF AND PUSH20 0xFFFFFFFFFFFFFFFFFFFFFFFFFFFFFFFFFFFFFFFF AND CALLER PUSH20 0xFFFFFFFFFFFFFFFFFFFFFFFFFFFFFFFFFFFFFFFF AND EQ PUSH2 0x196 JUMPI PUSH1 0x40 MLOAD PUSH32 0x8C379A000000000000000000000000000000000000000000000000000000000 DUP2 MSTORE PUSH1 0x4 ADD PUSH2 0x18D SWAP1 PUSH2 0x931 JUMP JUMPDEST PUSH1 0x40 MLOAD DUP1 SWAP2 SUB SWAP1 REVERT JUMPDEST PUSH0 PUSH1 0x14 SWAP1 SLOAD SWAP1 PUSH2 0x100 EXP SWAP1 DIV PUSH1 0xFF AND ISZERO PUSH2 0x1E5 JUMPI PUSH1 0x40 MLOAD PUSH32 0x8C379A000000000000000000000000000000000000000000000000000000000 DUP2 MSTORE PUSH1 0x4 ADD PUSH2 0x1DC SWAP1 PUSH2 0x999 JUMP JUMPDEST PUSH1 0x40 MLOAD DUP1 SWAP2 SUB SWAP1 REVERT JUMPDEST PUSH1 0x1 PUSH0 PUSH1 0x14 PUSH2 0x100 EXP DUP2 SLOAD DUP2 PUSH1 0xFF MUL NOT AND SWAP1 DUP4 ISZERO ISZERO MUL OR SWAP1 SSTORE POP PUSH0 PUSH0 PUSH1 0x5 PUSH0 PUSH1 0x1 PUSH0 SWAP1 SLOAD SWAP1 PUSH2 0x100 EXP SWAP1 DIV PUSH20 0xFFFFFFFFFFFFFFFFFFFFFFFFFFFFFFFFFFFFFFFF AND PUSH20 0xFFFFFFFFFFFFFFFFFFFFFFFFFFFFFFFFFFFFFFFF AND PUSH20 0xFFFFFFFFFFFFFFFFFFFFFFFFFFFFFFFFFFFFFFFF AND DUP2 MSTORE PUSH1 0x20 ADD SWAP1 DUP2 MSTORE PUSH1 0x20 ADD PUSH0 KECCAK256 SLOAD GT PUSH2 0x26C JUMPI PUSH1 0xA PUSH2 0x2CC JUMP JUMPDEST PUSH1 0x5 PUSH0 PUSH1 0x1 PUSH0 SWAP1 SLOAD SWAP1 PUSH2 0x100 EXP SWAP1 DIV PUSH20 0xFFFFFFFFFFFFFFFFFFFFFFFFFFFFFFFFFFFFFFFF AND PUSH20 0xFFFFFFFFFFFFFFFFFFFFFFFFFFFFFFFFFFFFFFFF AND PUSH20 0xFFFFFFFFFFFFFFFFFFFFFFFFFFFFFFFFFFFFFFFF AND DUP2 MSTORE PUSH1 0x20 ADD SWAP1 DUP2 MSTORE PUSH1 0x20 ADD PUSH0 KECCAK256 SLOAD JUMPDEST SWAP1 POP PUSH2 0x2D9 DUP4 DUP4 DUP4 PUSH2 0x406 JUMP JUMPDEST POP PUSH0 PUSH0 PUSH1 0x14 PUSH2 0x100 EXP DUP2 SLOAD DUP2 PUSH1 0xFF MUL NOT AND SWAP1 DUP4 ISZERO ISZERO MUL OR SWAP1 SSTORE POP POP POP JUMP JUMPDEST PUSH0 PUSH0 SWAP1 SLOAD SWAP1 PUSH2 0x100 EXP SWAP1 DIV PUSH20 0xFFFFFFFFFFFFFFFFFFFFFFFFFFFFFFFFFFFFFFFF AND PUSH20 0xFFFFFFFFFFFFFFFFFFFFFFFFFFFFFFFFFFFFFFFF AND CALLER PUSH20 0xFFFFFFFFFFFFFFFFFFFFFFFFFFFFFFFFFFFFFFFF AND EQ PUSH2 0x385 JUMPI PUSH1 0x40 MLOAD PUSH32 0x8C379A000000000000000000000000000000000000000000000000000000000 DUP2 MSTORE PUSH1 0x4 ADD PUSH2 0x37C SWAP1 PUSH2 0x931 JUMP JUMPDEST PUSH1 0x40 MLOAD DUP1 SWAP2 SUB SWAP1 REVERT JUMPDEST DUP1 PUSH1 0x5 PUSH0 DUP5 PUSH20 0xFFFFFFFFFFFFFFFFFFFFFFFFFFFFFFFFFFFFFFFF AND PUSH20 0xFFFFFFFFFFFFFFFFFFFFFFFFFFFFFFFFFFFFFFFF AND DUP2 MSTORE PUSH1 0x20 ADD SWAP1 DUP2 MSTORE PUSH1 0x20 ADD PUSH0 KECCAK256 DUP2 SWAP1 SSTORE POP POP POP JUMP JUMPDEST PUSH32 0xE1FFFCC4923D04B559F4D29A8BFC6CDA04EB5B0D3C460751C2402C5C5CC9109C CALLER CALLVALUE PUSH1 0x40 MLOAD PUSH2 0x3FC SWAP3 SWAP2 SWAP1 PUSH2 0x7CA JUMP JUMPDEST PUSH1 0x40 MLOAD DUP1 SWAP2 SUB SWAP1 LOG1 JUMP JUMPDEST PUSH0 PUSH0 SWAP1 SLOAD SWAP1 PUSH2 0x100 EXP SWAP1 DIV PUSH20 0xFFFFFFFFFFFFFFFFFFFFFFFFFFFFFFFFFFFFFFFF AND PUSH20 0xFFFFFFFFFFFFFFFFFFFFFFFFFFFFFFFFFFFFFFFF AND CALLER PUSH20 0xFFFFFFFFFFFFFFFFFFFFFFFFFFFFFFFFFFFFFFFF AND EQ PUSH2 0x494 JUMPI PUSH1 0x40 MLOAD PUSH32 0x8C379A000000000000000000000000000000000000000000000000000000000 DUP2 MSTORE PUSH1 0x4 ADD PUSH2 0x48B SWAP1 PUSH2 0x931 JUMP JUMPDEST PUSH1 0x40 MLOAD DUP1 SWAP2 SUB SWAP1 REVERT JUMPDEST PUSH0 PUSH8 0xDE0B6B3A7640000 DUP4 PUSH2 0x4A9 SWAP2 SWAP1 PUSH2 0x9E4 JUMP JUMPDEST SWAP1 POP PUSH0 PUSH1 0x64 DUP4 DUP4 PUSH2 0x4BA SWAP2 SWAP1 PUSH2 0x9E4 JUMP JUMPDEST PUSH2 0x4C4 SWAP2 SWAP1 PUSH2 0xA52 JUMP JUMPDEST SWAP1 POP PUSH0 PUSH1 0x64 PUSH1 0x4 SLOAD DUP5 PUSH2 0x4D7 SWAP2 SWAP1 PUSH2 0x9E4 JUMP JUMPDEST PUSH2 0x4E1 SWAP2 SWAP1 PUSH2 0xA52 JUMP JUMPDEST SWAP1 POP PUSH0 DUP2 DUP4 PUSH2 0x4F0 SWAP2 SWAP1 PUSH2 0xA82 JUMP JUMPDEST DUP5 PUSH2 0x4FB SWAP2 SWAP1 PUSH2 0xAB5 JUMP JUMPDEST SWAP1 POP PUSH0 PUSH1 0x1 PUSH0 SWAP1 SLOAD SWAP1 PUSH2 0x100 EXP SWAP1 DIV PUSH20 0xFFFFFFFFFFFFFFFFFFFFFFFFFFFFFFFFFFFFFFFF AND PUSH20 0xFFFFFFFFFFFFFFFFFFFFFFFFFFFFFFFFFFFFFFFF AND DUP5 PUSH1 0x40 MLOAD PUSH2 0x543 SWAP1 PUSH2 0xB15 JUMP JUMPDEST PUSH0 PUSH1 0x40 MLOAD DUP1 DUP4 SUB DUP2 DUP6 DUP8 GAS CALL SWAP3 POP POP POP RETURNDATASIZE DUP1 PUSH0 DUP2 EQ PUSH2 0x57D JUMPI PUSH1 0x40 MLOAD SWAP2 POP PUSH1 0x1F NOT PUSH1 0x3F RETURNDATASIZE ADD AND DUP3 ADD PUSH1 0x40 MSTORE RETURNDATASIZE DUP3 MSTORE RETURNDATASIZE PUSH0 PUSH1 0x20 DUP5 ADD RETURNDATACOPY PUSH2 0x582 JUMP JUMPDEST PUSH1 0x60 SWAP2 POP JUMPDEST POP POP SWAP1 POP DUP1 PUSH2 0x58F JUMPI PUSH0 PUSH0 REVERT JUMPDEST PUSH0 PUSH1 0x2 PUSH0 SWAP1 SLOAD SWAP1 PUSH2 0x100 EXP SWAP1 DIV PUSH20 0xFFFFFFFFFFFFFFFFFFFFFFFFFFFFFFFFFFFFFFFF AND PUSH20 0xFFFFFFFFFFFFFFFFFFFFFFFFFFFFFFFFFFFFFFFF AND DUP5 PUSH1 0x40 MLOAD PUSH2 0x5D5 SWAP1 PUSH2 0xB15 JUMP JUMPDEST PUSH0 PUSH1 0x40 MLOAD DUP1 DUP4 SUB DUP2 DUP6 DUP8 GAS CALL SWAP3 POP POP POP RETURNDATASIZE DUP1 PUSH0 DUP2 EQ PUSH2 0x60F JUMPI PUSH1 0x40 MLOAD SWAP2 POP PUSH1 0x1F NOT PUSH1 0x3F RETURNDATASIZE ADD AND DUP3 ADD PUSH1 0x40 MSTORE RETURNDATASIZE DUP3 MSTORE RETURNDATASIZE PUSH0 PUSH1 0x20 DUP5 ADD RETURNDATACOPY PUSH2 0x614 JUMP JUMPDEST PUSH1 0x60 SWAP2 POP JUMPDEST POP POP SWAP1 POP DUP1 PUSH2 0x621 JUMPI PUSH0 PUSH0 REVERT JUMPDEST PUSH2 0x62B DUP10 DUP5 PUSH2 0x636 JUMP JUMPDEST POP POP POP POP POP POP POP POP POP JUMP JUMPDEST PUSH0 PUSH0 SWAP1 SLOAD SWAP1 PUSH2 0x100 EXP SWAP1 DIV PUSH20 0xFFFFFFFFFFFFFFFFFFFFFFFFFFFFFFFFFFFFFFFF AND PUSH20 0xFFFFFFFFFFFFFFFFFFFFFFFFFFFFFFFFFFFFFFFF AND CALLER PUSH20 0xFFFFFFFFFFFFFFFFFFFFFFFFFFFFFFFFFFFFFFFF AND EQ PUSH2 0x6C4 JUMPI PUSH1 0x40 MLOAD PUSH32 0x8C379A000000000000000000000000000000000000000000000000000000000 DUP2 MSTORE PUSH1 0x4 ADD PUSH2 0x6BB SWAP1 PUSH2 0x931 JUMP JUMPDEST PUSH1 0x40 MLOAD DUP1 SWAP2 SUB SWAP1 REVERT JUMPDEST PUSH0 DUP3 PUSH20 0xFFFFFFFFFFFFFFFFFFFFFFFFFFFFFFFFFFFFFFFF AND DUP3 PUSH1 0x40 MLOAD PUSH2 0x6E9 SWAP1 PUSH2 0xB15 JUMP JUMPDEST PUSH0 PUSH1 0x40 MLOAD DUP1 DUP4 SUB DUP2 DUP6 DUP8 GAS CALL SWAP3 POP POP POP RETURNDATASIZE DUP1 PUSH0 DUP2 EQ PUSH2 0x723 JUMPI PUSH1 0x40 MLOAD SWAP2 POP PUSH1 0x1F NOT PUSH1 0x3F RETURNDATASIZE ADD AND DUP3 ADD PUSH1 0x40 MSTORE RETURNDATASIZE DUP3 MSTORE RETURNDATASIZE PUSH0 PUSH1 0x20 DUP5 ADD RETURNDATACOPY PUSH2 0x728 JUMP JUMPDEST PUSH1 0x60 SWAP2 POP JUMPDEST POP POP SWAP1 POP DUP1 PUSH2 0x735 JUMPI PUSH0 PUSH0 REVERT JUMPDEST PUSH32 0xF6334794522B9DB534A812AAAE1AF828A2E96AAC68473B58E36D7D0BFD67477B DUP4 DUP4 PUSH1 0x40 MLOAD PUSH2 0x766 SWAP3 SWAP2 SWAP1 PUSH2 0x7CA JUMP JUMPDEST PUSH1 0x40 MLOAD DUP1 SWAP2 SUB SWAP1 LOG1 POP POP POP JUMP JUMPDEST PUSH0 PUSH20 0xFFFFFFFFFFFFFFFFFFFFFFFFFFFFFFFFFFFFFFFF DUP3 AND SWAP1 POP SWAP2 SWAP1 POP JUMP JUMPDEST PUSH0 PUSH2 0x79C DUP3 PUSH2 0x773 JUMP JUMPDEST SWAP1 POP SWAP2 SWAP1 POP JUMP JUMPDEST PUSH2 0x7AC DUP2 PUSH2 0x792 JUMP JUMPDEST DUP3 MSTORE POP POP JUMP JUMPDEST PUSH0 DUP2 SWAP1 POP SWAP2 SWAP1 POP JUMP JUMPDEST PUSH2 0x7C4 DUP2 PUSH2 0x7B2 JUMP JUMPDEST DUP3 MSTORE POP POP JUMP JUMPDEST PUSH0 PUSH1 0x40 DUP3 ADD SWAP1 POP PUSH2 0x7DD PUSH0 DUP4 ADD DUP6 PUSH2 0x7A3 JUMP JUMPDEST PUSH2 0x7EA PUSH1 0x20 DUP4 ADD DUP5 PUSH2 0x7BB JUMP JUMPDEST SWAP4 SWAP3 POP POP POP JUMP JUMPDEST PUSH0 PUSH0 REVERT JUMPDEST PUSH2 0x7FE DUP2 PUSH2 0x792 JUMP JUMPDEST DUP2 EQ PUSH2 0x808 JUMPI PUSH0 PUSH0 REVERT JUMPDEST POP JUMP JUMPDEST PUSH0 DUP2 CALLDATALOAD SWAP1 POP PUSH2 0x819 DUP2 PUSH2 0x7F5 JUMP JUMPDEST SWAP3 SWAP2 POP POP JUMP JUMPDEST PUSH2 0x828 DUP2 PUSH2 0x7B2 JUMP JUMPDEST DUP2 EQ PUSH2 0x832 JUMPI PUSH0 PUSH0 REVERT JUMPDEST POP JUMP JUMPDEST PUSH0 DUP2 CALLDATALOAD SWAP1 POP PUSH2 0x843 DUP2 PUSH2 0x81F JUMP JUMPDEST SWAP3 SWAP2 POP POP JUMP JUMPDEST PUSH0 PUSH0 PUSH1 0x40 DUP4 DUP6 SUB SLT ISZERO PUSH2 0x85F JUMPI PUSH2 0x85E PUSH2 0x7F1 JUMP JUMPDEST JUMPDEST PUSH0 PUSH2 0x86C DUP6 DUP3 DUP7 ADD PUSH2 0x80B JUMP JUMPDEST SWAP3 POP POP PUSH1 0x20 PUSH2 0x87D DUP6 DUP3 DUP7 ADD PUSH2 0x835 JUMP JUMPDEST SWAP2 POP POP SWAP3 POP SWAP3 SWAP1 POP JUMP JUMPDEST PUSH0 PUSH0 PUSH0 PUSH1 0x60 DUP5 DUP7 SUB SLT ISZERO PUSH2 0x89E JUMPI PUSH2 0x89D PUSH2 0x7F1 JUMP JUMPDEST JUMPDEST PUSH0 PUSH2 0x8AB DUP7 DUP3 DUP8 ADD PUSH2 0x80B JUMP JUMPDEST SWAP4 POP POP PUSH1 0x20 PUSH2 0x8BC DUP7 DUP3 DUP8 ADD PUSH2 0x835 JUMP JUMPDEST SWAP3 POP POP PUSH1 0x40 PUSH2 0x8CD DUP7 DUP3 DUP8 ADD PUSH2 0x835 JUMP JUMPDEST SWAP2 POP POP SWAP3 POP SWAP3 POP SWAP3 JUMP JUMPDEST PUSH0 DUP3 DUP3 MSTORE PUSH1 0x20 DUP3 ADD SWAP1 POP SWAP3 SWAP2 POP POP JUMP JUMPDEST PUSH32 0x4E6F74204F776E65720000000000000000000000000000000000000000000000 PUSH0 DUP3 ADD MSTORE POP JUMP JUMPDEST PUSH0 PUSH2 0x91B PUSH1 0x9 DUP4 PUSH2 0x8D7 JUMP JUMPDEST SWAP2 POP PUSH2 0x926 DUP3 PUSH2 0x8E7 JUMP JUMPDEST PUSH1 0x20 DUP3 ADD SWAP1 POP SWAP2 SWAP1 POP JUMP JUMPDEST PUSH0 PUSH1 0x20 DUP3 ADD SWAP1 POP DUP2 DUP2 SUB PUSH0 DUP4 ADD MSTORE PUSH2 0x948 DUP2 PUSH2 0x90F JUMP JUMPDEST SWAP1 POP SWAP2 SWAP1 POP JUMP JUMPDEST PUSH32 0x5265656E7472616E637900000000000000000000000000000000000000000000 PUSH0 DUP3 ADD MSTORE POP JUMP JUMPDEST PUSH0 PUSH2 0x983 PUSH1 0xA DUP4 PUSH2 0x8D7 JUMP JUMPDEST SWAP2 POP PUSH2 0x98E DUP3 PUSH2 0x94F JUMP JUMPDEST PUSH1 0x20 DUP3 ADD SWAP1 POP SWAP2 SWAP1 POP JUMP JUMPDEST PUSH0 PUSH1 0x20 DUP3 ADD SWAP1 POP DUP2 DUP2 SUB PUSH0 DUP4 ADD MSTORE PUSH2 0x9B0 DUP2 PUSH2 0x977 JUMP JUMPDEST SWAP1 POP SWAP2 SWAP1 POP JUMP JUMPDEST PUSH32 0x4E487B7100000000000000000000000000000000000000000000000000000000 PUSH0 MSTORE PUSH1 0x11 PUSH1 0x4 MSTORE PUSH1 0x24 PUSH0 REVERT JUMPDEST PUSH0 PUSH2 0x9EE DUP3 PUSH2 0x7B2 JUMP JUMPDEST SWAP2 POP PUSH2 0x9F9 DUP4 PUSH2 0x7B2 JUMP JUMPDEST SWAP3 POP DUP3 DUP3 MUL PUSH2 0xA07 DUP2 PUSH2 0x7B2 JUMP JUMPDEST SWAP2 POP DUP3 DUP3 DIV DUP5 EQ DUP4 ISZERO OR PUSH2 0xA1E JUMPI PUSH2 0xA1D PUSH2 0x9B7 JUMP JUMPDEST JUMPDEST POP SWAP3 SWAP2 POP POP JUMP JUMPDEST PUSH32 0x4E487B7100000000000000000000000000000000000000000000000000000000 PUSH0 MSTORE PUSH1 0x12 PUSH1 0x4 MSTORE PUSH1 0x24 PUSH0 REVERT JUMPDEST PUSH0 PUSH2 0xA5C DUP3 PUSH2 0x7B2 JUMP JUMPDEST SWAP2 POP PUSH2 0xA67 DUP4 PUSH2 0x7B2 JUMP JUMPDEST SWAP3 POP DUP3 PUSH2 0xA77 JUMPI PUSH2 0xA76 PUSH2 0xA25 JUMP JUMPDEST JUMPDEST DUP3 DUP3 DIV SWAP1 POP SWAP3 SWAP2 POP POP JUMP JUMPDEST PUSH0 PUSH2 0xA8C DUP3 PUSH2 0x7B2 JUMP JUMPDEST SWAP2 POP PUSH2 0xA97 DUP4 PUSH2 0x7B2 JUMP JUMPDEST SWAP3 POP DUP3 DUP3 ADD SWAP1 POP DUP1 DUP3 GT ISZERO PUSH2 0xAAF JUMPI PUSH2 0xAAE PUSH2 0x9B7 JUMP JUMPDEST JUMPDEST SWAP3 SWAP2 POP POP JUMP JUMPDEST PUSH0 PUSH2 0xABF DUP3 PUSH2 0x7B2 JUMP JUMPDEST SWAP2 POP PUSH2 0xACA DUP4 PUSH2 0x7B2 JUMP JUMPDEST SWAP3 POP DUP3 DUP3 SUB SWAP1 POP DUP2 DUP2 GT ISZERO PUSH2 0xAE2 JUMPI PUSH2 0xAE1 PUSH2 0x9B7 JUMP JUMPDEST JUMPDEST SWAP3 SWAP2 POP POP JUMP JUMPDEST PUSH0 DUP2 SWAP1 POP SWAP3 SWAP2 POP POP JUMP JUMPDEST POP JUMP JUMPDEST PUSH0 PUSH2 0xB00 PUSH0 DUP4 PUSH2 0xAE8 JUMP JUMPDEST SWAP2 POP PUSH2 0xB0B DUP3 PUSH2 0xAF2 JUMP JUMPDEST PUSH0 DUP3 ADD SWAP1 POP SWAP2 SWAP1 POP JUMP JUMPDEST PUSH0 PUSH2 0xB1F DUP3 PUSH2 0xAF5 JUMP JUMPDEST SWAP2 POP DUP2 SWAP1 POP SWAP2 SWAP1 POP JUMP INVALID LOG2 PUSH5 0x6970667358 0x22 SLT KECCAK256 DATALOADN 0x8C3E PUSH7 0x2E8BBBED2A0249 CALLDATALOAD PUSH8 0x6E8658F7929B79BE 0x24 STATICCALL GASLIMIT STATICCALL DUP16 0xD8 REVERT 0xAE 0xB6 PUSH8 0x8D64736F6C634300 ADDMOD 0x1E STOP CALLER "
				},
				"gasEstimates": {
					"creation": {
						"codeDepositCost": "582200",
						"executionCost": "infinite",
						"totalCost": "infinite"
					},
					"external": {
						"deposit()": "1733",
						"release(address,uint256)": "infinite",
						"release(address,uint256,uint256)": "infinite",
						"setCustomRoyalty(address,uint256)": "24989"
					}
				},
				"methodIdentifiers": {
					"deposit()": "d0e30db0",
					"release(address,uint256)": "0357371d",
					"release(address,uint256,uint256)": "f297be66",
					"setCustomRoyalty(address,uint256)": "5892fad0"
				}
			},
			"storageLayout": {
				"storage": [
					{
						"astId": 3,
						"contract": "contracts/PHASE INHERITANCE/Payment Module.sol:RoyaltySplitterV2",
						"label": "owner",
						"offset": 0,
						"slot": "0",
						"type": "t_address"
					},
					{
						"astId": 5,
						"contract": "contracts/PHASE INHERITANCE/Payment Module.sol:RoyaltySplitterV2",
						"label": "locked",
						"offset": 20,
						"slot": "0",
						"type": "t_bool"
					},
					{
						"astId": 117,
						"contract": "contracts/PHASE INHERITANCE/Payment Module.sol:RoyaltySplitterV2",
						"label": "artist",
						"offset": 0,
						"slot": "1",
						"type": "t_address"
					},
					{
						"astId": 119,
						"contract": "contracts/PHASE INHERITANCE/Payment Module.sol:RoyaltySplitterV2",
						"label": "platform",
						"offset": 0,
						"slot": "2",
						"type": "t_address"
					},
					{
						"astId": 121,
						"contract": "contracts/PHASE INHERITANCE/Payment Module.sol:RoyaltySplitterV2",
						"label": "artistShare",
						"offset": 0,
						"slot": "3",
						"type": "t_uint256"
					},
					{
						"astId": 123,
						"contract": "contracts/PHASE INHERITANCE/Payment Module.sol:RoyaltySplitterV2",
						"label": "platformShare",
						"offset": 0,
						"slot": "4",
						"type": "t_uint256"
					},
					{
						"astId": 230,
						"contract": "contracts/PHASE INHERITANCE/Payment Module.sol:RoyaltySplitterV2",
						"label": "customArtistShare",
						"offset": 0,
						"slot": "5",
						"type": "t_mapping(t_address,t_uint256)"
					}
				],
				"types": {
					"t_address": {
						"encoding": "inplace",
						"label": "address",
						"numberOfBytes": "20"
					},
					"t_bool": {
						"encoding": "inplace",
						"label": "bool",
						"numberOfBytes": "1"
					},
					"t_mapping(t_address,t_uint256)": {
						"encoding": "mapping",
						"key": "t_address",
						"label": "mapping(address => uint256)",
						"numberOfBytes": "32",
						"value": "t_uint256"
					},
					"t_uint256": {
						"encoding": "inplace",
						"label": "uint256",
						"numberOfBytes": "32"
					}
				}
			},
			"userdoc": {
				"kind": "user",
				"methods": {},
				"version": 1
			}
		}
	}
}