{
	"contracts/PHASE INHERITANCE/Multi-tiered subscription.sol": {
		"PaymentModule": {
			"abi": [
				{
					"inputs": [],
					"stateMutability": "nonpayable",
					"type": "constructor"
				},
				{
					"anonymous": false,
					"inputs": [
						{
							"indexed": false,
							"internalType": "address",
							"name": "sender",
							"type": "address"
						},
						{
							"indexed": false,
							"internalType": "uint256",
							"name": "value",
							"type": "uint256"
						}
					],
					"name": "Deposit",
					"type": "event"
				},
				{
					"anonymous": false,
					"inputs": [
						{
							"indexed": false,
							"internalType": "address",
							"name": "sender",
							"type": "address"
						},
						{
							"indexed": false,
							"internalType": "uint256",
							"name": "value",
							"type": "uint256"
						}
					],
					"name": "Receive",
					"type": "event"
				},
				{
					"anonymous": false,
					"inputs": [
						{
							"indexed": false,
							"internalType": "address",
							"name": "recipient",
							"type": "address"
						},
						{
							"indexed": false,
							"internalType": "uint256",
							"name": "value",
							"type": "uint256"
						}
					],
					"name": "Release",
					"type": "event"
				},
				{
					"inputs": [],
					"name": "deposit",
					"outputs": [],
					"stateMutability": "payable",
					"type": "function"
				},
				{
					"inputs": [
						{
							"internalType": "address",
							"name": "_to",
							"type": "address"
						},
						{
							"internalType": "uint256",
							"name": "_amount",
							"type": "uint256"
						}
					],
					"name": "release",
					"outputs": [],
					"stateMutability": "nonpayable",
					"type": "function"
				},
				{
					"stateMutability": "payable",
					"type": "receive"
				}
			],
			"devdoc": {
				"kind": "dev",
				"methods": {},
				"version": 1
			},
			"evm": {
				"assembly": "    /* \"contracts/PHASE INHERITANCE/Multi-tiered subscription.sol\":56:964  contract PaymentModule {... */\n  mstore(0x40, 0x80)\n    /* \"contracts/PHASE INHERITANCE/Multi-tiered subscription.sol\":286:343  constructor() {... */\n  callvalue\n  dup1\n  iszero\n  tag_1\n  jumpi\n  revert(0x00, 0x00)\ntag_1:\n  pop\n    /* \"contracts/PHASE INHERITANCE/Multi-tiered subscription.sol\":322:332  msg.sender */\n  caller\n    /* \"contracts/PHASE INHERITANCE/Multi-tiered subscription.sol\":314:319  owner */\n  0x00\n  0x00\n    /* \"contracts/PHASE INHERITANCE/Multi-tiered subscription.sol\":314:332  owner = msg.sender */\n  0x0100\n  exp\n  dup2\n  sload\n  dup2\n  0xffffffffffffffffffffffffffffffffffffffff\n  mul\n  not\n  and\n  swap1\n  dup4\n  0xffffffffffffffffffffffffffffffffffffffff\n  and\n  mul\n  or\n  swap1\n  sstore\n  pop\n    /* \"contracts/PHASE INHERITANCE/Multi-tiered subscription.sol\":56:964  contract PaymentModule {... */\n  dataSize(sub_0)\n  dup1\n  dataOffset(sub_0)\n  0x00\n  codecopy\n  0x00\n  return\nstop\n\nsub_0: assembly {\n        /* \"contracts/PHASE INHERITANCE/Multi-tiered subscription.sol\":56:964  contract PaymentModule {... */\n      mstore(0x40, 0x80)\n      jumpi(tag_1, lt(calldatasize, 0x04))\n      shr(0xe0, calldataload(0x00))\n      dup1\n      0x0357371d\n      eq\n      tag_3\n      jumpi\n      dup1\n      0xd0e30db0\n      eq\n      tag_4\n      jumpi\n      jump(tag_2)\n    tag_1:\n      jumpi(tag_2, calldatasize)\n        /* \"contracts/PHASE INHERITANCE/Multi-tiered subscription.sol\":727:757  Receive(msg.sender, msg.value) */\n      0xd6717f327e0cb88b4a97a7f67a453e9258252c34937ccbdd86de7cb840e7def3\n        /* \"contracts/PHASE INHERITANCE/Multi-tiered subscription.sol\":735:745  msg.sender */\n      caller\n        /* \"contracts/PHASE INHERITANCE/Multi-tiered subscription.sol\":747:756  msg.value */\n      callvalue\n        /* \"contracts/PHASE INHERITANCE/Multi-tiered subscription.sol\":727:757  Receive(msg.sender, msg.value) */\n      mload(0x40)\n      tag_7\n      swap3\n      swap2\n      swap1\n      tag_8\n      jump\t// in\n    tag_7:\n      mload(0x40)\n      dup1\n      swap2\n      sub\n      swap1\n      log1\n        /* \"contracts/PHASE INHERITANCE/Multi-tiered subscription.sol\":56:964  contract PaymentModule {... */\n      stop\n    tag_2:\n      revert(0x00, 0x00)\n        /* \"contracts/PHASE INHERITANCE/Multi-tiered subscription.sol\":769:962  function release(address _to, uint _amount) public virtual onlyOwner{... */\n    tag_3:\n      callvalue\n      dup1\n      iszero\n      tag_9\n      jumpi\n      revert(0x00, 0x00)\n    tag_9:\n      pop\n      tag_10\n      0x04\n      dup1\n      calldatasize\n      sub\n      dup2\n      add\n      swap1\n      tag_11\n      swap2\n      swap1\n      tag_12\n      jump\t// in\n    tag_11:\n      tag_13\n      jump\t// in\n    tag_10:\n      stop\n        /* \"contracts/PHASE INHERITANCE/Multi-tiered subscription.sol\":594:680  function deposit() public payable {... */\n    tag_4:\n      tag_14\n      tag_15\n      jump\t// in\n    tag_14:\n      stop\n        /* \"contracts/PHASE INHERITANCE/Multi-tiered subscription.sol\":769:962  function release(address _to, uint _amount) public virtual onlyOwner{... */\n    tag_13:\n        /* \"contracts/PHASE INHERITANCE/Multi-tiered subscription.sol\":417:422  owner */\n      0x00\n      0x00\n      swap1\n      sload\n      swap1\n      0x0100\n      exp\n      swap1\n      div\n      0xffffffffffffffffffffffffffffffffffffffff\n      and\n        /* \"contracts/PHASE INHERITANCE/Multi-tiered subscription.sol\":403:422  msg.sender == owner */\n      0xffffffffffffffffffffffffffffffffffffffff\n      and\n        /* \"contracts/PHASE INHERITANCE/Multi-tiered subscription.sol\":403:413  msg.sender */\n      caller\n        /* \"contracts/PHASE INHERITANCE/Multi-tiered subscription.sol\":403:422  msg.sender == owner */\n      0xffffffffffffffffffffffffffffffffffffffff\n      and\n      eq\n        /* \"contracts/PHASE INHERITANCE/Multi-tiered subscription.sol\":395:436  require(msg.sender == owner, \"Not Owner\") */\n      tag_17\n      jumpi\n      mload(0x40)\n      0x08c379a000000000000000000000000000000000000000000000000000000000\n      dup2\n      mstore\n      0x04\n      add\n      tag_18\n      swap1\n      tag_19\n      jump\t// in\n    tag_18:\n      mload(0x40)\n      dup1\n      swap2\n      sub\n      swap1\n      revert\n    tag_17:\n        /* \"contracts/PHASE INHERITANCE/Multi-tiered subscription.sol\":848:860  bool success */\n      0x00\n        /* \"contracts/PHASE INHERITANCE/Multi-tiered subscription.sol\":866:869  _to */\n      dup3\n        /* \"contracts/PHASE INHERITANCE/Multi-tiered subscription.sol\":866:874  _to.call */\n      0xffffffffffffffffffffffffffffffffffffffff\n      and\n        /* \"contracts/PHASE INHERITANCE/Multi-tiered subscription.sol\":881:888  _amount */\n      dup3\n        /* \"contracts/PHASE INHERITANCE/Multi-tiered subscription.sol\":866:893  _to.call{value:_amount}(\"\") */\n      mload(0x40)\n      tag_21\n      swap1\n      tag_22\n      jump\t// in\n    tag_21:\n      0x00\n      mload(0x40)\n      dup1\n      dup4\n      sub\n      dup2\n      dup6\n      dup8\n      gas\n      call\n      swap3\n      pop\n      pop\n      pop\n      returndatasize\n      dup1\n      0x00\n      dup2\n      eq\n      tag_25\n      jumpi\n      mload(0x40)\n      swap2\n      pop\n      and(add(returndatasize, 0x3f), not(0x1f))\n      dup3\n      add\n      0x40\n      mstore\n      returndatasize\n      dup3\n      mstore\n      returndatasize\n      0x00\n      0x20\n      dup5\n      add\n      returndatacopy\n      jump(tag_24)\n    tag_25:\n      0x60\n      swap2\n      pop\n    tag_24:\n      pop\n        /* \"contracts/PHASE INHERITANCE/Multi-tiered subscription.sol\":847:893  (bool success, ) = _to.call{value:_amount}(\"\") */\n      pop\n      swap1\n      pop\n        /* \"contracts/PHASE INHERITANCE/Multi-tiered subscription.sol\":911:918  success */\n      dup1\n        /* \"contracts/PHASE INHERITANCE/Multi-tiered subscription.sol\":903:919  require(success) */\n      tag_26\n      jumpi\n      revert(0x00, 0x00)\n    tag_26:\n        /* \"contracts/PHASE INHERITANCE/Multi-tiered subscription.sol\":934:955  Release(_to, _amount) */\n      0xf6334794522b9db534a812aaae1af828a2e96aac68473b58e36d7d0bfd67477b\n        /* \"contracts/PHASE INHERITANCE/Multi-tiered subscription.sol\":942:945  _to */\n      dup4\n        /* \"contracts/PHASE INHERITANCE/Multi-tiered subscription.sol\":947:954  _amount */\n      dup4\n        /* \"contracts/PHASE INHERITANCE/Multi-tiered subscription.sol\":934:955  Release(_to, _amount) */\n      mload(0x40)\n      tag_27\n      swap3\n      swap2\n      swap1\n      tag_8\n      jump\t// in\n    tag_27:\n      mload(0x40)\n      dup1\n      swap2\n      sub\n      swap1\n      log1\n        /* \"contracts/PHASE INHERITANCE/Multi-tiered subscription.sol\":837:962  {... */\n      pop\n        /* \"contracts/PHASE INHERITANCE/Multi-tiered subscription.sol\":769:962  function release(address _to, uint _amount) public virtual onlyOwner{... */\n      pop\n      pop\n      jump\t// out\n        /* \"contracts/PHASE INHERITANCE/Multi-tiered subscription.sol\":594:680  function deposit() public payable {... */\n    tag_15:\n        /* \"contracts/PHASE INHERITANCE/Multi-tiered subscription.sol\":643:673  Deposit(msg.sender, msg.value) */\n      0xe1fffcc4923d04b559f4d29a8bfc6cda04eb5b0d3c460751c2402c5c5cc9109c\n        /* \"contracts/PHASE INHERITANCE/Multi-tiered subscription.sol\":651:661  msg.sender */\n      caller\n        /* \"contracts/PHASE INHERITANCE/Multi-tiered subscription.sol\":663:672  msg.value */\n      callvalue\n        /* \"contracts/PHASE INHERITANCE/Multi-tiered subscription.sol\":643:673  Deposit(msg.sender, msg.value) */\n      mload(0x40)\n      tag_29\n      swap3\n      swap2\n      swap1\n      tag_8\n      jump\t// in\n    tag_29:\n      mload(0x40)\n      dup1\n      swap2\n      sub\n      swap1\n      log1\n        /* \"contracts/PHASE INHERITANCE/Multi-tiered subscription.sol\":594:680  function deposit() public payable {... */\n      jump\t// out\n        /* \"#utility.yul\":7:133   */\n    tag_30:\n        /* \"#utility.yul\":44:51   */\n      0x00\n        /* \"#utility.yul\":84:126   */\n      0xffffffffffffffffffffffffffffffffffffffff\n        /* \"#utility.yul\":77:82   */\n      dup3\n        /* \"#utility.yul\":73:127   */\n      and\n        /* \"#utility.yul\":62:127   */\n      swap1\n      pop\n        /* \"#utility.yul\":7:133   */\n      swap2\n      swap1\n      pop\n      jump\t// out\n        /* \"#utility.yul\":139:235   */\n    tag_31:\n        /* \"#utility.yul\":176:183   */\n      0x00\n        /* \"#utility.yul\":205:229   */\n      tag_51\n        /* \"#utility.yul\":223:228   */\n      dup3\n        /* \"#utility.yul\":205:229   */\n      tag_30\n      jump\t// in\n    tag_51:\n        /* \"#utility.yul\":194:229   */\n      swap1\n      pop\n        /* \"#utility.yul\":139:235   */\n      swap2\n      swap1\n      pop\n      jump\t// out\n        /* \"#utility.yul\":241:359   */\n    tag_32:\n        /* \"#utility.yul\":328:352   */\n      tag_53\n        /* \"#utility.yul\":346:351   */\n      dup2\n        /* \"#utility.yul\":328:352   */\n      tag_31\n      jump\t// in\n    tag_53:\n        /* \"#utility.yul\":323:326   */\n      dup3\n        /* \"#utility.yul\":316:353   */\n      mstore\n        /* \"#utility.yul\":241:359   */\n      pop\n      pop\n      jump\t// out\n        /* \"#utility.yul\":365:442   */\n    tag_33:\n        /* \"#utility.yul\":402:409   */\n      0x00\n        /* \"#utility.yul\":431:436   */\n      dup2\n        /* \"#utility.yul\":420:436   */\n      swap1\n      pop\n        /* \"#utility.yul\":365:442   */\n      swap2\n      swap1\n      pop\n      jump\t// out\n        /* \"#utility.yul\":448:566   */\n    tag_34:\n        /* \"#utility.yul\":535:559   */\n      tag_56\n        /* \"#utility.yul\":553:558   */\n      dup2\n        /* \"#utility.yul\":535:559   */\n      tag_33\n      jump\t// in\n    tag_56:\n        /* \"#utility.yul\":530:533   */\n      dup3\n        /* \"#utility.yul\":523:560   */\n      mstore\n        /* \"#utility.yul\":448:566   */\n      pop\n      pop\n      jump\t// out\n        /* \"#utility.yul\":572:904   */\n    tag_8:\n        /* \"#utility.yul\":693:697   */\n      0x00\n        /* \"#utility.yul\":731:733   */\n      0x40\n        /* \"#utility.yul\":720:729   */\n      dup3\n        /* \"#utility.yul\":716:734   */\n      add\n        /* \"#utility.yul\":708:734   */\n      swap1\n      pop\n        /* \"#utility.yul\":744:815   */\n      tag_58\n        /* \"#utility.yul\":812:813   */\n      0x00\n        /* \"#utility.yul\":801:810   */\n      dup4\n        /* \"#utility.yul\":797:814   */\n      add\n        /* \"#utility.yul\":788:794   */\n      dup6\n        /* \"#utility.yul\":744:815   */\n      tag_32\n      jump\t// in\n    tag_58:\n        /* \"#utility.yul\":825:897   */\n      tag_59\n        /* \"#utility.yul\":893:895   */\n      0x20\n        /* \"#utility.yul\":882:891   */\n      dup4\n        /* \"#utility.yul\":878:896   */\n      add\n        /* \"#utility.yul\":869:875   */\n      dup5\n        /* \"#utility.yul\":825:897   */\n      tag_34\n      jump\t// in\n    tag_59:\n        /* \"#utility.yul\":572:904   */\n      swap4\n      swap3\n      pop\n      pop\n      pop\n      jump\t// out\n        /* \"#utility.yul\":991:1108   */\n    tag_36:\n        /* \"#utility.yul\":1100:1101   */\n      0x00\n        /* \"#utility.yul\":1097:1098   */\n      0x00\n        /* \"#utility.yul\":1090:1102   */\n      revert\n        /* \"#utility.yul\":1237:1359   */\n    tag_38:\n        /* \"#utility.yul\":1310:1334   */\n      tag_64\n        /* \"#utility.yul\":1328:1333   */\n      dup2\n        /* \"#utility.yul\":1310:1334   */\n      tag_31\n      jump\t// in\n    tag_64:\n        /* \"#utility.yul\":1303:1308   */\n      dup2\n        /* \"#utility.yul\":1300:1335   */\n      eq\n        /* \"#utility.yul\":1290:1353   */\n      tag_65\n      jumpi\n        /* \"#utility.yul\":1349:1350   */\n      0x00\n        /* \"#utility.yul\":1346:1347   */\n      0x00\n        /* \"#utility.yul\":1339:1351   */\n      revert\n        /* \"#utility.yul\":1290:1353   */\n    tag_65:\n        /* \"#utility.yul\":1237:1359   */\n      pop\n      jump\t// out\n        /* \"#utility.yul\":1365:1504   */\n    tag_39:\n        /* \"#utility.yul\":1411:1416   */\n      0x00\n        /* \"#utility.yul\":1449:1455   */\n      dup2\n        /* \"#utility.yul\":1436:1456   */\n      calldataload\n        /* \"#utility.yul\":1427:1456   */\n      swap1\n      pop\n        /* \"#utility.yul\":1465:1498   */\n      tag_67\n        /* \"#utility.yul\":1492:1497   */\n      dup2\n        /* \"#utility.yul\":1465:1498   */\n      tag_38\n      jump\t// in\n    tag_67:\n        /* \"#utility.yul\":1365:1504   */\n      swap3\n      swap2\n      pop\n      pop\n      jump\t// out\n        /* \"#utility.yul\":1510:1632   */\n    tag_40:\n        /* \"#utility.yul\":1583:1607   */\n      tag_69\n        /* \"#utility.yul\":1601:1606   */\n      dup2\n        /* \"#utility.yul\":1583:1607   */\n      tag_33\n      jump\t// in\n    tag_69:\n        /* \"#utility.yul\":1576:1581   */\n      dup2\n        /* \"#utility.yul\":1573:1608   */\n      eq\n        /* \"#utility.yul\":1563:1626   */\n      tag_70\n      jumpi\n        /* \"#utility.yul\":1622:1623   */\n      0x00\n        /* \"#utility.yul\":1619:1620   */\n      0x00\n        /* \"#utility.yul\":1612:1624   */\n      revert\n        /* \"#utility.yul\":1563:1626   */\n    tag_70:\n        /* \"#utility.yul\":1510:1632   */\n      pop\n      jump\t// out\n        /* \"#utility.yul\":1638:1777   */\n    tag_41:\n        /* \"#utility.yul\":1684:1689   */\n      0x00\n        /* \"#utility.yul\":1722:1728   */\n      dup2\n        /* \"#utility.yul\":1709:1729   */\n      calldataload\n        /* \"#utility.yul\":1700:1729   */\n      swap1\n      pop\n        /* \"#utility.yul\":1738:1771   */\n      tag_72\n        /* \"#utility.yul\":1765:1770   */\n      dup2\n        /* \"#utility.yul\":1738:1771   */\n      tag_40\n      jump\t// in\n    tag_72:\n        /* \"#utility.yul\":1638:1777   */\n      swap3\n      swap2\n      pop\n      pop\n      jump\t// out\n        /* \"#utility.yul\":1783:2257   */\n    tag_12:\n        /* \"#utility.yul\":1851:1857   */\n      0x00\n        /* \"#utility.yul\":1859:1865   */\n      0x00\n        /* \"#utility.yul\":1908:1910   */\n      0x40\n        /* \"#utility.yul\":1896:1905   */\n      dup4\n        /* \"#utility.yul\":1887:1894   */\n      dup6\n        /* \"#utility.yul\":1883:1906   */\n      sub\n        /* \"#utility.yul\":1879:1911   */\n      slt\n        /* \"#utility.yul\":1876:1995   */\n      iszero\n      tag_74\n      jumpi\n        /* \"#utility.yul\":1914:1993   */\n      tag_75\n      tag_36\n      jump\t// in\n    tag_75:\n        /* \"#utility.yul\":1876:1995   */\n    tag_74:\n        /* \"#utility.yul\":2034:2035   */\n      0x00\n        /* \"#utility.yul\":2059:2112   */\n      tag_76\n        /* \"#utility.yul\":2104:2111   */\n      dup6\n        /* \"#utility.yul\":2095:2101   */\n      dup3\n        /* \"#utility.yul\":2084:2093   */\n      dup7\n        /* \"#utility.yul\":2080:2102   */\n      add\n        /* \"#utility.yul\":2059:2112   */\n      tag_39\n      jump\t// in\n    tag_76:\n        /* \"#utility.yul\":2049:2112   */\n      swap3\n      pop\n        /* \"#utility.yul\":2005:2122   */\n      pop\n        /* \"#utility.yul\":2161:2163   */\n      0x20\n        /* \"#utility.yul\":2187:2240   */\n      tag_77\n        /* \"#utility.yul\":2232:2239   */\n      dup6\n        /* \"#utility.yul\":2223:2229   */\n      dup3\n        /* \"#utility.yul\":2212:2221   */\n      dup7\n        /* \"#utility.yul\":2208:2230   */\n      add\n        /* \"#utility.yul\":2187:2240   */\n      tag_41\n      jump\t// in\n    tag_77:\n        /* \"#utility.yul\":2177:2240   */\n      swap2\n      pop\n        /* \"#utility.yul\":2132:2250   */\n      pop\n        /* \"#utility.yul\":1783:2257   */\n      swap3\n      pop\n      swap3\n      swap1\n      pop\n      jump\t// out\n        /* \"#utility.yul\":2263:2432   */\n    tag_42:\n        /* \"#utility.yul\":2347:2358   */\n      0x00\n        /* \"#utility.yul\":2381:2387   */\n      dup3\n        /* \"#utility.yul\":2376:2379   */\n      dup3\n        /* \"#utility.yul\":2369:2388   */\n      mstore\n        /* \"#utility.yul\":2421:2425   */\n      0x20\n        /* \"#utility.yul\":2416:2419   */\n      dup3\n        /* \"#utility.yul\":2412:2426   */\n      add\n        /* \"#utility.yul\":2397:2426   */\n      swap1\n      pop\n        /* \"#utility.yul\":2263:2432   */\n      swap3\n      swap2\n      pop\n      pop\n      jump\t// out\n        /* \"#utility.yul\":2438:2597   */\n    tag_43:\n        /* \"#utility.yul\":2578:2589   */\n      0x4e6f74204f776e65720000000000000000000000000000000000000000000000\n        /* \"#utility.yul\":2574:2575   */\n      0x00\n        /* \"#utility.yul\":2566:2572   */\n      dup3\n        /* \"#utility.yul\":2562:2576   */\n      add\n        /* \"#utility.yul\":2555:2590   */\n      mstore\n        /* \"#utility.yul\":2438:2597   */\n      pop\n      jump\t// out\n        /* \"#utility.yul\":2603:2968   */\n    tag_44:\n        /* \"#utility.yul\":2745:2748   */\n      0x00\n        /* \"#utility.yul\":2766:2832   */\n      tag_81\n        /* \"#utility.yul\":2830:2831   */\n      0x09\n        /* \"#utility.yul\":2825:2828   */\n      dup4\n        /* \"#utility.yul\":2766:2832   */\n      tag_42\n      jump\t// in\n    tag_81:\n        /* \"#utility.yul\":2759:2832   */\n      swap2\n      pop\n        /* \"#utility.yul\":2841:2934   */\n      tag_82\n        /* \"#utility.yul\":2930:2933   */\n      dup3\n        /* \"#utility.yul\":2841:2934   */\n      tag_43\n      jump\t// in\n    tag_82:\n        /* \"#utility.yul\":2959:2961   */\n      0x20\n        /* \"#utility.yul\":2954:2957   */\n      dup3\n        /* \"#utility.yul\":2950:2962   */\n      add\n        /* \"#utility.yul\":2943:2962   */\n      swap1\n      pop\n        /* \"#utility.yul\":2603:2968   */\n      swap2\n      swap1\n      pop\n      jump\t// out\n        /* \"#utility.yul\":2974:3393   */\n    tag_19:\n        /* \"#utility.yul\":3140:3144   */\n      0x00\n        /* \"#utility.yul\":3178:3180   */\n      0x20\n        /* \"#utility.yul\":3167:3176   */\n      dup3\n        /* \"#utility.yul\":3163:3181   */\n      add\n        /* \"#utility.yul\":3155:3181   */\n      swap1\n      pop\n        /* \"#utility.yul\":3227:3236   */\n      dup2\n        /* \"#utility.yul\":3221:3225   */\n      dup2\n        /* \"#utility.yul\":3217:3237   */\n      sub\n        /* \"#utility.yul\":3213:3214   */\n      0x00\n        /* \"#utility.yul\":3202:3211   */\n      dup4\n        /* \"#utility.yul\":3198:3215   */\n      add\n        /* \"#utility.yul\":3191:3238   */\n      mstore\n        /* \"#utility.yul\":3255:3386   */\n      tag_84\n        /* \"#utility.yul\":3381:3385   */\n      dup2\n        /* \"#utility.yul\":3255:3386   */\n      tag_44\n      jump\t// in\n    tag_84:\n        /* \"#utility.yul\":3247:3386   */\n      swap1\n      pop\n        /* \"#utility.yul\":2974:3393   */\n      swap2\n      swap1\n      pop\n      jump\t// out\n        /* \"#utility.yul\":3399:3546   */\n    tag_45:\n        /* \"#utility.yul\":3500:3511   */\n      0x00\n        /* \"#utility.yul\":3537:3540   */\n      dup2\n        /* \"#utility.yul\":3522:3540   */\n      swap1\n      pop\n        /* \"#utility.yul\":3399:3546   */\n      swap3\n      swap2\n      pop\n      pop\n      jump\t// out\n        /* \"#utility.yul\":3552:3666   */\n    tag_46:\n      pop\n      jump\t// out\n        /* \"#utility.yul\":3672:4070   */\n    tag_47:\n        /* \"#utility.yul\":3831:3834   */\n      0x00\n        /* \"#utility.yul\":3852:3935   */\n      tag_88\n        /* \"#utility.yul\":3933:3934   */\n      0x00\n        /* \"#utility.yul\":3928:3931   */\n      dup4\n        /* \"#utility.yul\":3852:3935   */\n      tag_45\n      jump\t// in\n    tag_88:\n        /* \"#utility.yul\":3845:3935   */\n      swap2\n      pop\n        /* \"#utility.yul\":3944:4037   */\n      tag_89\n        /* \"#utility.yul\":4033:4036   */\n      dup3\n        /* \"#utility.yul\":3944:4037   */\n      tag_46\n      jump\t// in\n    tag_89:\n        /* \"#utility.yul\":4062:4063   */\n      0x00\n        /* \"#utility.yul\":4057:4060   */\n      dup3\n        /* \"#utility.yul\":4053:4064   */\n      add\n        /* \"#utility.yul\":4046:4064   */\n      swap1\n      pop\n        /* \"#utility.yul\":3672:4070   */\n      swap2\n      swap1\n      pop\n      jump\t// out\n        /* \"#utility.yul\":4076:4455   */\n    tag_22:\n        /* \"#utility.yul\":4260:4263   */\n      0x00\n        /* \"#utility.yul\":4282:4429   */\n      tag_91\n        /* \"#utility.yul\":4425:4428   */\n      dup3\n        /* \"#utility.yul\":4282:4429   */\n      tag_47\n      jump\t// in\n    tag_91:\n        /* \"#utility.yul\":4275:4429   */\n      swap2\n      pop\n        /* \"#utility.yul\":4446:4449   */\n      dup2\n        /* \"#utility.yul\":4439:4449   */\n      swap1\n      pop\n        /* \"#utility.yul\":4076:4455   */\n      swap2\n      swap1\n      pop\n      jump\t// out\n\n    auxdata: 0xa2646970667358221220c5ff47c6619eca22f6bc3a6b20c054d22ea9c09a52fb3cb3bc879879028a7a9c64736f6c634300081e0033\n}\n",
				"bytecode": {
					"linkReferences": {},
					"object": "6080604052348015600e575f5ffd5b50335f5f6101000a81548173ffffffffffffffffffffffffffffffffffffffff021916908373ffffffffffffffffffffffffffffffffffffffff16021790555061041d8061005b5f395ff3fe60806040526004361061002c575f3560e01c80630357371d14610070578063d0e30db0146100985761006c565b3661006c577fd6717f327e0cb88b4a97a7f67a453e9258252c34937ccbdd86de7cb840e7def33334604051610062929190610271565b60405180910390a1005b5f5ffd5b34801561007b575f5ffd5b50610096600480360381019061009191906102f0565b6100a2565b005b6100a06101df565b005b5f5f9054906101000a900473ffffffffffffffffffffffffffffffffffffffff1673ffffffffffffffffffffffffffffffffffffffff163373ffffffffffffffffffffffffffffffffffffffff1614610130576040517f08c379a000000000000000000000000000000000000000000000000000000000815260040161012790610388565b60405180910390fd5b5f8273ffffffffffffffffffffffffffffffffffffffff1682604051610155906103d3565b5f6040518083038185875af1925050503d805f811461018f576040519150601f19603f3d011682016040523d82523d5f602084013e610194565b606091505b50509050806101a1575f5ffd5b7ff6334794522b9db534a812aaae1af828a2e96aac68473b58e36d7d0bfd67477b83836040516101d2929190610271565b60405180910390a1505050565b7fe1fffcc4923d04b559f4d29a8bfc6cda04eb5b0d3c460751c2402c5c5cc9109c3334604051610210929190610271565b60405180910390a1565b5f73ffffffffffffffffffffffffffffffffffffffff82169050919050565b5f6102438261021a565b9050919050565b61025381610239565b82525050565b5f819050919050565b61026b81610259565b82525050565b5f6040820190506102845f83018561024a565b6102916020830184610262565b9392505050565b5f5ffd5b6102a581610239565b81146102af575f5ffd5b50565b5f813590506102c08161029c565b92915050565b6102cf81610259565b81146102d9575f5ffd5b50565b5f813590506102ea816102c6565b92915050565b5f5f6040838503121561030657610305610298565b5b5f610313858286016102b2565b9250506020610324858286016102dc565b9150509250929050565b5f82825260208201905092915050565b7f4e6f74204f776e657200000000000000000000000000000000000000000000005f82015250565b5f61037260098361032e565b915061037d8261033e565b602082019050919050565b5f6020820190508181035f83015261039f81610366565b9050919050565b5f81905092915050565b50565b5f6103be5f836103a6565b91506103c9826103b0565b5f82019050919050565b5f6103dd826103b3565b915081905091905056fea2646970667358221220c5ff47c6619eca22f6bc3a6b20c054d22ea9c09a52fb3cb3bc879879028a7a9c64736f6c634300081e0033",
					"opcodes": "PUSH1 0x80 PUSH1 0x40 MSTORE CALLVALUE DUP1 ISZERO PUSH1 0xE JUMPI PUSH0 PUSH0 REVERT JUMPDEST POP CALLER PUSH0 PUSH0 PUSH2 0x100 EXP DUP2 SLOAD DUP2 PUSH20 0xFFFFFFFFFFFFFFFFFFFFFFFFFFFFFFFFFFFFFFFF MUL NOT AND SWAP1 DUP4 PUSH20 0xFFFFFFFFFFFFFFFFFFFFFFFFFFFFFFFFFFFFFFFF AND MUL OR SWAP1 SSTORE POP PUSH2 0x41D DUP1 PUSH2 0x5B PUSH0 CODECOPY PUSH0 RETURN INVALID PUSH1 0x80 PUSH1 0x40 MSTORE PUSH1 0x4 CALLDATASIZE LT PUSH2 0x2C JUMPI PUSH0 CALLDATALOAD PUSH1 0xE0 SHR DUP1 PUSH4 0x357371D EQ PUSH2 0x70 JUMPI DUP1 PUSH4 0xD0E30DB0 EQ PUSH2 0x98 JUMPI PUSH2 0x6C JUMP JUMPDEST CALLDATASIZE PUSH2 0x6C JUMPI PUSH32 0xD6717F327E0CB88B4A97A7F67A453E9258252C34937CCBDD86DE7CB840E7DEF3 CALLER CALLVALUE PUSH1 0x40 MLOAD PUSH2 0x62 SWAP3 SWAP2 SWAP1 PUSH2 0x271 JUMP JUMPDEST PUSH1 0x40 MLOAD DUP1 SWAP2 SUB SWAP1 LOG1 STOP JUMPDEST PUSH0 PUSH0 REVERT JUMPDEST CALLVALUE DUP1 ISZERO PUSH2 0x7B JUMPI PUSH0 PUSH0 REVERT JUMPDEST POP PUSH2 0x96 PUSH1 0x4 DUP1 CALLDATASIZE SUB DUP2 ADD SWAP1 PUSH2 0x91 SWAP2 SWAP1 PUSH2 0x2F0 JUMP JUMPDEST PUSH2 0xA2 JUMP JUMPDEST STOP JUMPDEST PUSH2 0xA0 PUSH2 0x1DF JUMP JUMPDEST STOP JUMPDEST PUSH0 PUSH0 SWAP1 SLOAD SWAP1 PUSH2 0x100 EXP SWAP1 DIV PUSH20 0xFFFFFFFFFFFFFFFFFFFFFFFFFFFFFFFFFFFFFFFF AND PUSH20 0xFFFFFFFFFFFFFFFFFFFFFFFFFFFFFFFFFFFFFFFF AND CALLER PUSH20 0xFFFFFFFFFFFFFFFFFFFFFFFFFFFFFFFFFFFFFFFF AND EQ PUSH2 0x130 JUMPI PUSH1 0x40 MLOAD PUSH32 0x8C379A000000000000000000000000000000000000000000000000000000000 DUP2 MSTORE PUSH1 0x4 ADD PUSH2 0x127 SWAP1 PUSH2 0x388 JUMP JUMPDEST PUSH1 0x40 MLOAD DUP1 SWAP2 SUB SWAP1 REVERT JUMPDEST PUSH0 DUP3 PUSH20 0xFFFFFFFFFFFFFFFFFFFFFFFFFFFFFFFFFFFFFFFF AND DUP3 PUSH1 0x40 MLOAD PUSH2 0x155 SWAP1 PUSH2 0x3D3 JUMP JUMPDEST PUSH0 PUSH1 0x40 MLOAD DUP1 DUP4 SUB DUP2 DUP6 DUP8 GAS CALL SWAP3 POP POP POP RETURNDATASIZE DUP1 PUSH0 DUP2 EQ PUSH2 0x18F JUMPI PUSH1 0x40 MLOAD SWAP2 POP PUSH1 0x1F NOT PUSH1 0x3F RETURNDATASIZE ADD AND DUP3 ADD PUSH1 0x40 MSTORE RETURNDATASIZE DUP3 MSTORE RETURNDATASIZE PUSH0 PUSH1 0x20 DUP5 ADD RETURNDATACOPY PUSH2 0x194 JUMP JUMPDEST PUSH1 0x60 SWAP2 POP JUMPDEST POP POP SWAP1 POP DUP1 PUSH2 0x1A1 JUMPI PUSH0 PUSH0 REVERT JUMPDEST PUSH32 0xF6334794522B9DB534A812AAAE1AF828A2E96AAC68473B58E36D7D0BFD67477B DUP4 DUP4 PUSH1 0x40 MLOAD PUSH2 0x1D2 SWAP3 SWAP2 SWAP1 PUSH2 0x271 JUMP JUMPDEST PUSH1 0x40 MLOAD DUP1 SWAP2 SUB SWAP1 LOG1 POP POP POP JUMP JUMPDEST PUSH32 0xE1FFFCC4923D04B559F4D29A8BFC6CDA04EB5B0D3C460751C2402C5C5CC9109C CALLER CALLVALUE PUSH1 0x40 MLOAD PUSH2 0x210 SWAP3 SWAP2 SWAP1 PUSH2 0x271 JUMP JUMPDEST PUSH1 0x40 MLOAD DUP1 SWAP2 SUB SWAP1 LOG1 JUMP JUMPDEST PUSH0 PUSH20 0xFFFFFFFFFFFFFFFFFFFFFFFFFFFFFFFFFFFFFFFF DUP3 AND SWAP1 POP SWAP2 SWAP1 POP JUMP JUMPDEST PUSH0 PUSH2 0x243 DUP3 PUSH2 0x21A JUMP JUMPDEST SWAP1 POP SWAP2 SWAP1 POP JUMP JUMPDEST PUSH2 0x253 DUP2 PUSH2 0x239 JUMP JUMPDEST DUP3 MSTORE POP POP JUMP JUMPDEST PUSH0 DUP2 SWAP1 POP SWAP2 SWAP1 POP JUMP JUMPDEST PUSH2 0x26B DUP2 PUSH2 0x259 JUMP JUMPDEST DUP3 MSTORE POP POP JUMP JUMPDEST PUSH0 PUSH1 0x40 DUP3 ADD SWAP1 POP PUSH2 0x284 PUSH0 DUP4 ADD DUP6 PUSH2 0x24A JUMP JUMPDEST PUSH2 0x291 PUSH1 0x20 DUP4 ADD DUP5 PUSH2 0x262 JUMP JUMPDEST SWAP4 SWAP3 POP POP POP JUMP JUMPDEST PUSH0 PUSH0 REVERT JUMPDEST PUSH2 0x2A5 DUP2 PUSH2 0x239 JUMP JUMPDEST DUP2 EQ PUSH2 0x2AF JUMPI PUSH0 PUSH0 REVERT JUMPDEST POP JUMP JUMPDEST PUSH0 DUP2 CALLDATALOAD SWAP1 POP PUSH2 0x2C0 DUP2 PUSH2 0x29C JUMP JUMPDEST SWAP3 SWAP2 POP POP JUMP JUMPDEST PUSH2 0x2CF DUP2 PUSH2 0x259 JUMP JUMPDEST DUP2 EQ PUSH2 0x2D9 JUMPI PUSH0 PUSH0 REVERT JUMPDEST POP JUMP JUMPDEST PUSH0 DUP2 CALLDATALOAD SWAP1 POP PUSH2 0x2EA DUP2 PUSH2 0x2C6 JUMP JUMPDEST SWAP3 SWAP2 POP POP JUMP JUMPDEST PUSH0 PUSH0 PUSH1 0x40 DUP4 DUP6 SUB SLT ISZERO PUSH2 0x306 JUMPI PUSH2 0x305 PUSH2 0x298 JUMP JUMPDEST JUMPDEST PUSH0 PUSH2 0x313 DUP6 DUP3 DUP7 ADD PUSH2 0x2B2 JUMP JUMPDEST SWAP3 POP POP PUSH1 0x20 PUSH2 0x324 DUP6 DUP3 DUP7 ADD PUSH2 0x2DC JUMP JUMPDEST SWAP2 POP POP SWAP3 POP SWAP3 SWAP1 POP JUMP JUMPDEST PUSH0 DUP3 DUP3 MSTORE PUSH1 0x20 DUP3 ADD SWAP1 POP SWAP3 SWAP2 POP POP JUMP JUMPDEST PUSH32 0x4E6F74204F776E65720000000000000000000000000000000000000000000000 PUSH0 DUP3 ADD MSTORE POP JUMP JUMPDEST PUSH0 PUSH2 0x372 PUSH1 0x9 DUP4 PUSH2 0x32E JUMP JUMPDEST SWAP2 POP PUSH2 0x37D DUP3 PUSH2 0x33E JUMP JUMPDEST PUSH1 0x20 DUP3 ADD SWAP1 POP SWAP2 SWAP1 POP JUMP JUMPDEST PUSH0 PUSH1 0x20 DUP3 ADD SWAP1 POP DUP2 DUP2 SUB PUSH0 DUP4 ADD MSTORE PUSH2 0x39F DUP2 PUSH2 0x366 JUMP JUMPDEST SWAP1 POP SWAP2 SWAP1 POP JUMP JUMPDEST PUSH0 DUP2 SWAP1 POP SWAP3 SWAP2 POP POP JUMP JUMPDEST POP JUMP JUMPDEST PUSH0 PUSH2 0x3BE PUSH0 DUP4 PUSH2 0x3A6 JUMP JUMPDEST SWAP2 POP PUSH2 0x3C9 DUP3 PUSH2 0x3B0 JUMP JUMPDEST PUSH0 DUP3 ADD SWAP1 POP SWAP2 SWAP1 POP JUMP JUMPDEST PUSH0 PUSH2 0x3DD DUP3 PUSH2 0x3B3 JUMP JUMPDEST SWAP2 POP DUP2 SWAP1 POP SWAP2 SWAP1 POP JUMP INVALID LOG2 PUSH5 0x6970667358 0x22 SLT KECCAK256 0xC5 SELFDESTRUCT SELFBALANCE 0xC6 PUSH2 0x9ECA 0x22 0xF6 0xBC GASPRICE PUSH12 0x20C054D22EA9C09A52FB3CB3 0xBC DUP8 SWAP9 PUSH26 0x28A7A9C64736F6C634300081E00330000000000000000000000 "
				},
				"gasEstimates": {
					"creation": {
						"codeDepositCost": "210600",
						"executionCost": "24513",
						"totalCost": "235113"
					},
					"external": {
						"deposit()": "1711",
						"release(address,uint256)": "infinite"
					}
				},
				"methodIdentifiers": {
					"deposit()": "d0e30db0",
					"release(address,uint256)": "0357371d"
				}
			},
			"storageLayout": {
				"storage": [
					{
						"astId": 3,
						"contract": "contracts/PHASE INHERITANCE/Multi-tiered subscription.sol:PaymentModule",
						"label": "owner",
						"offset": 0,
						"slot": "0",
						"type": "t_address"
					},
					{
						"astId": 5,
						"contract": "contracts/PHASE INHERITANCE/Multi-tiered subscription.sol:PaymentModule",
						"label": "locked",
						"offset": 20,
						"slot": "0",
						"type": "t_bool"
					}
				],
				"types": {
					"t_address": {
						"encoding": "inplace",
						"label": "address",
						"numberOfBytes": "20"
					},
					"t_bool": {
						"encoding": "inplace",
						"label": "bool",
						"numberOfBytes": "1"
					}
				}
			},
			"userdoc": {
				"kind": "user",
				"methods": {},
				"version": 1
			}
		}
	}
}