{
	"data": {
		"bytecode": {
			"linkReferences": {},
			"object": "608060405234801561000f575f5ffd5b506040516109ee3803806109ee83398181016040528101906100319190610190565b335f5f6101000a81548173ffffffffffffffffffffffffffffffffffffffff021916908373ffffffffffffffffffffffffffffffffffffffff1602179055508260015f6101000a81548173ffffffffffffffffffffffffffffffffffffffff021916908373ffffffffffffffffffffffffffffffffffffffff1602179055508160025f6101000a81548173ffffffffffffffffffffffffffffffffffffffff021916908373ffffffffffffffffffffffffffffffffffffffff160217905550806004819055505050506101e0565b5f5ffd5b5f73ffffffffffffffffffffffffffffffffffffffff82169050919050565b5f61012c82610103565b9050919050565b61013c81610122565b8114610146575f5ffd5b50565b5f8151905061015781610133565b92915050565b5f819050919050565b61016f8161015d565b8114610179575f5ffd5b50565b5f8151905061018a81610166565b92915050565b5f5f5f606084860312156101a7576101a66100ff565b5b5f6101b486828701610149565b93505060206101c586828701610149565b92505060406101d68682870161017c565b9150509250925092565b610801806101ed5f395ff3fe608060405260043610610037575f3560e01c80630357371d1461007b578063d0e30db0146100a3578063f297be66146100ad57610077565b36610077577fd6717f327e0cb88b4a97a7f67a453e9258252c34937ccbdd86de7cb840e7def3333460405161006d9291906104d4565b60405180910390a1005b5f5ffd5b348015610086575f5ffd5b506100a1600480360381019061009c9190610553565b6100d5565b005b6100ab610212565b005b3480156100b8575f5ffd5b506100d360048036038101906100ce9190610591565b61024d565b005b5f5f9054906101000a900473ffffffffffffffffffffffffffffffffffffffff1673ffffffffffffffffffffffffffffffffffffffff163373ffffffffffffffffffffffffffffffffffffffff1614610163576040517f08c379a000000000000000000000000000000000000000000000000000000000815260040161015a9061063b565b60405180910390fd5b5f8273ffffffffffffffffffffffffffffffffffffffff168260405161018890610686565b5f6040518083038185875af1925050503d805f81146101c2576040519150601f19603f3d011682016040523d82523d5f602084013e6101c7565b606091505b50509050806101d4575f5ffd5b7ff6334794522b9db534a812aaae1af828a2e96aac68473b58e36d7d0bfd67477b83836040516102059291906104d4565b60405180910390a1505050565b7fe1fffcc4923d04b559f4d29a8bfc6cda04eb5b0d3c460751c2402c5c5cc9109c33346040516102439291906104d4565b60405180910390a1565b5f5f9054906101000a900473ffffffffffffffffffffffffffffffffffffffff1673ffffffffffffffffffffffffffffffffffffffff163373ffffffffffffffffffffffffffffffffffffffff16146102db576040517f08c379a00000000000000000000000000000000000000000000000000000000081526004016102d29061063b565b60405180910390fd5b5f670de0b6b3a7640000836102f091906106c7565b90505f6064838361030191906106c7565b61030b9190610735565b90505f60646004548461031e91906106c7565b6103289190610735565b90505f81836103379190610765565b846103429190610798565b90505f60015f9054906101000a900473ffffffffffffffffffffffffffffffffffffffff1673ffffffffffffffffffffffffffffffffffffffff168460405161038a90610686565b5f6040518083038185875af1925050503d805f81146103c4576040519150601f19603f3d011682016040523d82523d5f602084013e6103c9565b606091505b50509050806103d6575f5ffd5b5f60025f9054906101000a900473ffffffffffffffffffffffffffffffffffffffff1673ffffffffffffffffffffffffffffffffffffffff168460405161041c90610686565b5f6040518083038185875af1925050503d805f8114610456576040519150601f19603f3d011682016040523d82523d5f602084013e61045b565b606091505b5050905080610468575f5ffd5b61047289846100d5565b505050505050505050565b5f73ffffffffffffffffffffffffffffffffffffffff82169050919050565b5f6104a68261047d565b9050919050565b6104b68161049c565b82525050565b5f819050919050565b6104ce816104bc565b82525050565b5f6040820190506104e75f8301856104ad565b6104f460208301846104c5565b9392505050565b5f5ffd5b6105088161049c565b8114610512575f5ffd5b50565b5f81359050610523816104ff565b92915050565b610532816104bc565b811461053c575f5ffd5b50565b5f8135905061054d81610529565b92915050565b5f5f60408385031215610569576105686104fb565b5b5f61057685828601610515565b92505060206105878582860161053f565b9150509250929050565b5f5f5f606084860312156105a8576105a76104fb565b5b5f6105b586828701610515565b93505060206105c68682870161053f565b92505060406105d78682870161053f565b9150509250925092565b5f82825260208201905092915050565b7f4e6f74204f776e657200000000000000000000000000000000000000000000005f82015250565b5f6106256009836105e1565b9150610630826105f1565b602082019050919050565b5f6020820190508181035f83015261065281610619565b9050919050565b5f81905092915050565b50565b5f6106715f83610659565b915061067c82610663565b5f82019050919050565b5f61069082610666565b9150819050919050565b7f4e487b71000000000000000000000000000000000000000000000000000000005f52601160045260245ffd5b5f6106d1826104bc565b91506106dc836104bc565b92508282026106ea816104bc565b915082820484148315176107015761070061069a565b5b5092915050565b7f4e487b71000000000000000000000000000000000000000000000000000000005f52601260045260245ffd5b5f61073f826104bc565b915061074a836104bc565b92508261075a57610759610708565b5b828204905092915050565b5f61076f826104bc565b915061077a836104bc565b92508282019050808211156107925761079161069a565b5b92915050565b5f6107a2826104bc565b91506107ad836104bc565b92508282039050818111156107c5576107c461069a565b5b9291505056fea2646970667358221220d60ed23a15a32521b44457a6cdf1ff1a207f050d7041d5ed1158f43ee56ffb4564736f6c634300081e0033",
			"opcodes": "PUSH1 0x80 PUSH1 0x40 MSTORE CALLVALUE DUP1 ISZERO PUSH2 0xF JUMPI PUSH0 PUSH0 REVERT JUMPDEST POP PUSH1 0x40 MLOAD PUSH2 0x9EE CODESIZE SUB DUP1 PUSH2 0x9EE DUP4 CODECOPY DUP2 DUP2 ADD PUSH1 0x40 MSTORE DUP2 ADD SWAP1 PUSH2 0x31 SWAP2 SWAP1 PUSH2 0x190 JUMP JUMPDEST CALLER PUSH0 PUSH0 PUSH2 0x100 EXP DUP2 SLOAD DUP2 PUSH20 0xFFFFFFFFFFFFFFFFFFFFFFFFFFFFFFFFFFFFFFFF MUL NOT AND SWAP1 DUP4 PUSH20 0xFFFFFFFFFFFFFFFFFFFFFFFFFFFFFFFFFFFFFFFF AND MUL OR SWAP1 SSTORE POP DUP3 PUSH1 0x1 PUSH0 PUSH2 0x100 EXP DUP2 SLOAD DUP2 PUSH20 0xFFFFFFFFFFFFFFFFFFFFFFFFFFFFFFFFFFFFFFFF MUL NOT AND SWAP1 DUP4 PUSH20 0xFFFFFFFFFFFFFFFFFFFFFFFFFFFFFFFFFFFFFFFF AND MUL OR SWAP1 SSTORE POP DUP2 PUSH1 0x2 PUSH0 PUSH2 0x100 EXP DUP2 SLOAD DUP2 PUSH20 0xFFFFFFFFFFFFFFFFFFFFFFFFFFFFFFFFFFFFFFFF MUL NOT AND SWAP1 DUP4 PUSH20 0xFFFFFFFFFFFFFFFFFFFFFFFFFFFFFFFFFFFFFFFF AND MUL OR SWAP1 SSTORE POP DUP1 PUSH1 0x4 DUP2 SWAP1 SSTORE POP POP POP POP PUSH2 0x1E0 JUMP JUMPDEST PUSH0 PUSH0 REVERT JUMPDEST PUSH0 PUSH20 0xFFFFFFFFFFFFFFFFFFFFFFFFFFFFFFFFFFFFFFFF DUP3 AND SWAP1 POP SWAP2 SWAP1 POP JUMP JUMPDEST PUSH0 PUSH2 0x12C DUP3 PUSH2 0x103 JUMP JUMPDEST SWAP1 POP SWAP2 SWAP1 POP JUMP JUMPDEST PUSH2 0x13C DUP2 PUSH2 0x122 JUMP JUMPDEST DUP2 EQ PUSH2 0x146 JUMPI PUSH0 PUSH0 REVERT JUMPDEST POP JUMP JUMPDEST PUSH0 DUP2 MLOAD SWAP1 POP PUSH2 0x157 DUP2 PUSH2 0x133 JUMP JUMPDEST SWAP3 SWAP2 POP POP JUMP JUMPDEST PUSH0 DUP2 SWAP1 POP SWAP2 SWAP1 POP JUMP JUMPDEST PUSH2 0x16F DUP2 PUSH2 0x15D JUMP JUMPDEST DUP2 EQ PUSH2 0x179 JUMPI PUSH0 PUSH0 REVERT JUMPDEST POP JUMP JUMPDEST PUSH0 DUP2 MLOAD SWAP1 POP PUSH2 0x18A DUP2 PUSH2 0x166 JUMP JUMPDEST SWAP3 SWAP2 POP POP JUMP JUMPDEST PUSH0 PUSH0 PUSH0 PUSH1 0x60 DUP5 DUP7 SUB SLT ISZERO PUSH2 0x1A7 JUMPI PUSH2 0x1A6 PUSH2 0xFF JUMP JUMPDEST JUMPDEST PUSH0 PUSH2 0x1B4 DUP7 DUP3 DUP8 ADD PUSH2 0x149 JUMP JUMPDEST SWAP4 POP POP PUSH1 0x20 PUSH2 0x1C5 DUP7 DUP3 DUP8 ADD PUSH2 0x149 JUMP JUMPDEST SWAP3 POP POP PUSH1 0x40 PUSH2 0x1D6 DUP7 DUP3 DUP8 ADD PUSH2 0x17C JUMP JUMPDEST SWAP2 POP POP SWAP3 POP SWAP3 POP SWAP3 JUMP JUMPDEST PUSH2 0x801 DUP1 PUSH2 0x1ED PUSH0 CODECOPY PUSH0 RETURN INVALID PUSH1 0x80 PUSH1 0x40 MSTORE PUSH1 0x4 CALLDATASIZE LT PUSH2 0x37 JUMPI PUSH0 CALLDATALOAD PUSH1 0xE0 SHR DUP1 PUSH4 0x357371D EQ PUSH2 0x7B JUMPI DUP1 PUSH4 0xD0E30DB0 EQ PUSH2 0xA3 JUMPI DUP1 PUSH4 0xF297BE66 EQ PUSH2 0xAD JUMPI PUSH2 0x77 JUMP JUMPDEST CALLDATASIZE PUSH2 0x77 JUMPI PUSH32 0xD6717F327E0CB88B4A97A7F67A453E9258252C34937CCBDD86DE7CB840E7DEF3 CALLER CALLVALUE PUSH1 0x40 MLOAD PUSH2 0x6D SWAP3 SWAP2 SWAP1 PUSH2 0x4D4 JUMP JUMPDEST PUSH1 0x40 MLOAD DUP1 SWAP2 SUB SWAP1 LOG1 STOP JUMPDEST PUSH0 PUSH0 REVERT JUMPDEST CALLVALUE DUP1 ISZERO PUSH2 0x86 JUMPI PUSH0 PUSH0 REVERT JUMPDEST POP PUSH2 0xA1 PUSH1 0x4 DUP1 CALLDATASIZE SUB DUP2 ADD SWAP1 PUSH2 0x9C SWAP2 SWAP1 PUSH2 0x553 JUMP JUMPDEST PUSH2 0xD5 JUMP JUMPDEST STOP JUMPDEST PUSH2 0xAB PUSH2 0x212 JUMP JUMPDEST STOP JUMPDEST CALLVALUE DUP1 ISZERO PUSH2 0xB8 JUMPI PUSH0 PUSH0 REVERT JUMPDEST POP PUSH2 0xD3 PUSH1 0x4 DUP1 CALLDATASIZE SUB DUP2 ADD SWAP1 PUSH2 0xCE SWAP2 SWAP1 PUSH2 0x591 JUMP JUMPDEST PUSH2 0x24D JUMP JUMPDEST STOP JUMPDEST PUSH0 PUSH0 SWAP1 SLOAD SWAP1 PUSH2 0x100 EXP SWAP1 DIV PUSH20 0xFFFFFFFFFFFFFFFFFFFFFFFFFFFFFFFFFFFFFFFF AND PUSH20 0xFFFFFFFFFFFFFFFFFFFFFFFFFFFFFFFFFFFFFFFF AND CALLER PUSH20 0xFFFFFFFFFFFFFFFFFFFFFFFFFFFFFFFFFFFFFFFF AND EQ PUSH2 0x163 JUMPI PUSH1 0x40 MLOAD PUSH32 0x8C379A000000000000000000000000000000000000000000000000000000000 DUP2 MSTORE PUSH1 0x4 ADD PUSH2 0x15A SWAP1 PUSH2 0x63B JUMP JUMPDEST PUSH1 0x40 MLOAD DUP1 SWAP2 SUB SWAP1 REVERT JUMPDEST PUSH0 DUP3 PUSH20 0xFFFFFFFFFFFFFFFFFFFFFFFFFFFFFFFFFFFFFFFF AND DUP3 PUSH1 0x40 MLOAD PUSH2 0x188 SWAP1 PUSH2 0x686 JUMP JUMPDEST PUSH0 PUSH1 0x40 MLOAD DUP1 DUP4 SUB DUP2 DUP6 DUP8 GAS CALL SWAP3 POP POP POP RETURNDATASIZE DUP1 PUSH0 DUP2 EQ PUSH2 0x1C2 JUMPI PUSH1 0x40 MLOAD SWAP2 POP PUSH1 0x1F NOT PUSH1 0x3F RETURNDATASIZE ADD AND DUP3 ADD PUSH1 0x40 MSTORE RETURNDATASIZE DUP3 MSTORE RETURNDATASIZE PUSH0 PUSH1 0x20 DUP5 ADD RETURNDATACOPY PUSH2 0x1C7 JUMP JUMPDEST PUSH1 0x60 SWAP2 POP JUMPDEST POP POP SWAP1 POP DUP1 PUSH2 0x1D4 JUMPI PUSH0 PUSH0 REVERT JUMPDEST PUSH32 0xF6334794522B9DB534A812AAAE1AF828A2E96AAC68473B58E36D7D0BFD67477B DUP4 DUP4 PUSH1 0x40 MLOAD PUSH2 0x205 SWAP3 SWAP2 SWAP1 PUSH2 0x4D4 JUMP JUMPDEST PUSH1 0x40 MLOAD DUP1 SWAP2 SUB SWAP1 LOG1 POP POP POP JUMP JUMPDEST PUSH32 0xE1FFFCC4923D04B559F4D29A8BFC6CDA04EB5B0D3C460751C2402C5C5CC9109C CALLER CALLVALUE PUSH1 0x40 MLOAD PUSH2 0x243 SWAP3 SWAP2 SWAP1 PUSH2 0x4D4 JUMP JUMPDEST PUSH1 0x40 MLOAD DUP1 SWAP2 SUB SWAP1 LOG1 JUMP JUMPDEST PUSH0 PUSH0 SWAP1 SLOAD SWAP1 PUSH2 0x100 EXP SWAP1 DIV PUSH20 0xFFFFFFFFFFFFFFFFFFFFFFFFFFFFFFFFFFFFFFFF AND PUSH20 0xFFFFFFFFFFFFFFFFFFFFFFFFFFFFFFFFFFFFFFFF AND CALLER PUSH20 0xFFFFFFFFFFFFFFFFFFFFFFFFFFFFFFFFFFFFFFFF AND EQ PUSH2 0x2DB JUMPI PUSH1 0x40 MLOAD PUSH32 0x8C379A000000000000000000000000000000000000000000000000000000000 DUP2 MSTORE PUSH1 0x4 ADD PUSH2 0x2D2 SWAP1 PUSH2 0x63B JUMP JUMPDEST PUSH1 0x40 MLOAD DUP1 SWAP2 SUB SWAP1 REVERT JUMPDEST PUSH0 PUSH8 0xDE0B6B3A7640000 DUP4 PUSH2 0x2F0 SWAP2 SWAP1 PUSH2 0x6C7 JUMP JUMPDEST SWAP1 POP PUSH0 PUSH1 0x64 DUP4 DUP4 PUSH2 0x301 SWAP2 SWAP1 PUSH2 0x6C7 JUMP JUMPDEST PUSH2 0x30B SWAP2 SWAP1 PUSH2 0x735 JUMP JUMPDEST SWAP1 POP PUSH0 PUSH1 0x64 PUSH1 0x4 SLOAD DUP5 PUSH2 0x31E SWAP2 SWAP1 PUSH2 0x6C7 JUMP JUMPDEST PUSH2 0x328 SWAP2 SWAP1 PUSH2 0x735 JUMP JUMPDEST SWAP1 POP PUSH0 DUP2 DUP4 PUSH2 0x337 SWAP2 SWAP1 PUSH2 0x765 JUMP JUMPDEST DUP5 PUSH2 0x342 SWAP2 SWAP1 PUSH2 0x798 JUMP JUMPDEST SWAP1 POP PUSH0 PUSH1 0x1 PUSH0 SWAP1 SLOAD SWAP1 PUSH2 0x100 EXP SWAP1 DIV PUSH20 0xFFFFFFFFFFFFFFFFFFFFFFFFFFFFFFFFFFFFFFFF AND PUSH20 0xFFFFFFFFFFFFFFFFFFFFFFFFFFFFFFFFFFFFFFFF AND DUP5 PUSH1 0x40 MLOAD PUSH2 0x38A SWAP1 PUSH2 0x686 JUMP JUMPDEST PUSH0 PUSH1 0x40 MLOAD DUP1 DUP4 SUB DUP2 DUP6 DUP8 GAS CALL SWAP3 POP POP POP RETURNDATASIZE DUP1 PUSH0 DUP2 EQ PUSH2 0x3C4 JUMPI PUSH1 0x40 MLOAD SWAP2 POP PUSH1 0x1F NOT PUSH1 0x3F RETURNDATASIZE ADD AND DUP3 ADD PUSH1 0x40 MSTORE RETURNDATASIZE DUP3 MSTORE RETURNDATASIZE PUSH0 PUSH1 0x20 DUP5 ADD RETURNDATACOPY PUSH2 0x3C9 JUMP JUMPDEST PUSH1 0x60 SWAP2 POP JUMPDEST POP POP SWAP1 POP DUP1 PUSH2 0x3D6 JUMPI PUSH0 PUSH0 REVERT JUMPDEST PUSH0 PUSH1 0x2 PUSH0 SWAP1 SLOAD SWAP1 PUSH2 0x100 EXP SWAP1 DIV PUSH20 0xFFFFFFFFFFFFFFFFFFFFFFFFFFFFFFFFFFFFFFFF AND PUSH20 0xFFFFFFFFFFFFFFFFFFFFFFFFFFFFFFFFFFFFFFFF AND DUP5 PUSH1 0x40 MLOAD PUSH2 0x41C SWAP1 PUSH2 0x686 JUMP JUMPDEST PUSH0 PUSH1 0x40 MLOAD DUP1 DUP4 SUB DUP2 DUP6 DUP8 GAS CALL SWAP3 POP POP POP RETURNDATASIZE DUP1 PUSH0 DUP2 EQ PUSH2 0x456 JUMPI PUSH1 0x40 MLOAD SWAP2 POP PUSH1 0x1F NOT PUSH1 0x3F RETURNDATASIZE ADD AND DUP3 ADD PUSH1 0x40 MSTORE RETURNDATASIZE DUP3 MSTORE RETURNDATASIZE PUSH0 PUSH1 0x20 DUP5 ADD RETURNDATACOPY PUSH2 0x45B JUMP JUMPDEST PUSH1 0x60 SWAP2 POP JUMPDEST POP POP SWAP1 POP DUP1 PUSH2 0x468 JUMPI PUSH0 PUSH0 REVERT JUMPDEST PUSH2 0x472 DUP10 DUP5 PUSH2 0xD5 JUMP JUMPDEST POP POP POP POP POP POP POP POP POP JUMP JUMPDEST PUSH0 PUSH20 0xFFFFFFFFFFFFFFFFFFFFFFFFFFFFFFFFFFFFFFFF DUP3 AND SWAP1 POP SWAP2 SWAP1 POP JUMP JUMPDEST PUSH0 PUSH2 0x4A6 DUP3 PUSH2 0x47D JUMP JUMPDEST SWAP1 POP SWAP2 SWAP1 POP JUMP JUMPDEST PUSH2 0x4B6 DUP2 PUSH2 0x49C JUMP JUMPDEST DUP3 MSTORE POP POP JUMP JUMPDEST PUSH0 DUP2 SWAP1 POP SWAP2 SWAP1 POP JUMP JUMPDEST PUSH2 0x4CE DUP2 PUSH2 0x4BC JUMP JUMPDEST DUP3 MSTORE POP POP JUMP JUMPDEST PUSH0 PUSH1 0x40 DUP3 ADD SWAP1 POP PUSH2 0x4E7 PUSH0 DUP4 ADD DUP6 PUSH2 0x4AD JUMP JUMPDEST PUSH2 0x4F4 PUSH1 0x20 DUP4 ADD DUP5 PUSH2 0x4C5 JUMP JUMPDEST SWAP4 SWAP3 POP POP POP JUMP JUMPDEST PUSH0 PUSH0 REVERT JUMPDEST PUSH2 0x508 DUP2 PUSH2 0x49C JUMP JUMPDEST DUP2 EQ PUSH2 0x512 JUMPI PUSH0 PUSH0 REVERT JUMPDEST POP JUMP JUMPDEST PUSH0 DUP2 CALLDATALOAD SWAP1 POP PUSH2 0x523 DUP2 PUSH2 0x4FF JUMP JUMPDEST SWAP3 SWAP2 POP POP JUMP JUMPDEST PUSH2 0x532 DUP2 PUSH2 0x4BC JUMP JUMPDEST DUP2 EQ PUSH2 0x53C JUMPI PUSH0 PUSH0 REVERT JUMPDEST POP JUMP JUMPDEST PUSH0 DUP2 CALLDATALOAD SWAP1 POP PUSH2 0x54D DUP2 PUSH2 0x529 JUMP JUMPDEST SWAP3 SWAP2 POP POP JUMP JUMPDEST PUSH0 PUSH0 PUSH1 0x40 DUP4 DUP6 SUB SLT ISZERO PUSH2 0x569 JUMPI PUSH2 0x568 PUSH2 0x4FB JUMP JUMPDEST JUMPDEST PUSH0 PUSH2 0x576 DUP6 DUP3 DUP7 ADD PUSH2 0x515 JUMP JUMPDEST SWAP3 POP POP PUSH1 0x20 PUSH2 0x587 DUP6 DUP3 DUP7 ADD PUSH2 0x53F JUMP JUMPDEST SWAP2 POP POP SWAP3 POP SWAP3 SWAP1 POP JUMP JUMPDEST PUSH0 PUSH0 PUSH0 PUSH1 0x60 DUP5 DUP7 SUB SLT ISZERO PUSH2 0x5A8 JUMPI PUSH2 0x5A7 PUSH2 0x4FB JUMP JUMPDEST JUMPDEST PUSH0 PUSH2 0x5B5 DUP7 DUP3 DUP8 ADD PUSH2 0x515 JUMP JUMPDEST SWAP4 POP POP PUSH1 0x20 PUSH2 0x5C6 DUP7 DUP3 DUP8 ADD PUSH2 0x53F JUMP JUMPDEST SWAP3 POP POP PUSH1 0x40 PUSH2 0x5D7 DUP7 DUP3 DUP8 ADD PUSH2 0x53F JUMP JUMPDEST SWAP2 POP POP SWAP3 POP SWAP3 POP SWAP3 JUMP JUMPDEST PUSH0 DUP3 DUP3 MSTORE PUSH1 0x20 DUP3 ADD SWAP1 POP SWAP3 SWAP2 POP POP JUMP JUMPDEST PUSH32 0x4E6F74204F776E65720000000000000000000000000000000000000000000000 PUSH0 DUP3 ADD MSTORE POP JUMP JUMPDEST PUSH0 PUSH2 0x625 PUSH1 0x9 DUP4 PUSH2 0x5E1 JUMP JUMPDEST SWAP2 POP PUSH2 0x630 DUP3 PUSH2 0x5F1 JUMP JUMPDEST PUSH1 0x20 DUP3 ADD SWAP1 POP SWAP2 SWAP1 POP JUMP JUMPDEST PUSH0 PUSH1 0x20 DUP3 ADD SWAP1 POP DUP2 DUP2 SUB PUSH0 DUP4 ADD MSTORE PUSH2 0x652 DUP2 PUSH2 0x619 JUMP JUMPDEST SWAP1 POP SWAP2 SWAP1 POP JUMP JUMPDEST PUSH0 DUP2 SWAP1 POP SWAP3 SWAP2 POP POP JUMP JUMPDEST POP JUMP JUMPDEST PUSH0 PUSH2 0x671 PUSH0 DUP4 PUSH2 0x659 JUMP JUMPDEST SWAP2 POP PUSH2 0x67C DUP3 PUSH2 0x663 JUMP JUMPDEST PUSH0 DUP3 ADD SWAP1 POP SWAP2 SWAP1 POP JUMP JUMPDEST PUSH0 PUSH2 0x690 DUP3 PUSH2 0x666 JUMP JUMPDEST SWAP2 POP DUP2 SWAP1 POP SWAP2 SWAP1 POP JUMP JUMPDEST PUSH32 0x4E487B7100000000000000000000000000000000000000000000000000000000 PUSH0 MSTORE PUSH1 0x11 PUSH1 0x4 MSTORE PUSH1 0x24 PUSH0 REVERT JUMPDEST PUSH0 PUSH2 0x6D1 DUP3 PUSH2 0x4BC JUMP JUMPDEST SWAP2 POP PUSH2 0x6DC DUP4 PUSH2 0x4BC JUMP JUMPDEST SWAP3 POP DUP3 DUP3 MUL PUSH2 0x6EA DUP2 PUSH2 0x4BC JUMP JUMPDEST SWAP2 POP DUP3 DUP3 DIV DUP5 EQ DUP4 ISZERO OR PUSH2 0x701 JUMPI PUSH2 0x700 PUSH2 0x69A JUMP JUMPDEST JUMPDEST POP SWAP3 SWAP2 POP POP JUMP JUMPDEST PUSH32 0x4E487B7100000000000000000000000000000000000000000000000000000000 PUSH0 MSTORE PUSH1 0x12 PUSH1 0x4 MSTORE PUSH1 0x24 PUSH0 REVERT JUMPDEST PUSH0 PUSH2 0x73F DUP3 PUSH2 0x4BC JUMP JUMPDEST SWAP2 POP PUSH2 0x74A DUP4 PUSH2 0x4BC JUMP JUMPDEST SWAP3 POP DUP3 PUSH2 0x75A JUMPI PUSH2 0x759 PUSH2 0x708 JUMP JUMPDEST JUMPDEST DUP3 DUP3 DIV SWAP1 POP SWAP3 SWAP2 POP POP JUMP JUMPDEST PUSH0 PUSH2 0x76F DUP3 PUSH2 0x4BC JUMP JUMPDEST SWAP2 POP PUSH2 0x77A DUP4 PUSH2 0x4BC JUMP JUMPDEST SWAP3 POP DUP3 DUP3 ADD SWAP1 POP DUP1 DUP3 GT ISZERO PUSH2 0x792 JUMPI PUSH2 0x791 PUSH2 0x69A JUMP JUMPDEST JUMPDEST SWAP3 SWAP2 POP POP JUMP JUMPDEST PUSH0 PUSH2 0x7A2 DUP3 PUSH2 0x4BC JUMP JUMPDEST SWAP2 POP PUSH2 0x7AD DUP4 PUSH2 0x4BC JUMP JUMPDEST SWAP3 POP DUP3 DUP3 SUB SWAP1 POP DUP2 DUP2 GT ISZERO PUSH2 0x7C5 JUMPI PUSH2 0x7C4 PUSH2 0x69A JUMP JUMPDEST JUMPDEST SWAP3 SWAP2 POP POP JUMP INVALID LOG2 PUSH5 0x6970667358 0x22 SLT KECCAK256 0xD6 0xE 0xD2 GASPRICE ISZERO LOG3 0x25 0x21 0xB4 PREVRANDAO JUMPI 0xA6 0xCD CALL SELFDESTRUCT BYTE KECCAK256 PUSH32 0x50D7041D5ED1158F43EE56FFB4564736F6C634300081E003300000000000000 "
		},
		"gasEstimates": {
			"creation": {
				"codeDepositCost": "409800",
				"executionCost": "infinite",
				"totalCost": "infinite"
			},
			"external": {
				"deposit()": "1711",
				"release(address,uint256)": "infinite",
				"release(address,uint256,uint256)": "infinite"
			}
		},
		"methodIdentifiers": {
			"deposit()": "d0e30db0",
			"release(address,uint256)": "0357371d",
			"release(address,uint256,uint256)": "f297be66"
		}
	},
	"abi": [
		{
			"inputs": [
				{
					"internalType": "address",
					"name": "_artist",
					"type": "address"
				},
				{
					"internalType": "address",
					"name": "_platform",
					"type": "address"
				},
				{
					"internalType": "uint256",
					"name": "_platformShare",
					"type": "uint256"
				}
			],
			"stateMutability": "nonpayable",
			"type": "constructor"
		},
		{
			"anonymous": false,
			"inputs": [
				{
					"indexed": false,
					"internalType": "address",
					"name": "sender",
					"type": "address"
				},
				{
					"indexed": false,
					"internalType": "uint256",
					"name": "value",
					"type": "uint256"
				}
			],
			"name": "Deposit",
			"type": "event"
		},
		{
			"anonymous": false,
			"inputs": [
				{
					"indexed": false,
					"internalType": "address",
					"name": "sender",
					"type": "address"
				},
				{
					"indexed": false,
					"internalType": "uint256",
					"name": "value",
					"type": "uint256"
				}
			],
			"name": "Receive",
			"type": "event"
		},
		{
			"anonymous": false,
			"inputs": [
				{
					"indexed": false,
					"internalType": "address",
					"name": "recipient",
					"type": "address"
				},
				{
					"indexed": false,
					"internalType": "uint256",
					"name": "value",
					"type": "uint256"
				}
			],
			"name": "Release",
			"type": "event"
		},
		{
			"inputs": [],
			"name": "deposit",
			"outputs": [],
			"stateMutability": "payable",
			"type": "function"
		},
		{
			"inputs": [
				{
					"internalType": "address",
					"name": "_to",
					"type": "address"
				},
				{
					"internalType": "uint256",
					"name": "_amount",
					"type": "uint256"
				}
			],
			"name": "release",
			"outputs": [],
			"stateMutability": "nonpayable",
			"type": "function"
		},
		{
			"inputs": [
				{
					"internalType": "address",
					"name": "_to",
					"type": "address"
				},
				{
					"internalType": "uint256",
					"name": "_amount",
					"type": "uint256"
				},
				{
					"internalType": "uint256",
					"name": "_artistShare",
					"type": "uint256"
				}
			],
			"name": "release",
			"outputs": [],
			"stateMutability": "nonpayable",
			"type": "function"
		},
		{
			"stateMutability": "payable",
			"type": "receive"
		}
	]
}